:020000040000FA
:0600000092EF11F0120066
:060008004BEF11F01200A5
:0600180066EF11F012007A
:0608000092EF11F012005E
:060808004BEF11F012009D
:0608180066EF11F0120072
:06082A0003005C23000046
:10083000040100000400000054230000F400000044
:100840000800000050230000000100000400000028
:10085000D9CFE6FFE1CFD9FFE6520001F451050AF6
:1008600001E13DD1050A01E139D1040A01E10DD1CF
:10087000070A01E1DCD0010A29E0030A01E030D1D6
:100880008A94DF6ADFCF00F00A0EE76E0018E8AE48
:1008900002D0E73402D0E750005C03E200D0DF2A48
:1008A000F1D78A96DF6ADFCF00F00A0EE76E0018F4
:1008B000E8AE02D0E73402D0E750005C03E200D09B
:1008C000DF2AF1D70001020EF46F0DD1FE0EDB50CE
:1008D000020A01E0A7D03C0EE66E0E0EE66EE66A56
:1008E0003AEC0BF0E552E552E552F80EE66E6E0E6C
:1008F000E66EE66A3AEC0BF0E552E552E552E66A3E
:100900000E0EE66EE66A3AEC0BF0E552E552E55261
:10091000F70EE66E6E0EE66EE66A3AEC0BF0E55206
:10092000E552E552050EE66E0E0EE66EE66A3AEC0C
:100930000BF0E552E552E552F60EE66E6E0EE66EEF
:10094000E66A3AEC0BF0E552E552E5523F0EE66EF0
:100950003F0EE66E0C0EE66E3AEC0BF0E552E552F9
:10096000E5523C0EE66E0E0EE66EE66A3AEC0BF0D1
:10097000E552E552E552F80EE66E6E0EE66EE66A58
:100980003AEC0BF0E552E552E552E66A0E0EE66EE1
:10099000E66A3AEC0BF0E552E552E552F70EE66EE8
:1009A0006E0EE66EE66A3AEC0BF0E552E552E55261
:1009B000040EE66E0E0EE66EE66A3AEC0BF0E552B9
:1009C000E552E552F60EE66E6E0EE66EE66A3AEC1B
:1009D0000BF0E552E552E552F80EE66E8F0EE66E2C
:1009E0000C0EE66E3AEC0BF0E552E552E552000EC5
:1009F000E66EE66AE66A3AEC0BF0E552E552E5523D
:100A000004C1F8F005C1F9F006C1FAF007C1FBF026
:100A1000000EE66EE66AE66A3AEC0BF0E552E55245
:100A2000E55201D000D00001030EF46F5CD0F80E47
:100A3000E96E000EEA6EEE500101045D006EEE50AC
:100A400001010559016EEE5001010659026EEE508A
:100A500001010759036E0334000E031809E6D8801C
:100A6000050E0054000E0154000E0254000E0354F3
:100A70000BE20001040EF46F04C1F8F005C1F9F0B7
:100A800006C1FAF007C1FBF02ED08A8600008A84E6
:100A9000F80EE96E000EEA6EEE500101045D006E84
:100AA000EE5001010559016EEE5001010659026E2A
:100AB000EE5001010759036E0334000E031809E6D6
:100AC000D880010E0054000E0154000E0254000E96
:100AD000035403E20001050EF46F05D004D003D0E7
:100AE0000001F46B00D0E552E552E7CFD9FF1200C8
:100AF000D9CFE6FFE1CFD9FF020EE1260001F55183
:100B0000080A01E129D2080A01E125D2070A01E118
:100B1000F9D1010A01E1F5D1030A01E1BED1010ACF
:100B200001E18CD1070A49E0010A29E0030A01E04A
:100B300014D28A94DF6ADFCF00F00A0EE76E001845
:100B4000E8AE02D0E73402D0E750005C03E200D008
:100B5000DF2AF1D78A96DF6ADFCF00F00A0EE76E50
:100B60000018E8AE02D0E73402D0E750005C03E2A0
:100B700000D0DF2AF1D70001020EF56FF1D1FE0E91
:100B8000DB50020A01E015D0A60EE66E8E0EE66E70
:100B9000E66A3AEC0BF0E552E552E552A60EE66E37
:100BA0009C0EE66EE66A3AEC0BF0E552E552E55231
:100BB00001D000D00001030EF56FFE0EDB50020ADB
:100BC00001E02ED1FA0EDBCF04F0FB0EDBCF05F0F7
:100BD000FC0EDBCF06F0FD0EDBCF07F006C000F009
:100BE00007C001F00001026A036A3F0E0016016AA5
:100BF000026A036A0E0E011200C0E6FF01C0E6FFA2
:100C0000E66A3AEC0BF0E552E552E552F80EE66E74
:100C10006E0EE66EE66A3AEC0BF0E552E552E552EE
:100C2000FA0EDBCF04F0FB0EDBCF05F0FC0EDBCFC2
:100C300006F0FD0EDBCF07F005C000F006C001F0A6
:100C400007C002F00001036A016A026A036A0E0E1D
:100C5000011200C0E6FF01C0E6FFE66A3AEC0BF0C5
:100C6000E552E552E552F70EE66E6E0EE66EE66A66
:100C70003AEC0BF0E552E552E552FA0EDBCF00F00C
:100C8000FB0EDBCF01F0FC0EDBCF02F0FD0EDBCF65
:100C900003F0016A026A036A0E0E011200C0E6FF49
:100CA00001C0E6FFE66A3AEC0BF0E552E552E55288
:100CB000F60EE66E6E0EE66EE66A3AEC0BF0E55264
:100CC000E552E552010EDB6A010EDBCF00F0F70EB4
:100CD000DB50FE0FE76E0018E8AE02D0E73402D01A
:100CE000E750005C4FE2010EDBCF04F0056A04BE62
:100CF0000568F80EDB500424E96EF90EDB50052080
:100D0000EA6EEFCF02F0036A02BE036802C003F08E
:100D1000026A010EE76EF80EDBCF08F0F90EDBCFAA
:100D200009F0E7500826000E0922010EDBCF0AF079
:100D30000B6A0ABE0B6808500A24E96E09500B20A2
:100D4000EA6EEFCF06F0076A06BE0768025006108B
:100D5000006E03500710016E00C0E6FF01C0E6FF01
:100D60000D0EE66E3AEC0BF0E552E552E552020E3E
:100D7000006E010EDBCFE7FF0050E726010EE7CF44
:100D8000DBFFA2D7010EDBCF04F0056A04BE0568C5
:100D9000F80EDB500424E96EF90EDB500520EA6EF4
:100DA000EFCF02F0036A02BE036802C003F0026ADA
:100DB000010EE76EF80EDBCF08F0F90EDBCF09F07D
:100DC000E7500826000E0922010EDBCF0AF00B6A5D
:100DD0000ABE0B6808500A24E96E09500B20EA6E1F
:100DE000EFCF06F0076A06BE076802500610006ED5
:100DF00003500710016E00C0E6FF01C0E6FF0F0EB2
:100E0000E66E3AEC0BF0E552E552E552000EE66E66
:100E1000E66AE66A3AEC0BF0E552E552E55201D09B
:100E200000D004C1F8F005C1F9F006C1FAF007C11D
:100E3000FBF08A820001030EF56F92D0F80EE96E86
:100E4000000EEA6EEE500101045D006EEE500101ED
:100E50000559016EEE5001010659026EEE50010176
:100E60000759036E0334000E031809E6D880010EFB
:100E70000054000E0154000E0254000E03540CE204
:100E80000001050EF56F8A9204C1F8F005C1F9F072
:100E900006C1FAF007C1FBF063D0F80EE96E000E50
:100EA000EA6EEE500101045D006EEE50010105593D
:100EB000016EEE5001010659026EEE500101075914
:100EC000036E0334000E031809E6D880010E0054A7
:100ED000000E0154000E0254000E035412E2F60EEE
:100EE000DB5004E10001060EF56F0BD00001070E88
:100EF000F56F04C1F8F005C1F9F006C1FAF007C1B9
:100F0000FBF02ED08A8600008A84F80EE96E000E6F
:100F1000EA6EEE500101045D006EEE5001010559CC
:100F2000016EEE5001010659026EEE5001010759A3
:100F3000036E0334000E031809E6D880010E005436
:100F4000000E0154000E0254000E035403E200018F
:100F5000080EF56F05D004D003D00001F56B00D06A
:100F6000020EE15C02E2E16AE552E16EE552E7CF92
:100F7000D9FF1200D9CFE6FFE1CFD9FF040EE12659
:100F80000001F651040A01E16BD1040A01E167D1C5
:100F9000030A01E13BD1010A29E0030A01E061D122
:100FA0008A94DF6ADFCF00F00A0EE76E0018E8AE21
:100FB00002D0E73402D0E750005C03E200D0DF2A21
:100FC000F1D78A96DF6ADFCF00F00A0EE76E0018CD
:100FD000E8AE02D0E73402D0E750005C03E200D074
:100FE000DF2AF1D70001020EF66F3ED1FE0EDB5074
:100FF000020A01E0FFD0A60EE66E8E0EE66EE66AED
:1010000039DBE552E552E552A60EE66E9C0EE66E21
:10101000E66A30DBE552E552E552010EDB6A010E6D
:10102000DBCF00F0FA0EDB50E76E0018E8AE02D01E
:10103000E73402D0E750005C01E3DBD0010EDBCFE8
:10104000E6FFFD0EDB50E552E724006E016A00501A
:101050000E0E011200C0E6FF01C0E6FFE66A0ADBE1
:10106000E552E552E552A90EE66E6E0EE66EE66AB0
:1010700001DBE552E552E552FD0EDBCF02F0036ADB
:1010800002BE0368010EDBCF04F0056A04BE0568EA
:1010900002500424006E03500520016E01C000F0D0
:1010A000016AFF0E0016000E011600500E0E01120E
:1010B00000C0E6FF01C0E6FFE66ADCDAE552E55271
:1010C000E552AA0EE66E6E0EE66EE66AD3DAE552D9
:1010D000E552E552010EDBCF02F0036A02BE03685F
:1010E000FB0EDB500224E96EFC0EDB500320EA6E9F
:1010F000EFCF00F0016A00BE016800500E0E011231
:1011000000C0E6FF01C0E6FFE66AB4DAE552E55248
:10111000E552A80EE66E6E0EE66EE66AABDAE552B2
:10112000E552E552A60EE66E840EE66EE66AA2DA97
:10113000E552E552E552A60EE66E820EE66EE66ACE
:1011400099DAE552E552E552DF6AA60EE66E500ED8
:10115000E66EE66A8FDAE552E552E552F50EE66E86
:101160006E0EE66EE66A86DAE552E552E552000E4C
:10117000E66EE66AE66A7EDAE552E552E552020E6E
:10118000E66E70DAE552020EF3CFDBFF030EF4CF0A
:10119000DBFF020EDB50020B0EE0DF50DF2A006E99
:1011A000016A00BE0168D890015004E6FF0E005CA1
:1011B000000E0158CAE38A92DF6ADFCF00F0016AAD
:1011C00000BE0168D890015004E6C80E005C000E15
:1011D000015803E200D0DF2AF0D7A60EE66E940E87
:1011E000E66EE66A47DAE552E552E552010EDB2A81
:1011F00016D701D000D00001030EF66F04C1F8F03D
:1012000005C1F9F006C1FAF007C1FBF08A860000BB
:101210008A84F80EE96E000EEA6EEE500101045D5C
:10122000006EEE5001010559016EEE5001010659A4
:10123000026EEE5001010759036E0334000E0318CD
:1012400009E6D880010E0054000E0154000E02542D
:10125000000E035403E20001040EF66F05D004D023
:1012600003D00001F56B00D0040EE15C02E2E16AFC
:10127000E552E16EE552E7CFD9FF1200D9CFE6FF84
:10128000E1CFD9FFE6520001F751080A01E1DED1B2
:10129000080A01E1DAD1070A01E1AED1010A01E150
:1012A0006BD1030A01E119D1010A01E1DED0070A7D
:1012B00049E0010A2BE0030A01E0C9D101010B6BEF
:1012C0008A94DF6ADFCF00F00A0EE76E0018E8AEFE
:1012D00002D0E73402D0E750005C03E200D0DF2AFE
:1012E000F1D78A96DF6ADFCF00F00A0EE76E0018AA
:1012F000E8AE02D0E73402D0E750005C03E200D051
:10130000DF2AF1D70001020EF76FA4D1FE0EDB50E9
:10131000020A01E013D0A60EE66E8E0EE66EE66AB5
:10132000A9D9E552E552E552A60EE66E9C0EE66E90
:10133000E66AA0D9E552E552E55201D000D000019D
:10134000030EF56FFE0EDB50020A01E080D0100E96
:10135000026EFD0EDB5002C0E7FFE75204E0E842F8
:101360007F0BE706FCE13F0B006E016A00BE0168DF
:1013700000500E0E011200C0E6FF01C0E6FFE66A53
:1013800079D9E552E552E552F80EE66E6E0EE66E3C
:10139000E66A70D9E552E552E552080E026EFD0E7E
:1013A000DB5002C0E7FFE75204E0E8427F0BE706AC
:1013B000FCE1006E016A00500E0E011200C0E6FF53
:1013C00001C0E6FFE66A56D9E552E552E552F70E4E
:1013D000E66E6E0EE66EE66A4DD9E552E552E552CE
:1013E000FD0EDB50006E016A00500E0E011200C0AF
:1013F000E6FF01C0E6FFE66A3DD9E552E552E55257
:10140000F60EE66E6E0EE66EE66A34D9E552E552E9
:10141000E552FB0EDBCFE9FFFC0EDBCFEAFFEFCF9F
:1014200000F0016A00BE016800C0E6FF01C0E6FFEF
:101430000F0EE66E1FD9E552E552E552000EE66E3C
:10144000E66AE66A17D9E552E552E55201D000D0C6
:1014500004C1F8F005C1F9F006C1FAF007C1FBF0CC
:101460008A820001030EF76FF5D0F80EE96E000EC8
:10147000EA6EEE500101045D006EEE500101055967
:10148000016EEE5001010659026EEE50010107593E
:10149000036E0334000E031809E6D880010E0054D1
:1014A000000E0154000E0254000E035415E2000118
:1014B000050EF76F8A92DF6ADFCF00F0016A00BE87
:1014C0000168D890015004E6C80E005C000E015877
:1014D00003E200D0DF2AF0D7BDD0FD0EDB50006E56
:1014E000016A010E0026000E012200500E0E0112AC
:1014F00000C0E6FF01C0E6FFE66ABCD8E552E5524F
:10150000E552F60EE66E6E0EE66EE66AB3D8E5526A
:10151000E552E552010EE76EFB0EDBCFE9FFFC0E54
:10152000DBCFEAFFE750E926000EEA22EFCF00F01A
:10153000016A00BE016800C001F0006A00C0E6FF59
:1015400001C0E6FF0F0EE66E95D8E552E552E55272
:10155000000EE66EE66AE66A8DD8E552E552E5527F
:1015600004C1F8F005C1F9F006C1FAF007C1FBF0BB
:101570008A820001060EF76FF80EE96E000EEA6E21
:10158000EE500101045D006EEE5001010559016E3F
:10159000EE5001010659026EEE5001010759036E2B
:1015A0000334000E031809E6D880010E0054000E23
:1015B0000154000E0254000E03541DE20001070EF8
:1015C000F76F8A92DF6ADFCF00F0016A00BE016820
:1015D000D890015004E6C80E005C000E015803E2EA
:1015E00000D0DF2AF0D704C1F8F005C1F9F006C138
:1015F000FAF007C1FBF02ED08A8600008A84F80E2C
:10160000E96E000EEA6EEE500101045D006EEE50D0
:1016100001010559016EEE5001010659026EEE50AE
:1016200001010759036E0334000E031809E6D88040
:10163000010E0054000E0154000E0254000E03541B
:1016400003E20001080EF56F05D004D003D00001BD
:10165000F56B00D0E552E552E7CFD9FF12006FD00D
:101660006ED06DD0D9CFE6FFF36AF46AE552E7CFCA
:10167000D9FF1200D9CFE6FFE1CFD9FFE652939010
:1016800093928A928A90DF6ADFCF00F0030EE76EB2
:101690000018E8AE02D0E73402D0E750005C19E24F
:1016A0008A820000FE0EDBCFE6FF010EDF5206E06D
:1016B000DFCFF3FFE846FE0BF306FCE1E552E7144B
:1016C00002E08A8001D08A9000008A920000DF2A1E
:1016D000DBD70000DF6ADFCF00F00F0EE76E0018E7
:1016E000E8AE02D0E73402D0E750005C22E28A8202
:1016F0000000010EDF5206E0DFCFF3FFE846FE0BED
:10170000F306FCE1026E036A02BE0368FC0EDB50C6
:101710000214006EFD0EDB500314016E0050011028
:1017200002E08A8001D08A9000008A920000DF2ABD
:10173000D2D70000E552E552E7CFD9FF1200D9CF4A
:0A174000E6FFE552E7CFD9FF1200E3
:06174A0004011851600BC0
:10175000E842E842E842E842E842000901E01200BB
:101760001951070A40E00B0A3EE0070A33E0010A7C
:1017700023E00B0A1FE0020A1DE0030A19E0080A31
:1017800010E0010A0CE00F0A08E0030A01E0120071
:1017900010D90001040EFC6F1200F4EF0BF02BEFD8
:1017A0000CF007D90001FE0EEE6F000EEF6F0CD0AB
:1017B00046EF0CF076EF0CF000D90001EE6FEF6B06
:1017C000FF0EEE27000EEF230001FD930001010E36
:1017D000F26F1200F2D8EA6AFF0FE96E000EEA22F9
:1017E0001AC4EFFF12001200800E0401185D32E1EE
:1017F0001B51030A1FE0010A0AE0030A29E1D9D8B4
:101800000001EA0EEE6F200EEF6F120E1ED0ABD865
:101810008E0EF626210EB9D8020E0001F76AEE25CB
:10182000F66EEF51F7220900F5CFF2F00A00F5CF7E
:10183000F3F00ED098D8920EF626210EA6D8EEC060
:10184000F6FFEFC0F7FF0800F5500001F26FF36BF1
:101850000001FD831200ADD80F0EE66E710EE66E2C
:101860000F0E9BD8010EE66EFF0EE66E000E95D8A9
:101870001AC4FEF004011A5104E10001050EFC6FC8
:1018800012000001060EFC6FEFEF0FF00401206B59
:10189000216B040118511F0B020A0DE0030A09E035
:1018A000010A16E186D80001FDA112D004012083AF
:1018B0000FD07FD80DD04BD801E0010E5DD8F0C01D
:1018C000E9FFEA6EEF50040B03E00401010E206F04
:1018D0000001ED050AE10001200EEE6F040EEF6F2E
:1018E0000001FD930001020EF26F120004011A05BF
:1018F0000EE118511F0B00090AE15BD8030E040129
:10190000195D03E10001FD8102D00001FD91040198
:101910001A511CE118511F0B020818E11C510F0B42
:10192000000914E014D801E0010E26D8030E0401CA
:10193000195D04E1840E38D8EF6E12001CAF03D09D
:1019400033D8EF6A1200880E2FD8EF6E120035D808
:101950000F0B080DF350016A000F006E040E0122F8
:101960001C51800B120025D804011A51F66EF76A3B
:10197000D890F636F7361200040DF350000100241B
:10198000F06F000E0120F16F1200F7220900F5CF71
:10199000EEF00A00F5CFEFF01200E66EDAEC0FF091
:1019A000E552E552E5521200F0C0E9FFF1C0EAFF4E
:1019B00012000001010EED6F1200FBDF04011C514B
:0219C000120013
:0E19C2006C5002E0000E01D0010E00090BE097
:1019D000040100513C0BE842E8420D0802E1FCEF33
:1019E0000CF00BEF0DF06C5002E0000E01D0010E78
:1019F000040901E01FD81200D9CFE6FFE1CFD9FFDB
:101A0000E6520001EC6BED6BF26BF36BA5EC0BF0A7
:101A100099D8E552F6D0020E0001EC5D09E168D8D4
:101A2000040100BD02D0C80E01D0880E006F120064
:101A3000DBEF0DF0040E0001FC5D09E11AC46EFF3E
:101A40006E50000802E2050E01D0030EFC6F00018B
:101A5000EC0509E10AD8040104BD02D0C80E01D08A
:101A6000880E046F1200DBEF0DF0C4D80001080EE1
:101A7000F25D000EF35905E2F2C0DEFFF3C0DDFFB8
:101A800003D0080EDE6EDD6A040104930491010E9A
:101A9000DB500413DFCF05F4000EDB500001F25FD2
:101AA000010EDB50F35B200EF06F040EF16F0001AE
:101AB000FDA30CD098D815E0EEC0F6FFEFC0F7FFFD
:101AC0000800F55080D8F6E2DB06F4D78CD809E0A0
:101AD000EEC0E9FFEFC0EAFFEF5075D8F7E2DB0692
:101AE000F5D7020EE15C02E2E16AE552E16E89D0CF
:101AF00081D8030E04010015E76E010EE7CFDBFF6E
:101B000001C4DFFFDE500001F227DD50F323200E79
:101B1000EE6F040EEF6F67D80EE0EEC0E9FFEFC086
:101B2000EAFFEF50F0C0E9FFF1C0EAFFEF6E6DD8B9
:101B3000F2E2DB06F0D7020EE15C02E2E16AE55276
:101B4000E16E5FD00001ED5105E145D8840E006FD4
:101B500004011DD0040118AF1CD00001F251040192
:101B60001E5D0001F35104011F5904E21EC4F2F08E
:101B70001FC4F3F07ADF0001010EEC6F2CD8800E49
:101B8000006F0401200E066F040E076FC80E046F6D
:101B900010D00001020EEC6F0401056BC80E046F3B
:101BA0000401080E016F200E026F040E036FC80EB1
:101BB000006F6D9812000001EC6B0DD8880E006F5D
:101BC0000401046B1200F0C0E9FFF1C0EAFFEF6E00
:101BD000000105EF0EF00401080E016F180E026FF0
:101BE000040E036F1200D9CFE9FFDACFEAFFEE50FF
:101BF000ED101200D9CFE6FFE1CFD9FF020EE126AA
:101C00001200E552E7CFD9FF1200F02B000EF123AE
:0A1C1000EE2BEF23DF06010E120099
:061C1A00070E8B12F80E0C
:101C20009416938C8150400B01E0010E0001606F0F
:101C3000929092929396939A9390939293948A8689
:101C40008A9A8A908A92F18E26EF0EF0C00EF26E7A
:101C50009D809E909F80D80ECF6EEF0ECE6E010EAF
:101C6000CD6E1200D9CFE6FFE1CFD9FFFE0EDB50DB
:101C7000010BE81CE8B08B80E8A08B90FE0EDB50D7
:101C8000020BE8407F0BE81CE8B08B82E8A08B9247
:101C9000FE0EDB50040BE840E8403F0BE81CE8B0C8
:101CA0008B84E8A08B94E552E7CFD9FF1200D9CFFF
:101CB000E6FFE1CFD9FF020EE12692D8060E000121
:101CC000FC5D01E283D06D50020B01E07FD0010E7C
:101CD000E66E620EE66E000EE66E34EC10F0E55233
:101CE000E552E552000861E2C00E0001621580086D
:101CF00040E10F0E6215E76E010EE7CFDBFFDB5010
:101D0000070A2CE0010A24E0030A4FE0010A1AE066
:101D1000070A4BE0010A10E0030A08E0010A45E166
:101D2000A3D802E18A9641D08A863FD09DD802E1AD
:101D30008A9A3BD08A8A39D097D802E18A8035D0F6
:101D40008A9033D091D802E18A822FD08A922DD006
:101D50008BD802E18A9429D08A8427D085D803E1E0
:101D60009390E66A03D09380010EE66E7BDFE55226
:101D70001CD0C00E6215C00818E19350010BDF6E35
:101D8000938093A004D081B004D0C30E05D08AA064
:101D900002D0D30E01D0C30EA26F0101010E006F5D
:101DA000DF50E8B09380E8A09390010100510EE06D
:101DB00004010CBF0BD000C1E6FFA20EE66E000EC0
:101DC000E66E04EC10F0E552E552E552020EE15CDD
:101DD00002E2E16AE552E16EE552E7CFD9FF120077
:101DE00001010151021104E1100E016F270E026F73
:101DF0000107000E025B6DA207D00151021124E120
:101E00008B708B828B8412000001FC5102E1010E69
:101E100012D0FC0502E1020E0ED0020EFC5D02E1C2
:101E2000030E09D0030EFC5D02E1040E04D0050E82
:101E3000FC5D05E1050EE66E15DFE5521200060EAB
:101E4000FC5D02E10101036B12008150400B01E0D7
:101E5000010E0001605D07E08150400B01E0010EC2
:101E6000606F81AC010C000C100E6215100812009E
:101E70006DA60CD80001FC0508E16DBA06D0686AB1
:101E8000696A69806988020EFC6F12006D6A696A6E
:101E90006D860001010EFC6F12006D6A696A000117
:101EA000FC6B12004DEF0FF00001FC5101E112003C
:101EB0006850040B04E06950040B01E038D86DB29F
:101EC00012006850010B04E06950010B01E050D88A
:101ED0006850100B04E06950100B01E024D86850E2
:101EE000400B04E06950400B01E037D86850200BEC
:101EF00004E06950200B01E032D86850020B04E086
:101F00006950020B01E032D8030E0001FC5D01E2D2
:101F100012006850080B06E06950080B03E0E1EC82
:101F20000CF068961200698468986D8212006D92B8
:101F30006994689412000001FDA10ED0F8DF6D8451
:101F40000101080E086F070E096F0807000E095BF4
:101F500008510911FAE16D941200689C120070A0FA
:101F600003D0DBEC0DF07090689A120068921200BA
:101F70006A6A686A9F0E6B6E7B0E696E6E6A0F0EE0
:101F8000E66E710EE66E0F0EE66E14D8E552E5525F
:101F9000E552160E706E68A602D06896FCD76D9852
:101FA000DBEC0DF00001FD910001FE6B0001030E62
:101FB000FC6F1200D9CFE6FFE1CFD9FFFD0EDBCFDA
:101FC000E9FFFE0EDBCFEAFFFC0EDB5004E0EE6A19
:0E1FD000FC0EDB06F9D7E552E7CFD9FF120071
:021FDE000101FF
:101FE0000A6B1E0E716E0401400E096F280E0A6FF7
:101FF000040E0B6F880E086F0401680E0E6F040E3E
:102000000F6F400E0C6F1200D9CFE6FFE1CFD9FF62
:10201000E652FC0EDB50400805E2400EF36EFC0E6B
:10202000F3CFDBFFDF6AFC0EDB50DF5C0FE2DF503B
:1020300050D8EF50E66EDF50EA6A680FE96E040E82
:10204000EA22E552E750EF6EDF2AEDD7FC0EDBCF38
:102050000DF4400E04010C170C7D880E0C13E55294
:10206000E552E7CFD9FF1200D9CFE6FFE1CFD9FF84
:1020700001010A6B040108BF26D0FC0EDBCF00F083
:102080000951D880005403E2FC0E09C4DBFF0101B2
:102090000A6BFC0EDB500A5D0FE20A51EA6A280F58
:1020A000E96E040EEA22EF50E66E0A5112D8E552AC
:1020B000E750EF6E0A2BEDD70401400E096F0817A9
:1020C000087D880E081301010A51E552E7CFD9FFB8
:1020D0001200E76EFD0EDBCFE9FFFE0EDBCFEAFF5D
:0A20E000E750E926000EEA22120084
:0620EA00120100020000DB
:1020F0000008D8040E0000000102000109022000BF
:102100000101008032090400000200000000070500
:102110000103400020070581034000200403090457
:102120002A0375007300620070006900630070008C
:1021300072006F0067002E00730066002E006E00B4
:102140006500740020002000200044035000490076
:102150004300440045004D0020004600530020008D
:102160005500530042002000440065006D006F00E0
:10217000200042006F00610072006400200028000F
:102180004300290020003200300030003400FC20E1
:08219000FC201C2120214A2142
:082198002A0EF66E080EF76E28
:1021A000000EF86E00010900F550E76F0900F550C8
:1021B000E86F03E1E76701D03DD00900F550E26F19
:1021C0000900F550E36F0900F550E46F09000900BC
:1021D000F550E96E0900F550EA6E090009000900A2
:1021E000F550E56F0900F550E66F09000900F6CFDC
:1021F000E9F0F7CFEAF0F8CFEBF0E2C0F6FFE3C08A
:10220000F7FFE4C0F8FF0001E55302E1E65307E001
:102210000900F550EE6EE507F8E2E607F9D7E9C0E8
:10222000F6FFEAC0F7FFEBC0F8FF0001E707000E7A
:06223000E85BBFD71200BD
:0A2236007F6A7E6A7D6A7C6A7B6A1B
:102240007A6A796A786A776A766A756A746A736A8A
:10225000726A716A706A6F6A6E6A6D6A6B6A6A6ABC
:10226000696A686A120004D80FD857EC0EF0FCD7E0
:102270000F0EC112140E6F6E0001FC6B0001FD6B9E
:102280000001FE6B0DEF0EF038EC0FF06FBE02D0C8
:0622900054EC0FF01200F7
:0A229600DACFE4FFE6529EA012D05A
:1022A0000101042B000E05230623072389708950A2
:1022B000010B02E0899201D08982D80ECF6EEF0E19
:1022C000CE6E9E90E552E5CFDAFF1100D8CFE4FF45
:1022D000E0CFE4FFE46EDACFE4FFE652E552E5CF6B
:0E22E000DAFFE550E5CFE0FFE5CFD8FF1000B4
:0222EE00557326
:1022F0006250696350726F67202D204F70656E20A9
:10230000536F7572636520555342205049432070C6
:10231000726F6772616D6D65720D0A0D0A001B5B4D
:03232000324A003E
:0C23240013EE00F023EE00F0F86A0D9CB0
:10233000CCEC10F0A7EC11F033EC11F0FBD712004D
:0E23400000EE00F00F0EEE6AEA62FDD712000A
:02234E0012007B
:04235000000000FF8A
:08235400000000000000000081
:04235C00000000007D
:020000040030CA
:0100000021DE
:010001000EF0
:0100020038C5
:010003001EDE
:01000500807A
:010006008079
:01000900C036
:01000B00E014
:00000001FF
