:020000040000FA
:0600000016EF20F01200D3
:0600080084EF1EF012005F
:06001800A4EF1EF012002F
:0608000016EF20F01200CB
:0608080084EF1EF0120057
:06081800A4EF1EF0120027
:06082A0002006E40000018
:100830007200000008000000684000007A0000001C
:0408400006000000AE
:0C084400DAEC12F0040EE126F1EC11F0E9
:10085000FD0EDB502D0A01E102D2010A01E1C6D1F1
:10086000280A01E12FD2030A01E196D1010A01E130
:1008700093D1050A01E190D1060A01E154D1080A99
:1008800001E14DD1050A01E14AD10A0A01E147D14E
:10089000110A01E123D1010A01E120D1190A01E184
:1008A000D1D0070A01E1CAD0050A01E1C7D0030A85
:1008B00001E1C4D0140A01E1B3D01F0A01E1B0D0B4
:1008C000010A01E19DD01D0A5FE0340A01E0F5D183
:1008D000FEEC12F0DE6ADD6AFFEC0FF0020EAEEC09
:1008E00010F03BE28A0E1AEC13F0800EE66E0F0E4B
:1008F000C6EC11F0C1EC11F0670EE66EE66A200E50
:10090000F6EC13F0E66AEFEC11F0860EE9EC12F06B
:10091000BB0EF6EC13F0580EE66E050EC6EC11F0A9
:10092000A90EE66E0A0EC6EC11F0380EA6EC11F018
:10093000390EA6EC11F0BAEC10F0A80E99EC11F0FB
:10094000C80EADEC0FF0BAEC10F0A90E99EC11F056
:10095000DF2A010EC1E3DB2ABFD7FA0EE66E070ECF
:10096000E66E240EF6EC13F00A0EA6EC11F0D1ECB4
:1009700013F0BAEC10F0A90EF6EC13F0E66AE66A92
:10098000E66A68EC12F066D1040EE8EC11F0830E12
:10099000AEEC11F0880EAEEC11F0890EAEEC11F059
:1009A0008A0EAEEC11F0060EE8EC11F004EC14F037
:1009B000E66AE66A200EE66EE66AF5EC0FF0A60E31
:1009C000E66E840EA2EC11F0A60EE66E880EA2EC86
:1009D00011F023EC14F0A60EE66E820EA2EC11F0DC
:1009E00065EC13F0AFEC0FF001EC14F0A60EE66E20
:1009F000940EE66EE66A040EE66E94EC16F02AD1CA
:100A0000050EE8EC11F03F0EE66EE66E0C0E90EC73
:100A100013F0040EE8EC11F08F0EE66EE66E06D0D1
:100A2000040EE8EC11F0800EE66EE66A0C0E90EC17
:100A300013F065EC13F0ADEC12F0AAD01DEC14F03D
:100A40001E0E06D1030EE66E020EE66ED950020FA0
:100A5000E66E000EDA20E66E070EE66E200EE66EFB
:100A6000E66AE66AFD0EDBCFE6FFFE0EDBCFE6FFB1
:100A70009FEC0DF0006E0A0EE15E0050B4EC13F036
:100A800001EC14F0030EDB50310B006E310E005CF4
:100A900007E3020EDB50300B016E300E015C12E2F8
:100AA00091EC11F0E66AC8EC0FF0DE6ADD6AFFEC4B
:100AB0000FF0070EAEEC10F00FE202EC13F0F7E3CC
:100AC000DB2AF5D757EC12F043EC13F091EC11F060
:100AD000030EE66EC8EC0FF043EC13F016EC12F0C8
:100AE000FD0EDB50120A0DE1DE6ADD6AFFEC0FF04D
:100AF000080EAEEC10F005E202EC13F0F7E3DB2A8F
:100B0000F5D71DEC14F0060EADEC0FF0B4EC13F0BD
:100B1000DFEC12F09EEC11F0060EADEC0FF016ECCF
:100B200012F01F0E30D0DE6ADD6AFFEC0FF0FF0E10
:100B3000005C030E015805E202EC13F0F6E3DB2A39
:100B4000F4D7EBEC0FF0F3CF80F0F4CF81F016EC9C
:100B500012F0DE6ADD6AFFEC0FF0070EAEEC10F06B
:100B600005E202EC13F0F7E3DB2AF5D7E2EC12F032
:100B7000000E00018217300E831716EC12F01DECE8
:100B800014F0DFEC12F0E66E060EE66EDDEC15F00A
:100B9000E552E5520A0E5CD0FD0EDB5007080AE173
:100BA00057EC12F01DEC14F0080E9EEC11F00A0E3A
:100BB000ADEC0FF016EC12F057EC12F0FD0EDB501E
:100BC000070803E1080E9EEC11F01DEC14F0DFECB9
:100BD00012F09EEC11F0FD0EDB50070803E1080E49
:100BE0009EEC11F001EC14F08A906CD0DE6ADD6AA4
:100BF000FFEC0FF0FF0EAEEC10F005E202EC13F08C
:100C0000F7E3DB2AF5D7EBEC0FF068EC11F049ECD9
:100C100012F005E202EC13F0FAE3DB2AF8D73AEC23
:100C200013F0FFEC0FF0FF0EAEEC10F005E202EC5B
:100C300013F0F7E3DB2AF5D7F9EC13F049EC12F0E7
:100C400005E202EC13F0FAE3DB2AF8D710EC14F01B
:100C500034EC12F0E552E552E552E55233D0DE6A4B
:100C6000DD6AB4EC12F005E202EC13F0FAE3DB2AE1
:100C7000F8D7EBEC0FF068EC11F049EC12F005E25C
:100C800002EC13F0FAE3DB2AF8D73AEC13F0B4ECF9
:100C900012F005E202EC13F0FAE3DB2AF8D7F9ECE4
:100CA00013F049EC12F005E202EC13F0FAE3DB2A50
:100CB000F8D710EC14F0ADEC0FF08A9019EC12F0AC
:100CC000030E03D019EC12F0010E006E040EE15C6D
:100CD00002E2E16AE552BFEF10F0ECEC10F0F50E25
:100CE000DBA002D0F1EC11F0FD0EDB502C0A01E18B
:100CF00027D3010A01E124D33E0A01E1F1D2110A0E
:100D000001E1EED20F0A01E1A4D21F0A01E1A1D252
:100D10001A0A01E19ED20E0A01E19BD20A0A01E100
:100D200061D2050A01E15ED2030A01E15BD2010A48
:100D300001E178D10C0A01E175D1040A01E172D117
:100D4000070A01E16FD1010A01E16CD1180A01E142
:100D5000F0D0030A01E1EDD01F0A01E1EAD0010A57
:100D600001E1A6D0290A04E019EC12F0030E51D3D8
:100D70003AEC10F005E12DEC14F01A0E1AEC13F019
:100D8000040EDB6AEEEC0FF0E8AE02D0E73402D0DE
:100D9000E750005C01E37ED0E0EC11F0C5EC10F010
:100DA000FDE18DEC13F0070ECAEC11F003E074ECDA
:100DB00010F0FDE1C5EC0FF0DE6ADD6AC1EC13F066
:100DC0005EE2006A9CEC10F045EC11F00ABE0B6884
:100DD000020E1CEC12F00A501E24086E0B501F204D
:100DE000096EDAEC10F003E074EC10F0FDE124EC95
:100DF00012F0040EDBCF12F0136A12BE1368020E5B
:100E00001CEC12F012501E24106E13501F20116E95
:100E1000010E1026000E1122F70EDB501024B0EC4C
:100E200013F01120EA6EEFCF0CF00D6A0E6A0F6A14
:100E30000C0E1F0B07E0D8900C360D360E360F3611
:100E4000E806F9E10C5000120D5001120E5002128A
:100E50000F500312DECF14F0DDCF15F0166A176ABB
:100E6000145000121550011216500212175003129E
:100E7000B6EC11F0DF2A010EA1E3DB2A9FD7E66A68
:100E8000EFEC11F030EC13F030EC13F00C0E28EC1A
:100E900010F078D73AEC10F001E0B3D2F0EC12F099
:100EA000E66A010EE66E040EE66E68EC12F095D16D
:100EB00004EC14F0BAEC11F082EC11F0EECFE6FF86
:100EC000EFCFE6FFF5EC0FF0040EDB6ADBCF00F0AE
:100ED000F60EDB50FE0FE76E0018E8AE02D0E734E6
:100EE00002D0E750005C12E2010E7BEC10F008BE6D
:100EF00009688BEC10F002BE03686AEC13F00D0E6B
:100F000090EC13F0020E28EC10F0E0D7010E7BEC11
:100F100010F008BE09688BEC10F002BE0368D7EC35
:100F20000FF001EC12F0000EE66EE66A1EEC16F011
:100F300056D182EC13F0060EE8EC11F0000EE66ECE
:100F4000E66A0C0E90EC13F004EC14F0BAEC11F01D
:100F50006FEC12F0040EDB6AEEEC0FF0E8AE02D09C
:100F6000E73402D0E750005C01E34BD2DE6ADD6A71
:100F7000C1EC13F039E2010EE76EF70EDBCF0AF099
:100F8000F80EDBCF0BF0E7500A26000E0B22040E02
:100F9000DBCF0CF00D6A0CBE0D680A500C24086EF5
:100FA0000B500D20096EDE500824E96EDD5009203B
:100FB000EA6E5CEC12F004BE0568F70EDB50042408
:100FC000026EF80EDB500520036EDE500224E96E3F
:100FD000DD500320EA6EEF5093EC10F00D0E90EC14
:100FE00013F054EC11F0C4D7070E7BEC10F008BEE0
:100FF00009688BEC10F002BE036876EC12F0060E66
:10100000E926000EEA22EF5001EC12F0F0EC10F0AD
:10101000090EB2EC10F0090EB2EC10F0080E28EC3C
:1010200010F09AD7040EDB6AEEEC0FF0E8AE02D0B7
:10103000E73402D0E750005C6FE259EC11F006BED5
:1010400007683AEC12F002BE03686AEC13F0020E75
:101050002DEC13F03DEC12F008BE0968DAEC0FF04D
:1010600004BE056819EC10F002E1035001184FE0CE
:1010700030EC14F001EC14F05EEC11F0026A036A3B
:1010800000AE03D00168026803687DEC12F0FD0E2B
:10109000DB5005081BE1040EDB407F0B006E016A8C
:1010A000026A036A00AE03D001680268036862EC5A
:1010B00010F0E86800180AE1030E011807E1025079
:1010C00005E1035003E140EC11F00AD059EC11F0B6
:1010D00006BE07683AEC12F002BE03686AEC13F031
:1010E000020E2DEC13F03DEC12F008BE0968DAECAC
:1010F0000FF004BE056819EC10F002E1035001186E
:1011000006E06FEC11F003E1ED5001E16ED1C9ECA6
:1011100013F028EC10F088D7FD0EDB50050801E035
:1011200070D1F50EDB50020B01E16BD1F60EDBCF77
:1011300000F0016A026A036A00AE03D00168026827
:10114000036862EC10F0FF0E005C030E0158000E05
:101150000258000E035801E354D1DE6ADD6AE5EC63
:1011600012F00868030E096E0A6A0B6AF60EDBCFEE
:101170000CF00D6A0E6A0F6A0CAE03D00D680E6893
:101180000F68BAEC11F0EE500C26EE500D22EE5026
:101190000E22EE500F220C50085C046E0D500958C0
:1011A000056E0E500A58066E0F500B58076E04500D
:1011B000005C05500158065002580750035805E2DC
:1011C00002EC13F0CCE3DB2ACAD740EC11F0020E9C
:1011D000ECEC13F0080E34EC12F0E552E552E55257
:1011E000E5520FD1040EDB6AEEEC0FF0E8AE02D050
:1011F000E73402D0E750005C01E303D1DE6ADD6A28
:101200008CEC12F012E245EC11F00ABE0B68F5EC22
:1012100011F004BE0568D3EC11F0EDEC12F002E21F
:10122000AAEC11F054EC11F0EBD7080E9EEC11F083
:10123000010EADEC0FF00E0E9EEC11F0AAEC11F0C9
:10124000040EDBCFE7FFE850E726040EE7CFDBFF15
:10125000CBD7040EDB6AEEEC0FF0E8AE02D0E73439
:1012600002D0E750005C01E3CCD0DE6ADD6AFFEC1F
:101270000FF0080EAEEC10F012E245EC11F00ABED1
:101280000B68F5EC11F004BE0568D3EC11F0EDEC41
:1012900012F002E2AAEC11F054EC11F0E8D7FD0EC6
:1012A000DB50060A09E1080E9EEC11F00A0E34EC40
:1012B00012F0E552E5520CD0180E9EEC11F0020E21
:1012C000ADEC0FF0170EE66E060EE66EDDEC15F0D7
:1012D000E552E552AAEC11F0080E28EC10F0BBD74D
:1012E000040EDB6AEEEC0FF0E8AE02D0E73402D079
:1012F000E750005C01E385D0DE6ADD6AFFEC0FF0A9
:10130000100EAEEC10F013E245EC11F00ABE0B68C3
:10131000F5EC11F004BE0568D3EC11F00E0EAEEC46
:1013200010F002E2AAEC11F054EC11F0E7D7080E2D
:1013300009EC14F0AAEC11F0100E28EC10F0D2D742
:10134000F50EDBA002D0AAEC11F0040EDB6AEEEC85
:101350000FF0E8AE02D0E73402D0E750005C51E273
:1013600059EC11F006BE07683AEC12F002BE0368B1
:101370006AEC13F0020EF7EC12F03DEC12F008BE2E
:101380000968DAEC0FF004BE056819EC10F002E110
:101390000350011831E0DE6ADD6AFFEC0FF00A0E3F
:1013A000AEEC10F029E259EC11F006BE07683AECF9
:1013B00012F002BE0368D7EC0FF098EC12F0020EA8
:1013C000F7EC12F03DEC12F008BE0968DAEC0FF011
:1013D00004BE056819EC10F002E1035001180CE09E
:1013E0006FEC11F004E1ED5002E1040E12D0DF2A9F
:1013F000010ED3E3DB2AD1D7C9EC13F028EC10F0AF
:10140000A6D7F50EDBA204D019EC12F0010E01D024
:10141000020E006E050EE15C02E2E16AE552BFEFEA
:1014200010F0ECEC10F0F50EDBA002D0F1EC11F0B6
:10143000FD0EDB502C0811E0FD0EDB502D080DE0F9
:10144000FE0EDB50020A01E126D1010A01E1ACD017
:101450002A0A05E0E66AB9EC0FF0030E5CD12DEC28
:1014600014F05A0E1AEC13F0020EDB6AEEEC0FF0D9
:10147000E8AE02D0E73402D0E750005C01E38FD041
:10148000E0EC11F0C5EC10F0FDE18DEC13F0070E6F
:10149000CAEC11F003E074EC10F0FDE1C5EC0FF0C4
:1014A000030EDB6ADBCF00F0040EE76E0018E8AE37
:1014B00002D0E73402D0E750005C4EE2006A9CECB8
:1014C00010F02FEC11F0086E096A08BE0968DAEC1A
:1014D00010F003E074EC10F0FDE124EC12F02FECBE
:1014E00011F0010F0E6E0F6A0EBE0F68F70EDB5083
:1014F0000E24B0EC13F00F20EA6EEFCF0AF00B6A67
:101500000C6A0D6A0C0E1F0B07E0D8900A360B36DA
:101510000C360D36E806F9E10A5000120B500112A4
:101520000C5002120D500312030EDBCF10F0116AA3
:10153000126A136A10AE03D0116812681368105053
:101540000012115001121250021213500312B6EC85
:1015500011F0030EDB2AA6D7E66AEFEC11F0030EBA
:10156000DB6ADBCF00F0040EE76E0018E8AE02D0B5
:10157000E73402D0E750005C07E21EEC11F020ECEB
:1015800014F0030EDB2AEDD7080E006E020EDBCF3F
:10159000E7FF0050E726020EE7CFDBFF67D7F0EC4E
:1015A00012F09CEC11F0AFD0A60EE66E9E0E27EC6A
:1015B00013F0020EDB6AEEEC0FF0E8AE02D0E73477
:1015C00002D0E750005C01E39ED0020EDBCF04F0B6
:1015D000056A04BE056853EC13F0020EDBCF04F07D
:1015E000056A04BE056806EC13F087EC11F002BE34
:1015F0000368D7EC0FF0006E016AE8500E0E01127E
:1016000000C0E6FF41EC12F0A80EF2EC13F0A60EBB
:10161000E66E840EA2EC11F0FD0EDB0402E123EC79
:1016200014F0A60EE66E820EA2EC11F004EC10F09F
:10163000A60E6DEC13F0E76E040EE7CFDBFFDB5078
:10164000020B02081DE1760EE96E000EEA6EEE5006
:101650000001725D006EEE507359016EEE507459C8
:10166000026EEE507559036ED890E850000A07E6F6
:10167000050EAEEC10F0000E0258000E0358D8E331
:10168000010EADEC0FF0A60EE66E940EA2EC11F07A
:10169000020EDB2A90D7020EDB6AEEEC0FF0E8AE0A
:1016A00002D0E73402D0E750005C2DE208EC11F0E4
:1016B00000BE0168DDEC0FF0EF50E66EE66A030E47
:1016C000E66EC8EC0FF0FD0EDB50050A06E0080AD6
:1016D00004E0050A02E01A0A02E1180E01D0080E21
:1016E00009EC14F0FD0EDB50050A06E0170A04E0D1
:1016F0001A0A05E1170E01D00A0E9EEC11F0C9EC92
:1017000013F0DB2ACAD7F50EDBA204D019EC12F0D5
:10171000010E01D0020E006E050EE15C02E2E16AEC
:10172000E552BFEF10F0DAEC12F0030EE126F50EF1
:10173000DBA002D0F1EC11F0FD0EDB502C0A01E130
:10174000D5D1010A01E1D2D1200A01E180D11E0ADE
:1017500001E17DD11F0A01E17AD1050A01E177D1CA
:10176000030A01E174D1010A01E171D1190A01E111
:101770006ED11A0A01E16BD10F0A01E168D1050AA5
:1017800001E165D1040A01E162D1050A01E15FD1FD
:10179000070A01E15CD1010A01E1F1D0180A64E015
:1017A000030A62E01F0A60E0010A5EE0290A04E021
:1017B00019EC12F0030EBCD12DEC14F0070ECAEC9C
:1017C00011F003E074EC10F0FDE1C5EC0FF0DF6AFE
:1017D000DFCF00F0F60EDB407F0BE76E0018E8AEBF
:1017E00002D0E73402D0E750005C01E399D18A0EC1
:1017F0001AEC13F0E0EC11F0C5EC10F0FDE18DEC0B
:1018000013F000018429066E076A06BE07684DECD6
:1018100012F002BE0368CBDB00010410006E63EC23
:1018200011F005C0DBFF060E006E9CEC10F0010EFF
:10183000DBCF04F0020EDBCF05F0066A076A040E68
:101840001F0B03E074EC10F0FDE19FDBCCEC13F018
:10185000860EE9EC12F020EC14F0F0EC12F09CECA7
:1018600011F0020EDF26B4D782EC13F0FD0EDB047C
:1018700008E1E66AEF0EA2EC11F0E66AF80EA2ECBF
:1018800011F00001846B8CEC11F0E8AE02D0E7346B
:1018900002D0E750845D01E343D184C000F0016AC7
:1018A00000BE0168026A036A7DEC12F084C006F093
:1018B000076A06BE07684DEC12F002BE03686AECC8
:1018C00013F006EC12F0FD0EDB0405E1F60EE66EF9
:1018D0002A0EA2EC11F084C004F0056A04BE05686B
:1018E000A7EC10F0016EEE500620026EEE500720BD
:1018F000036E002A000E012202220322A1EC10F046
:10190000086E050EE15E0850010EE76EF70EDBCFA4
:1019100008F0F80EDBCF09F0E7500826000E092288
:1019200084C00AF00B6A0ABE0B6808500A24E96EEC
:1019300009500B20EA6EEFCF06F006C007F0066AEA
:10194000010EE76EF70EDBCF02F0F80EDBCF03F0EF
:10195000E7500226000E032284C004F0056A04BE8C
:10196000056802500424E96E03500520EA6EEF502A
:10197000DADB06EC12F0020E0001842784D7F50EA4
:10198000DBA010D016EC12F0DF6A76EC11F0E8AEB6
:1019900002D0E73402D0E750005C04E2AAEC11F078
:1019A000DF2AF3D70001846B8CEC11F0E8AE02D093
:1019B000E73402D0E750845D01E3B2D0BAEC12F014
:1019C000E8AE02D0E73402D0E750005C0FE2842991
:1019D000066E076A06BE07684DEC12F002BE036889
:1019E0006AEC13F0020E2DEC13F0B7DAF90EDBCF30
:1019F000E6FF000184417F0BE552E724070822E15E
:101A00008429066E076A06BE0768DEDA84C008F01D
:101A1000096A08BE09682DEC12F0EF500410026E3E
:101A200005C003F0FF0E02160F0E031682510210BE
:101A3000006E83510310016E63EC11F001C0DBFFF7
:101A4000E3EC13F0C9EC13F000018427ADD7F50ED9
:101A5000DBA010D016EC12F0DF6A76EC11F0E8AEE5
:101A600002D0E73402D0E750005C04E2AAEC11F0A7
:101A7000DF2AF3D70001846B8CEC11F0E8AE02D0C2
:101A8000E73402D0E750845D4BE2BAEC12F0E8AEE6
:101A900002D0E73402D0E750005C03E3A9DB07087B
:101AA00020E18429066E076A06BE07684DEC12F035
:101AB00002BE03687CDA00010410006E05C001F06C
:101AC00063EC11F005C0DBFFE3EC13F0FD0EDB501F
:101AD0000C0A04E0050A02E0030A03E10E0E9EEC84
:101AE00011F0C9EC13F000018427C6D784EC12F082
:101AF000EFCF02F002C003F0026A4EDBEF500001AC
:101B00000210006E03C001F0DEDB03C0DBFF010E3C
:101B1000DBCFE6FF020EDBCFE6FFF7EC12F01DDABB
:101B2000F50EDBA204D019EC12F0010E01D0020E6A
:101B3000006E030EE15C02E2E16AE55220D34CDB69
:101B4000020EDB6AF50EDBA002D0F1EC11F0FE0E06
:101B5000DB50020A01E198D0010A01E17CD0060ABB
:101B600001E018D185DB000EEE58F80EEE58000E9D
:101B7000EE583EE3FEEC12F0E0EC11F006DBFEE185
:101B80008DEC13F0E66AA3EC13F0800EE66EEFEC3A
:101B900011F0020EDB6A22DAE8AE02D0E73402D09E
:101BA000E750005C01E308D175DB0DEC14F0200E6A
:101BB000E66E3C0EA7EC13F046EC12F0F4DA28DBEC
:101BC00000BE016895EC12F0DBCF02F0040EDBCF13
:101BD00003F0000E0216FF0E031612DB00BE0168B2
:101BE000ECD902C0EFFFCCEC13F0A6DBECDAD3D7D4
:101BF000FEEC12F0E5DBC9DAFEE18DEC13F0060E27
:101C0000C9DB02E071DAFEE163EC12F048EC13F09C
:101C100015DB0DEC14F048EC13F03CDB0DEC14F08C
:101C2000DE6ADD6AC1EC13F014E274EC13F0BBDA87
:101C30006EDB02BE036850DA95EC12F0DBCF04F0E5
:101C4000040E03DB64DB02BE0368E4DBEBE3DB2AA8
:101C5000E9D772DBB1D08EDB6FEC12F0020EDB6ADB
:101C6000BDD9E8AE02D0E73402D0E750005C01E312
:101C7000A3D0090E77DAE66ECBDA00BE016890ECED
:101C800012F0020EDB2AECD7FD0EDB502C0809E126
:101C9000F3DA06E1010EEE1803E1EE5001E1EE5039
:101CA0000DE0FD0EDB502D0817E1E6DA15E1030E1D
:101CB000EE1812E1EE5010E1EE500EE1B8EC13F028
:101CC000DBCF01F001C000F0016A84EC12F000C02B
:101CD000EFFF62DA2ADB70D0CBDA200EEE58000E6E
:101CE000EE58000EEE582BE3A1DBF50EDBA013D06F
:101CF000DE6ADD6A84D9C0EC12F0000E025E200EAE
:101D0000035A0250005C0350015805E202EC13F044
:101D1000F1E3DB2AEFD7020EDB6A60D9E8AE02D02E
:101D2000E73402D0E750005C47E2BCDB00BE01684C
:101D3000C7EC12F000BE0168BDEC13F0EED7F50E53
:101D4000DBA014D0FD0EDB502C0804E0FD0EDB50B0
:101D50002D0801E1FFDA3FD9DE6ADD6A50D963DA86
:101D600005E202EC13F0FAE3DB2AF8D7020EDB6A95
:101D700035D9E8AE02D0E73402D0E750005C1CE26F
:101D800091DB00BE0168C7EC12F000BE0168BDEC3B
:101D900013F0EED7020EDB6A21D9E8AE02D0E734A9
:101DA00002D0E750005C08E233DA00BE016805D9D2
:101DB000EF6A020EDB2AF0D7F50EDBA202D0E66A4C
:101DC000D8D8050EE15C02E2E16AE552E16EE55227
:101DD000E7CFD9FF120000DA040EDB6AF50EDBB0A4
:101DE00000DBFE0EDB50020A65E0010A3BE0060A5A
:101DF00001E090D0FEEC12F0F00EE66E070EC6DAAF
:101E0000C0DA060EC7DA02E06FD9FEE15CDBDE6AFB
:101E1000DD6A82DB08E212DA0DEC14F0DF2A010E33
:101E2000F8E3DB2AF6D7DE6ADD6A76DB01E384D0ED
:101E300074EC13F0B1DBABEC13F002BE0368020EDE
:101E40004BD9BBD8020EDBCFEFFFDBCF04F0030E84
:101E5000FCD9ABEC13F002BE0368020EDBDAE5E35B
:101E6000DB2AE3D7A60EE66E9E0EF1DB040EDB6ADC
:101E7000B5D8E8AE02D0E73402D0E750005C5CE2AF
:101E8000C4EC13F004BE056853EC13F0C4EC13F07B
:101E900004BE0568BBDBA60EE66E800E53DAA80E04
:101EA0006DEC13F0E66E0ADA00BE016839DB040E51
:101EB000DB2ADED7F50EDB50010B19E05BDAD880A8
:101EC000000EEE54000EEE54000EEE54000EEE54D2
:101ED0000EE2AFD961D9E552E750EF6EDE6ADD6AF6
:101EE0008ED8A1D904E28EDBFBE3DB2AF9D7040EFE
:101EF000DB6A74D8E8AE02D0E73402D0E750005C69
:101F00001BE297D9DBD900BE01680ADB23DA040E95
:101F1000DB2AEFD7040EDB6A61D8E8AE02D0E734E3
:101F200002D0E750005C08E2C9D900BE016845D87C
:101F3000EF6A040EDB2AF0D7F50EDBA202D0E66AC8
:101F400018D8000E006E050EE15C02E2E16AE5526F
:101F500016D1E66ADBEC17F0D0D386DACED3FDDA01
:101F6000E552E5521200E66EDDEC15F0E552E55261
:101F70001200FE0EDBCFE6FFFD0EDBCFE6FF37ECF7
:101F800014F0E552E552E55212005EDAB6EF11F0B8
:101F9000060EE66E97EC16F0B0D333EC14F0041690
:101FA000EE500516EE500616EE50071612009EDA99
:101FB000EF50120052DA5CEF12F0F70EDB50002403
:101FC000CFDB0120EA6E1200F70EDB500624C8DBDF
:101FD0000720D3EF12F0040EA5EF12F0DBCF00F0D4
:101FE000F60EDB50E76E00181200FE0EDBCFE6FFA8
:101FF00073EC15F0006E050EE15E00501200DECFAE
:1020000000F0DDCF01F0120072C076F073C077F0FF
:1020100074C078F075C079F01200BEDA020EDBCF22
:1020200000F0030EDBCF01F0040EDB28086E096A16
:102030001200F70EDB50042493DB0520EA6EEF500C
:1020400000010610026E07C003F0E85000181200ED
:10205000006E040EDBCFE7FF0050E726040EE7CF4B
:10206000DBFF1200000198EF12F0000EE66EE66A48
:10207000E66A1200F90EDBCF00F0FA0EDBCF01F0BA
:10208000FB0EDBCF02F0FC0EDBCF03F0600E236E05
:10209000246A256A266A00C01EF001C01FF002C033
:1020A00020F003C021F0BBEC1FF01AC000F01BC0F1
:1020B00001F01CC002F01DC003F01A501B101C10D0
:1020C0001D10120057D9EE500026EE500122EE509E
:1020D0000222EE5003221200AFD902501E24006EDD
:1020E00003501F20016E1200D890043605360636C4
:1020F0000736E8061200E76EF70EDBCF06F0F80EA3
:10210000DBCF07F0E7500626000E0722040EDBCFD8
:1021100008F0096A120006500824E96E07500920E9
:1021200042DAABEF13F000010610006E07C001F0B9
:10213000E66E07C0E6FF1200016A200E026E036A17
:102140001200F1DAFE0EDBCFE6FF73EF15F0066A40
:102150008ADB0424006EEE5005201200005C000EA5
:1021600001581200E66E040EE66E0AEC17F0E55216
:10217000E5521200610EE66EE70EE66E1200E16EA9
:102180000050E552E7CFD9FF1200D890073206324F
:1021900005320432E8061200F70EDBCFE9FFF80E35
:1021A000DBCFEAFF1200030EF3CFDBFF040EF4CF08
:1021B000DBFF120052D9EFCF04F0056A066A076A06
:1021C000040E1F0B1200020EDBCFE7FFE850E726DC
:1021D000020EE7CFDBFF1200EDD9050EE12612005B
:1021E000000EE66EE66A1EEC16F0E552E5521200AD
:1021F000F90EDBCFE6FF84417F0BE552E7241200A6
:1022000003C002F0036A020EDB28006E016A1200AE
:10221000020EDBCF00F0016A1200016A026A036A53
:102220000E0E01121200ACD90250005C035001588E
:102230001200050E8AD9F350E66E1200B60EE9EFD1
:1022400012F0E66EEB0EE66E1200DBCF05F0000E2C
:102250000416FF0E051605C004F0056A1200020EF2
:10226000DBCFE6FF030EDB50E824E552E724120043
:1022700081D8000EEE5C12007DD8E868EE181200DE
:1022800080C0E6FF81C0E6FF1200040EDBCF0AF03B
:102290000B6A1200B60EE66E0B0EE66E1200B60E5C
:1022A000E66EDB0EE66E1200020EDE26000EDD226A
:1022B0001200040EDB28066E076A1200040EDBCF44
:1022C00000F0016A1200010E00C0DBFF020E1200D6
:1022D000F3CF80F0F4CF81F0DE6ADD6A1200D9CF4F
:1022E000E9FFDACFEAFF090EEE181200DFCF00F0A7
:1022F000F90EDB50E76E00181200F3CF82F0F4CF36
:1023000083F01200EECFE6FFEECFE6FF1200020EE2
:10231000DBCF02F0036A1200F60EDB50E76E841981
:102320001200E6683F0EE66E1200030EDBCFEFFFF1
:1023300012005CDA31DAEFD1C2D9EDD1E66E060EC9
:10234000B3EF0FF0E66EE66AAFEF0FF0E66E3B0E0E
:10235000A7EF13F0060EE66EB3EF0FF0E66EE66A37
:102360000C0EDED9B2D9FBDD01EF14F0DCD9DBECC9
:1023700017F0C3D1D950F90FE96EFF0EDA20EA6EDB
:102380001200900EE66E010EA7EF13F0E66E200E1F
:10239000F6EF13F0006ED0DE04680568066AFDDD16
:1023A000040E1F0B1200DE500424026EDD500520C7
:1023B000036EFDDDB8DE020EE66EEADDFFEF0FF024
:1023C000006ABADE046A056A0668E7DD0C0E1200D0
:1023D000E66EE66A3C0EE66EE66AF5EF0FF0B3D9FC
:1023E0009AD1010EE66EB9EF0FF0DE500A24086EA6
:1023F000DD500B20096E010E0826000E0922DAEFCF
:102400000FF030DE14DA00DE9CEF13F010DA94D90E
:10241000F0EF10F061DE010E0026000E0122CDDD8E
:1024200004C0EFFFB9D9DF2A010E12001EDEC8EF8B
:102430000FF0E66AB9EF0FF0206E216ADECF25F0CB
:10244000DDCF26F0DFEF1FF004500012055001121F
:1024500006500212075003121200F70EDB50082438
:102460007FD90920EA6E1200E66EE66AE66AE66A3D
:10247000B5EF1EF0A9DDABEF13F06FDDACDD0DEFB6
:1024800010F001C0E6FFE66AAFEF0FF085D97AEFF2
:1024900017F0B5DD050EAEEF10F096DD84C002F04A
:1024A000036A120065D9DBCF03F000EF11F039DFCA
:1024B000020EE66EC8EF0FF0EFCF06F006C007F091
:1024C000066AC4EF13F061DD800EE66EA3EF13F031
:1024D00040DDE66AE66AE66AE66ADBEF17F0EECF11
:1024E000E6FF10DFEFCFE6FFF5EF0FF0F70EDB5062
:1024F000022436D90320EA6E1200E4DD22DE046EE7
:10250000050EE15E04501200010EE76E45DEE75055
:10251000E926000EEA22120072DD040EAEEF10F082
:102520004CDDE552E750EF6E120047DD95EF11F0FC
:102530000410006E05C001F0E66E05C0E6FF120053
:1025400094DD0DDD020EB2EF10F0E66E060EE66EC3
:102550009AEC16F0E552E5521200040EE66E94EC89
:1025600016F0E552E55212004ADDFF0E005C010E46
:10257000015812003DDE006E040EE76E00181200D6
:10258000F90EDBCF02F0FA0EDBCF03F0120015DDFF
:1025900002C0EFFF08EF11F0020EF3CFDBFF030ED6
:1025A000F4CFDBFF1200EA6EEFCF04F004C005F0B9
:1025B000046A1200D9CFE6FFE1CFD9FF120021D97A
:1025C0000B0E120008DD7DEF11F019DD026A036ABF
:1025D0001200E66E1B0EE66E1200060EAEEF10F055
:1025E000E0D8DAD8D9D8C6DDA90E99EF11F0F4D821
:1025F000020EB3DC0E0EA2DE010E1200CDD8CCD836
:102600009CEF11F0A7DEDF2A010E1200066A2BD91B
:102610000426EE500522EE500622EE50072205C099
:1026200000F00001036AF9DD05C0E6FF2ADFAA0E0B
:10263000F2EF13F0E66EE66A240ED8D80A0EA6EF83
:1026400011F0E66E0E0E7EDEA70EF2EF13F07ADECC
:10265000A60EE66E9C0EA2EF11F0BED80A0E120076
:1026600019DEEED81CDEECD8B60EEBDDE9D8E6DDDF
:1026700020EF14F0A7DFF4D86DDEDFD8C2D8F0D891
:10268000DE6ADD6A1200E4D8080EC3D828EF14F021
:10269000960E9FDFC2D803DEC0D8D60EE66EDB0EE4
:1026A000E66E0DEF14F053DDEE500620EE500720DD
:1026B000B4DD00C0E6FFE5DEA90EF2EF13F0E66A36
:1026C000010EE66E040EF6EF13F0CFDC48DC9CDC66
:1026D00035EF10F06CDC32EF10F0E66E500E32DEAB
:1026E000F50E80D8A0EF12F070DF008A3C0E0112C8
:1026F000880E02123BDE46EF12F0E552E552E5523B
:10270000E5521200A60EE66E8E0E1CDEA60EE66EDA
:102710008C0EA2EF11F0CCEF13F037DCC1EF11F00B
:10272000E66EAFEF0FF000C0E6FF01C0E6FF02C0AB
:10273000E6FF03C0E6FF12008A82020E0EDC8A92D8
:10274000010EADEF0FF0030E7CDDA9EF0FF0E66E8A
:10275000880EF6EF13F0040EDBCF02F0036A1200CE
:10276000E96EF80EDB50120064DE4BD8F1EF11F089
:1027700032DC19DD030E040E1200D7DEEBDDE3EFD1
:1027800010F03DDCEDEF12F0040EDBCF04F0056A33
:102790001200E0DD020E1200E66AE66AE66AA9EFC0
:1027A0000FF0580EE66E050EF1DD380ECFDDA90EE6
:1027B000E66E0A0EEBDD390EC9DDDCDCA80EB9DDF4
:1027C000020EADEF0FF0010EDBCFE6FF020EDBCF06
:1027D000E6FF43DFADEF0FF0E66EC8EC0FF0080E3A
:1027E0009EEF11F0E66E6E0EA2EF11F0E66EA9EF0D
:1027F0000FF046DD040EFBDEADEC0FF0DE6ADD6AA5
:1028000012000A0EADEF0FF0A60EE66E8E0E27EF49
:1028100013F094DD080EADEF0FF0BA0E99EF11F042
:1028200082C0E6FF83C0E6FF040EF7EF12F00F0E42
:1028300077DFE66A030EB3EF0FF0090E9EEF11F09B
:10284000BB0E99EF11F0550EFCDEAA0E21EF13F02E
:10285000010E74DD070E9EEF11F031DF9CEF11F0D9
:0E286000E8DDF1EF11F0076A85DDEE501200A1
:02286E00D9CFC0
:10287000E6FFE1CFD9FF020EE126FC0EDB0401E00A
:10288000CCD0939093928A908A920000FE0EDB50F7
:10289000060A04E02F0A01E003D004D08A9602D091
:1028A0008A9400D072C076F073C077F074C078F06C
:1028B00075C079F0760EE96E000EEA6EEE500001FA
:1028C000725D006EEE5000017359016EEE50000112
:1028D0007459026EEE5000017559036ED890035082
:1028E000000A08E6640E005C000E0158000E025853
:1028F000000E035802E2DED7DDD7FE0EDB50290AB8
:1029000005E02F0A01E05BD08A945BD08A9472C004
:1029100076F073C077F074C078F075C079F0760EF9
:10292000E96E000EEA6EEE500001725D006EEE5030
:1029300000017359016EEE5000017459026EEE50A1
:1029400000017559036ED8900350000A08E6010E85
:10295000005C000E0158000E0258000E035802E2FF
:10296000DED7DDD78A9672C076F073C077F074C078
:1029700078F075C079F0760EE96E000EEA6EEE50D2
:102980000001725D006EEE5000017359016EEE5051
:1029900000017459026EEE5000017559036ED89013
:1029A0000350000A08E6190E005C000E0158000EE4
:1029B0000258000E035802E2DED7DDD702D08A9615
:1029C00000D072C076F073C077F074C078F075C034
:1029D00079F0760EE96E000EEA6EEE500001725D3F
:1029E000006EEE5000017359016EEE5000017459F3
:1029F000026EEE5000017559036ED8900350000A24
:102A000008E6640E005C000E0158000E0258000E2D
:102A1000035802E2DED7DDD75CD08A868A8A72C08C
:102A200076F073C077F074C078F075C079F0760EE8
:102A3000E96E000EEA6EEE500001725D006EEE501F
:102A400000017359016EEE5000017459026EEE5090
:102A500000017559036ED8900350000A08E6140E61
:102A6000005C000E0158000E0258000E035802E2EE
:102A7000DED7DDD78A9A8A849380938272C076F0FB
:102A800073C077F074C078F075C079F0760EE96E97
:102A9000000EEA6EEE500001725D006EEE50000115
:102AA0007359016EEE5000017459026EEE50000130
:102AB0007559036ED8900350000A08E6140E005CA6
:102AC000000E0158000E0258000E035802E2DED735
:102AD000DDD7020EE15C02E2E16AE552E16EE55209
:102AE000E7CFD9FF1200D9CFE6FFE1CFD9FF040E1F
:102AF000E126FE0EDB50020A26E0010A54E1BFDAAD
:102B000006C000F00001026A036AC6DA06C0E6FFEA
:102B1000D5DAF80ECEDAB3DA05C000F00001036AA8
:102B2000BBDA05C0E6FFCADAF70EC3DAFA0EDBCF6E
:102B300000F0FB0EFC0EFD0EAFDA00C0E6FFBEDAC1
:102B4000F60EB7DA30D0DE6ADE6ADE6ADD6ADD52A2
:102B5000DD52FA0EDBCF00F0FB0EDBCF01F0FC0EF6
:102B6000DBCF02F0FD0EDBCF03F0D9CFE9FFDACFE8
:102B7000EAFF0050EE5C0150EE580250EE58035050
:102B8000EE5811E2060EE66EE66E17D8E552E552F3
:102B9000D9CFE9FFDACFEAFF020EEE26000EEE22D1
:102BA000EE22EE22D6D7040EE15C02E2E16AE552A3
:102BB000E16EE552E7CFD9FF1200D9CFE6FFE1CFB2
:102BC000D9FFE652939093928A928A90DF6ADFCF80
:102BD00000F0FE0EDB50E76E0018E8AE02D0E734DE
:102BE00002D0E750005C15E28A820000FD0EDBA0F7
:102BF00002D08A8001D08A90FD0EDBCFF3FFF390E4
:102C0000F342FD0EF3CFDBFF00008A920000DF2AC3
:102C1000DED7DF6ADFCF00F00A0EE76E0018E8AEFD
:102C200002D0E73402D0E750005C03E200D0DF2A94
:102C3000F1D7E552E552E7CFD9FF1200D9CFE6FF31
:102C4000E1CFD9FFE652DF6ADFCF00F0100EE76E6A
:102C50000018E8AE02D0E73402D0E750005C1DE275
:102C60008A820000FD0EDB50010B02E08A8001D059
:102C70008A90D950FD0FE96EFF0EDA20EA6E010E40
:102C80000F0B06E0EC52D890ED32EF32E806FAE195
:102C900000008A920000DF2AD7D70000E552E552F3
:102CA000E7CFD9FF1200D9CFE6FFE1CFD9FFE65237
:102CB0008A8200008A9000008A920000DF6ADFCFDB
:102CC00000F00E0EE76E0018E8AE02D0E73402D036
:102CD000E750005C1DE28A820000FD0EDB50010B14
:102CE00002E08A8001D08A90D950FD0FE96EFF0E74
:102CF000DA20EA6E010E0F0B06E0EC52D890ED32AE
:102D0000EF32E806FAE100008A920000DF2AD7D706
:102D10008A8200008A9000008A9200000000E5523A
:102D2000E552E7CFD9FF120096D988DFBBD193D9FE
:102D3000BADFB8D1D9CFE6FFE1CFD9FF030EE12644
:102D4000FD0EDBCFE6FFFE0EDBCFE6FF36DFE55202
:102D5000E5529380DF6ADFCF00F00A0EE76E0018BD
:102D6000E8AE02D0E73402D0E750005C03E200D0C6
:102D7000DF2AF1D7010EDB6A020EDB6A8A820000CD
:102D80008A920000DF6ADFCF00F00E0EE76E0018B7
:102D9000E8AE02D0E73402D0E750005C1FE28A823E
:102DA00000008150010B026E036ADF5002C000F088
:102DB00003C001F005E0D89000360136E804FBE1DD
:102DC000D950010FE96EDACFEAFF0050EE12015040
:102DD000ED1200008A920000DF2AD5D78A82000017
:102DE0008A92000093908A900000010EDBCF00F0E1
:102DF000020EDBCF01F000C0F3FF01C0F4FF00D0F2
:102E0000030EE15C02E2E16AE552E16EE552E7CFD2
:102E1000D9FF1200D9CFE6FFE1CFD9FF020EE1269C
:102E2000FD0EDBCFE6FFFE0EDBCFE6FFC6DEE55292
:102E3000E552DF6ADFCF00F0080EE76E0018E8AE5B
:102E400002D0E73402D0E750005C08E28A8200003A
:102E50008A9000008A920000DF2AECD79380DF6A14
:102E6000DFCF00F00A0EE76E0018E8AE02D0E734BC
:102E700002D0E750005C03E200D0DF2AF1D7010E58
:102E8000DB6ADF6ADFCF00F0080EE76E0018E8AEFD
:102E900002D0E73402D0E750005C1AE28A820000D8
:102EA0008150010BDF5206E0DFCFF3FFE846FE0B57
:102EB000F306FCE1006E010EDBCFE7FF0050E712E6
:102EC000010EE7CFDBFF00008A920000DF2ADAD78D
:102ED00093908A900000010EDB5000D0006E020E2D
:102EE000E15C02E2E16AE552E16E0050E552E7CFB3
:102EF000D9FF1200D9CFE6FFE1CFD9FF030EE126BB
:102F0000010EE66E040EE66E58DEE552E552010E45
:102F1000DB6A020EDB6A9380E66A080EE66E4DDE1F
:102F2000E552E5520000DF6ADFCF00F0100EE76ED9
:102F30000018E8AE02D0E73402D0E750005C23E28C
:102F40008A82000000008150010B026E036ADF508C
:102F500002C000F003C001F005E0D8900036013651
:102F6000E804FBE1D950010FE96EDACFEAFF005027
:102F7000EE120150ED128A920000000000000000E5
:102F80000000DF2AD1D793908A900000010EDBCF9A
:102F900000F0020EDBCF01F000C0F3FF01C0F4FF30
:102FA00000D0030EE15C02E2E16AE552E16EE55217
:102FB000E7CFD9FF1200D9CFE6FFE1CFD9FFE65224
:102FC000E66A040EE66EF9DDE552E552DF6A180E98
:102FD000DF5C33E28A820000010E006E016A026A41
:102FE000036AD950FB0FE96EFF0EDA20EA6EEE504D
:102FF0000016EE500116EE500216EE500316005069
:1030000001100210031002E08A8001D08A90D9508A
:10301000FB0FE96EFF0EDA20EA6ED890030EEB325A
:10302000020EEB32010EEB32EF3200008A9200000A
:10303000000000000000DF2ACAD7E552E552E7CFC2
:10304000D9FF1200E66A040EE66E6EDEE552E55226
:10305000E552E5521200D9CFE6FFE1CFD9FFFD0ED0
:10306000DBCFE6FFFE0EDBCFE6FFA7DDE552E55244
:10307000FB0EDBCFE6FFFC0EDBCFE6FF1200FA0E05
:10308000DBCF04F0FB0EDBCF05F0FC0EDBCF06F050
:10309000FD0EDBCF07F01200016A026A036A0E0E12
:1030A00001121200E552E5528A90E552E7CFD9FFAE
:1030B0001200E66E6E0EE66E22EF18F001C0E6FF1B
:0430C00022EF18F0F3
:0C30C400070E8B12F80E9416938C8150AE
:1030D000400B01E0010E00018B6F9290929293964B
:1030E000939A9390939293949296898689889288E2
:1030F000898A928A8A868A9A8A908A92F18E02D8DE
:103100008EEF18F0C00EF2129D809E909F80D10E1F
:10311000CF6E1F0ECE6E010ECD6E1200E00EF212BB
:10312000F294440ED66EC30ED56E12001FDAFE0E58
:10313000DB50010BE81CE8B08B80E8A08B90FE0E02
:10314000DB50020BE8407F0BE81CE8B08B82E8A064
:103150008B92FE0EDB50040BE840E8403F0BE81C6E
:10316000E8B08B84E8A08B9406D200DA080EE12642
:10317000060E0001855D03E36D50020B02E05BD992
:10318000DCD0400EE66E000EE66E010EE66E42ECFE
:103190001EF0E552E552E552E66ED950020FE96E97
:1031A000DACFEAFFE552E750EE6EED6A020EDBCFB2
:1031B00000F0030EDBCF01F0013401E3AED000508C
:1031C0000008000E015401E3A8D001010051900A4B
:1031D00001E18DD0100A01E17ED0F00A6EE0100A04
:1031E0005CE0300A4DE0100A3EE0700A2FE0100A61
:1031F00009E0300A01E091D0050ECCD9D5D922ECF6
:1032000004F06ED0060EC6D900017A51020A10E011
:10321000010A07E0060A17E1A3D9E66AE66AE6684A
:103220000DD09ED9FE0EE66EE6683F0EE66E06D025
:1032300097D9060EE66E200EE66EE66AE66AB4D907
:103240009FEC0DF09CD90001020E64D0050E69D9E7
:1032500002E078D9FEE16ED902E07BD9FEE194D993
:103260006DEC06F036D0060E5CD902E06BD9FEE1BB
:1032700061D902E06ED9FEE191D99FEC0DF019D031
:10328000050E4FD902E05ED9FEE154D902E061D9C2
:10329000FEE17AD911EC0AF01CD0060E42D902E008
:1032A00051D9FEE147D902E054D9FEE177D9EBECE0
:1032B0000EF065D901C17CF02ED0050E32D902E0A6
:1032C00041D9FEE137D902E044D9FEE15DD993EC62
:1032D0000BF055D907D0010EE66E010EE66E34D81C
:1032E000E552E5520101266F0001010E13D0480E90
:1032F000006E400E016E026A00C0E6FFE66E02C07C
:10330000E6FF57D9FDEC1FF0036E050EE15E03509A
:103310000001120E7C6F040E3DD900017C510DE0BE
:1033200004010CBF08D07CC0E6FF43D912EC1EF0AC
:10333000E552E552E55200017C6B080EE15C02E2C9
:10334000E16AE552E16E17D111D9FD0EDBCFE9FF3D
:10335000FE0EDBCFEAFFEFCF7BF000017B512A0AA4
:1033600066E0030A62E00E0A5EE00C0A5CE0030A13
:103370005AE0350A56E0030A54E0010A52E03F0AD7
:1033800050E0010A4EE0030A4CE0010A4AE0070A55
:1033900048E0010A46E0030A44E0260A42E0010A46
:1033A00040E02D0A3CE0010A3AE02F0A38E0010A29
:1033B00036E0070A34E0010A32E0030A30E0010A8D
:1033C0002EE00F0A2CE0010A2AE0030A28E0010A95
:1033D00026E0070A24E0010A22E0030A20E0010AAD
:1033E0001EE01F0A1CE0010A1AE0030A18E0010AA5
:1033F00016E0070A14E0010A12E0030A10E0010ACD
:103400000EE00F0A0CE0010A0AE0030A08E0010AD4
:1034100006E0070A04E07B6B030E7A6F0BD0020E06
:1034200007D0030E05D0040E03D0050E01D0060E02
:103430007A6F010EA0D000017D517E1104E1100EC3
:103440007D6F270E7E6F7D07000E7E5B6DA207D01D
:103450007D517E1120E18B808B828B7412000001E4
:10346000855102E1010E10D0850508E0020E855D50
:1034700002E1040E09D0030E855D02E1020E04D0C4
:10348000050E855D03E1040ECAEF1AF0060E855D98
:1034900002E100017F6B12008150400B01E0010E40
:1034A00000018B5D07E08150400B01E0010E8B6F46
:1034B00081AC010C000C04500012055001120650A2
:1034C00002120750031204C108F0096A0A6A0B6A63
:1034D00008500012095001120A5002120B50031238
:1034E000040E00C0DBFF050E01C0DBFF060E02C0AC
:1034F000DBFF070E03C0DBFF05C1E6FF01C1E6FFEE
:103500001200E66ED950040FE96EDACFEAFFEECF73
:10351000E6FFEECFE6FFEECFE6FFEFCFE6FFD4EF1C
:103520001AF038D802C100F0016A026A036A100E6C
:103530001F0B120003C104F0056A066A076A080E31
:103540001F0B1200D8900036013602360336E8060B
:103550001200D8900436053606360736E806120003
:10356000030EE66E020EE66ED9EF1AF0D9CFE6FF33
:10357000E1CFD9FF1200E552E7CFD9FF1200006E6C
:103580000A0EE15E0050120096DF060EE66E010E96
:1035900081EF1AF0E66ECADDE55212008CDF260ECE
:1035A000E66E010E81EF1AF07BC0E6FF7AC0E6FFFF
:0C35B0001200260EE66E010EE66E120000
:0435BC00040118519D
:1035C000600BE842E842E842E842E842000901E0D4
:1035D00012001951070A40E00B0A3EE0070A33E0E7
:1035E000010A23E00B0A1FE0020A1DE0030A19E0AA
:1035F000080A10E0010A0CE00F0A08E0030A01E0E3
:10360000120010D90001040E856F12002DEF1BF07F
:1036100064EF1BF007D90001870E6C6F000E6D6F11
:103620000CD07FEF1BF0AFEF1BF000D900016C6FE7
:103630006D6B880E6C27000E6D23000186930001D0
:10364000010E706F1200F2D8EA6A880FE96E000E60
:10365000EA221AC4EFFF12001200800E0401185D66
:1036600032E11B51030A1FE0010A0AE0030A29E1C3
:10367000D9D80001CA0E6C6F3D0E6D6F120E1ED0B0
:10368000ABD86E0EF6263E0EB9D8020E0001F76AD0
:103690006C25F66E6D51F7220900F5CF70F00A0027
:1036A000F5CF71F00ED098D8720EF6263E0EA6D841
:1036B0006CC0F6FF6DC0F7FF0800F5500001706F99
:1036C000716B000186831200ADD80F0EE66E710E8D
:1036D000E66E0F0E9BD8010EE66E880EE66E000EAB
:1036E00095D81AC487F004011A5104E10001050EAF
:1036F000856F12000001060E856FFDEF1DF00401BD
:10370000206B216B040118511F0B020A0DE0030A04
:1037100009E0010A16E186D8000186A112D0040151
:1037200020830FD07FD80DD04BD801E0010E5DD89B
:103730006EC0E9FFEA6EEF50040B03E00401010ED6
:10374000206F00016B050AE10001200E6C6F040E72
:103750006D6F000186930001020E706F120004016C
:103760001A050EE118511F0B00090AE15BD8030E80
:103770000401195D03E10001868102D000018691F8
:1037800004011A511CE118511F0B020818E11C51C9
:103790000F0B000914E014D801E0010E26D8030E27
:1037A0000401195D04E1840E38D8EF6E12001CAFDD
:1037B00003D033D8EF6A1200880E2FD8EF6E1200B4
:1037C00035D80F0B080DF350016A000F006E040E80
:1037D00001221C51800B120025D804011A51F66EEB
:1037E000F76AD890F636F7361200040DF350000150
:1037F00000246E6F000E01206F6F1200F722090087
:10380000F5CF6CF00A00F5CF6DF01200E66EE8EC33
:103810001DF0E552E552E55212006EC0E9FF6FC09F
:10382000EAFF12000001010E6B6F1200FBDF0401C2
:043830001C51120015
:0C3834006C5002E0000E01D0010E0009F3
:103840000BE0040100513C0BE842E8420D0802E1A4
:1038500035EF1CF044EF1CF06C5002E0000E01D07C
:10386000010E040901E01FD81200D9CFE6FFE1CF15
:10387000D9FFE65200016A6B6B6B706B716BDEEC0B
:103880001AF099D8E552F6D0020E00016A5D09E1FE
:1038900068D8040100BD02D0C80E01D0880E006FA8
:1038A000120014EF1DF0040E0001855D09E11AC439
:1038B0006EFF6E50000802E2050E01D0030E856F08
:1038C00000016A0509E10AD8040104BD02D0C80E4E
:1038D00001D0880E046F120014EF1DF0C4D800014F
:1038E000080E705D000E715905E270C0DEFF71C0F8
:1038F000DDFF03D0080EDE6EDD6A0401049304913F
:10390000010EDB500413DFCF05F4000EDB50000185
:10391000705F010EDB50715B200E6E6F040E6F6FD7
:10392000000186A30CD098D815E06CC0F6FF6DC0DE
:10393000F7FF0800F55080D8F6E2DB06F4D78CD804
:1039400009E06CC0E9FF6DC0EAFFEF5075D8F7E2FF
:10395000DB06F5D7020EE15C02E2E16AE552E16EB8
:1039600089D081D8030E04010015E76E010EE7CF60
:10397000DBFF01C4DFFFDE5000017027DD50712343
:10398000200E6C6F040E6D6F67D80EE06CC0E9FFFF
:103990006DC0EAFFEF506EC0E9FF6FC0EAFFEF6E47
:1039A0006DD8F2E2DB06F0D7020EE15C02E2E16ADA
:1039B000E552E16E5FD000016B5105E145D8840E00
:1039C000006F04011DD0040118AF1CD0000170511C
:1039D00004011E5D0001715104011F5904E21EC45F
:1039E00070F01FC471F07ADF0001010E6A6F2CD8ED
:1039F000800E006F0401200E066F040E076FC80EC4
:103A0000046F10D00001020E6A6F0401056BC80E2E
:103A1000046F0401080E016F200E026F040E036F85
:103A2000C80E006F6D98120000016A6B0DD8880EE9
:103A3000006F0401046B12006EC0E9FF6FC0EAFF63
:103A4000EF6E00013EEF1DF00401080E016F180E2D
:103A5000026F040E036F1200D9CFE9FFDACFEAFF3D
:103A6000EE50ED101200D9CFE6FFE1CFD9FF020EE4
:103A7000E1261200E552E7CFD9FF12006E2B000EAF
:0C3A80006F236C2B6D23DF06010E12007B
:043A8C006DA60CD83F
:103A90000001850508E16DBA06D0686A696A698027
:103AA0006988020E856F12006D6A696A6D86000171
:103AB000010E856F12006D6A696A0001856B120044
:103AC0005BEF1DF00001855101E112006850040B0D
:103AD00004E06950040B01E038D86DB21200685060
:103AE000010B04E06950010B01E050D86850100B45
:103AF00004E06950100B01E024D86850400B04E04A
:103B00006950400B01E037D86850200B04E0695041
:103B1000200B01E032D86850020B04E06950020B20
:103B200001E032D8030E0001855D01E21200685009
:103B3000080B06E06950080B03E01AEC1CF06896CD
:103B40001200698468986D8212006D92699468947D
:103B50001200000186A10ED0F8DF6D840001080E6E
:103B6000896F070E8A6F8907000E8A5B89518A1157
:103B7000FAE16D941200689C120070A003D014EC5E
:103B80001DF07090689A1200689212006A6A686A62
:103B90009F0E6B6E7B0E696E6E6A0F0EE66E710E77
:103BA000E66E0F0EE66E14D8E552E552E552160E9B
:103BB000706E68A602D06896FCD76D9814EC1DF064
:103BC000000186910001876B0001030E856F1200D2
:103BD000D9CFE6FFE1CFD9FFFD0EDBCFE9FFFE0E27
:103BE000DBCFEAFFFC0EDB5004E0EE6AFC0EDB06E6
:0A3BF000F9D7E552E7CFD9FF120024
:063BFA0000018D6B1E0EA0
:103C0000716E0401260E096F280E0A6F040E0B6FE9
:103C1000880E086F04014E0E0E6F040E0F6F400EDB
:103C20000C6F1200D9CFE6FFE1CFD9FFE652FC0EB0
:103C3000DB50260805E2260EF36EFC0EF3CFDBFF09
:103C4000DF6AFC0EDB50DF5C0FE2DF5051D8EF5033
:103C5000E66EDF50EA6A4E0FE96E040EEA22E55284
:103C6000E750EF6EDF2AEDD7FC0EDBCF0DF4400EF0
:103C700004010C170C7D880E0C13E552E552E7CFBA
:103C8000D9FF1200D9CFE6FFE1CFD9FF00018D6B3C
:103C9000040108BF27D0FC0EDBCF00F00951D8800B
:103CA000005403E2FC0E09C4DBFF00018D6BFC0E27
:103CB000DB508D5D0FE28D51EA6A280FE96E040E2C
:103CC000EA22EF50E66E8D5113D8E552E750EF6EC1
:103CD0008D2BEDD70401260E096F400E0817087DC5
:103CE000880E081300018D51E552E7CFD9FF12006D
:103CF000E76EFD0EDBCFE9FFFE0EDBCFEAFFE750FC
:083D0000E926000EEA22120080
:083D0800DACFE4FFE6529EA0B1
:103D10000BD00001722B000E732374237523D10E78
:103D2000CF6E1F0ECE6E9E90F2A40AD0897089507D
:103D3000010B02E0899201D08982440ED66EF29482
:103D4000E552E5CFDAFF1100D8CFE4FFE0CFE4FF82
:103D5000E46EDACFE4FFE652E552E5CFDAFFE55054
:103D6000E5CFE0FFE5CFD8FF1000D9CFE6FFE1CFE8
:103D7000D9FF72C076F073C077F074C078F075C068
:103D800079F0760EE96E000EEA6EEE500001725D7B
:103D9000006EEE507359016EEE507459026EEE5083
:103DA0007559036ED950FB0FE96EFF0EDA20EA6EEB
:103DB000EE50005CEE500158EE500258EE500358A1
:0A3DC000E0E3E552E7CFD9FF12005F
:063DCA00120100020000DE
:103DD0000008D8040E0000000102000109022000C2
:103DE0000101008032090400000200000000070504
:103DF000010326002007058103260020040309048F
:103E00002A0375007300620070006900630070008F
:103E100072006F0067002E006F00720067002000C4
:103E200020002000200020002000440375007300C3
:103E30006200700069006300700072006F0067002C
:103E40002E006F007200670020002000200020007C
:103E50002000200020002000200020002000200062
:103E60002000200020002000200020002000DC3D59
:083E7000DC3DFC3D003E2A3E52
:083E78002A0EF66E080EF76E2B
:103E8000000EF86E00010900F550656F0900F5504D
:103E9000666F03E1656701D03DD00900F550606FA2
:103EA0000900F550616F0900F550626F09000900C3
:103EB000F550E96E0900F550EA6E090009000900A5
:103EC000F550636F0900F550646F09000900F6CFE3
:103ED00067F0F7CF68F0F8CF69F060C0F6FF61C017
:103EE000F7FF62C0F8FF0001635302E1645307E08B
:103EF0000900F550EE6E6307F8E26407F9D767C072
:103F0000F6FF68C0F7FF69C0F8FF00016507000E03
:063F1000665BBFD7120042
:0A3F16007F6A7E6A7D6A7C6A7B6A1E
:103F20007A6A796A786A776A766A756A746A736A8D
:103F3000726A716A706A6F6A6E6A6D6A6B6A6A6ABF
:103F4000696A686A120004D80FD8B5EC18F0FCD77B
:103F50000F0EC112140E6F6E0001856B0001866B8F
:103F60000001876B62EF18F046EC1DF06FBE02D0C7
:063F700062EC1DF01200DE
:0A3F76001D6A1C6A1B6A1A6A200EFD
:103F8000E76ED8901E361F36203621361A361B367D
:103F90001C361D3623501A5C24501B5825501C58C3
:103FA00026501D5809E323501A5E24501B5A2550F1
:0E3FB0001C5A26501D5A1E2AE72EE4D7120076
:023FBE0020C021
:103FC0002AF020502502F4CF1FF0F3CF1EF021502D
:103FD0002602F4CF21F0F3CF20F02502F3501F2664
:103FE000F4502022E86A21222A502602F3501F268C
:0A3FF000F4502022E86A2122000CA0
:063FFA00FB0EE3CFF6FF11
:10400000FC0EE3CFF7FFFD0EE3CFF8FFFE0EE3CF8C
:10401000E9FFFF0EE3CFEAFFE9CFF3FFEACFF4FFBA
:0C4020000900F5CFEFFFEE66FBD71200A1
:04402C0013EE00F09F
:1040300023EE00F0F86A199C3CEC1FF033EC20F002
:08404000A3EC1FF0FBD71200F6
:08404800757362706963707208
:074050006F672037303100DB
:0840580000EE00F00F0EEE6A0D
:06406000EA62FDD7120028
:02406600120046
:064068000300000000FF50
:02406E00000050
:064070000000000000004A
:020000040030CA
:0100000021DE
:010001000EF0
:0100020038C5
:010003001EDE
:01000500807A
:010006008079
:01000900C036
:01000B00E014
:00000001FF
