:020000040000FA
:0600000068EF27F012007A
:06000800C6EF25F0120016
:06001800E6EF25F01200E6
:0608000068EF27F0120072
:06080800C6EF25F012000E
:06081800E6EF25F01200DE
:06082A000200064F000071
:100830009201000008000000004F00009A01000033
:0408400006000000AE
:0C0844005BEC14F00A0EE126C9EC16F083
:10085000FD0EDB50340A01E1AED2190A01E1ABD240
:10086000010A01E193D23D0A01E18AD21E0A01E1A7
:1008700087D2010A01E184D2200A01E153D2290A78
:1008800001E150D2010A01E14DD2050A01E14AD24B
:10089000060A01E1EDD1080A01E1E2D1050A01E110
:1008A000DFD10A0A01E1DCD13B0A01E1BCD1290A0E
:1008B00001E1B9D1030A01E1B6D1010A01E1B3D1E5
:1008C000160A01E188D10F0A01E14ED1070A01E1C0
:1008D00047D1050A01E144D1030A01E141D1250ACA
:1008E00001E13CD10C0A01E129D1010A01E126D143
:1008F000130A01E112D1010A01E10FD12E0A01E12F
:100900000CD11F0A01E109D1010A01E1EED0360A3A
:1009100001E1EBD0010A01E1E8D00F0A01E1DCD0EE
:10092000250A01E1A4D0340A4BE01C0A0AE0070AB8
:1009300001E163D2010A01E160D28A9049EC16F02C
:100940005ED2DBEC16F0E66E060EE66E60EC17F09B
:10095000E66A2DEC17F09BEC16F0E66A2DEC17F02A
:10096000E66A080EE66EBB0E64EC16F0B8EC13F007
:10097000A80E64EC16F039EC14F0B1EC13F0C80ECC
:10098000A7EC15F001E339D28DEC16F0D7EC1CF092
:10099000060EF3CFDBFF070EF4CFDBFF13EC15F0F1
:1009A000D950060FE96EDACFEAFFEE50ED1001E103
:1009B00024D2B6EC16F0D9EC14F0DFE3DB2ADDD755
:1009C00065EC17F067EC16F08A0EE66EE66A60ECEE
:1009D00017F0800EE66E0F0EABEC17F0670EE66EAA
:1009E0002DEC17F0E66AE5EC16F039EC14F0B1ECFA
:1009F00013F0020EA7EC15F025E2860E60EC16F05F
:100A0000BB0E18EC15F0580EE66E050E75EC16F0E0
:100A1000A90EE66E0A0E75EC16F0380E6CEC16F0A8
:100A2000390E6CEC16F0B8EC13F0A80E64EC16F06E
:100A3000C90EA4EC12F08EEC17F0D9EC14F0D7E349
:100A4000DB2AD5D7FA0EE66E070EE66E60EC17F0DD
:100A500050EC17F0030EA4EC12F0B8EC13F0A90E52
:100A600018EC15F013EC15F02FEC16F0C2D1040EB3
:100A70002AEC15F0830E84EC17F0880E84EC17F046
:100A8000890E84EC17F08A0E84EC17F0060E2AEC1F
:100A900015F0A3EC17F0E66AE66A200EE66EE66A49
:100AA000BCEC12F0C1EC16F0A60EE66E880E1FEC40
:100AB00015F0B3EC17F0A60EE66E820E1FEC15F0E3
:100AC000B8EC17F0B6EC16F0A60EE66E940EE66ED5
:100AD000E66A11EC16F08DD1050E2AEC15F0E668E9
:100AE000E668D0EC16F0870E32D0050E2AEC15F031
:100AF000FD0EDB5002E13F0E01D00F0EE66EE66EFA
:100B0000D0EC16F08F0EE66EE66E23EC15F0FD0EBF
:100B1000DB5001E167D1100E66D1040E2AEC15F00E
:100B2000800E15EC17F0BEEC16F027EC13F059EC24
:100B300013F011EC16F0E552E55297D0050E2AECB1
:100B400015F0010EE66EE66ED0EC16F0800EE66E45
:100B5000E66E23EC15F0F6EC13F047D17AEC15F0C5
:100B6000EBEC16F01E0E3FD1BDEC13F06CEC0FF069
:100B70004CEC16F03FEC15F0090EDB50310B006E1B
:100B8000310E005C07E3080EDB50300B016E300EB7
:100B9000015C0CE202EC16F039EC14F051EC16F0AA
:100BA00011E2E8EC16F0FAE3DB2AF8D704EC17F0D0
:100BB000AEEC17F0B9EC16F093EC14F0030EE66E01
:100BC000C6EC12F0AEEC17F0010E1BEC15F0070EA0
:100BD000BDEC15F010D102EC16F039EC14F051EC2C
:100BE00016F005E2E8EC16F0FAE3DB2AF8D7B9ECE8
:100BF00016F0CDEC16F0140EA4EC12F0B9EC16F0D1
:100C0000140E31EC17F002EC16F0EBEC16F0CDEC14
:100C100016F0140E31EC17F004EC17F00B0E1BEC71
:100C200015F0080E19D07AEC15F0FD0EDB50120A03
:100C30000DE139EC14F0B1EC13F0080EA7EC15F04F
:100C400005E2E8EC16F0F7E3DB2AF5D7EBEC16F05B
:100C5000060E31EC17F00B0E1BEC15F0060EC3D090
:100C60007AEC15F01F0EBDEC15F0E552E552BAD046
:100C700039EC14F0B1EC13F0FF0E005C030E0158D8
:100C800005E2E8EC16F0F6E3DB2AF4D712EC17F0F5
:100C9000FAEC14F07AEC15F039EC14F051EC16F093
:100CA00005E2E8EC16F0FAE3DB2AF8D712EC17F0CD
:100CB000F3CF00F0F4CF01F0000E0016300E011655
:100CC000020E00C0DBFF030E01C0DBFF7AEC15F063
:100CD000EBEC16F0B6EC16F00B0E1BEC15F0B6ECC8
:100CE00016F04DEC17F006EC16F001E186D011EC91
:100CF00013F0030EE66E19EC14F0080EDB68CCEC72
:100D000013F001C000F0016A0F0E0012000E011274
:100D1000090E00C0DBFFBDEC13F01DEC0DF04CEC38
:100D200016F06BD0FD0EDB50070809E104EC17F05C
:100D3000EBEC16F0CDEC16F0140EA4EC12F07AECFD
:100D400015F004EC17F0FD0EDB50070803E1080E68
:100D50001BEC15F0EBEC16F0140E54EC16F02E080C
:100D60004CE00B0E1BEC15F0FD0EDB50070803E109
:100D7000080E1BEC15F0140EA4EC12F08A903DD076
:100D800026EC15F0EBEC16F0140E2DD003EC15F05C
:100D900004E1FBEC13F035EC17F0BDEC17F02DE09F
:100DA000B6EC16F0040EE66E010EA1EC15F011EC97
:100DB00013F0E66A15D003EC15F004E1FFEC14F033
:100DC00035EC17F0BDEC17F018E0040EE66E020EDD
:100DD000A1EC15F0B6EC16F011EC13F0010EE66E76
:100DE00019EC14F00A0EE66EE66AE66AE66AF7ECBB
:100DF00025F0E552E552E552E55215EC16F0006E8D
:100E00000A0EE15C02E2E16AE552D3EF13F058EC1E
:100E100016F0F50EDBA002D0C9EC16F0FD0EDB508B
:100E2000340A01E1F8D33A0A01E1F5D3010A01E1FC
:100E3000F2D31E0A01E1EFD33D0A01E1ECD3010A2E
:100E400001E1E9D32F0A01E1B3D3120A01E161D331
:100E50003F0A01E15ED3220A01E15BD31F0A01E1EF
:100E600058D31A0A01E155D30E0A01E152D3150AEB
:100E700001E14FD31F0A01E117D3050A01E114D3A1
:100E8000030A01E111D3330A01E1CAD2320A01E1B6
:100E9000C7D20C0A01E1C4D2040A01E1C1D2070A97
:100EA00001E1BED2010A01E1BBD22B0A01E1B8D2B5
:100EB0000D0A01E156D2010A01E153D2130A01E100
:100EC000D9D1010A01E1D6D12D0A01E1D3D1030A1A
:100ED00001E1D0D11F0A01E1CDD1010A01E19BD18D
:100EE000360A01E198D1010A01E195D10F0A01E129
:100EF00041D10D0A52E01C0A50E01B0A05E0010A2C
:100F000003E049EC16F0BFD380EC15F002E1000ECF
:100F100001D0010E04C0E7FFE75204E0E8427F0B76
:100F2000E706FCE135EC16F008E1E2EC15F0E5EC43
:100F300014F0FDE1005014EC14F030EC13F014EC5C
:100F400014F0040EDB6A01EC13F0E8AE02D0E734D3
:100F500002D0E750005C1BE2D9EC13F000BE016840
:100F6000D0EC12F0EF5014EC14F0DE6EDD6AD9CF45
:100F7000E9FFDACFEAFF010EEE1806E1ED5004E1D9
:100F80009CEC1DF0020E7FD3040EDB2ADCD79CEC18
:100F90001DF00A0E19EC17F03BD1FD0EDB503508A1
:100FA00003E1DBEC16F005D065EC17F089EC17F0E7
:100FB0001A0EE66EE66A60EC17F0040EDB6A01ECCE
:100FC00013F0E8AE02D0E73402D0E750005C01E352
:100FD00096D0006ADEEC13F0040EAFEC14F008AE0D
:100FE00003D009680A680B68C7EC15F0ECEC14F044
:100FF00066EC14F0FDE1C1EC17F0070E006EDEECBC
:1010000013F0040EAFEC14F008AE03D009680A68C0
:101010000B68C7EC15F097EC14F003E08FEC13F0BD
:10102000FDE17DEC15F0DE6ADD6AE3EC13F05CE2D5
:10103000006ADEEC13F0BBEC14F00ABE0B680BEC9C
:1010400014F00A501E24086E0B501F20096E5EEC2F
:1010500013F003E08FEC13F0FDE108EC13F0040E45
:10106000DBCF12F0136A12BE13680BEC14F01250AF
:101070001E24106E13501F20116E010E1026000E3C
:101080001122F70EDB5010240BEC17F01120EA6E42
:10109000EFCF0CF00D6A0E6A0F6A0C0E1F0B07E003
:1010A000D8900C360D360E360F36E806F9E10C50A6
:1010B00000120D5001120E5002120F500312DECF1B
:1010C00014F0DDCF15F0166A176A1450001215508F
:1010D00001121650021217500312BAEC12F0DF2A56
:1010E000010EA3E3DB2AA1D7E66AE5EC16F068EC73
:1010F00017F068EC17F00C0EF7EC12F060D7FD0E4D
:10110000DB50350825E1B8EC13F0A80E64EC16F0BE
:10111000DE6ADD6A61EC15F0140EA7EC15F015E23D
:101120008DEC16F09DEC14F013EC15F0D950020F75
:10113000E96EDACFEAFFEE50ED1007E00FEC17F0A2
:10114000DF2A010EE7E3DB2AE5D7E66A020E0BD0C1
:1011500050EC17F0030EA4EC12F065EC17F08EECD7
:1011600017F0E66A010EE66E040E18EC15F02FEC8F
:1011700016F04ED055EC15F014E170EC16F08C0E14
:10118000C4EC17F0880E1FEC15F0A3EC17F0D8ECA8
:1011900012F03EEC14F0EECFE6FFEFCFE6FFBCEC32
:1011A00012F0040EDB6A43EC14F0E8AE02D0E73430
:1011B00002D0E750005C0BE2EDEC15F008BE0968C8
:1011C000EFEC12F002BE036839EC17F0ECD730EC0C
:1011D00013F0DDEC14F004E1F50EDB50020B0AE035
:1011E000EDEC15F008BE0968EFEC12F002AE3CD051
:1011F00003683AD0EDEC15F008BE0968EFEC12F088
:1012000002BE0368CCEC12F00D0EE66E11EC16F087
:10121000E552E55202D170EC16F09C0E3DEC17F051
:1012200003E00BEC15F002E1C1EC16F040EC17F016
:1012300043EC14F0E8AE02D0E73402D0E750005C93
:101240000BE2EDEC15F008BE0968EFEC12F002BEFF
:10125000036839EC17F0ECD7EDEC15F008BE09681F
:10126000EFEC12F002BE0368CCEC12F0F7EC16F0D3
:10127000020EC9D0FD0EDB5031080BE070EC16F009
:101280008C0E1FEC15F0060E2AEC15F0000E15EC76
:1012900017F0A3EC17F040EC17F001EC13F0E8AEF8
:1012A00002D0E73402D0E750005C01E3E5D1DE6A0A
:1012B000DD6AE3EC13F034E2010EE76EF70EDBCFEC
:1012C0000AF0F80EDBCF0BF0E7500A26000E0B22D7
:1012D000040EDBCF0CF00D6A0CBE0D680A500C2416
:1012E000086E0B500D20096EDE500824E96EDD50AB
:1012F000B9EC15F004BE0568F70EDB500424026E4D
:10130000F80EDB500520036EDE500224E96EDD503E
:10131000032096EC13F044EC17F0CAEC14F0C9D794
:10132000070EDFEC12F008BE0968EFEC12F002BE07
:10133000036839EC15F0EA6E060EE926000EEA2283
:10134000E8EC15F0F7EC16F0020E87EC15F0090E3C
:10135000C4EC13F0090EC4EC13F0080EF7EC12F015
:101360009CD755EC15F004E1C1EC16F031EC15F00A
:10137000040EDB6A43EC14F0E8AE02D0E73402D08E
:10138000E750005C0BE2EDEC15F008BE0968EFECED
:1013900012F002BE036839EC17F0ECD755EC15F0EB
:1013A0000BE0EDEC15F008BE0968EFEC12F002BEA0
:1013B0000368CCEC12F024D0EDEC15F008BE0968FF
:1013C000EFEC12F002BE0368CCEC12F044EC17F024
:1013D000F50EDBA251D1040EDB6ADBCF00F01E0E4E
:1013E000E76E0018E8AE02D0E73402D0E750005CA8
:1013F00005E2E668E66876EC15F0EFD7E668E668A1
:10140000F7EC16F00A0EA4EC12F08A920FEC17F02B
:10141000000EE66EE66A5BEC1BF0E552E5522CD15D
:10142000F50EDB50010B07E0D8EC12F089EC14F05C
:1014300002E231EC15F0040EDB6A01EC13F0E8AEC9
:1014400002D0E73402D0E750005C01E315D1040E6E
:10145000DB28066E076A06BE07683EEC13F09CECBC
:1014600015F002BE0368CCEC12F072EC15F0FD0E24
:10147000DB50390A08E0170A0BE1A7EC17F00A0E57
:10148000BDEC15F00AD0CDEC16F0030EA4EC12F072
:10149000CDEC16F00A0E8CEC15F0E552E552B6ECE8
:1014A00016F0C6EC16F0C9D7040EDB6A01EC13F097
:1014B000E8AE02D0E73402D0E750005C01E3DCD0B4
:1014C000DE6ADD6A2EEC14F012E2BBEC14F00ABE08
:1014D0000B6869EC13F004BE05689FEC16F0E3ECB2
:1014E00013F002E226EC15F0CAEC14F0EBD7CDECC9
:1014F00016F00FEC17F00E0E1BEC15F026EC15F0A5
:10150000040EDBCFE7FFE850E726040EE7CFDBFF52
:10151000CDD7040EDB6A01EC13F0E8AE02D0E7345D
:1015200002D0E750005C01E3A7D0DE6ADD6A61EC1F
:1015300015F0080EA7EC15F012E2BBEC14F00ABE91
:101540000B6869EC13F004BE05689FEC16F0E3EC41
:1015500013F002E226EC15F0CAEC14F0E8D7FD0E09
:10156000DB50060A0EE0290A08E03C0A02E0030A02
:101570000EE1A7EC17F00A0E11D0A7EC17F00E0E33
:101580000DD0CDEC16F00A0E8CEC15F009D0180E2B
:101590001BEC15F0020EA4EC12F0170EBDEC15F0CA
:1015A000E552E55226EC15F0080EF7EC12F0B3D731
:1015B000040EDB6A01EC13F0E8AE02D0E73402D08F
:1015C000E750005C59E2DE6ADD6A61EC15F0100E4E
:1015D000A7EC15F015E2BBEC14F00ABE0B6869EC41
:1015E00013F004BE05689FEC16F061EC15F00E0ECA
:1015F000A7EC15F002E226EC15F0CAEC14F0E5D7E2
:10160000CDEC16F0100EA4EC12F026EC15F0100E36
:10161000F7EC12F0CFD7F50EDBA004D026EC15F0D6
:1016200031EC15F0040EDB6A01EC13F0E8AE02D0E9
:10163000E73402D0E750005C1FE2040EDB28066EA0
:10164000076A06BE07683EEC13F09CEC15F002BE7C
:101650000368CCEC12F072EC15F00FEC17F0CDEC47
:1016600016F0030EA4EC12F00E0E1BEC15F00FECAE
:1016700017F0C6EC16F0D8D7F50EDBA203D015ECA8
:1016800016F001D0020E006E050EE15C02E2E16A86
:10169000E552D3EF13F058EC16F0F50EDBA002D0B4
:1016A000C9EC16F0FD0EDB502C0811E0FD0EDB50EE
:1016B0002D080DE0FE0EDB50020A01E16CD1010A9B
:1016C00001E1E5D0060A05E0E66AAEEC12F0030E91
:1016D000ACD165EC17F089EC17F05A0EE66EE66AAD
:1016E00060EC17F0020EDB6A01EC13F0E8AE02D0FA
:1016F000E73402D0E750005C01E3BDD0F00EE66EA7
:10170000070EABEC17F0070E006E016A2F0E026E8B
:10171000036A020EAFEC14F008AE03D009680A6841
:101720000B68D8EC12F025EC14F00B50EE200F0EE5
:10173000051618EC16F003E08FEC13F0FDE17DECDC
:1017400015F0006ADEEC13F0020EDBCF08F0096A38
:1017500008BE09685EEC13F003E08FEC13F0FDE1C6
:1017600008EC13F0020EDB280E6E0F6A0EBE0F6837
:1017700081EC13F003E032EC14F0FDE144EC15F0E1
:10178000010E09EC16F0020F086E096A08BE09681E
:101790005EEC13F003E08FEC13F0FDE15CEC16F06F
:1017A000030F0E6E0F6A0EBE0F6881EC13F003E09C
:1017B00032EC14F0FDE144EC15F0020E09EC16F0E9
:1017C000040F086E096A08BE09685EEC13F003E0B6
:1017D0008FEC13F0FDE15CEC16F0050F0E6E0F6A56
:1017E0000EBE0F6881EC13F003E032EC14F0FDE163
:1017F00044EC15F0030E09EC16F0060F086E096AAA
:1018000008BE09685EEC13F003E08FEC13F0FDE115
:101810005CEC16F0070F0E6E0F6A0EBE0F6881ECBF
:1018200013F003E032EC14F0FDE144EC15F0E66A4D
:10183000E5EC16F0030EDB6ADBCF00F0040EE76E7A
:101840000018E8AE02D0E73402D0E750005C08E2AE
:1018500082EC14F0BB0E64EC16F0030EDB2AECD71E
:10186000080E006E020EDBCFE7FF0050E726020EE7
:10187000E7CFDBFF39D750EC17F0020EA4EC12F0E3
:1018800065EC17F08EEC17F067EC16F0C7D0DEECC5
:1018900016F0020EDB6A01EC13F0E8AE02D0E7347A
:1018A00002D0E750005C01E3B9D0020EDBCF04F0B8
:1018B000056A04BE0568A9EC16F0020EDBCF04F041
:1018C000056A04BE056879EC16F0020EDBCF02F063
:1018D000036A02BE036839EC15F0EA6EEF50006E41
:1018E000016AE8500E0E011200C0E6FF97EC15F0F9
:1018F000A80E92EC17F0C1EC16F0FD0EDB0408E028
:10190000FD0EDB50300804E0FD0EDB50310802E133
:10191000B3EC17F0A60EE66E820E3DEC17F003E076
:101920000BEC15F004E1BEEC16F0BEEC16F027EC63
:1019300013F0A60ED4EC16F0E76E040EE7CFDBFF33
:10194000DB50020B02081DE1960EE96E010EEA6EF5
:10195000EE500101925D006EEE509359016EEE5013
:101960009459026EEE509559036ED890E850000AD3
:1019700007E6050EA7EC15F0000E0258000E0358FE
:10198000D8E30FEC17F0A60EE66E940E1FEC15F0E0
:10199000020EDB2A80D7020EDB6A01EC13F0E8AE00
:1019A00002D0E73402D0E750005C38E2020EDBCF11
:1019B00000F0016A00BE0168D0EC12F0EF50E66E54
:1019C000E66A030EE66EC6EC12F0FD0EDB50100A5E
:1019D0000AE0150A08E0020A06E00A0A04E0050A1D
:1019E00002E01A0A02E1180E01D0080E1BEC15F0F5
:1019F000080E54EC16F0100A0AE0150A08E0170A5F
:101A000006E01F0A02E0050A05E1170E01D00A0EE2
:101A10001BEC15F0CFEC17F0DB2ABFD7F50EDBA2DD
:101A200003D015EC16F001D0020E006E050EE15C3D
:101A300002E2E16AE552D3EF13F05BEC14F0030E1F
:101A4000E126F50EDBA002D0C9EC16F0FD0EDB504E
:101A5000340A01E10ED23A0A01E10BD2010A01E196
:101A600008D21E0A01E105D23D0A01E102D2010AB3
:101A700001E1FFD1280A01E171D1150A01E16ED11E
:101A80001D0A01E16BD11E0A01E168D13C0A01E1A6
:101A900065D1230A01E162D1050A01E15FD1030AA0
:101AA00001E15CD1010A01E159D1190A01E156D1E4
:101AB0001A0A01E153D10F0A01E150D1050A01E1EF
:101AC0004DD1040A01E14AD1050A01E147D1070AD3
:101AD00001E144D12A0A01E141D1170A01E13ED1D5
:101AE000010A01E178D0090A01E175D02C0A73E0FE
:101AF000030A71E01F0A6FE0010A6DE0360A6BE02D
:101B0000010A69E01E0A03E049EC16F0DDD1F50E8A
:101B1000DB50010B01080BE165EC17F089EC17F0C5
:101B2000070EE66EE66A200EE66E9FEC12F00101EB
:101B3000A96BCFEC14F0E8AE02D0E73402D0E75046
:101B4000A95D01E3BAD18A0EE66EE66A60EC17F091
:101B5000800EE66E0F0EABEC17F00101A929066EA0
:101B6000076A06BE0768C2EC15F002BE036839ECCE
:101B700015F0EA6EEF5000010410006E6DEC14F0E9
:101B8000060E006EDEEC13F0010EDBCF04F0020E49
:101B9000DBCF05F0066A076A18EC16F003E08FEC5D
:101BA00013F0FDE17DEC15F013EC15F0860E60EC02
:101BB00016F0BB0E64EC16F050EC17F0020EA4EC1D
:101BC00012F065EC17F08EEC17F067EC16F0020ED1
:101BD0000101A927AED770EC16F08C0E3DEC17F082
:101BE00003E00BEC15F002E1C1EC16F0FD0EDB0496
:101BF00008E0FD0EDB50300804E0FD0EDB5030083D
:101C000008E1E66AEF0E1FEC15F0E66AF80E1FEC2D
:101C100015F00101A96BCFEC14F0E8AE02D0E73467
:101C200002D0E750A95D01E348D1A9C100F0016AE3
:101C300000BE016807EC17F0EE500026EE500122BE
:101C4000EE500222EE501EEC14F0046E050EE15E22
:101C50000450A9C106F0076A06BE0768C2EC15F079
:101C600002BE0368CCEC12F04EEC15F08A8207EC51
:101C700015F003E00BEC15F002E1060E01D0020EA8
:101C800087EC15F0FD0EDB0408E0FD0EDB5030089C
:101C900004E0FD0EDB50380805E1F60EE66E2A0E74
:101CA0001FEC15F0A9C104F0056A04BE0568B5EC87
:101CB00015F0B5EC14F0016EEE500620026EEE50F9
:101CC0000720036E002A000E012202221EEC14F0EF
:101CD000086E050EE15E0850010EE76EF70EDBCFD1
:101CE00008F0F80EDBCF09F0E7500826000E0922B5
:101CF000A9C10AF00B6A0ABE0B6808500A24E96EF3
:101D000009500B201FEC17F0010EE76EF70EDBCF2A
:101D100002F0F80EDBCF03F0E7500226000E03229C
:101D2000A9C104F0056A04BE056802500424E96EE6
:101D30000350052096EC13F04EEC15F08A8207EC68
:101D400015F003E00BEC15F002E1060E01D0020ED7
:101D500087EC15F0020E0101A9275DD7F50EDBA077
:101D600014D07AEC15F0DF6ADFCF00F0F90EDB500B
:101D7000E76E0018E8AE02D0E73402D0E750005C0E
:101D800004E226EC15F0DF2AEFD70101A96BCFECB6
:101D900014F0E8AE02D0E73402D0E750A95D01E3C9
:101DA0008CD053EC14F0006E040EE76E0018E8AE11
:101DB00002D0E73402D0E750005C22E353EC14F089
:101DC00007081EE053EC14F008084EE1FD0EDB504E
:101DD000130802E0000E01D0010E026EFD0EDB5072
:101DE0000A0802E0000E01D0010E016EFD0EDB506C
:101DF0000D0802E0000E01D0010E0110021034E0C7
:101E0000A929066E076A06BE0768C2EC15F002BE75
:101E1000036839EC15F066EC15F0FD0EDB500D0A89
:101E200006E01D0A04E03F0A02E0010A03E1180E81
:101E30001BEC15F0CDEC16F00A0E54EC16F00D0A62
:101E400010E01D0A0CE03E0A0AE0010A06E0230A3F
:101E500004E0050A02E0030A07E10E0E03D00A0EB1
:101E600001D0170E1BEC15F0CFEC17F00101A927DC
:101E70008ED70101A96BCFEC14F0E8AE02D0E734A5
:101E800002D0E750A95D19E2A929066E076A06BECD
:101E90000768C2EC15F002BE036839EC15F066EC79
:101EA00015F0CDEC16F0B6EC16F00E0E1BEC15F09E
:101EB000CFEC17F00101A927DED7F50EDBA203D086
:101EC00015EC16F001D0020E006E030EE15C02E28A
:101ED000E16AE552D3EF13F05BEC14F0090EE12652
:101EE000DE6ADD6A040EDB6AF50EDBA002D0C9EC07
:101EF00016F0FE0EDB5001E1A6D1020A01E12ED15F
:101F00000A0A01E110D10B0A01E10DD1060A4BE0EA
:101F1000020A01E0F5D180EC15F002E1000E01D0DB
:101F2000010E04C0E7FFE75204E0E8427F0BE7063A
:101F3000FCE135EC16F008E1E2EC15F0E5EC14F00C
:101F4000FDE1005014EC14F08BDB14EC14F080EC89
:101F500015F002E1000E01D0010E04C0E7FFE752C8
:101F600004E0E8427F0BE706FCE1A10914EC14F061
:101F7000040EDB6A46DBE8AE02D0E73402D0E7505D
:101F8000005C0EE2E66AD1EC1DF0E552E66ED9EC9B
:101F900013F000BE01681DEC16F0040EDB2AEAD730
:101FA0009CEC1DF0BFD104DB000EEE5C000EEE5881
:101FB000F80EEE58000EEE5851E3F50EDBA01BD0E4
:101FC00065EC17F067EC16F0006ADEEC13F0046ABB
:101FD000056A0668076AECDAA6EC14F00C0E66ECEB
:101FE00014F0FDE1C1EC17F0E66A5DEC15F0800E2F
:101FF000E66EE5EC16F0040EDB6A03DBE8AE02D019
:10200000E73402D0E750005C01E38CD1C0EC14F05F
:10201000BA0E64EC16F0200E9CEC17F0D7EC1CF016
:1020200090EC15F0C6DB00BE0168DFEC15F0DBCFED
:1020300002F0060EDBCF03F0000E0216FF0E0316B1
:1020400024EC16F000BE0168ABDA02C0EFFF13EC1F
:1020500015F067EC16F0020ECADACFD765EC17F070
:1020600067EC16F0006AABEC15F0ECEC14F066ECE3
:1020700014F0FDE1C1EC17F0060E006EABEC15F0AC
:1020800097EC14F002E04BDBFEE17DEC15F0800EE6
:10209000E66E5DEC15F076EC17F082EC14F0BA0EFB
:1020A00064EC16F076EC17F0C0EC14F0BA0E64ECA9
:1020B00016F0D4EC14F070DB060EA7EC15F030E24D
:1020C0006BDB026A036AEEEC16F0D7EC1CF090ECC6
:1020D00015F09CEC15F002BE036891DBDFEC15F007
:1020E000DBCF04F0060EDBCF05F0000E0416FF0E6A
:1020F000051605C004F0056A9CEC15F002BE0368E5
:102100007EDB010E0026000E01224ADA04C0EFFF3A
:1021100013EC15F0020EDB2A030ECDE3DB2ACBD73E
:1021200067EC16F0FFD040EC17F06BDAE8AE02D0A7
:10213000E73402D0E750005C01E3F4D0090E24DB61
:10214000E66E37DB00BE01681DEC16F0FE0EDB50BC
:10215000080801E19298040EDB2AE7D7FD0EDB5058
:10216000390804E1070EDB6A800E03D0070EDB6A34
:10217000200EF36E080EF3CFDBFF070EDBCF00F06F
:10218000080EDBCF01F007EC17F00050EE5C0150B9
:10219000EE580250EE580350EE5831E37AEC15F049
:1021A000F50EDBA016D0D4EC14F0F6DA9DDB070EAA
:1021B000DB50045C026E080EDB500558036E0250C3
:1021C000005C0350015805E2FBEC16F0EEE3DB2A5D
:1021D000ECD7040EDB6A15DAE8AE02D0E73402D0A1
:1021E000E750005C01E39ED00EEC16F000BE0168E3
:1021F000DAEC15F000BE0168C8EC17F0ECD7F50E6C
:10220000DBA00BD012EC17F0CFDBC6DAE4DA05E284
:10221000FBEC16F0FAE3DB2AF8D7040EDB6AF1D9FF
:10222000E8AE02D0E73402D0E750005C01E37AD098
:102230000EEC16F000BE0168DAEC15F000BE016885
:10224000C8EC17F0ECD7FD0EDB500F0A0EE01E0AAB
:102250000CE03C0A07E0230A05E0220A09E1DE68F7
:10226000010E05D0DE68030E02D0DE680F0EDD6EB3
:10227000BADB9ED9EE50001821E1EE5001181EE1A4
:10228000EE5002181BE1EE50031818E117E112ECB2
:1022900017F090EC15F0050E060EDBCF01F001C033
:1022A00000F0016A010EE76E26DBE750E926000E1A
:1022B000EA2200C0EFFF1FDB84DB34D0F50EDBA089
:1022C0000AD0C4DB71DB68DA86DA05E2FBEC16F0D3
:1022D000FAE3DB2AF8D7040EDB6A93D9E8AE02D022
:1022E000E73402D0E750005C1DE20EEC16F000BEB1
:1022F0000168DAEC15F000BE0168C8EC17F0EDD704
:10230000040EDB6A7ED9E8AE02D0E73402D0E75093
:10231000005C08E24EDA00BE016842D9EF6A040EA2
:10232000DB2AF0D7F50EDBA202D0E66A17D9006EE1
:10233000090EE15C02E2E16AE55235D258EC16F092
:10234000040EDB6AF50EDBA002D0C9EC16F0FE0E1F
:10235000DB50020A01E1A6D0010A01E17CD0060AA5
:1023600001E0CED065EC17F067EC16F0F00EE66EEB
:10237000070EABEC17F0060E006E016A2F0E026E10
:10238000036A04680F0E056EF0DBE0DA040E1F0B23
:1023900002E0C5D9FEE1B1DB040EDB6A32D9E8AE5A
:1023A00002D0E73402D0E750005C01E3BBD0800EDE
:1023B000E66EE5EC16F0DE6ADD6A50DA09E2A2DAD2
:1023C000BA0E64EC16F0DF2A010EF7E3DB2AF5D72C
:1023D000DE6ADD6A43DA3AE206DBEEEC16F0ADDAED
:1023E000ABDB02BE036817DA3BEC16F0D9D8020E5D
:1023F000DBCFEFFFDBCF06F0030EDBCF07F0000EE5
:102400000616FF0E071607C006F0076A95DB02BE28
:102410000368DECF04F0DDCF05F0010ED89004365E
:102420000536E806FBE1010E0426000E05220250E7
:102430000424006E03500520016EB2D806C0EFFFE1
:10244000F2DADF2A010EC6E3DB2AC4D767EC16F006
:10245000080ECDD8A3D7DEEC16F0040EDB6AD1D877
:10246000E8AE02D0E73402D0E750005C5BE248EC13
:1024700017F004BE0568A9EC16F048EC17F004BE8E
:10248000056879EC16F0A60EE66E800ED8DAA80E76
:10249000D4EC16F0E66E8DD900BE0168CEDB040EDA
:1024A000DB2ADDD7F50EDB50010B14E081D831DAE1
:1024B00011E2050E1ED9F350E66E1DDAB0DADE6ABF
:1024C000DD6AFFDA88D906E2C1DADF2A010EF9E314
:1024D000DB2AF7D7040EDB6A94D8E8AE02D0E734E3
:1024E00002D0E750005C1EE2050E03D9F350E66E01
:1024F00060D900BE0168A1DBA9DA040EDB2AECD7A3
:10250000040EDB6A7ED8E8AE02D0E73402D0E75092
:10251000005C08E24ED900BE016842D8EF6A040EA2
:10252000DB2AF0D7F50EDBA202D0E66A17D8000E40
:10253000006E050EE15C02E2E16AE55234D1E66A22
:102540008BD36FDBFFEF16F0E7DAE552E5521200AE
:10255000E66E19EC1BF0E552E5521200FE0EDBCFE1
:10256000E6FFFD0EDBCFE6FFE7EC17F0E552E552A4
:10257000E552120035DB70D3FE0EDBCFE6FFB3EC85
:102580001AF0006E050EE15E00501200060EE66EB7
:10259000E1EC1BF0FFEF16F06CDAEA6EE8EF15F0F5
:1025A000F70EDB5000240BEC17F00120EA6E12004E
:1025B000D950F90FE96EFF0EDA20EA6E1200E76ECD
:1025C000F70EDBCF06F0F80EDBCF07F0E75006265C
:1025D000000E0722040EDBCF08F0096A1200065035
:1025E0000824E96E075009204DDB9CEF15F0006EC2
:1025F000040EDBCFE7FF0050E726040EE7CFDBFF3A
:102600001200DBCF00F0F60EDB50E76E0018120070
:102610000450001205500112065002120750031216
:1026200012004FDAFF0E0016000E0116080E00C051
:10263000DBFF47DA01C000F0016AFF0E0016000E52
:102640000116090E00C0DBFFAADAE668120092C18B
:1026500096F193C197F194C198F195C199F1120047
:10266000F90EDBCF00F0FA0EDBCF01F0FB0EDBCF73
:1026700002F0FC0EDBCF03F000501200F70EDB502F
:102680000624C9DB072042EF16F0D8900436053641
:1026900006360736030E236E246A256A266A04C0AE
:1026A0001EF005C01FF006C020F007C021F0FDEFAE
:1026B00026F0000EE66EE66AE66A1200F70EDB50C0
:1026C0000824A9DB0920EA6EEFCF04F0056A18EFB1
:1026D00016F0DE500A24086EDD500B20096E010E44
:1026E0000826000E0922F70EDB50082494DBB9EF10
:1026F00015F0E66E060EE66EE7EC1BF0E552E552CD
:102700001200F70EDB500E2486DB0F20EA6EEFCFAF
:102710000AF00B6A0C6A0D6A0C0E1F0B1200D8909F
:102720000436053606360736E8061200EA6EEF5024
:1027300000010610006E07C001F0E66E07C0E6FF5C
:102740001200EED9050E060EDBCF03F024EF16F0D3
:10275000EE500016EE500116EE500216EE50031623
:102760001200040EDBCF00F0050EDBCF01F01200EB
:10277000610EE66EE70EE66E120011DA070EE66EE7
:10278000200EE66EF9EF15F0E66E040EE66E5FECD5
:102790001CF0E552E5521200020EDBCF00F0030EF2
:1027A000DBCF01F01200E16E0050E552E7CFD9FF18
:1027B0001200040EDBCF00F0016A1200016A200E45
:1027C000026E036A12007DD9060EA7EF15F0E66EC1
:1027D0003B0EE66E1200F90EDBCF02F0FA0EDBCFF5
:1027E00003F00250005C035001581200900EE66E98
:1027F000010EE66E1200E66A010EE66E1200020E8F
:10280000206E216ADBCF25F0030EDBCF26F021EC12
:1028100027F03BEF16F0020E206E216ADECF25F086
:10282000DDCF26F021EF27F0E66EA2EC1DF0E55299
:102830001200DFD907EC07F04CEF16F00322D0D9D5
:10284000FE0EDBCFE6FFB3EF1AF00850EE24046E65
:102850000950EE20056E0A50EE20120032D9040E07
:10286000A7EF15F0D8900A360B360C360D36E80671
:102870001200040EDB6A050EDB6A1200EECFE6FFE3
:10288000EECFE6FF1200DBCF00F0F60EDB50FE0FBE
:10289000E76E00181200000EE66EE66A5BEC1BF0B5
:1028A000E552E5521200F90EDBCFE6FFA9417F0B9E
:1028B000E552E7241200D9CFE6FFE1CFD9FF12009D
:1028C000016A026A036A0E0E01121200D8900732E2
:1028D000063205320432E8061200010E00C0DBFFAA
:1028E000020E05C0DBFF1200F90EDBCF04F0FA0E7A
:1028F000DBCF05F01200F70EDBCFE9FFF80EDBCFE0
:10290000EAFF1200B60E60EF16F0E66EEB0EE66E12
:102910001200D880000EEE54000EEE54000EEE545D
:10292000000EEE541200E6683F0EE66E12001EC066
:1029300004F01FC005F018EF16F0D7EC1CF0020EE3
:10294000F3CFDBFF030EF4CFDBFF1200EE500416D3
:10295000EE500516EE500616EE5007161200DBCFAD
:1029600008F0096A0A6A0B6A1200EE500424006E2D
:10297000EE5005201200040EDBCF0AF00B6A1200A5
:10298000B60EE66E0B0EE66E1200B60EE66EDB0EAF
:10299000E66E1200020EDE26000EDD221200F60E9A
:1029A000DB50E76EA9191200020EDB6A030EDB6A28
:1029B0001200040EDB2A050E120001100210031093
:1029C0001200050EDBCFEFFF1200D8900332023267
:1029D00001320032E806120020C006F0046A056ADF
:1029E000076A0C0E12006DD8026A036A1200070E05
:1029F000A7EF15F0F3CFDEFFF4CFDDFF1200E66A9C
:102A0000020EE66E1200FC0EDB50AA081200FD0E4C
:102A1000DB5036081200FD0EDB5037081200E5527D
:102A2000E750EF6E1200E66AE66AE66A9FEF12F080
:102A3000E66E9FEF12F0E66E060EA8EF12F0E66E5D
:102A4000E66AA1EF12F0A7DAB8EF17F0060EE66E0D
:102A5000A8EF12F0E66EE66A3C0EE66EE66ABCEFA0
:102A600012F0A6DDEECFE6FF09DFEFCFE6FFBCEF09
:102A700012F0F70EDB500224CED9032012000DDA3B
:102A800075D987D9B6EF16F00A5000120B50011213
:102A90000C5002120D500312BAEF12F00F0EE66E38
:102AA00050DDE66A030EA8EF12F0200E006E016AF8
:102AB000AED94EDE0050DDEF14F0030E26DF9FEF9F
:102AC00012F0DECF00F0DDCF01F01200EA6EBED9C9
:102AD00004DF010EDBCFE6FF020EDBCFE6FFE66E82
:102AE000C6EF12F0020EE66EC6EF12F0CDD9020E5E
:102AF000F7EF12F0DEDDC6EF12F08ADDBAEF12F06A
:102B000095EC1DF00D0E046EABDDDDEF14F01CDD59
:102B10008A9285D94BEF14F08CD9E552E552120018
:102B2000050EF3CFDBFF060EF4CFDBFF120001C072
:102B3000E6FFE66AA1EF12F0040EDBCF02F0036AB3
:102B40001200E66E92D96ED955DF4DEF17F0005C9A
:102B5000000E0158120032DEC7DEFB0EDBCF06F09E
:102B6000FC0EDBCF07F045EF13F0066A076AD8EFDB
:102B700012F0092064D948EF17F0E66E060EE66EF3
:102B800019EF1BF07BDDA9C102F0036A120010DD12
:102B90005CDE066E0B50EE20076E45EF13F0030E61
:102BA000E66E020EE66ED950080FE66E000EDA20D1
:102BB000E66E1200F5DC02C0EFFFD9EF13F0F0DC97
:102BC000E1EF14F0006A016822D9C2DD080E12009C
:102BD0003DD9E66E05C0E6FF1200010EDFEF12F0F0
:102BE00000C0E6FF01C0E6FF02C0E6FF03C0E6FF4B
:102BF0001200E66AE66AFD0EDBCFE6FFFE0EDBCFD3
:102C0000E6FF120090DEE66AC6EF12F0AFD803EFDF
:102C100015F0006ED3DD020EDB50120003D9A1EFD8
:102C200013F0040EE66EDBEF1BF037D9010E120035
:102C3000066A076A040E1F0B1200B2DC0FEF15F0D4
:102C40009DD8020EC4EF13F003C002F0036A040E15
:102C5000DB28006E016A12004DEC1DF0D0D0E66A50
:102C6000E66AE66AE66A4DEF1DF0A009DDDDFD0EBD
:102C7000DB503308120002501E24006E03501F2048
:102C8000016E1200EA6EEFCF04F004C005F0046A92
:102C9000120003D9030E1200006E0A0EE15E00500E
:102CA00012005FDDF7EF14F04FDCFD0EDB50120079
:102CB00002DE050EE1261200ABDC020EDB50120034
:102CC000E66E1B0EE66E1200B3DE65EF17F093DDC5
:102CD000040EAEDE13EF15F07ADD880E18EF15F056
:102CE000A60EE66E8E0EC4EF17F0E66E200E18EFFD
:102CF00015F03BDFEE500426EE500522EE50062282
:102D0000EE50072205C000F00001036AD9DD05C0BE
:102D1000E6FF0DDFAA0E92EF17F008D9020E57DD7D
:102D2000800E86DE220E9CEF17F0E66E0E0E87DE1A
:102D3000A70E92EF17F05ADD880E18EF15F0DE504F
:102D40000424026EDD500520036E93DEEFDC72EF8B
:102D500015F00BDF0ADEEE500620EE500720B0DD46
:102D600000C0E6FFE4DEA90E92EF17F00A0EA4EF12
:102D700012F0010E60DE070E1BEF15F09ADCA1EFDA
:102D800012F0A60EE66E840E1FEF15F008D9F7EFCD
:102D900012F0010EE66EAEEF12F0080E1BEF15F00A
:102DA000FAD8040E2AEF15F0E66E500E48DEF50E46
:102DB000B9D820EF16F0BAD84A0E1200A60EE66E69
:102DC0009E0EE2D89C0E1FEF15F077DE13EF15F084
:102DD0003DDED9EF14F0090E1BEF15F0008A3C0E12
:102DE0000112880E0212BAEC12F013EF15F056DE43
:102DF0002EDC8A821200D3D8DB2A030E1200E552A1
:102E0000E552E552E55212008EDD72EF15F0026ACE
:102E1000036AD8EF12F0E96EF80EDB501200010ED3
:102E2000A4EF12F0040E79EF13F0E66EE66ACBEF32
:102E300017F0E66EE66AE66AE66AF7EF25F0EA6EF4
:102E4000EFCF06F006C007F0066A1200EF5000014F
:102E50000410006E05C001F01200E66A200E18EFA3
:102E600015F0A4EC12F03FEF15F0E66AE66ABCEF4D
:102E700012F0CCEC12F076EF15F0E1DD07EF15F073
:102E8000F0DD040EDB6A12000D0EE66EA1EF12F00B
:102E9000040EDBCF04F0056A1200E66AAEEF12F012
:102EA000580EE66E050E21DF380E16DFA90EE66E0F
:102EB0000A0E1BDF390E10DF5BDCA80E64EF16F084
:102EC000240EB6DD0A0E6CEF16F0ADDD13EF15F033
:102ED00057DDBB0EF9DE59DDBB0EF6DEB60E15DD95
:102EE000BB0EF2DE0FDDBB0E64EF16F0960EE8DED1
:102EF000BA0EEADE4ADDBA0EE7DED60EE66EDB0E6D
:102F0000E66EBA0E64EF16F0E66EE66A9CDDB6EF8A
:102F100016F071DC040E8CDD67EF16F029DCA90ECB
:102F200064EF16F0E66E6E0E1FEF15F07CDD67DDC8
:102F3000040E7EDD13EF15F0E66E3C0EE66E880E95
:102F400077DD13EF15F0CCDE9C0E1FEF15F0180E99
:102F500072DDB6EF16F0C9DE9BEF16F00ADF1DDF5B
:102F6000080EA4EF12F0550EE0DEAA0E95EF16F053
:102F700005DF27EC13F0BEEF16F068DD2CDF06EF5F
:102F800016F0BBDD9BEF16F05ADDA60EE66E1200C2
:102F900016DEC6EF16F00C0EE66EA1EF12F056DD4F
:042FA000020E12000B
:0C2FA40041EC1EF0E652DF6ADFCF00F0C7
:102FB0000A0EE76E0018E8AE02D0E73402D0E75000
:102FC000005C02E2DF2AF2D7E55221EF1EF0D9CFF2
:102FD000E6FFE1CFD9FF020EE126FC0EDB0401E0A3
:102FE00059D293909392FD0EDB50080805E0FD0E38
:102FF000DB50040801E04DD189968A9492C196F184
:1030000093C197F194C198F195C199F1960EE96E2B
:10301000010EEA6EEE500101925D006EEE5001016C
:103020009359016EEE5001019459026EEE50010168
:103030009559036ED8900350000A08E60A0E005C0A
:10304000000E0158000E0258000E035802E2DED7AF
:10305000DDD789989298929A899A92C196F193C1F4
:1030600097F194C198F195C199F18986DE6ADD6A7C
:10307000DECF00F0DDCF01F02C0E005C010E015818
:1030800006E200D0DF2A010E01E3DB2AF1D7FD0EB4
:10309000DB50080858E189968A8A92C196F193C15B
:1030A00097F194C198F195C199F1960EE96E010ED0
:1030B000EA6EEE500101925D006EEE5001019359EF
:1030C000016EEE5001019459026EEE5001019559C6
:1030D000036ED8900350000A08E6040E005C000E50
:1030E0000158000E0258000E035802E2DED7DDD769
:1030F00092C196F193C197F194C198F195C199F15C
:10310000960EE96E010EEA6EEE500101925D006EC0
:10311000EE5001019359016EEE5001019459026E77
:10312000EE5001019559036ED8900350000A08E64D
:10313000060E005C000E0158000E0258000E0358E7
:1031400002E2DED7DDD7B20EE66EC20EE66EB3DA6D
:10315000E552E552120EE66E0A0EE66EACDAE55264
:10316000E5528A9A898692C196F193C197F194C1EA
:1031700098F195C199F1960EE96E010EEA6EEE5046
:103180000101925D006EEE5001019359016EEE5007
:1031900001019459026EEE5001019559036ED890C9
:1031A0000350000A08E6010E005C000E0158000EF4
:1031B0000258000E035802E2DED7DDD7FD0EDB50C9
:1031C000040866E192C196F193C197F194C198F118
:1031D00095C199F1960EE96E010EEA6EEE5001016D
:1031E000925D006EEE5001019359016EEE500101A7
:1031F0009459026EEE5001019559036ED890035018
:10320000000A08E6010E005C000E0158000E02588C
:10321000000E035802E2DED7DDD7E66A050EE66E41
:1032200008DAE552E552E66AE66AE66AE66A4DECD5
:103230001DF0E552E552E552E55292C196F193C177
:1032400097F194C198F195C199F1960EE96E010E2E
:10325000EA6EEE500101925D006EEE50010193594D
:10326000016EEE5001019459026EEE500101955924
:10327000036ED8900350000A08E6010E005C000EB1
:103280000158000E0258000E035802E2DED7DDD7C7
:1032900060D1FE0EDB50320804E0FE0EDB50330836
:1032A00003E18A808A8202D08A908A92000000001C
:1032B000FE0EDB50040A12E0070A10E0060A0EE0D8
:1032C000030A0CE00B0A0AE0240A07E01B0A03E0E9
:1032D000010A01E005D08A9405D004D08A9602D074
:1032E0008A9400D092C196F193C197F194C198F15C
:1032F00095C199F1960EE96E010EEA6EEE5001014C
:10330000925D006EEE5001019359016EEE50010185
:103310009459026EEE5001019559036ED8900350F6
:10332000000A08E6640E005C000E0158000E025808
:10333000000E035802E2DED7DDD7FE0EDB50290A6D
:1033400012E02D0A0EE0070A0CE0060A0AE0030A62
:1033500008E00B0A06E03F0A03E0010A01E06CD036
:103360006DD08A946BD08A94000000008A9692C136
:1033700096F193C197F194C198F195C199F1960E88
:10338000E96E010EEA6EEE500101925D006EEE50A4
:1033900001019359016EEE5001019459026EEE50F5
:1033A00001019559036ED8900350000A08E61A0EE1
:1033B000005C000E0158000E0258000E035802E295
:1033C000DED7DDD7E66AE66AE66AE66A66DBE552DC
:1033D000E552E552E552E66AE66AE66AE66A5DDBD0
:1033E000E552E552E552E552E66AE66AE66AE66AC1
:1033F00054DBE552E552E552E552E66AE66AE66AD2
:10340000E66A4BDBE552E552E552E5528A868A8A46
:103410008A9ADE6ADD6ADECF00F0DDCF01F0010EB0
:10342000005C000E015806E200D0DF2A010E01E325
:10343000DB2AF1D78A9602D08A9600D092C196F103
:1034400093C197F194C198F195C199F1960EE96EE7
:10345000010EEA6EEE500101925D006EEE50010128
:103460009359016EEE5001019459026EEE50010124
:103470009559036ED8900350000A08E6640E005C6C
:10348000000E0158000E0258000E035802E2DED76B
:10349000DDD75FD08A8689968A8A92C196F193C1D8
:1034A00097F194C198F195C199F1960EE96E010ECC
:1034B000EA6EEE500101925D006EEE5001019359EB
:1034C000016EEE5001019459026EEE5001019559C2
:1034D000036ED8900350000A08E6280E005C000E28
:1034E0000158000E0258000E035802E2DED7DDD765
:1034F0008A9A8A849288928A9380938292C196F162
:1035000093C197F194C198F195C199F1960EE96E26
:10351000010EEA6EEE500101925D006EEE50010167
:103520009359016EEE5001019459026EEE50010163
:103530009559036ED8900350000A08E6140E005CFB
:10354000000E0158000E0258000E035802E2DED7AA
:10355000DDD7020EE15C02E2E16AE552E16EE5527E
:10356000E7CFD9FF12008DDB040EE126FE0EDB5003
:103570002AE0020A28E0010A02E00B0A53E154DBC8
:1035800006C000F00001026A036A5FDB06C0E6FFC6
:103590007DDBF80E71DB48DB05C000F00001036A3B
:1035A00054DB05C0E6FF72DBF70E66DBFA0EDBCFFD
:1035B00000F0FB0EFC0EFD0E48DB00C0E6FF66DBF4
:1035C000F60E5ADB2FD0DE6ADE6ADE6ADD6ADD5275
:1035D000DD52FA0EDBCF00F0FB0EDBCF01F0FC0E6C
:1035E000DBCF02F0FD0EDBCF03F0D9CFE9FFDACF5E
:1035F000EAFF0050EE5C0150EE580250EE580350C6
:10360000EE5810E2060EE66EE66E13D8E552E5526D
:10361000D9CFE9FFDACFEAFFEE2A000EEE22EE2242
:10362000EE22D7D7040EE15C02E2E16AE552E16ED8
:1036300008D3D9CFE6FFE1CFD9FFE652939093921A
:103640008A928A90DF6ADFCF00F0FE0EDB50E76ED1
:103650000018E8AE02D0E73402D0E750005C16E272
:10366000FD0EDBA002D08A8001D08A908A82FD0EF6
:10367000DBCFF3FFF390F342FD0EF3CFDBFF00004F
:1036800000008A9200000000DF2ADDD7DF6ADFCF6A
:1036900000F00A0EE76E0018E8AE02D0E73402D060
:1036A000E750005C03E200D0DF2AF1D7E552E55293
:1036B000E7CFD9FF1200D9CFE6FFE1CFD9FFE6521D
:1036C000DF6ADFCF00F0100EE76E0018E8AE02D020
:1036D000E73402D0E750005C1EE2FD0EDB50010B28
:1036E00002E08A8001D08A908A82D950FD0FE96E6B
:1036F000FF0EDA20EA6E010E0F0B06E0EC52D890B6
:10370000ED32EF32E806FAE1000000008A92000094
:103710000000DF2AD6D700000000E552E552E7CFCF
:10372000D9FF1200D9CFE6FFE1CFD9FFE6528A9048
:10373000000000008A82000000008A920000000061
:10374000DF6ADFCF00F00E0EE76E0018E8AE02D0A1
:10375000E73402D0E750005C1EE2FD0EDB50010BA7
:1037600002E08A8001D08A908A82D950FD0FE96EEA
:10377000FF0EDA20EA6E010E0F0B06E0EC52D89035
:10378000ED32EF32E806FAE1000000008A92000014
:103790000000DF2AD6D78A90000000008A8200004D
:1037A00000008A920000000000000000E552E5528F
:1037B000E7CFD9FF120027DA7EDFE552E5528A9083
:1037C00040D221DAAFDFE552E5528A903AD2D9CF22
:1037D000E6FFE1CFD9FF030EE126FD0EDBCFE6FFCA
:1037E000FE0EDBCFE6FF25DFE552E5529380DF6A70
:1037F000DFCF00F00A0EE76E0018E8AE02D0E73423
:1038000002D0E750005C03E200D0DF2AF1D7010EBE
:10381000DB6A020EDB6A8A82000000008A920000E6
:103820000000DF6ADFCF00F00E0EE76E0018E8AE92
:1038300002D0E73402D0E750005C22E28A82000026
:1038400000008150010B026E036ADF5002C000F0DD
:1038500003C001F005E0D89000360136E804FBE132
:10386000D950010FE96EDACFEAFF0050EE12015095
:10387000ED12000000008A9200000000DF2AD2D77B
:103880008A82000000008A920000000093908A90D3
:1038900000000000010EDBCF00F0020EDBCF01F0D4
:1038A00000C0F3FF01C0F4FF00D0030EE15C02E2B0
:1038B000E16AE552E16EE552E7CFD9FF1200D9CFB8
:1038C000E6FFE1CFD9FF020EE126FD0EDBCFE6FFDA
:1038D000FE0EDBCFE6FFADDEE552E552DF6ADFCF5D
:1038E00000F0080EE76E0018E8AE02D0E73402D010
:1038F000E750005C0BE28A90000000008A82000022
:1039000000008A9200000000DF2AE9D793809288A5
:10391000DF6ADFCF00F00A0EE76E0018E8AE02D0D3
:10392000E73402D0E750005C03E200D0DF2AF1D791
:10393000010EDB6ADF6ADFCF00F0080EE76E0018C9
:10394000E8AE02D0E73402D0E750005C1DE28A8284
:10395000000000008150010BDF5206E0DFCFF3FFD3
:10396000E846FE0BF306FCE1006E010EDBCFE7FF3D
:103970000050E712010EE7CFDBFF000000008A9243
:1039800000000000DF2AD7D793908A900000000043
:10399000010EDB5000D0006E020EE15C02E2E16A33
:1039A000E552E16E0050E552E7CFD9FF1200D9CFC2
:1039B000E6FFE1CFD9FF030EE1268A908A808A8252
:1039C0008A928A90DF6ADFCF00F0030EE76E00185C
:1039D000E8AE02D0E73402D0E750005C04E28A820D
:1039E0008A92DF2AF0D7010EDB6A020EDB6ADF6AF9
:1039F000DFCF00F0080EE76E0018E8AE02D0E73423
:103A000002D0E750005C04E28A828A92DF2AF0D773
:103A1000938000000000DF6ADFCF00F0100EE76E39
:103A20000018E8AE02D0E73402D0E750005C1EE296
:103A30008A82000000008150010B026E036ADF5091
:103A400002C000F003C001F005E0D8900036013656
:103A5000E804FBE1D950010FE96EDACFEAFF00502C
:103A6000EE120150ED128A92DF2AD6D793908A90F7
:103A7000010EDBCF00F0020EDBCF01F000C0F3FF40
:103A800001C0F4FF00D0030EE15C02E2E16AE552FE
:103A9000E16EE552E7CFD9FF1200D9CFE6FFE1CFC3
:103AA000D9FFE6528A90DF6A040EDF5C04E28A8264
:103AB0008A92DF2AF9D7DF6A180EDF5C31E2010E45
:103AC000006E016A026A036AD950FB0FE96EFF0EAD
:103AD000DA20EA6EEE500016EE500116EE50021695
:103AE000EE500316005001100210031002E08A800D
:103AF00001D08A90D950FB0FE96EFF0EDA20EA6EF2
:103B0000D890030EEB32020EEB32010EEB32EF32A5
:103B1000000000008A82000000008A92DF2ACCD7D1
:103B2000E552E552E7CFD9FF12008A808A82D2ECB3
:103B300017F08A902BEF1EF08A82D2EC17F08A8061
:103B4000D2EF17F095D8FE0EDB50E76E010EE7CFEF
:103B5000DBFFDF6A080EDF5C0FE2010EDB50800B3B
:103B6000800802E18A8001D08A907AD8D2EC17F0DE
:103B70008A8271D8DF2AEED793808A82D2EC17F03E
:103B80008150010BDF6E8A92D2EC17F09390DF50D8
:103B9000006E020EE15C02E2E16AE552E16E005065
:103BA00050D066D89380010EDB6ADF6A080EDF5CB6
:103BB0000BE28A82D2EC17F053D881B0DB808A9274
:103BC000D2EC17F0DF2AF2D79390D2EC17F0FE0E6A
:103BD000DB0402E18A8001D08A908A823CD8010EFF
:103BE000DB50006E020EE15C02E2E16AE552E16E3A
:103BF000005027D0E66A040EE66EDDDDE552E552A0
:103C0000E552E55212003DD8FD0EDBCFE6FFFE0E79
:103C1000DBCFE6FF0EDDE552E552FB0EDBCFE6FF24
:103C2000FC0EDBCFE6FF1200FA0EDBCF04F0FB0E3A
:103C3000DBCF05F0FC0EDBCF06F0FD0EDBCF07F08F
:103C40001200E552E7CFD9FF1200016A026A036A47
:103C50000E0E01121200D2EC17F08A92D2EF17F07A
:103C6000010EDBCFF3FFF39EF346F3CFDBFF120031
:103C700008D8020EE1261200E66E6E0EE66EFAEF2E
:103C80001DF0D9CFE6FFE1CFD9FF120001C0E6FF5A
:043C9000FAEF1DF03A
:0C3C9400090EC26EA60EC06E0F0EC16EAF
:103CA000928412008FDBE652DF6A0C0EC16EC28274
:103CB000C2B2FED780DBC3CFEFFF010EE76E7BDB26
:103CC000E750E926000EEA22C4CFEFFFC168E552B3
:103CD0007ED3070E8B12F80E9416938CDBDF815087
:103CE000400B01E0010E0101A66F92909292939613
:103CF000939A9390939293949296899689889288B6
:103D0000898A928A8A868A9A8A908A92F18E02D8C1
:103D100096EF1EF0C00EF2129D809E909F80D10EF5
:103D2000CF6E1F0ECE6E010ECD6E1200E00EF2129F
:103D3000F294440ED66EC30ED56E120043DBFE0E17
:103D4000DB50010BE81CE8B08B80E8A08B90FE0EE6
:103D5000DB50020BE8407F0BE81CE8B08B82E8A048
:103D60008B92FE0EDB50040BE840E8403F0BE81C52
:103D7000E8B08B84E8A08B942AD324DB080EE126DC
:103D8000060E0101A05D03E36D50020B02E08BDA29
:103D9000F9D1400EE66E000EE66E010EE66E85EC81
:103DA00025F0E552E552E552E66ED950020FE96E74
:103DB000DACFEAFFE552E750EE6EED6A020EDBCF96
:103DC00000F0030EDBCF01F0013401E3CBD1005052
:103DD0000008000E015401E3C5D101010051C00AE1
:103DE00001E165D1700A01E118D1100A01E1C1D0E9
:103DF000300A01E1A7D0100A01E198D0F00A01E1F0
:103E000087D0100A75E0300A66E0100A4CE0700AAC
:103E10003DE0100A0CE0300A01E0A4D1050EF4DA0E
:103E200001C1E6FFFEDA22EC04F0E55284D0060E72
:103E3000EBDA01019A51020A14E0010A0BE00B0AC5
:103E400009E00C0A02E0010A1EE1AFDAE66AE66A5E
:103E5000E66814D0AADAFE0EE66EE6683F0EE66E5D
:103E60000DD0E66ADEDAE7EC17F0E552E552E552EE
:103E70009CDA060EE66E200EE66EE66AE66AD1DA97
:103E80006CEC0FF0A8DA0101020E6FD0050E6EDAAD
:103E900002E084DAFEE173DA02E079DAFEE1AEDA1A
:103EA00007EC07F041D0060E61DA02E077DAFEE1B6
:103EB00066DA02E06CDAFEE1BEDA6CEC0FF08BDA67
:103EC000E76E010EE7CFDBFFDB5003081EE10101C7
:103ED000030E406F1AD0050E49DA02E05FDAFEE108
:103EE0004EDA02E054DAFEE189DA4BEC0BF01CD03A
:103EF000060E3CDA02E052DAFEE141DA02E047DA8D
:103F0000FEE199DA9EEC11F066DA01C19CF12ED047
:103F1000050E2CDA02E042DAFEE131DA02E037DAAD
:103F2000FEE16CDA1DEC0DF056DA07D0010EE66EFC
:103F3000010EE66E2ED9E552E5520101406F0101F6
:103F4000010E13D0EC0E006E4E0E016E026A00C020
:103F5000E6FFE66E02C0E6FF69DA3FEC27F0036E8B
:103F6000050EE15E03500101120E9C6F040E4CDA47
:103F7000F9D0070E49DA01010151030A3AE0010ABA
:103F800010E0030A06E0010A01E0ECD0010EE66E43
:103F900001D0E66A050EE66E290EE66EE7EC17F034
:103FA00020D002C100F0016A026A036AE8D902E087
:103FB000EED9FEE115DA100E1F0B07E0D890083697
:103FC00009360A360B36E806F9E122DA00C0E6FFC8
:103FD00001C0E6FF02C0E6FF03C0E6FF4DEC1DF0A6
:103FE000E552E552E552E5520101010E406F010133
:103FF000B8D0D7EC1CF0020EF3CFDBFF030EF4CFEA
:10400000DBFF020EDBCF40F1030EDBCF01F001C07E
:1040100000F0016A00C041F147D00151050A40E0BB
:10402000010A29E0070A23E0010A0FE0030A01E080
:1040300092D09250200B06E18950200B03E18AB206
:1040400011D087D08AA285D086D093A003D081B02A
:1040500082D07FD09250100B07E18950100B04E101
:104060008AA077D0020E7AD08AA073D074D08AA4A6
:1040700072D0050E73D00101010E9C6F8AB603D079
:104080000101040E0BD08AAA02D0010107D089A633
:1040900003D00101030E02D00101050E406F62D072
:1040A000C5D900DEE552E5520101020E5AD0015198
:1040B000040A3AE0070A2FE0010A15E0030A4DE17D
:1040C0000251030A0BE0010A05E0030A44E193925E
:1040D0008A9206D093928A82929A03D093928A828D
:1040E000928A899A36D00251060A12E0050A0BE03C
:1040F000010A05E0030A2FE193908A9006D093907D
:104100008A80929803D093908A809288899821D04F
:10411000928893801ED00251050A04E0060A1BE132
:104120008A9417D08A8415D00251050A0FE0010A3B
:104130000BE0070A05E0020A0EE18A868A8A08D0A7
:104140008A868A9A898605D08A9601D08A868A9A32
:104150008996010E03D0030E01D0030E406F0101BA
:10416000010E9C6F01019C510DE004010CBF08D0B1
:104170009CC1E6FF5BD955EC25F0E552E552E552CE
:1041800001019C6B080EE15C02E2E16AE552E16E1E
:104190001ED118D910D9EFCF9BF101019B51320AE2
:1041A00001E17DD0010A01E17AD0190A76E0030A23
:1041B00072E00E0A6EE00C0A6CE0030A6AE01D0A67
:1041C00068E0160A64E0020A62E0030A60E0220A7C
:1041D0005CE0360A5AE0010A58E0360A56E01C0A4A
:1041E00054E0030A52E0010A50E03F0A4EE0040A9C
:1041F0004CE0010A4AE0030A48E0240A44E0010ACC
:1042000042E0070A40E0010A3EE0030A3CE0280AD7
:104210003AE0290A38E00F0A36E0010A34E0030ADE
:1042200032E0010A30E0070A2EE0010A2CE01D0A04
:104230002AE0020A28E0010A26E0070A24E0010A2F
:1042400022E0030A20E0010A1EE00F0A1CE0010A36
:104250001AE0030A18E0010A16E0340A14E0330AEF
:1042600012E0280A0EE0180A0CE0010A0AE0230A0C
:1042700008E0010A06E01E0A04E09B6B030E9A6F39
:1042800011D09A6B0ED0020E0BD0030E09D0080E7F
:1042900007D0040E05D0050E03D0060E01D0070E80
:1042A0009A6F010E94D001019D519E1104E1100EF0
:1042B0009D6F270E9E6F9D07000E9E5B6DA207D01F
:1042C0009D519E1120E18B808B828B741200010125
:1042D000A05102E1010E10D0A00508E0020EA05D81
:1042E00002E1040E09D0030EA05D02E1020E04D02B
:1042F000050EA05D03E1040E04EF22F0060EA05DA2
:1043000002E101019F6B12008150400B01E0010EA0
:104310000101A65D07E08150400B01E0010EA66F90
:1043200081AC010C000C5CD873D8040E00C0DBFF1C
:10433000050E01C0DBFF060E02C0DBFF070E03C047
:10434000DBFF05C1E6FF01C1E6FF1200E66ED950B2
:10435000040FE96EDACFEAFFEECFE6FFEECFE6FF1D
:10436000EECFE6FFEFCFE6FF11EF22F04DD802C10E
:1043700000F0016A026A036A100E1F0B120003C1EB
:1043800004F0056A066A076A080E1F0B1200D8902F
:104390000436053606360736E8061200D890003691
:1043A000013602360336E8061200030EE66E020EF0
:1043B000E66E16EF22F0FD0EDBCFE9FFFE0EDBCF3F
:1043C000EAFF1200D9CFE6FFE1CFD9FF1200E55294
:1043D000E7CFD9FF1200006E0A0EE15E0050120016
:1043E0000450001205500112065002120750031229
:1043F00004C108F0096A0A6A0B6A120094DF060E0B
:10440000E66E010EA6EF21F0E66E98DCE552120092
:1044100008500012095001120A5002120B500312E8
:1044200012009BC1E6FF9AC1E6FF1200400EE66E45
:10443000010EE66E120077DF400EE66E010EA6EF6B
:0244400021F069
:0E44420004011051600BE842E842E842E842F3
:10445000E842000901E012001151070A40E00B0A8E
:104460003EE0070A33E0010A23E00B0A1FE0020ADC
:104470001DE0030A19E0080A10E0010A0CE00F0A27
:1044800008E0030A01E0120010D90101040EA06F38
:10449000120070EF22F0A7EF22F007D90101A20E5F
:1044A0008C6F010E8D6F0CD0C2EF22F0F2EF22F074
:1044B00000D901018C6F8D6BA30E8C27010E8D230B
:1044C0000101A1930101010E906F1200F2D8EA6A76
:1044D000A30FE96E010EEA2212C4EFFF12001200D0
:1044E000800E0401105D32E11351030A1FE0010A3E
:1044F0000AE0030A29E1D9D801014E0E8C6F4C0E57
:104500008D6F120E1ED0ABD8F20EF6264C0EB9D817
:10451000020E0101F76A8C25F66E8D51F722090013
:10452000F5CF90F10A00F5CF91F10ED098D8F60EA4
:10453000F6264C0EA6D88CC1F6FF8DC1F7FF0800F9
:10454000F5500101906F916B0101A1831200ADD86C
:104550000F0EE66E710EE66E0F0E9BD8010EE66E24
:10456000A30EE66E010E95D812C4A2F104011251F9
:1045700004E10101050EA06F12000101060EA06FFB
:1045800040EF25F00401186B196B040110511F0B4B
:10459000020A0DE0030A09E0010A16E186D80101CA
:1045A000A1A112D0040118830FD07FD80DD04BD811
:1045B00001E0010E5DD88EC1E9FFEA6EEF50040BF9
:1045C00003E00401010E186F01018B050AE10101EE
:1045D000180E8C6F040E8D6F0101A1930101020E64
:1045E000906F1200040112050EE110511F0B00091B
:1045F0000AE15BD8030E0401115D03E10101A18111
:1046000002D00101A191040112511CE110511F0BB4
:10461000020818E114510F0B000914E014D801E04E
:10462000010E26D8030E0401115D04E1840E38D872
:10463000EF6E120014AF03D033D8EF6A1200880E69
:104640002FD8EF6E120035D80F0B080DF350016A0A
:10465000000F006E040E01221451800B120025D8A9
:1046600004011251F66EF76AD890F636F73612004A
:10467000040DF350010100248E6F000E01208F6F96
:104680001200F7220900F5CF8CF10A00F5CF8DF169
:104690001200E66E2BEC25F0E552E552E5521200D1
:1046A0008EC1E9FF8FC1EAFF12000101010E8B6F7D
:0A46B0001200FBDF04011451120098
:0646BA006C5002E0000E4E
:1046C00001D0010E00090BE0040100513C0BE8424F
:1046D000E8420D0802E178EF23F087EF23F06C50F9
:1046E00002E0000E01D0010E040901E01FD8120003
:1046F000D9CFE6FFE1CFD9FFE65201018A6B8B6B80
:10470000906B916B21EC22F099D8E552F6D0020E15
:1047100001018A5D09E168D8040100BD02D0C80E1C
:1047200001D0880E006F120057EF24F0040E010133
:10473000A05D09E112C46EFF6E50000802E2050E92
:1047400001D0030EA06F01018A0509E10AD8040116
:1047500004BD02D0C80E01D0880E046F120057EFBE
:1047600024F0C4D80101080E905D000E915905E2B5
:1047700090C1DEFF91C1DDFF03D0080EDE6EDD6A61
:10478000040104930491010EDB500413DFCF05F400
:10479000000EDB500101905F010EDB50915B180EA3
:1047A0008E6F040E8F6F0101A1A30CD098D815E075
:1047B0008CC1F6FF8DC1F7FF0800F55080D8F6E2F6
:1047C000DB06F4D78CD809E08CC1E9FF8DC1EAFF84
:1047D000EF5075D8F7E2DB06F5D7020EE15C02E296
:1047E000E16AE552E16E89D081D8030E040100151B
:1047F000E76E010EE7CFDBFF01C4DFFFDE500101F2
:104800009027DD509123180E8C6F040E8D6F67D8A2
:104810000EE08CC1E9FF8DC1EAFFEF508EC1E9FFC8
:104820008FC1EAFFEF6E6DD8F2E2DB06F0D7020E21
:10483000E15C02E2E16AE552E16E5FD001018B5179
:1048400005E145D8840E006F04011DD0040110AFAE
:104850001CD0010190510401165D01019151040128
:10486000175904E216C490F117C491F17ADF0101DF
:10487000010E8A6F2CD8800E006F0401180E066F8F
:10488000040E076FC80E046F10D00101020E8A6F6C
:104890000401056BC80E046F0401080E016F180EA9
:1048A000026F040E036FC80E006F6D9812000101B5
:1048B0008A6B0DD8880E006F0401046B12008EC144
:1048C000E9FF8FC1EAFFEF6E010181EF24F00401DF
:1048D000080E016F100E026F040E036F1200D9CF85
:1048E000E9FFDACFEAFFEE50ED101200D9CFE6FF74
:1048F000E1CFD9FF020EE1261200E552E7CFD9FF42
:1049000012008E2B000E8F238C2B8D23DF06010EC1
:02491000120093
:0E4912006DA60CD80101A00508E16DBA06D013
:10492000686A696A69806988020EA06F12006D6A00
:10493000696A6D860101010EA06F12006D6A696AD5
:104940000101A06B12009EEF24F00101A05101E1D2
:1049500012006850040B04E06950040B01E038D8E1
:104960006DB212006850010B04E06950010B01E0C8
:1049700050D86850100B04E06950100B01E024D8A7
:104980006850400B04E06950400B01E037D8685094
:10499000200B04E06950200B01E032D86850020B74
:1049A00004E06950020B01E032D8030E0101A05D62
:1049B00001E212006850080B06E06950080B03E0A2
:1049C0005DEC23F068961200698468986D8212008D
:1049D0006D926994689412000101A1A10ED0F8DFD4
:1049E0006D840101080EA46F070EA56FA407000EC9
:1049F000A55BA451A511FAE16D941200689C120008
:104A000070A003D057EC24F07090689A120068925E
:104A100012006A6A686A9F0E6B6E7B0E696E6E6A20
:104A20000F0EE66E710EE66E0F0EE66E14D8E552AE
:104A3000E552E552160E706E68A602D06896FCD755
:104A40006D9857EC24F00101A1910101A26B0101C5
:104A5000030EA06F1200D9CFE6FFE1CFD9FFFD0E04
:104A6000DBCFE9FFFE0EDBCFEAFFFC0EDB5004E0FC
:104A7000EE6AFC0EDB06F9D7E552E7CFD9FF12004C
:104A80000101A86B1E0E716E0401400E096F200E0D
:104A90000A6F040E0B6F880E086F0401600E0E6F14
:104AA000040E0F6F400E0C6F1200D9CFE6FFE1CF5E
:104AB000D9FFE652FC0EDB50400805E2400EF36ED3
:104AC000FC0EF3CFDBFFDF6AFC0EDB50DF5C0FE296
:104AD000DF5050D8EF50E66EDF50EA6A600FE96EA3
:104AE000040EEA22E552E750EF6EDF2AEDD7FC0E06
:104AF000DBCF0DF4400E04010C170C7D880E0C1357
:104B0000E552E552E7CFD9FF1200D9CFE6FFE1CF5A
:104B1000D9FF0101A86B040108BF26D0FC0EDBCF32
:104B200000F00951D880005403E2FC0E09C4DBFFF9
:104B30000101A86BFC0EDB50A85D0FE2A851EA6AE8
:104B4000200FE96E040EEA22EF50E66EA85112D84B
:104B5000E552E750EF6EA82BEDD70401400E096F28
:104B60000817087D880E08130101A851E552E7CF08
:104B7000D9FF1200E76EFD0EDBCFE9FFFE0EDBCFA3
:0C4B8000EAFFE750E926000EEA221200CE
:044B8C00DACFE4FF99
:104B9000E6529EA00BD00101922B000E932394238A
:104BA0009523D10ECF6E1F0ECE6E9E90F2A40AD02A
:104BB00089708950010B02E0899201D08982440EEC
:104BC000D66EF294E552E5CFDAFF1100D8CFE4FFBC
:104BD000E0CFE4FFE46EDACFE4FFE652E552E5CF42
:104BE000DAFFE550E5CFE0FFE5CFD8FF1000D9CFE1
:104BF000E6FFE1CFD9FF92C196F193C197F194C13D
:104C000098F195C199F1960EE96E010EEA6EEE509B
:104C10000101925D006EEE509359016EEE50945971
:104C2000026EEE509559036ED950FB0FE96EFF0EE0
:104C3000DA20EA6EEE50005CEE500158EE50025859
:0E4C4000EE500358E0E3E552E7CFD9FF120033
:024C4E00120151
:104C5000000200000008D8040E000000010200015C
:104C60000902200001010080320904000002000056
:104C700000000705010340002007058103400020D4
:104C8000040309042A0375007300620070006900C0
:104C90006300700072006F0067002E006F007200EA
:104CA0006700200020002000200020002000440396
:104CB000750073006200700069006300700072008C
:104CC0006F0067002E006F00720067002000200058
:104CD00020002000200020002000200020002000D4
:104CE00020002000200020002000200020002000C4
:0C4CF0002000604C604C804C844CAE4CAA
:044CFC002A0EF66E18
:104D0000080EF76E000EF86E01010900F550856F70
:104D10000900F550866F03E1856701D03DD0090099
:104D2000F550806F0900F550816F0900F550826FD2
:104D300009000900F550E96E0900F550EA6E090016
:104D400009000900F550836F0900F550846F0900D0
:104D50000900F6CF87F1F7CF88F1F8CF89F180C14C
:104D6000F6FF81C1F7FF82C1F8FF0101835302E121
:104D7000845307E00900F550EE6E8307F8E28407DC
:104D8000F9D787C1F6FF88C1F7FF89C1F8FF010194
:0A4D90008507000E865BBFD71200F6
:064D9A007F6A7E6A7D6A5B
:104DA0007C6A7B6A7A6A796A786A776A766A756AEF
:104DB000746A736A726A716A706A6F6A6E6A6D6A1F
:104DC0006B6A6A6A696A686A120004D80FD8BDEC17
:104DD0001EF0FCD70F0EC112140E6F6E0101A06BF6
:104DE0000101A16B0101A26B69EF1EF089EC24F0B7
:0A4DF0006FBE02D0A5EC24F0120003
:064DFA001D6A1C6A1B6A21
:104E00001A6A200EE76ED8901E361F3620362136DD
:104E10001A361B361C361D3623501A5C24501B587C
:104E200025501C5826501D5809E323501A5E245063
:104E30001B5A25501C5A26501D5A1E2AE72EE4D70D
:024E400012005E
:0E4E420020C02AF020502502F4CF1FF0F3CF3D
:104E50001EF021502602F4CF21F0F3CF20F02502DE
:104E6000F3501F26F4502022E86A21222A502602FD
:0E4E7000F3501F26F4502022E86A2122000C85
:024E7E00FB0E29
:104E8000E3CFF6FFFC0EE3CFF7FFFD0EE3CFF8FF15
:104E9000FE0EE3CFE9FFFF0EE3CFEAFFE9CFF3FF1A
:104EA000EACFF4FF0900F5CFEFFFEE66FBD7120063
:104EB000000EF36E00EE00F0040E01D81200EA605E
:104EC00002D0EE6AFCD7F350E9601200EE6AFCD71C
:104ED00013EE00F023EE00F0F86A199C7EEC26F049
:0C4EE0007FEC27F0E5EC26F0FBD7120079
:044EEC007573627008
:0E4EF000696370726F672031313038303100E5
:024EFE001200A0
:064F00000300000000FFA9
:084F06000000000000000000A3
:020000040030CA
:0100000021DE
:010001000EF0
:0100020038C5
:010003001EDE
:01000500807A
:010006008079
:01000900C036
:01000B00E014
:00000001FF
