:020000040000FA
:06000000EAEF1AF0120005
:060008009AEF19F012004E
:06001800BAEF19F012001E
:06080000EAEF1AF01200FD
:060808009AEF19F0120046
:06081800BAEF19F0120016
:06082A0002001C36000074
:100830007A0000000800000014360000720000007A
:0408400008000000AC
:0C08440013EC0EF0040EE126BCEC0EF0EC
:10085000FD0EDB502D0A01E18DD1010A01E151D1DC
:10086000280A01E1BAD1030A01E121D1010A01E11B
:100870001ED1050A01E11BD1060A01E1E3D00D0AF0
:1008800001E1DCD00A0A01E1D9D0110A01E1B8D0B6
:10089000010A01E1B5D0190A67E0010A61E0140A12
:1008A00052E01F0A50E0010A3FE01D0A01E090D12A
:1008B000040EAAEC0EF0830E92EC0EF0880E92EC71
:1008C0000EF0890E92EC0EF08A0E92EC0EF0060EEF
:1008D000AAEC0EF00DEC10F0E66AE66A200EE66E69
:1008E000E66A4EEC0DF0A60EE66E840E7DEC0EF080
:1008F000A60EE66E880E7DEC0EF020EC10F0A60E33
:10090000E66E820E7DEC0EF09EEC0FF000EC0DF02A
:1009100003EC10F0A60EE66E940EE66EE66A040E88
:10092000E66E2DEC12F021D1050EAAEC0EF03F0E72
:10093000E66EE66ECDEC0FF0040EAAEC0EF08F0E14
:10094000E66EE66E06D0040EAAEC0EF0800EE66EA1
:10095000E66ACDEC0FF09EEC0FF032EC0FF0A3D076
:100960001DEC10F01E0EFFD0030EE66E020EE66EBA
:10097000D950020FE66E000EDA20E66E070EE66E24
:10098000200EE66EE66AE66AFD0EDBCFE6FFFE0E9F
:10099000DBCFE6FFB3EC0BF0006E0A0EE15E005019
:1009A000D5EC0FF003EC10F0030EDB50310B006EB2
:1009B000310E005C07E3020EDB50300B016E300E8F
:1009C000015C12E271EC0EF0E66A1AEC0DF0DE6AE0
:1009D000DD6A58EC0DF0070EB8EC0DF00FE262EC9A
:1009E0000FF0F7E3DB2AF5D704EC0FF080EC0FF003
:1009F00071EC0EF0030EE66E1AEC0DF080EC0FF0C9
:100A0000DCEC0EF0FD0EDB50120A0AE1DE6ADD6A54
:100A100014EC0FF005E262EC0FF0FAE3DB2AF8D7F2
:100A20001DEC10F0060E04EC0DF0D5EC0FF051ECBF
:100A30000FF079EC0EF0060E04EC0DF0DCEC0EF08D
:100A40001F0E2CD0DE6ADD6A58EC0DF0FF0E005C44
:100A5000030E015805E262EC0FF0F6E3DB2AF4D74F
:100A6000BCEC0DF0DCEC0EF0DE6ADD6A58EC0DF04B
:100A7000070EB8EC0DF005E262EC0FF0F7E3DB2AAD
:100A8000F5D7C3EC0DF0000E00018417300E85176A
:100A9000DCEC0EF01DEC10F051EC0FF0E66E060EE3
:100AA000E66E76EC11F0E552E5520A0E5CD0FD0ED2
:100AB000DB5007080AE104EC0FF01DEC10F0080E03
:100AC00079EC0EF00A0E04EC0DF0DCEC0EF004EC08
:100AD0000FF0FD0EDB50070803E1080E79EC0EF075
:100AE0001DEC10F051EC0FF079EC0EF0FD0EDB5028
:100AF000070803E1080E79EC0EF003EC10F08A9081
:100B00006CD0DE6ADD6A58EC0DF0FF0EB8EC0DF02B
:100B100005E262EC0FF0F7E3DB2AF5D7BCEC0DF051
:100B2000DE6ADD6AEDEC0EF005E262EC0FF0FAE34E
:100B3000DB2AF8D775EC0FF058EC0DF0FF0EB8EC8F
:100B40000DF005E262EC0FF0F7E3DB2AF5D706ECD7
:100B500010F0EDEC0EF005E262EC0FF0FAE3DB2AA8
:100B6000F8D716EC10F0D9EC0FF0E552E552E5524B
:100B7000E55233D0DE6ADD6A39EC0FF005E262EC53
:100B80000FF0FAE3DB2AF8D7BCEC0DF0DE6ADD6A81
:100B9000EDEC0EF005E262EC0FF0FAE3DB2AF8D799
:100BA00075EC0FF039EC0FF005E262EC0FF0FAE3B0
:100BB000DB2AF8D706EC10F0EDEC0EF005E262EC63
:100BC0000FF0FAE3DB2AF8D716EC10F004EC0DF086
:100BD0008A90E3EC0EF0030E03D0E3EC0EF0010E6E
:100BE000006E040EE15C02E2E16AE552F4EF0DF002
:100BF00013EC0EF0050EE126F50EDBA002D0BCECE6
:100C00000EF0FD0EDB502C0A01E1CAD2010A01E10F
:100C1000C7D2260A01E171D20C0A01E16ED2040AA0
:100C200001E16BD2070A01E168D2020A01E139D27F
:100C3000140A01E106D21A0A01E103D2020A01E113
:100C4000C8D10F0A01E1FFD0160A01E1CAD0110A8A
:100C500001E1C7D01F0A4CE0030A4AE01F0A48E03E
:100C6000010A04E0E3EC0EF0030E01D30DEC10F0EA
:100C700084EC0DF05DEC0EF0EECFE6FFEFCFE6FF7B
:100C80004EEC0DF0040EDB6ADBCF00F0F60EDB500D
:100C9000FE0FE76E0018E8AE02D0E73402D0E7504E
:100CA000005C13E2010E9DEC0DF008BE0968ADEC8E
:100CB0000DF002BE036829EC0DF00D0EE66E00EC9F
:100CC0000DF0020E5DEC0DF0DFD7010E9DEC0DF086
:100CD00008BE0968ADEC0DF002BE036829EC0DF00A
:100CE000DFEC0FF0000EE66EE66AB7EC11F06ED1A5
:100CF000B0EC0FF0060EAAEC0EF0000EE66EE66AFF
:100D0000CDEC0FF00DEC10F0F1EC0EF0040EDB6A00
:100D100070EC0DF0E8AE02D0E73402D0E750005C92
:100D200001E39DD2DE6ADD6A58EC0DF0060EB8ECE8
:100D30000DF036E2010EE76EF70EDBCF0AF0F80E8B
:100D4000DBCF0BF0E7500A26000E0B22040EDBCFA0
:100D50000CF00D6A0CBE0D680A500C24086E0B5086
:100D60000D20096EDE500824E96EDD50E6EC0EF031
:100D700004BE0568F70EDB500424026EF80EDB504B
:100D80000520036EDE500224E96EDD50032079EC6D
:100D90000DF00D0EE66E00EC0DF028EC0EF0C4D751
:100DA000070E9DEC0DF008BE0968ADEC0DF002BE1B
:100DB0000368B9EC0EF0060EE926000EEA22EF50A9
:100DC0000001D4EC0EF0DFEC0FF003EC0EF0090E96
:100DD000CAEC0DF0090ECAEC0DF0080E5DEC0DF03A
:100DE00097D7040EDB6A70EC0DF0E8AE02D0E73462
:100DF00002D0E750005C01E332D2DE6ADD6A58ECD3
:100E00000DF0100EB8EC0DF013E249EC0EF00ABE36
:100E10000B68A0EC0EF004BE056885EC0EF00E0E1B
:100E2000B8EC0DF002E281EC0EF028EC0EF0E7D702
:100E3000080E79EC0EF058EC0FF081EC0EF0100E6D
:100E40005DEC0DF0D0D7040EDB6A70EC0DF0E8AE6F
:100E500002D0E73402D0E750005C66E2040EDB40CB
:100E60007F0B006E016A026A036A00AE03D001685C
:100E70000268036884EC0DF0DBEC0DF04DE218EC39
:100E80000EF006BE0768C0EC0EF002BE036829EC47
:100E90000DF0020EF1EC0FF058EC0FF0F9EC0EF043
:100EA00008BE096823EC0DF004BE05683FEC0DF0A8
:100EB00002E1035001182AE0DE6ADD6A18EC0FF047
:100EC00025E203EC10F018EC0EF006BE0768C0EC4B
:100ED0000EF002BE036829EC0DF012EC10F008BE13
:100EE000096823EC0DF004BE05683FEC0DF002E14B
:100EF000035001180BE01DEC0EF003E1ED5001E191
:100F0000A2D1DF2A010EDAE3DB2AD8D7060EE66E7D
:100F1000E66E76EC11F002D0A3EC0FF0E552E5524C
:100F2000020E5DEC0DF091D7F50EDB50020B01E1E6
:100F300096D1F60EDBCF00F0016A026A036A00AEBA
:100F400003D001680268036884EC0DF0DBEC0DF05F
:100F500001E385D1DE6ADD6A58EC0DF0026A036AAE
:100F60000868030E096E0A6A0B6AF60EDBCF0CF0F6
:100F70000D6A0E6A0F6A0CAE03D00D680E680F681A
:100F800084EC0DF0EE500C26EE500D22EE500E22A9
:100F9000EE500F220C50085C046E0D500958056E7F
:100FA0000E500A58066E0F500B58076E0450005C26
:100FB00005500158065002580750035805E262ECEC
:100FC0000FF0CAE3DB2AC8D7A3EC0FF0E552E552D5
:100FD00046D1040EDB6A70EC0DF0E8AE02D0E734C7
:100FE00002D0E750005C01E33AD1DE6ADD6A58ECDA
:100FF0000DF0040EB8EC0DF010E249EC0EF00ABE54
:101000000B68A0EC0EF004BE0568C9EC0FF002E21C
:1010100081EC0EF028EC0EF0EAD7080E79EC0EF019
:10102000010E04EC0DF00E0E79EC0EF081EC0EF0DA
:10103000040EDBCFE7FFE850E726040EE7CFDBFF27
:10104000CAD7040EDB6A70EC0DF0E8AE02D0E734CC
:1010500002D0E750005C01E302D1DE6ADD6A14ECE5
:101060000FF010E249EC0EF00ABE0B68A0EC0EF097
:1010700004BE0568C9EC0FF002E281EC0EF028EC2A
:101080000EF0EDD7180E79EC0EF0020E04EC0DF018
:10109000170E79EC0EF081EC0EF0080E5DEC0DF001
:1010A000D2D7040EDB6A70EC0DF0E8AE02D0E73464
:1010B00002D0E750005C01E3D2D0DE6ADD6A14ECB6
:1010C0000FF010E249EC0EF00ABE0B68A0EC0EF037
:1010D00004BE0568C9EC0FF002E281EC0EF028ECCA
:1010E0000EF0EDD7080E79EC0EF003EC10F081EC69
:1010F0000EF0080E5DEC0DF0D6D7040EDB6A70EC36
:101100000DF0E8AE02D0E73402D0E750005C01E316
:10111000A6D018EC0EF006BE0768C0EC0EF002BEBA
:10112000036829EC0DF012EC10F008BE096823ECFE
:101130000DF004BE05683FEC0DF002E1035001180C
:101140002AE0DE6ADD6A18EC0FF025E218EC0EF0FA
:1011500006BE0768C0EC0EF002BE0368B9EC0EF0E4
:10116000EF50D4EC0EF012EC10F008BE096823EC3E
:101170000DF004BE05683FEC0DF002E103500118CC
:101180000AE01DEC0EF002E1ED505DE0DF2A010EF9
:10119000DAE3DB2AD8D7EEEC0FF05DEC0DF0AFD739
:1011A000F50EDBA002D081EC0EF0040EDB6A70ECD1
:1011B0000DF0E8AE02D0E73402D0E750005C4FE219
:1011C00018EC0EF006BE0768C0EC0EF002BE036815
:1011D00029EC0DF0020E5BEC0FF009EC0FF008BEED
:1011E000096823EC0DF004BE05683FEC0DF002E148
:1011F000035001182FE0DE6ADD6A18EC0FF02AE2D6
:1012000018EC0EF006BE0768C0EC0EF002BE0368D4
:10121000B9EC0EF0EF50D4EC0EF0020E5BEC0FF0D8
:1012200009EC0FF008BE096823EC0DF004BE056858
:101230003FEC0DF002E1035001180CE01DEC0EF044
:1012400004E1ED5002E1040E12D0DF2A010ED5E3D5
:10125000DB2AD3D7EEEC0FF05DEC0DF0A8D7F50E3E
:10126000DBA204D0E3EC0EF0010E01D0020E006E02
:10127000050EE15C02E2E16AE552F4EF0DF013ECD9
:101280000EF0020EE126F70EDBA002D0BCEC0EF051
:10129000FD0EDB502C080DE0FD0EDB502D0809E0A3
:1012A000FE0EDB50020A01E17BD0010A04E0E66A8F
:1012B000B5DB030EB4D0A60EE66E9E0E6FEC0FF0FB
:1012C000DF6A4EEC0EF0E8AE02D0E73402D0E75011
:1012D000005C01E39CD0DFCF02F0036A02BE03682A
:1012E00086EC0FF0DFCF02F0036A02BE036892ECD7
:1012F0000FF0DFCF02F0036A02BE0368F90EDB5085
:101300000224E96EFA0EDB500320EA6EEF50006E05
:10131000016AE850B9EC0FF0A80EFFEC0FF0A60E32
:10132000E66E840E7DEC0EF0FD0EDB0402E120EC97
:1013300010F0A60EE66E820E7DEC0EF0C8DBA60E57
:10134000A9EC0FF0E76E010EE7CFDBFFDB50020BDD
:1013500002081DE17E0EE96E000EEA6EEE500001FD
:101360007A5D006EEE507B59016EEE507C59026E34
:10137000EE507D59036ED890E850000A07E6050E3E
:10138000B8EC0DF0000E0258000E0358D8E3010E21
:101390003BDBA60EE66E940E7DEC0EF0DF2A91D7B5
:1013A000DF6A4EEC0EF0E8AE02D0E73402D0E75030
:1013B000005C2DE2DFCF00F0016A00BE0168D2ECD4
:1013C0000DF0EF50E66EE66A030EE66E33DBFD0EBF
:1013D000DB50050A04E00D0A02E01A0A02E1180EC9
:1013E00001D0080E79EC0EF058EC0FF0FD0EDB503A
:1013F000050A06E0170A04E01A0A05E1170E01D0F3
:101400000A0E79EC0EF081EC0EF0DF2ACAD7F70E47
:10141000DBA204D0E3EC0EF0010E01D0020E006E50
:10142000020EE15C02E2E16AE552F4EF0DF013EC2A
:101430000EF0030EE126F50EDBA002D0BCEC0EF0A0
:10144000FD0EDB502C0A01E168D1010A01E165D1F2
:101450003E0A01E11ED1190A01E11BD1010A01E195
:1014600018D1190A01E115D11A0A01E112D10F0AA6
:1014700001E10FD1050A01E10CD1040A01E109D112
:10148000050A01E106D1070A01E103D1010A01E1E0
:1014900098D0180A0AE0030A08E01F0A06E0010AC9
:1014A00004E0E3EC0EF0030E57D1B0EC0FF0FD0EAC
:1014B000DB0408E1E66AEF0E7DEC0EF0E66AF80E5A
:1014C0007DEC0EF00001866B62EC0EF0E8AE02D00F
:1014D000E73402D0E750865D01E337D186C000F0E3
:1014E000016A00BE0168026A036A0EDB2AEC0FF093
:1014F0006DDB046E050EE15E045086C006F0076ADF
:1015000006BE07681CEC0FF002BE0368A2DAE3EC2B
:101510000FF0FD0EDB0405E1F60EE66E2A0E7DEC03
:101520000EF086C004F0056A04BE0568066A076A04
:10153000EBDAEE500424006EEE500520016EEE5002
:101540000620026EEE500720036E002A000E0122D4
:1015500002223CDB086E050EE15E0850010EE76ECC
:10156000F70EDBCF08F0F80EDBCF09F0E750BDDB5C
:1015700086C00AF00B6A0ABE0B6808500A24E96E9E
:1015800009500B20E7EC0FF0010EE76EF70EDBCFF2
:1015900002F0F80EDBCF03F0E7500226000E032224
:1015A00086C004F0056A04BE056802500424E96E92
:1015B000035005209EDAE3EC0FF0020E00018627AF
:1015C00083D7F50EDBA00ED0DCEC0EF0DF6A6ADB11
:1015D000E8AE02D0E73402D0E750005C03E291DBD2
:1015E000DF2AF5D70001866B6DDBE8AE02D0E73469
:1015F00002D0E750865D01E3A8D03FEC0FF0E8AEE3
:1016000002D0E73402D0E750005C0EE28629066E75
:10161000076A06BE07681CEC0FF002BE036819DA01
:10162000020E66EC0FF0F0D9F90EDBCFE6FF0001F9
:1016300086417F0BE552E724070826E18629066EDE
:10164000076A06BE07680ADA86C008F0096A08BE9B
:101650000968F70EDB500824D1EC0FF00920EA6E80
:10166000EF500410026E05C003F0FF0E02160F0EBD
:10167000031684510210006E85510310016E27DBA2
:1016800001C0DBFFF6EC0FF0EEEC0FF00001862757
:10169000ABD7F50EDBA00DD08FDBDF6A03DBE8AE46
:1016A00002D0E73402D0E750005C03E22ADBDF2AF5
:1016B000F5D70001866B06DBE8AE02D0E73402D036
:1016C000E750865D42E2DBDBE8AE02D0E73402D0D1
:1016D000E750005C03E39FDA07081AE18629066EEB
:1016E000076A06BE0768A8DB02BE036842DBEF504C
:1016F00000010410006E05C001F0E9DA05C0DBFF4F
:10170000F6EC0FF0FD0EDB500A0A02E10E0EF1DAE4
:10171000EEEC0FF000018627CED77EDBEFCF02F094
:1017200002C003F0026A63DAEF5000010210006E9B
:1017300003C001F0CCDA03C0DBFF010EDBCFE6FF14
:10174000020EDBCFE6FFB7DB5FD9F50EDBA203D0DD
:101750003ADB010E01D0020E006E030EE15C02E2E4
:10176000E16AE55241D25FDA050EE126020EDB6A3C
:10177000F50EDBB001DBFE0EDB50020A1CE0010AB5
:1017800001E09DD02EDB020EDB6AAAD9E8AE02D0C2
:10179000E73402D0E750005C01E3A3D0090EFAD988
:1017A000E66E2CDA00BE0168B6D9E552E750EF6E5E
:1017B000020EDB2AEAD7FD0EDB502C080BE1A4D980
:1017C000E868EE1806E1010EEE1803E1EE5001E1C3
:1017D000EE500FE0FD0EDB502D0819E195D9E868B9
:1017E000EE1815E1030EEE1812E1EE5010E1EE5086
:1017F0000EE198D9DBCF01F001C000F0016A0CDBEB
:1018000000C0EFFFF4D9030EDBCFEFFF6AD07CD925
:10181000000EEE5C200EEE58000EEE58000EEE5854
:1018200025E3CADAF50EDBA00ED0DE6ADD6A40D908
:101830003DDA000E025E200E035A4EDA04E242DB6D
:10184000F6E3DB2AF4D7020EDB6A4AD9E8AE02D00F
:10185000E73402D0E750005C44E264D9FED900BE10
:10186000016813DB00BE01688DDBEFD7F50EDBA04E
:1018700013D0FD0EDB502C0804E0FD0EDB502D08CC
:1018800001E13FDA040EF3D913D910DA25DA04E2C4
:1018900019DBFAE3DB2AF8D7020EDB6A21D9E8AEBE
:1018A00002D0E73402D0E750005C1BE23BD9D5D927
:1018B00000BE0168EADA00BE016864DBEFD7020E01
:1018C000DB6A0ED9E8AE02D0E73402D0E750005C04
:1018D00008E294D900BE01681ED9EF6A020EDB2A25
:1018E000F0D7F50EDBA202D0E66A98D8050EE15CCF
:1018F00002E2E16AE552E16ED7D295D9030EE12604
:10190000020EDB6AF70EDBB037DAFE0EDB50020A9E
:101910002FE0010A57E1A60EE66E9E0EE0DA020EF7
:10192000DB6A92D9E8AE02D0E73402D0E750005C1F
:101930005BE2020EDBCF02F0036A02BE0368E6DA66
:10194000020EDBCF02F0036A02BE0368EBDAA60EDA
:10195000E66E800ED2D9A80EFCDAE66E4FD900BE34
:10196000016820D9E552E750EF6E020EDB2AD9D785
:10197000F70EDBA00FD0050E7AD99AD8FB0EDBCF7D
:1019800002F0FC0EDBCF03F0A7D904E29BDAF5E30B
:10199000DB2AF3D7020EDB6A57D9E8AE02D0E73470
:1019A00002D0E750005C20E2050EDBD9F350E66E72
:1019B00025D900BE0168F6D8E552E750EF6E0EDB80
:1019C000DB2AEAD7020EDB6A3FD9E8AE02D0E73461
:1019D00002D0E750005C08E211D900BE0168E2D8ED
:1019E000EF6A020EDB2AF0D7F70EDBA202D0E66A1E
:1019F00015D8030EE15C02E2E16AE552E16E54D2D1
:101A000031DAE552E5521200DAD9E552E552120018
:101A1000E66E76EC11F0E552E5521200FE0EDBCFD9
:101A2000E6FFFD0EDBCFE6FF30EC10F0E552E552AD
:101A3000E5521200060EE66E30EC12F0E552E55269
:101A4000E552E5521200F70EDB500824AADAE6EF61
:101A50000EF08FD9EF500001D4EF0EF0F70EDB50EF
:101A600006249FDA07204AEF0FF0040E7AD9020EFF
:101A7000F3CFDBFF030EF4CFDBFFF9EF0EF0F70E31
:101A8000DB5004248EDA0520EA6EEF5000010610C8
:101A9000026E07C003F0E85000181200FE0EDBCF04
:101AA000E6FF2BEC11F0006E050EE15E0050120017
:101AB000DECF00F0DDCF01F01200006E040EDBCFB0
:101AC000E7FF0050E726040EE7CFDBFF12007AC0E5
:101AD0007EF07BC07FF07CC080F07DC081F0120082
:101AE000DBCF00F0F60EADD1000EE66EE66AE66AD8
:101AF0001200EA6EEF5000010610006E07C001F000
:101B0000E66E07C0E6FF1200D950F90FE96EFF0E2E
:101B1000DA20EA6E1200F70EDB50002442DA0120D0
:101B2000EA6E1200040E1DD9030EF3CFDBFF040E84
:101B3000F4CFDBFF030E040E1200E76EF70EDBCFCF
:101B400006F0F80EDBCF07F0E7500626000E07225E
:101B5000040EDBCF08F0096A120006500824E96E73
:101B60000750092097D9040EDBCF02F0036A120058
:101B7000005C000E01581200040EF3D8F3CF82F07F
:101B8000F4CF83F01200040EECD8F3CF84F0F4CF3E
:101B900085F01200E66E040EE66EA3EC12F0E5523C
:101BA000E5521200F90EDB500024E96EFA0EDB500C
:101BB0000120EA6E12004ED90322FF0E005C030ED4
:101BC0000158000E0258000E03581200032200C0F4
:101BD000E6FF01C0E6FF02C0E6FF03C0E6FFFE0E1F
:101BE000DBCFE6FF2BEF11F0E16E00505DD1F70E79
:101BF000DBCFE9FFF80EDBCFEAFF1200020EDBCFEE
:101C000000F0016A1200000EE66EE66AB7EC11F011
:101C1000E552E5521200F90EDBCFE6FF86417F0B5D
:101C2000E552E7241200D9CFE6FFE1CFD9FF120039
:101C3000040EDB28066E076A1200D9CFE9FFDACF5F
:101C4000EAFF090EEE181200DBCF00F0F80EF9D013
:101C5000020EDE26000EDD221200DBCF03F003C0F1
:101C600002F0036A020EDB28006E016A120079D8C6
:101C7000DE6ADD6A1200020EDBCFE7FFE850E726DE
:101C8000020EE7CFDBFF120082C0E6FF83C0E6FF53
:101C90001200040EDBCF0AF00B6A1200DFCF00F057
:101CA000F80ECFD0DFCF00F0F90ECBD0F90EDBCF9E
:101CB00002F0FA0EDBCF03F01200EECFE6FFEECF1C
:101CC000E6FF1200F60EDB50E76E86191200010ED9
:101CD00000C0DBFF020E12000250005C03500158EE
:101CE0001200E6683F0EE66E12000826000E09227A
:101CF0001200E66E060E08EF0DF0E66EE66A00EFE3
:101D00000DF0060EE66E08EF0DF0DE500424026EB4
:101D1000DD500520036E99D9ECDE020EE66E8ADEF8
:101D200058EF0DF0E66EE66A38D908D969DE03EFA0
:101D300010F0FF0E0016000E01160050B9EF0FF064
:101D4000DE500A24086EDD500B20096E010ECDDF37
:101D500023EF0DF0E66EE66A3C0EE66EE66A4EEFA5
:101D60000DF0E66E060EE66E33EC12F0E552E5522B
:101D700012006BD9EA6E1200010EE66E0EEF0DF046
:101D80006DDE040EDBCF02F0036A12008A82020EBF
:101D90003BDE8A92010E04EF0DF00F0EE66E30DE90
:101DA000E66A030E08EF0DF00410006E05C001F0A6
:101DB000E66E05C0E6FF120097DE1AEF0DF0F9D8C7
:101DC000E552E5521200E66A0EEF0DF00920FFD849
:101DD000040EDBCF04F0056A12006ADE050EB8EFD0
:101DE0000DF092DEEECFE6FF68DFEFCFE6FF4EEFBD
:101DF0000DF0020EDBCF00F0030EDBCF01F0040E7E
:101E0000DB28086E096A12006CDF020EE66E1AEF1C
:101E10000DF0FADD35EF0DF0010EE76EE8DEE7506C
:101E2000E926000EEA22120043DE080EB8EF0DF09C
:101E30003FDE0A0EB8EF0DF011DE86C002F0036A35
:101E40001200DB50E76E001812004EDED9DD020EE4
:101E5000CAEF0DF0EE500026EE500122EE500222A5
:101E6000EE501200040EE66E2DEC12F0E552E55233
:101E700012001EDEFF0E005C010E01581200CBDEC8
:101E8000006E040EE76E0018120045DE02C0EFFF80
:101E9000FEEF0DF0EA6EEFCF04F004C005F0046A27
:101EA0001200B1D80B0E1200E552E7CFD9FF120095
:101EB000080E04EF0DF095D8020EA6DD0E0E19DF08
:101EC000010E12001EDFDF2A010E12008AD80A0E50
:101ED0001200E66E0E0E11DFA70EFFEF0FF00DDF02
:101EE000A60EE66E9C0E7DEF0EF04DDE6CDF44DF3D
:101EF00008DFA3D888D867DF3FDFDE6ADD6A12001B
:101F0000AAD8080EF6DED4DF2BEF10F0FB0EDB5064
:101F10000224006EFC0EDB500320016E0ADFA90EC6
:101F2000FFEF0FF0FB0EDB500224FC0EDB50032012
:101F3000006E016AFEDEAA0EFFEF0FF0D5DD60DD58
:101F4000C6DD74EF0DF0A0DE020E4BD8080EDFEFF9
:101F50000EF0E66E500ED1DEF50E51D825EF0FF0E3
:101F6000A60EE66E8E0EC9DEA60EE66E8C0E7DEF18
:101F70000EF00E0E011200C0E6FF01C0E6FFE66A99
:101F800000EF0DF0C8DD030EDBCFEFFFBADE3BEF55
:101F90000EF0BBDE060EB8EF0DF00C0EE66E00EF95
:101FA0000DF0E96EF80EDB5012000DDF2CD8BCEFFF
:101FB0000EF0E66EE66AE66AE66ACBEF19F0EDDE51
:101FC00086DDC6EF0EF0E9DEE1DE03EF0EF0EA6E2D
:101FD000EFCF06F006C007F0066A120092DE020E8E
:101FE0001200E66E27DD080E79EF0EF0010EDBCF52
:101FF000E6FF020EDBCFE6FF69DF04EF0DF0E66ED1
:102000006E0E7DEF0EF00A0E04EF0DF03DDE040EB5
:1020100052DFFADCDE6ADD6A1200A60EE66E8E0E74
:102020006FEF0FF0020E52DF09EF0FF084C0E6FFF2
:1020300085C0E6FF040E5BEF0FF0090E79EF0EF09E
:10204000550E47DFAA0E69EF0FF0F70EDB500224A2
:10205000A8DF03201200010E4CDE070E79EF0EF010
:10206000D9CFE6FFE1CFD9FF020EE126FC0EDB045B
:1020700001E07DD0939093928A908A920000FE0EA8
:10208000DB50060A01E002D08A9602D08A9400D082
:102090007AC07EF07BC07FF07CC080F07DC081F094
:1020A000010EE66E7EEC13F0E5527E0EE96E000E38
:1020B000EA6EEE5000017A5D006EEE5000017B5931
:1020C000016EEE5000017C59026EEE5000017D5908
:1020D000036ED8900350000A08E6640E005C000E00
:1020E0000158000E0258000E035802E2DED7DDD779
:1020F000FE0EDB50060A01E002D08A9402D08A96D6
:1021000000D0020EE66E7EEC13F0E5527AC07EF04F
:102110007BC07FF07CC080F07DC081F07E0EE96ED8
:10212000000EEA6EEE5000017A5D006EEE50000186
:102130007B59016EEE5000017C59026EEE50000199
:102140007D59036ED8900350000A08E6640E005CC7
:10215000000E0158000E0258000E035802E2DED7AE
:10216000DDD7030EE66E7EEC13F0E5526AD08A8668
:102170008A8A040EE66E7EEC13F0E5527AC07EF099
:102180007BC07FF07CC080F07DC081F07E0EE96E68
:10219000000EEA6EEE5000017A5D006EEE50000116
:1021A0007B59016EEE5000017C59026EEE50000129
:1021B0007D59036ED8900350000A08E6140E005CA7
:1021C000000E0158000E0258000E035802E2DED73E
:1021D000DDD78A9A050EE66E7EEC13F0E5528A840E
:1021E000938093827AC07EF07BC07FF07CC080F0C9
:1021F0007DC081F07E0EE96E000EEA6EEE500001A9
:102200007A5D006EEE5000017B59016EEE500001C8
:102210007C59026EEE5000017D59036ED890035038
:10222000000A08E6140E005C000E0158000E025869
:10223000000E035802E2DED7DDD7E66A7EEC13F02B
:10224000E552020EE15C02E2E16AE552E16EE5521E
:10225000E7CFD9FF1200D9CFE6FFE1CFD9FFFE0EBD
:10226000DB50020A2EE0010A3DE1F5D906C000F07C
:102270000001FED906C0E6FF0FDAF80EE66E6E0E1C
:10228000E66ED1D9E8D905C000F00001036AF0D9A3
:1022900005C0E6FF01DAF70EE66E6E0EE66EC3D9F4
:1022A000FA0EDBCF00F0FB0EFC0EFD0EE1D900C0F4
:1022B000E6FFF2D9F60EE66E6E0EE66EE66A040EE4
:1022C00010D0FA0EDBCF00F0FB0EDBCF01F0D89080
:1022D0000036013600C0E6FF01C0E6FF020EE66EE2
:1022E000060ED3D9E552E7CFD9FF1200D9CFE6FFCA
:1022F000E1CFD9FFE652939093928A928A90DF6A57
:10230000DFCF00F0FE0EDB50E76E0018E8AE02D023
:10231000E73402D0E750005C15E28A820000FD0E2F
:10232000DBA002D08A8001D08A90FD0EDBCFF3FFC4
:10233000F390F342FD0EF3CFDBFF00008A92000022
:10234000DF2ADED7DF6ADFCF00F00A0EE76E001863
:10235000E8AE02D0E73402D0E750005C03E200D0E0
:10236000DF2AF1D7E552E552E7CFD9FF1200D9CFE6
:10237000E6FFE1CFD9FFE652DF6ADFCF00F0100EB3
:10238000E76E0018E8AE02D0E73402D0E750005CF8
:102390001DE28A820000FD0EDB50010B02E08A8004
:1023A00001D08A90D950FD0FE96EFF0EDA20EA6E57
:1023B000010E0F0B06E0EC52D890ED32EF32E8063A
:1023C000FAE100008A920000DF2AD7D70000E55228
:1023D000E552E7CFD9FF1200D9CFE6FFE1CFD9FF11
:1023E000E6528A8200008A9000008A920000DF6A2A
:1023F000DFCF00F00E0EE76E0018E8AE02D0E73433
:1024000002D0E750005C1DE28A820000FD0EDB5026
:10241000010B02E08A8001D08A90D950FD0FE96E4D
:10242000FF0EDA20EA6E010E0F0B06E0EC52D89098
:10243000ED32EF32E806FAE100008A920000DF2A6E
:10244000D7D78A8200008A9000008A92000000009C
:10245000E552E552E7CFD9FF1200E9D888DF0ED167
:10246000E6D8BADF0BD1D9CFE6FFE1CFD9FF030E13
:10247000E126FD0EDBCFE6FFFE0EDBCFE6FF36DF0B
:10248000E552E5529380DF6ADFCF00F00A0EE76E77
:102490000018E8AE02D0E73402D0E750005C03E257
:1024A00000D0DF2AF1D7010EDB6A020EDB6A8A82D6
:1024B00000008A920000DF6ADFCF00F00E0EE76EA8
:1024C0000018E8AE02D0E73402D0E750005C1FE20B
:1024D0008A8200008150010B026E036ADF5002C045
:1024E00000F003C001F005E0D89000360136E804A2
:1024F000FBE1D950010FE96EDACFEAFF0050EE128E
:102500000150ED1200008A920000DF2AD5D78A829E
:1025100000008A92000093908A900000010EDBCFA9
:1025200000F0020EDBCF01F000C0F3FF01C0F4FFAA
:1025300000D0030EE15C02E2E16AE552E16EE55291
:10254000E7CFD9FF1200D9CFE6FFE1CFD9FF020EC6
:10255000E126FD0EDBCFE6FFFE0EDBCFE6FFC6DE9B
:10256000E552E552DF6ADFCF00F0080EE76E001893
:10257000E8AE02D0E73402D0E750005C08E28A827D
:1025800000008A9000008A920000DF2AECD7938036
:10259000DF6ADFCF00F00A0EE76E0018E8AE02D067
:1025A000E73402D0E750005C03E200D0DF2AF1D725
:1025B000010EDB6ADF6ADFCF00F0080EE76E00185D
:1025C000E8AE02D0E73402D0E750005C1AE28A821B
:1025D00000008150010BDF5206E0DFCFF3FFE84639
:1025E000FE0BF306FCE1006E010EDBCFE7FF0050AF
:1025F000E712010EE7CFDBFF00008A920000DF2A1E
:10260000DAD793908A900000010EDB5000D0006E64
:10261000020EE15C02E2E16AE552E16E0050E55231
:10262000E7CFD9FF1200E66A040E45EF13F0D9CFC9
:10263000E6FFE1CFD9FFFD0EDBCFE6FFFE0EDBCFDD
:10264000E6FF54DEE552E552FB0EDBCFE6FFFC0E63
:10265000DBCFE6FF1200FA0EDBCF04F0FB0EDBCF80
:1026600005F0FC0EDBCF06F0FD0EDBCF07F012000D
:10267000016A026A036A0E0E01121200E552E55267
:102680008A90E552E7CFD9FF1200E66EE6DEE5520A
:10269000E552E552E552120001C0E6FF13EF13F0D8
:1026A000070E8B12F80E9416938C8150400B01E0AC
:1026B000010E00018D6F929092929396939A93904F
:1026C000939293948A868A9A8A908A92F18E02D8FB
:1026D00076EF13F0C00EF2129D809E909F80D10E77
:1026E000CF6E1F0ECE6E010ECD6E1200E00EF212F6
:1026F000F294440ED66EC30ED56E12004EDAFE0E64
:10270000DB50010BE81CE8B08B80E8A08B90FE0E3C
:10271000DB50020BE8407F0BE81CE8B08B82E8A09E
:102720008B92FE0EDB50040BE840E8403F0BE81CA8
:10273000E8B08B84E8A08B9435D22FDA0A0EE1261C
:10274000060E0001875D03E36D50020B02E058D9CD
:10275000D8D0400EE66E000EE66E010EE66E58EC26
:1027600019F0E552E552E552E66ED950020FE96ED6
:10277000DACFEAFFE552E750EE6EED6A020EDBCFEC
:1027800000F0030EDBCF01F0013401E3AAD00050CA
:102790000008000E015401E3A4D0100E0101005DF9
:1027A00008E1010E03DA06DA22EC04F0E552E55204
:1027B0009FD9200E0101005D1CE1030E0001745D34
:1027C00007E1DED9FE0EE66EE6683F0EE66E06D045
:1027D000D7D9060EE66E200EE66EE66AE66AEAD9FC
:1027E000B3EC0BF0006E0A0EE15E00500001020E29
:1027F000F7D9300E0101005D0CE194D902E0ABD9AC
:10280000FEE198D902E0AED9FEE1D9D9F8EC05F0A5
:10281000DCD9400E0101005D12E184D902E09BD9B0
:10282000FEE188D902E09ED9FEE12CD9260EE66EA3
:10283000010E4ED9B3EC0BF0006E0A0E9AD9500E71
:102840000101005D0CE15AD9060EE66E010E7AD93F
:102850003FEC09F0006E080EE15E005049D9600EB1
:102860000101005D0AE14AD9260EE66E010E6AD921
:102870007DEC0CF0006E080E7CD9700E0101005D3D
:102880000CE150D902E067D9FEE154D902E06AD9DF
:10289000FEE195D917EC0AF098D9800E0101005D90
:1028A00008E1010EE66E010EE66E32D8E552E55201
:1028B0001FD9900E0101005D14E1F00E006E350E7F
:1028C000016E026A00C0E6FFE66E02C0E6FF83D931
:1028D000D1EC1AF0036E050EE15E03500001120EFA
:1028E0007FD9000176510DE004010CBF08D076C0FD
:1028F000E6FF71D928EC19F0E552E552E5520001E6
:10290000766B0A0EE15C02E2E16AE552E16E4AD1C1
:1029100044D93CD9EFCF75F039D9EF502A0A6BE092
:10292000030A66E00E0A61E00C0A5FE0030A5DE05C
:10293000350A58E0030A56E0010A54E03F0A52E023
:10294000010A50E0030A4EE0010A4CE0070A4AE09F
:10295000010A48E0030A46E0260A44E0010A42E090
:102960002D0A3DE0010A3BE02F0A39E0010A37E079
:10297000070A35E0010A33E0030A31E0010A2FE0DB
:102980000F0A2DE0010A2BE0030A29E0010A27E0E3
:10299000070A25E0010A23E0030A21E0010A1FE0FB
:1029A0001F0A1DE0010A1BE0030A19E0010A17E0F3
:1029B000070A15E0010A13E0030A11E0010A0FE01B
:1029C0000F0A0DE0010A0BE0030A09E0010A07E023
:1029D000070A05E00001756B030E746F10D000014B
:1029E000020E0BD00001030E08D00001040E05D02A
:1029F0000001050E02D00001060E746F010ED2D048
:102A000000017751781104E1100E776F270E786F6F
:102A10007707000E785B6DA207D07751781122E11D
:102A20008B708B828B8412000001875102E1010EB2
:102A300012D0870502E1020E0ED0020E875D02E180
:102A4000030E09D0030E875D02E1040E04D0050ECB
:102A5000875D03E1050ED6EF15F0060E875D02E1F6
:102A60000001796B12008150400B01E0010E000162
:102A70008D5D07E08150400B01E0010E8D6F81AC50
:102A8000010C000C045000120550011206500212F5
:102A90000750031204C108F0096A0A6A0B6A085059
:102AA0000012095001120A5002120B500312040EB8
:102AB00000C0DBFF050E01C0DBFF060E02C0DBFF1E
:102AC000070E03C0DBFF05C1E6FF01C1E6FF1200F0
:102AD000E66ED950040FE96EDACFEAFFEECFE6FFDB
:102AE000EECFE6FFEECFE6FFEFCFE6FFDAEF15F031
:102AF0000101266F0001010EF0EF15F003C103F094
:102B0000026A045100010210006E03C101F0080EB8
:102B100000C0DBFF090E03C1DBFF05C1E6FF01C1F9
:102B2000E6FF120002C100F0016A026A036A100E99
:102B30001F0B120003C104F0056A066A076A080E3B
:102B40001F0B1200E66E080EDBCFE6FF090EDBCF8F
:102B5000E6FFDAEF15F0D89000360136023603367C
:102B6000E8061200D8900436053606360736E80621
:102B70001200E15E005001C176F0050ED6EF15F0AF
:102B8000030EE66E020EE66EEBEF15F0FD0EDBCFE8
:102B9000E9FFFE0EDBCFEAFF1200D9CFE6FFE1CF5F
:102BA000D9FF1200E552E7CFD9FF1200E66EA6DD8D
:102BB000E552120075C0E6FF74C0E6FF120062DF46
:102BC000060EE66E010E68EF15F0006E0A0EE15E6D
:102BD000005078EF15F0260EE66E010EE66E12003C
:082BE000766F050ED6EF15F02B
:082BE80004011851600BE842E2
:102BF000E842E842E842E842000901E012001951C7
:102C0000070A40E00B0A3EE0070A33E0010A23E02E
:102C10000B0A1FE0020A1DE0030A19E0080A10E08F
:102C2000010A0CE00F0A08E0030A01E0120010D9C3
:102C30000001040E876F120043EF16F07AEF16F0D2
:102C400007D90001890E6C6F000E6D6F0CD095EFE7
:102C500016F0C5EF16F000D900016C6F6D6B8A0E8F
:102C60006C27000E6D23000188930001010E706F28
:102C70001200F2D8EA6A8A0FE96E000EEA221AC43C
:102C8000EFFF12001200800E0401185D32E11B51AB
:102C9000030A1FE0010A0AE0030A29E1D9D800016A
:102CA000F60E6C6F330E6D6F120E1ED0ABD89A0EEF
:102CB000F626340EB9D8020E0001F76A6C25F66EBE
:102CC0006D51F7220900F5CF70F00A00F5CF71F0D1
:102CD0000ED098D89E0EF626340EA6D86CC0F6FFFD
:102CE0006DC0F7FF0800F5500001706F716B0001B7
:102CF00088831200ADD80F0EE66E710EE66E0F0ED1
:102D00009BD8010EE66E8A0EE66E000E95D81AC4A8
:102D100089F004011A5104E10001050E876F1200C9
:102D20000001060E876F13EF19F00401206B216B71
:102D3000040118511F0B020A0DE0030A09E0010A01
:102D400016E186D8000188A112D0040120830FD09B
:102D50007FD80DD04BD801E0010E5DD86EC0E9FFE1
:102D6000EA6EEF50040B03E00401010E206F000136
:102D70006B050AE10001200E6C6F040E6D6F0001FF
:102D800088930001020E706F120004011A050EE113
:102D900018511F0B00090AE15BD8030E0401195DED
:102DA00003E10001888102D00001889104011A51D9
:102DB0001CE118511F0B020818E11C510F0B0009F0
:102DC00014E014D801E0010E26D8030E0401195DA9
:102DD00004E1840E38D8EF6E12001CAF03D033D854
:102DE000EF6A1200880E2FD8EF6E120035D80F0B45
:102DF000080DF350016A000F006E040E01221C51F1
:102E0000800B120025D804011A51F66EF76AD8908B
:102E1000F636F7361200040DF350000100246E6FF1
:102E2000000E01206F6F1200F7220900F5CF6CF041
:102E30000A00F5CF6DF01200E66EFEEC18F0E552D8
:102E4000E552E55212006EC0E9FF6FC0EAFF1200C2
:102E50000001010E6B6F1200FBDF04011C51120018
:102E60006C5002E0000E01D0010E00090BE00401DD
:102E700000513C0BE842E8420D0802E14BEF17F02D
:102E80005AEF17F06C5002E0000E01D0010E040959
:102E900001E01FD81200D9CFE6FFE1CFD9FFE652FB
:102EA00000016A6B6B6B706B716BF4EC15F099D869
:102EB000E552F6D0020E00016A5D09E168D804010E
:102EC00000BD02D0C80E01D0880E006F12002AEF9C
:102ED00018F0040E0001875D09E11AC46EFF6E5000
:102EE000000802E2050E01D0030E876F00016A059B
:102EF00009E10AD8040104BD02D0C80E01D0880E31
:102F0000046F12002AEF18F0C4D80001080E705D9B
:102F1000000E715905E270C0DEFF71C0DDFF03D005
:102F2000080EDE6EDD6A040104930491010EDB508D
:102F30000413DFCF05F4000EDB500001705F010EBB
:102F4000DB50715B200E6E6F040E6F6F000188A363
:102F50000CD098D815E06CC0F6FF6DC0F7FF0800E4
:102F6000F55080D8F6E2DB06F4D78CD809E06CC0C7
:102F7000E9FF6DC0EAFFEF5075D8F7E2DB06F5D741
:102F8000020EE15C02E2E16AE552E16E89D081D88D
:102F9000030E04010015E76E010EE7CFDBFF01C44D
:102FA000DFFFDE5000017027DD507123200E6C6FB3
:102FB000040E6D6F67D80EE06CC0E9FF6DC0EAFFCC
:102FC000EF506EC0E9FF6FC0EAFFEF6E6DD8F2E21E
:102FD000DB06F0D7020EE15C02E2E16AE552E16E47
:102FE0005FD000016B5105E145D8840E006F0401EC
:102FF0001DD0040118AF1CD00001705104011E5DEA
:103000000001715104011F5904E21EC470F01FC475
:1030100071F07ADF0001010E6A6F2CD8800E006F0C
:103020000401200E066F040E076FC80E046F10D047
:103030000001020E6A6F0401056BC80E046F0401E3
:10304000080E016F200E026F040E036FC80E006F92
:103050006D98120000016A6B0DD8880E006F040194
:10306000046B12006EC0E9FF6FC0EAFFEF6E000153
:1030700054EF18F00401080E016F180E026F040ED1
:10308000036F1200D9CFE9FFDACFEAFFEE50ED105F
:103090001200D9CFE6FFE1CFD9FF020EE1261200E0
:1030A000E552E7CFD9FF12006E2B000E6F236C2B79
:0830B0006D23DF06010E120082
:0830B8006DA60CD8000187058C
:1030C00008E16DBA06D0686A696A69806988020E8B
:1030D000876F12006D6A696A6D860001010E876F45
:1030E00012006D6A696A0001876B120071EF18F0B7
:1030F0000001875101E112006850040B04E069509F
:10310000040B01E038D86DB212006850010B04E0E6
:103110006950010B01E050D86850100B04E0695071
:10312000100B01E024D86850400B04E06950400BBC
:1031300001E037D86850200B04E06950200B01E013
:1031400032D86850020B04E06950020B01E032D81B
:10315000030E0001875D01E212006850080B06E0D3
:103160006950080B03E030EC17F068961200698490
:1031700068986D8212006D92699468941200000143
:1031800088A10ED0F8DF6D840001080E8B6F070E4A
:103190008C6F8B07000E8C5B8B518C11FAE16D9458
:1031A0001200689C120070A003D02AEC18F07090F6
:1031B000689A1200689212006A6A686A9F0E6B6EC3
:1031C0007B0E696E6E6A0F0EE66E710EE66E0F0E66
:1031D000E66E14D8E552E552E552160E706E68A6FA
:1031E00002D06896FCD76D982AEC18F000018891FF
:1031F0000001896B0001030E876F1200D9CFE6FF33
:10320000E1CFD9FFFD0EDBCFE9FFFE0EDBCFEAFFFA
:10321000FC0EDB5004E0EE6AFC0EDB06F9D7E5524B
:06322000E7CFD9FF120008
:0A32260000018F6B1E0E716E040193
:10323000260E096F280E0A6F040E0B6F880E086F9A
:1032400004014E0E0E6F040E0F6F400E0C6F120035
:10325000D9CFE6FFE1CFD9FFE652FC0EDB502608BE
:1032600005E2260EF36EFC0EF3CFDBFFDF6AFC0EE9
:10327000DB50DF5C0FE2DF5051D8EF50E66EDF50DD
:10328000EA6A4E0FE96E040EEA22E552E750EF6E4D
:10329000DF2AEDD7FC0EDBCF0DF4400E04010C1736
:1032A0000C7D880E0C13E552E552E7CFD9FF1200D2
:1032B000D9CFE6FFE1CFD9FF00018F6B040108BF32
:1032C00027D0FC0EDBCF00F00951D880005403E278
:1032D000FC0E09C4DBFF00018F6BFC0EDB508F5D21
:1032E0000FE28F51EA6A280FE96E040EEA22EF50CE
:1032F000E66E8F5113D8E552E750EF6E8F2BEDD766
:103300000401260E096F400E0817087D880E081369
:1033100000018F51E552E7CFD9FF1200E76EFD0E95
:10332000DBCFE9FFFE0EDBCFEAFFE750E926000E18
:04333000EA2212007B
:0C333400DACFE4FFE6529EA00BD00001AF
:103340007A2B000E7B237C237D23D10ECF6E1F0EA4
:10335000CE6E9E90F2A40AD089708950010B02E0D3
:10336000899201D08982440ED66EF294E552E5CF5F
:10337000DAFF1100D8CFE4FFE0CFE4FFE46EDACF4C
:10338000E4FFE652E552E5CFDAFFE550E5CFE0FF96
:10339000E5CFD8FF1000D9CFE6FFE1CFD9FF7AC043
:1033A0007EF07BC07FF07CC080F07DC081F07E0E1F
:1033B000E96E000EEA6EEE5000017A5D006EEE508E
:1033C0007B59016EEE507C59026EEE507D59036EB2
:1033D000D950FB0FE96EFF0EDA20EA6EEE50005C6A
:1033E000EE500158EE500258EE500358E0E3E5521B
:0633F000E7CFD9FF120037
:0A33F6001201000200000008D804D4
:103400000E000000010200010902200001010080FD
:103410003209040000020000000007050103260035
:103420002007058103260020040309042A037500F0
:1034300073006200700069006300700072006F002A
:1034400067002E00730066002E006E006500740099
:1034500020002000200044035000490043004400A5
:1034600045004D0020004600530020005500530049
:1034700042002000440065006D006F002000420003
:103480006F006100720064002000280043002900E2
:103490002000320030003000340008340834283472
:0434A0002C3456343E
:0C34A4002A0EF66E080EF76E000EF86E91
:1034B00000010900F550656F0900F550666F03E1E2
:1034C000656701D03DD00900F550606F0900F550E7
:1034D000616F0900F550626F09000900F550E96E4F
:1034E0000900F550EA6E090009000900F550636F04
:1034F0000900F550646F09000900F6CF67F0F7CFB7
:1035000068F0F8CF69F060C0F6FF61C0F7FF62C0F5
:10351000F8FF0001635302E1645307E00900F5502E
:10352000EE6E6307F8E26407F9D767C0F6FF68C07C
:10353000F7FF69C0F8FF00016507000E665BBFD7A3
:02354000120077
:0E3542007F6A7E6A7D6A7C6A7B6A7A6A796A31
:10355000786A776A766A756A746A736A726A716A77
:10356000706A6F6A6E6A6D6A6B6A6A6A696A686AAB
:10357000120004D80FD89DEC13F0FCD70F0EC11227
:10358000140E6F6E0001876B0001886B0001896B60
:1035900050EF13F05CEC18F06FBE02D078EC18F02E
:0235A000120017
:0E35A200FB0EE3CFF6FFFC0EE3CFF7FFFD0EAE
:1035B000E3CFF8FFFE0EE3CFE9FFFF0EE3CFEAFF14
:1035C000E9CFF3FFEACFF4FF0900F5CFEFFFEE6696
:0435D000FBD7120013
:0C35D40013EE00F023EE00F0F86A119CEA
:1035E00052EC1AF009EC1BF0B9EC1AF0FBD7120000
:1035F00075736270696370726F6720353437001BB2
:043600005B324A00EF
:0C36040000EE00F00F0EEE6AEA62FDD747
:023610001200A6
:023612001200A4
:0836140000000300000000FFAC
:04361C0000000000AA
:0436200000000000A6
:020000040030CA
:0100000021DE
:010001000EF0
:0100020038C5
:010003001EDE
:01000500807A
:010006008079
:01000900C036
:01000B00E014
:0200000400F00A
:100000000102030405060708090A0B0C0D0E0F1068
:0100100011DE
:00000001FF
