:020000040000FA
:060000006BEF20F012007E
:06000800D9EF1EF012000A
:06001800F9EF1EF01200DA
:060800006BEF20F0120076
:06080800D9EF1EF0120002
:06081800F9EF1EF01200D2
:06082A000200184100006D
:100830007200000008000000124100007A00000071
:0408400006000000AE
:0C08440030EC13F0040EE12637EC12F04B
:10085000FD0EDB502D0A01E10BD2010A01E1CDD1E1
:10086000280A01E138D22A0A01E19AD1290A01E1D4
:1008700097D1010A01E194D1050A01E191D1060A5B
:1008800001E158D1080A01E151D1050A01E14ED137
:100890000A0A01E14BD1110A01E127D1010A01E164
:1008A00024D1190A01E1D7D0070A01E1CFD0050A06
:1008B00001E1CCD0030A01E1C9D0250A01E1C4D08D
:1008C000310A01E1B3D01F0A01E1B0D0010A01E110
:1008D0009DD01D0A5FE0340A01E0F8D151EC13F01D
:1008E000DE6ADD6A3CEC10F0020EEBEC10F03BE24D
:1008F0008A0E6DEC13F0800EE66E0F0E0EEC12F009
:1009000009EC12F0670EE66EE66A200E4FEC14F06A
:10091000E66A35EC12F0860E40EC13F0BB0E4FEC9D
:1009200014F0580EE66E050E0EEC12F0A90EE66EEF
:100930000A0E0EEC12F0380EEEEC11F0390EEEEC61
:1009400011F0F7EC10F0A80EE1EC11F0C80EEAEC93
:100950000FF0F7EC10F0A90EE1EC11F0DF2A010E18
:10096000C1E3DB2ABFD7FA0EE66E070EE66E240E51
:100970004FEC14F00A0EEEEC11F030EC14F0F7EC42
:1009800010F0A90E4FEC14F0E66AE66AE66AB6ECDF
:1009900012F069D1040E2EEC12F0830EF6EC11F079
:1009A000880EF6EC11F0890EF6EC11F08A0EF6ECDA
:1009B00011F0060E2EEC12F060EC14F0E66AE66A16
:1009C000200EE66EE66A32EC10F0A60EE66E840E9D
:1009D000EAEC11F0A60EE66E880EEAEC11F081EC5E
:1009E00014F0A60EE66E820EEAEC11F0B5EC13F0F0
:1009F000ECEC0FF065EC14F0A60EE66E940EE66ECD
:100A0000E66A040EE66EE9EC16F02DD1050E2EEC2A
:100A100012F03F0EE66EE66E0C0EEFEC13F0040ED5
:100A20002EEC12F08F0EE66EE66E06D0040E2EEC63
:100A300012F0800EE66EE66A0C0EEFEC13F0B5ECE9
:100A400013F003EC13F0A8D056EC12F0090EE4EC0E
:100A500011F01E0E06D1030EE66E020EE66ED950A0
:100A6000020FE66E000EDA20E66E070EE66E200E2E
:100A7000E66EE66AE66AFD0EDBCFE6FFFE0EDBCF32
:100A8000E6FFD9EC0DF0006E0A0EE15E0050D9ECE5
:100A900013F0030EDB50310B006E310E005C07E3E8
:100AA000020EDB50300B016E300E015C12E2D9EC0D
:100AB00011F0E66A05EC10F0DE6ADD6A3CEC10F03D
:100AC000070EEBEC10F00FE255EC13F0F7E3DB2A26
:100AD000F5D7A4EC12F08DEC13F0D9EC11F0030E65
:100AE000E66E05EC10F08DEC13F056EC12F0FD0EF6
:100AF000DB50120A0DE1DE6ADD6A3CEC10F0080EF4
:100B0000EBEC10F005E255EC13F0F7E3DB2AF5D738
:100B1000090EE4EC11F0060EEAEC0FF0D9EC13F03C
:100B20000B0EE4EC11F0060EEAEC0FF056EC12F0AE
:100B30001F0E30D0DE6ADD6A3CEC10F0FF0E005C68
:100B4000030E015805E255EC13F0F6E3DB2AF4D767
:100B500028EC10F0F3CF80F0F4CF81F056EC12F0D7
:100B6000DE6ADD6A3CEC10F0070EEBEC10F005E2FB
:100B700055EC13F0F7E3DB2AF5D735EC13F0000E54
:100B800000018217300E831756EC12F0090E7AEC32
:100B900013F00B0EDAEC12F0E552E5520A0E61D0BA
:100BA000FD0EDB50070807E1A4EC12F0090E78EC0B
:100BB00014F07AEC13F056EC12F0A4EC12F0FD0EE7
:100BC000DB50070803E1080EE4EC11F0090EE4EC39
:100BD00011F00A0E38EC13F02E0801E17CD00B0E58
:100BE000E4EC11F0FD0EDB50070803E1080EE4EC25
:100BF00011F065EC14F08A906ED0DE6ADD6A3CEC90
:100C000010F0FF0EEBEC10F005E255EC13F0F7E3FB
:100C1000DB2AF5D728EC10F0A8EC11F096EC12F0D6
:100C200005E255EC13F0FAE3DB2AF8D742EC14F0B6
:100C30003CEC10F0FF0EEBEC10F005E255EC13F07D
:100C4000F7E3DB2AF5D752EC14F096EC12F005E24C
:100C500055EC13F0FAE3DB2AF8D76BEC14F059ECFF
:100C600014F047EC12F0E552E552E552E55233D06C
:100C7000DE6ADD6A0AEC13F005E255EC13F0FAE3E4
:100C8000DB2AF8D728EC10F0A8EC11F096EC12F063
:100C900005E255EC13F0FAE3DB2AF8D742EC14F046
:100CA0000AEC13F005E255EC13F0FAE3DB2AF8D76F
:100CB00052EC14F096EC12F005E255EC13F0FAE366
:100CC000DB2AF8D76BEC14F04EEC13F08A906DEC45
:100CD00012F0030E03D06DEC12F0010E006E040E44
:100CE000E15C02E2E16AE552FCEF10F029EC11F060
:100CF000F50EDBA002D037EC12F0FD0EDB502C0A13
:100D000001E141D3010A01E13ED33E0A01E109D3E9
:100D1000110A01E106D32D0A01E1BCD2220A01E148
:100D2000B9D21F0A01E1B6D21A0A01E1B3D20E0A02
:100D300001E1B0D20A0A01E177D2050A01E174D2D9
:100D4000030A01E171D2010A01E17BD10C0A01E140
:100D500078D1040A01E175D1070A01E172D1010AD3
:100D600001E16FD12B0A01E16CD1330A01E1F0D02E
:100D7000030A01E1EDD01F0A01E1EAD0010A01E115
:100D8000A6D0290A04E06DEC12F0030E65D377ECCF
:100D900010F005E186EC14F01A0E6DEC13F0040E61
:100DA000DB6A2BEC10F0E8AE02D0E73402D0E7505B
:100DB000005C01E37ED026EC12F002EC11F0FDE1C4
:100DC000ECEC13F0070E12EC12F003E0B1EC10F0B3
:100DD000FDE102EC10F0DE6ADD6A20EC14F05EE268
:100DE000006AD9EC10F082EC11F00ABE0B68020E1A
:100DF00070EC12F00A501E24086E0B501F20096E72
:100E000017EC11F003E0B1EC10F0FDE178EC12F01A
:100E1000040EDBCF12F0136A12BE1368020E70ECE0
:100E200012F012501E24106E13501F20116E010E6E
:100E30001026000E1122F70EDB50102413EC14F0D4
:100E40001120EA6EEFCF0CF00D6A0E6A0F6A0C0EDD
:100E50001F0B07E0D8900C360D360E360F36E8061D
:100E6000F9E10C5000120D5001120E5002120F50F9
:100E70000312DECF14F0DDCF15F0166A176A145096
:100E80000012155001121650021217500312FEECF8
:100E900011F0DF2A010EA1E3DB2A9FD7E66A35ECC9
:100EA00012F083EC13F083EC13F00C0E6AEC10F0EC
:100EB00078D777EC10F001E0C7D247EC13F0E66A80
:100EC000010EE66E040EE66EB6EC12F0A8D160ECF0
:100ED00014F002EC12F0C5EC11F0EECFE6FFEFCF0C
:100EE000E6FF32EC10F0040EDB6ADBCF00F0F60E0A
:100EF000DB50FE0FE76E0018E8AE02D0E73402D0F8
:100F0000E750005C12E2010EB8EC10F008BE096870
:100F1000C8EC10F002BE03680BEC14F00D0EEFEC01
:100F200013F0020E6AEC10F0E0D7010EB8EC10F0EE
:100F300008BE0968C8EC10F002BE036814EC10F09B
:100F40004DEC12F0000EE66EE66A73EC16F069D115
:100F5000DEEC13F0060E2EEC12F0000EE66EE66AE2
:100F60000C0EEFEC13F060EC14F002EC12F0BDECA0
:100F700012F0040EDB6A2BEC10F0E8AE02D0E7347E
:100F800002D0E750005C01E35FD2DE6ADD6A20EC4C
:100F900014F039E2010EE76EF70EDBCF0AF0F80E1F
:100FA000DBCF0BF0E7500A26000E0B22040EDBCF3E
:100FB0000CF00D6A0CBE0D680A500C24086E0B5024
:100FC0000D20096EDE500824E96EDD500920EA6E1E
:100FD000AAEC12F004BE0568F70EDB500424026E82
:100FE000F80EDB500520036EDE500224E96EDD5062
:100FF0000320EA6EEF50D0EC10F00D0EEFEC13F082
:1010000091EC11F0C4D7070EB8EC10F008BE0968D7
:10101000C8EC10F002BE0368C4EC12F0060EE9261C
:10102000000EEA22EF504DEC12F02DEC11F0090EFB
:10103000EFEC10F0090EEFEC10F0080E6AEC10F077
:101040009AD7040EDB6A2BEC10F0E8AE02D0E7343E
:1010500002D0E750005C01E380D096EC11F006BEB0
:1010600007688BEC12F002BE036881EC12F0FD0EF3
:10107000DB502E0A06E1180E7AEC13F0AFEC11F0FB
:1010800002D0BAEC13F0E552E552E8EC12F008BEDB
:10109000096817EC10F004BE05685BEC10F002E183
:1010A0000350011855E0E9EC13F065EC14F0A0ECE6
:1010B00011F000AE03D0016802680368CBEC12F0B7
:1010C000FD0EDB50050816E1A0EC11F000AE03D0D8
:1010D0000168026803689FEC10F0E86800180AE1F4
:1010E000030E011807E1025005E1035003E17DEC16
:1010F00011F00AD096EC11F006BE07688BEC12F0E6
:1011000002BE03680BEC14F07BEC14F0FD0EDB5018
:101110002E0A06E1180E7AEC13F0AFEC11F002D0B3
:10112000BAEC13F0E552E552E8EC12F008BE09689B
:1011300017EC10F004BE05685BEC10F002E1035000
:10114000011806E0B2EC11F003E1ED5001E170D1BD
:1011500028EC14F06AEC10F076D7FD0EDB50050891
:1011600001E072D1F50EDB50020B01E16DD1F60EFC
:10117000DBCF00F0016A026A036A00AE03D00168A7
:10118000026803689FEC10F0FF0E005C030E01582C
:10119000000E0258000E035801E356D1DE6ADD6AE4
:1011A0003CEC13F00868030E096E0A6A0B6AF60E2F
:1011B000DBCF0CF00D6A0E6A0F6A0CAE03D00D681F
:1011C0000E680F6802EC12F0EE500C26EE500D2265
:1011D000EE500E22EE500F220C50085C046E0D50A3
:1011E0000958056E0E500A58066E0F500B58076EC0
:1011F0000450005C0550015806500258075003582F
:1012000005E255EC13F0CCE3DB2ACAD77DEC11F0F4
:101210007BEC14F0080E78EC14F047EC12F0E55279
:10122000E552E552E55210D1040EDB6A2BEC10F0CA
:10123000E8AE02D0E73402D0E750005C01E304D10D
:10124000DE6ADD6ADFEC12F012E282EC11F00ABE17
:101250000B683BEC12F004BE05681BEC12F044EC8A
:1012600013F002E2F2EC11F091EC11F0EBD7080E62
:10127000E4EC11F0010EA7EC12F0E4EC11F0F2EC4A
:1012800011F0040EDBCFE7FFE850E726040EE7CFAE
:10129000DBFFCCD7040EDB6A2BEC10F0E8AE02D0FB
:1012A000E73402D0E750005C01E3CED0DE6ADD6AAD
:1012B0003CEC10F0080EEBEC10F012E282EC11F0B6
:1012C0000ABE0B683BEC12F004BE05681BEC12F082
:1012D00044EC13F002E2F2EC11F091EC11F0E8D7DB
:1012E000FD0EDB50060A09E0290A0AE1180EE4ECBB
:1012F00011F00A0EA7EC12F00AD0BAEC13F009D0E4
:10130000180EE4EC11F0020EEAEC0FF0170EDAEC16
:1013100012F0E552E552F2EC11F0080E6AEC10F012
:10132000BBD7040EDB6A2BEC10F0E8AE02D0E7343A
:1013300002D0E750005C01E387D0DE6ADD6A3CEC56
:1013400010F0100EEBEC10F013E282EC11F00ABE7C
:101350000B683BEC12F004BE05681BEC12F00E0E9D
:10136000EBEC10F002E2F2EC11F091EC11F0E7D7A7
:10137000080E78EC14F0EAEC0FF0F2EC11F0100E1D
:101380006AEC10F0D0D7F50EDBA002D0F2EC11F031
:10139000040EDB6A2BEC10F0E8AE02D0E73402D08A
:1013A000E750005C51E296EC11F006BE07688BEC4A
:1013B00012F002BE036881EC12F04EEC13F0E8EC80
:1013C00012F008BE096817EC10F004BE05685BEC6B
:1013D00010F002E10350011832E0DE6ADD6A3CECF5
:1013E00010F00A0EEBEC10F02AE296EC11F006BEBB
:1013F00007688BEC12F002BE036814EC10F0EEEC00
:1014000012F07BEC14F04EEC13F0E8EC12F008BE96
:10141000096817EC10F004BE05685BEC10F002E1FF
:10142000035001180CE0B2EC11F004E1ED5002E1C0
:10143000040E12D0DF2A010ED2E3DB2AD0D728EC2B
:1014400014F06AEC10F0A6D7F50EDBA204D06DEC18
:1014500012F0010E01D0020E006E050EE15C02E2F8
:10146000E16AE552FCEF10F029EC11F0F50EDBA07B
:1014700002D037EC12F0FD0EDB502C0811E0FD0E0F
:10148000DB502D080DE0FE0EDB50020A01E126D1F3
:10149000010A01E1ACD02A0A05E0E66AF6EC0FF099
:1014A000030E5BD186EC14F05A0E6DEC13F0020EB5
:1014B000DB6A2BEC10F0E8AE02D0E73402D0E75044
:1014C000005C01E38FD026EC12F002EC11F0FDE19C
:1014D000ECEC13F0070E12EC12F003E0B1EC10F09C
:1014E000FDE102EC10F0030EDB6ADBCF00F0040E2E
:1014F000E76E0018E8AE02D0E73402D0E750005C97
:101500004EE2006AD9EC10F06CEC11F0086E096A3A
:1015100008BE096817EC11F003E0B1EC10F0FDE132
:1015200078EC12F06CEC11F0010F0E6E0F6A0EBE2B
:101530000F68F70EDB500E2413EC14F00F20EA6E48
:10154000EFCF0AF00B6A0C6A0D6A0C0E1F0B07E056
:10155000D8900A360B360C360D36E806F9E10A50FB
:1015600000120B5001120C5002120D500312030E08
:10157000DBCF10F0116A126A136A10AE03D0116843
:10158000126813681050001211500112125002120A
:1015900013500312FEEC11F0030EDB2AA6D7E66A05
:1015A00035EC12F0030EDB6ADBCF00F0040EE76EC1
:1015B0000018E8AE02D0E73402D0E750005C07E242
:1015C0005BEC11F07EEC14F0030EDB2AEDD7080E75
:1015D000006E020EDBCFE7FF0050E726020EE7CFDA
:1015E000DBFF67D747EC13F0E8EC11F0AED0A60EA6
:1015F000E66E9E0E7DEC13F0020EDB6A2BEC10F013
:10160000E8AE02D0E73402D0E750005C01E39DD0A1
:10161000020EDBCF04F0056A04BE0568A3EC13F0EC
:10162000020EDBCF04F0056A04BE056859EC13F026
:10163000CAEC11F002BE036814EC10F0006E016AEF
:10164000E8500E0E011200C0E6FF8EEC12F0A80E5C
:101650004BEC14F0A60EE66E840EEAEC11F0FD0ED3
:10166000DB0402E181EC14F0A60EE66E820EEAECD9
:1016700011F041EC10F0A60EC4EC13F0E76E040E6E
:10168000E7CFDBFFDB50020B02081DE1760EE96EAF
:10169000000EEA6EEE500001725D006EEE5073595E
:1016A000016EEE507459026EEE507559036ED8906B
:1016B000E850000A07E6050EEBEC10F0000E0258A9
:1016C000000E0358D8E3010EEAEC0FF0A60EE66E0A
:1016D000940EEAEC11F0020EDB2A90D7020EDB6AC0
:1016E0002BEC10F0E8AE02D0E73402D0E750005CFB
:1016F0002CE245EC11F000BE01681AEC10F0EF503E
:10170000E66EE66A030EC1EC13F0FD0EDB50050A2F
:1017100006E0080A04E0050A02E01A0A02E1180ECF
:1017200001D0080E78EC14F038EC13F0050A06E04E
:10173000170A04E01A0A05E1170E01D00A0EE4ECBC
:1017400011F028EC14F0DB2ACBD7F50EDBA204D085
:101750006DEC12F0010E01D0020E006E050EE15C80
:1017600002E2E16AE552FCEF10F030EC13F0030EF8
:10177000E126F50EDBA002D037EC12F0FD0EDB50B7
:101780002C0A01E1F2D1010A01E1EFD1200A01E1C5
:101790008AD11E0A01E187D13C0A01E184D1230AE2
:1017A00001E181D1050A01E17ED1030A01E17BD18A
:1017B000010A01E178D1190A01E175D11A0A01E1A2
:1017C00072D10F0A01E16FD1050A01E16CD1040A5F
:1017D00001E169D1050A01E166D1070A01E163D19E
:1017E0002A0A01E160D12B0A01E1F3D0180A65E071
:1017F000030A63E01F0A61E0010A5FE0290A04E0CE
:101800006DEC12F0030ECED186EC14F0070E12EC44
:1018100012F003E0B1EC10F0FDE102EC10F0DF6A31
:10182000DFCF00F0F60EDB407F0BE76E0018E8AE6E
:1018300002D0E73402D0E750005C01E3ABD18A0E5E
:101840006DEC13F026EC12F002EC11F0FDE1ECEC83
:1018500013F000018429066E076A06BE07689AEC39
:1018600012F002BE036814EC10F000010410006EC8
:101870009BEC11F005C0DBFF060E006ED9EC10F0FA
:10188000010EDBCF04F0020EDBCF05F0066A076A1B
:10189000040E1F0B03E0B1EC10F0FDE1B3DB2BEC09
:1018A00014F0860E40EC13F07EEC14F047EC13F0CD
:1018B000E8EC11F0020EDF26B3D7DEEC13F0FD0EDC
:1018C000DB0408E1E66AEF0EEAEC11F0E66AF80ED6
:1018D000EAEC11F00001846BCFEC11F0E8AE02D01D
:1018E000E73402D0E750845D01E354D184C000F0B6
:1018F000016A00BE0168026A036ACBEC12F084C080
:1019000006F0076A06BE07689AEC12F002BE03688A
:101910000BEC14F052EC12F0FD0EDB0405E1F60EB8
:10192000E66E2A0EEAEC11F084C004F0056A04BEEB
:101930000568E4EC10F0016EEE500620026EEE50E9
:101940000720036E002A000E012202220322DEEC91
:1019500010F0086E050EE15E0850010EE76EF70EFE
:10196000DBCF08F0F80EDBCF09F0E7500826000EB9
:10197000092284C00AF00B6A0ABE0B6808500A24C8
:10198000E96E09500B20EA6EEFCF06F006C007F0B3
:10199000066A010EE76EF70EDBCF02F0F80EDBCF22
:1019A00003F0E7500226000E032284C004F0056A0B
:1019B00004BE056802500424E96E03500520EA6E57
:1019C000EF50D0EC10F052EC12F0020E0001842720
:1019D00083D7F50EDBA010D056EC12F0DF6AB9EC1D
:1019E00011F0E8AE02D0E73402D0E750005C04E228
:1019F000F2EC11F0DF2AF3D70001846BCFEC11F089
:101A0000E8AE02D0E73402D0E750845D01E3C2D0F3
:101A100010EC13F0E8AE02D0E73402D0E750005CDF
:101A20000EE28429066E076A06BE07689AEC12F079
:101A300002BE036881EC12F0080E7AEC13F0F90E86
:101A4000DBCFE6FF000184417F0BE552E724070866
:101A500025E18429066E076A06BE0768F2DA84C0AB
:101A600008F0096A08BE096884EC12F0EF5004100F
:101A7000026E05C003F0FF0E02160F0E0316825110
:101A80000210006E83510310016E9BEC11F001C037
:101A9000DBFF65EC12F0080E7AEC13F028EC14F082
:101AA00000018427ABD7F50EDBA010D056EC12F066
:101AB000DF6AB9EC11F0E8AE02D0E73402D0E750AB
:101AC000005C04E2F2EC11F0DF2AF3D70001846B32
:101AD000CFEC11F0E8AE02D0E73402D0E750845DDD
:101AE00059E210EC13F0E8AE02D0E73402D0E75030
:101AF000005C03E3BADB070833E18429066E076A5A
:101B000006BE07689AEC12F002BE03688DDA000187
:101B10000410006E05C001F09BEC11F005C0DBFF66
:101B200065EC12F0FD0EDB502F0A02E0010A03E122
:101B3000180EE4EC11F0080EE4EC11F00A0E38EC8B
:101B400013F02E0A0AE0010A06E0230A04E0050A5F
:101B500002E0030A05E10E0E01D00A0EE4EC11F0DA
:101B600028EC14F000018427B3D7D2EC12F0EFCFA9
:101B700002F002C003F0026A4CDBEF5000010210D9
:101B8000006E03C001F0D7DB03C0DBFF65EC12F091
:101B90004EEC13F0F50EDBA204D06DEC12F0010E4A
:101BA00001D0020E006E030EE15C02E2E16AE55232
:101BB00023D34FDB020EDB6AF50EDBA002D037EC3D
:101BC00012F0FE0EDB50020A01E19AD0010A01E197
:101BD0007ED0060A01E01AD188DB000EEE58F80E1E
:101BE000EE58000EEE583EE351EC13F026EC12F0E6
:101BF00009DBFEE1ECEC13F0E66A03EC14F0800E76
:101C0000E66E35EC12F0020EDB6A25DAE8AE02D0A1
:101C1000E73402D0E750005C01E30AD178DB68ECDE
:101C200014F0200EE66E3C0E07EC14F093EC12F06C
:101C3000F7DA2BDB00BE0168EBEC12F0DBCF02F031
:101C4000040EDBCF03F0000E0216FF0E031615DBA9
:101C500000BE0168EFD902C0EFFF2BEC14F0B8DB37
:101C6000EFDAD3D751EC13F026EC12F0CBDAFEE129
:101C7000ECEC13F0060ED6DB02E073DAFEE1B1EC19
:101C800012F098EC13F017DB68EC14F098EC13F0FA
:101C90003EDB68EC14F0DE6ADD6A20EC14F015E23D
:101CA000CBEC13F0BDDA76DB02BE036852DAEBEC64
:101CB00012F0DBCF04F0040E05DB6CDB02BE036820
:101CC00059EC12F0EAE3DB2AE8D782DBB1D09ADBE9
:101CD000BDEC12F0020EDB6ABED9E8AE02D0E734EA
:101CE00002D0E750005C01E3A3D0090E78DAE66E7B
:101CF000CCDA00BE0168E3EC12F0020EDB2AECD76E
:101D0000FD0EDB502C0809E1F4DA06E1010EEE18B5
:101D100003E1EE5001E1EE500DE0FD0EDB502D0829
:101D200017E1E7DA15E1030EEE1812E1EE5010E1CB
:101D3000EE500EE117EC14F0DBCF01F001C000F023
:101D4000016AD2EC12F000C0EFFF63DA36DB70D02C
:101D5000CCDA200EEE58000EEE58000EEE582BE3B3
:101D6000A5DBF50EDBA013D0DE6ADD6A85D916ECA3
:101D700013F0000E025E200E035A0250005C035066
:101D8000015805E255EC13F0F1E3DB2AEFD7020E20
:101D9000DB6A61D9E8AE02D0E73402D0E750005CDC
:101DA00047E2CDDB00BE01681DEC13F000BE016808
:101DB0001CEC14F0EED7F50EDBA014D0FD0EDB50BA
:101DC0002C0804E0FD0EDB502D0801E10BDB40D9AF
:101DD000DE6ADD6A51D964DA05E255EC13F0FAE304
:101DE000DB2AF8D7020EDB6A36D9E8AE02D0E73438
:101DF00002D0E750005C1CE2A2DB00BE01681DECD3
:101E000013F000BE01681CEC14F0EED7020EDB6A82
:101E100022D9E8AE02D0E73402D0E750005C08E2F5
:101E200034DA00BE016806D9EF6A020EDB2AF0D769
:101E3000F50EDBA202D0E66AD9D8050EE15C02E21B
:101E4000E16AE552E16EE552E7CFD9FF120001DA0F
:101E5000040EDB6AF50EDBB00ADBFE0EDB50020A75
:101E600066E0010A3BE0060A01E091D051EC13F074
:101E7000F00EE66E070ED2DACCDA060ED3DA02E006
:101E800070D9FEE16EDBDE6ADD6A99DB08E213DA07
:101E900068EC14F0DF2A010EF8E3DB2AF6D7DE6ADD
:101EA000DD6A8DDB01E385D0CBEC13F0CBDB0EECF0
:101EB00014F002BE0368020E4CD9BCD8020EDBCF70
:101EC000EFFFDBCF04F0030EFDD90EEC14F002BEE1
:101ED0000368020EEEDAE5E3DB2AE3D7A60EE66E30
:101EE0009E0E7DEC13F0040EDB6AB5D8E8AE02D08E
:101EF000E73402D0E750005C5CE223EC14F004BE4F
:101F00000568A3EC13F023EC14F004BE0568D1DBE4
:101F1000A60EE66E800E5EDAA80EC4EC13F0E66E36
:101F200043DA00BE01684FDB040EDB2ADED7F50E74
:101F3000DB50010B19E066DAD880000EEE54000E7B
:101F4000EE54000EEE54000EEE540EE2AFD961D9FD
:101F5000E552E750EF6EDE6ADD6A8ED8A1D904E261
:101F6000A4DBFBE3DB2AF9D7040EDB6A74D8E8AE06
:101F700002D0E73402D0E750005C1BE297D914DAB4
:101F800000BE016820DB2EDA040EDB2AEFD7040E38
:101F9000DB6A61D8E8AE02D0E73402D0E750005CDB
:101FA00008E202DA00BE016845D8EF6A040EDB2AB7
:101FB000F0D7F50EDBA202D0E66A18D8000E006E4C
:101FC000050EE15C02E2E16AE55216D1E66A30EC08
:101FD00018F0EAD35CDAE8D316DBE552E5521200DA
:101FE000E66E32EC16F0E552E5521200FE0EDBCF43
:101FF000E6FFFD0EDBCFE6FF8DEC14F0E552E55277
:10200000E552120075DAFEEF11F0060EE66EECEC0A
:1020100016F0CAD389EC14F00416EE500516EE50F3
:102020000616EE5007161200AFDAEF5012006CDA07
:10203000AAEF12F0F70EDB500024F5DB0120EA6E68
:102040001200F70EDB500624EEDB072029EF13F019
:10205000040EFBEF12F0DBCF00F0F60EDB50E76E64
:1020600000181200FE0EDBCFE6FFC9EC15F0006E83
:10207000050EE15E00501200DECF00F0DDCF01F072
:10208000120072C076F073C077F074C078F075C03B
:1020900079F01200000EE66EE66AE66A1200D2DA05
:1020A000020EDBCF00F0030EDBCF01F0040EDB28C5
:1020B000086E096A1200F70EDB500424B4DB052019
:1020C000EA6EEF5000010610026E07C003F0E85000
:1020D00000181200006E040EDBCFE7FF0050E72669
:1020E000040EE7CFDBFF12000001EEEF12F0F90E55
:1020F000DBCF00F0FA0EDBCF01F0FB0EDBCF02F0FE
:10210000FC0EDBCF03F0600E236E246A256A266A7C
:1021100000C01EF001C01FF002C020F003C021F07B
:1021200010EC20F01AC000F01BC001F01CC002F03F
:102130001DC003F01A501B101C101D10120062D994
:10214000EE500026EE500122EE500222EE50032205
:102150001200C6D902501E24006E03501F20016ECB
:102160001200D8900436053606360736E806120007
:10217000E76EF70EDBCF06F0F80EDBCF07F0E75087
:102180000626000E0722040EDBCF08F0096A1200B3
:1021900006500824E96E075009205BDA0EEF14F0B0
:1021A00000010610006E07C001F0E66E07C0E6FFF2
:1021B0001200016A200E026E036A120013DBFE0E8B
:1021C000DBCFE6FFC9EF15F0066AA3DB0424006E3F
:1021D000EE5005201200005C000E01581200E66E61
:1021E000040EE66E5FEC17F0E552E5521200610E48
:1021F000E66EE70EE66E1200E16E0050E552E7CFA4
:10220000D9FF1200D8900732063205320432E806B0
:102210001200F70EDBCFE9FFF80EDBCFEAFF12006A
:10222000030EF3CFDBFF040EF4CFDBFF12006CD9FB
:10223000EFCF04F0056A066A076A040E1F0B12004E
:10224000020EDBCFE7FFE850E726020EE7CFDBFF09
:10225000120006DA050EE1261200000EE66EE66AAE
:1022600073EC16F0E552E5521200F90EDBCFE6FFF3
:1022700084417F0BE552E724120003C002F0036A99
:10228000020EDB28006E016A1200020EDBCF00F0A6
:10229000016A1200016A026A036A0E0E011212003C
:1022A000C5D90250005C035001581200050EA3D995
:1022B000F350E66E1200B60E40EF13F0E66EEB0E32
:1022C000E66E1200DBCF05F0000E0416FF0E0516B9
:1022D00005C004F0056A1200020EDBCFE6FF030E14
:1022E000DB50E824E552E72412008CD8000EEE5CA7
:1022F000120088D8E868EE18120080C0E6FF81C09E
:10230000E6FF1200040EDBCF0AF00B6A1200B60ED5
:10231000E66E0B0EE66E1200B60EE66EDB0EE66E95
:102320001200020EDE26000EDD221200040EDB2853
:10233000066E076A1200010E00C0DBFF020E1200DB
:10234000040EDB407F0B006E016A026A036A120012
:10235000F3CF80F0F4CF81F0DE6ADD6A12000A0E5E
:10236000DAEF12F0D9CFE9FFDACFEAFF090EEE1863
:102370001200DFCF00F0F90EDB50E76E00181200FC
:10238000F3CF82F0F4CF83F01200EECFE6FFEECF72
:10239000E6FF1200020EDBCF02F0036A1200F60E17
:1023A000DB50E76E84191200040EDBCF00F0016AE7
:1023B0001200E6683F0EE66E1200030EDBCFEFFF61
:1023C00012006DDA48DA03D2E66E060EF0EF0FF077
:1023D000C6D9FDD1E66EE66AECEF0FF0E66E3B0E75
:1023E00007EF14F0060EE66EF0EF0FF0E66EE66A09
:1023F0000C0EF5D9BAD9F0DD65EF14F0F3D930EC55
:1024000018F0D2D1D950F90FE96EFF0EDA20EA6E3A
:102410001200900EE66E010E07EF14F0E66E200E2D
:102420004FEF14F0006EC5DE04680568066AF2DD41
:10243000040E1F0B1200DE500424026EDD50052036
:10244000036EF2DDADDE57DA3CEF10F0006AB1DE6C
:10245000046A056A0668DEDD0C0E1200E66EE66AA6
:102460003C0EE66EE66A32EF10F0CDD9B0D1010E27
:10247000E66EF6EF0FF0DE500A24086EDD500B20FA
:10248000096E010E0826000E092217EF10F0E66E05
:10249000E66AE66AE66A0AEF1FF026DE23DAF1DD75
:1024A000FBEF13F01FDAA7D92DEF11F0F3DD05EFE5
:1024B00010F04FDE010E0026000E0122BBDD04C02D
:1024C000EFFFC9D9DF2A010E1200010EDBCFE6FFB4
:1024D000020EDBCFE6FFC1EF13F0E66AF6EF0FF076
:1024E000206E216ADECF25F0DDCF26F034EF20F01C
:1024F0000450001205500112065002120750031238
:10250000120089D97BEF14F0F70EDB5008248BD929
:102510000920EA6E120095DD0EEF14F001C0E6FF0F
:10252000E66AECEF0FF097D9CFEF17F0A5DD050EB7
:10253000EBEF10F086DD84C002F0036A120077D959
:10254000DBCF03F03DEF11F034DF7BEF14F042DD21
:102550000E0E1200EFCF06F006C007F0066A23EF5A
:1025600014F050DD800EE66E03EF14F02FDDE66A06
:10257000E66AE66AE66A30EF18F0EECFE6FF05DFBE
:10258000EFCFE6FF32EF10F0F70EDB5002244BD90D
:102590000320EA6E1200D3DD11DE046E050EE15E4B
:1025A00004501200010EE76E34DEE750E926000EFB
:1025B000EA221200E66E060EE66E32EF16F05CDDE1
:1025C000040EEBEF10F036DDE552E750EF6E12002F
:1025D0003FDD4FEF10F02EDDDDEF11F00410006E47
:1025E00005C001F0E66E05C0E6FF120053DDF4DC25
:1025F000020EEFEF10F0E66E060EE66EEFEC16F050
:10260000E552E5521200040EE66EE9EC16F0E552D2
:10261000E552120031DDFF0E005C010E0158120080
:1026200024DE006E040EE76E00181200F90EDBCFF8
:1026300002F0FA0EDBCF03F01200FCDC02C0EFFF69
:1026400045EF11F0020EF3CFDBFF030EF4CFDBFFFB
:102650001200EA6EEFCF04F004C005F0046A120025
:10266000D9CFE6FFE1CFD9FF1200F2DCC0EF11F0C5
:10267000B1DCFD0EDB501200FFDC026A036A1200BF
:10268000E66E1B0EE66E1200060EEBEF10F0E8D8B9
:10269000E2D8E1D8ACDDA90EE1EF11F00AD9EAEFFA
:1026A0000FF0D9D8D8D8E8EF11F09CDEDF2A010E60
:1026B0001200066A2ED90426EE500522EE5006229C
:1026C000EE50072205C000F00001036AE3DD05C0FB
:1026D000E6FF24DFAA0E4BEF14F0E66EE66A240E46
:1026E000DED80A0EEEEF11F0E66E0E0E73DEA70EC8
:1026F0004BEF14F069DE65EF14F06CDEA60EE66EAB
:102700009C0EEAEF11F003DEF9D806DEF7D8B60E1C
:10271000D5DDF4D8D0DD7EEF14F0010E55DE070EC6
:10272000E7D8E6D857DC010E4FDE070EE4EF11F0D4
:10273000960EA6DFCDD8F0DDCBD8D60EE66EDB0E3A
:10274000E66E68EF14F040DDEE500620EE500720F4
:10275000A1DD00C0E6FFE2DEA90E4BEF14F0E66A51
:10276000010EE66E040E4FEF14F094DC35DC89DCCC
:102770004AEF10F0080E28DE0A0E89DEE552E55217
:102780001200E66E05EF10F0E66E500E23DEF50E39
:1027900082D8F6EF12F070DF008A3C0E0112880E2C
:1027A00002122CDE93EF12F0E552E552E552E552AB
:1027B000120093DE8AD85BDE65EF14F0A60EE66E9B
:1027C0008E0E08DEA60EE66E8C0EEAEF11F02BEFF1
:1027D00014F083DE37EF12F015DC09EF12F0E66E2D
:1027E000ECEF0FF000C0E6FF01C0E6FF02C0E6FF1D
:1027F00003C0E6FF12008A82020EEAEC0FF08A9212
:10280000010EEAEF0FF0030E59DDE6EF0FF0E66E72
:10281000880E4FEF14F008DC74EF10F0040EDBCFDD
:1028200002F0036A1200E96EF80EDB50120010DCB1
:10283000F7DC030E040E1200CEDED4DD20EF11F023
:102840001BDC44EF13F0040EDBCF04F0056A12002A
:10285000C9DD020E1200E66AE66AE66AE6EF0FF0EC
:10286000580EE66E050EDADD380EB8DDA90EE66EFE
:102870000A0ED4DD390EB2DDBADCA80EA2DD020EDE
:10288000EAEF0FF0F2DEA5DFADDD090E33DFA1DFE9
:10289000DE6ADD6A1200E66E6E0EEAEF11F0E66E99
:1028A000E6EF0FF02ADD040E6CDFF8DEDE6ADD6A8B
:1028B0001200080E89DD020E4ADE86DD010E1200CE
:1028C000A60EE66E8E0E7DEF13F00A0EEAEF0FF005
:1028D000BA0EE1EF11F082C0E6FF83C0E6FF040EFE
:1028E000C1EF13F00F0E7BDFE66A030EF0EF0FF07F
:1028F0006BDD080E1200020EC1EF13F0BB0EE1EF0C
:1029000011F0550EF1DEAA0E74EF13F028DFE8EF98
:0A29100011F0076A77DDEE501200A7
:06291A00D9CFE6FFE1CF7A
:10292000D9FF020EE126FC0EDB0401E0CCD093902F
:1029300093928A908A920000FE0EDB50060A04E011
:102940002F0A01E003D004D08A9602D08A9400D0E6
:1029500072C076F073C077F074C078F075C079F00B
:10296000760EE96E000EEA6EEE500001725D006EAA
:10297000EE5000017359016EEE5000017459026E61
:10298000EE5000017559036ED8900350000A08E616
:10299000640E005C000E0158000E0258000E035831
:1029A00002E2DED7DDD7FE0EDB50290A05E02F0A52
:1029B00001E05BD08A945BD08A9472C076F073C0D9
:1029C00077F074C078F075C079F0760EE96E000E7D
:1029D000EA6EEE500001725D006EEE500001735918
:1029E000016EEE5000017459026EEE5000017559EF
:1029F000036ED8900350000A08E6010E005C000E3A
:102A00000158000E0258000E035802E2DED7DDD74F
:102A10008A9672C076F073C077F074C078F075C093
:102A200079F0760EE96E000EEA6EEE500001725DEE
:102A3000006EEE5000017359016EEE5000017459A2
:102A4000026EEE5000017559036ED8900350000AD3
:102A500008E6190E005C000E0158000E0258000E28
:102A6000035802E2DED7DDD702D08A9600D072C0CA
:102A700076F073C077F074C078F075C079F0760E98
:102A8000E96E000EEA6EEE500001725D006EEE50CF
:102A900000017359016EEE5000017459026EEE5040
:102AA00000017559036ED8900350000A08E6640EC1
:102AB000005C000E0158000E0258000E035802E29E
:102AC000DED7DDD75CD08A868A8A72C076F073C082
:102AD00077F074C078F075C079F0760EE96E000E6C
:102AE000EA6EEE500001725D006EEE500001735907
:102AF000016EEE5000017459026EEE5000017559DE
:102B0000036ED8900350000A08E6140E005C000E15
:102B10000158000E0258000E035802E2DED7DDD73E
:102B20008A9A8A849380938272C076F073C077F019
:102B300074C078F075C079F0760EE96E000EEA6E1A
:102B4000EE500001725D006EEE5000017359016E8F
:102B5000EE5000017459026EEE5000017559036E7B
:102B6000D8900350000A08E6140E005C000E0158CD
:102B7000000E0258000E035802E2DED7DDD7020E27
:102B8000E15C02E2E16AE552E16EE552E7CFD9FF8E
:102B90001200D9CFE6FFE1CFD9FF040EE126FE0EE9
:102BA000DB50020A26E0010A53E1BEDA06C000F05B
:102BB0000001026A036AC5DA06C0E6FFD4DAF80E3D
:102BC000CDDAB2DA05C000F00001036ABADA05C056
:102BD000E6FFC9DAF70EC2DAFA0EDBCF00F0FB0E21
:102BE000FC0EFD0EAEDA00C0E6FFBDDAF60EB6DA78
:102BF0002FD0DE6ADE6ADE6ADD6ADD52DD52FA0E51
:102C0000DBCF00F0FB0EDBCF01F0FC0EDBCF02F0E0
:102C1000FD0EDBCF03F0D9CFE9FFDACFEAFF00509A
:102C2000EE5C0150EE580250EE580350EE5810E2A0
:102C3000060EE66EE66E16D8E552E552D9CFE9FFEC
:102C4000DACFEAFFEE2A000EEE22EE22EE22D7D7EE
:102C5000040EE15C02E2E16AE552E16EE552E7CF83
:102C6000D9FF1200D9CFE6FFE1CFD9FFE65293900A
:102C700093928A928A90DF6ADFCF00F0FE0EDB50DB
:102C8000E76E0018E8AE02D0E73402D0E750005CEF
:102C900015E28A820000FD0EDBA002D08A8001D0FE
:102CA0008A90FD0EDBCFF3FFF390F342FD0EF3CFDE
:102CB000DBFF00008A920000DF2ADED7DF6ADFCF69
:102CC00000F00A0EE76E0018E8AE02D0E73402D03A
:102CD000E750005C03E200D0DF2AF1D7E552E5526D
:102CE000E7CFD9FF1200D9CFE6FFE1CFD9FFE652F7
:102CF000DF6ADFCF00F0100EE76E0018E8AE02D0FA
:102D0000E73402D0E750005C1DE28A820000FD0E2D
:102D1000DB50010B02E08A8001D08A90D950FD0F70
:102D2000E96EFF0EDA20EA6E010E0F0B06E0EC52A0
:102D3000D890ED32EF32E806FAE100008A92000006
:102D4000DF2AD7D70000E552E552E7CFD9FF1200BE
:102D5000D9CFE6FFE1CFD9FFE6528A8200008A9000
:102D600000008A920000DF6ADFCF00F00E0EE76EEF
:102D70000018E8AE02D0E73402D0E750005C1DE254
:102D80008A820000FD0EDB50010B02E08A8001D038
:102D90008A90D950FD0FE96EFF0EDA20EA6E010E1F
:102DA0000F0B06E0EC52D890ED32EF32E806FAE174
:102DB00000008A920000DF2AD7D78A8200008A901A
:102DC00000008A9200000000E552E552E7CFD9FFEB
:102DD000120096D988DFBBD193D9BADFB8D1D9CF49
:102DE000E6FFE1CFD9FF030EE126FD0EDBCFE6FFC4
:102DF000FE0EDBCFE6FF36DFE552E5529380DF6A59
:102E0000DFCF00F00A0EE76E0018E8AE02D0E7341C
:102E100002D0E750005C03E200D0DF2AF1D7010EB8
:102E2000DB6A020EDB6A8A8200008A920000DF6A97
:102E3000DFCF00F00E0EE76E0018E8AE02D0E734E8
:102E400002D0E750005C1FE28A8200008150010B33
:102E5000026E036ADF5002C000F003C001F005E01B
:102E6000D89000360136E804FBE1D950010FE96E35
:102E7000DACFEAFF0050EE120150ED1200008A9204
:102E80000000DF2AD5D78A8200008A920000939042
:102E90008A900000010EDBCF00F0020EDBCF01F0C4
:102EA00000C0F3FF01C0F4FF00D0030EE15C02E2BA
:102EB000E16AE552E16EE552E7CFD9FF1200D9CFC2
:102EC000E6FFE1CFD9FF020EE126FD0EDBCFE6FFE4
:102ED000FE0EDBCFE6FFC6DEE552E552DF6ADFCF4E
:102EE00000F0080EE76E0018E8AE02D0E73402D01A
:102EF000E750005C08E28A8200008A9000008A9213
:102F00000000DF2AECD79380DF6ADFCF00F00A0EE3
:102F1000E76E0018E8AE02D0E73402D0E750005C5C
:102F200003E200D0DF2AF1D7010EDB6ADF6ADFCFD0
:102F300000F0080EE76E0018E8AE02D0E73402D0C9
:102F4000E750005C1AE28A8200008150010BDF52D8
:102F500006E0DFCFF3FFE846FE0BF306FCE1006E70
:102F6000010EDBCFE7FF0050E712010EE7CFDBFFDA
:102F700000008A920000DF2ADAD793908A9000003E
:102F8000010EDB5000D0006E020EE15C02E2E16A4D
:102F9000E552E16E0050E552E7CFD9FF1200D9CFDC
:102FA000E6FFE1CFD9FF030EE126010EE66E040E27
:102FB000E66E58DEE552E552010EDB6A020EDB6A70
:102FC0009380E66A080EE66E4DDEE552E55200009B
:102FD000DF6ADFCF00F0100EE76E0018E8AE02D017
:102FE000E73402D0E750005C23E28A820000000050
:102FF0008150010B026E036ADF5002C000F003C073
:1030000001F005E0D89000360136E804FBE1D95024
:10301000010FE96EDACFEAFF0050EE120150ED1217
:103020008A9200000000000000000000DF2AD1D7D3
:1030300093908A900000010EDBCF00F0020EDBCFF0
:1030400001F000C0F3FF01C0F4FF00D0030EE15C0B
:1030500002E2E16AE552E16EE552E7CFD9FF1200E4
:10306000D9CFE6FFE1CFD9FFE652E66A040EE66E5D
:10307000F9DDE552E552DF6A180EDF5C33E28A8241
:103080000000010E006E016A026A036AD950FB0F4C
:10309000E96EFF0EDA20EA6EEE500016EE500116D1
:1030A000EE500216EE5003160050011002100310ED
:1030B00002E08A8001D08A90D950FB0FE96EFF0EA2
:1030C000DA20EA6ED890030EEB32020EEB32010EDC
:1030D000EB32EF3200008A92000000000000000096
:1030E000DF2ACAD7E552E552E7CFD9FF1200E66AD8
:1030F000040EE66E6EDEE552E552E552E552120030
:10310000D9CFE6FFE1CFD9FFFD0EDBCFE6FFFE0E04
:10311000DBCFE6FFA7DDE552E552FB0EDBCFE6FF96
:10312000FC0EDBCFE6FF1200FA0EDBCF04F0FB0E45
:10313000DBCF05F0FC0EDBCF06F0FD0EDBCF07F09A
:103140001200016A026A036A0E0E01121200E552B1
:10315000E5528A90E552E7CFD9FF1200E66E6E0E77
:0E316000E66E77EF18F001C0E6FF77EF18F08B
:02316E00070E4A
:103170008B12F80E9416938C8150400B01E0010ED7
:1031800000018B6F929092929396939A9390939260
:1031900093949296899689889288898A928A8A8657
:1031A0008A9A8A908A92F18E02D8E3EF18F0C00EC4
:1031B000F2129D809E909F80D10ECF6E1F0ECE6E1C
:1031C000010ECD6E1200E00EF212F294440ED66E95
:1031D000C30ED56E12001FDAFE0EDB50010BE81C89
:1031E000E8B08B80E8A08B90FE0EDB50020BE8402D
:1031F0007F0BE81CE8B08B82E8A08B92FE0EDB50C0
:10320000040BE840E8403F0BE81CE8B08B84E8A0E2
:103210008B9406D200DA080EE126060E0001855DC9
:1032200003E36D50020B02E05BD9DCD0400EE66E8A
:10323000000EE66E010EE66E97EC1EF0E552E552CA
:10324000E552E66ED950020FE96EDACFEAFFE55299
:10325000E750EE6EED6A020EDBCF00F0030EDBCF1F
:1032600001F0013401E3AED000500008000E01541B
:1032700001E3A8D001010051900A01E18DD0100AAC
:1032800001E17ED0F00A6EE0100A5CE0300A4DE009
:10329000100A3EE0700A2FE0100A09E0300A01E04F
:1032A00091D0050ECCD9D5D922EC04F06ED0060E03
:1032B000C6D900017A51020A10E0010A07E0060AA5
:1032C00017E1A3D9E66AE66AE6680DD09ED9FE0E3C
:1032D000E66EE6683F0EE66E06D097D9060EE66EFD
:1032E000200EE66EE66AE66AB4D9D9EC0DF09CD9F8
:1032F0000001020E64D0050E69D902E078D9FEE122
:103300006ED902E07BD9FEE194D976EC06F036D096
:10331000060E5CD902E06BD9FEE161D902E06ED9FC
:10332000FEE191D9D9EC0DF019D0050E4FD902E08C
:103330005ED9FEE154D902E061D9FEE17AD934ECDC
:103340000AF01CD0060E42D902E051D9FEE147D95D
:1033500002E054D9FEE177D927EC0FF065D901C11D
:103360007CF02ED0050E32D902E041D9FEE137D9EA
:1033700002E044D9FEE15DD9B5EC0BF055D907D098
:10338000010EE66E010EE66E34D8E552E5520101FB
:10339000266F0001010E13D0F20E006E400E016E7A
:1033A000026A00C0E6FFE66E02C0E6FF57D952ECA3
:1033B00020F0036E050EE15E03500001120E7C6FDB
:1033C000040E3DD900017C510DE004010CBF08D072
:1033D0007CC0E6FF43D967EC1EF0E552E552E552AA
:1033E00000017C6B080EE15C02E2E16AE552E16EED
:1033F00017D111D9FD0EDBCFE9FFFE0EDBCFEAFFBF
:10340000EFCF7BF000017B512A0A66E0030A62E0FD
:103410000E0A5EE00C0A5CE0030A5AE0350A56E048
:10342000030A54E0010A52E03F0A50E0010A4EE06C
:10343000030A4CE0010A4AE0070A48E0010A46E0B4
:10344000030A44E0260A42E0010A40E02D0A3CE07B
:10345000010A3AE02F0A38E0010A36E0070A34E0B0
:10346000010A32E0030A30E0010A2EE00F0A2CE0E4
:10347000010A2AE0030A28E0010A26E0070A24E0FC
:10348000010A22E0030A20E0010A1EE01F0A1CE0F4
:10349000010A1AE0030A18E0010A16E0070A14E01C
:1034A000010A12E0030A10E0010A0EE00F0A0CE024
:1034B000010A0AE0030A08E0010A06E0070A04E03C
:1034C0007B6B030E7A6F0BD0020E07D0030E05D074
:1034D000040E03D0050E01D0060E7A6F010EA0D0A7
:1034E00000017D517E1104E1100E7D6F270E7E6F6D
:1034F0007D07000E7E5B6DA207D07D517E1120E11D
:103500008B808B828B7412000001855102E1010EC9
:1035100010D0850508E0020E855D02E1040E09D099
:10352000030E855D02E1020E04D0050E855D03E108
:10353000040E1FEF1BF0060E855D02E100017F6B9C
:1035400012008150400B01E0010E00018B5D07E08D
:103550008150400B01E0010E8B6F81AC010C000C1F
:1035600004500012055001120650021207500312B7
:1035700004C108F0096A0A6A0B6A0850001209506F
:1035800001120A5002120B500312040E00C0DBFF9E
:10359000050E01C0DBFF060E02C0DBFF070E03C0F5
:1035A000DBFF05C1E6FF01C1E6FF1200E66ED95060
:1035B000040FE96EDACFEAFFEECFE6FFEECFE6FFCB
:1035C000EECFE6FFEFCFE6FF29EF1BF038D802C1C0
:1035D00000F0016A026A036A100E1F0B120003C199
:1035E00004F0056A066A076A080E1F0B1200D890DD
:1035F0000036013602360336E8061200D89004364B
:10360000053606360736E8061200030EE66E020E91
:10361000E66E2EEF1BF0D9CFE6FFE1CFD9FF120007
:10362000E552E7CFD9FF1200006E0A0EE15E0050AE
:10363000120096DF060EE66E010ED6EF1AF0E66E69
:10364000CADDE55212008CDF260EE66E010ED6EFC3
:103650001AF07BC0E6FF7AC0E6FF1200260EE66E87
:06366000010EE66E1200EF
:0A36660004011851600BE842E8422D
:10367000E842E842E842000901E012001951070A55
:1036800040E00B0A3EE0070A33E0010A23E00B0AA0
:103690001FE0020A1DE0030A19E0080A10E0010A0F
:1036A0000CE00F0A08E0030A01E0120010D9000143
:1036B000040E856F120082EF1BF0B9EF1BF007D9E3
:1036C0000001870E6C6F000E6D6F0CD0D4EF1BF0F5
:1036D00004EF1CF000D900016C6F6D6B880E6C2735
:1036E000000E6D23000186930001010E706F120021
:1036F000F2D8EA6A880FE96E000EEA221AC4EFFFD8
:1037000012001200800E0401185D32E11B51030A01
:103710001FE0010A0AE0030A29E1D9D80001740E6A
:103720006C6F3E0E6D6F120E1ED0ABD8180EF626C3
:103730003F0EB9D8020E0001F76A6C25F66E6D5186
:10374000F7220900F5CF70F00A00F5CF71F00ED026
:1037500098D81C0EF6263F0EA6D86CC0F6FF6DC09A
:10376000F7FF0800F5500001706F716B0001868350
:103770001200ADD80F0EE66E710EE66E0F0E9BD8DE
:10378000010EE66E880EE66E000E95D81AC487F01C
:1037900004011A5104E10001050E856F12000001B9
:1037A000060E856F52EF1EF00401206B216B0401A1
:1037B00018511F0B020A0DE0030A09E0010A16E185
:1037C00086D8000186A112D0040120830FD07FD8B3
:1037D0000DD04BD801E0010E5DD86EC0E9FFEA6E56
:1037E000EF50040B03E00401010E206F00016B0594
:1037F0000AE10001200E6C6F040E6D6F00018693CC
:103800000001020E706F120004011A050EE118513A
:103810001F0B00090AE15BD8030E0401195D03E1E7
:103820000001868102D00001869104011A511CE139
:1038300018511F0B020818E11C510F0B000914E06E
:1038400014D801E0010E26D8030E0401195D04E12D
:10385000840E38D8EF6E12001CAF03D033D8EF6A55
:103860001200880E2FD8EF6E120035D80F0B080DFE
:10387000F350016A000F006E040E01221C51800BF0
:10388000120025D804011A51F66EF76AD890F63660
:10389000F7361200040DF350000100246E6F000E85
:1038A00001206F6F1200F7220900F5CF6CF00A00BB
:1038B000F5CF6DF01200E66E3DEC1EF0E552E552DC
:1038C000E55212006EC0E9FF6FC0EAFF120000016E
:0E38D000010E6B6F1200FBDF04011C51120091
:0238DE006C502C
:1038E00002E0000E01D0010E00090BE004010051BE
:1038F0003C0BE842E8420D0802E18AEF1CF099EF28
:103900001CF06C5002E0000E01D0010E040901E031
:103910001FD81200D9CFE6FFE1CFD9FFE652000150
:103920006A6B6B6B706B716B33EC1BF099D8E55263
:10393000F6D0020E00016A5D09E168D8040100BDFD
:1039400002D0C80E01D0880E006F120069EF1DF082
:10395000040E0001855D09E11AC46EFF6E50000877
:1039600002E2050E01D0030E856F00016A0509E130
:103970000AD8040104BD02D0C80E01D0880E046F1D
:10398000120069EF1DF0C4D80001080E705D000E32
:10399000715905E270C0DEFF71C0DDFF03D0080E73
:1039A000DE6EDD6A040104930491010EDB50041302
:1039B000DFCF05F4000EDB500001705F010EDB501D
:1039C000715B200E6E6F040E6F6F000186A30CD02A
:1039D00098D815E06CC0F6FF6DC0F7FF0800F550F1
:1039E00080D8F6E2DB06F4D78CD809E06CC0E9FF9A
:1039F0006DC0EAFFEF5075D8F7E2DB06F5D7020E8F
:103A0000E15C02E2E16AE552E16E89D081D8030E01
:103A100004010015E76E010EE7CFDBFF01C4DFFFF5
:103A2000DE5000017027DD507123200E6C6F040EF4
:103A30006D6F67D80EE06CC0E9FF6DC0EAFFEF5014
:103A40006EC0E9FF6FC0EAFFEF6E6DD8F2E2DB06F1
:103A5000F0D7020EE15C02E2E16AE552E16E5FD06E
:103A600000016B5105E145D8840E006F04011DD0A3
:103A7000040118AF1CD00001705104011E5D00014B
:103A8000715104011F5904E21EC470F01FC471F08B
:103A90007ADF0001010E6A6F2CD8800E006F0401DE
:103AA000200E066F040E076FC80E046F10D00001C1
:103AB000020E6A6F0401056BC80E046F0401080E44
:103AC000016F200E026F040E036FC80E006F6D9819
:103AD000120000016A6B0DD8880E006F0401046BA0
:103AE00012006EC0E9FF6FC0EAFFEF6E000193EFB6
:103AF0001DF00401080E016F180E026F040E036F13
:103B00001200D9CFE9FFDACFEAFFEE50ED10120034
:103B1000D9CFE6FFE1CFD9FF020EE1261200E55230
:103B2000E7CFD9FF12006E2B000E6F236C2B6D2395
:063B3000DF06010E120089
:0A3B36006DA60CD80001850508E11A
:103B40006DBA06D0686A696A69806988020E856FF5
:103B500012006D6A696A6D860001010E856F1200A0
:103B60006D6A696A0001856B1200B0EF1DF00001FB
:103B7000855101E112006850040B04E06950040B08
:103B800001E038D86DB212006850010B04E06950B2
:103B9000010B01E050D86850100B04E06950100B85
:103BA00001E024D86850400B04E06950400B01E06C
:103BB00037D86850200B04E06950200B01E032D860
:103BC0006850020B04E06950020B01E032D8030E8A
:103BD0000001855D01E212006850080B06E06950A3
:103BE000080B03E06FEC1CF068961200698468987B
:103BF0006D8212006D92699468941200000186A192
:103C00000ED0F8DF6D840001080E896F070E8A6FF1
:103C10008907000E8A5B89518A11FAE16D941200BE
:103C2000689C120070A003D069EC1DF07090689A37
:103C30001200689212006A6A686A9F0E6B6E7B0EB1
:103C4000696E6E6A0F0EE66E710EE66E0F0EE66E10
:103C500014D8E552E552E552160E706E68A602D0F1
:103C60006896FCD76D9869EC1DF000018691000103
:103C7000876B0001030E856F1200D9CFE6FFE1CFFD
:103C8000D9FFFD0EDBCFE9FFFE0EDBCFEAFFFC0E16
:103C9000DB5004E0EE6AFC0EDB06F9D7E552E7CF15
:043CA000D9FF120036
:0C3CA40000018D6B1E0E716E0401260ED7
:103CB000096F280E0A6F040E0B6F880E086F04013F
:103CC0004E0E0E6F040E0F6F400E0C6F1200D9CF08
:103CD000E6FFE1CFD9FFE652FC0EDB50260805E2F5
:103CE000260EF36EFC0EF3CFDBFFDF6AFC0EDB501B
:103CF000DF5C0FE2DF5051D8EF50E66EDF50EA6A2A
:103D00004E0FE96E040EEA22E552E750EF6EDF2A0D
:103D1000EDD7FC0EDBCF0DF4400E04010C170C7D2B
:103D2000880E0C13E552E552E7CFD9FF1200D9CF28
:103D3000E6FFE1CFD9FF00018D6B040108BF27D05A
:103D4000FC0EDBCF00F00951D880005403E2FC0EDA
:103D500009C4DBFF00018D6BFC0EDB508D5D0FE2B3
:103D60008D51EA6A280FE96E040EEA22EF50E66EE2
:103D70008D5113D8E552E750EF6E8D2BEDD704012E
:103D8000260E096F400E0817087D880E08130001E3
:103D90008D51E552E7CFD9FF1200E76EFD0EDBCF64
:103DA000E9FFFE0EDBCFEAFFE750E926000EEA222C
:023DB0001200FF
:0E3DB200DACFE4FFE6529EA00BD00001722B88
:103DC000000E732374237523D10ECF6E1F0ECE6E9B
:103DD0009E90F2A40AD089708950010B02E089926A
:103DE00001D08982440ED66EF294E552E5CFDAFF17
:103DF0001100D8CFE4FFE0CFE4FFE46EDACFE4FFB8
:103E0000E652E552E5CFDAFFE550E5CFE0FFE5CF3A
:103E1000D8FF1000D9CFE6FFE1CFD9FF72C076F00E
:103E200073C077F074C078F075C079F0760EE96EE3
:103E3000000EEA6EEE500001725D006EEE50735996
:103E4000016EEE507459026EEE507559036ED950E2
:103E5000FB0FE96EFF0EDA20EA6EEE50005CEE50CA
:103E60000158EE500258EE500358E0E3E552E7CF18
:043E7000D9FF120064
:0C3E74001201000200000008D8040E003B
:103E80000000010200010902200001010080320946
:103E900004000002000000000705010326002007BF
:103EA000058103260020040309042A03750073001A
:103EB0006200700069006300700072006F006700AC
:103EC0002E006F00720067002000200020002000FC
:103ED0002000200044037500730062007000690038
:103EE0006300700072006F0067002E006F007200A8
:103EF000670020002000200020002000200020007B
:103F000020002000200020002000200020002000B1
:103F10002000200020002000863E863EA63EAA3ECD
:023F2000D43E8D
:0E3F22002A0EF66E080EF76E000EF86E000105
:103F30000900F550656F0900F550666F03E165678C
:103F400001D03DD00900F550606F0900F550616F58
:103F50000900F550626F09000900F550E96E09008B
:103F6000F550EA6E090009000900F550636F090079
:103F7000F550646F09000900F6CF67F0F7CF68F0DD
:103F8000F8CF69F060C0F6FF61C0F7FF62C0F8FFCC
:103F90000001635302E1645307E00900F550EE6E3F
:103FA0006307F8E26407F9D767C0F6FF68C0F7FF58
:103FB00069C0F8FF00016507000E665BBFD71200FD
:103FC0007F6A7E6A7D6A7C6A7B6A7A6A796A786AC5
:103FD000776A766A756A746A736A726A716A706AF5
:103FE0006F6A6E6A6D6A6B6A6A6A696A686A1200E9
:103FF00004D80FD80AEC19F0FCD70F0EC112140E1A
:104000006F6E0001856B0001866B0001876BB7EF57
:1040100018F09BEC1DF06FBE02D0B7EC1DF0120043
:104020001D6A1C6A1B6A1A6A200EE76ED8901E363B
:104030001F36203621361A361B361C361D362350C5
:104040001A5C24501B5825501C5826501D5809E353
:1040500023501A5E24501B5A25501C5A26501D5AB4
:084060001E2AE72EE4D712002E
:0840680020C02AF020502502BF
:10407000F4CF1FF0F3CF1EF021502602F4CF21F031
:10408000F3CF20F02502F3501F26F4502022E86AD7
:1040900021222A502602F3501F26F4502022E86ADB
:0440A0002122000CCD
:0C40A400FB0EE3CFF6FFFC0EE3CFF7FFAE
:1040B000FD0EE3CFF8FFFE0EE3CFE9FFFF0EE3CFE7
:1040C000EAFFE9CFF3FFEACFF4FF0900F5CFEFFFF6
:0640D000EE66FBD71200B2
:0A40D60013EE00F023EE00F0F86A8C
:1040E000199C91EC1FF088EC20F0F8EC1FF0FBD746
:0240F0001200BC
:0E40F20075736270696370726F6720373134C6
:0141000000BE
:0E41020000EE00F00F0EEE6AEA62FDD712002A
:0241100012009B
:064112000300000000FFA5
:0841180000000000000000009F
:020000040030CA
:0100000021DE
:010001000EF0
:0100020038C5
:010003001EDE
:01000500807A
:010006008079
:01000900C036
:01000B00E014
:00000001FF
