:020000040000FA
:06000000B0EF22F0120037
:060008000EEF21F01200D2
:060018002EEF21F01200A2
:06080000B0EF22F012002F
:060808000EEF21F01200CA
:060818002EEF21F012009A
:06082A00020094450000ED
:1008300072000000080000008E4500007A000000F1
:0408400006000000AE
:0C084400EBEC11F0080EE126D0EC12F0F5
:10085000FD0EDB502D0A01E133D23C0A01E128D222
:100860001E0A01E125D2010A01E122D2220A01E198
:10087000ECD1280A01E155D22A0A01E1BAD1290AAC
:1008800001E1B7D1010A01E1B4D1050A01E1B1D119
:10089000060A01E139D1080A01E12DD1050A01E179
:1008A0002AD10A0A01E127D1120A01E104D1030A7F
:1008B00001E101D1010A01E1FED0190A01E1C7D02D
:1008C000070A01E1C0D0050A01E1BDD0030A01E138
:1008D000BAD0250A01E1B5D0310A01E1A4D01F0A3E
:1008E00001E1A1D0010A01E18ED01D0A50E0340AD5
:1008F00001E012D207EC15F08CEC12F037EC15F099
:10090000670EE8EC13F0E66AB0EC12F07CEC11F044
:100910000EEC11F0020E81EC11F01FE2860E22ECBB
:1009200014F0BB0E21EC15F0580EE66E050EA7EC88
:1009300012F0A90EE66E0A0EA7EC12F0380E97EC34
:1009400012F03EEC15F0C90E7EEC10F0A3EC14F0A2
:10095000D7EC11F0DDE3DB2ADBD7FA0EE66E070EEB
:10096000E66E240E21EC15F00A0E97EC12F02EEC38
:1009700014F0030E7EEC10F09BEC11F0A90E21ECAC
:1009800015F0E66AE66AE66A89EC13F096D1040E81
:10099000BFEC12F0830E9FEC12F0880E9FEC12F069
:1009A000890E9FEC12F08A0E9FEC12F0060EBFEC3F
:1009B00012F044EC15F0E66AE66A200EE66EE66A8E
:1009C000D5EC10F0A60EE66E840E93EC12F0A60E97
:1009D000E66E880E93EC12F055EC15F0A60EE66E5E
:1009E000820E93EC12F096EC14F082EC10F034ECE2
:1009F00015F0A60EE66E940EE66EE66A040EE66E3E
:100A0000DAEC17F05AD1050EBFEC12F03F0EE66E8D
:100A1000E66E0C0EC3EC14F0040EBFEC12F08F0E59
:100A2000E66EE66E06D0040EBFEC12F0800EE66EA7
:100A3000E66A0C0EC3EC14F096EC14F0EDEC13F037
:100A40005FD016EC13F06AEC15F01E0E34D185EC75
:100A500011F0C1EC0DF076EC12F0AAEC14F0070ED8
:100A6000DB50310B006E310E005C07E3060EDB50ED
:100A7000300B016E300E015C12E285EC12F0E66A7A
:100A80009AEC10F07CEC11F00EEC11F0070E81ECFA
:100A900011F00FE251EC14F0F7E3DB2AF5D756EC36
:100AA00013F081EC14F085EC12F0030EE66E9AEC74
:100AB00010F081EC14F016EC13F0FD0EDB50120A6E
:100AC0000DE17CEC11F00EEC11F0080E81EC11F050
:100AD00005E251EC14F0F7E3DB2AF5D76AEC15F0E8
:100AE000060E7EEC10F0AAEC14F00B0E8FEC12F058
:100AF000060E7EEC10F016EC13F01F0EA1EC13F0B6
:100B0000E552E5520A0ED7D07CEC11F00EEC11F054
:100B1000FF0E005C030E015805E251EC14F0F6E301
:100B2000DB2AF4D7ADEC10F07BEC12F016EC13F0EE
:100B30007CEC11F00EEC11F0070E81EC11F005E2E7
:100B400051EC14F0F7E3DB2AF5D7ADEC10F0F3CF5E
:100B500000F0F4CF01F0000E0016300E0116020E68
:100B600000C0DBFF030E01C0DBFF16EC13F0090E23
:100B700061EC14F00B0E61EC14F021EC13F034EC8A
:100B800015F0FC0EDB50AA0801E1CBD04FEC11F0C0
:100B9000FF0E0016000E0116060E00C0DBFF4FEC24
:100BA00011F001C000F0016AFF0E0016000E0116E0
:100BB000070E00C0DBFF43EC13F0E668030E77EC92
:100BC00013F0BAD876EC12F0060EDB68F5EC12F0F2
:100BD00001C000F0016A0F0E0012000E0112070E94
:100BE00000C0DBFF85EC11F0D2EC0BF076EC12F0DC
:100BF00098D0FD0EDB50070807E156EC13F06AECC5
:100C000015F0080E61EC14F016EC13F056EC13F02E
:100C1000FD0EDB50070803E1080E8FEC12F06AECC2
:100C200015F00A0E13EC14F02E0801E17AD00B0E29
:100C30008FEC12F0FD0EDB50070803E1080E8FEC7D
:100C400012F034EC15F08A906CD07CEC11F00EECC4
:100C500011F0FF0E81EC11F005E251EC14F0F7E316
:100C6000DB2AF5D7F4EC13F0B9EC13F005E251EC04
:100C700014F0FAE3DB2AF8D70AEC15F00EEC11F0C9
:100C8000FF0E81EC11F005E251EC14F0F7E3DB2AE2
:100C9000F5D714EC15F0B9EC13F005E251EC14F0B3
:100CA000FAE3DB2AF8D724EC15F02DEC15F003D08D
:100CB0006AEC15F0140EE9EC14F0F6EC14F031D0F7
:100CC0007CEC11F0F8EC13F005E251EC14F0FAE3CF
:100CD000DB2AF8D7F4EC13F0B9EC13F005E251EC91
:100CE00014F0FAE3DB2AF8D70AEC15F0F8EC13F06D
:100CF00005E251EC14F0FAE3DB2AF8D714EC15F016
:100D0000B9EC13F005E251EC14F0FAE3DB2AF8D762
:100D100024EC15F03AEC14F08A9021EC13F0030E59
:100D200003D021EC13F0010E006E080EE15C02E22C
:100D3000E16AE552A0EF11F017EC14F0F50EDBA01C
:100D400002D0D0EC12F0FD0EDB500E0A01E1F9D218
:100D5000010A01E1F6D21E0A01E1F3D23D0A01E1E6
:100D6000F0D2010A01E1EDD23E0A01E1BBD2110A43
:100D700001E1B8D2120A01E167D23F0A01E164D26F
:100D8000220A01E161D21F0A01E15ED21A0A01E1E1
:100D90005BD20E0A01E158D20A0A01E11FD2050A0C
:100DA00001E11CD2030A01E119D2010A01E198D143
:100DB0000C0A01E195D1040A01E192D1070A01E18F
:100DC0008FD1010A01E18CD12B0A01E189D1330ACB
:100DD00001E10FD1030A01E10CD11F0A01E109D1A0
:100DE000010A01E1C4D0290A04E021EC13F0030E4A
:100DF00010D307EC15F064EC15F01A0E54EC14F057
:100E0000040EDB6AC5EC10F0E8AE02D0E73402D085
:100E1000E750005C01E398D0006A96EC11F0040EF4
:100E200022EC12F008AE03D009680A680B684EEC99
:100E300013F05AEC12F0FBEC11F0FDE1FBEC14F0B6
:100E4000070E006E96EC11F0040E22EC12F008AEC4
:100E500003D009680A680B684EEC13F013EC12F02B
:100E600003E041EC11F0FDE119EC13F0DE6ADD6AFC
:100E70004FEC11F026EC14F05CE2006A96EC11F0F5
:100E80002EEC12F00ABE0B68BEEC11F00A501E24C4
:100E9000086E0B501F20096EFAEC10F003E041ECD5
:100EA00011F0FDE1CCEC10F0040EDBCF12F0136A70
:100EB00012BE1368BEEC11F012501E24106E1350B7
:100EC0001F20116E010E1026000E1122F70EDB50AE
:100ED000102473EC13F01120EA6EEFCF0CF00D6AC2
:100EE0000E6A0F6A0C0E1F0B07E0D8900C360D36F9
:100EF0000E360F36E806F9E10C5000120D500112C3
:100F00000E5002120F500312DECF14F0DDCF15F099
:100F1000166A176A14500012155001121650021268
:100F20001750031298EC10F0DF2A010EA1E3DB2A20
:100F30009FD7E66AB0EC12F06AEC14F06AEC14F099
:100F40000C0EBBEC10F05ED72EEC14F0030E7EEC12
:100F500010F007EC15F0A3EC14F0E66A010EE66E53
:100F6000040EE66E89EC13F0E552E5523FD044ECF6
:100F700015F0B4EC10F03DEC12F0EECFE6FFEFCF41
:100F8000E6FFD5EC10F0040EDB6ADBCF00F0F60EC6
:100F9000DB50FE0FE76E0018E8AE02D0E73402D057
:100FA000E750005C11E2010E54EC11F008BE096834
:100FB00064EC11F002BE0368FEEC14F00D0EC3ECFD
:100FC00014F0C4EC13F0E1D7010E54EC11F008BE9C
:100FD000096864EC11F002BE0368B0EC10F0E0ECBC
:100FE00012F0000EE66EE66A66EC17F0E552E55286
:100FF00008D2AFEC14F0060EBFEC12F0000EE66E55
:10100000E66A0C0EC3EC14F044EC15F0EDEC12F0B3
:10101000040EDB6AC5EC10F0E8AE02D0E73402D073
:10102000E750005C01E3EDD1DE6ADD6A4FEC11F0C0
:1010300026EC14F037E2010EE76EF70EDBCF0AF074
:10104000F80EDBCF0BF0E7500A26000E0B22040E41
:10105000DBCF0CF00D6A0CBE0D680A500C24086E34
:101060000B500D20096EDE500824E96EDD503FEC78
:1010700013F004BE0568F70EDB500424026EF80E70
:10108000DB500520036EDE500224E96EDD500320A4
:10109000EA6EEF5073EC11F00D0EC3EC14F042EC5D
:1010A00012F0C4D7070E54EC11F008BE096864ECC6
:1010B00011F002BE0368E2EC14F0060EE926000E01
:1010C000EA22EF50E0EC12F0DBEC11F0090E8EECAE
:1010D00011F0090E8EEC11F0080EBBEC10F09AD74F
:1010E000F50EDB50010B07E0B4EC10F009EC12F048
:1010F00002E2EDEC12F0040EDB6AC5EC10F0E8AE93
:1011000002D0E73402D0E750005C01E37AD147EC2B
:1011100012F006BE0768DEEC14F002BE036832EC83
:1011200013F0FD0EDB502E0A06E1180E61EC14F0F0
:1011300061EC12F002D0B8EC14F0E552E552BCECD0
:1011400013F008BE0968A7EC10F004BE05681CEC9B
:1011500011F002E1035001183EE0C0EC14F034EC51
:1011600015F0040EDB407F0B006E016A026A036A11
:1011700000AE03D001680268036824EC13F047EC6A
:1011800012F006BE0768DEEC14F002BE036832EC13
:1011900013F0FD0EDB502E0A06E1180E61EC14F080
:1011A00061EC12F002D0B8EC14F0E552E552BCEC60
:1011B00013F008BE0968A7EC10F004BE05681CEC2B
:1011C00011F002E10350011806E064EC12F003E1B3
:1011D000ED5001E10CD167EC15F08FD7040EDB6AFE
:1011E000C5EC10F0E8AE02D0E73402D0E750005C66
:1011F00001E307D1DE6ADD6AA6EC13F012E22EEC01
:1012000012F00ABE0B68D4EC12F004BE0568B3EC11
:1012100012F026EC14F002E29BEC12F042EC12F019
:10122000EBD7080E8FEC12F0010E70EC13F08FEC80
:1012300012F09BEC12F0040EDBCFE7FFE850E7263C
:10124000040EE7CFDBFFCCD7040EDB6AC5EC10F051
:10125000E8AE02D0E73402D0E750005C01E3D1D021
:10126000DE6ADD6A4FEC11F0080E81EC11F012E23B
:101270002EEC12F00ABE0B68D4EC12F004BE056826
:10128000B3EC12F026EC14F002E29BEC12F042EC0C
:1012900012F0E8D7FD0EDB50060A10E0290A07E03D
:1012A0003F0A0FE1180E61EC14F00A0E11D0180E6F
:1012B0008FEC12F00A0E70EC13F00AD0B8EC14F0B8
:1012C00009D0180E8FEC12F0020E7EEC10F0170E03
:1012D000A1EC13F0E552E5529BEC12F0080EBBECCA
:1012E00010F0B4D7040EDB6AC5EC10F0E8AE02D003
:1012F000E73402D0E750005C01E383D0DE6ADD6AA8
:101300004FEC11F0100E81EC11F013E22EEC12F004
:101310000ABE0B68D4EC12F004BE0568B3EC12F000
:101320000E0E81EC11F002E29BEC12F042EC12F096
:10133000E7D75AEC15F09BEC12F0100EBBEC10F056
:10134000D3D7F50EDBA002D09BEC12F0040EDB6AC3
:10135000C5EC10F0E8AE02D0E73402D0E750005CF4
:1013600050E247EC12F006BE0768DEEC14F002BE55
:10137000036832EC13F03AEC14F0BCEC13F008BE46
:101380000968A7EC10F004BE05681CEC11F002E13E
:101390000350011833E0DE6ADD6A4FEC11F00A0EEB
:1013A00081EC11F02BE247EC12F006BE0768DEEC90
:1013B00014F002BE0368B0EC10F0C7EC13F0020E9C
:1013C000A7EC14F03AEC14F0BCEC13F008BE09687A
:1013D000A7EC10F004BE05681CEC11F002E103500C
:1013E00001180CE064EC12F004E1ED5002E1040E8F
:1013F00010D0DF2A010ED1E3DB2ACFD767EC15F03E
:10140000A7D7F50EDBA204D021EC13F0010E01D01A
:10141000020E006E050EE15C02E2E16AE552A0EF09
:1014200011F017EC14F0F50EDBA002D0D0EC12F0A6
:10143000FD0EDB502C0811E0FD0EDB502D080DE0F9
:10144000FE0EDB50020A01E15ED1010A01E1E2D0A9
:10145000060A05E0E66A8CEC10F0030E9BD107EC5F
:1014600015F064EC15F05A0E54EC14F0020EDB6A21
:10147000C5EC10F0E8AE02D0E73402D0E750005CD3
:1014800001E3BCD0F00EE66E070EDBEC14F0070EA5
:10149000006E016A2F0E026E036A020E22EC12F039
:1014A00008AE03D009680A680B68B4EC10F0C7EC0A
:1014B00011F00B50EE200F0E0516BFEC13F003E0F9
:1014C00041EC11F0FDE119EC13F0006A96EC11F01B
:1014D000020EDBCF08F0096A08BE0968FAEC10F0CA
:1014E00003E041EC11F0FDE1CCEC10F0020EDB2842
:1014F0000E6E0F6A0EBE0F6830EC11F003E0D0ECF8
:1015000011F0FDE1C6EC12F0010EAAEC13F0020F8F
:10151000086E096A08BE0968FAEC10F003E041ECB5
:1015200011F0FDE11BEC14F0030F0E6E0F6A0EBEFE
:101530000F6830EC11F003E0D0EC11F0FDE1C6ECE7
:1015400012F0020EAAEC13F0040F086E096A08BE2E
:101550000968FAEC10F003E041EC11F0FDE11BEC3E
:1015600014F0050F0E6E0F6A0EBE0F6830EC11F00E
:1015700003E0D0EC11F0FDE1C6EC12F0030EAAEC92
:1015800013F0060F086E096A08BE0968FAEC10F03D
:1015900003E041EC11F0FDE11BEC14F0070F0E6EBF
:1015A0000F6A0EBE0F6830EC11F003E0D0EC11F0C2
:1015B000FDE1C6EC12F0E66AB0EC12F0030EDB6A55
:1015C000DBCF00F0040EE76E0018E8AE02D0E7347F
:1015D00002D0E750005C07E202EC12F052EC15F08A
:1015E000030EDB2AEDD7080E006E020EDBCFE7FFFD
:1015F0000050E726020EE7CFDBFF3AD72EEC14F0BF
:10160000020E7EEC10F007EC15F0A3EC14F08CEC5D
:1016100012F0B8D0A60EE66E9E0E64EC14F0020E28
:10162000DB6AC5EC10F0E8AE02D0E73402D0E75038
:10163000005C01E3A7D0020EDBCF04F0056A04BE14
:10164000056874EC14F0020EDBCF04F0056A04BEEA
:1016500005683DEC14F0020EDBCF02F0036A02BE17
:101660000368B0EC10F0006E016AE8500E0E011233
:1016700000C0E6FF36EC13F0A80E1DEC15F0A60E28
:10168000E66E840E93EC12F0FD0EDB0402E155ECE5
:1016900015F0A60EE66E820E93EC12F005EC11F03A
:1016A000A60E9CEC14F0E76E040EE7CFDBFFDB50D8
:1016B000020B02081DE1760EE96E000EEA6EEE5096
:1016C0000001725D006EEE507359016EEE50745958
:1016D000026EEE507559036ED890E850000A07E686
:1016E000050E81EC11F0000E0258000E0358D8E3ED
:1016F000010E7EEC10F0A60EE66E940E93EC12F046
:10170000020EDB2A8ED7020EDB6AC5EC10F0E8AEC3
:1017100002D0E73402D0E750005C34E2020EDBCFA7
:1017200000F0016A00BE0168A0EC10F0EF50E66E18
:10173000E66A030EA7EC14F0FD0EDB50100A08E079
:10174000150A06E0080A04E0050A02E01A0A02E1A6
:10175000180E01D0080E8FEC12F0080E13EC14F0E6
:10176000100A08E0150A06E0170A04E01A0A05E163
:10177000170E01D00A0E8FEC12F09BEC12F0020E45
:10178000DB2AC3D7F50EDBA204D021EC13F0010E47
:1017900001D0020E006E050EE15C02E2E16AE55244
:1017A000A0EF11F0EBEC11F0030EE126F50EDBA03B
:1017B00002D0D0EC12F0FD0EDB500E0A01E1B8D1E0
:1017C000010A01E1B5D11E0A01E1B2D13D0A01E1F0
:1017D000AFD1010A01E1ACD1280A01E11CD1150AFF
:1017E00001E119D11D0A01E116D11E0A01E113D14F
:1017F0003C0A01E110D1230A01E10DD1050A01E102
:101800000AD1030A01E107D1010A01E104D1190A51
:1018100001E101D11A0A01E1FED00F0A01E1FBD07A
:10182000050A01E1F8D0040A01E1F5D0050A01E159
:10183000F2D0070A01E1EFD02A0A01E1ECD0330A25
:1018400061E0030A5FE01F0A5DE0010A5BE0290A2C
:1018500004E021EC13F0030E8CD1F50EDB50010BEC
:10186000010807E107EC15F064EC15F0070EE8EC51
:1018700013F00001896B80EC12F0E8AE02D0E7347F
:1018800002D0E750895D01E36CD137EC15F000011F
:101890008929066E076A06BE0768AFEC13F002BE20
:1018A0000368B0EC10F000010410006E6BEC12F055
:1018B000060E006E96EC11F0010EDBCF04F0020E66
:1018C000DBCF05F0066A076ABFEC13F003E041ECDA
:1018D00011F0FDE119EC13F029EC14F0860E22EC66
:1018E00014F052EC15F02EEC14F0020E7EEC10F019
:1018F00007EC15F0A3EC14F08CEC12F0020E0001D2
:101900008927B9D7AFEC14F0FD0EDB0408E1E66AD5
:10191000EF0E93EC12F0E66AF80E93EC12F0000171
:10192000896B80EC12F0E8AE02D0E73402D0E750C9
:10193000895D01E316D189C000F0016A00BE01682B
:10194000026A036A24EC13F089C006F0076A06BE37
:101950000768AFEC13F002BE0368FEEC14F0E9EC8C
:1019600012F0FD0EDB0405E1F60EE66E2A0E93EC96
:1019700012F089C004F0056A04BE05683BEC13F060
:1019800028EC12F0016EEE500620026EEE50072099
:10199000036E002A000E012202226CEC11F0086E88
:1019A000050EE15E0850010EE76EF70EDBCF08F082
:1019B000F80EDBCF09F0E7500826000E092289C097
:1019C0000AF00B6A0ABE0B6808500A24E96E095037
:1019D0000B20EFEC14F0010EE76EF70EDBCF02F0F8
:1019E000F80EDBCF03F0E7500226000E032289C079
:1019F00004F0056A04BE056802500424E96E035031
:101A00000520EA6EEF5073EC11F0E9EC12F0020ED3
:101A10000001892786D7F50EDBA014D016EC13F051
:101A2000DF6ADFCF00F0F90EDB50E76E0018E8AE9A
:101A300002D0E73402D0E750005C04E29BEC12F0E5
:101A4000DF2AEFD70001896B80EC12F0E8AE02D0FC
:101A5000E73402D0E750895D01E383D0E3EC11F075
:101A6000006E040EE76E0018E8AE02D0E73402D034
:101A7000E750005C22E3E3EC11F007081EE0E3EC22
:101A800011F008084FE1FD0EDB50130802E0000ED4
:101A900001D0010E026EFD0EDB500A0802E0000EBE
:101AA00001D0010E016EFD0EDB500D0802E0000EAC
:101AB00001D0010E0110021035E08929066E076A77
:101AC00006BE0768AFEC13F002BE036849DB0001F5
:101AD0000410006E05C001F06BEC12F081EC13F005
:101AE000FD0EDB50100A04E03F0A02E0010A03E1A8
:101AF000180E8FEC12F0080E8FEC12F00A0E13EC99
:101B000014F0100A0CE03E0A0AE0010A06E0230A7B
:101B100004E0050A02E0030A05E10E0E01D00A0EF8
:101B20008FEC12F09BEC12F0020E000189278CD78B
:101B300090EC13F0EFCF02F002C003F0026AA6ECC3
:101B400011F0EF5000010210006E03C001F0010E11
:101B500000C0DBFF020E03C0DBFF81EC13F03AECA8
:101B600014F0F50EDBA204D021EC13F0010E01D02D
:101B7000020E006E030EE15C02E2E16AE552A0EFA4
:101B800011F0EBEC11F0070EE126DE6ADD6A040EBF
:101B9000DB6AF50EDBA002D0D0EC12F0FE0EDB50BB
:101BA00001E131D1020A01E1D9D0010A01E1BED03F
:101BB000060A01E082D1D8DA000EEE5C000EEE5883
:101BC000F80EEE58000EEE5853E3F50EDBA01AD0D7
:101BD00007EC15F08CEC12F0006AA8DB046A056AC9
:101BE0000668076AC1DA19EC12F00C0EFBEC11F072
:101BF000FDE1FBEC14F0E66ACEEC14F0800EE66E2C
:101C0000B0EC12F0040EDB6AC0DAE8AE02D0E734C2
:101C100002D0E750005C01E362D133EC12F049ECF2
:101C200015F0200EE66E3C0ED2EC14F029EC14F008
:101C3000C0EC18F061EC13F090DB00BE01686DECB5
:101C400013F0DBCF02F0060EDBCF03F0000E02161E
:101C5000FF0E0316D4EC13F000BE016871DA02C067
:101C6000EFFF29EC14F08CEC12F0C4EC13F0CCD79D
:101C700007EC15F08CEC12F0006AFCEC12F05AEC58
:101C800012F0B9DBFEE1FBEC14F0060E006EFCEC8A
:101C900012F0C9DB02E0F5DAFEE119EC13F0800E78
:101CA000E66ECEEC14F085EC14F0ACDB49EC15F0EC
:101CB00085EC14F0D8DB49EC15F04CEC12F0F5ECA7
:101CC00012F026EC14F02FE2F5EC12F00BEC13F00E
:101CD000050EF3CFDBFF060E72EC12F002BE0368B6
:101CE00041DB6DEC13F0DBCF04F0060EDBCF05F02B
:101CF000000E0416FF0E051605C004F0056A1CEC64
:101D000013F002BE03682EDB010E0026000E012236
:101D100017DA04C0EFFF29EC14F0020EDB2A030EE1
:101D2000CEE3DB2ACCD78CEC12F0D9D0EDEC12F05C
:101D3000040EDB6A2ADAE8AE02D0E73402D0E750BC
:101D4000005C01E3CCD0090EE9DAE66E06DB00BEEA
:101D50000168B4EC13F0040EDB2AECD705DA000EB0
:101D6000EE5C200EEE58000EEE58000EEE5828E302
:101D700016EC13F0F50EDBA00DD08EDBCCDA000EE6
:101D8000025E200E035A8DDB05E2D6EC14F0F6E37A
:101D9000DB2AF4D7040EDB6AF8D9E8AE02D0E734C8
:101DA00002D0E750005C01E39AD01FEC14F000BEB3
:101DB000016868EC13F000BE0168BDEC14F0ECD7CC
:101DC000F50EDBA00AD0C9D967DBA5DA6ADB05E22C
:101DD000D6EC14F0FAE3DB2AF8D7040EDB6AD5D987
:101DE000E8AE02D0E73402D0E750005C01E377D0E0
:101DF0001FEC14F000BE016868EC13F000BE01682F
:101E0000BDEC14F0ECD7FD0EDB500F0A0EE01E0AFD
:101E10000CE03C0A07E0230A05E0220A09E1DE683B
:101E2000010E05D0DE68030E02D0DE680F0EDD6EF7
:101E300036DA026A036A98D9EE5000181BE1EE50B8
:101E4000011818E1EE50021815E1EE50031812E1E6
:101E500011E183D961EC13F0050E060EDBCF01F022
:101E600001C000F0016A90EC13F000C0EFFF6EDAE1
:101E70001DDB23D0F50EDBA00BD05DDB6ED90CDBB8
:101E80004ADA0FDB05E2D6EC14F0FAE3DB2AF8D7E6
:101E9000040EDB6A7AD9E8AE02D0E73402D0E7500C
:101EA000005C0BE21FEC14F000BE016868EC13F05C
:101EB00000BE0168BDEC14F0EDD7040EDB6A65D9F5
:101EC000E8AE02D0E73402D0E750005C08E245DA21
:101ED00000BE016835D9EF6A040EDB2AF0D7F50E93
:101EE000DBA202D0E66A18D9070EE15C02E2E16AE1
:101EF000E552E16EE552E7CFD9FF120017EC14F07E
:101F0000040EDB6AF50EDBB04BDBFE0EDB50020A83
:101F100001E1A8D0010A01E17BD0060A01E0CDD0A1
:101F200007EC15F0F9DAF00EE66E070EDBEC14F0B4
:101F3000060E006E016A2F0E026E036A04680F0E11
:101F4000056E99DB76DA040E1F0B02E09AD9FEE1EA
:101F500070DB040EDB6A19D9E8AE02D0E73402D098
:101F6000E750005C01E3BBD0800EE66EF9DADE6A72
:101F7000DD6AECDB08E246DA49EC15F0DF2A010EF7
:101F8000F8E3DB2AF6D7DE6ADD6AE0DB3DE287D9DB
:101F900042DB020EF3CFDBFF030EA4DA02BE0368BE
:101FA000EDD9FEEC13F0CCD8020EDBCFEFFFDBCF88
:101FB00006F0030EDBCF07F0000E0616FF0E071625
:101FC00007C006F0076A38DB02BE0368DECF04F004
:101FD000DDCF05F0010ED89004360536E806FBE1AA
:101FE000010E0426000E052202500424006E035048
:101FF0000520016EA5D806C0EFFF29EC14F0DF2AFA
:10200000010EC3E3DB2AC1D787DA080EB4D8A3D701
:10201000A60EE66E9E0E64EC14F0040EDB6AB5D8D4
:10202000E8AE02D0E73402D0E750005C58E202ECA0
:1020300015F004BE056874EC14F002EC15F004BE53
:1020400005683DEC14F0A60EE66E800E6CDAA80E64
:102050009CEC14F0E66E81D900BE016885DB040EAD
:10206000DB2ADDD7F50EDB50010B14E07DD8D1D98A
:1020700011E2BCD96BD9E552E750EF6EDE6ADD6A3A
:102080000ED9C3DB0EDA06E256DADF2A010EF8E3D8
:10209000DB2AF6D7040EDB6A78D8E8AE02D0E73444
:1020A00002D0E750005C1BE2A1D957D900BE0168FD
:1020B0005BDB41DA040EDB2AEFD7040EDB6A65D85E
:1020C000E8AE02D0E73402D0E750005C08E245D920
:1020D00000BE016835D8EF6A040EDB2AF0D7F50E92
:1020E000DBA202D0E66A18D8000E006E050EE15C95
:1020F00002E2E16AE55224D1E66A5ED366DAE5528D
:10210000E55212006ADBE552E5521200E66E26EC5B
:1021100017F0E552E5521200FE0EDBCFE6FFFD0E92
:10212000DBCFE6FF6DEC15F0E552E552E55212000B
:10213000FFDA42D3060EE66EDDEC17F0F6EF14F090
:10214000F70EDB500024CFDA0120EA6E1200F70E02
:10215000DB500824C8DA3FEF13F0040EE0EF13F071
:10216000E2EC14F0EF501200D950F90FE96EFF0EB7
:10217000DA20EA6E1200006E040EDBCFE7FF00509B
:10218000E726040EE7CFDBFF1200DBCF00F0F60EF0
:10219000DB50E76E001812000450001205500112C7
:1021A00006500212075003121200FE0EDBCFE6FFAC
:1021B000BCEC16F0006E050EE15E00501200F70E4A
:1021C000DB50062490DA07200CEF14F0D890043688
:1021D000053606360736030E236E246A256A266AFC
:1021E00004C01EF005C01FF006C020F007C021F09B
:1021F00045EF22F0F70EDB50082475DA0920EA6E6D
:10220000EFCF04F0056ABFEF13F072C076F073C031
:1022100077F074C078F075C079F01200040EDBCF4F
:1022200000F0050EDBCF01F0120044DADED9040E17
:10223000DB28086E096A1200F70EDB50042453DA1B
:102240000520EA6EEF5000010610026E07C003F091
:10225000E85000181200000EE66EE66AE66A120008
:10226000F70EDB500E243FDA0F20EA6EEFCF0AF0B4
:102270000B6A0C6A0D6A0C0E1F0B12000001C7EFEF
:1022800013F0D8900436053606360736E8061200F5
:1022900018DA050E060EDBCF03F0D4EF13F0DECF15
:1022A00000F0DDCF01F01200E76EF70EDBCF06F095
:1022B000F80EDBCF07F0E7500626000E0722040ECB
:1022C000DBCF08F0096A120006500824E96E0750B7
:1022D0000920A2DA1CEF13F003222ADAFE0EDBCF6C
:1022E000E6FFBCEF16F000010610006E07C001F01B
:1022F000E66E07C0E6FF1200040EDB6A050EDB6A1D
:102300001200005C000E01581200BDD9070EE66EE7
:10231000200E77EF13F069D905EF14F0E66E040E86
:10232000E66E50EC18F0E552E5521200016A200EFC
:10233000026E036A1200610EE66EE70EE66E120090
:10234000E16E0050E552E7CFD9FF1200F70EDBCF68
:10235000E9FFF80EDBCFEAFF1200040EDBCF00F03E
:10236000016A1200020E206E216ADBCF25F0030EF7
:10237000DBCF26F069EC22F0FEEF13F0020E206EA8
:10238000216ADECF25F0DDCF26F069EF22F008507C
:10239000EE24046E0950EE20056E0A50EE20120065
:1023A000D8900A360B360C360D36E8061200040EAD
:1023B000DB2A050E1200000EE66EE66A66EC17F0E8
:1023C000E552E5521200F90EDBCFE6FF89417F0BA3
:1023D000E552E7241200D9CFE6FFE1CFD9FF120082
:1023E000016A026A036A0E0E01121200050EE8D994
:1023F000F350E66E1200D8900732063205320432EE
:10240000E8061200B60E22EF14F0E66EEB0EE66E52
:102410001200D880000EEE54000EEE54000EEE5462
:10242000000EEE5412001EC004F01FC005F0BFEFF6
:1024300013F0EE500416EE500516EE500616EE5050
:1024400007161200DBCF08F0096A0A6A0B6A12004D
:10245000EE500424006EEE5005201200040EDBCF77
:102460000AF00B6A1200B60EE66E0B0EE66E120054
:10247000B60EE66EDB0EE66E1200EECFE6FFEECF96
:10248000E6FF1200020EDE26000EDD221200040E10
:10249000DB28066E076A1200020EDB6A030EDB6A97
:1024A00012000250005C035001581200050EDBCFF1
:1024B000EFFF120020C006F0046A056A076A0C0EDE
:1024C00012000A0EA1EF13F0D9CFE9FFDACFEAFF2D
:1024D000090EEE181200010E00C0DBFF020E05C04F
:1024E000DBFF1200F4CFDBFF1CEF13F0006E0A0ECF
:1024F000E15E00501200F3CFDEFFF4CFDDFF1200EB
:10250000F60EDB50E76E89191200E6683F0EE66EA4
:10251000120097DA07EF15F003DA29EF14F0E66EF0
:10252000060E86EF10F0E66EE66A82EF10F0E66EB9
:102530003B0ED2EF14F0060EE66E86EF10F0E66E5C
:10254000E66A0C0E20DAF2D9DDDD34EF15F0E66E26
:10255000200E21EF15F0900EE66E010ED2EF14F072
:102560001DDA29EF14F0DE500424026EDD50052040
:10257000036EF6DDB8DE020EEAD94FEF11F0E66E1B
:10258000E66A3C0EE66EE66AD5EF10F00A500012DD
:102590000B5001120C5002120D50031298EF10F064
:1025A000010EE66E8CEF10F0DE500A24086EDD504E
:1025B0000B20096E010E0826000E0922A7EF10F06D
:1025C0005DDE6ADA22DEC6EF14F003DAE552E55288
:1025D000120062DADBD9DBEF11F0C6DDEECFE6FFE9
:1025E0004CDFEFCFE6FFD5EF10F0020EDBCF00F0AF
:1025F000030EDBCF01F0120099DEF90EDBCF04F001
:10260000FA0EDBCF05F0FB0EDBCF06F0FC0EDBCFC6
:1026100007F0E6EF10F0026A036A008A3C0E01122E
:10262000880E021285DD15D9C0EF18F014DE9AEF7E
:1026300010F0B2DD98EF10F0040EDBCF02F0036A69
:102640001200E66A8CEF10F08FDDEE500026EE509F
:102650000122EE500222EE503FDE046E050EE15ED6
:1026600004501200CBD9020EA7EF14F001C0E6FF10
:10267000E66A82EF10F0066A076AB4EF10F00920EC
:10268000AED902EF15F0030EE66E020EE66ED950DB
:10269000060FE66E000EDA20E66E120065DD77DECC
:1026A000066E0B50EE20076EE6EF10F02EDF020EE6
:1026B000A7EF14F0020EF3CFDBFF030EF4CFDBFF26
:1026C0001200050EF3CFDBFF060EF4CFDBFF120086
:1026D00037DD02C0EFFFADEF11F032DD56EF12F043
:1026E0000DDD0E0E1200E96EF80EDB501200E66EE4
:1026F000E66AE66AFD0EDBCFE6FFFE0EDBCFE6FF05
:102700001200010EDBCFE6FF020EDBCFE6FFA7EFE4
:1027100014F0F2DCE66AE66AE66AE66A34EF19F07B
:10272000010EE76E13DEE750E926000EEA221200E2
:1027300000C0E6FF01C0E6FF02C0E6FF03C0E6FFFF
:102740001200E66E060EE66E26EF17F0A8DD040E08
:1027500081EF11F0006EEADD020EDB5012002FDD7A
:1027600089C002F0036A1200EBDCE552E750EF6E1D
:10277000120054DD81EF11F0F0DC15EF11F0066A64
:10278000076A040E1F0B1200020EBBEF10F00410BC
:10279000006E05C001F0E66E05C0E6FF12005BDDCD
:1027A000B1DC020E8EEF11F003C002F0036A040EDA
:1027B000DB28006E016A120034EC19F0F6EF14F019
:1027C000E66E060EE66EE0EC17F0E552E5521200FA
:1027D000E66EE66A200E21EF15F0040EE66EDAECE6
:1027E00017F0E552E5521200B8DC85DE7CEF11F0FF
:1027F00015DDFF0E005C010E0158120002501E2470
:10280000006E03501F20016E1200F90EDBCF02F0A4
:10281000FA0EDBCF03F01200EA6EEFCF04F004C033
:1028200005F0046A12006ADCFD0EDB501200D3DDF5
:10283000050EE1261200B0DC020EDB5012008DDC2A
:1028400048EF11F0E66E1B0EE66E1200060E81EFE9
:1028500011F0E66AE66AE66A7CEF10F0580EE66E62
:10286000050E75DE380E63DEA90EE66E0A0E6FDE0B
:102870003EEF15F0F2D87EEF10F0FDDEEE500426AC
:10288000EE500522EE500622EE50072205C000F061
:102890000001036AA5DD05C0E6FFE8DEAA0E1DEF14
:1028A00015F049DED7EF11F0E66EE66A240EC9D8BE
:1028B0000A0E97EF12F0E66E0E0E35DEA70E1DEF34
:1028C00015F02DDE34EF15F02EDEA60EE66E9C0E12
:1028D00093EF12F0C8DDE6D8CBDDE4D8B60E95DD77
:1028E000E1D890DD52EF15F0C6DEB2DDEE500620E5
:1028F000EE50072075DD00C0E6FFB8DEA90E1DEF23
:1029000015F0DDD8D7D85FEF15F0960E9BDFC1D854
:10291000AFDDBFD8D60EE66EDB0EE66E49EF15F0E2
:10292000E66A010EE66E040E21EF15F094DC82ECEF
:1029300010F06BDC2BEF11F0E66E500EF4DDF50EAF
:102940007CD8CFEF13F0F7DCA90E89EF12F0E66E1A
:102950009AEF10F076DE88D823DE34EF15F0A60E5D
:10296000E66E8E0EE0DDA60EE66E8C0E93EF12F094
:10297000080ED5DD0A0EE5EF12F0AFDE67EF15F0B9
:1029800060DED0EF12F0E66E82EF10F08A82020E67
:102990007EEC10F08A92010E7EEF10F0030E35DD12
:1029A0007CEF10F0E66E880E21EF15F0C4DD020E0C
:1029B000DB2A030E1200CBDDABEF12F0DFEC10F0E0
:1029C0001CEF13F0F70EDB5002248DDE0320EA6EBD
:1029D0001200E66EE66AE66AE66A3FEF21F0EA6E0A
:1029E000EFCF06F006C007F0066A1200E552E55286
:1029F000E552E55212001DDEABEF12F0B0EC10F024
:102A00003EEF11F0040EDBCF04F0056A120021DF67
:102A100029EF14F0ADEC10F04DDEB2DF8CDD090EC5
:102A200050DFAEDF7CEF11F0DECFE6FFDDCFE6FF5B
:102A3000040E8DDF1FDF7CEF11F0E66E6E0E93EF5C
:102A400012F0E66E7CEF10F0020EDBCFE6FF030E15
:102A5000DBCFE6FF040EA7EF14F0080E60DD020ED8
:102A60003FDE5DDD010E12000A0E7EEF10F08A0ED1
:102A70001BDF800EE66E0F0EDBEF14F0390E57DD14
:102A80005ADCA80E89EF12F0A60EE66E8E0E64EFE9
:102A900014F0BA0E89EF12F00F0E75DFE66A030E1E
:102AA00086EF10F0BB0E89EF12F0550E04DFAA0E70
:102AB0005BEF14F0080E33DD080E7EEF10F0010E10
:102AC0002EDD070E8FEF12F02BDF8CEF12F033DDCF
:0A2AD000C4EF13F0090E8FEF12F0AF
:062ADA00D9CFE6FFE1CFB9
:102AE000D9FF020EE126FC0EDB0401E0DFD093905B
:102AF00093928A908A920000FE0EDB50050A06E04F
:102B0000030A04E02F0A01E003D004D08A9602D021
:102B10008A9400D072C076F073C077F074C078F0F9
:102B200075C079F0760EE96E000EEA6EEE50000187
:102B3000725D006EEE5000017359016EEE5000019F
:102B40007459026EEE5000017559036ED89003500F
:102B5000000A08E6640E005C000E0158000E0258E0
:102B6000000E035802E2DED7DDD7FE0EDB50290A45
:102B700007E02C0A03E0030A01E06AD08A946AD0D5
:102B80008A9400008A9672C076F073C077F074C0A1
:102B900078F075C079F0760EE96E000EEA6EEE50B0
:102BA0000001725D006EEE5000017359016EEE502F
:102BB00000017459026EEE5000017559036ED890F1
:102BC0000350000A08E61A0E005C000E0158000EC1
:102BD0000258000E035802E2DED7DDD7E66AE66A45
:102BE000E66AE66A41DBE552E552E552E552E66AFD
:102BF000E66AE66AE66A38DBE552E552E552E552F6
:102C0000E66AE66AE66AE66A2FDBE552E552E552D5
:102C1000E552E66AE66AE66AE66A26DBE552E552CE
:102C2000E552E5528A868A8A8A9ADE6ADD6ADECFB2
:102C300000F0DDCF01F0010E005C000E015806E24D
:102C400000D0DF2A010E01E3DB2AF1D78A9602D0F9
:102C50008A9600D072C076F073C077F074C078F0B6
:102C600075C079F0760EE96E000EEA6EEE50000146
:102C7000725D006EEE5000017359016EEE5000015E
:102C80007459026EEE5000017559036ED8900350CE
:102C9000000A08E6640E005C000E0158000E02589F
:102CA000000E035802E2DED7DDD75CD08A868A8A1E
:102CB00072C076F073C077F074C078F075C079F0A8
:102CC000760EE96E000EEA6EEE500001725D006E47
:102CD000EE5000017359016EEE5000017459026EFE
:102CE000EE5000017559036ED8900350000A08E6B3
:102CF000280E005C000E0158000E0258000E03580A
:102D000002E2DED7DDD78A9A8A849380938272C0EA
:102D100076F073C077F074C078F075C079F0760EF5
:102D2000E96E000EEA6EEE500001725D006EEE502C
:102D300000017359016EEE5000017459026EEE509D
:102D400000017559036ED8900350000A08E6140E6E
:102D5000005C000E0158000E0258000E035802E2FB
:102D6000DED7DDD7020EE15C02E2E16AE552E16EF8
:102D7000E552E7CFD9FF1200D9CFE6FFE1CFD9FF67
:102D8000040EE126FE0EDB5028E0020A26E0010ACE
:102D900053E1CDDA06C000F00001026A036AD4DA1A
:102DA00006C0E6FFE3DAF80EDCDAC1DA05C000F0AF
:102DB0000001036AC9DA05C0E6FFD8DAF70ED1DAF6
:102DC000FA0EDBCF00F0FB0EFC0EFD0EBDDA00C0EC
:102DD000E6FFCCDAF60EC5DA2FD0DE6ADE6ADE6AEE
:102DE000DD6ADD52DD52FA0EDBCF00F0FB0EDBCFE9
:102DF00001F0FC0EDBCF02F0FD0EDBCF03F0D9CFEC
:102E0000E9FFDACFEAFF0050EE5C0150EE580250C5
:102E1000EE580350EE5810E2060EE66EE66E16D837
:102E2000E552E552D9CFE9FFDACFEAFFEE2A000EEC
:102E3000EE22EE22EE22D7D7040EE15C02E2E16A36
:102E4000E552E16EE552E7CFD9FF1200D9CFE6FF98
:102E5000E1CFD9FFE652939093928A928A90DF6AEB
:102E6000DFCF00F0FE0EDB50E76E0018E8AE02D0B8
:102E7000E73402D0E750005C14E2FD0EDBA002D084
:102E80008A8001D08A908A82FD0EDBCFF3FFF39017
:102E9000F342FD0EF3CFDBFF00008A920000DF2A31
:102EA000DFD7DF6ADFCF00F00A0EE76E0018E8AE6A
:102EB00002D0E73402D0E750005C03E200D0DF2A02
:102EC000F1D7E552E552E7CFD9FF1200D9CFE6FF9F
:102ED000E1CFD9FFE652DF6ADFCF00F0100EE76ED8
:102EE0000018E8AE02D0E73402D0E750005C1CE2E4
:102EF000FD0EDB50010B02E08A8001D08A908A82AD
:102F0000D950FD0FE96EFF0EDA20EA6E010E0F0BAD
:102F100006E0EC52D890ED32EF32E806FAE100001C
:102F20008A920000DF2AD8D70000E552E552E7CFA9
:102F3000D9FF1200D9CFE6FFE1CFD9FFE6528A9040
:102F400000008A8200008A920000DF6ADFCF00F072
:102F50000E0EE76E0018E8AE02D0E73402D0E7505C
:102F6000005C1CE2FD0EDB50010B02E08A8001D008
:102F70008A908A82D950FD0FE96EFF0EDA20EA6E40
:102F8000010E0F0B06E0EC52D890ED32EF32E8065E
:102F9000FAE100008A920000DF2AD8D78A90000068
:102FA0008A8200008A9200000000E552E552E7CFD5
:102FB000D9FF1200A8D98ADFCDD1A5D9BBDFCAD1EC
:102FC000D9CFE6FFE1CFD9FF030EE126FD0EDBCF1F
:102FD000E6FFFE0EDBCFE6FF39DFE552E5529380D8
:102FE000DF6ADFCF00F00A0EE76E0018E8AE02D00D
:102FF000E73402D0E750005C03E200D0DF2AF1D7CB
:10300000010EDB6A020EDB6A8A8200008A920000EF
:10301000DF6ADFCF00F00E0EE76E0018E8AE02D0D8
:10302000E73402D0E750005C1FE28A820000815042
:10303000010B026E036ADF5002C000F003C001F012
:1030400005E0D89000360136E804FBE1D950010FC5
:10305000E96EDACFEAFF0050EE120150ED120000E7
:103060008A920000DF2AD5D78A8200008A92000067
:1030700093908A900000010EDBCF00F0020EDBCFB0
:1030800001F000C0F3FF01C0F4FF00D0030EE15CCB
:1030900002E2E16AE552E16EE552E7CFD9FF1200A4
:1030A000D9CFE6FFE1CFD9FF020EE126FD0EDBCF3F
:1030B000E6FFFE0EDBCFE6FFC9DEE552E552DF6A32
:1030C000DFCF00F0080EE76E0018E8AE02D0E7345C
:1030D00002D0E750005C08E28A9000008A8200007B
:1030E0008A920000DF2AECD79380DF6ADFCF00F0FE
:1030F0000A0EE76E0018E8AE02D0E73402D0E750BF
:10310000005C03E200D0DF2AF1D7010EDB6ADF6A40
:10311000DFCF00F0080EE76E0018E8AE02D0E7340B
:1031200002D0E750005C1AE28A8200008150010B55
:10313000DF5206E0DFCFF3FFE846FE0BF306FCE1CB
:10314000006E010EDBCFE7FF0050E712010EE7CF64
:10315000DBFF00008A920000DF2ADAD793908A9082
:103160000000010EDB5000D0006E020EE15C02E2B6
:10317000E16AE552E16E0050E552E7CFD9FF120057
:10318000D9CFE6FFE1CFD9FF030EE1268A908A80EE
:103190008A828A928A90DF6ADFCF00F0030EE76EA0
:1031A0000018E8AE02D0E73402D0E750005C04E239
:1031B0008A828A92DF2AF0D7010EDB6A020EDB6A6E
:1031C000DF6ADFCF00F0080EE76E0018E8AE02D02D
:1031D000E73402D0E750005C04E28A828A92DF2A58
:1031E000F0D793800000DF6ADFCF00F0100EE76EAB
:1031F0000018E8AE02D0E73402D0E750005C1DE2D0
:103200008A8200008150010B026E036ADF5002C007
:1032100000F003C001F005E0D89000360136E80464
:10322000FBE1D950010FE96EDACFEAFF0050EE1250
:103230000150ED128A92DF2AD7D793908A90010E1F
:10324000DBCF00F0020EDBCF01F000C0F3FF01C0C6
:10325000F4FF00D0030EE15C02E2E16AE552E16EA8
:10326000E552E7CFD9FF1200D9CFE6FFE1CFD9FF72
:10327000E6528A90DF6A040EDF5C04E28A828A9258
:10328000DF2AF9D7DF6A180EDF5C2FE2010E006E2D
:10329000016A026A036AD950FB0FE96EFF0EDA2059
:1032A000EA6EEE500016EE500116EE500216EE5089
:1032B0000316005001100210031002E08A8001D0B2
:1032C0008A90D950FB0FE96EFF0EDA20EA6ED89093
:1032D000030EEB32020EEB32010EEB32EF32000046
:1032E0008A8200008A92DF2ACED7E552E552E7CFE4
:1032F000D9FF1200E66A040EE66E5CDEE552E55286
:10330000E552E5521200D9CFE6FFE1CFD9FFFD0E1D
:10331000DBCFE6FFFE0EDBCFE6FF98DDE552E552A0
:10332000FB0EDBCFE6FFFC0EDBCFE6FF1200FA0E52
:10333000DBCF04F0FB0EDBCF05F0FC0EDBCF06F09D
:10334000FD0EDBCF07F01200016A026A036A0E0E5F
:1033500001121200E552E5528A90E552E7CFD9FFFB
:103360001200E66E6E0EE66E7AEF19F001C0E6FF0F
:043370007AEF19F0E7
:0C337400090EC26EA60EC06E0F0EC16ED8
:103380009284120066DBE652DF6A0C0EC16EC282C6
:10339000C2B2FED757DBC3CFEFFF010EE76E52DBA1
:1033A000E750E926000EEA22C4CFEFFFC168E552DC
:1033B00055D3070E8B12F80E9416938CDBDF8150D9
:1033C000400B01E0010E0001866F9290929293965D
:1033D000939A9390939293949296899689889288DF
:1033E000898A928A8A868A9A8A908A92F18E02D8EB
:1033F00006EF1AF0C00EF2129D809E909F80D10EB3
:10340000CF6E1F0ECE6E010ECD6E1200E00EF212C8
:10341000F294440ED66EC30ED56E12001ADBFE0E69
:10342000DB50010BE81CE8B08B80E8A08B90FE0E0F
:10343000DB50020BE8407F0BE81CE8B08B82E8A071
:103440008B92FE0EDB50040BE840E8403F0BE81C7B
:10345000E8B08B84E8A08B9401D3FBDA080EE12658
:10346000060E0001805D03E36D50020B02E062DA9C
:10347000E2D1400EE66E000EE66E010EE66ECCEC7A
:1034800020F0E552E552E552E66ED950020FE96EA2
:10349000DACFEAFFE552E750EE6EED6A020EDBCFBF
:1034A00000F0030EDBCF01F0013401E3B4D1005092
:1034B0000008000E015401E3AED101010051C00A21
:1034C00001E14ED1700A01E101D1100A01E1AAD057
:1034D000300A01E190D0100A01E181D0F00A71E0D8
:1034E000100A5FE0300A50E0100A41E0700A32E052
:1034F000100A0CE0300A01E08ED1050ECCDA01C1D1
:10350000E6FFE1DA22EC04F0E5526ED0060EC3DAF3
:1035100000017A51020A10E0010A07E0060A17E1E9
:103520008BDAE66AE66AE6680DD086DAFE0EE66EAB
:10353000E6683F0EE66E06D07FDA060EE66E200ED7
:10354000E66EE66AE66ABFDAC1EC0DF08BDA0001DE
:10355000020E64D0050E51DA02E067DAFEE156DAB7
:1035600002E05CDAFEE191DA9CEC06F036D0060E61
:1035700044DA02E05ADAFEE149DA02E04FDAFEE12B
:103580009CDAC1EC0DF019D0050E37DA02E04DDA05
:10359000FEE13CDA02E042DAFEE177DA11EC0AF011
:1035A0001CD0060E2ADA02E040DAFEE12FDA02E051
:1035B00035DAFEE182DA7EEC0FF054DA01C17CF0FC
:1035C0002ED0050E1ADA02E030DAFEE11FDA02E050
:1035D00025DAFEE15ADAD2EC0BF044DA07D0010E1C
:1035E000E66E010EE66E2ED9E552E5520101266F18
:1035F0000001010E13D07C0E006E450E016E026AB2
:1036000000C0E6FFE66E02C0E6FF52DA87EC22F069
:10361000036E050EE15E03500001120E7C6F040E76
:103620003ADAF9D0070E37DA01010151030A3AE01C
:10363000010A10E0030A06E0010A01E0ECD0010EE5
:10364000E66E01D0E66A050EE66E290EE66E6DECBA
:1036500015F020D002C100F0016A026A036AD6D9CF
:1036600002E0DCD9FEE103DA100E1F0B07E0D89070
:10367000083609360A360B36E806F9E110DA00C0DA
:10368000E6FF01C0E6FF02C0E6FF03C0E6FF34EC40
:1036900019F0E552E552E552E5520101010E266F9F
:1036A0000001B8D0C0EC18F0020EF3CFDBFF030E20
:1036B000F4CFDBFF020EDBCF26F1030EDBCF01F0F0
:1036C00001C000F0016A00C027F147D00151050A8E
:1036D00040E0010A29E0070A23E0010A0FE0030A9B
:1036E00001E092D09250200B06E18950200B03E1BB
:1036F0008AB211D087D08AA285D086D093A003D079
:1037000081B082D07FD09250100B07E18950100B0E
:1037100004E18AA077D0020E7AD08AA073D074D048
:103720008AA472D0050E73D00001010E7C6F8AB698
:1037300003D00101040E0BD08AAA02D0010107D0E8
:1037400089A603D00101030E02D00101050E266FE8
:1037500062D0AED917DEE552E5520001020E5AD012
:103760000151040A3AE0070A2FE0010A15E0030AB2
:103770004DE10251030A0BE0010A05E0030A44E1AE
:1037800093928A9206D093928A82929A03D09392CD
:103790008A82928A899A36D00251060A12E0050A74
:1037A0000BE0010A05E0030A2FE193908A9006D00E
:1037B00093908A80929803D093908A809288899877
:1037C00021D0928893801ED00251050A04E0060A97
:1037D0001BE18A9417D08A8415D00251050A0FE0A4
:1037E000010A0BE0070A05E0020A0EE18A868A8ACE
:1037F00008D08A868A9A898605D08A9601D08A86D8
:103800008A9A8996010E03D0030E01D0030E266F0B
:103810000001010E7C6F00017C510DE004010CBF22
:1038200008D07CC0E6FF44D99CEC20F0E552E5527C
:10383000E55200017C6B080EE15C02E2E16AE552B0
:10384000E16E0CD106D9FED8EFCF7BF000017B51A1
:103850002A0A6CE0030A68E00E0A64E00C0A62E0DF
:10386000030A60E0350A5CE0030A5AE0010A58E006
:103870003F0A56E0010A54E0030A52E0010A50E010
:10388000070A4EE0010A4CE0030A4AE0260A48E033
:10389000010A46E0030A42E0010A40E0070A3EE06E
:1038A000010A3CE0030A3AE0280A38E0290A36E037
:1038B0000F0A34E0010A32E0030A30E0010A2EE088
:1038C000070A2CE0010A2AE01D0A28E0020A26E085
:1038D000010A24E0070A22E0010A20E0030A1EE0B0
:1038E000010A1CE00F0A1AE0010A18E0030A16E0B8
:1038F000010A14E0340A12E0330A10E0300A0CE046
:10390000010A0AE0230A08E0010A06E01E0A04E0B0
:103910007B6B030E7A6F0DD07A6B0AD0020E07D044
:10392000030E05D0040E03D0050E01D0060E7A6FEB
:10393000010E94D000017D517E1104E1100E7D6FC7
:10394000270E7E6F7D07000E7E5B6DA207D07D5136
:103950007E1120E18B808B828B74120000018051DC
:1039600002E1010E10D0800508E0020E805D02E148
:10397000040E09D0030E805D02E1020E04D0050E94
:10398000805D03E1040E4BEF1DF0060E805D02E149
:1039900000017F6B12008150400B01E0010E00011D
:1039A000865D07E08150400B01E0010E866F81AC1F
:1039B000010C000C5CD873D8040E00C0DBFF050EB0
:1039C00001C0DBFF060E02C0DBFF070E03C0DBFFFA
:1039D00005C1E6FF01C1E6FF1200E66ED950040FF3
:1039E000E96EDACFEAFFEECFE6FFEECFE6FFEECFED
:1039F000E6FFEFCFE6FF63EF1DF04DD802C100F008
:103A0000016A026A036A100E1F0B120003C104F060
:103A1000056A066A076A080E1F0B1200D890043662
:103A2000053606360736E8061200D890003601360D
:103A300002360336E8061200030EE66E020EE66E4C
:103A400058EF1DF0FD0EDBCFE9FFFE0EDBCFEAFFE6
:103A50001200D9CFE6FFE1CFD9FF1200E552E7CF40
:103A6000D9FF1200006E0A0EE15E005012000450F1
:103A7000001205500112065002120750031204C131
:103A800008F0096A0A6A0B6A120094DF060EE66EF5
:103A9000010EEDEF1CF0E66EC1DCE552120008509D
:103AA0000012095001120A5002120B5003121200A8
:103AB000260EE66E010EE66E12007CDF260EE66E26
:103AC000010EEDEF1CF07BC0E6FF7AC0E6FF1200AE
:103AD00004011851600BE842E842E842E842E8423B
:103AE000000901E012001951070A40E00B0A3EE00C
:103AF000070A33E0010A23E00B0A1FE0020A1DE077
:103B0000030A19E0080A10E0010A0CE00F0A08E0B5
:103B1000030A01E0120010D90001040E806F1200A8
:103B2000B7EF1DF0EEEF1DF007D90001820E6C6FAC
:103B3000000E6D6F0CD009EF1EF039EF1EF000D9AA
:103B400000016C6F6D6B830E6C27000E6D230001FE
:103B500081930001010E706F1200F2D8EA6A830FA0
:103B6000E96E000EEA221AC4EFFF12001200800E66
:103B70000401185D32E11B51030A1FE0010A0AE04B
:103B8000030A29E1D9D80001DE0E6C6F420E6D6F79
:103B9000120E1ED0ABD8820EF626430EB9D8020EF6
:103BA0000001F76A6C25F66E6D51F7220900F5CF1A
:103BB00070F00A00F5CF71F00ED098D8860EF62678
:103BC000430EA6D86CC0F6FF6DC0F7FF0800F55095
:103BD0000001706F716B000181831200ADD80F0E70
:103BE000E66E710EE66E0F0E9BD8010EE66E830E2A
:103BF000E66E000E95D81AC482F004011A5104E151
:103C00000001050E806F12000001060E806F87EF25
:103C100020F00401206B216B040118511F0B020AD4
:103C20000DE0030A09E0010A16E186D8000181A12E
:103C300012D0040120830FD07FD80DD04BD801E0E3
:103C4000010E5DD86EC0E9FFEA6EEF50040B03E091
:103C50000401010E206F00016B050AE10001200E36
:103C60006C6F040E6D6F000181930001020E706F86
:103C7000120004011A050EE118511F0B00090AE198
:103C80005BD8030E0401195D03E10001818102D0BC
:103C90000001819104011A511CE118511F0B020807
:103CA00018E11C510F0B000914E014D801E0010EBB
:103CB00026D8030E0401195D04E1840E38D8EF6E96
:103CC00012001CAF03D033D8EF6A1200880E2FD831
:103CD000EF6E120035D80F0B080DF350016A000F7C
:103CE000006E040E01221C51800B120025D8040125
:103CF0001A51F66EF76AD890F636F7361200040DB0
:103D0000F350000100246E6F000E01206F6F12004F
:103D1000F7220900F5CF6CF00A00F5CF6DF0120024
:103D2000E66E72EC20F0E552E552E55212006EC0EC
:103D3000E9FF6FC0EAFF12000001010E6B6F120075
:083D4000FBDF04011C5112001D
:083D48006C5002E0000E01D0F6
:103D5000010E00090BE0040100513C0BE842E8426F
:103D60000D0802E1BFEF1EF0CEEF1EF06C5002E036
:103D7000000E01D0010E040901E01FD81200D9CFB6
:103D8000E6FFE1CFD9FFE65200016A6B6B6B706B07
:103D9000716B68EC1DF099D8E552F6D0020E000167
:103DA0006A5D09E168D8040100BD02D0C80E01D0E7
:103DB000880E006F12009EEF1FF0040E0001805D60
:103DC00009E11AC46EFF6E50000802E2050E01D030
:103DD000030E806F00016A0509E10AD8040104BDE1
:103DE00002D0C80E01D0880E046F12009EEF1FF0A3
:103DF000C4D80001080E705D000E715905E270C054
:103E0000DEFF71C0DDFF03D0080EDE6EDD6A040147
:103E100004930491010EDB500413DFCF05F4000E70
:103E2000DB500001705F010EDB50715B200E6E6F86
:103E3000040E6F6F000181A30CD098D815E06CC000
:103E4000F6FF6DC0F7FF0800F55080D8F6E2DB06FC
:103E5000F4D78CD809E06CC0E9FF6DC0EAFFEF50E1
:103E600075D8F7E2DB06F5D7020EE15C02E2E16A03
:103E7000E552E16E89D081D8030E04010015E76E8A
:103E8000010EE7CFDBFF01C4DFFFDE50000170272A
:103E9000DD507123200E6C6F040E6D6F67D80EE03D
:103EA0006CC0E9FF6DC0EAFFEF506EC0E9FF6FC064
:103EB000EAFFEF6E6DD8F2E2DB06F0D7020EE15CAE
:103EC00002E2E16AE552E16E5FD000016B5105E16B
:103ED00045D8840E006F04011DD0040118AF1CD01A
:103EE0000001705104011E5D0001715104011F5950
:103EF00004E21EC470F01FC471F07ADF0001010EED
:103F00006A6F2CD8800E006F0401200E066F040E1D
:103F1000076FC80E046F10D00001020E6A6F040113
:103F2000056BC80E046F0401080E016F200E026FAE
:103F3000040E036FC80E006F6D98120000016A6BCB
:103F40000DD8880E006F0401046B12006EC0E9FFEB
:103F50006FC0EAFFEF6E0001C8EF1FF00401080E0A
:103F6000016F180E026F040E036F1200D9CFE9FF24
:103F7000DACFEAFFEE50ED101200D9CFE6FFE1CF25
:103F8000D9FF020EE1261200E552E7CFD9FF120059
:103F90006E2B000E6F236C2B6D23DF06010E1200BB
:103FA0006DA60CD80001800508E16DBA06D0686ADC
:103FB000696A69806988020E806F12006D6A696A99
:103FC0006D860001010E806F12006D6A696A000142
:103FD000806B1200E5EF1FF00001805101E112003B
:103FE0006850040B04E06950040B01E038D86DB24E
:103FF00012006850010B04E06950010B01E050D839
:104000006850100B04E06950100B01E024D8685090
:10401000400B04E06950400B01E037D86850200B9A
:1040200004E06950200B01E032D86850020B04E034
:104030006950020B01E032D8030E0001805D01E2FD
:1040400012006850080B06E06950080B03E0A4EC6E
:104050001EF068961200698468986D8212006D9255
:10406000699468941200000181A10ED0F8DF6D847C
:104070000001080E846F070E856F8407000E855BB4
:1040800084518511FAE16D941200689C120070A0B1
:1040900003D09EEC1FF07090689A12006892120094
:1040A0006A6A686A9F0E6B6E7B0E696E6E6A0F0E8F
:1040B000E66E710EE66E0F0EE66E14D8E552E5520E
:1040C000E552160E706E68A602D06896FCD76D9801
:1040D0009EEC1FF0000181910001826B0001030E34
:1040E000806F1200D9CFE6FFE1CFD9FFFD0EDBCF05
:1040F000E9FFFE0EDBCFEAFFFC0EDB5004E0EE6AC8
:0E410000FC0EDB06F9D7E552E7CFD9FF12001F
:02410E000001AE
:10411000886B1E0E716E0401260E096F280E0A6F41
:10412000040E0B6F880E086F04014E0E0E6F040E06
:104130000F6F400E0C6F1200D9CFE6FFE1CFD9FF11
:10414000E652FC0EDB50260805E2260EF36EFC0E4E
:10415000F3CFDBFFDF6AFC0EDB50DF5C0FE2DF50EA
:1041600051D8EF50E66EDF50EA6A4E0FE96E040E4A
:10417000EA22E552E750EF6EDF2AEDD7FC0EDBCFE7
:104180000DF4400E04010C170C7D880E0C13E55243
:10419000E552E7CFD9FF1200D9CFE6FFE1CFD9FF33
:1041A0000001886B040108BF27D0FC0EDBCF00F0B4
:1041B0000951D880005403E2FC0E09C4DBFF000162
:1041C000886BFC0EDB50885D0FE28851EA6A280F8D
:1041D000E96E040EEA22EF50E66E885113D8E552DC
:1041E000E750EF6E882BEDD70401260E096F400EC5
:1041F0000817087D880E081300018851E552E7CFA3
:10420000D9FF1200E76EFD0EDBCFE9FFFE0EDBCF1C
:0C421000EAFFE750E926000EEA22120047
:04421C00DACFE4FF12
:10422000E6529EA00BD00001722B000E7323742364
:104230007523D10ECF6E1F0ECE6E9E90F2A40AD0C3
:1042400089708950010B02E0899201D08982440E65
:10425000D66EF294E552E5CFDAFF1100D8CFE4FF35
:10426000E0CFE4FFE46EDACFE4FFE652E552E5CFBB
:10427000DAFFE550E5CFE0FFE5CFD8FF1000D9CF5A
:10428000E6FFE1CFD9FF72C076F073C077F074C05B
:1042900078F075C079F0760EE96E000EEA6EEE5099
:1042A0000001725D006EEE507359016EEE5074594C
:1042B000026EEE507559036ED950FB0FE96EFF0E7A
:1042C000DA20EA6EEE50005CEE500158EE500258D3
:0E42D000EE500358E0E3E552E7CFD9FF1200AD
:0242DE001201CB
:1042E000000200000008D8040E00000001020001D6
:1042F00009022000010100803209040000020000D0
:104300000000070501032600200705810326002081
:10431000040309042A037500730062007000690039
:104320006300700072006F0067002E006F00720063
:10433000670020002000200020002000200044030F
:104340007500730062007000690063007000720005
:104350006F0067002E006F007200670020002000D1
:10436000200020002000200020002000200020004D
:10437000200020002000200020002000200020003D
:0C4380002000F042F042104314433E4382
:04438C002A0EF66E91
:10439000080EF76E000EF86E00010900F550656F0B
:1043A0000900F550666F03E1656701D03DD0090053
:1043B000F550606F0900F550616F0900F550626FAC
:1043C00009000900F550E96E0900F550EA6E090090
:1043D00009000900F550636F0900F550646F09008A
:1043E0000900F6CF67F0F7CF68F0F8CF69F060C04A
:1043F000F6FF61C0F7FF62C0F8FF0001635302E1FE
:10440000645307E00900F550EE6E6307F8E26407B5
:10441000F9D767C0F6FF68C0F7FF69C0F8FF000171
:0A4420006507000E665BBFD71200AF
:06442A007F6A7E6A7D6AD4
:104430007C6A7B6A7A6A796A786A776A766A756A68
:10444000746A736A726A716A706A6F6A6E6A6D6A98
:104450006B6A6A6A696A686A120004D80FD82DEC20
:104460001AF0FCD70F0EC112140E6F6E0001806B94
:104470000001816B0001826BD9EF19F0D0EC1FF0C5
:0A4480006FBE02D0ECEC1FF012003A
:06448A001D6A1C6A1B6A9A
:104490001A6A200EE76ED8901E361F362036213657
:1044A0001A361B361C361D3623501A5C24501B58F6
:1044B00025501C5826501D5809E323501A5E2450DD
:1044C0001B5A25501C5A26501D5A1E2AE72EE4D787
:0244D0001200D8
:0E44D20020C02AF020502502F4CF1FF0F3CFB7
:1044E0001EF021502602F4CF21F0F3CF20F0250258
:1044F000F3501F26F4502022E86A21222A50260277
:0E450000F3501F26F4502022E86A2122000CFE
:02450E00FB0EA2
:10451000E3CFF6FFFC0EE3CFF7FFFD0EE3CFF8FF8E
:10452000FE0EE3CFE9FFFF0EE3CFEAFFE9CFF3FF93
:10453000EACFF4FF0900F5CFEFFFEE66FBD71200DC
:10454000000EF36E00EE00F0040E01D81200EA60D7
:1045500002D0EE6AFCD7F350E9601200EE6AFCD795
:1045600013EE00F023EE00F0F86A199CC6EC21F07F
:0C457000C6EC22F02DEC22F0FBD712006C
:04457C007573627081
:0B458000696370726F672037363200ED
:02458C0012001B
:02458E00030028
:04459000000000FF28
:0845940000000000000000001F
:020000040030CA
:0100000021DE
:010001000EF0
:0100020038C5
:010003001EDE
:01000500807A
:010006008079
:01000900C036
:01000B00E014
:00000001FF
