:020000040000FA
:06000000D8EF10F0120021
:0600080093EF10F012005E
:06001800AEEF10F0120033
:06080000D8EF10F0120019
:0608080093EF10F0120056
:06081800AEEF10F012002B
:06082A00030003220000A0
:100830001301000004000000FB2100000001000083
:1008400008000000F421000008010000070000007B
:100850003BEC09F001010051050A67E0050A65E07B
:10086000040A56E0070A46E0010A07E0030A5CE1D1
:10087000DBEC08F00101020E55D0FE0EDB50020A3F
:100880002FE0010A34E1FD0EDB50010A13E0010AFA
:100890001BE1050E6EEC09F03F0EE66EE66E0C0EE7
:1008A000E66E66EC08F0040E6EEC09F08F0EE66E54
:1008B000E66E06D0040E6EEC09F0800EE66EE66A77
:1008C0000C0EE66E66EC08F08FEC09F073EC08F0A5
:1008D000000EE66EE66AE66A040E8AEC09F005D0C0
:1008E0001F0EE66E060EE66EF5DAE552E5520101E0
:1008F000030E18D06BEC09F004E6D8800A0E8EECDB
:1009000008F013E20101040E006F73EC08F00DD043
:100910006BEC09F002E686EC09F007E207EC09F05F
:100920000101050E006F01D0006BE552C3EF08F026
:10093000C7EC08F001010151080A01E195D0080A4D
:1009400001E192D0070A01E183D0010A01E18CD0D4
:10095000030A6BE0010A5DE0070A15E0010A08E0FE
:10096000030A01E080D0DBEC08F00101020E69D03F
:1009700048EC09F005E1A60EE66E8E0E99EC09F042
:100980000101030E016F48EC09F03EE15EEC09F055
:10099000DBCF00F0F60EDB50FE0FE76E0018E8AE7E
:1009A00002D0E73402D0E750005C1DE2010EDBCF3D
:1009B00004F0056A04BE0568B9DB0ABE0B6815ECD5
:1009C00009F006BE07681FEC09F00D0EE66E7EDB2F
:1009D000020E006E010EDBCFE7FF0050E726010E8E
:1009E000E7CFDBFFD5D7010EDBCF04F0056A04BEED
:1009F00005689CDB0ABE0B6815EC09F006BE0768AB
:100A00001FEC09F0A9EC09F06EDB8A820101040EEB
:100A100018D06BEC09F003E6D880020E7FDB24E2ED
:100A20000101050E016F8A9211D06BEC09F002E60C
:100A300086EC09F019E2E4DBF50EDB5004E101017C
:100A4000060E016F11D00101070E016F4CDB0CD0B7
:100A50006BEC09F002E686EC09F006E20101080EF3
:100A6000016FD5DB01D0016B020EE15C02E2E16AAD
:100A7000E552E16E88D38BDB01010251040A01E1EA
:100A80007DD0040A01E17AD0030A6BE0010A09E093
:100A9000030A73E1F70EDBB08EDB0101020E026F79
:100AA0006DD048EC09F058E1A60EE66E9E0E99EC6A
:100AB00009F0DF6ADFCF00F0F80EDB50E76E0018B8
:100AC000E8AE02D0E73402D0E750005C45E2DFCF69
:100AD00002F0036A02BE0368AEEC09F0DFCF02F059
:100AE000036A02BE0368FB0EDB500224FC0EDB50DF
:100AF0000320B3EC09F0DFCF02F0036A02BE036803
:100B0000F90EDB500224E96EFA0EDB500320EA6E88
:100B1000EFCF00F0016A00BE0168A3EC09F0A80E57
:100B20009FEC09F0A60EE66E840EBDDBA60EE66E07
:100B3000820EB9DBD8DABDDB02E6050EDDDAFBE3B7
:100B4000D2DAE2DA02E6010ED7DAFBE3A60EE66EAF
:100B5000940EA9DBDF2AAED70101030E026FC3DAC0
:100B60000DD0B9DB01E6D2DB09E20101040E026F10
:100B7000F70EDBA203D04BDB01D0026B020EE15C6F
:100B800002E2E16AE552E16EFED275DB010103513A
:100B9000050A01E1B0D0050A01E1ADD0040A01E186
:100BA000A0D0070A01E1A7D0010A09E0030A01E089
:100BB000A1D001011A6BFFDA0101020E99D068DBA6
:100BC00001E099D0A60EE66E8E0EB3DBF90EDB6A5D
:100BD000FA0EDB6A300EF36EFB0EF3CFDBFFFC0E7A
:100BE000DB6A01011A6BF60EDB50E76E1A19E8AEEC
:100BF00002D0E73402D0E7501A5D6CE21AC100F06F
:100C0000016A00BE0168026A036ACEDAEE5000266D
:100C1000EE500122EE500222EE500322AFDA19DB31
:100C2000046E050EE15E045037DBEFCF00F0016A81
:100C300000BE0168F0DA59DB3CDB02E6020E5CDA4A
:100C4000FBE351DA8A9260DA02E6010E55DAFBE341
:100C5000D7DA1AC104F0056A04BE0568066A076A95
:100C6000A3DAEE500424006EEE500520016EEE5023
:100C70000620026EEE500720036E002A000E0122AD
:100C8000022203227BDAE5DA086E050EE15E0850E7
:100C9000010EE76E01DBE750E926000EEA22EFCFF6
:100CA00000F0016A00C001F0006A0016FF0E011694
:100CB0001CDBFFDA02E6020E1FDAFBE314DA8A928B
:100CC00023DA02E6010E18DAFBE39ADA020E0101DA
:100CD0001A2789D7040EA4DA0101040E036F03DA80
:100CE0000AD0F9DA01E612DB06E291DA0101050E1B
:100CF000036F01D0036BE55246D249DA010EDB6A7D
:100D0000F50EDBB058DAC4DA19E1D8DADBCF00F03F
:100D1000F60EDB50E76E0018E8AE02D0E73402D0E2
:100D2000E750005C0BE2090E4BDA00BE0168F70EDB
:100D3000DB500024E96EF80E95DAE8D7F50EDBB249
:100D400066DA020EE15C02E2E16AE552E16E1BD274
:100D50001EDA010EDB6AE66E43D8E55299DA38E115
:100D6000A60EE66E9E0EE5DA010EDB6ADBCF00F022
:100D7000F80EDB50E76E0018E8AE02D0E73402D080
:100D8000E750005C25E2010EDBCF02F0036A02BEF1
:100D90000368E4DA010EDBCF02F0036A02BE0368E7
:100DA000FAD9E1DAA60EE66E800E7DDAA80EE66EBE
:100DB000500E79DAF50EC3DAB2DA020E01DA00BEAD
:100DC0000168F90EDB500024E96EFA0E4BDACED73B
:100DD0001EDA020EE15C02E2E16AE552E16ED3D175
:100DE000D6D9FE0EDB0415E18A947DD9010E18DAFE
:100DF00060DA02E6140E80D9FBE38A96020E10DA5E
:100E000072D957DA02E6140E77D9FBE3030EE66EC9
:100E100013D08A86040E04DA66D94BDA02E6140E81
:100E20006BD9FBE3050EFCD98A845DD942DA02E670
:100E3000140E62D9FBE3E66AE1EC09F0E552020E1A
:100E4000E15C02E2E16AE552E16E9DD1D9CFE6FFB5
:100E50009AD16ADAFE0EDB50020A2BE0010A39E170
:100E6000BBD906C000F0000109DA06C0E6FF01C0E8
:100E7000E6FF7FDAF80E63DAAFD905C000F00001B3
:100E8000036AFCD905C0E6FF01C0E6FF72DAF70E7F
:100E900056DAFA0EDBCF00F0FB0EFC0EFD0EEED99B
:100EA0006DD967DAF60EE66E6E0EE66EE66A040E31
:100EB0000DD0FA0EDBCF00F0FB0EDBCF01F0D890A7
:100EC000003601365BD9020EE66E060E23DAE552D5
:100ED000E55259D1D9CFE6FFE1CFD9FFE652939041
:100EE00093928A928A90DF6ADFCF00F0FE0EDB5089
:100EF000E76E0018E8AE02D0E73402D0E750005C9D
:100F000015E28A820000FD0EDBA002D08A8001D0AB
:100F10008A90FD0EDBCFF3FFF390F342FD0EF3CF8B
:100F2000DBFF00008A920000DF2ADED7DF6ADFCF16
:100F300000F0280EE76E0018E8AE02D0E73402D0C9
:100F4000E750005C03E200D0DF2AF1D7E552E5521A
:100F5000E7CFD9FF1200D9CFE6FFE1CFD9FFE652A4
:100F6000DF6ADFCF00F0100EE76E0018E8AE02D0A7
:100F7000E73402D0E750005C1DE28A820000FD0EDB
:100F8000DB50010B02E08A8001D08A90D950FD0F1E
:100F9000E96EFF0EDA20EA6E010E0F0B06E0EC524E
:100FA000D890ED32EF32E806FAE100008A920000B4
:100FB000DF2AD7D70000E552E552E7CFD9FF12006C
:100FC0005AD9FD0EDBCFE6FFFE0EDBCFE6FF82DF58
:100FD000E552E552FB0EDBCFE6FFFC0EDBCFE6FF72
:100FE000BADFE552E5528A90E552CDD0D9CFE6FF7F
:100FF000E1CFD9FF020EE126FD0EDBCFE6FFFE0EAC
:10100000DBCFE6FF67DFE552E552DF6ADFCF00F0B6
:10101000080EE76E0018E8AE02D0E73402D0E750C1
:10102000005C08E28A8200008A9000008A92000038
:10103000DF2AECD79380DF6ADFCF00F00A0EE76E7D
:101040000018E8AE02D0E73402D0E750005C03E2BB
:1010500000D0DF2AF1D7010EDB6ADF6ADFCF00F0B4
:10106000080EE76E0018E8AE02D0E73402D0E75071
:10107000005C1AE28A8200008150010BDF5206E018
:10108000DFCFF3FFE846FE0BF306FCE1006E010E36
:10109000DBCFE7FF0050E712010EE7CFDBFF0000D8
:1010A0008A920000DF2ADAD793908A900000010E1E
:1010B000DB5000D0006E020EE15C02E2E16AE55214
:1010C000E16E0050E552E7CFD9FF1200040E22D99D
:1010D000E552E5521200040EE96E010EEA6EEE5082
:1010E00001017AEF09F013C104F114C105F115C132
:1010F00006F116C107F11200005C000E0158000E47
:101100000258000E03581200040EE96E010EEA6E3A
:10111000EE50F0D8D890E850000A12000054000EAB
:101120000154000E0254000E03541200F70EDB505F
:101130000424E96EF80EDB500520EA6EEFCF02F0D2
:10114000036A02C003F0026A010EE76EF70EDBCFFE
:1011500008F0F80EDBCF09F0E7500826000E092250
:10116000010EDBCF0AF00B6A1200FE0EDBCFE6FFAA
:1011700070DE006E050EE15E0050120000C0E6FF5A
:1011800001C0E6FF1200E552E7CFD9FF1200CCD82C
:10119000020EE1261200FB0EDB500224006EFC0E54
:1011A000DB500320016E1200D950F90FE96EFF0EDB
:1011B000DA20EA6E1200010EE66E12DEE55212002F
:1011C000E66E040EE66E12DFE552E552E66E010EA3
:1011D000DBCF00F0016A1200FA0EDBCF04F0FB0E49
:1011E000DBCF05F0FC0EDBCF06F0FD0EDBCF07F00A
:1011F0001200E66A030EE66E6DDEE552E55212005D
:10120000000EE66EE66AA7DEE552E5521200E66AD7
:10121000E7DDE5521200FF0E0016000E0116120067
:10122000E66EE1EC09F0E552120008500A24E96E7E
:1012300009500B20EA6EEFCF06F0076A1200025049
:101240000610006E03500710016E00C0E6FFE66E48
:10125000120002C0E6FF03C0E6FFFE0EDBCFE6FF92
:1012600029EF07F0DB500120EA6EE552E750EF6E00
:10127000010EDB2A120058D8E6521200016A026AF7
:10128000036A0E0E01121200E834000E0318120059
:10129000FE0EDB50030A1200F70EDBCFE9FFF80E5B
:1012A000DBCFEAFF1200E66EB9EF09F0B4DFA3EF7F
:1012B00009F011DFD890E850000A120075DFEECF78
:1012C000E6FFEECFE6FFEECFE6FFEFCFE6FF4DDF26
:1012D000010EDB6A1200FFDE44EF09F0E66EE66AFB
:1012E0003C0EE66EE66AB5EF08F048DF32D8FBDE6A
:1012F0008A821200135D006EEE501459016EEE509A
:101300001559026EEE501659036E1200D880010E68
:101310008EEF08F0E66E54DEE552E5521200000E44
:10132000E66EE66AB9EF09F0D9CFE6FFE1CFD9FF63
:101330001200B9DFA60EE66E9C0E53EF09F0E66EC2
:101340006E0E53EF09F000500E0E011217DFB9EFC9
:1013500009F00F0EE66EBADEF9EF08F01CDFA6DF2B
:10136000A90E9FEF09F0006E016AA0DFAA0E9FEFA1
:0813700009F0E66A66EF08F0DF
:08137800070E8B12F80E94160B
:10138000938C8150400B01E0010E0001606F929040
:1013900092929396939A9390939293948A868A9A30
:1013A0008A908A92F18ED5EF09F0C00EF26E9D8080
:1013B0009E909F80D80ECF6EEF0ECE6E010ECD6E3A
:1013C0001200D9CFE6FFE1CFD9FFFE0EDB50010BB3
:1013D000E81CE8B08B80E8A08B90FE0EDB50020B7F
:1013E000E8407F0BE81CE8B08B82E8A08B92FE0EF1
:1013F000DB50040BE840E8403F0BE81CE8B08B846E
:10140000E8A08B94E552E7CFD9FF1200D9CFE6FFD1
:10141000E1CFD9FF0A0EE1263ED9060E01010F5D8C
:1014200001E22FD16D50020B01E02BD1400EE66E90
:10143000620EE66E000EE66E7BEC0FF0E552E552B2
:10144000E552E66ED950020FE96EDACFEAFFE552B7
:10145000E750EE6EED6A020EDBCF00F0030EDBCF3D
:1014600001F0013401E397D000500008000E015450
:1014700001E391D0100E0001625D03E10101010E54
:10148000006F200E0001625D14E1030EE66E020E95
:10149000E66EC8D9FE0EE66EE6683F0EE66EE66AB8
:1014A000E66A030EE66E7DEC06F0B1D90101020E8C
:1014B0000B6F300E0001625D10E10101015102E18C
:1014C000010E016F060E015D08E101010A0505E14B
:1014D0000101030E016F01010A6B400E0001625D04
:1014E00012E166D902E07FD9FEE16AD902E082D931
:1014F000FEE115D9A80EE66E000E37D97DEC06F098
:1015000086D963C00BF1500E0001625D03E1010159
:10151000010E026F600E0001625D12E164C002F014
:1015200064C003F0026A33D9A80EE66E000E50D9EB
:10153000A8EC06F0006E080EE15E005063C00BF1EF
:10154000700E0001625D03E10101010E036F800E68
:101550000001625D08E1630EE66E000EE66E26ECA9
:1015600007F0E552E552900E0001625D14E1CC0EE9
:10157000006E210E016E026A00C0E6FFE66E02C038
:10158000E6FF50D9BFEC10F0036E050EE15E03508C
:101590000101120E0B6F010100510DE0050E005DFF
:1015A00003E1006B2ED907D0E66A030EE66E28EC45
:1015B00004F0E552E5520101015124E0080E015DFD
:1015C00006E1016B0001010EA86F01010DD0060EAE
:1015D000015D0CE101010A5109E1010E0A6F0001F0
:1015E000020EA86F0101010E0B6F0CD0E1D802E0D2
:1015F000FAD8FEE1E5D802E0FDD8FEE10DD998EC7D
:1016000004F005D90101025117E0040E025D03E167
:10161000026BF7D811D064C002F064C003F0026A14
:101620000001B5D8670EE66E000ED2D83BEC05F08F
:10163000006E080EE15E00500101035112E0050E3C
:10164000035D03E1036BDDD80CD0B2D802E0CBD848
:10165000FEE1B6D802E0CED8FEE1DED8C5EC05F05A
:10166000D6D801010B510DE004010CBF08D00BC10D
:10167000E6FFD8D84BEC0FF0E552E552E5520101F8
:101680000B6B0A0EE15C02E2E16AE552E16EE552A3
:10169000E7CFD9FF120001010C510D1104E1100E2A
:1016A0000C6F270E0D6F0C07000E0D5B6DA207D09F
:1016B0000C510D1124E18B708B828B84120001017F
:1016C0000F5102E1010E12D00F0502E1020E0ED001
:1016D000020E0F5D02E1030E09D0030E0F5D02E161
:1016E000040E04D0050E0F5D05E1050EE66E69DE01
:1016F000E5521200060E0F5D02E101010E6B1200B1
:101700008150400B01E0010E0001605D07E0815057
:10171000400B01E0010E606F81AC010C000C045025
:10172000001205500112065002120750031266C043
:1017300008F0096A0A6A0B6A08500012095001127F
:101740000A5002120B500312040E00C0DBFF050EFC
:1017500001C0DBFF060E02C0DBFF070E03C0DBFF8C
:1017600067C0E6FF63C0E6FF1200E66ED950040FC3
:10177000E96EDACFEAFFEECFE6FFEECFE6FFEECF7F
:10178000E6FFEFCFE6FFE66A030EE66E1200655154
:1017900000010210006E64C001F0080E00C0DBFF03
:1017A000090E64C0DBFF66C0E6FF63C0E6FF1200FF
:1017B00064C000F0016A026A036A100E1F0B120077
:1017C00065C004F0056A066A076A080E1F0B12005E
:1017D000E66E080EDBCFE6FF090EDBCFE6FFE66A1A
:1017E000030EE66E1200D89000360136023603363C
:1017F000E8061200D8900436053606360736E806A5
:1018000012000001010EA86F01010B6F1200006EA3
:101810000A0EE15E0050120082DF680EE66E000ED6
:0E182000B5EF0BF0A80EE66E000EE66E12009D
:02182E000401B3
:101830001851600BE842E842E842E842E8420009F9
:1018400001E012001951070A40E00B0A3EE0070AC6
:1018500033E0010A23E00B0A1FE0020A1DE0030A3D
:1018600019E0080A10E0010A0CE00F0A08E0030A78
:1018700001E0120010D90101040E0F6F120066EF93
:101880000CF09DEF0CF007D90001110EFA6F010E5C
:10189000FB6F0CD0B8EF0CF0E8EF0CF000D90001B2
:1018A000FA6FFB6B120EFA27010EFB230101109356
:1018B0000001010EFE6F1200F2D8EA6A120FE96E03
:1018C000010EEA221AC4EFFF12001200800E04017A
:1018D000185D32E11B51030A1FE0010A0AE0030A06
:1018E00029E1D9D800017A0EFA6F1F0EFB6F120E94
:1018F0001ED0ABD81E0EF626200EB9D8020E00015F
:10190000F76AFA25F66EFB51F7220900F5CFFEF0D3
:101910000A00F5CFFFF00ED098D8220EF626200E42
:10192000A6D8FAC0F6FFFBC0F7FF0800F55000018B
:10193000FE6FFF6B010110831200ADD80F0EE66E33
:10194000710EE66E0F0E9BD8010EE66E120EE66E5D
:10195000010E95D81AC411F104011A5104E10101D4
:10196000050E0F6F12000101060E0F6F36EF0FF01C
:101970000401206B216B040118511F0B020A0DE0BA
:10198000030A09E0010A16E186D8010110A112D06C
:10199000040120830FD07FD80DD04BD801E0010E79
:1019A0005DD8FCC0E9FFEA6EEF50040B03E00401D0
:1019B000010E206F0001F9050AE10001200EFA6F07
:1019C000040EFB6F010110930001020EFE6F120066
:1019D00004011A050EE118511F0B00090AE15BD83A
:1019E000030E0401195D03E10101108102D0010120
:1019F000109104011A511CE118511F0B020818E143
:101A00001C510F0B000914E014D801E0010E26D878
:101A1000030E0401195D04E1840E38D8EF6E120044
:101A20001CAF03D033D8EF6A1200880E2FD8EF6EA8
:101A3000120035D80F0B080DF350016A000F006E2D
:101A4000040E01221C51800B120025D804011A51EA
:101A5000F66EF76AD890F636F7361200040DF3509A
:101A600000010024FC6F000E0120FD6F1200F72220
:101A70000900F5CFFAF00A00F5CFFBF01200E66E90
:101A800021EC0FF0E552E552E5521200FCC0E9FFEF
:101A9000FDC0EAFF12000001010EF96F1200FBDF2A
:061AA00004011C511200BC
:0A1AA6006C5002E0000E01D0010EAA
:101AB00000090BE0040100513C0BE842E8420D082C
:101AC00002E16EEF0DF07DEF0DF06C5002E0000EC4
:101AD00001D0010E040901E01FD81200D9CFE6FFA2
:101AE000E1CFD9FFE6520001F86BF96BFE6BFF6B9B
:101AF00017EC0CF099D8E552F6D0020E0001F85D13
:101B000009E168D8040100BD02D0C80E01D0880EDA
:101B1000006F12004DEF0EF0040E01010F5D09E1A0
:101B20001AC46EFF6E50000802E2050E01D0030ECB
:101B30000F6F0001F80509E10AD8040104BD02D0C5
:101B4000C80E01D0880E046F12004DEF0EF0C4D8FD
:101B50000001080EFE5D000EFF5905E2FEC0DEFF2B
:101B6000FFC0DDFF03D0080EDE6EDD6A04010493C2
:101B70000491010EDB500413DFCF05F4000EDB509F
:101B80000001FE5F010EDB50FF5B200EFC6F040EB8
:101B9000FD6F010110A30CD098D815E0FAC0F6FF34
:101BA000FBC0F7FF0800F55080D8F6E2DB06F4D75B
:101BB0008CD809E0FAC0E9FFFBC0EAFFEF5075D806
:101BC000F7E2DB06F5D7020EE15C02E2E16AE552DC
:101BD000E16E89D081D8030E04010015E76E010E75
:101BE000E7CFDBFF01C4DFFFDE500001FE27DD5041
:101BF000FF23200EFA6F040EFB6F67D80EE0FAC0C9
:101C0000E9FFFBC0EAFFEF50FCC0E9FFFDC0EAFFBF
:101C1000EF6E6DD8F2E2DB06F0D7020EE15C02E275
:101C2000E16AE552E16E5FD00001F95105E145D866
:101C3000840E006F04011DD0040118AF1CD00001F8
:101C4000FE5104011E5D0001FF5104011F5904E211
:101C50001EC4FEF01FC4FFF07ADF0001010EF86F12
:101C60002CD8800E006F0401200E066F040E076F43
:101C7000C80E046F10D00001020EF86F0401056B4E
:101C8000C80E046F0401080E016F200E026F040ECF
:101C9000036FC80E006F6D9812000001F86B0DD82D
:101CA000880E006F0401046B1200FCC0E9FFFDC048
:101CB000EAFFEF6E000177EF0EF00401080E016FEE
:101CC000180E026F040E036F1200D9CFE9FFDACFAE
:101CD000EAFFEE50ED101200D9CFE6FFE1CFD9FFB9
:101CE000020EE1261200E552E7CFD9FF1200FC2BCD
:0E1CF000000EFD23FA2BFB23DF06010E12006F
:021CFE006DA6D1
:101D00000CD801010F0508E16DBA06D0686A696A4E
:101D100069806988020E0F6F12006D6A696A6D86AC
:101D20000101010E0F6F12006D6A696A01010F6BEC
:101D3000120094EF0EF001010F5101E11200685002
:101D4000040B04E06950040B01E038D86DB21200B6
:101D50006850010B04E06950010B01E050D8685055
:101D6000100B04E06950100B01E024D86850400BC0
:101D700004E06950400B01E037D86850200B04E0C4
:101D80006950200B01E032D86850020B04E0695022
:101D9000020B01E032D8030E01010F5D01E21200D7
:101DA0006850080B06E06950080B03E053EC0DF097
:101DB00068961200698468986D8212006D92699429
:101DC00068941200010110A10ED0F8DF6D840101AA
:101DD000080E176F070E186F1707000E185B1751C4
:101DE0001811FAE16D941200689C120070A003D0E3
:101DF0004DEC0EF07090689A1200689212006A6AB8
:101E0000686A9F0E6B6E7B0E696E6E6A0F0EE66ED1
:101E1000710EE66E0F0EE66E14D8E552E552E552ED
:101E2000160E706E68A602D06896FCD76D984DECC1
:101E30000EF0010110910101116B0101030E0F6FF2
:101E40001200D9CFE6FFE1CFD9FFFD0EDBCFE9FFCE
:101E5000FE0EDBCFEAFFFC0EDB5004E0EE6AFC0E68
:0C1E6000DB06F9D7E552E7CFD9FF1200EE
:041E6C000101196BEC
:101E70001E0E716E0401460E096F280E0A6F040EC5
:101E80000B6F880E086F04016E0E0E6F040E0F6F3D
:101E9000400E0C6F1200D9CFE6FFE1CFD9FFE6521A
:101EA000FC0EDB50460805E2460EF36EFC0EF3CF47
:101EB000DBFFDF6AFC0EDB50DF5C0FE2DF5051D846
:101EC000EF50E66EDF50EA6A6E0FE96E040EEA220A
:101ED000E552E750EF6EDF2AEDD7FC0EDBCF0DF4B5
:101EE000400E04010C170C7D880E0C13E552E552D0
:101EF000E7CFD9FF1200D9CFE6FFE1CFD9FF01012B
:101F0000196B040108BF27D0FC0EDBCF00F009518C
:101F1000D880005403E2FC0E09C4DBFF0101196BF9
:101F2000FC0EDB50195D0FE21951EA6A280FE96EC9
:101F3000040EEA22EF50E66E195113D8E552E7502D
:101F4000EF6E192BEDD70401460E096F400E0817EE
:101F5000087D880E081301011951E552E7CFD9FF1A
:101F60001200E76EFD0EDBCFE9FFFE0EDBCFEAFFCE
:0A1F7000E750E926000EEA221200F5
:061F7A001201000200004C
:101F80000008D8040E000000010200010902200030
:101F90000101008032090400000200000000070572
:101FA00001034600200705810346002004030904BD
:101FB0002A037500730062007000690063007000FE
:101FC00072006F0067002E00730066002E006E0026
:101FD00065007400200020002000440350004900E8
:101FE0004300440045004D002000460053002000FF
:101FF0005500530042002000440065006D006F0052
:10200000200042006F006100720064002000280080
:1020100043002900200032003000300034008C1FC3
:082020008C1FAC1FB01FDA1F7A
:082028002A0EF66E080EF76E99
:10203000000EF86E00010900F550F36F0900F5502D
:10204000F46F03E1F36701D03DD00900F550EE6F66
:102050000900F550EF6F0900F550F06F0900090015
:10206000F550E96E0900F550EA6E09000900090013
:10207000F550F16F0900F550F26F09000900F6CF35
:10208000F5F0F7CFF6F0F8CFF7F0EEC0F6FFEFC0BF
:10209000F7FFF0C0F8FF0001F15302E1F25307E04F
:1020A0000900F550EE6EF107F8E2F207F9D7F5C036
:1020B000F6FFF6C0F7FFF7C0F8FF0001F307000EC8
:0620C000F45BBFD7120023
:0A20C6007F6A7E6A7D6A7C6A7B6A8D
:1020D0007A6A796A786A776A766A756A746A736AFC
:1020E000726A716A706A6F6A6E6A6D6A6B6A6A6A2E
:1020F000696A686A120004D80FD806EC0AF0FCD7A7
:102100000F0EC112140E6F6E01010F6B0101106BE7
:102110000101116BBCEF09F07FEC0EF06FBE02D035
:062120009BEC0EF0120022
:0A212600DACFE4FFE6529EA012D0CB
:102130000101132B000E14231523162389708950D7
:10214000010B02E0899201D08982D80ECF6EEF0E8A
:10215000CE6E9E90E552E5CFDAFF1100D8CFE4FFB6
:10216000E0CFE4FFE46EDACFE4FFE652E552E5CFDC
:0E217000DAFFE550E5CFE0FFE5CFD8FF100025
:02217E00FB0E56
:10218000E3CFF6FFFC0EE3CFF7FFFD0EE3CFF8FF42
:10219000FE0EE3CFE9FFFF0EE3CFEAFFE9CFF3FF47
:1021A000EACFF4FF0900F5CFEFFFEE66FBD7120090
:1021B00013EE00F023EE00F0F86A0D9C14EC10F022
:0C21C000F9EC10F07BEC10F0FBD71200E3
:0421CC005573625095
:1021D000696350726F672076302E310D0A001B5BE9
:0321E000324A0080
:0C21E40000EE00F00F0EEE6AEA62FDD77C
:0221F0001200DB
:0221F2001200D9
:0721F400000000000000FFE5
:0521FB000000000000DF
:03220000000000DB
:0422030000000000D7
:020000040030CA
:0100000021DE
:010001000EF0
:0100020038C5
:010003001EDE
:01000500807A
:010006008079
:01000900C036
:01000B00E014
:00000001FF
