:020000040000FA
:06000000DFEF22F0120008
:060008003DEF21F01200A3
:060018005DEF21F0120073
:06080000DFEF22F0120000
:060808003DEF21F012009B
:060818005DEF21F012006B
:06082A000200F24500008F
:100830007200000008000000EC4500007A00000093
:0408400006000000AE
:0C08440010EC12F0080EE126F4EC12F0AB
:10085000FD0EDB502D0A01E137D23C0A01E12CD21A
:100860001E0A01E129D2010A01E126D2220A01E190
:10087000F0D1280A01E159D22A0A01E1BED1290AA0
:1008800001E1BBD1010A01E1B8D1050A01E1B5D10D
:10089000060A01E13DD1080A01E131D1050A01E171
:1008A0002ED10A0A01E12BD1120A01E108D1030A73
:1008B00001E105D1010A01E102D1190A01E1CBD020
:1008C000070A01E1C4D0050A01E1C1D0030A01E130
:1008D000BED0250A01E1B9D01E0A01E1A9D0010A62
:1008E00001E1A6D02E0A01E1A3D01F0A01E1A0D0A8
:1008F000010A01E18ED01D0A50E0340A01E010D255
:1009000034EC15F0B1EC12F064EC15F0670E0CEC61
:1009100014F0E66AD4EC12F0A1EC11F033EC11F013
:10092000020EA6EC11F01FE2860E46EC14F0BB0E90
:100930004EEC15F0580EE66E050ECBEC12F0A90E3B
:10094000E66E0A0ECBEC12F0380EBCEC12F06BEC3B
:1009500015F0C90EA3EC10F0C7EC14F0FCEC11F08C
:10096000DDE3DB2ADBD7FA0EE66E070EE66E240E19
:100970004EEC15F00A0EBCEC12F052EC14F0030E23
:10098000A3EC10F0C0EC11F0A90E4EEC15F0E66AE5
:10099000E66AE66AADEC13F094D1040EE3EC12F0D3
:1009A000830EC4EC12F0880EC4EC12F0890EC4EC75
:1009B00012F08A0EC4EC12F0060EE3EC12F071ECA9
:1009C00015F0E66AE66A200EE66EE66AFAEC10F0CA
:1009D000A60EE66E840EB8EC12F0A60EE66E880E39
:1009E000B8EC12F07CEC15F0A60EE66E820EB8ECB8
:1009F00012F0BAEC14F0A7EC10F061EC15F0A60EB2
:100A0000E66E940EE66EE66A040EE66E01EC18F0F1
:100A100058D1050EE3EC12F03F0EE66EE66E07ECE1
:100A200015F0040EE3EC12F08F0EE66EE66E06D0C3
:100A3000040EE3EC12F0800EE66EE66A07EC15F0A9
:100A4000BAEC14F011EC14F05FD03AEC13F091EC26
:100A500015F01E0E34D1AAEC11F0E6EC0DF09BEC73
:100A600012F0CEEC14F0070EDB50310B006E310E9D
:100A7000005C07E3060EDB50300B016E300E015CAC
:100A800012E2AAEC12F0E66ABFEC10F0A1EC11F051
:100A900033EC11F0070EA6EC11F00FE275EC14F038
:100AA000F7E3DB2AF5D77AEC13F0A5EC14F0AAEC07
:100AB00012F0030EE66EBFEC10F0A5EC14F03AEC69
:100AC00013F0FD0EDB50120A0DE1A1EC11F033EC36
:100AD00011F0080EA6EC11F005E275EC14F0F7E346
:100AE000DB2AF5D791EC15F0060EA3EC10F0CEEC56
:100AF00014F00B0EB4EC12F0060EA3EC10F03AEC6E
:100B000013F01F0EC5EC13F0E552E5520A0ED7D0D4
:100B1000A1EC11F033EC11F0FF0E005C030E015854
:100B200005E275EC14F0F6E3DB2AF4D7D2EC10F012
:100B3000A0EC12F03AEC13F0A1EC11F033EC11F050
:100B4000070EA6EC11F005E275EC14F0F7E3DB2AD2
:100B5000F5D7D2EC10F0F3CF00F0F4CF01F0000E97
:100B60000016300E0116020E00C0DBFF030E01C09E
:100B7000DBFF3AEC13F0090E85EC14F00B0E85EC5C
:100B800014F045EC13F061EC15F0FC0EDB50AA08F4
:100B900001E1CBD074EC11F0FF0E0016000E01162F
:100BA000060E00C0DBFF74EC11F001C000F0016A1A
:100BB000FF0E0016000E0116070E00C0DBFF67ECEB
:100BC00013F0E668030E9BEC13F0BAD89BEC12F01E
:100BD000060EDB6819EC13F001C000F0016A0F0E7D
:100BE0000012000E0112070E00C0DBFFAAEC11F08C
:100BF000E9EC0BF09BEC12F098D0FD0EDB500708EF
:100C000007E17AEC13F091EC15F0080E85EC14F086
:100C10003AEC13F07AEC13F0FD0EDB50070803E119
:100C2000080EB4EC12F091EC15F00A0E37EC14F04B
:100C30002E0801E17AD00B0EB4EC12F0FD0EDB5061
:100C4000070803E1080EB4EC12F061EC15F08A908D
:100C50006CD0A1EC11F033EC11F0FF0EA6EC11F00A
:100C600005E275EC14F0F7E3DB2AF5D718EC14F085
:100C7000DDEC13F005E275EC14F0FAE3DB2AF8D7AB
:100C800037EC15F033EC11F0FF0EA6EC11F005E295
:100C900075EC14F0F7E3DB2AF5D741EC15F0DDEC49
:100CA00013F005E275EC14F0FAE3DB2AF8D751EC07
:100CB00015F05AEC15F003D091EC15F0140E16EC6B
:100CC00015F023EC15F031D0A1EC11F01CEC14F070
:100CD00005E275EC14F0FAE3DB2AF8D718EC14F00F
:100CE000DDEC13F005E275EC14F0FAE3DB2AF8D73B
:100CF00037EC15F01CEC14F005E275EC14F0FAE397
:100D0000DB2AF8D741EC15F0DDEC13F005E275ECC9
:100D100014F0FAE3DB2AF8D751EC15F05EEC14F08E
:100D20008A9045EC13F0030E03D045EC13F0010E4E
:100D3000006E080EE15C02E2E16AE552C5EF11F0D7
:100D40003BEC14F0F50EDBA002D0F4EC12F0FD0E3B
:100D5000DB500E0A01E104D3010A01E101D31E0AAE
:100D600001E1FED23D0A01E1FBD2010A01E1F8D224
:100D70003E0A01E1C6D2110A01E1C3D2120A01E121
:100D800072D23F0A01E16FD2220A01E16CD21F0A3E
:100D900001E169D21A0A01E166D20E0A01E163D2C9
:100DA0000A0A01E12AD2050A01E127D2030A01E178
:100DB00024D2010A01E1A3D10C0A01E1A0D1040A65
:100DC00001E19DD1070A01E19AD1010A01E197D120
:100DD0002B0A01E194D11F0A01E116D1010A01E1B8
:100DE00013D12D0A01E110D1030A01E10DD11F0A2F
:100DF00001E10AD1010A01E1C4D0290A04E045EC6D
:100E000013F0030E15D334EC15F08BEC15F01A0E1D
:100E100078EC14F0040EDB6AEAEC10F0E8AE02D0D5
:100E2000E73402D0E750005C01E398D0006ABBECE5
:100E300011F0040E47EC12F008AE03D009680A68FE
:100E40000B6872EC13F07FEC12F020EC12F0FDE175
:100E500028EC15F0070E006EBBEC11F0040E47EC09
:100E600012F008AE03D009680A680B6872EC13F040
:100E700038EC12F003E066EC11F0FDE13DEC13F00C
:100E8000DE6ADD6A74EC11F04AEC14F05CE2006A90
:100E9000BBEC11F053EC12F00ABE0B68E3EC11F05E
:100EA0000A501E24086E0B501F20096E1FEC11F013
:100EB00003E066EC11F0FDE1F1EC10F0040EDBCF85
:100EC00012F0136A12BE1368E3EC11F012501E24E4
:100ED000106E13501F20116E010E1026000E1122ED
:100EE000F70EDB50102497EC13F01120EA6EEFCFD1
:100EF0000CF00D6A0E6A0F6A0C0E1F0B07E0D890FB
:100F00000C360D360E360F36E806F9E10C5000129D
:100F10000D5001120E5002120F500312DECF14F0CA
:100F2000DDCF15F0166A176A145000121550011221
:100F30001650021217500312BDEC10F0DF2A010EFA
:100F4000A1E3DB2A9FD7E66AD4EC12F08EEC14F012
:100F50008EEC14F00C0EE0EC10F05ED752EC14F0B6
:100F6000030EA3EC10F034EC15F0C7EC14F0E66AB5
:100F7000010EE66E040EE66EADEC13F0E552E5529E
:100F800040D071EC15F0D9EC10F062EC12F0EECF1D
:100F9000E6FFEFCFE6FFFAEC10F0040EDB6ADBCFE2
:100FA00000F0F60EDB50FE0FE76E0018E8AE02D040
:100FB000E73402D0E750005C12E2010E79EC11F048
:100FC00008BE096889EC11F002BE03682BEC15F02D
:100FD0000D0EE66EA7EC10F0E8EC13F0E0D7010E72
:100FE00079EC11F008BE096889EC11F002BE0368C3
:100FF000D5EC10F004EC13F0000EE66EE66A8DEC12
:1010000017F0E552E5520CD2FD0EDB5031080AE034
:10101000D3EC14F0060EE3EC12F0000EE66EE66A76
:1010200007EC15F071EC15F011EC13F0040EDB6A0F
:10103000EAEC10F0E8AE02D0E73402D0E750005CF2
:1010400001E3EED1DE6ADD6A74EC11F04AEC14F0D3
:1010500038E2010EE76EF70EDBCF0AF0F80EDBCFB9
:101060000BF0E7500A26000E0B22040EDBCF0CF02B
:101070000D6A0CBE0D680A500C24086E0B500D2032
:10108000096EDE500824E96EDD5063EC13F004BEF7
:101090000568F70EDB500424026EF80EDB500520C5
:1010A000036EDE500224E96EDD500320EA6EEF503D
:1010B00098EC11F00D0EE66EA7EC10F067EC12F054
:1010C000C3D7070E79EC11F008BE096889EC11F05E
:1010D00002BE03680FEC15F0060EE926000EEA22A8
:1010E000EF5004EC13F000EC12F0090EB3EC11F029
:1010F000090EB3EC11F0080EE0EC10F099D7F50EE4
:10110000DB50010B07E0D9EC10F02EEC12F002E2FC
:1011100011EC13F0040EDB6AEAEC10F0E8AE02D03A
:10112000E73402D0E750005C01E37AD16CEC12F0B6
:1011300006BE07680BEC15F002BE036856EC13F010
:10114000FD0EDB502E0A06E1180E85EC14F086EC3D
:1011500012F002D0DCEC14F0E552E552E0EC13F0B2
:1011600008BE0968CCEC10F004BE056841EC11F033
:1011700002E1035001183EE0E4EC14F061EC15F0DC
:10118000040EDB407F0B006E016A026A036A00AE48
:1011900003D001680268036848EC13F06CEC12F0AD
:1011A00006BE07680BEC15F002BE036856EC13F0A0
:1011B000FD0EDB502E0A06E1180E85EC14F086ECCD
:1011C00012F002D0DCEC14F0E552E552E0EC13F042
:1011D00008BE0968CCEC10F004BE056841EC11F0C3
:1011E00002E10350011806E089EC12F003E1ED5032
:1011F00001E10CD18EEC15F08FD7040EDB6AEAEC1E
:1012000010F0E8AE02D0E73402D0E750005C01E312
:1012100007D1DE6ADD6ACAEC13F012E253EC12F079
:101220000ABE0B68F8EC12F004BE0568D7EC12F0A9
:101230004AEC14F002E2C0EC12F067EC12F0EBD7CB
:10124000080EB4EC12F0010E94EC13F0B4EC12F0B2
:10125000C0EC12F0040EDBCFE7FFE850E726040EE7
:10126000E7CFDBFFCCD7040EDB6AEAEC10F0E8AE88
:1012700002D0E73402D0E750005C01E3D1D0DE6A4F
:10128000DD6A74EC11F0080EA6EC11F012E253ECDA
:1012900012F00ABE0B68F8EC12F004BE0568D7EC39
:1012A00012F04AEC14F002E2C0EC12F067EC12F01B
:1012B000E8D7FD0EDB50060A10E0290A07E03F0AD6
:1012C0000FE1180E85EC14F00A0E11D0180EB4ECD4
:1012D00012F00A0E94EC13F00AD0DCEC14F009D0F2
:1012E000180EB4EC12F0020EA3EC10F0170EC5ECC1
:1012F00013F0E552E552C0EC12F0080EE0EC10F0ED
:10130000B4D7040EDB6AEAEC10F0E8AE02D0E734A2
:1013100002D0E750005C01E383D0DE6ADD6A74EC42
:1013200011F0100EA6EC11F013E253EC12F00ABE0D
:101330000B68F8EC12F004BE0568D7EC12F00E0E44
:10134000A6EC11F002E2C0EC12F067EC12F0E7D765
:1013500081EC15F0C0EC12F0100EE0EC10F0D3D7D9
:10136000F50EDBA002D0C0EC12F0040EDB6AEAEC52
:1013700010F0E8AE02D0E73402D0E750005C50E253
:101380006CEC12F006BE07680BEC15F002BE0368A9
:1013900056EC13F05EEC14F0E0EC13F008BE0968B4
:1013A000CCEC10F004BE056841EC11F002E10350F2
:1013B000011833E0DE6ADD6A74EC11F00A0EA6EC67
:1013C00011F02BE26CEC12F006BE07680BEC15F086
:1013D00002BE0368D5EC10F0EBEC13F0020ECBEC80
:1013E00014F05EEC14F0E0EC13F008BE0968CCECED
:1013F00010F004BE056841EC11F002E10350011841
:101400000CE089EC12F004E1ED5002E1040E10D082
:10141000DF2A010ED1E3DB2ACFD78EEC15F0A7D758
:10142000F50EDBA204D045EC13F0010E01D0020E44
:10143000006E050EE15C02E2E16AE552C5EF11F0D3
:101440003BEC14F0F50EDBA002D0F4EC12F0FD0E34
:10145000DB502C0811E0FD0EDB502D080DE0FE0ED8
:10146000DB50020A01E166D1010A01E1E2D0060A7D
:1014700005E0E66AB1EC10F0030EA3D134EC15F0F0
:101480008BEC15F05A0E78EC14F0020EDB6AEAECE5
:1014900010F0E8AE02D0E73402D0E750005C01E380
:1014A000BCD0F00EE66E070E04EC15F0070E006ED1
:1014B000016A2F0E026E036A020E47EC12F008AEAC
:1014C00003D009680A680B68D9EC10F0ECEC11F055
:1014D0000B50EE200F0E0516E3EC13F003E066EC64
:1014E00011F0FDE13DEC13F0006ABBEC11F0020ECF
:1014F000DBCF08F0096A08BE09681FEC11F003E0B1
:1015000066EC11F0FDE1F1EC10F0020EDB280E6E3E
:101510000F6A0EBE0F6855EC11F003E0F5EC11F008
:10152000FDE1EAEC12F0010ECEEC13F0020F086EB2
:10153000096A08BE09681FEC11F003E066EC11F0BF
:10154000FDE13FEC14F0030F0E6E0F6A0EBE0F6844
:1015500055EC11F003E0F5EC11F0FDE1EAEC12F0CE
:10156000020ECEEC13F0040F086E096A08BE09687B
:101570001FEC11F003E066EC11F0FDE13FEC14F01C
:10158000050F0E6E0F6A0EBE0F6855EC11F003E0EA
:10159000F5EC11F0FDE1EAEC12F0030ECEEC13F0E5
:1015A000060F086E096A08BE09681FEC11F003E017
:1015B00066EC11F0FDE13FEC14F0070F0E6E0F6AC0
:1015C0000EBE0F6855EC11F003E0F5EC11F0FDE1F3
:1015D000EAEC12F0E66AD4EC12F0030EDB6ADBCF21
:1015E00000F0040EE76E0018E8AE02D0E73402D037
:1015F000E750005C07E227EC12F079EC15F0030EDF
:10160000DB2AEDD7080E006E020EDBCFE7FF00509D
:10161000E726020EE7CFDBFF3AD752EC14F0020EBA
:10162000A3EC10F034EC15F0C7EC14F0B1EC12F0B0
:10163000C0D0A60EE66E9E0E88EC14F0020EDB6A99
:10164000EAEC10F0E8AE02D0E73402D0E750005CDC
:1016500001E3AFD0020EDBCF04F0056A04BE0568DB
:1016600098EC14F0020EDBCF04F0056A04BE0568A6
:1016700061EC14F0020EDBCF02F0036A02BE0368D5
:10168000D5EC10F0006E016AE8500E0E011200C099
:10169000E6FF5AEC13F0A80E4AEC15F0A60EE66E23
:1016A000840EB8EC12F0FD0EDB0408E0FD0EDB50FA
:1016B000300804E0FD0EDB50310802E17CEC15F04F
:1016C000A60EE66E820EB8EC12F02AEC11F0A60E11
:1016D000C0EC14F0E76E040EE7CFDBFFDB50020B2B
:1016E00002081DE1760EE96E000EEA6EEE50000172
:1016F000725D006EEE507359016EEE507459026EB9
:10170000EE507559036ED890E850000A07E6050EB2
:10171000A6EC11F0000E0258000E0358D8E3010E9B
:10172000A3EC10F0A60EE66E940EB8EC12F0020ECA
:10173000DB2A86D7020EDB6AEAEC10F0E8AE02D0B4
:10174000E73402D0E750005C34E2020EDBCF00F059
:10175000016A00BE0168C5EC10F0EF50E66EE66A63
:10176000030ECBEC14F0FD0EDB50100A08E0150A56
:1017700006E0080A04E0050A02E01A0A02E1180E6F
:1017800001D0080EB4EC12F0080E37EC14F0100A79
:1017900008E0150A06E0170A04E01A0A05E1170E28
:1017A00001D00A0EB4EC12F0C0EC12F0020EDB2AEB
:1017B000C3D7F50EDBA204D045EC13F0010E01D027
:1017C000020E006E050EE15C02E2E16AE552C5EF31
:1017D00011F010EC12F0030EE126F50EDBA002D0A2
:1017E000F4EC12F0FD0EDB500E0A01E1C6D1010A45
:1017F00001E1C3D11E0A01E1C0D13D0A01E1BDD121
:10180000010A01E1BAD1280A01E12AD1150A01E150
:1018100027D11D0A01E124D11E0A01E121D13C0A90
:1018200001E11ED1230A01E11BD1050A01E118D112
:10183000030A01E115D1010A01E112D1190A01E1FE
:101840000FD11A0A01E10CD10F0A01E109D1050AF1
:1018500001E106D1040A01E103D1050A01E100D149
:10186000070A01E1FDD02A0A01E1FAD01F0A63E06C
:101870002C0A61E0030A5FE01F0A5DE0010A5BE0F9
:10188000290A04E045EC13F0030E98D1F50EDB5065
:10189000010B010807E134EC15F08BEC15F0070E95
:1018A0000CEC14F00001896BA5EC12F0E8AE02D04C
:1018B000E73402D0E750895D01E378D164EC15F09C
:1018C00000018929066E076A06BE0768D3EC13F08B
:1018D00002BE0368D5EC10F000010410006E90EC1D
:1018E00012F0060E006EBBEC11F0010EDBCF04F01F
:1018F000020EDBCF05F0066A076AE3EC13F003E0A3
:1019000066EC11F0FDE13DEC13F04DEC14F0860EA9
:1019100046EC14F079EC15F052EC14F0020EA3EC46
:1019200010F034EC15F0C7EC14F0B1EC12F0020E2C
:1019300000018927B9D7D3EC14F0FD0EDB0408E0D1
:10194000FD0EDB50300804E0FD0EDB50300808E1EE
:10195000E66AEF0EB8EC12F0E66AF80EB8EC12F098
:101960000001896BA5EC12F0E8AE02D0E73402D09A
:10197000E750895D01E31AD189C000F0016A00BE19
:101980000168026A036A48EC13F089C006F0076A2E
:1019900006BE0768D3EC13F002BE03682BEC15F00B
:1019A0000DEC13F0FD0EDB0404E0FD0EDB503008FF
:1019B00005E1F60EE66E2A0EB8EC12F089C004F0CE
:1019C000056A04BE05685FEC13F04DEC12F0016E81
:1019D000EE500620026EEE500720036E002A000E25
:1019E0000122022291EC11F0086E050EE15E085012
:1019F000010EE76EF70EDBCF08F0F80EDBCF09F033
:101A0000E7500826000E092289C00AF00B6A0ABEB8
:101A10000B6808500A24E96E09500B201CEC15F0E5
:101A2000010EE76EF70EDBCF02F0F80EDBCF03F00E
:101A3000E7500226000E032289C004F0056A04BEA6
:101A4000056802500424E96E03500520EA6EEF5049
:101A500098EC11F00DEC13F0020E0001892782D7EB
:101A6000F50EDBA014D03AEC13F0DF6ADFCF00F004
:101A7000F90EDB50E76E0018E8AE02D0E73402D072
:101A8000E750005C04E2C0EC12F0DF2AEFD700015F
:101A9000896BA5EC12F0E8AE02D0E73402D0E75033
:101AA000895D01E383D008EC12F0006E040EE76E4E
:101AB0000018E8AE02D0E73402D0E750005C22E321
:101AC00008EC12F007081EE008EC12F008084FE1DD
:101AD000FD0EDB50130802E0000E01D0010E026E75
:101AE000FD0EDB500A0802E0000E01D0010E016E6F
:101AF000FD0EDB500D0802E0000E01D0010E0110BA
:101B0000021035E08929066E076A06BE0768D3EC25
:101B100013F002BE036849DB00010410006E05C02B
:101B200001F090EC12F0A5EC13F0FD0EDB50100A62
:101B300004E03F0A02E0010A03E1180EB4EC12F0DF
:101B4000080EB4EC12F00A0E37EC14F0100A0CE098
:101B50003E0A0AE0010A06E0230A04E0050A02E060
:101B6000030A05E10E0E01D00A0EB4EC12F0C0EC2F
:101B700012F0020E000189278CD7B4EC13F0EFCFDE
:101B800002F002C003F0026ACBEC11F0EF5000014A
:101B90000210006E03C001F0010E00C0DBFF020E58
:101BA00003C0DBFFA5EC13F05EEC14F0F50EDBA236
:101BB00004D045EC13F0010E01D0020E006E030EAE
:101BC000E15C02E2E16AE552C5EF11F010EC12F0BF
:101BD000070EE126DE6ADD6A040EDB6AF50EDBA085
:101BE00002D0F4EC12F0FE0EDB5001E131D1020A1A
:101BF00001E1D9D0010A01E1BED0060A01E082D19B
:101C0000D8DA000EEE5C000EEE58F80EEE58000E1C
:101C1000EE5853E3F50EDBA01AD034EC15F0B1EC1E
:101C200012F0006AA8DB046A056A0668076AC1DA6E
:101C30003EEC12F00C0E20EC12F0FDE128EC15F059
:101C4000E66AF7EC14F0800EE66ED4EC12F0040EA7
:101C5000DB6AC0DAE8AE02D0E73402D0E750005CBD
:101C600001E362D158EC12F076EC15F0200EE66E2E
:101C70003C0EFBEC14F04DEC14F0E7EC18F085ECA6
:101C800013F090DB00BE016891EC13F0DBCF02F0A3
:101C9000060EDBCF03F0000E0216FF0E0316F8EC63
:101CA00013F000BE016871DA02C0EFFF4DEC14F0D2
:101CB000B1EC12F0E8EC13F0CCD734EC15F0B1EC49
:101CC00012F0006A20EC13F07FEC12F0B9DBFEE1B9
:101CD00028EC15F0060E006E20EC13F0C9DB02E0D4
:101CE000F5DAFEE13DEC13F0800EE66EF7EC14F051
:101CF000A9EC14F0ACDB76EC15F0A9EC14F0D8DB11
:101D000076EC15F071EC12F019EC13F04AEC14F0CB
:101D10002FE219EC13F02FEC13F0050EF3CFDBFFDD
:101D2000060E97EC12F002BE036841DB91EC13F053
:101D3000DBCF04F0060EDBCF05F0000E0416FF0E1D
:101D4000051605C004F0056A40EC13F002BE0368F6
:101D50002EDB010E0026000E012217DA04C0EFFF71
:101D60004DEC14F0020EDB2A030ECEE3DB2ACCD7B7
:101D7000B1EC12F0D9D011EC13F0040EDB6A2ADAC0
:101D8000E8AE02D0E73402D0E750005C01E3CCD0EB
:101D9000090EE9DAE66E06DB00BE0168D8EC13F046
:101DA000040EDB2AECD705DA000EEE5C200EEE58AE
:101DB000000EEE58000EEE5828E33AEC13F0F50E44
:101DC000DBA00DD08EDBCCDA000E025E200E035AB3
:101DD0008DDB05E2FFEC14F0F6E3DB2AF4D7040E0A
:101DE000DB6AF8D9E8AE02D0E73402D0E750005CF5
:101DF00001E39AD043EC14F000BE01688CEC13F0C0
:101E000000BE0168E1EC14F0ECD7F50EDBA00AD0BF
:101E1000C9D967DBA5DA6ADB05E2FFEC14F0FAE367
:101E2000DB2AF8D7040EDB6AD5D9E8AE02D0E73456
:101E300002D0E750005C01E377D043EC14F000BE21
:101E400001688CEC13F000BE0168E1EC14F0ECD7F3
:101E5000FD0EDB500F0A0EE01E0A0CE03C0A07E004
:101E6000230A05E0220A09E1DE68010E05D0DE68DA
:101E7000030E02D0DE680F0EDD6E36DA026A036AE8
:101E800098D9EE5000181BE1EE50011818E1EE5001
:101E9000021815E1EE50031812E111E183D985EC27
:101EA00013F0050E060EDBCF01F001C000F0016A51
:101EB000B4EC13F000C0EFFF6EDA1DDB23D0F50E9B
:101EC000DBA00BD05DDB6ED90CDB4ADA0FDB05E261
:101ED000FFEC14F0FAE3DB2AF8D7040EDB6A7AD9B8
:101EE000E8AE02D0E73402D0E750005C0BE243ECEE
:101EF00014F000BE01688CEC13F000BE0168E1EC48
:101F000014F0EDD7040EDB6A65D9E8AE02D0E734F1
:101F100002D0E750005C08E245DA00BE016835D91E
:101F2000EF6A040EDB2AF0D7F50EDBA202D0E66AD8
:101F300018D9070EE15C02E2E16AE552E16EE55272
:101F4000E7CFD9FF12003BEC14F0040EDB6AF50E6C
:101F5000DBB04ADBFE0EDB50020A01E1A8D0010A29
:101F600001E17BD0060A01E0CDD034EC15F0F9DABE
:101F7000F00EE66E070E04EC15F0060E006E016A18
:101F80002F0E026E036A04680F0E056E98DB76DA78
:101F9000040E1F0B02E09AD9FEE16FDB040EDB6A30
:101FA00019D9E8AE02D0E73402D0E750005C01E373
:101FB000BBD0800EE66EF8DADE6ADD6AEBDB08E2A3
:101FC00046DA76EC15F0DF2A010EF8E3DB2AF6D7C5
:101FD000DE6ADD6ADFDB3DE287D941DB020EF3CF4B
:101FE000DBFF030EA4DA02BE0368EDD922EC14F085
:101FF000CCD8020EDBCFEFFFDBCF06F0030EDBCF3A
:1020000007F0000E0616FF0E071607C006F0076A57
:1020100037DB02BE0368DECF04F0DDCF05F0010E32
:10202000D89004360536E806FBE1010E0426000EC2
:10203000052202500424006E03500520016EA5D82D
:1020400006C0EFFF4DEC14F0DF2A010EC3E3DB2ADC
:10205000C1D787DA080EB4D8A3D7A60EE66E9E0EB7
:1020600088EC14F0040EDB6AB5D8E8AE02D0E73491
:1020700002D0E750005C58E22FEC15F004BE056872
:1020800098EC14F02FEC15F004BE056861EC14F028
:10209000A60EE66E800E6CDAA80EC0EC14F0E66EAA
:1020A00081D900BE016884DB040EDB2ADDD7F50E82
:1020B000DB50010B14E07DD8D1D911E2BCD96BD92A
:1020C000E552E750EF6EDE6ADD6A0ED9C2DB0EDA4A
:1020D00006E256DADF2A010EF8E3DB2AF6D7040E11
:1020E000DB6A78D8E8AE02D0E73402D0E750005C73
:1020F0001BE2A1D957D900BE01685ADB41DA040EB0
:10210000DB2AEFD7040EDB6A65D8E8AE02D0E734ED
:1021100002D0E750005C08E245D900BE016835D81E
:10212000EF6A040EDB2AF0D7F50EDBA202D0E66AD6
:1021300018D8000E006E050EE15C02E2E16AE5527D
:1021400024D1E66A5DD365DAE552E552120069DB17
:10215000E552E5521200E66E4DEC17F0E552E552FD
:102160001200FE0EDBCFE6FFFD0EDBCFE6FF94ECA8
:1021700015F0E552E552E5521200FEDA41D3060EA3
:10218000E66E04EC18F023EF15F0F70EDB50002498
:10219000CEDA0120EA6E1200F70EDB500824C7DA0F
:1021A00063EF13F0040E04EF14F00FEC15F0EF5092
:1021B0001200D950F90FE96EFF0EDA20EA6E120014
:1021C000006E040EDBCFE7FF0050E726040EE7CFDA
:1021D000DBFF1200DBCF00F0F60EDB50E76E0018DD
:1021E000120004500012055001120650021207504E
:1021F00003121200FE0EDBCFE6FFE3EC16F0006EDA
:10220000050EE15E00501200F70EDB5006248FDA57
:10221000072030EF14F0D89004360536063607361E
:10222000030E236E246A256A266A04C01EF005C0C8
:102230001FF006C020F007C021F074EF22F0F70E67
:10224000DB50082474DA0920EA6EEFCF04F0056A47
:10225000E3EF13F072C076F073C077F074C078F0DB
:1022600075C079F01200040EDBCF00F0050EDBCF55
:1022700001F0120043DADDD9040EDB28086E096A8A
:102280001200F70EDB50042452DA0520EA6EEF50FC
:1022900000010610026E07C003F0E850001812009B
:1022A000000EE66EE66AE66A1200F70EDB500E24B8
:1022B0003EDA0F20EA6EEFCF0AF00B6A0C6A0D6A65
:1022C0000C0E1F0B12000001EBEF13F0D890043638
:1022D000053606360736E806120017DA050E060E32
:1022E000DBCF03F0F8EF13F0DECF00F0DDCF01F02D
:1022F0001200E76EF70EDBCF06F0F80EDBCF07F02B
:10230000E7500626000E0722040EDBCF08F0096A0C
:10231000120006500824E96E07500920A1DA40EFA8
:1023200013F0032229DAFE0EDBCFE6FFE3EF16F00F
:1023300000010610006E07C001F0E66E07C0E6FF60
:102340001200040EDB6A050EDB6A1200005C000E50
:1023500001581200BCD9070EE66E200E9BEF13F059
:1023600068D929EF14F0E66E040EE66E77EC18F0EB
:10237000E552E5521200016A200E026E036A120055
:10238000610EE66EE70EE66E1200E16E0050E55259
:10239000E7CFD9FF1200F70EDBCFE9FFF80EDBCF56
:1023A000EAFF1200040EDBCF00F0016A1200020EF9
:1023B000206E216ADBCF25F0030EDBCF26F098ECF0
:1023C00022F022EF14F0020E206E216ADECF25F0FB
:1023D000DDCF26F098EF22F00850EE24046E09506D
:1023E000EE20056E0A50EE201200D8900A360B3609
:1023F0000C360D36E8061200040EDB2A050E12001C
:10240000000EE66EE66A8DEC17F0E552E55212001A
:10241000F90EDBCFE6FF89417F0BE552E72412007E
:10242000D9CFE6FFE1CFD9FF1200016A026A036A41
:102430000E0E01121200050EE7D9F350E66E1200DF
:10244000D8900732063205320432E8061200B60E82
:1024500046EF14F0E66EEB0EE66E1200D880000E2A
:10246000EE54000EEE54000EEE54000EEE54120028
:102470001EC004F01FC005F0E3EF13F0EE50041689
:10248000EE500516EE500616EE5007161200DBCF82
:1024900008F0096A0A6A0B6A1200EE500424006E02
:1024A000EE5005201200040EDBCF0AF00B6A12007A
:1024B000B60EE66E0B0EE66E1200B60EE66EDB0E84
:1024C000E66E1200EECFE6FFEECFE6FF1200020E40
:1024D000DE26000EDD221200040EDB28066E076ADF
:1024E0001200020EDB6A030EDB6A12000250005C6F
:1024F000035001581200050EDBCFEFFF120020C081
:1025000006F0046A056A076A0C0E12000A0EC5EF8F
:1025100013F0D9CFE9FFDACFEAFF090EEE18120067
:10252000010E00C0DBFF020E05C0DBFF1200F4CF7E
:10253000DBFF40EF13F0006E0A0EE15E0050120068
:10254000F3CFDEFFF4CFDDFF1200F60EDB50E76EB7
:1025500089191200E6683F0EE66E12009FDA34EF2A
:1025600015F002DA4DEF14F0E66E060EABEF10F048
:10257000E66EE66AA7EF10F0E66E3B0EFBEF14F096
:10258000060EE66EABEF10F0E66EE66A40DAF2D9C0
:10259000DEDD61EF15F0E66E200E4EEF15F0900EC9
:1025A000E66E010EFBEF14F022DA4DEF14F0DE5070
:1025B0000424026EDD500520036EF7DDB9DE020E45
:1025C000EAD974EF11F0E66EE66A3C0EE66EE66A52
:1025D000FAEF10F00A5000120B5001120C500212C8
:1025E0000D500312BDEF10F0010EE66EB1EF10F0CA
:1025F000DE500A24086EDD500B20096E010E0826FD
:10260000000E0922CCEF10F05EDEE1D923DEEFEF01
:1026100014F00CDAE552E5521200D9D9E0D900EFF6
:1026200012F0C7DDEECFE6FF4DDFEFCFE6FFFAEFAA
:1026300010F0020EDBCF00F0030EDBCF01F0120032
:102640009ADEF90EDBCF04F0FA0EDBCF05F0FB0EBD
:10265000DBCF06F0FC0EDBCF07F00BEF11F0026AC8
:10266000036A008A3C0E0112880E021286DD15D91B
:10267000E7EF18F015DEBFEF10F0B3DDBDEF10F09F
:10268000040EDBCF02F0036A1200E66AB1EF10F02D
:1026900090DDEE500026EE500122EE500222EE5068
:1026A00040DE046E050EE15E04501200D4D9020E25
:1026B000CBEF14F001C0E6FFE66AA7EF10F0066A60
:1026C000076AD9EF10F00920B7D92FEF15F0030EE4
:1026D000E66E020EE66ED950060FE66E000EDA20A8
:1026E000E66E120066DD78DE066E0B50EE20076E99
:1026F0000BEF11F02FDF020ECBEF14F0020EF3CF31
:10270000DBFF030EF4CFDBFF1200050EF3CFDBFF80
:10271000060EF4CFDBFF120038DD02C0EFFFD2EF70
:1027200011F033DD7BEF12F00EDD0E0E1200E96EBC
:10273000F80EDB501200E66EE66AE66AFD0EDBCFAD
:10274000E6FFFE0EDBCFE6FF1200010EDBCFE6FF59
:10275000020EDBCFE6FFCBEF14F0F3DCE66AE66AAD
:10276000E66AE66A5BEF19F0010EE76E14DEE750E9
:10277000E926000EEA22120000C0E6FF01C0E6FFD3
:1027800002C0E6FF03C0E6FF1200E66E060EE66E2C
:102790004DEF17F0A9DD040EA6EF11F0006EEBDD92
:1027A000020EDB50120030DD89C002F0036A120015
:1027B000ECDCE552E750EF6E120055DDA6EF11F0AC
:1027C000F1DC3AEF11F0066A076A040E1F0B1200E3
:1027D000020EE0EF10F00410006E05C001F0E66E8E
:1027E00005C0E6FF12005CDDB2DC020EB3EF11F0B3
:1027F00003C002F0036A040EDB28006E016A1200B7
:102800005BEC19F023EF15F0E66E060EE66E07ECB2
:1028100018F0E552E5521200E66EE66A200E4EEF21
:1028200015F0040EE66E01EC18F0E552E5521200C8
:10283000B9DC86DEA1EF11F016DDFF0E005C010EA3
:102840000158120002501E24006E03501F20016E1A
:102850001200F90EDBCF02F0FA0EDBCF03F012000C
:10286000EA6EEFCF04F004C005F0046A12006BDCDE
:10287000FD0EDB501200D4DD050EE1261200B1DCA6
:10288000020EDB5012008EDC6DEF11F0E66E1B0EB7
:10289000E66E1200060EA6EF11F0E66AE66AE66A38
:1028A000A1EF10F0580EE66E050E75DE380E64DEF0
:1028B000A90EE66E0A0E6FDE6BEF15F0FBD8A3EFE4
:1028C00010F0FDDEEE500426EE500522EE500622FA
:1028D000EE50072205C000F00001036AA6DD05C026
:1028E000E6FFE8DEAA0E4AEF15F04ADEFCEF11F033
:1028F000E66EE66A240ED2D80A0EBCEF12F0E66E3F
:102900000E0E36DEA70E4AEF15F02EDE61EF15F043
:102910002FDEA60EE66E9C0EB8EF12F0C9DDE9D8E8
:10292000CCDDE7D8B60E96DDE4D891DD79EF15F071
:10293000C6DEB3DDEE500620EE50072076DD00C087
:10294000E6FFB8DEA90E4AEF15F0E0D8DAD886EF38
:1029500015F0960E9BDFCAD8B0DDC8D8D60EE66E4D
:10296000DB0EE66E76EF15F0E66A010EE66E040EFB
:102970004EEF15F095DCA7EC10F06CDC50EF11F089
:10298000E66E500EF5DDF50E85D8F3EF13F0F8DCAA
:10299000A90EAEEF12F0E66EBFEF10F076DE91D822
:1029A00023DE61EF15F0A60EE66E8E0EE1DDA60EBB
:1029B000E66E8C0EB8EF12F0080ED6DD0A0E09EFA7
:1029C00013F0AFDE8EEF15F060DEF4EF12F00F0EB5
:1029D000E66EA7EC10F0E66A030EABEF10F08A8209
:1029E000020EA3EC10F08A92010EA3EF10F0030E7A
:1029F00031DDA1EF10F0E66E880E4EEF15F0C0DD70
:102A0000020EDB2A030E1200C6DDCFEF12F00C0E11
:102A1000E66EA7EF10F004EC11F040EF13F0F70EA4
:102A2000DB50022484DE0320EA6E1200E66EE66AC2
:102A3000E66AE66A6EEF21F0EA6EEFCF06F006C0B6
:102A400007F0066A1200E552E552E552E55212001F
:102A500014DECFEF12F0D5EC10F063EF11F0040E9E
:102A6000DBCF04F0056A120018DF4DEF14F0D2EC52
:102A700010F044DEA9DF84DD090E47DFA5DFA1EFFA
:102A800011F0DECFE6FFDDCFE6FF040E84DF16DFB8
:102A9000A1EF11F0E66E6E0EB8EF12F0E66EA1EF48
:102AA00010F0020EDBCFE6FF030EDBCFE6FF040ED5
:102AB000CBEF14F0080E58DD020E36DE55DD010EA8
:102AC00012000A0EA3EF10F08A0E12DF800EE66EDF
:102AD0000F0E04EF15F0390E4FDD52DCA80EAEEFED
:102AE00012F0A60EE66E8E0E88EF14F0BA0EAEEF60
:102AF00012F0BB0EAEEF12F0550E01DFAA0E7FEF03
:102B000014F0080E31DD080EA3EF10F0010E2CDDDD
:102B1000070EB4EF12F028DFB1EF12F031DDE8EF6D
:082B200013F0090EB4EF12F0EE
:082B2800D9CFE6FFE1CFD9FF90
:102B3000020EE126FC0EDB0401E0DFD093909392BD
:102B40008A908A920000FE0EDB50050A06E0030A16
:102B500004E02F0A01E003D004D08A9602D08A94C0
:102B600000D072C076F073C077F074C078F075C092
:102B700079F0760EE96E000EEA6EEE500001725D9D
:102B8000006EEE5000017359016EEE500001745951
:102B9000026EEE5000017559036ED8900350000A82
:102BA00008E6640E005C000E0158000E0258000E8C
:102BB000035802E2DED7DDD7FE0EDB50290A07E01C
:102BC0002C0A03E0030A01E06AD08A946AD08A944E
:102BD00000008A9672C076F073C077F074C078F007
:102BE00075C079F0760EE96E000EEA6EEE500001C7
:102BF000725D006EEE5000017359016EEE500001DF
:102C00007459026EEE5000017559036ED89003504E
:102C1000000A08E61A0E005C000E0158000E025869
:102C2000000E035802E2DED7DDD7E66AE66AE66AFE
:102C3000E66A41DBE552E552E552E552E66AE66AAC
:102C4000E66AE66A38DBE552E552E552E552E66AA5
:102C5000E66AE66AE66A2FDBE552E552E552E5529E
:102C6000E66AE66AE66AE66A26DBE552E552E5527E
:102C7000E5528A868A8A8A9ADE6ADD6ADECF00F0A9
:102C8000DDCF01F0010E005C000E015806E200D01D
:102C9000DF2A010E01E3DB2AF1D78A9602D08A9659
:102CA00000D072C076F073C077F074C078F075C051
:102CB00079F0760EE96E000EEA6EEE500001725D5C
:102CC000006EEE5000017359016EEE500001745910
:102CD000026EEE5000017559036ED8900350000A41
:102CE00008E6640E005C000E0158000E0258000E4B
:102CF000035802E2DED7DDD75CD08A868A8A72C0AA
:102D000076F073C077F074C078F075C079F0760E05
:102D1000E96E000EEA6EEE500001725D006EEE503C
:102D200000017359016EEE5000017459026EEE50AD
:102D300000017559036ED8900350000A08E6280E6A
:102D4000005C000E0158000E0258000E035802E20B
:102D5000DED7DDD78A9A8A849380938272C076F018
:102D600073C077F074C078F075C079F0760EE96EB4
:102D7000000EEA6EEE500001725D006EEE50000132
:102D80007359016EEE5000017459026EEE5000014D
:102D90007559036ED8900350000A08E6140E005CC3
:102DA000000E0158000E0258000E035802E2DED752
:102DB000DDD7020EE15C02E2E16AE552E16EE55226
:102DC000E7CFD9FF1200D9CFE6FFE1CFD9FF040E3C
:102DD000E126FE0EDB5028E0020A26E0010A53E15C
:102DE000CDDA06C000F00001026A036AD4DA06C038
:102DF000E6FFE3DAF80EDCDAC1DA05C000F0000124
:102E0000036AC9DA05C0E6FFD8DAF70ED1DAFA0E9E
:102E1000DBCF00F0FB0EFC0EFD0EBDDA00C0E6FFBE
:102E2000CCDAF60EC5DA2FD0DE6ADE6ADE6ADD6A3B
:102E3000DD52DD52FA0EDBCF00F0FB0EDBCF01F0EE
:102E4000FC0EDBCF02F0FD0EDBCF03F0D9CFE9FFA4
:102E5000DACFEAFF0050EE5C0150EE580250EE5817
:102E60000350EE5810E2060EE66EE66E16D8E552F6
:102E7000E552D9CFE9FFDACFEAFFEE2A000EEE22C3
:102E8000EE22EE22D7D7040EE15C02E2E16AE552BF
:102E9000E16EE552E7CFD9FF1200D9CFE6FFE1CFCF
:102EA000D9FFE652939093928A928A90DF6ADFCF9D
:102EB00000F0FE0EDB50E76E0018E8AE02D0E734FB
:102EC00002D0E750005C14E2FD0EDBA002D08A8045
:102ED00001D08A908A82FD0EDBCFF3FFF390F3429C
:102EE000FD0EF3CFDBFF00008A920000DF2ADFD760
:102EF000DF6ADFCF00F00A0EE76E0018E8AE02D0FE
:102F0000E73402D0E750005C03E200D0DF2AF1D7BB
:102F1000E552E552E7CFD9FF1200D9CFE6FFE1CF66
:102F2000D9FFE652DF6ADFCF00F0100EE76E00181F
:102F3000E8AE02D0E73402D0E750005C1CE2FD0EA0
:102F4000DB50010B02E08A8001D08A908A82D9503E
:102F5000FD0FE96EFF0EDA20EA6E010E0F0B06E0A0
:102F6000EC52D890ED32EF32E806FAE100008A9296
:102F70000000DF2AD8D70000E552E552E7CFD9FF9D
:102F80001200D9CFE6FFE1CFD9FFE6528A900000C8
:102F90008A8200008A920000DF6ADFCF00F00E0E06
:102FA000E76E0018E8AE02D0E73402D0E750005CCC
:102FB0001CE2FD0EDB50010B02E08A8001D08A90FA
:102FC0008A82D950FD0FE96EFF0EDA20EA6E010EFB
:102FD0000F0B06E0EC52D890ED32EF32E806FAE142
:102FE00000008A920000DF2AD8D78A9000008A82E7
:102FF00000008A9200000000E552E552E7CFD9FFB9
:103000001200A8D98ADFCDD1A5D9BBDFCAD1D9CFCB
:10301000E6FFE1CFD9FF030EE126FD0EDBCFE6FF91
:10302000FE0EDBCFE6FF39DFE552E5529380DF6A23
:10303000DFCF00F00A0EE76E0018E8AE02D0E734EA
:1030400002D0E750005C03E200D0DF2AF1D7010E86
:10305000DB6A020EDB6A8A8200008A920000DF6A65
:10306000DFCF00F00E0EE76E0018E8AE02D0E734B6
:1030700002D0E750005C1FE28A8200008150010B01
:10308000026E036ADF5002C000F003C001F005E0E9
:10309000D89000360136E804FBE1D950010FE96E03
:1030A000DACFEAFF0050EE120150ED1200008A92D2
:1030B0000000DF2AD5D78A8200008A920000939010
:1030C0008A900000010EDBCF00F0020EDBCF01F092
:1030D00000C0F3FF01C0F4FF00D0030EE15C02E288
:1030E000E16AE552E16EE552E7CFD9FF1200D9CF90
:1030F000E6FFE1CFD9FF020EE126FD0EDBCFE6FFB2
:10310000FE0EDBCFE6FFC9DEE552E552DF6ADFCF18
:1031100000F0080EE76E0018E8AE02D0E73402D0E7
:10312000E750005C08E28A9000008A8200008A92E0
:103130000000DF2AECD79380DF6ADFCF00F00A0EB1
:10314000E76E0018E8AE02D0E73402D0E750005C2A
:1031500003E200D0DF2AF1D7010EDB6ADF6ADFCF9E
:1031600000F0080EE76E0018E8AE02D0E73402D097
:10317000E750005C1AE28A8200008150010BDF52A6
:1031800006E0DFCFF3FFE846FE0BF306FCE1006E3E
:10319000010EDBCFE7FF0050E712010EE7CFDBFFA8
:1031A00000008A920000DF2ADAD793908A9000000C
:1031B000010EDB5000D0006E020EE15C02E2E16A1B
:1031C000E552E16E0050E552E7CFD9FF1200D9CFAA
:1031D000E6FFE1CFD9FF030EE1268A908A808A823A
:1031E0008A928A90DF6ADFCF00F0030EE76E001844
:1031F000E8AE02D0E73402D0E750005C04E28A82F5
:103200008A92DF2AF0D7010EDB6A020EDB6ADF6AE0
:10321000DFCF00F0080EE76E0018E8AE02D0E7340A
:1032200002D0E750005C04E28A828A92DF2AF0D75B
:1032300093800000DF6ADFCF00F0100EE76E001809
:10324000E8AE02D0E73402D0E750005C1DE28A828B
:1032500000008150010B026E036ADF5002C000F0D3
:1032600003C001F005E0D89000360136E804FBE128
:10327000D950010FE96EDACFEAFF0050EE1201508B
:10328000ED128A92DF2AD7D793908A90010EDBCF76
:1032900000F0020EDBCF01F000C0F3FF01C0F4FF2D
:1032A00000D0030EE15C02E2E16AE552E16EE55214
:1032B000E7CFD9FF1200D9CFE6FFE1CFD9FFE65221
:1032C0008A90DF6A040EDF5C04E28A828A92DF2A37
:1032D000F9D7DF6A180EDF5C2FE2010E006E016A7B
:1032E000026A036AD950FB0FE96EFF0EDA20EA6E1C
:1032F000EE500016EE500116EE500216EE50031678
:10330000005001100210031002E08A8001D08A9060
:10331000D950FB0FE96EFF0EDA20EA6ED890030E4B
:10332000EB32020EEB32010EEB32EF3200008A82FA
:1033300000008A92DF2ACED7E552E552E7CFD9FFC7
:103340001200E66A040EE66E5CDEE552E552E552D6
:10335000E5521200D9CFE6FFE1CFD9FFFD0EDBCF5A
:10336000E6FFFE0EDBCFE6FF98DDE552E552FB0EF1
:10337000DBCFE6FFFC0EDBCFE6FF1200FA0EDBCF61
:1033800004F0FB0EDBCF05F0FC0EDBCF06F0FD0EEC
:10339000DBCF07F01200016A026A036A0E0E011207
:1033A0001200E552E5528A90E552E7CFD9FF1200AC
:1033B000E66E6E0EE66EA1EF19F001C0E6FFA1EF1A
:0233C00019F002
:0E33C200090EC26EA60EC06E0F0EC16E928472
:1033D00012006EDBE652DF6A0C0EC16EC282C2B210
:1033E000FED75FDBC3CFEFFF010EE76E5ADBE7507E
:1033F000E926000EEA22C4CFEFFFC168E5525DD393
:10340000070E8B12F80E9416938CDBDF8150400B65
:1034100001E0010E0001866F929092929396939A2A
:103420009390939293949296899689889288898AA8
:10343000928A8A868A9A8A908A92F18E02D82DEF91
:103440001AF0C00EF2129D809E909F80D10ECF6E1A
:103450001F0ECE6E010ECD6E1200E00EF212F2942F
:10346000440ED66EC30ED56E120022DBFE0EDB506C
:10347000010BE81CE8B08B80E8A08B90FE0EDB50BF
:10348000020BE8407F0BE81CE8B08B82E8A08B922F
:10349000FE0EDB50040BE840E8403F0BE81CE8B0B0
:1034A0008B84E8A08B9409D303DB080EE126060E7B
:1034B0000001805D03E36D50020B02E06ADAEAD19D
:1034C000400EE66E000EE66E010EE66EFBEC20F09E
:1034D000E552E552E552E66ED950020FE96EDACFB9
:1034E000EAFFE552E750EE6EED6A020EDBCF00F028
:1034F000030EDBCF01F0013401E3BCD10050000822
:10350000000E015401E3B6D101010051C00A01E1EE
:1035100056D1700A01E109D1100A01E1B2D0300A96
:1035200001E198D0100A01E189D0F00A01E178D0D8
:10353000100A66E0300A57E0100A48E0700A39E0E5
:10354000100A0CE0300A01E095D1050ED3DA01C172
:10355000E6FFDDDA22EC04F0E55275D0060ECADA99
:1035600000017A51020A10E0010A07E0060A1EE192
:1035700092DAE66AE66AE66814D08DDAFE0EE66E46
:10358000E6683F0EE66E0DD0E66AC1DA94EC15F0FF
:10359000E552E552E5527FDA060EE66E200EE66E43
:1035A000E66AE66AB4DAE6EC0DF08BDA0001020EA8
:1035B00064D0050E51DA02E067DAFEE156DA02E085
:1035C0005CDAFEE191DAA0EC06F036D0060E44DAC1
:1035D00002E05ADAFEE149DA02E04FDAFEE1A1DA6E
:1035E000E6EC0DF019D0050E37DA02E04DDAFEE117
:1035F0003CDA02E042DAFEE177DA20EC0AF01CD095
:10360000060E2ADA02E040DAFEE12FDA02E035DACD
:10361000FEE187DAA3EC0FF054DA01C17CF02ED082
:10362000050E1ADA02E030DAFEE11FDA02E025DAEE
:10363000FEE15ADAE9EC0BF044DA07D0010EE66E4F
:10364000010EE66E2ED9E552E5520101266F00010A
:10365000010E13D0DA0E006E450E016E026A00C034
:10366000E6FFE66E02C0E6FF57DAB6EC22F0036E24
:10367000050EE15E03500001120E7C6F040E3ADA73
:10368000F9D0070E37DA01010151030A3AE0010AC5
:1036900010E0030A06E0010A01E0ECD0010EE66E3C
:1036A00001D0E66A050EE66E290EE66E94EC15F082
:1036B00020D002C100F0016A026A036AD6D902E092
:1036C000DCD9FEE103DA100E1F0B07E0D8900836B4
:1036D00009360A360B36E806F9E110DA00C0E6FFD3
:1036E00001C0E6FF02C0E6FF03C0E6FF5BEC19F095
:1036F000E552E552E552E5520101010E266F000147
:10370000B8D0E7EC18F0020EF3CFDBFF030EF4CFD6
:10371000DBFF020EDBCF26F1030EDBCF01F001C091
:1037200000F0016A00C027F147D00151050A40E0CE
:10373000010A29E0070A23E0010A0FE0030A01E079
:1037400092D09250200B06E18950200B03E18AB2FF
:1037500011D087D08AA285D086D093A003D081B023
:1037600082D07FD09250100B07E18950100B04E1FA
:103770008AA077D0020E7AD08AA073D074D08AA49F
:1037800072D0050E73D00001010E7C6F8AB603D093
:103790000101040E0BD08AAA02D0010107D089A62C
:1037A00003D00101030E02D00101050E266F62D085
:1037B000B3D90FDEE552E5520001020E5AD0015195
:1037C000040A3AE0070A2FE0010A15E0030A4DE176
:1037D0000251030A0BE0010A05E0030A44E1939257
:1037E0008A9206D093928A82929A03D093928A8286
:1037F000928A899A36D00251060A12E0050A0BE035
:10380000010A05E0030A2FE193908A9006D0939075
:103810008A80929803D093908A809288899821D048
:10382000928893801ED00251050A04E0060A1BE12B
:103830008A9417D08A8415D00251050A0FE0010A34
:103840000BE0070A05E0020A0EE18A868A8A08D0A0
:103850008A868A9A898605D08A9601D08A868A9A2B
:103860008996010E03D0030E01D0030E266F0001CE
:10387000010E7C6F00017C510DE004010CBF08D0EB
:103880007CC0E6FF49D9CBEC20F0E552E552E55289
:1038900000017C6B080EE15C02E2E16AE552E16E38
:1038A0000CD106D9FED8EFCF7BF000017B512A0A5C
:1038B0006CE0030A68E00E0A64E00C0A62E0030AA6
:1038C00060E0350A5CE0030A5AE0010A58E03F0A6A
:1038D00056E0010A54E0030A52E0010A50E0070AE8
:1038E0004EE0010A4CE0030A4AE0260A48E0010AD9
:1038F00046E0030A42E0010A40E0070A3EE0010A0E
:103900003CE0030A3AE0280A38E0290A36E00F0AC8
:1039100034E0010A32E0030A30E0010A2EE0070A2F
:103920002CE0010A2AE01D0A28E0020A26E0010A2A
:1039300024E0070A22E0010A20E0030A1EE0010A4F
:103940001CE00F0A1AE0010A18E0030A16E0010A57
:1039500014E0340A12E0330A10E0300A0CE0010AE5
:103960000AE0230A08E0010A06E01E0A04E07B6B75
:10397000030E7A6F0DD07A6B0AD0020E07D0030EB9
:1039800005D0040E03D0050E01D0060E7A6F010E8D
:1039900094D000017D517E1104E1100E7D6F270E41
:1039A0007E6F7D07000E7E5B6DA207D07D517E117C
:1039B00020E18B808B828B7412000001805102E128
:1039C000010E10D0800508E0020E805D02E1040EB9
:1039D00009D0030E805D02E1020E04D0050E805D69
:1039E00003E1040E7AEF1DF0060E805D02E1000196
:1039F0007F6B12008150400B01E0010E0001865DDB
:103A000007E08150400B01E0010E866F81AC010C94
:103A1000000C5CD873D8040E00C0DBFF050E01C09B
:103A2000DBFF060E02C0DBFF070E03C0DBFF05C194
:103A3000E6FF01C1E6FF1200E66ED950040FE96E01
:103A4000DACFEAFFEECFE6FFEECFE6FFEECFE6FFFE
:103A5000EFCFE6FF87EF1DF04DD802C100F0016AFD
:103A6000026A036A100E1F0B120003C104F0056AFC
:103A7000066A076A080E1F0B1200D8900436053636
:103A800006360736E8061200D890003601360236B0
:103A90000336E8061200030EE66E020EE66E8CEFA9
:103AA0001DF0FD0EDBCFE9FFFE0EDBCFEAFF1200BB
:103AB000D9CFE6FFE1CFD9FF1200E552E7CFD9FF1A
:103AC0001200006E0A0EE15E005012000450001257
:103AD00005500112065002120750031204C108F0EB
:103AE000096A0A6A0B6A120094DF060EE66E010E7E
:103AF0001CEF1DF0E66EB9DCE55212000850001212
:103B0000095001120A5002120B50031212007BC01E
:103B1000E6FF7AC0E6FF1200260EE66E010EE66EA4
:0E3B2000120077DF260EE66E010E1CEF1DF080
:023B2E00040190
:103B30001851600BE842E842E842E842E8420009D6
:103B400001E012001951070A40E00B0A3EE0070AA3
:103B500033E0010A23E00B0A1FE0020A1DE0030A1A
:103B600019E0080A10E0010A0CE00F0A08E0030A55
:103B700001E0120010D90001040E806F1200E6EF80
:103B80001DF01DEF1EF007D90001820E6C6F000EB4
:103B90006D6F0CD038EF1EF068EF1EF000D90001F9
:103BA0006C6F6D6B830E6C27000E6D23000181938B
:103BB0000001010E706F1200F2D8EA6A830FE96EFD
:103BC000000EEA221AC4EFFF12001200800E040158
:103BD000185D32E11B51030A1FE0010A0AE0030AE3
:103BE00029E1D9D800013C0E6C6F430E6D6F120EA7
:103BF0001ED0ABD8E00EF626430EB9D8020E000157
:103C0000F76A6C25F66E6D51F7220900F5CF70F05A
:103C10000A00F5CF71F00ED098D8E40EF626430EC8
:103C2000A6D86CC0F6FF6DC0F7FF0800F550000184
:103C3000706F716B000181831200ADD80F0EE66EBC
:103C4000710EE66E0F0E9BD8010EE66E830EE66EC9
:103C5000000E95D81AC482F004011A5104E1000143
:103C6000050E806F12000001060E806FB6EF20F087
:103C70000401206B216B040118511F0B020A0DE097
:103C8000030A09E0010A16E186D8000181A112D0D9
:103C9000040120830FD07FD80DD04BD801E0010E56
:103CA0005DD86EC0E9FFEA6EEF50040B03E004013B
:103CB000010E206F00016B050AE10001200E6C6F00
:103CC000040E6D6F000181930001020E706F1200EF
:103CD00004011A050EE118511F0B00090AE15BD817
:103CE000030E0401195D03E10001818102D000018E
:103CF000819104011A511CE118511F0B020818E1AF
:103D00001C510F0B000914E014D801E0010E26D855
:103D1000030E0401195D04E1840E38D8EF6E120021
:103D20001CAF03D033D8EF6A1200880E2FD8EF6E85
:103D3000120035D80F0B080DF350016A000F006E0A
:103D4000040E01221C51800B120025D804011A51C7
:103D5000F66EF76AD890F636F7361200040DF35077
:103D6000000100246E6F000E01206F6F1200F72219
:103D70000900F5CF6CF00A00F5CF6DF01200E66E89
:103D8000A1EC20F0E552E552E55212006EC0E9FFC9
:103D90006FC0EAFF12000001010E6B6F1200FBDF23
:063DA00004011C51120099
:0A3DA6006C5002E0000E01D0010E87
:103DB00000090BE0040100513C0BE842E8420D0809
:103DC00002E1EEEF1EF0FDEF1EF06C5002E0000E7F
:103DD00001D0010E040901E01FD81200D9CFE6FF7F
:103DE000E1CFD9FFE65200016A6B6B6B706B716BB0
:103DF00097EC1DF099D8E552F6D0020E00016A5DED
:103E000009E168D8040100BD02D0C80E01D0880EB7
:103E1000006F1200CDEF1FF0040E0001805D09E17C
:103E20001AC46EFF6E50000802E2050E01D0030EA8
:103E3000806F00016A0509E10AD8040104BD02D0BF
:103E4000C80E01D0880E046F1200CDEF1FF0C4D849
:103E50000001080E705D000E715905E270C0DEFFB2
:103E600071C0DDFF03D0080EDE6EDD6A040104932D
:103E70000491010EDB500413DFCF05F4000EDB507C
:103E80000001705F010EDB50715B200E6E6F040E3F
:103E90006F6F000181A30CD098D815E06CC0F6FFBD
:103EA0006DC0F7FF0800F55080D8F6E2DB06F4D7C6
:103EB0008CD809E06CC0E9FF6DC0EAFFEF5075D8FF
:103EC000F7E2DB06F5D7020EE15C02E2E16AE552B9
:103ED000E16E89D081D8030E04010015E76E010E52
:103EE000E7CFDBFF01C4DFFFDE5000017027DD50AC
:103EF0007123200E6C6F040E6D6F67D80EE06CC0DE
:103F0000E9FF6DC0EAFFEF506EC0E9FF6FC0EAFF46
:103F1000EF6E6DD8F2E2DB06F0D7020EE15C02E252
:103F2000E16AE552E16E5FD000016B5105E145D8D1
:103F3000840E006F04011DD0040118AF1CD00001D5
:103F4000705104011E5D0001715104011F5904E20A
:103F50001EC470F01FC471F07ADF0001010E6A6F99
:103F60002CD8800E006F0401200E066F040E076F20
:103F7000C80E046F10D00001020E6A6F0401056BB9
:103F8000C80E046F0401080E016F200E026F040EAC
:103F9000036FC80E006F6D98120000016A6B0DD898
:103FA000880E006F0401046B12006EC0E9FF6FC041
:103FB000EAFFEF6E0001F7EF1FF00401080E016F3A
:103FC000180E026F040E036F1200D9CFE9FFDACF8B
:103FD000EAFFEE50ED101200D9CFE6FFE1CFD9FF96
:103FE000020EE1261200E552E7CFD9FF12006E2B38
:0E3FF000000E6F236C2B6D23DF06010E1200F6
:023FFE006DA6AE
:104000000CD80001800508E16DBA06D0686A696ABB
:1040100069806988020E806F12006D6A696A6D8618
:104020000001010E806F12006D6A696A0001806BE9
:10403000120014EF20F00001805101E112006850DD
:10404000040B04E06950040B01E038D86DB2120093
:104050006850010B04E06950010B01E050D8685032
:10406000100B04E06950100B01E024D86850400B9D
:1040700004E06950400B01E037D86850200B04E0A1
:104080006950200B01E032D86850020B04E06950FF
:10409000020B01E032D8030E0001805D01E2120044
:1040A0006850080B06E06950080B03E0D3EC1EF0E3
:1040B00068961200698468986D8212006D92699406
:1040C00068941200000181A10ED0F8DF6D84000118
:1040D000080E846F070E856F8407000E855B845180
:1040E0008511FAE16D941200689C120070A003D053
:1040F000CDEC1FF07090689A1200689212006A6A04
:10410000686A9F0E6B6E7B0E696E6E6A0F0EE66EAE
:10411000710EE66E0F0EE66E14D8E552E552E552CA
:10412000160E706E68A602D06896FCD76D98CDEC1E
:104130001FF0000181910001826B0001030E806F6E
:104140001200D9CFE6FFE1CFD9FFFD0EDBCFE9FFAB
:10415000FE0EDBCFEAFFFC0EDB5004E0EE6AFC0E45
:0C416000DB06F9D7E552E7CFD9FF1200CB
:04416C000001886B5B
:104170001E0E716E0401260E096F280E0A6F040EC2
:104180000B6F880E086F04014E0E0E6F040E0F6F3A
:10419000400E0C6F1200D9CFE6FFE1CFD9FFE652F7
:1041A000FC0EDB50260805E2260EF36EFC0EF3CF64
:1041B000DBFFDF6AFC0EDB50DF5C0FE2DF5051D823
:1041C000EF50E66EDF50EA6A4E0FE96E040EEA2207
:1041D000E552E750EF6EDF2AEDD7FC0EDBCF0DF492
:1041E000400E04010C170C7D880E0C13E552E552AD
:1041F000E7CFD9FF1200D9CFE6FFE1CFD9FF000109
:10420000886B040108BF27D0FC0EDBCF00F00951FA
:10421000D880005403E2FC0E09C4DBFF0001886B68
:10422000FC0EDB50885D0FE28851EA6A280FE96EC8
:10423000040EEA22EF50E66E885113D8E552E7509B
:10424000EF6E882BEDD70401260E096F400E08177C
:10425000087D880E081300018851E552E7CFD9FF89
:104260001200E76EFD0EDBCFE9FFFE0EDBCFEAFFAB
:0A427000E750E926000EEA221200D2
:06427A00DACFE4FFE6527A
:104280009EA00BD00001722B000E732374237523A4
:10429000D10ECF6E1F0ECE6E9E90F2A40AD0897002
:1042A0008950010B02E0899201D08982440ED66EBA
:1042B000F294E552E5CFDAFF1100D8CFE4FFE0CF6A
:1042C000E4FFE46EDACFE4FFE652E552E5CFDAFF31
:1042D000E550E5CFE0FFE5CFD8FF1000D9CFE6FFEE
:1042E000E1CFD9FF72C076F073C077F074C078F078
:1042F00075C079F0760EE96E000EEA6EEE500001A0
:10430000725D006EEE507359016EEE507459026E7C
:10431000EE507559036ED950FB0FE96EFF0EDA208F
:10432000EA6EEE50005CEE500158EE500258EE502E
:0C4330000358E0E3E552E7CFD9FF12008C
:04433C001201000268
:1043400000000008D8040E0000000102000109026C
:10435000200001010080320904000002000000007A
:10436000070501032600200705810326002004031A
:1043700009042A037500730062007000690063007D
:10438000700072006F0067002E006F0072006700FF
:1043900020002000200020002000200044037500A1
:1043A00073006200700069006300700072006F00AB
:1043B00067002E006F0072006700200020002000C0
:1043C00020002000200020002000200020002000ED
:1043D00020002000200020002000200020002000DD
:0A43E0004E434E436E4372439C436C
:0643EA002A0EF66E080E1B
:1043F000F76E000EF86E00010900F550656F0900B8
:10440000F550666F03E1656701D03DD00900F550B6
:10441000606F0900F550616F0900F550626F090087
:104420000900F550E96E0900F550EA6E090009002F
:104430000900F550636F0900F550646F0900090029
:10444000F6CF67F0F7CF68F0F8CF69F060C0F6FFFD
:1044500061C0F7FF62C0F8FF0001635302E16453DB
:1044600007E00900F550EE6E6307F8E26407F9D73C
:1044700067C0F6FF68C0F7FF69C0F8FF0001650775
:08448000000E665BBFD71200BD
:084488007F6A7E6A7D6A7C6A8E
:104490007B6A7A6A796A786A776A766A756A746A10
:1044A000736A726A716A706A6F6A6E6A6D6A6B6A41
:1044B0006A6A696A686A120004D80FD854EC1AF064
:1044C000FCD70F0EC112140E6F6E0001806B00013D
:1044D000816B0001826B00EF1AF0FFEC1FF06FBEE2
:0844E00002D01BEC20F01200D9
:0844E8001D6A1C6A1B6A1A6AB6
:1044F000200EE76ED8901E361F36203621361A362B
:104500001B361C361D3623501A5C24501B58255070
:104510001C5826501D5809E323501A5E24501B5A7C
:1045200025501C5A26501D5A1E2AE72EE4D7120089
:1045300020C02AF020502502F4CF1FF0F3CF1EF048
:1045400021502602F4CF21F0F3CF20F02502F350C2
:104550001F26F4502022E86A21222A502602F35016
:0C4560001F26F4502022E86A2122000CE3
:04456C00FB0EE3CF90
:10457000F6FFFC0EE3CFF7FFFD0EE3CFF8FFFE0ED4
:10458000E3CFE9FFFF0EE3CFEAFFE9CFF3FFEACF86
:0E459000F4FF0900F5CFEFFFEE66FBD7120037
:02459E00000E0D
:1045A000F36E00EE00F0040E01D81200EA6002D0B3
:0E45B000EE6AFCD7F350E9601200EE6AFCD709
:0245BE0013EEFA
:1045C00000F023EE00F0F86A199CF5EC21F0F5EC10
:0A45D00022F05CEC22F0FBD7120091
:0645DA0075736270696355
:0945E00070726F67203738320059
:0245EA001200BD
:0445EC0003000000C8
:0245F00000FFCA
:0845F2000000000000000000C1
:020000040030CA
:0100000021DE
:010001000EF0
:0100020038C5
:010003001EDE
:01000500807A
:010006008079
:01000900C036
:01000B00E014
:00000001FF
