:020000040000FA
:0600000099EF23F012004D
:0600080007EF22F01200D8
:0600180027EF22F01200A8
:0608000099EF23F0120045
:0608080007EF22F01200D0
:0608180027EF22F01200A0
:06082A000200744700000B
:1008300092010000080000006E4700009A010000CD
:0408400006000000AE
:0C0844005AEC12F0080EE12670EC13F0E4
:10085000FD0EDB502C0A01E107D2010A01E104D2AE
:10086000190A01E1FED1250A01E1FBD11E0A01E1CD
:10087000F8D1010A01E1F5D10A0A01E103D22A0AFD
:1008800001E1C4D1290A01E1C1D1010A01E1BED1CE
:10089000050A01E1BBD1060A01E142D1080A01E1E2
:1008A0003BD1050A01E138D10A0A01E135D1120A2A
:1008B00001E112D1030A01E10FD1010A01E10CD1DA
:1008C000190A01E1D5D0070A01E1CED0050A01E1FC
:1008D000CBD0030A01E1C8D0250A01E1C3D01E0A2A
:1008E00001E1B1D0010A01E1AED02E0A01E1ABD0A5
:1008F0001F0A01E1A8D0010A01E196D01D0A5AE0C1
:10090000340A0BE01B0A01E1BDD1010A01E1BAD1B1
:100910008A90D4EC13F0030EB8D179EC15F00BECFF
:1009200013F086EC15F0670E5BEC14F0E66A2EEC23
:1009300013F071EC12F001EC12F0020E15EC12F053
:100940001FE2860E91EC14F0BB0E80EC15F0580EF1
:10095000E66E050E25EC13F0A90EE66E0A0E25ECE8
:1009600013F0380E16EC13F08DEC15F0C90ED8EC20
:1009700010F015EC15F000EC13F0DDE3DB2ADBD70B
:10098000FA0EE66E070EE66E240E80EC15F00A0EE7
:1009900016EC13F09DEC14F0030ED8EC10F0F6EC0E
:1009A00011F0A90E80EC15F0E66AE66AE66A0CEC36
:1009B00014F064D1040E3CEC13F0830E1EEC13F023
:1009C000880E1EEC13F0890E1EEC13F08A0E1EEC3E
:1009D00013F0060E3CEC13F093EC15F0E66AE66AB1
:1009E000200EE66EE66A29EC11F0A60EE66E840E85
:1009F00012EC13F0A60EE66E880E12EC13F0A4ECC7
:100A000015F0A60EE66E820E12EC13F002EC15F055
:100A1000D6EC10F083EC15F0A60EE66E940EE66EA2
:100A2000E66A7BEC14F02AD1050E3CEC13F03F0E85
:100A3000E66EE66E53EC15F0040E3CEC13F08F0EF0
:100A4000E66EE66E06D0040E3CEC13F0800EE66E09
:100A5000E66A53EC15F002EC15F07BEC14F0E5526D
:100A6000E55207D197EC13F0B4EC15F01E0E04D14B
:100A7000D6EC11F0CFEC0DF0ECEC12F019EC15F017
:100A8000070EDB50310B006E310E005C07E3060EE3
:100A9000DB50300B016E300E015C12E204EC13F0FF
:100AA000E66AF0EC10F071EC12F001EC12F0070EB7
:100AB00015EC12F00FE257EC15F0F7E3DB2AF5D74F
:100AC000EEEC13F0EAEC14F004EC13F0030EE66E17
:100AD000F0EC10F0EAEC14F097EC13F0FD0EDB50A4
:100AE000120A0DE171EC12F001EC12F0080E15EC97
:100AF00012F005E257EC15F0F7E3DB2AF5D7B4EC7A
:100B000015F0060ED8EC10F019EC15F00B0E0EECEB
:100B100013F0060ED8EC10F097EC13F01F0EA7D0D0
:100B200071EC12F001EC12F0FF0E005C030E0158A4
:100B300005E257EC15F0F6E3DB2AF4D733EC11F0BD
:100B4000F3CFDEFFF4CFDDFF97EC13F071EC12F082
:100B500001EC12F0070E15EC12F005E257EC15F05F
:100B6000F7E3DB2AF5D733EC11F0F3CF00F0F4CF45
:100B700001F0000E0016300E0116020E00C0DBFF61
:100B8000030E01C0DBFF97EC13F0090EDAEC14F052
:100B90000B0EDAEC14F0D4EC13F083EC15F0FC0E31
:100BA000DB50AA086FE0B2EC11F0FF0E0016000E49
:100BB0000116060E00C0DBFFB2EC11F001C000F020
:100BC000016AFF0E0016000E0116070E00C0DBFFC3
:100BD000DBEC13F0E668030EF9EC13F05ED8ECECF6
:100BE00012F0060EDB688DEC11F001C000F0016A16
:100BF0000F0E0012000E0112070E00C0DBFFD6EC34
:100C000011F0CAEC0BF0ECEC12F03CD0FD0EDB5016
:100C1000070807E1EEEC13F0B4EC15F0080EDAEC7F
:100C200014F097EC13F0EEEC13F0FD0EDB50070818
:100C300003E1080E0EEC13F0B4EC15F00A0E7FEC95
:100C400014F02E081FE00B0E0EEC13F0FD0EDB501F
:100C5000070803E1080E0EEC13F083EC15F08A9000
:100C600011D05AEC15F008D01AEC13F0090E2BEC49
:100C700014F0E552E5520A0E59EC13F0E552E55234
:100C8000E552E552D4EC13F0010E006E080EE15C63
:100C900002E2E16AE55208EF12F083EC14F0F50E7F
:100CA000DBA002D070EC13F0FD0EDB50340A01E142
:100CB0005DD33A0A01E15AD3010A01E157D31E0A72
:100CC00001E154D33D0A01E151D3010A01E14ED3C0
:100CD0003E0A01E11AD3110A01E117D3120A01E118
:100CE000C9D23F0A01E1C6D2220A01E1C3D21F0ADA
:100CF00001E1C0D21A0A01E1BDD20E0A01E1BAD265
:100D00000A0A01E181D2050A01E17ED2030A01E16A
:100D10007BD2010A01E1F2D10C0A01E1EFD1040A10
:100D200001E1ECD1070A01E1E9D1010A01E1E6D1D3
:100D30002B0A01E1E3D11F0A01E163D1010A01E1BC
:100D400060D12D0A01E15DD1030A01E15AD11F0AE8
:100D500001E157D1010A01E111D1290A51E01B0A31
:100D600006E0010A04E0D4EC13F0030E3DD38EEC50
:100D700013F002E1000E01D0010E04C0E7FFE752BC
:100D800004E0E8427F0BE706FCE160EC14F008E1C8
:100D900013EC14F0D4EC12F0FDE100502EEC12F044
:100DA00065EC11F02EEC12F0040EDB6A04EC11F08D
:100DB000E8AE02D0E73402D0E750005C1BE2ECEC76
:100DC00011F000BE0168F5EC10F0EF502EEC12F0BF
:100DD000DE6EDD6AD9CFE9FFDACFEAFF010EEE1849
:100DE00006E1ED5004E1F6EC19F0020EFDD2040E1E
:100DF000DB2ADCD7F6EC19F00A0E59EC13F0BBD065
:100E000079EC15F0AEEC15F01A0EBDEC14F0040EF2
:100E1000DB6A04EC11F0E8AE02D0E73402D0E75010
:100E2000005C01E398D0006AF1EC11F0040EA0EC34
:100E300012F008AE03D009680A680B68E6EC13F0FC
:100E4000DBEC12F06AEC12F0FDE165EC15F0070E38
:100E5000006EF1EC11F0040EA0EC12F008AE03D01D
:100E600009680A680B68E6EC13F091EC12F003E0F5
:100E700086EC11F0FDE19AEC13F0DE6ADD6AB2EC6B
:100E800011F095EC14F05CE2006AF1EC11F0B2ECB8
:100E900012F00ABE0B6825EC12F00A501E24086EF0
:100EA0000B501F20096E51EC11F003E086EC11F09D
:100EB000FDE120EC11F0040EDBCF12F0136A12BE3C
:100EC000136825EC12F012501E24106E13501F20D0
:100ED000116E010E1026000E1122F70EDB501024A9
:100EE00031EC15F01120EA6EEFCF0CF00D6A0E6AAE
:100EF0000F6A0C0E1F0B07E0D8900C360D360E361D
:100F00000F36E806F9E10C5000120D5001120E5098
:100F100002120F500312DECF14F0DDCF15F0166A67
:100F2000176A145000121550011216500212175071
:100F30000312ECEC10F0DF2A010EA1E3DB2A9FD7AD
:100F4000E66A2EEC13F0D0EC14F0D0EC14F00C0E9A
:100F50000FEC11F05ED79DEC14F0030ED8EC10F0FE
:100F600079EC15F015EC15F0E66A010EE66E040E4C
:100F7000E66E0CEC14F0E552E55240D093EC15F01F
:100F8000FDEC10F0C1EC12F0EECFE6FFEFCFE6FF84
:100F900029EC11F0040EDB6ADBCF00F0F60EDB501B
:100FA000FE0FE76E0018E8AE02D0E73402D0E7503B
:100FB000005C12E2010EB7EC11F008BE0968C7EC44
:100FC00011F002BE036868EC15F00D0EE66ED6EC6B
:100FD00010F043EC14F0E0D7010EB7EC11F008BEAE
:100FE0000968C7EC11F002BE03680BEC11F05FEC6E
:100FF00013F0000EE66EE66AD5EC17F0E552E55206
:10100000EBD1FD0EDB5031080AE01EEC15F0060EA8
:101010003CEC13F0000EE66EE66A53EC15F093EC30
:1010200015F068EC13F0040EDB6A04EC11F0E8AE86
:1010300002D0E73402D0E750005C01E3CDD1DE6A94
:10104000DD6AB2EC11F095EC14F039E2010EE76EB6
:10105000F70EDBCF0AF0F80EDBCF0BF0E7500A26D5
:10106000000E0B22040EDBCF0CF00D6A0CBE0D68D7
:101070000A500C24086E0B500D20096EDE50082417
:10108000E96EDD50D7EC13F004BE0568F70EDB50B7
:101090000424026EF80EDB500520036EDE5002249D
:1010A000E96EDD500320EA6EEF500001DCEC11F038
:1010B0000D0EE66ED6EC10F0C6EC12F0C2D7070E9D
:1010C000B7EC11F008BE0968C7EC11F002BE036866
:1010D000B0EC13F0060EE926000EEA22EF500001F4
:1010E0005FEC13F04AEC12F0090EE4EC11F0090E7B
:1010F000E4EC11F0080E0FEC11F097D7F50EDB5071
:10110000010B07E0FDEC10F087EC12F002E268EC56
:1011100013F0040EDB6A04EC11F0E8AE02D0E73401
:1011200002D0E750005C01E357D1F1EC12F006BEAB
:1011300007686CEC15F002BE0368B7EC13F0FD0E07
:10114000DB502E0A06E1180EDAEC14F0E2EC12F095
:1011500002D008EC15F0E552E5529BEC15F0BAEC24
:1011600013F008BE096819EC11F004BE0568A3EC81
:1011700011F002E10350011844E0D4EC13F070ECDC
:1011800013F083EC15F0040EDB407F0B006E016A58
:10119000026A036A00AE03D0016802680368A2EC29
:1011A00013F0F1EC12F006BE07686CEC15F002BE0D
:1011B0000368B7EC13F0FD0EDB502E0A06E1180EA3
:1011C000DAEC14F0E2EC12F002D008EC15F0E55283
:1011D000E552BAEC13F008BE096819EC11F004BE30
:1011E0000568A3EC11F002E1035001180AE0D9CF21
:1011F000E9FFDACFEAFF090EEE1803E1ED5001E155
:10120000E6D0B1EC15F087D7040EDB6A04EC11F0E0
:10121000E8AE02D0E73402D0E750005C01E3DCD056
:10122000DE6ADD6A30EC14F012E2B2EC12F00ABEB3
:101230000B684DEC13F004BE056831EC13F095EC2F
:1012400014F002E21AEC13F0C6EC12F0EBD79EECAD
:1012500015F0010ED8EC10F00E0E0EEC13F01AEC97
:1012600013F0040EDBCFE7FFE850E726040EE7CFCC
:10127000DBFFCCD7040EDB6A04EC11F0E8AE02D041
:10128000E73402D0E750005C01E3A6D0DE6ADD6AF5
:10129000B2EC11F0080E15EC12F012E2B2EC12F002
:1012A0000ABE0B684DEC13F004BE056831EC13F078
:1012B00095EC14F002E21AEC13F0C6EC12F0E8D749
:1012C000FD0EDB50060A0EE0290A07E03F0A0DE199
:1012D000180EDAEC14F00A0E0ED0180EDAEC14F038
:1012E0000E0E09D008EC15F008D0180E0EEC13F015
:1012F0009BEC15F0170E2BEC14F0E552E5521AECAE
:1013000013F0080E0FEC11F0B7D7040EDB6A04ECF3
:1013100011F0E8AE02D0E73402D0E750005C5CE2A6
:10132000DE6ADD6AB2EC11F0100E15EC12F013E279
:10133000B2EC12F00ABE0B684DEC13F004BE056867
:1013400031EC13F00E0E15EC12F002E21AEC13F071
:10135000C6EC12F0E7D79EEC15F0080ED8EC10F0B2
:101360001AEC13F0100E0FEC11F0D1D7F50EDBA034
:1013700004D05AEC15F0D8EC10F0040EDB6A04EC43
:1013800011F0E8AE02D0E73402D0E750005C24E26E
:10139000F1EC12F006BE07686CEC15F002BE0368B3
:1013A000B7EC13F02AEC15F09BEC15F0BAEC13F047
:1013B00008BE096819EC11F004BE0568A3EC11F031
:1013C00002E10350011805E0E66AE0EC10F0040EBB
:1013D0000BD0B1EC15F0D3D7F50EDBA204D0D4ECD2
:1013E00013F0010E01D0020E006E050EE15C02E268
:1013F000E16AE55208EF12F083EC14F0F50EDBA081
:1014000002D070EC13F0FD0EDB502C0811E0FD0E45
:10141000DB502D080DE0FE0EDB50020A01E166D123
:10142000010A01E1E1D0060A05E0E66AE0EC10F00D
:10143000030EA8D179EC15F0AEEC15F05A0EBDEC08
:1014400014F0020EDB6A04EC11F0E8AE02D0E734CF
:1014500002D0E750005C01E3BCD0F00EE66E070E50
:1014600050EC15F0070E006E016A2F0E026E036A33
:10147000020EA0EC12F008AE03D009680A680B68EF
:10148000FDEC10F033EC12F00B50EE200F0E0516B1
:101490003EEC14F003E086EC11F0FDE19AEC13F061
:1014A000006AF1EC11F0020EDBCF08F0096A08BE09
:1014B000096851EC11F003E086EC11F0FDE120EC3D
:1014C00011F0020EDB280E6E0F6A0EBE0F6878EC6C
:1014D00011F003E043EC12F0FDE143EC13F0010ED8
:1014E00034EC14F0020F086E096A08BE096851EC6A
:1014F00011F003E086EC11F0FDE187EC14F0030F2E
:101500000E6E0F6A0EBE0F6878EC11F003E043EC2C
:1015100012F0FDE143EC13F0020E34EC14F0040F72
:10152000086E096A08BE096851EC11F003E086EC08
:1015300011F0FDE187EC14F0050F0E6E0F6A0EBE80
:101540000F6878EC11F003E043EC12F0FDE143EC9E
:1015500013F0030E34EC14F0060F086E096A08BE8F
:10156000096851EC11F003E086EC11F0FDE187EC25
:1015700014F0070F0E6E0F6A0EBE0F6878EC11F0B4
:1015800003E043EC12F0FDE143EC13F0E66A2EECCD
:1015900013F0030EDB6ADBCF00F0040EE76E0018D9
:1015A000E8AE02D0E73402D0E750005C07E276EC08
:1015B00012F0A1EC15F0030EDB2AEDD7080E006E39
:1015C000020EDBCFE7FF0050E726020EE7CFDBFF7E
:1015D0003AD79DEC14F09BEC15F079EC15F015EC76
:1015E00015F00BEC13F0C6D0A60EE66E9E0ECAECFC
:1015F00014F0020EDB6A04EC11F0E8AE02D0E7341E
:1016000002D0E750005C01E3B5D0020EDBCF04F05E
:10161000056A04BE0568DDEC14F0020EDBCF04F0B1
:10162000056A04BE0568A9EC14F0020EDBCF02F0D7
:10163000036A02BE0368B0EC13F0EF50006E016A5B
:10164000E8500E0E011200C0E6FFC6EC13F0A80E23
:101650007CEC15F0A60EE66E840E12EC13F0FD0E77
:10166000DB0408E0FD0EDB50300804E0FD0EDB502B
:10167000310802E1A4EC15F0A60EE66E820E12EC23
:1016800013F05CEC11F0A60E0EEC15F0E76E040EF4
:10169000E7CFDBFFDB50020B02081DE1960EE96E7F
:1016A000010EEA6EEE500101925D006EEE5093590C
:1016B000016EEE509459026EEE509559036ED8901B
:1016C000E850000A07E6050E15EC12F0000E02586D
:1016D000000E0358D8E3010ED8EC10F0A60EE66E0B
:1016E000940E12EC13F0020EDB2A85D7020EDB6A91
:1016F00004EC11F0E8AE02D0E73402D0E750005C11
:1017000039E2020EDBCF00F0016A00BE0168F5ECA1
:1017100010F0EF50E66EE66A030EE66EF0EC10F0A5
:10172000FD0EDB50100A0AE0150A08E0020A06E086
:101730000A0A04E0050A02E01A0A02E1180E01D0C2
:10174000080E0EEC13F0080E7FEC14F0100A0AE0FD
:10175000150A08E0170A06E01F0A02E0050A05E17B
:10176000170E01D00A0E0EEC13F01AEC13F0020E55
:10177000DB2ABED7F50EDBA204D0D4EC13F0010EA9
:1017800001D0020E006E050EE15C02E2E16AE55254
:1017900008EF12F05AEC12F0030EE126F50EDBA072
:1017A00002D070EC13F0FD0EDB50340A01E1CCD115
:1017B0003A0A01E1C9D1010A01E1C6D11E0A01E1DB
:1017C000C3D13D0A01E1C0D1010A01E1BDD1280A1E
:1017D00001E129D1150A01E126D11D0A01E123D138
:1017E0001E0A01E120D13C0A01E11DD1230A01E1D9
:1017F0001AD1050A01E117D1030A01E114D1010A46
:1018000001E111D1190A01E10ED11A0A01E10BD14E
:101810000F0A01E108D1050A01E105D1040A01E13D
:1018200002D1050A01E1FFD0070A01E1FCD02A0A32
:1018300001E1F9D01F0A61E02C0A5FE0030A5DE0D4
:101840001F0A5BE0010A59E0290A04E0D4EC13F016
:10185000030E9DD1F50EDB50010B010807E179EC79
:1018600015F0AEEC15F0070E5BEC14F00101A96B5E
:10187000FBEC12F0E8AE02D0E73402D0E750A95DED
:1018800001E37DD186EC15F00101A929066E076AF6
:1018900006BE076839EC14F002BE03680BEC11F0C9
:1018A0000410006EE5EC12F0060E006EF1EC11F083
:1018B000010EDBCF04F0020EDBCF05F0066A076AEB
:1018C0003EEC14F003E086EC11F0FDE19AEC13F02D
:1018D00098EC14F0860E91EC14F0A1EC15F09DEC50
:1018E00014F09BEC15F079EC15F015EC15F00BEC01
:1018F00013F0020E0101A927BBD71EEC15F0FD0E57
:10190000DB0408E0FD0EDB50300804E0FD0EDB5088
:10191000300808E1E66AEF0E12EC13F0E66AF80E02
:1019200012EC13F00101A96BFBEC12F0E8AE02D04F
:10193000E73402D0E750A95D01E321D1A9C100F04D
:10194000016A00BE0168026A036AA2EC13F0A9C131
:1019500006F0076A06BE076839EC14F002BE036899
:1019600068EC15F064EC13F0FD0EDB0404E0FD0EF2
:10197000DB50300805E1F60EE66E2A0E12EC13F08D
:10198000A9C104F0056A04BE0568D0EC13F0A6EC0A
:1019900012F0016EEE500620026EEE500720036E2C
:1019A000002A000E01220222CFEC11F0086E050E73
:1019B000E15E0850010EE76EF70EDBCF08F0F80E7F
:1019C000DBCF09F0E7500826000E0922A9C10AF072
:1019D0000B6A0ABE0B6808500A24E96E09500B20F6
:1019E0005EEC15F0010EE76EF70EDBCF02F0F80E9D
:1019F000DBCF03F0E7500226000E0322A9C104F05A
:101A0000056A04BE056802500424E96E03500520EF
:101A1000EA6EEF500001DCEC11F064EC13F0020E02
:101A20000101A92781D7F50EDBA014D097EC13F0A4
:101A3000DF6ADFCF00F0F90EDB50E76E0018E8AE8A
:101A400002D0E73402D0E750005C04E21AEC13F055
:101A5000DF2AEFD70101A96BFBEC12F0E8AE02D050
:101A6000E73402D0E750A95D01E389D052EC12F0CF
:101A7000006E040EE76E0018E8AE02D0E73402D024
:101A8000E750005C22E352EC12F007081EE052EC33
:101A900012F0080853E1FD0EDB50130802E0000EBF
:101AA00001D0010E026EFD0EDB500A0802E0000EAE
:101AB00001D0010E016EFD0EDB500D0802E0000E9C
:101AC00001D0010E0110021039E0A929066E076A43
:101AD00006BE076839EC14F002BE03689CDB0410F4
:101AE000006E05C001F0E5EC12F003EC14F0FD0E01
:101AF000DB500D0A06E01D0A04E03F0A02E0010A7D
:101B000003E1180E0EEC13F09EEC15F00A0E7FECBC
:101B100014F00D0A10E01D0A0CE03E0A0AE0010A6A
:101B200006E0230A04E0050A02E0030A07E10E0EBC
:101B300003D00A0E01D0170E0EEC13F01AEC13F0BE
:101B4000020E0101A92788D71AEC14F0EFCF02F09A
:101B500002C003F0026A0EEC12F0EF500001021016
:101B6000006E03C001F0010E00C0DBFF020E03C0D7
:101B7000DBFF03EC14F02AEC15F0010E19DBF50E77
:101B8000DBA204D0D4EC13F0010E01D0020E006EE3
:101B9000030EE15C02E2E16AE55208EF12F05AEC52
:101BA00012F0070EE126DE6ADD6A040EDB6AF50E2E
:101BB000DBA002D070EC13F0FE0EDB5001E179D116
:101BC000020A01E11CD1010A01E103D1060A48E041
:101BD000020A01E0C8D18EEC13F002E1000E01D040
:101BE000010E04C0E7FFE75204E0E8427F0BE7067E
:101BF000FCE160EC14F008E113EC14F0D4EC12F00A
:101C0000FDE100502EEC12F060DB2EEC12F08EECB9
:101C100013F002E1000E01D0010E04C0E7FFE7520D
:101C200004E0E8427F0BE706FCE1A1092EEC12F08C
:101C3000040EDB6AE9DAE8AE02D0E73402D0E750FE
:101C4000005C0BE2E66A2BEC1AF0E552E66EC4DBB0
:101C500000BE01688BEC14F0EDD7F6EC19F095D1CD
:101C6000CCDA000EEE5C000EEE58F80EEE58000EC8
:101C7000EE5853E3F50EDBA01AD079EC15F00BEC1F
:101C800013F0006AAEDB046A056A0668076AB5DA13
:101C900097EC12F00C0E6AEC12F0FDE165EC15F019
:101CA000E66A43EC15F0800EE66E2EEC13F0040E9F
:101CB000DB6AAADAE8AE02D0E73402D0E750005C73
:101CC00001E363D1B7EC12F098EC15F0200EE66E4C
:101CD0003C0E47EC15F098EC14F035EC19F0BFEC25
:101CE00013F07ADB00BE0168F6EC13F0DBCF02F0F4
:101CF000060EDBCF03F0000E0216FF0E03164BECB0
:101D000014F000BE016871DA02C0EFFF98EC14F025
:101D10000BEC13F043EC14F0CCD779EC15F00BEC92
:101D200013F0006A74EC13F0DBEC12F0D3DBFEE18D
:101D300065EC15F0060E006E74EC13F091EC12F0E9
:101D400002E0E4DAFEE19AEC13F0800EE66E43EC7A
:101D500015F0F1EC14F0CADB98EC15F0F1EC14F08E
:101D6000B7EC12F098EC15F0CBEC12F0D6DA95EC5B
:101D700014F02CE2D2DA83EC13F0BFEC13F09DECFC
:101D800013F002BE036855DBF6EC13F0DBCF04F072
:101D9000060EDBCF05F0000E0416FF0E051605C07B
:101DA00004F0056A9DEC13F002BE036842DB010EED
:101DB0000026000E012219DA04C0EFFF98EC14F09F
:101DC000020EDB2A030ED2E3DB2AD0D70BEC13F092
:101DD000DCD068EC13F0040EDB6A16DAE8AE02D051
:101DE000E73402D0E750005C01E3CFD0090EECDA13
:101DF000E66EF2DA00BE01688BEC14F0EED7FDD986
:101E0000000EEE5C200EEE58000EEE58000EEE585E
:101E10002DE397EC13F0F50EDBA012D0BCDB7DDADE
:101E200066EC14F0000E025E200E035A0250005CB5
:101E30000350015805E24BEC15F0F1E3DB2AEFD734
:101E4000040EDB6AE1D9E8AE02D0E73402D0E750F5
:101E5000005C01E39AD08EEC14F000BE0168F1EC56
:101E600013F000BE016827EC15F0ECD7F50EDBA0EF
:101E70000AD0F9D990DB51DABEDA05E24BEC15F065
:101E8000FAE3DB2AF8D7040EDB6ABED9E8AE02D04B
:101E9000E73402D0E750005C01E377D08EEC14F019
:101EA00000BE0168F1EC13F000BE016827EC15F0EC
:101EB000ECD7FD0EDB500F0A0EE01E0A0CE03C0AC8
:101EC00007E0230A05E0220A09E1DE68010E05D0D9
:101ED000DE68030E02D0DE680F0EDD6E43DA026AA2
:101EE000036A8BD9EE5000181BE1EE50011818E17F
:101EF000EE50021815E1EE50031812E111E1B3D9CA
:101F0000BFEC13F0050E060EDBCF01F001C000F0B0
:101F1000016A1AEC14F000C0EFFF80DA41DB23D035
:101F2000F50EDBA00BD086DB9ED935DBF6D963DA64
:101F300005E24BEC15F0FAE3DB2AF8D7040EDB6A76
:101F400063D9E8AE02D0E73402D0E750005C0BE280
:101F50008EEC14F000BE0168F1EC13F000BE0168D5
:101F600027EC15F0EDD7040EDB6A4ED9E8AE02D0AF
:101F7000E73402D0E750005C08E22EDA00BE0168C8
:101F800034D9EF6A040EDB2AF0D7F50EDBA202D0BB
:101F9000E66A16D9070EE15C02E2E16AE552E16EFB
:101FA000E552E7CFD9FF120083EC14F0040EDB6A90
:101FB000F50EDBB095DBFE0EDB50020A01E1A6D088
:101FC000010A01E17AD0060A01E0CDD079EC15F0E2
:101FD00022DBF00EE66E070E50EC15F0060E006EDA
:101FE000016A2F0E026E036A04680F0E056ED8DBBD
:101FF0009EDA040E1F0B02E089D9FEE19BDB040E82
:10200000DB6A02D9E8AE02D0E73402D0E750005CC8
:1020100001E3BBD0800EE66E21DBDE6ADD6A30ECC8
:1020200014F008E263DA98EC15F0DF2A010EF7E30A
:10203000DB2AF5D7DE6ADD6A30EC14F03AE292D999
:1020400062DB1ADA7ADB02BE0368FFD96DEC14F0AA
:10205000CCD8020EDBCFEFFFDBCF06F0030EDBCFD9
:1020600007F0000E0616FF0E071607C006F0076AF7
:1020700064DB02BE0368DECF04F0DDCF05F0010EA5
:10208000D89004360536E806FBE1010E0426000E62
:10209000052202500424006E03500520016EA5D8CD
:1020A00006C0EFFF98EC14F0DF2A010EC5E3DB2A2F
:1020B000C3D7B1DA080EB3D8A4D7A60EE66E9E0E2B
:1020C000CAEC14F0040EDB6A9FD8E8AE02D0E73405
:1020D00002D0E750005C59E270EC15F004BE0568D0
:1020E000DDEC14F070EC15F004BE0568A9EC14F0FA
:1020F000A60EE66E800E96DAA80E0EEC15F0E66ED1
:102100006BD900BE01688BEC14F0DED7F50EDB5006
:10211000010B13E072D8FBD910E2D7D97FD9E55271
:10212000E750EF6EDE6ADD6A1DD965D906E282DA14
:10213000DF2A010EF9E3DB2AF7D7040EDB6A64D845
:10214000E8AE02D0E73402D0E750005C1EE2BDD911
:1021500043D900BE016849D8E552E750EF6E6ADA0C
:10216000040EDB2AECD7040EDB6A4ED8E8AE02D0B0
:10217000E73402D0E750005C08E22ED900BE0168C7
:1021800034D8EF6A040EDB2AF0D7F50EDBA202D0BA
:10219000E66A16D8000E006E050EE15C02E2E16A06
:1021A000E55236D1E66AA9EC19F0F5D2A4DBF3D2F8
:1021B00080DAF1D2E66E95EC17F0E552E5521200A6
:1021C000FE0EDBCFE6FFFD0EDBCFE6FFCCEC15F01D
:1021D000E552E552E552120035DBA9EC19F0DBD2ED
:1021E000060EE66E4FEC18F0D6D2F70EDB50002448
:1021F00031EC15F00120EA6E1200D950F90FE96EAA
:10220000FF0EDA20EA6E1200DBCF00F0F60EDB5094
:10221000E76E00181200A4DAEF5000011200006E01
:10222000040EDBCFE7FF0050E726040EE7CFDBFF0D
:102230001200F70EDB50082431EC15F0D7EF13F045
:1022400004500012055001120650021207500312EA
:102250001200FE0EDBCFE6FF31EC17F0006E050E2C
:10226000E15E00501200040E53EF14F0F70EDB5045
:102270000624F7DB072074EF14F0D89004360536F7
:1022800006360736030E236E246A256A266A04C0C2
:102290001EF005C01FF006C020F007C021F03EEF81
:1022A00023F0F70EDB500824DCDB0920EA6EEFCFC9
:1022B00004F0056A3EEF14F092C196F193C197F1D4
:1022C00094C198F195C199F11200F90EDBCF00F09D
:1022D000FA0EDBCF01F0FB0EDBCF02F0FC0EDBCF02
:1022E00003F000501200000EE66EE66AE66A120085
:1022F000F70EDB500E24B5DB0F20EA6EEFCF0AF0AD
:102300000B6A0C6A0D6A0C0E1F0B1200D890043673
:10231000053606360736E8061200020EDBCF00F05F
:10232000030EDBCF01F012002ADA050E060EDBCF1A
:1023300003F04BEF14F00410006E05C001F0E66EE0
:1023400005C0E6FF1200F70EDB5004248ADB0520EF
:10235000EA6EEF5000010610026E07C003F0E8506D
:1023600000181200DECF00F0DDCF01F01200E76EA2
:10237000F70EDBCF06F0F80EDBCF07F0E7500626AE
:10238000000E0722040EDBCF08F0096A1200065087
:102390000824E96E07500920A7DA9DEF13F0032205
:1023A00051DAFE0EDBCFE6FF31EF17F004DA070E4D
:1023B000E66E200EF9EF13F00610006E07C001F074
:1023C000E66E07C0E6FF1200E66E040EE66EC5EC90
:1023D00018F0E552E5521200040EDBCF00F0016A5E
:1023E0001200016A200E026E036A1200610EE66E90
:1023F000E70EE66E12006ADA0250005C03500158E4
:102400001200040EDBCF00F0050EDBCF01F012004E
:10241000E16E0050E552E7CFD9FF1200F70EDBCF97
:10242000E9FFF80EDBCFEAFF1200005C000E015856
:102430001200020E206E216ADBCF25F0030EDBCFE7
:1024400026F062EC23F06DEF14F0020E206E216A8C
:10245000DECF25F0DDCF26F062EF23F0E66EFCEC58
:1024600019F0E55212000850EE24046E0950EE20D7
:10247000056E0A50EE201200020EF3CFDBFF030EB2
:10248000F4CFDBFF1200D8900A360B360C360D362F
:10249000E8061200000EE66EE66AD5EC17F0E5528B
:1024A000E5521200F90EDBCFE6FFA9417F0BE552A2
:1024B000E7241200D9CFE6FFE1CFD9FF1200016A6D
:1024C000026A036A0E0E01121200050EECD9F350D7
:1024D000E66E1200D8900732063205320432E80662
:1024E0001200040EDB6A050EDB6A1200B60E91EFD5
:1024F00014F0E66EEB0EE66E1200EE500016EE5093
:102500000116EE500216EE500316080E1200D88087
:10251000000EEE54000EEE54000EEE54000EEE547B
:1025200012001EC004F01FC005F03EEF14F0EE5084
:102530000416EE500516EE500616EE500716120061
:10254000DBCF08F0096A0A6A0B6A1200EE50042415
:10255000006EEE5005201200E552E750EF6E040EBB
:10256000DB2A1200040EDBCF0AF00B6A1200B60E53
:10257000E66E0B0EE66E1200B60EE66EDB0EE66E33
:102580001200EECFE6FFEECFE6FF1200020EDE26CF
:10259000000EDD221200020EDB6A030EDB6A12005F
:1025A000050EDBCFEFFF1200D8900332023201326A
:1025B0000032E806120020C006F0046A056A076AC5
:1025C0000C0E12000A0E2BEF14F0010E00C0DBFF00
:1025D000020E05C0DBFF1200006E0A0EE15E005025
:1025E0001200040EDB28066E076A1200040EDB28B8
:1025F000086E096A1200F60EDB50E76EA919120088
:10260000040EDB2A050E1200E6683F0EE66E12008D
:1026100077DA79EF15F0F0D998EF14F0E66E060E40
:10262000DAEF10F0E66EE66AD6EF10F0E66E3B0EDB
:1026300047EF15F0060EE66EDAEF10F0E66EE66A8A
:1026400032DAE0D9B3DD83EF15F0E66E200E80EFCD
:1026500015F0900EE66E010E47EF15F014DA98EFC4
:1026600014F0DE500424026EDD500520036ED3DD2D
:10267000A3DE3BDAB2EF11F0E66EE66A3C0EE66EE0
:10268000E66A29EF11F00A5000120B5001120C50AB
:1026900002120D500312ECEF10F0DE500A24086E07
:1026A000DD500B20096E010E0826000E092219EFDD
:1026B00011F0E66EE66AE66AE66A38EF22F03BDE83
:1026C000D4D9FADD3DEF15F0D0D9D7D94AEF12F0C1
:1026D00094DDEECFE6FF55DFEFCFE6FF29EF11F0F7
:1026E000010EE66EE0EF10F07CDEF90EDBCF04F0B9
:1026F000FA0EDBCF05F0FB0EDBCF06F0FC0EDBCFD6
:1027000007F03DEF11F0026A036A008A3C0E0112E5
:10271000880E021261DD0CD935EF19F0EFEC19F0DB
:102720000D0E046ED2DD0110021003101200DBDD6D
:10273000F0EF10F085DDECEF10F0040EDBCF02F0CF
:10274000036A12005ADDEE500026EE500122EE50D0
:102750000222EE5024DE046E050EE15E04501200EB
:10276000F70EDB5002247DD90320EA6E1200B0D9A7
:1027700075EF15F078DD80DED0DDF6EF12F0050E96
:10278000F3CFDBFF060EF4CFDBFF120001C0E6FF44
:10279000E66AD6EF10F0E552E552E552E552120036
:1027A000066A076AFDEF10F0E66AE0EF10F0092014
:1027B00085D970EF15F0030EE66E020EE66ED95065
:1027C000060FE66E000EDA20E66E120016DD4BDE16
:1027D000066E0B50EE20076E3DEF11F015DF75EF22
:1027E00015F003DD02C0EFFFECEF11F0FEDCD0EFDF
:1027F00012F0E66EE66AE66AFD0EDBCFE6FFFE0E3D
:10280000DBCFE6FF1200010EDBCFE6FF020EDBCFCF
:10281000E6FFE66EF0EF10F0C5DCE66AE66AE66A0F
:10282000E66AA9EF19F0006A0168026A036AE5DC4A
:102830007DEF12F0010EE76EF1DDE750E926000EA4
:10284000EA22120000C0E6FF01C0E6FF02C0E6FF78
:1028500003C0E6FF1200E66E060EE66E95EF17F077
:1028600081DD040E15EF12F0006EBBDD020EDB50B1
:102870001200FCDCA9C102F0036A1200066A076AB2
:10288000040E1F0B1200020E0FEF11F02CDD8EDC78
:10289000020EE4EF11F003C002F0036A040EDB281D
:1028A000006E016A1200E66E060EE66E55EC18F038
:1028B000E552E5521200E66EE66A200E80EF15F052
:1028C000A009CCDDFD0EDB5033081200F90EDBCF82
:1028D00002F0FA0EDBCF03F0120002501E24006E4D
:1028E00003501F20016E1200EA6EEFCF04F004C007
:1028F00005F0046A1200040EE66E49EF18F058DC89
:10290000FD0EDB501200D6DD050EE126120098DC2C
:10291000020EDB50120069DCACEF12F0A4DC94EF85
:1029200011F0E66E1B0EE66E1200060E15EF12F0A9
:10293000E66AE66AE66AD2EF10F0580EE66E050E19
:1029400084DE380E73DEA90EE66E0A0E7EDE8DEF93
:1029500015F026DFEE500426EE500522EE5006223A
:10296000EE50072205C000F00001036AA8DD05C093
:10297000E6FF0CDFAA0E7CEF15F0E66EE66A240E89
:10298000BFD80A0E16EF13F0E66E0E0E4BDEA70E42
:102990007CEF15F047DEA60EE66E9C0E12EF13F0EC
:1029A000E6DDCFD8E9DDCDD8B60EA3DDCAD89EDDF1
:1029B000A1EF15F033DE83EF15F0F2DEC7DDEE5048
:1029C0000620EE5007207BDD00C0E6FFDFDEA90E0B
:1029D0007CEF15F0BED8B2D8080ED8EC10F0A9EFF5
:1029E00015F0960E9EDFA4D8C7DDA2D8D60EE66EEF
:1029F000DB0EE66E98EF15F0E66A010EE66E040E49
:102A000080EF15F070DCD6EC10F056DC73EF11F0AF
:102A100095D80A0E4EDEE552E5521200E66E500ED3
:102A200001DEF50E69D846EF14F0E0DCA90E08EFE0
:102A300013F0BADE68D854DE83EF15F0A60EE66E0A
:102A40008E0EF0DDA60EE66E8C0E12EF13F0CEDECB
:102A5000B1EF15F073D8030ED8EC10F00E0E0EEF98
:102A600013F0E96EF80EDB5012000F0EE66ED6EC96
:102A700010F0E66A030EDAEF10F08A825CD88A92D0
:102A8000010ED8EF10F0030E34DDD2EF10F0E66E39
:102A9000880E80EF15F0CEDD020EDB2A030E120049
:102AA000D4DD29EF13F00C0EE66ED6EF10F0C2DD88
:102AB00000EF13F0BFDD58D8140E1200EA6EEFCF0E
:102AC00006F006C007F0066A120034DE29EF13F0A4
:102AD0000BEC11F09BEF11F036EC11F09DEF13F0C1
:102AE000040EDBCF04F0056A1200020EE66EF0EF72
:102AF00010F01EDF98EF14F0E66E6E0E12EF13F07A
:102B0000E66ED2EF10F00A0ED8EF10F08A0E35DF25
:102B1000800EE66E0F0E50EF15F0390E87DD66DC85
:102B2000A80E08EF13F0A60EE66E8E0ECAEF14F094
:102B3000BA0E08EF13F0020ED8EF10F0080E0EEFE9
:102B400013F0BB0E08EF13F0550E1EDFAA0EC4EFF4
:102B500014F0010E63DD070E0EEF13F04DDF0BEFE7
:0E2B600013F068DD43EF14F0090E0EEF13F0D2
:022B6E009BECDE
:102B70001AF0E652DF6ADFCF00F00A0EE76E0018A7
:102B8000E8AE02D0E73402D0E750005C02E2DF2A70
:102B9000F2D7E5527BEF1AF0D9CFE6FFE1CFD9FFAC
:102BA000020EE126FC0EDB0401E0F5D09390939237
:102BB000FE0EDB50320804E0FE0EDB50330803E16A
:102BC0008A808A8202D08A908A920000FE0EDB50B0
:102BD000050A0CE0030A0AE02F0A07E01B0A03E0DB
:102BE000010A01E005D08A9405D004D08A9602D06B
:102BF0008A9400D092C196F193C197F194C198F153
:102C000095C199F1960EE96E010EEA6EEE50010142
:102C1000925D006EEE5001019359016EEE5001017C
:102C20009459026EEE5001019559036ED8900350ED
:102C3000000A08E6640E005C000E0158000E0258FF
:102C4000000E035802E2DED7DDD7FE0EDB50290A64
:102C50000CE02C0A08E0030A06E0340A03E0010A4B
:102C600001E06BD06CD08A946AD08A9400008A9676
:102C700092C196F193C197F194C198F195C199F1E0
:102C8000960EE96E010EEA6EEE500101925D006E45
:102C9000EE5001019359016EEE5001019459026EFC
:102CA000EE5001019559036ED8900350000A08E6D2
:102CB0001A0E005C000E0158000E0258000E035858
:102CC00002E2DED7DDD7E66AE66AE66AE66A41DB5B
:102CD000E552E552E552E552E66AE66AE66AE66AD8
:102CE00038DBE552E552E552E552E66AE66AE66A05
:102CF000E66A2FDBE552E552E552E552E66AE66AFE
:102D0000E66AE66A26DBE552E552E552E5528A8636
:102D10008A8A8A9ADE6ADD6ADECF00F0DDCF01F0B2
:102D2000010E005C000E015806E200D0DF2A010E01
:102D300001E3DB2AF1D78A9602D08A9600D092C1AD
:102D400096F193C197F194C198F195C199F1960EBE
:102D5000E96E010EEA6EEE500101925D006EEE50DA
:102D600001019359016EEE5001019459026EEE502B
:102D700001019559036ED8900350000A08E6640ECD
:102D8000005C000E0158000E0258000E035802E2CB
:102D9000DED7DDD75CD08A868A8A92C196F193C14C
:102DA00097F194C198F195C199F1960EE96E010ED3
:102DB000EA6EEE500101925D006EEE5001019359F2
:102DC000016EEE5001019459026EEE5001019559C9
:102DD000036ED8900350000A08E6280E005C000E2F
:102DE0000158000E0258000E035802E2DED7DDD76C
:102DF0008A9A8A849380938292C196F193C197F1C3
:102E000094C198F195C199F1960EE96E010EEA6EA2
:102E1000EE500101925D006EEE5001019359016E7A
:102E2000EE5001019459026EEE5001019559036E66
:102E3000D8900350000A08E6140E005C000E0158FA
:102E4000000E0258000E035802E2DED7DDD7020E54
:102E5000E15C02E2E16AE552E16EE552E7CFD9FFBB
:102E6000120069DB040EE126FE0EDB5028E0020AA8
:102E700026E0010A53E132DB06C000F00001026ADD
:102E8000036A3DDB06C0E6FF5BDBF80E4FDB26DBAB
:102E900005C000F00001036A32DB05C0E6FF50DB2D
:102EA000F70E44DBFA0EDBCF00F0FB0EFC0EFD0E3E
:102EB00026DB00C0E6FF44DBF60E38DB2FD0DE6AEF
:102EC000DE6ADE6ADD6ADD52DD52FA0EDBCF00F02B
:102ED000FB0EDBCF01F0FC0EDBCF02F0FD0EDBCFF3
:102EE00003F0D9CFE9FFDACFEAFF0050EE5C0150E2
:102EF000EE580250EE580350EE5810E2060EE66E01
:102F0000E66E13D8E552E552D9CFE9FFDACFEAFFF2
:102F1000EE2A000EEE22EE22EE22D7D7040EE15C5E
:102F200002E2E16AE552E16EE6D2D9CFE6FFE1CFF7
:102F3000D9FFE652939093928A928A90DF6ADFCF0C
:102F400000F0FE0EDB50E76E0018E8AE02D0E7346A
:102F500002D0E750005C14E2FD0EDBA002D08A80B4
:102F600001D08A908A82FD0EDBCFF3FFF390F3420B
:102F7000FD0EF3CFDBFF00008A920000DF2ADFD7CF
:102F8000DF6ADFCF00F00A0EE76E0018E8AE02D06D
:102F9000E73402D0E750005C03E200D0DF2AF1D72B
:102FA000E552E552E7CFD9FF1200D9CFE6FFE1CFD6
:102FB000D9FFE652DF6ADFCF00F0100EE76E00188F
:102FC000E8AE02D0E73402D0E750005C1CE2FD0E10
:102FD000DB50010B02E08A8001D08A908A82D950AE
:102FE000FD0FE96EFF0EDA20EA6E010E0F0B06E010
:102FF000EC52D890ED32EF32E806FAE100008A9206
:103000000000DF2AD8D70000E552E552E7CFD9FF0C
:103010001200D9CFE6FFE1CFD9FFE6528A90000037
:103020008A8200008A920000DF6ADFCF00F00E0E75
:10303000E76E0018E8AE02D0E73402D0E750005C3B
:103040001CE2FD0EDB50010B02E08A8001D08A9069
:103050008A82D950FD0FE96EFF0EDA20EA6E010E6A
:103060000F0B06E0EC52D890ED32EF32E806FAE1B1
:1030700000008A920000DF2AD8D78A9000008A8256
:1030800000008A9200000000E552E552E7CFD9FF28
:10309000120013DA8ADFE552E5528A902CD20DDA5B
:1030A000B8DFE552E5528A9026D2D9CFE6FFE1CFCC
:1030B000D9FF030EE126FD0EDBCFE6FFFE0EDBCFD0
:1030C000E6FF33DFE552E5529380DF6ADFCF00F0A1
:1030D0000A0EE76E0018E8AE02D0E73402D0E750DF
:1030E000005C03E200D0DF2AF1D7010EDB6A020E9A
:1030F000DB6A8A8200008A920000DF6ADFCF00F07C
:103100000E0EE76E0018E8AE02D0E73402D0E750AA
:10311000005C1FE28A8200008150010B026E036A8C
:10312000DF5002C000F003C001F005E0D890003687
:103130000136E804FBE1D950010FE96EDACFEAFF6E
:103140000050EE120150ED1200008A920000DF2ABA
:10315000D5D78A8200008A92000093908A9000005E
:10316000010EDBCF00F0020EDBCF01F000C0F3FF59
:1031700001C0F4FF00D0030EE15C02E2E16AE55217
:10318000E16EE552E7CFD9FF1200D9CFE6FFE1CFDC
:10319000D9FF020EE126FD0EDBCFE6FFFE0EDBCFF0
:1031A000E6FFC3DEE552E552DF6ADFCF00F0080E2E
:1031B000E76E0018E8AE02D0E73402D0E750005CBA
:1031C00008E28A9000008A8200008A920000DF2ACA
:1031D000ECD79380DF6ADFCF00F00A0EE76E0018AD
:1031E000E8AE02D0E73402D0E750005C03E200D042
:1031F000DF2AF1D7010EDB6ADF6ADFCF00F0080EAD
:10320000E76E0018E8AE02D0E73402D0E750005C69
:103210001AE28A8200008150010BDF5206E0DFCF04
:10322000F3FFE846FE0BF306FCE1006E010EDBCF78
:10323000E7FF0050E712010EE7CFDBFF00008A92A4
:103240000000DF2ADAD793908A900000010EDB504D
:1032500000D0006E020EE15C02E2E16AE552E16E2E
:103260000050E552E7CFD9FF1200D9CFE6FFE1CFFA
:10327000D9FF030EE1268A908A808A828A928A90F8
:10328000DF6ADFCF00F0030EE76E0018E8AE02D071
:10329000E73402D0E750005C04E28A828A92DF2A97
:1032A000F0D7010EDB6A020EDB6ADF6ADFCF00F0C7
:1032B000080EE76E0018E8AE02D0E73402D0E750FF
:1032C000005C04E28A828A92DF2AF0D793800000B1
:1032D000DF6ADFCF00F0100EE76E0018E8AE02D014
:1032E000E73402D0E750005C1DE28A820000815082
:1032F000010B026E036ADF5002C000F003C001F050
:1033000005E0D89000360136E804FBE1D950010F02
:10331000E96EDACFEAFF0050EE120150ED128A9208
:10332000DF2AD7D793908A90010EDBCF00F0020EF0
:10333000DBCF01F000C0F3FF01C0F4FF00D0030EAB
:10334000E15C02E2E16AE552E16EE552E7CFD9FFC6
:103350001200D9CFE6FFE1CFD9FFE6528A90DF6AAB
:10336000040EDF5C04E28A828A92DF2AF9D7DF6AE0
:10337000180EDF5C2FE2010E006E016A026A036A1A
:10338000D950FB0FE96EFF0EDA20EA6EEE50001600
:10339000EE500116EE500216EE50031600500110CA
:1033A0000210031002E08A8001D08A90D950FB0FEE
:1033B000E96EFF0EDA20EA6ED890030EEB32020EB1
:1033C000EB32010EEB32EF3200008A8200008A926B
:1033D000DF2ACED7E552E552E7CFD9FF12008A8027
:1033E0008A82B7EC15F08A9085EF1AF08A82B7ECE2
:1033F00015F08A80B7EF15F095D8FE0EDB50E76E1A
:10340000010EE7CFDBFFDF6A080EDF5C0FE2010E83
:10341000DB50800B800802E18A8001D08A907AD844
:10342000B7EC15F08A8271D8DF2AEED793808A82B2
:10343000B7EC15F08150010BDF6E8A92B7EC15F0F6
:103440009390DF50006E020EE15C02E2E16AE55209
:10345000E16E005050D066D89380010EDB6ADF6ABF
:10346000080EDF5C0BE28A82B7EC15F053D881B00E
:10347000DB808A92B7EC15F0DF2AF2D79390B7EC95
:1034800015F0FE0EDB0402E18A8001D08A908A8268
:103490003CD8010EDB50006E020EE15C02E2E16AF4
:1034A000E552E16E005027D0E66A040EE66EF1DDCB
:1034B000E552E552E552E55212003DD8FD0EDBCF54
:1034C000E6FFFE0EDBCFE6FF30DDE552E552FB0EF8
:1034D000DBCFE6FFFC0EDBCFE6FF1200FA0EDBCF00
:1034E00004F0FB0EDBCF05F0FC0EDBCF06F0FD0E8B
:1034F000DBCF07F01200E552E7CFD9FF1200016AD7
:10350000026A036A0E0E01121200B7EC15F08A92DD
:10351000B7EF15F0010EDBCFF3FFF39EF346F3CFC9
:10352000DBFF120008D8020EE1261200E66E6E0ED6
:10353000E66E54EF1AF0D9CFE6FFE1CFD9FF1200C3
:0835400001C0E6FF54EF1AF090
:08354800090EC26EA60EC06E52
:103550000F0EC16E9284120076DBE652DF6A0C0E0B
:10356000C16EC282C2B2FED767DBC3CFEFFF010ECE
:10357000E76E62DBE750E926000EEA22C4CFEFFFD8
:10358000C168E55265D3070E8B12F80E9416938C22
:10359000DBDF8150400B01E0010E0101A66F92902C
:1035A00092929396939A93909392939492968996EB
:1035B00089889288898A928A8A868A9A8A908A9247
:1035C000F18E02D8F0EF1AF0C00EF2129D809E909C
:1035D0009F80D10ECF6E1F0ECE6E010ECD6E1200EB
:1035E000E00EF212F294440ED66EC30ED56E1200A7
:1035F0002ADBFE0EDB50010BE81CE8B08B80E8A054
:103600008B90FE0EDB50020BE8407F0BE81CE8B00D
:103610008B82E8A08B92FE0EDB50040BE840E84062
:103620003F0BE81CE8B08B84E8A08B9411D30BDB34
:10363000080EE126060E0101A05D03E36D50020BAA
:1036400002E072DAEAD1400EE66E000EE66E010E7E
:10365000E66EC6EC21F0E552E552E552E66ED95031
:10366000020FE96EDACFEAFFE552E750EE6EED6A3F
:10367000020EDBCF00F0030EDBCF01F0013401E3DB
:10368000BCD100500008000E015401E3B6D1010185
:103690000051C00A01E156D1700A01E109D1100AB6
:1036A00001E1B2D0300A01E198D0100A01E189D0DD
:1036B000F00A01E178D0100A66E0300A57E0100AFB
:1036C00048E0700A39E0100A0CE0300A01E095D1B8
:1036D000050EDBDA01C1E6FFE5DA22EC04F0E55283
:1036E00075D0060ED2DA01019A51020A10E0010AE1
:1036F00007E0060A1EE19ADAE66AE66AE66814D08E
:1037000095DAFE0EE66EE6683F0EE66E0DD0E66ACE
:10371000C9DACCEC15F0E552E552E55287DA060E2F
:10372000E66E200EE66EE66AE66ABCDACFEC0DF0D5
:1037300093DA0101020E64D0050E59DA02E06FDA65
:10374000FEE15EDA02E064DAFEE199DA4DEC06F0C1
:1037500036D0060E4CDA02E062DAFEE151DA02E01F
:1037600057DAFEE1A9DACFEC0DF019D0050E3FDAF9
:1037700002E055DAFEE144DA02E04ADAFEE17FDAFD
:10378000FCEC09F01CD0060E32DA02E048DAFEE169
:1037900037DA02E03DDAFEE18FDAD4EC0FF05CDAE2
:1037A00001C19CF12ED0050E22DA02E038DAFEE1EA
:1037B00027DA02E02DDAFEE162DACAEC0BF04CDA2D
:1037C00007D0010EE66E010EE66E2ED9E552E552E7
:1037D0000101406F0101010E13D04E0E006E470E25
:1037E000016E026A00C0E6FFE66E02C0E6FF5FDA25
:1037F00080EC23F0036E050EE15E03500101120E12
:103800009C6F040E42DAF9D0070E3FDA0101015134
:10381000030A3AE0010A10E0030A06E0010A01E0A7
:10382000ECD0010EE66E01D0E66A050EE66E290EBA
:10383000E66ECCEC15F020D002C100F0016A026AFD
:10384000036ADED902E0E4D9FEE10BDA100E1F0BA9
:1038500007E0D890083609360A360B36E806F9E153
:1038600018DA00C0E6FF01C0E6FF02C0E6FF03C0B1
:10387000E6FFA9EC19F0E552E552E552E5520101E7
:10388000010E406F0101B8D035EC19F0020EF3CFF4
:10389000DBFF030EF4CFDBFF020EDBCF40F1030EA4
:1038A000DBCF01F001C000F0016A00C041F147D058
:1038B0000151050A40E0010A29E0070A23E0010A54
:1038C0000FE0030A01E092D09250200B06E18950EC
:1038D000200B03E18AB211D087D08AA285D086D08E
:1038E00093A003D081B082D07FD09250100B07E11B
:1038F0008950100B04E18AA077D0020E7AD08AA0FA
:1039000073D074D08AA472D0050E73D00101010E59
:103910009C6F8AB603D00101040E0BD08AAA02D094
:10392000010107D089A603D00101030E02D00101D5
:10393000050E406F62D0BBD90FDEE552E5520101A2
:10394000020E5AD00151040A3AE0070A2FE0010A98
:1039500015E0030A4DE10251030A0BE0010A05E0FC
:10396000030A44E193928A9206D093928A82929AB1
:1039700003D093928A82928A899A36D00251060A9B
:1039800012E0050A0BE0010A05E0030A2FE193901B
:103990008A9006D093908A80929803D093908A80E0
:1039A0009288899821D0928893801ED00251050A6E
:1039B00004E0060A1BE18A9417D08A8415D00251CC
:1039C000050A0FE0010A0BE0070A05E0020A0EE112
:1039D0008A868A8A08D08A868A9A898605D08A96B3
:1039E00001D08A868A9A8996010E03D0030E01D0EF
:1039F000030E406F0101010E9C6F01019C510DE00F
:103A000004010CBF08D09CC1E6FF51D996EC21F00F
:103A1000E552E552E55201019C6B080EE15C02E2C1
:103A2000E16AE552E16E14D10ED906D9EFCF9BF1D0
:103A300001019B51320A74E0010A72E0190A6EE03A
:103A4000030A6AE00E0A66E00C0A64E0030A62E018
:103A5000350A5EE0030A5CE0010A5AE03F0A58E0DA
:103A6000010A56E0030A54E0010A52E0070A50E056
:103A7000010A4EE0030A4CE0260A4AE0010A48E047
:103A8000030A44E0010A42E0070A40E0010A3EE07E
:103A9000030A3CE0280A3AE0290A38E00F0A36E037
:103AA000010A34E0030A32E0010A30E0070A2EE09E
:103AB000010A2CE01D0A2AE0020A28E0010A26E099
:103AC000070A24E0010A22E0030A20E0010A1EE0BE
:103AD0000F0A1CE0010A1AE0030A18E0010A16E0C6
:103AE000340A14E0330A12E0280A0EE0180A0CE047
:103AF000010A0AE0230A08E0010A06E01E0A04E0BF
:103B00009B6B030E9A6F0FD09A6B0CD0020E09D0EC
:103B1000030E07D0040E05D0050E03D0060E01D00B
:103B2000070E9A6F010E94D001019D519E1104E180
:103B3000100E9D6F270E9E6F9D07000E9E5B6DA25F
:103B400007D09D519E1120E18B808B828B741200D7
:103B50000101A05102E1010E10D0A00508E0020E03
:103B6000A05D02E1040E09D0030EA05D02E1020E89
:103B700004D0050EA05D03E1040E45EF1EF0060E15
:103B8000A05D02E101019F6B12008150400B01E03A
:103B9000010E0101A65D07E08150400B01E0010E1E
:103BA000A66F81AC010C000C5CD873D8040E00C069
:103BB000DBFF050E01C0DBFF060E02C0DBFF070EB8
:103BC00003C0DBFF05C1E6FF01C1E6FF1200E66EA0
:103BD000D950040FE96EDACFEAFFEECFE6FFEECF61
:103BE000E6FFEECFE6FFEFCFE6FF52EF1EF04DD837
:103BF00002C100F0016A026A036A100E1F0B120074
:103C000003C104F0056A066A076A080E1F0B12005A
:103C1000D8900436053606360736E8061200D890E6
:103C20000036013602360336E8061200030EE66E51
:103C3000020EE66E57EF1EF0FD0EDBCFE9FFFE0E23
:103C4000DBCFEAFF1200D9CFE6FFE1CFD9FF1200A8
:103C5000E552E7CFD9FF1200006E0A0EE15E005078
:103C600012000450001205500112065002120750B3
:103C7000031204C108F0096A0A6A0B6A120094DF91
:103C8000060EE66E010EE7EF1DF0E66EB1DCE552C2
:103C9000120008500012095001120A5002120B5073
:103CA000031212009BC1E6FF9AC1E6FF1200400E0C
:103CB000E66E010EE66E120077DF400EE66E010E34
:043CC000E7EF1DF01D
:0C3CC40004011051600BE842E842E842A5
:103CD000E842E842000901E012001151070A40E001
:103CE0000B0A3EE0070A33E0010A23E00B0A1FE05B
:103CF000020A1DE0030A19E0080A10E0010A0CE0BC
:103D00000F0A08E0030A01E0120010D90101040EB5
:103D1000A06F1200B1EF1EF0E8EF1EF007D901010D
:103D2000A20E8C6F010E8D6F0CD003EF1FF033EFDE
:103D30001FF000D901018C6F8D6BA30E8C27010E33
:103D40008D230101A1930101010E906F1200F2D8A1
:103D5000EA6AA30FE96E010EEA2212C4EFFF120015
:103D60001200800E0401105D32E11351030A1FE0BE
:103D7000010A0AE0030A29E1D9D80101D00E8C6FAB
:103D8000440E8D6F120E1ED0ABD8740EF626450E63
:103D9000B9D8020E0101F76A8C25F66E8D51F72213
:103DA0000900F5CF90F10A00F5CF91F10ED098D827
:103DB000780EF626450EA6D88CC1F6FF8DC1F7FF0A
:103DC0000800F5500101906F916B0101A183120071
:103DD000ADD80F0EE66E710EE66E0F0E9BD8010E7B
:103DE000E66EA30EE66E010E95D812C4A2F1040190
:103DF000125104E10101050EA06F12000101060E2F
:103E0000A06F81EF21F00401186B196B04011051B0
:103E10001F0B020A0DE0030A09E0010A16E186D829
:103E20000101A1A112D0040118830FD07FD80DD0B9
:103E30004BD801E0010E5DD88EC1E9FFEA6EEF506C
:103E4000040B03E00401010E186F01018B050AE168
:103E50000101180E8C6F040E8D6F0101A1930101F9
:103E6000020E906F1200040112050EE110511F0B9B
:103E700000090AE15BD8030E0401115D03E10101B1
:103E8000A18102D00101A191040112511CE1105144
:103E90001F0B020818E114510F0B000914E014D88D
:103EA00001E0010E26D8030E0401115D04E1840E29
:103EB00038D8EF6E120014AF03D033D8EF6A120077
:103EC000880E2FD8EF6E120035D80F0B080DF35067
:103ED000016A000F006E040E01221451800B1200C3
:103EE00025D804011251F66EF76AD890F636F736E7
:103EF0001200040DF350010100248E6F000E01200A
:103F00008F6F1200F7220900F5CF8CF10A00F5CF70
:103F10008DF11200E66E6CEC21F0E552E552E552AF
:103F200012008EC1E9FF8FC1EAFF12000101010EEC
:0C3F30008B6F1200FBDF04011451120023
:043F3C006C5002E0E3
:103F4000000E01D0010E00090BE0040100513C0BF2
:103F5000E842E8420D0802E1B9EF1FF0C8EF1FF098
:103F60006C5002E0000E01D0010E040901E01FD8E0
:103F70001200D9CFE6FFE1CFD9FFE65201018A6BEB
:103F80008B6B906B916B62EC1EF099D8E552F6D07A
:103F9000020E01018A5D09E168D8040100BD02D06A
:103FA000C80E01D0880E006F120098EF20F0040EAA
:103FB0000101A05D09E112C46EFF6E50000802E22B
:103FC000050E01D0030EA06F01018A0509E10AD890
:103FD000040104BD02D0C80E01D0880E046F120087
:103FE00098EF20F0C4D80101080E905D000E9159A1
:103FF00005E290C1DEFF91C1DDFF03D0080EDE6E49
:10400000DD6A040104930491010EDB500413DFCF39
:1040100005F4000EDB500101905F010EDB50915B57
:10402000180E8E6F040E8F6F0101A1A30CD098D8CB
:1040300015E08CC1F6FF8DC1F7FF0800F55080D860
:10404000F6E2DB06F4D78CD809E08CC1E9FF8DC11C
:10405000EAFFEF5075D8F7E2DB06F5D7020EE15C18
:1040600002E2E16AE552E16E89D081D8030E0401D3
:104070000015E76E010EE7CFDBFF01C4DFFFDE5066
:1040800001019027DD509123180E8C6F040E8D6F67
:1040900067D80EE08CC1E9FF8DC1EAFFEF508EC1F9
:1040A000E9FF8FC1EAFFEF6E6DD8F2E2DB06F0D7D1
:1040B000020EE15C02E2E16AE552E16E5FD00101CD
:1040C0008B5105E145D8840E006F04011DD0040119
:1040D00010AF1CD0010190510401165D01019151F6
:1040E0000401175904E216C490F117C491F17ADF64
:1040F0000101010E8A6F2CD8800E006F0401180E8A
:10410000066F040E076FC80E046F10D00101020E77
:104110008A6F0401056BC80E046F0401080E016F5D
:10412000180E026F040E036FC80E006F6D98120018
:1041300001018A6B0DD8880E006F0401046B120018
:104140008EC1E9FF8FC1EAFFEF6E0101C2EF20F0DF
:104150000401080E016F100E026F040E036F1200AF
:10416000D9CFE9FFDACFEAFFEE50ED101200D9CF38
:10417000E6FFE1CFD9FF020EE1261200E552E7CFBC
:10418000D9FF12008E2B000E8F238C2B8D23DF0680
:04419000010E12000A
:0C4194006DA60CD80101A00508E16DBA71
:1041A00006D0686A696A69806988020EA06F120089
:1041B0006D6A696A6D860101010EA06F12006D6A59
:1041C000696A0101A06B1200DFEF20F00101A0512C
:1041D00001E112006850040B04E06950040B01E097
:1041E00038D86DB212006850010B04E06950010B21
:1041F00001E050D86850100B04E06950100B01E04A
:1042000024D86850400B04E06950400B01E037D8D7
:104210006850200B04E06950200B01E032D8685050
:10422000020B04E06950020B01E032D8030E0101D9
:10423000A05D01E212006850080B06E06950080B0F
:1042400003E09EEC1FF068961200698468986D8206
:1042500012006D926994689412000101A1A10ED020
:10426000F8DF6D840101080EA46F070EA56FA40787
:10427000000EA55BA451A511FAE16D941200689C93
:10428000120070A003D098EC20F07090689A120091
:10429000689212006A6A686A9F0E6B6E7B0E696E86
:1042A0006E6A0F0EE66E710EE66E0F0EE66E14D895
:1042B000E552E552E552160E706E68A602D0689679
:1042C000FCD76D9898EC20F00101A1910101A26B3F
:1042D0000101030EA06F1200D9CFE6FFE1CFD9FF95
:1042E000FD0EDBCFE9FFFE0EDBCFEAFFFC0EDB505D
:1042F00004E0EE6AFC0EDB06F9D7E552E7CFD9FF02
:024300001200A9
:0E4302000101A86B1E0E716E0401400E096FC2
:10431000200E0A6F040E0B6F880E086F0401600EEA
:104320000E6F040E0F6F400E0C6F1200D9CFE6FF18
:10433000E1CFD9FFE652FC0EDB50400805E2400E0B
:10434000F36EFC0EF3CFDBFFDF6AFC0EDB50DF5CAD
:104350000FE2DF5050D8EF50E66EDF50EA6A600F90
:10436000E96E040EEA22E552E750EF6EDF2AEDD740
:10437000FC0EDBCF0DF4400E04010C170C7D880EF3
:104380000C13E552E552E7CFD9FF1200D9CFE6FF73
:10439000E1CFD9FF0101A86B040108BF26D0FC0EB4
:1043A000DBCF00F00951D880005403E2FC0E09C4B1
:1043B000DBFF0101A86BFC0EDB50A85D0FE2A851EA
:1043C000EA6A200FE96E040EEA22EF50E66EA85169
:1043D00012D8E552E750EF6EA82BEDD70401400E3E
:1043E000096F0817087D880E08130101A851E552CE
:1043F000E7CFD9FF1200E76EFD0EDBCFE9FFFE0E1F
:0E440000DBCFEAFFE750E926000EEA221200A9
:02440E00DACF03
:10441000E4FFE6529EA00BD00101922B000E9323E5
:1044200094239523D10ECF6E1F0ECE6E9E90F2A4D4
:104430000AD089708950010B02E0899201D08982EB
:10444000440ED66EF294E552E5CFDAFF1100D8CFD4
:10445000E4FFE0CFE4FFE46EDACFE4FFE652E5529A
:10446000E5CFDAFFE550E5CFE0FFE5CFD8FF10005C
:10447000D9CFE6FFE1CFD9FF92C196F193C197F171
:1044800094C198F195C199F1960EE96E010EEA6E0C
:10449000EE500101925D006EEE509359016EEE50A8
:1044A0009459026EEE509559036ED950FB0FE96E88
:1044B000FF0EDA20EA6EEE50005CEE500158EE502E
:1044C0000258EE500358E0E3E552E7CFD9FF12005F
:1044D0001201000200000008D8040E0000000102D2
:1044E00000010902200001010080320904000002DD
:1044F000000000000705010340002007058103407C
:104500000020040309042A03750073006200700090
:1045100069006300700072006F0067002E006F007A
:1045200072006700200020002000200020002000F2
:10453000440375007300620070006900630070003E
:1045400072006F0067002E006F007200670020008D
:10455000200020002000200020002000200020005B
:10456000200020002000200020002000200020004B
:0E45700020002000E244E244024506453045AA
:02457E002A0E03
:10458000F66E080EF76E000EF86E01010900F55088
:10459000856F0900F550866F03E1856701D03DD036
:1045A0000900F550806F0900F550816F0900F55042
:1045B000826F09000900F550E96E0900F550EA6EB6
:1045C000090009000900F550836F0900F550846F58
:1045D00009000900F6CF87F1F7CF88F1F8CF89F10C
:1045E00080C1F6FF81C1F7FF82C1F8FF010183534B
:1045F00002E1845307E00900F550EE6E8307F8E20C
:104600008407F9D787C1F6FF88C1F7FF89C1F8FF92
:0C46100001018507000E865BBFD7120079
:04461C007F6A7E6AC9
:104620007D6A7C6A7B6A7A6A796A786A776A766A6E
:10463000756A746A736A726A716A706A6F6A6E6A9E
:104640006D6A6B6A6A6A696A686A120004D80FD870
:1046500017EC1BF0FCD70F0EC112140E6F6E010188
:10466000A06B0101A16B0101A26BC3EF1AF0CAECB0
:0C46700020F06FBE02D0E6EC20F012003B
:04467C001D6A1C6A2D
:104680001B6A1A6A200EE76ED8901E361F36203637
:1046900021361A361B361C361D3623501A5C245020
:1046A0001B5825501C5826501D5809E323501A5EEC
:1046B00024501B5A25501C5A26501D5A1E2AE72EDC
:0446C000E4D7120029
:0C46C40020C02AF020502502F4CF1FF087
:1046D000F3CF1EF021502602F4CF21F0F3CF20F0CB
:1046E0002502F3501F26F4502022E86A21222A5086
:1046F0002602F3501F26F4502022E86A2122000CE3
:10470000FB0EE3CFF6FFFC0EE3CFF7FFFD0EE3CF8A
:10471000F8FFFE0EE3CFE9FFFF0EE3CFEAFFE9CF9C
:10472000F3FFEACFF4FF0900F5CFEFFFEE66FBD70A
:02473000120075
:0E47320013EE00F023EE00F0F86A199CBFECC5
:0E47400022F0B6EC23F026EC23F0FBD712009B
:02474E00757381
:0D4750006270696370726F67203931350047
:02475E0000EE6B
:0C47600000F00F0EEE6AEA62FDD71200B6
:02476C00120039
:02476E00030046
:04477000000000FF46
:0847740000000000000000003D
:020000040030CA
:0100000021DE
:010001000EF0
:0100020038C5
:010003001EDE
:01000500807A
:010006008079
:01000900C036
:01000B00E014
:00000001FF
