:020000040000FA
:06000000B0EF21F0120038
:060008001EEF20F01200C3
:060018003EEF20F0120093
:06080000B0EF21F0120030
:060808001EEF20F01200BB
:060818003EEF20F012008B
:06082A000200A2430000E1
:1008300072000000080000009C4300007A000000E5
:0408400006000000AE
:0C084400BFEC11F0080EE126ACEC12F045
:10085000FD0EDB502D0A01E12ED23C0A01E123D22C
:100860001E0A01E120D2010A01E11DD2220A01E1A2
:10087000E7D1280A01E150D22A0A01E1B5D1290ABB
:1008800001E1B2D1010A01E1AFD1050A01E1ACD128
:10089000060A01E139D1080A01E12DD1050A01E179
:1008A0002AD10A0A01E127D1120A01E104D1030A7F
:1008B00001E101D1010A01E1FED0190A01E1C7D02D
:1008C000070A01E1C0D0050A01E1BDD0030A01E138
:1008D000BAD0250A01E1B5D0310A01E1A4D01F0A3E
:1008E00001E1A1D0010A01E18ED01D0A50E0340AD5
:1008F00001E00DD2E3EC14F068EC12F013EC15F00B
:10090000670EC4EC13F0E66A8CEC12F058EC11F0B0
:10091000EAEC10F0020E5DEC11F01FE2860EFEEC28
:1009200013F0BB0EFDEC14F0580EE66E050E83ECD2
:1009300012F0A90EE66E0A0E83EC12F0380E73EC7C
:1009400012F01AEC15F0C90E5AEC10F07FEC14F00E
:10095000B3EC11F0DDE3DB2ADBD7FA0EE66E070E0F
:10096000E66E240EFDEC14F00A0E73EC12F00AECA5
:1009700014F0030E5AEC10F077EC11F0A90EFDEC18
:1009800014F0E66AE66AE66A65EC13F091D1040EAB
:100990009BEC12F0830E7BEC12F0880E7BEC12F0D5
:1009A000890E7BEC12F08A0E7BEC12F0060E9BECAB
:1009B00012F020EC15F0E66AE66A200EE66EE66AB2
:1009C000B1EC10F0A60EE66E840E6FEC12F0A60EDF
:1009D000E66E880E6FEC12F031EC15F0A60EE66EA6
:1009E000820E6FEC12F072EC14F05EEC10F010EC72
:1009F00015F0A60EE66E940EE66EE66A040EE66E3E
:100A0000B9EC17F055D1050E9BEC12F03F0EE66ED7
:100A1000E66E0C0E9FEC14F0040E9BEC12F08F0EA1
:100A2000E66EE66E06D0040E9BEC12F0800EE66ECB
:100A3000E66A0C0E9FEC14F072EC14F0C9EC13F0A3
:100A40005FD0F2EC12F046EC15F01E0E2FD161ECE7
:100A500011F09DEC0DF052EC12F086EC14F0070E44
:100A6000DB50310B006E310E005C07E3060EDB50ED
:100A7000300B016E300E015C12E261EC12F0E66A9E
:100A800076EC10F058EC11F0EAEC10F0070E5DEC8B
:100A900011F00FE22DEC14F0F7E3DB2AF5D732EC7E
:100AA00013F05DEC14F061EC12F0030EE66E76ECE0
:100AB00010F05DEC14F0F2EC12F0FD0EDB50120AB7
:100AC0000DE158EC11F0EAEC10F0080E5DEC11F0BD
:100AD00005E22DEC14F0F7E3DB2AF5D746EC15F030
:100AE000060E5AEC10F086EC14F00B0E6BEC12F0C4
:100AF000060E5AEC10F0F2EC12F01F0E7DEC13F023
:100B0000E552E5520A0ED2D058EC11F0EAEC10F0A2
:100B1000FF0E005C030E015805E22DEC14F0F6E325
:100B2000DB2AF4D789EC10F057EC12F0F2EC12F05B
:100B300058EC11F0EAEC10F0070E5DEC11F005E254
:100B40002DEC14F0F7E3DB2AF5D789EC10F0F3CFA6
:100B500000F0F4CF01F0000E0016300E0116020E68
:100B600000C0DBFF030E01C0DBFFF2EC12F0090E48
:100B70003DEC14F00B0E3DEC14F0FDEC12F010EC1B
:100B800015F02BEC11F0FF0E0016000E0116060EEC
:100B900000C0DBFF2BEC11F001C000F0016AFF0E7A
:100BA0000016000E0116070E00C0DBFF1FEC13F04D
:100BB000E668030E53EC13F0BAD852EC12F0060EAE
:100BC000DB68D1EC12F001C000F0016A0F0E0012D8
:100BD000000E0112070E00C0DBFF61EC11F0CDEC3E
:100BE0000BF052EC12F098D0FD0EDB50070807E135
:100BF00032EC13F046EC15F0080E3DEC14F0F2EC7C
:100C000012F032EC13F0FD0EDB50070803E1080E82
:100C10006BEC12F046EC15F00A0EEFEC13F02E0818
:100C200001E17AD00B0E6BEC12F0FD0EDB500708E1
:100C300003E1080E6BEC12F010EC15F08A906CD00A
:100C400058EC11F0EAEC10F0FF0E5DEC11F005E24B
:100C50002DEC14F0F7E3DB2AF5D7D0EC13F095EC8C
:100C600013F005E22DEC14F0FAE3DB2AF8D7E6ECFA
:100C700014F0EAEC10F0FF0E5DEC11F005E22DEC43
:100C800014F0F7E3DB2AF5D7F0EC14F095EC13F051
:100C900005E22DEC14F0FAE3DB2AF8D700EC15F0AE
:100CA00009EC15F003D046EC15F0140EC5EC14F069
:100CB000D2EC14F031D058EC11F0D4EC13F005E282
:100CC0002DEC14F0FAE3DB2AF8D7D0EC13F095EC16
:100CD00013F005E22DEC14F0FAE3DB2AF8D7E6EC8A
:100CE00014F0D4EC13F005E22DEC14F0FAE3DB2A57
:100CF000F8D7F0EC14F095EC13F005E22DEC14F0BD
:100D0000FAE3DB2AF8D700EC15F016EC14F08A9021
:100D1000FDEC12F0030E03D0FDEC12F0010E006E9C
:100D2000080EE15C02E2E16AE5527CEF11F0F3ECBF
:100D300013F0F50EDBA002D0ACEC12F0FD0EDB5090
:100D40000E0A01E1F9D2010A01E1F6D21E0A01E11F
:100D5000F3D23D0A01E1F0D2010A01E1EDD23E0AEF
:100D600001E1BBD2110A01E1B8D2120A01E167D256
:100D70003F0A01E164D2220A01E161D21F0A01E1C6
:100D80005ED21A0A01E15BD20E0A01E158D20A0AC8
:100D900001E11FD2050A01E11CD2030A01E119D2C7
:100DA000010A01E198D10C0A01E195D1040A01E19F
:100DB00092D1070A01E18FD1010A01E18CD12B0AFE
:100DC00001E189D1330A01E10FD1030A01E10CD11C
:100DD0001F0A01E109D1010A01E1C4D0290A04E096
:100DE000FDEC12F0030E10D3E3EC14F040EC15F020
:100DF0001A0E30EC14F0040EDB6AA1EC10F0E8AE31
:100E000002D0E73402D0E750005C01E398D0006ADA
:100E100072EC11F0040EF6EC11F008AE03D0096884
:100E20000A680B682AEC13F036EC12F0CFEC11F0E4
:100E3000FDE1D7EC14F0070E006E72EC11F0040E19
:100E4000F6EC11F008AE03D009680A680B682AECCA
:100E500013F0E7EC11F003E01DEC11F0FDE1F5EC0F
:100E600012F0DE6ADD6A2BEC11F002EC14F05CE2A9
:100E7000006A72EC11F002EC12F00ABE0B689AECF8
:100E800011F00A501E24086E0B501F20096ED6EC7C
:100E900010F003E01DEC11F0FDE1A8EC10F0040EE1
:100EA000DBCF12F0136A12BE13689AEC11F01250E5
:100EB0001E24106E13501F20116E010E1026000EFE
:100EC0001122F70EDB5010244FEC13F01120EA6EC4
:100ED000EFCF0CF00D6A0E6A0F6A0C0E1F0B07E0C5
:100EE000D8900C360D360E360F36E806F9E10C5068
:100EF00000120D5001120E5002120F500312DECFDD
:100F000014F0DDCF15F0166A176A14500012155050
:100F10000112165002121750031274EC10F0DF2A5F
:100F2000010EA1E3DB2A9FD7E66A8CEC12F046ECB7
:100F300014F046EC14F00C0E97EC10F05ED70AECAF
:100F400014F0030E5AEC10F0E3EC14F07FEC14F004
:100F5000E66A010EE66E040EE66E65EC13F0E552ED
:100F6000E5523FD020EC15F090EC10F011EC12F0AF
:100F7000EECFE6FFEFCFE6FFB1EC10F0040EDB6A38
:100F8000DBCF00F0F60EDB50FE0FE76E0018E8AE88
:100F900002D0E73402D0E750005C11E2010E30ECE1
:100FA00011F008BE096840EC11F002BE0368DAECEB
:100FB00014F00D0E9FEC14F0A0EC13F0E1D7010E2D
:100FC00030EC11F008BE096840EC11F002BE036875
:100FD0008CEC10F0BCEC12F0000EE66EE66A43EC0E
:100FE00017F0E552E55208D28BEC14F0060E9BEC9C
:100FF00012F0000EE66EE66A0C0E9FEC14F020EC88
:1010000015F0C9EC12F0040EDB6AA1EC10F0E8AEAA
:1010100002D0E73402D0E750005C01E3EDD1DE6A94
:10102000DD6A2BEC11F002EC14F037E2010EE76EF2
:10103000F70EDBCF0AF0F80EDBCF0BF0E7500A26F5
:10104000000E0B22040EDBCF0CF00D6A0CBE0D68F7
:101050000A500C24086E0B500D20096EDE50082437
:10106000E96EDD501BEC13F004BE0568F70EDB5093
:101070000424026EF80EDB500520036EDE500224BD
:10108000E96EDD500320EA6EEF504FEC11F00D0ECB
:101090009FEC14F016EC12F0C4D7070E30EC11F0F0
:1010A00008BE096840EC11F002BE0368BEEC14F003
:1010B000060EE926000EEA22EF50BCEC12F0B7EC67
:1010C00011F0090E6AEC11F0090E6AEC11F0080E2D
:1010D00097EC10F09AD7F50EDB50010B07E090EC7F
:1010E00010F0DDEC11F002E2C9EC12F0040EDB6A44
:1010F000A1EC10F0E8AE02D0E73402D0E750005C7B
:1011000001E37AD11BEC12F006BE0768BAEC14F0CA
:1011100002BE03680EEC13F0FD0EDB502E0A06E152
:10112000180E3DEC14F03DEC12F002D094EC14F0EB
:10113000E552E55298EC13F008BE096883EC10F014
:1011400004BE0568F8EC10F002E1035001183EE01F
:101150009CEC14F010EC15F0040EDB407F0B006EDD
:10116000016A026A036A00AE03D00168026803687C
:1011700000EC13F01BEC12F006BE0768BAEC14F09A
:1011800002BE03680EEC13F0FD0EDB502E0A06E1E2
:10119000180E3DEC14F03DEC12F002D094EC14F07B
:1011A000E552E55298EC13F008BE096883EC10F0A4
:1011B00004BE0568F8EC10F002E10350011806E0E7
:1011C00040EC12F003E1ED5001E10CD143EC15F0DD
:1011D0008FD7040EDB6AA1EC10F0E8AE02D0E73442
:1011E00002D0E750005C01E307D1DE6ADD6A82ECE1
:1011F00013F012E202EC12F00ABE0B68B0EC12F02F
:1012000004BE05688FEC12F002EC14F002E277ECF9
:1012100012F016EC12F0EBD7080E6BEC12F0010E88
:101220004CEC13F06BEC12F077EC12F0040EDBCF09
:10123000E7FFE850E726040EE7CFDBFFCCD7040E2C
:10124000DB6AA1EC10F0E8AE02D0E73402D0E75040
:10125000005C01E3D1D0DE6ADD6A2BEC11F0080EF0
:101260005DEC11F012E202EC12F00ABE0B68B0EC79
:1012700012F004BE05688FEC12F002EC14F002E2EA
:1012800077EC12F016EC12F0E8D7FD0EDB50060AF0
:1012900010E0290A07E03F0A0FE1180E3DEC14F0B8
:1012A0000A0E11D0180E6BEC12F00A0E4CEC13F073
:1012B0000AD094EC14F009D0180E6BEC12F0020E68
:1012C0005AEC10F0170E7DEC13F0E552E55277EC76
:1012D00012F0080E97EC10F0B4D7040EDB6AA1EC04
:1012E00010F0E8AE02D0E73402D0E750005C01E332
:1012F00083D0DE6ADD6A2BEC11F0100E5DEC11F08C
:1013000013E202EC12F00ABE0B68B0EC12F004BE5D
:1013100005688FEC12F00E0E5DEC11F002E277EC36
:1013200012F016EC12F0E7D736EC15F077EC12F06D
:10133000100E97EC10F0D3D7F50EDBA002D077ECAF
:1013400012F0040EDB6AA1EC10F0E8AE02D0E73434
:1013500002D0E750005C50E21BEC12F006BE0768BA
:10136000BAEC14F002BE03680EEC13F016EC14F0A5
:1013700098EC13F008BE096883EC10F004BE056811
:10138000F8EC10F002E10350011833E0DE6ADD6A88
:101390002BEC11F00A0E5DEC11F02BE21BEC12F0BD
:1013A00006BE0768BAEC14F002BE03688CEC10F0BD
:1013B000A3EC13F0020E83EC14F016EC14F098EC8E
:1013C00013F008BE096883EC10F004BE0568F8EC61
:1013D00010F002E1035001180CE040EC12F004E1BF
:1013E000ED5002E1040E10D0DF2A010ED1E3DB2A1A
:1013F000CFD743EC15F0A7D7F50EDBA204D0FDEC58
:1014000012F0010E01D0020E006E050EE15C02E248
:10141000E16AE5527CEF11F0F3EC13F0F50EDBA07E
:1014200002D0ACEC12F0FD0EDB502C0811E0FD0EEA
:10143000DB502D080DE0FE0EDB50020A01E15ED10B
:10144000010A01E1E2D0060A05E0E66A68EC10F064
:10145000030E9BD1E3EC14F040EC15F05A0E30EC87
:1014600014F0020EDB6AA1EC10F0E8AE02D0E73413
:1014700002D0E750005C01E3BCD0F00EE66E070E30
:10148000B7EC14F0070E006E016A2F0E026E036AAD
:10149000020EF6EC11F008AE03D009680A680B687A
:1014A00090EC10F0A3EC11F00B50EE200F0E05168F
:1014B0009BEC13F003E01DEC11F0FDE1F5EC12F0F4
:1014C000006A72EC11F0020EDBCF08F0096A08BE68
:1014D0000968D6EC10F003E01DEC11F0FDE1A8EC7A
:1014E00010F0020EDB280E6E0F6A0EBE0F680CECB9
:1014F00011F003E0ACEC11F0FDE1A2EC12F0010EF2
:1015000086EC13F0020F086E096A08BE0968D6EC73
:1015100010F003E01DEC11F0FDE1F7EC13F0030F08
:101520000E6E0F6A0EBE0F680CEC11F003E0ACEC0F
:1015300011F0FDE1A2EC12F0020E86EC13F0040FA4
:10154000086E096A08BE0968D6EC10F003E01DECCD
:1015500011F0FDE1F7EC13F0050F0E6E0F6A0EBEF1
:101560000F680CEC11F003E0ACEC11F0FDE1A2EC23
:1015700012F0030E86EC13F0060F086E096A08BE1F
:101580000968D6EC10F003E01DEC11F0FDE1F7EC7A
:1015900013F0070F0E6E0F6A0EBE0F680CEC11F001
:1015A00003E0ACEC11F0FDE1A2EC12F0E66A8CEC89
:1015B00012F0030EDB6ADBCF00F0040EE76E0018BA
:1015C000E8AE02D0E73402D0E750005C07E2D6EC88
:1015D00011F02EEC15F0030EDB2AEDD7080E006E8D
:1015E000020EDBCFE7FF0050E726020EE7CFDBFF5E
:1015F0003AD70AEC14F0020E5AEC10F0E3EC14F0B7
:101600007FEC14F068EC12F0B8D0A60EE66E9E0ED9
:1016100040EC14F0020EDB6AA1EC10F0E8AE02D050
:10162000E73402D0E750005C01E3A7D0020EDBCF25
:1016300004F0056A04BE056850EC14F0020EDBCF1E
:1016400004F0056A04BE056819EC14F0020EDBCF45
:1016500002F0036A02BE03688CEC10F0006E016AAF
:10166000E8500E0E011200C0E6FF12EC13F0A80EB7
:10167000F9EC14F0A60EE66E840E6FEC12F0FD0E7F
:10168000DB0402E131EC15F0A60EE66E820E6FEC83
:1016900012F0E1EC10F0A60E78EC14F0E76E040EF8
:1016A000E7CFDBFFDB50020B02081DE1760EE96E8F
:1016B000000EEA6EEE500001725D006EEE5073593E
:1016C000016EEE507459026EEE507559036ED8904B
:1016D000E850000A07E6050E5DEC11F0000E025816
:1016E000000E0358D8E3010E5AEC10F0A60EE66E79
:1016F000940E6FEC12F0020EDB2A8ED7020EDB6A1C
:10170000A1EC10F0E8AE02D0E73402D0E750005C64
:1017100034E2020EDBCF00F0016A00BE01687CEC0F
:1017200010F0EF50E66EE66A030E83EC14F0FD0E47
:10173000DB50100A08E0150A06E0080A04E0050A72
:1017400002E01A0A02E1180E01D0080E6BEC12F04A
:10175000080EEFEC13F0100A08E0150A06E0170A6D
:1017600004E01A0A05E1170E01D00A0E6BEC12F024
:1017700077EC12F0020EDB2AC3D7F50EDBA204D001
:10178000FDEC12F0010E01D0020E006E050EE15CC0
:1017900002E2E16AE5527CEF11F0BFEC11F0030EBA
:1017A000E126F50EDBA002D0ACEC12F0FD0EDB5012
:1017B0000E0A01E199D1010A01E196D11E0A01E167
:1017C00093D13D0A01E190D1010A01E18DD1280AAE
:1017D00001E11CD1150A01E119D11D0A01E116D15F
:1017E0001E0A01E113D13C0A01E110D1230A01E1F3
:1017F0000DD1050A01E10AD1030A01E107D1010A6D
:1018000001E104D1190A01E101D11A0A01E1FED076
:101810000F0A01E1FBD0050A01E1F8D0040A01E159
:10182000F5D0050A01E1F2D0070A01E1EFD02A0A5A
:1018300001E1ECD0330A61E0030A5FE01F0A5DE0DA
:10184000010A5BE0290A04E0FDEC12F0030E6DD101
:10185000F50EDB50010B010807E1E3EC14F040EC5E
:1018600015F0070EC4EC13F00001896B5CEC12F06C
:10187000E8AE02D0E73402D0E750895D01E34DD1F4
:1018800013EC15F000018929066E076A06BE076889
:101890008BEC13F002BE03688CEC10F00001041016
:1018A000006E47EC12F0060E006E72EC11F0010EA5
:1018B000DBCF04F0020EDBCF05F0066A076A9BEC73
:1018C00013F003E01DEC11F0FDE1F5EC12F005EC76
:1018D00014F0860EFEEC13F02EEC15F00AEC14F06A
:1018E000020E5AEC10F0E3EC14F07FEC14F068EC0C
:1018F00012F0020E00018927B9D78BEC14F0FD0E0F
:10190000DB0408E1E66AEF0E6FEC12F0E66AF80E0F
:101910006FEC12F00001896B5CEC12F0E8AE02D0C3
:10192000E73402D0E750895D01E3F7D089C000F0C9
:10193000016A00BE0168026A036A00EC13F089C004
:1019400006F0076A06BE07688BEC13F002BE036858
:10195000DAEC14F0C5EC12F0FD0EDB0405E1F60E36
:10196000E66E2A0E6FEC12F089C004F0056A04BE20
:10197000056817EC13F0FCEC11F0016EEE50062038
:10198000026EEE500720036E002A000E0122022292
:1019900048EC11F0086E050EE15E0850010EE76E8E
:1019A000F70EDBCF08F0F80EDBCF09F0E750082682
:1019B000000E092289C00AF00B6A0ABE0B680850A3
:1019C0000A24E96E09500B20CBEC14F0010EE76EEF
:1019D000F70EDBCF02F0F80EDBCF03F0E750022664
:1019E000000E032289C004F0056A04BE0568025097
:1019F0000424E96E03500520EA6EEF504FEC11F01D
:101A0000C5EC12F0020E0001892786D7F50EDBA087
:101A100014D0F2EC12F0DF6ADFCF00F0F90EDB50E9
:101A2000E76E0018E8AE02D0E73402D0E750005C61
:101A300004E277EC12F0DF2AEFD70001896B5CEC4F
:101A400012F0E8AE02D0E73402D0E750895D65E2DB
:101A50002AEC12F0006E040EE76E0018E8AE02D019
:101A6000E73402D0E750005C04E32AEC12F00708E8
:101A700035E18929066E076A06BE07688BEC13F00C
:101A800002BE036849DB00010410006E05C001F0CE
:101A900047EC12F05DEC13F0FD0EDB50100A04E091
:101AA0003F0A02E0010A03E1180E6BEC12F0080E87
:101AB0006BEC12F00A0EEFEC13F0100A0CE03E0A89
:101AC0000AE0010A06E0230A04E0050A02E0030A2C
:101AD00005E10E0E01D00A0E6BEC12F077EC12F05D
:101AE000020E00018927ABD76CEC13F0EFCF02F0A8
:101AF00002C003F0026A82EC11F0EF500001021004
:101B0000006E03C001F0010E00C0DBFF020E03C037
:101B1000DBFF5DEC13F016EC14F0F50EDBA204D045
:101B2000FDEC12F0010E01D0020E006E030EE15C1E
:101B300002E2E16AE5527CEF11F0BFEC11F0070E12
:101B4000E126DE6ADD6A040EDB6AF50EDBA002D058
:101B5000ACEC12F0FE0EDB5001E131D1020A01E1E2
:101B6000D9D0010A01E1BED0060A01E082D1D8DA5B
:101B7000000EEE5C000EEE58F80EEE58000EEE5819
:101B800053E3F50EDBA01AD0E3EC14F068EC12F08E
:101B9000006AA8DB046A056A0668076AC1DAEDEC28
:101BA00011F00C0ECFEC11F0FDE1D7EC14F0E66A69
:101BB000AAEC14F0800EE66E8CEC12F0040EDB6AD8
:101BC000C0DAE8AE02D0E73402D0E750005C01E3AF
:101BD00062D107EC12F025EC15F0200EE66E3C0EFB
:101BE000AEEC14F005EC14F09FEC18F03DEC13F0A3
:101BF00090DB00BE016849EC13F0DBCF02F0060E6B
:101C0000DBCF03F0000E0216FF0E0316B0EC13F04C
:101C100000BE016871DA02C0EFFF05EC14F068EC59
:101C200012F0A0EC13F0CCD7E3EC14F068EC12F057
:101C3000006AD8EC12F036EC12F0B1DBFEE1D7EC22
:101C400014F0060E006ED8EC12F0C1DB02E0F5DAFB
:101C5000FEE1F5EC12F0800EE66EAAEC14F061ECF9
:101C600014F0A4DB25EC15F061EC14F0D0DB25ECCE
:101C700015F020EC12F0D1EC12F002EC14F02FE28F
:101C8000D1EC12F0E7EC12F0050EF3CFDBFF060EFD
:101C90004EEC12F002BE036841DB49EC13F0DBCFDF
:101CA00004F0060EDBCF05F0000E0416FF0E05163D
:101CB00005C004F0056AF8EC12F002BE03682EDBE2
:101CC000010E0026000E012217DA04C0EFFF05EC1A
:101CD00014F0020EDB2A030ECEE3DB2ACCD768EC2D
:101CE00012F0D9D0C9EC12F0040EDB6A2ADAE8AEA1
:101CF00002D0E73402D0E750005C01E3CCD0090EFB
:101D0000E9DAE66E06DB00BE016890EC13F0040E23
:101D1000DB2AECD705DA000EEE5C200EEE58000E42
:101D2000EE58000EEE5828E3F2EC12F0F50EDBA0B0
:101D30000DD086DBCCDA000E025E200E035A85DB66
:101D400005E2B2EC14F0F6E3DB2AF4D7040EDB6A0A
:101D5000F8D9E8AE02D0E73402D0E750005C01E3E6
:101D60009AD0FBEC13F000BE016844EC13F000BE07
:101D7000016899EC14F0ECD7F50EDBA00AD0C9D9B4
:101D80005FDBA5DA62DB05E2B2EC14F0FAE3DB2AF2
:101D9000F8D7040EDB6AD5D9E8AE02D0E73402D01A
:101DA000E750005C01E377D0FBEC13F000BE016864
:101DB00044EC13F000BE016899EC14F0ECD7FD0E72
:101DC000DB500F0A0EE01E0A0CE03C0A07E0230A73
:101DD00005E0220A09E1DE68010E05D0DE68030E87
:101DE00002D0DE680F0EDD6E36DA026A036A98D919
:101DF000EE5000181BE1EE50011818E1EE500218E9
:101E000015E1EE50031812E111E183D93DEC13F016
:101E1000050E060EDBCF01F001C000F0016A6CEC8C
:101E200013F000C0EFFF6EDA1DDB23D0F50EDBA050
:101E30000BD05DDB6ED904DB4ADA07DB05E2B2ECDE
:101E400014F0FAE3DB2AF8D7040EDB6A7AD9E8AE9D
:101E500002D0E73402D0E750005C0BE2FBEC13F059
:101E600000BE016844EC13F000BE016899EC14F068
:101E7000EDD7040EDB6A65D9E8AE02D0E73402D0B4
:101E8000E750005C08E245DA00BE016835D9EF6A28
:101E9000040EDB2AF0D7F50EDBA202D0E66A18D9D1
:101EA000070EE15C02E2E16AE552E16EE552E7CF3E
:101EB000D9FF1200F3EC13F0040EDB6AF50EDBB071
:101EC0004BDBFE0EDB50020A01E1A8D0010A01E162
:101ED0007BD0060A01E0CDD0E3EC14F0F9DAF00E85
:101EE000E66E070EB7EC14F0060E006E016A2F0EB8
:101EF000026E036A04680F0E056E99DB6EDA040E3B
:101F00001F0B02E09AD9FEE170DB040EDB6A19D9DF
:101F1000E8AE02D0E73402D0E750005C01E3BBD06A
:101F2000800EE66EF9DADE6ADD6AECDB08E23EDAA4
:101F300025EC15F0DF2A010EF8E3DB2AF6D7DE6A7E
:101F4000DD6AE0DB3DE287D942DB020EF3CFDBFF47
:101F5000030EA4DA02BE0368EDD9DAEC13F0CCD894
:101F6000020EDBCFEFFFDBCF06F0030EDBCF07F077
:101F7000000E0616FF0E071607C006F0076A38DBCC
:101F800002BE0368DECF04F0DDCF05F0010ED8906D
:101F900004360536E806FBE1010E0426000E052294
:101FA00002500424006E03500520016EA5D806C01F
:101FB000EFFF05EC14F0DF2A010EC3E3DB2AC1D7E3
:101FC00087DA080EB4D8A3D7A60EE66E9E0E40ECB4
:101FD00014F0040EDB6AB5D8E8AE02D0E73402D0C4
:101FE000E750005C58E2DEEC14F004BE056850ECEB
:101FF00014F0DEEC14F004BE056819EC14F0A60E23
:10200000E66E800E6CDAA80E78EC14F0E66E81D9DC
:1020100000BE016885DB040EDB2ADDD7F50EDB5040
:10202000010B14E07DD8C9D911E2B4D96BD9E552BE
:10203000E750EF6EDE6ADD6A0ED9C3DB06DA06E230
:1020400056DADF2A010EF8E3DB2AF6D7040EDB6A44
:1020500078D8E8AE02D0E73402D0E750005C1BE24B
:1020600099D957D900BE01685BDB41DA040EDB2A3F
:10207000EFD7040EDB6A65D8E8AE02D0E73402D0B1
:10208000E750005C08E245D900BE016835D8EF6A28
:10209000040EDB2AF0D7F50EDBA202D0E66A18D8D0
:1020A000000E006E050EE15C02E2E16AE55224D109
:1020B000E66A5ED366DAE552E55212006ADBE55263
:1020C000E5521200E66E02EC17F0E552E5521200FE
:1020D000FE0EDBCFE6FFFD0EDBCFE6FF49EC15F091
:1020E000E552E552E5521200FFDA42D3060EE66EE3
:1020F000BCEC17F0D2EF14F0F70EDB500024CFDA6F
:102100000120EA6E1200F70EDB500824C8DA1BEF3C
:1021100013F0040EBCEF13F0BEEC14F0EF501200FD
:10212000D950F90FE96EFF0EDA20EA6E1200006E48
:10213000040EDBCFE7FF0050E726040EE7CFDBFFFE
:102140001200DBCF00F0F60EDB50E76E0018120035
:1021500004500012055001120650021207500312DB
:102160001200FE0EDBCFE6FF98EC16F0006E050EB7
:10217000E15E00501200F70EDB50062490DA0720D3
:10218000E8EF13F0D8900436053606360736030E0E
:10219000236E246A256A266A04C01EF005C01FF05B
:1021A00006C020F007C021F055EF21F0F70EDB50FC
:1021B000082475DA0920EA6EEFCF04F0056A9BEF78
:1021C00013F072C076F073C077F074C078F075C009
:1021D00079F01200040EDBCF00F0050EDBCF01F02A
:1021E000120044DADED9040EDB28086E096A1200F8
:1021F000F70EDB50042453DA0520EA6EEF5000019D
:102200000610026E07C003F0E85000181200000E1E
:10221000E66EE66AE66A1200F70EDB500E243FDA3D
:102220000F20EA6EEFCF0AF00B6A0C6A0D6A0C0EF3
:102230001F0B12000001A3EF13F0D89004360536EF
:1022400006360736E806120018DA050E060EDBCF52
:1022500003F0B0EF13F0DECF00F0DDCF01F012009D
:10226000E76EF70EDBCF06F0F80EDBCF07F0E75096
:102270000626000E0722040EDBCF08F0096A1200C2
:1022800006500824E96E07500920A2DAF8EF12F090
:1022900003222ADAFE0EDBCFE6FF98EF16F00001EC
:1022A0000610006E07C001F0E66E07C0E6FF1200E0
:1022B000040EDB6A050EDB6A1200005C000E01589A
:1022C0001200BDD9070EE66E200E53EF13F069D948
:1022D000E1EF13F0E66E040EE66E2FEC18F0E55217
:1022E000E5521200016A200E026E036A1200610EAE
:1022F000E66EE70EE66E1200E16E0050E552E7CFA3
:10230000D9FF1200F70EDBCFE9FFF80EDBCFEAFFB3
:102310001200040EDBCF00F0016A1200020E206EE4
:10232000216ADBCF25F0030EDBCF26F079EC21F01C
:10233000DAEF13F0020E206E216ADECF25F0DDCF3A
:1023400026F079EF21F00850EE24046E0950EE20BB
:10235000056E0A50EE201200D8900A360B360C3665
:102360000D36E8061200040EDB2A050E1200000EE0
:10237000E66EE66A43EC17F0E552E5521200D9CF5B
:10238000E6FFE1CFD9FF1200016A026A036A0E0E6E
:1023900001121200050EF0D9F350E66E1200D8902B
:1023A0000732063205320432E8061200B60EFEEF9E
:1023B00013F0E66EEB0EE66E1200D880000EEE54BF
:1023C000000EEE54000EEE54000EEE5412001EC02D
:1023D00004F01FC005F09BEF13F0EE500416EE5012
:1023E0000516EE500616EE5007161200DBCF08F069
:1023F000096A0A6A0B6A1200EE500424006EEE505D
:1024000005201200040EDBCF0AF00B6A1200B60E94
:10241000E66E0B0EE66E1200B60EE66EDB0EE66E94
:102420001200EECFE6FFEECFE6FF1200020EDE2630
:10243000000EDD221200040EDB28066E076A120071
:10244000020EDB6A030EDB6A12000250005C0350CE
:1024500001581200F90EDBCFE6FF89417F0BE552F0
:10246000E7241200050EDBCFEFFF120020C006F0BC
:10247000046A056A076A0C0E12000A0E7DEF13F05B
:10248000D9CFE9FFDACFEAFF090EEE181200010EEC
:1024900000C0DBFF020E05C0DBFF1200F4CFDBFF44
:1024A000F8EF12F0006E0A0EE15E00501200F3CF5A
:1024B000DEFFF4CFDDFF1200F60EDB50E76E891968
:1024C0001200E6683F0EE66E120097DAE3EF14F0B2
:1024D00003DA05EF14F0E66E060E62EF10F0E66E1A
:1024E000E66A5EEF10F0E66E3B0EAEEF14F0060EFD
:1024F000E66E62EF10F0E66EE66A0C0E20DAF2D9B4
:10250000DDDD10EF15F0E66E200EFDEF14F0900EFD
:10251000E66E010EAEEF14F01DDA05EF14F0DE509A
:102520000424026EDD500520036EF6DDB8DE020ED7
:10253000EAD92BEF11F0E66EE66A3C0EE66EE66A2B
:10254000B1EF10F00A5000120B5001120C500212A1
:102550000D50031274EF10F0010EE66E68EF10F0EC
:10256000DE500A24086EDD500B20096E010E08268D
:10257000000E092283EF10F05DDE6ADA22DEA2EFA0
:1025800014F003DAE552E552120062DADBD9B7EF54
:1025900011F0C6DDEECFE6FF44DFEFCFE6FFB1EF8F
:1025A00010F0020EDBCF00F0030EDBCF01F01200C3
:1025B00099DEF90EDBCF04F0FA0EDBCF05F0FB0E4F
:1025C000DBCF06F0FC0EDBCF07F0C2EF10F0026AA3
:1025D000036A008A3C0E0112880E021285DD15D9AD
:1025E0009FEF18F014DE76EF10F0B2DD74EF10F00C
:1025F000040EDBCF02F0036A1200E66A68EF10F007
:102600008FDDEE500026EE500122EE500222EE50F9
:102610003FDE046E050EE15E04501200CBD9020EBF
:1026200083EF14F001C0E6FFE66A5EEF10F0066A81
:10263000076A90EF10F00920AED9DEEF14F0030E18
:10264000E66E020EE66ED950060FE66E000EDA2038
:10265000E66E120065DD77DE066E0B50EE20076E2B
:10266000C2EF10F02EDF020E83EF14F0020EF3CF54
:10267000DBFF030EF4CFDBFF1200050EF3CFDBFF11
:10268000060EF4CFDBFF120037DD02C0EFFF89EF4B
:1026900011F032DD32EF12F00DDD0E0E1200E96E98
:1026A000F80EDB501200E66EE66AE66AFD0EDBCF3E
:1026B000E6FFFE0EDBCFE6FF1200010EDBCFE6FFEA
:1026C000020EDBCFE6FF83EF14F0F2DCE66AE66A87
:1026D000E66AE66A13EF19F0010EE76E13DEE750C3
:1026E000E926000EEA22120000C0E6FF01C0E6FF64
:1026F00002C0E6FF03C0E6FF1200E66E060EE66EBD
:1027000002EF17F0A8DD040E5DEF11F0006EEADDB8
:10271000020EDB5012002FDD89C002F0036A1200A6
:10272000EBDCE552E750EF6E120054DD5DEF11F087
:10273000F0DCF1EF10F0066A076A040E1F0B1200BE
:10274000020E97EF10F00410006E05C001F0E66E67
:1027500005C0E6FF12005BDDB1DC020E6AEF11F08E
:1027600003C002F0036A040EDB28006E016A120047
:1027700013EC19F0D2EF14F0E66E060EE66EBFEC25
:1027800017F0E552E5521200E66EE66A200EFDEF04
:1027900014F0040EE66EB9EC17F0E552E5521200A3
:1027A000B8DC85DE58EF11F015DDFF0E005C010E80
:1027B0000158120002501E24006E03501F20016EAB
:1027C0001200F90EDBCF02F0FA0EDBCF03F012009D
:1027D000EA6EEFCF04F004C005F0046A12006ADC70
:1027E000FD0EDB501200CBDD050EE1261200B0DC41
:1027F000020EDB5012008DDC24EF11F0E66E1B0E92
:10280000E66E1200060E5DEF11F0E66AE66AE66A11
:1028100058EF10F0580EE66E050E75DE380E63DECA
:10282000A90EE66E0A0E6FDE1AEF15F0F2D85AEF17
:1028300010F0FDDEEE500426EE500522EE5006228A
:10284000EE50072205C000F00001036A9DDD05C0BF
:10285000E6FFE8DEAA0EF9EF14F049DEB3EF11F05F
:10286000E66EE66A240EC9D80A0E73EF12F0E66E21
:102870000E0E35DEA70EF9EF14F02DDE10EF15F079
:102880002EDEA60EE66E9C0E6FEF12F0C0DDE6D8CF
:10289000C3DDE4D8B60E8DDDE1D888DD2EEF15F06E
:1028A000C6DEAADDEE500620EE5007206DDD00C02A
:1028B000E6FFB8DEA90EF9EF14F0DDD8D7D83BEF6C
:1028C00015F0960E9BDFC1D8A7DDBFD8D60EE66EF9
:1028D000DB0EE66E25EF15F0E66A010EE66E040EDD
:1028E000FDEF14F094DC5EEC10F06BDC07EF11F000
:1028F000E66E500EF4DDF50E7CD8ABEF13F0F7DC8E
:10290000A90E65EF12F0E66E76EF10F076DE88D84D
:1029100023DE10EF15F0A60EE66E8E0EE0DDA60E9D
:10292000E66E8C0E6FEF12F0080ED5DD0A0EC1EFC9
:1029300012F0AFDE43EF15F060DEACEF12F0E66EA2
:102940005EEF10F08A82020E5AEC10F08A92010EAD
:102950005AEF10F0030E2DDD58EF10F0E66E880EE2
:10296000FDEF14F0C4DD020EDB2A030E1200CBDDF6
:1029700087EF12F0BBEC10F0F8EF12F0F70EDB501F
:1029800002248DDE0320EA6E1200E66EE66AE66A35
:10299000E66A4FEF20F0EA6EEFCF06F006C007F0D0
:1029A000066A1200E552E552E552E55212001DDEBC
:1029B00087EF12F08CEC10F01AEF11F0040EDBCF61
:1029C00004F0056A120021DF05EF14F089EC10F025
:1029D0004DDEB2DF8CDD090E50DFAEDF58EF11F0B7
:1029E000DECFE6FFDDCFE6FF040E8DDF1FDF58EF01
:1029F00011F0E66E6E0E6FEF12F0E66E58EF10F00B
:102A0000020EDBCFE6FF030EDBCFE6FF040E83EF03
:102A100014F0080E60DD020E3FDE5DDD010E1200D7
:102A20000A0E5AEF10F08A0E1BDF800EE66E0F0EB4
:102A3000B7EF14F0390E57DD5ADCA80E65EF12F02F
:102A4000A60EE66E8E0E40EF14F0BA0E65EF12F091
:102A50000F0E75DFE66A030E62EF10F0BB0E65EF36
:102A600012F0550E04DFAA0E37EF14F0080E33DD16
:102A7000080E5AEF10F0010E2EDD070E6BEF12F06C
:102A80002BDF68EF12F033DDA0EF13F0090E6BEFD0
:022A900012F042
:0E2A9200D9CFE6FFE1CFD9FF020EE126FC0E00
:102AA000DB0401E0DFD0939093928A908A92000039
:102AB000FE0EDB50050A06E0030A04E02F0A01E0DF
:102AC00003D004D08A9602D08A9400D072C076F0E7
:102AD00073C077F074C078F075C079F0760EE96E47
:102AE000000EEA6EEE500001725D006EEE500001C5
:102AF0007359016EEE5000017459026EEE500001E0
:102B00007559036ED8900350000A08E6640E005C05
:102B1000000E0158000E0258000E035802E2DED7E4
:102B2000DDD7FE0EDB50290A07E02C0A03E0030A7A
:102B300001E06AD08A946AD08A9400008A9672C0B2
:102B400076F073C077F074C078F075C079F0760EC7
:102B5000E96E000EEA6EEE500001725D006EEE50FE
:102B600000017359016EEE5000017459026EEE506F
:102B700000017559036ED8900350000A08E61A0E3A
:102B8000005C000E0158000E0258000E035802E2CD
:102B9000DED7DDD7E66AE66AE66AE66A44DBE55236
:102BA000E552E552E552E66AE66AE66AE66A3BDB2A
:102BB000E552E552E552E552E66AE66AE66AE66AF9
:102BC00032DBE552E552E552E552E66AE66AE66A2C
:102BD000E66A29DBE552E552E552E5528A868A8AA1
:102BE0008A9ADE6ADD6ADECF00F0DDCF01F0010EE9
:102BF000005C000E015806E200D0DF2A010E01E35E
:102C0000DB2AF1D78A9602D08A9600D072C076F07D
:102C100073C077F074C078F075C079F0760EE96E05
:102C2000000EEA6EEE500001725D006EEE50000183
:102C30007359016EEE5000017459026EEE5000019E
:102C40007559036ED8900350000A08E6640E005CC4
:102C5000000E0158000E0258000E035802E2DED7A3
:102C6000DDD75CD08A868A8A72C076F073C077F02E
:102C700074C078F075C079F0760EE96E000EEA6ED9
:102C8000EE500001725D006EEE5000017359016E4E
:102C9000EE5000017459026EEE5000017559036E3A
:102CA000D8900350000A08E6280E005C000E015878
:102CB000000E0258000E035802E2DED7DDD78A9AD2
:102CC0008A849380938272C076F073C077F074C068
:102CD00078F075C079F0760EE96E000EEA6EEE506F
:102CE0000001725D006EEE5000017359016EEE50EE
:102CF00000017459026EEE5000017559036ED890B0
:102D00000350000A08E6140E005C000E0158000E85
:102D10000258000E035802E2DED7DDD7020EE15C56
:102D200002E2E16AE552E16EE552E7CFD9FF120017
:102D3000D9CFE6FFE1CFD9FF040EE126FE0EDB502E
:102D400028E0020A26E0010A53E1D0DA06C000F0CA
:102D50000001026A036AD7DA06C0E6FFE6DAF80E77
:102D6000DFDAC4DA05C000F00001036ACCDA05C07E
:102D7000E6FFDBDAF70ED4DAFA0EDBCF00F0FB0E5B
:102D8000FC0EFD0EC0DA00C0E6FFCFDAF60EC8DAA0
:102D90002FD0DE6ADE6ADE6ADD6ADD52DD52FA0EAF
:102DA000DBCF00F0FB0EDBCF01F0FC0EDBCF02F03F
:102DB000FD0EDBCF03F0D9CFE9FFDACFEAFF0050F9
:102DC000EE5C0150EE580250EE580350EE5810E2FF
:102DD000060EE66EE66E16D8E552E552D9CFE9FF4B
:102DE000DACFEAFFEE2A000EEE22EE22EE22D7D74D
:102DF000040EE15C02E2E16AE552E16EE552E7CFE2
:102E0000D9FF1200D9CFE6FFE1CFD9FFE652939068
:102E100093928A928A90DF6ADFCF00F0FE0EDB5039
:102E2000E76E0018E8AE02D0E73402D0E750005C4D
:102E300015E28A820000FD0EDBA002D08A8001D05C
:102E40008A90FD0EDBCFF3FFF390F342FD0EF3CF3C
:102E5000DBFF00008A920000DF2ADED7DF6ADFCFC7
:102E600000F00A0EE76E0018E8AE02D0E73402D098
:102E7000E750005C03E200D0DF2AF1D7E552E552CB
:102E8000E7CFD9FF1200D9CFE6FFE1CFD9FFE65255
:102E9000DF6ADFCF00F0100EE76E0018E8AE02D058
:102EA000E73402D0E750005C1DE28A820000FD0E8C
:102EB000DB50010B02E08A8001D08A90D950FD0FCF
:102EC000E96EFF0EDA20EA6E010E0F0B06E0EC52FF
:102ED000D890ED32EF32E806FAE100008A92000065
:102EE000DF2AD7D70000E552E552E7CFD9FF12001D
:102EF000D9CFE6FFE1CFD9FFE6528A8200008A905F
:102F000000008A920000DF6ADFCF00F00E0EE76E4D
:102F10000018E8AE02D0E73402D0E750005C1DE2B2
:102F20008A820000FD0EDB50010B02E08A8001D096
:102F30008A90D950FD0FE96EFF0EDA20EA6E010E7D
:102F40000F0B06E0EC52D890ED32EF32E806FAE1D2
:102F500000008A920000DF2AD7D78A8200008A9078
:102F600000008A9200000000E552E552E7CFD9FF49
:102F70001200A8D988DFCDD1A5D9BADFCAD1D9CF5F
:102F8000E6FFE1CFD9FF030EE126FD0EDBCFE6FF22
:102F9000FE0EDBCFE6FF36DFE552E5529380DF6AB7
:102FA000DFCF00F00A0EE76E0018E8AE02D0E7347B
:102FB00002D0E750005C03E200D0DF2AF1D7010E17
:102FC000DB6A020EDB6A8A8200008A920000DF6AF6
:102FD000DFCF00F00E0EE76E0018E8AE02D0E73447
:102FE00002D0E750005C1FE28A8200008150010B92
:102FF000026E036ADF5002C000F003C001F005E07A
:10300000D89000360136E804FBE1D950010FE96E93
:10301000DACFEAFF0050EE120150ED1200008A9262
:103020000000DF2AD5D78A8200008A9200009390A0
:103030008A900000010EDBCF00F0020EDBCF01F022
:1030400000C0F3FF01C0F4FF00D0030EE15C02E218
:10305000E16AE552E16EE552E7CFD9FF1200D9CF20
:10306000E6FFE1CFD9FF020EE126FD0EDBCFE6FF42
:10307000FE0EDBCFE6FFC6DEE552E552DF6ADFCFAC
:1030800000F0080EE76E0018E8AE02D0E73402D078
:10309000E750005C08E28A8200008A9000008A9271
:1030A0000000DF2AECD79380DF6ADFCF00F00A0E42
:1030B000E76E0018E8AE02D0E73402D0E750005CBB
:1030C00003E200D0DF2AF1D7010EDB6ADF6ADFCF2F
:1030D00000F0080EE76E0018E8AE02D0E73402D028
:1030E000E750005C1AE28A8200008150010BDF5237
:1030F00006E0DFCFF3FFE846FE0BF306FCE1006ECF
:10310000010EDBCFE7FF0050E712010EE7CFDBFF38
:1031100000008A920000DF2ADAD793908A9000009C
:10312000010EDB5000D0006E020EE15C02E2E16AAB
:10313000E552E16E0050E552E7CFD9FF1200D9CF3A
:10314000E6FFE1CFD9FF030EE1268A908A808A82CA
:103150008A928A90DF6ADFCF00F0030EE76E0018D4
:10316000E8AE02D0E73402D0E750005C04E28A8285
:103170008A92DF2AF0D7010EDB6A020EDB6ADF6A71
:10318000DFCF00F0080EE76E0018E8AE02D0E7349B
:1031900002D0E750005C04E28A828A92DF2AF0D7EC
:1031A00093800000DF6ADFCF00F0100EE76E00189A
:1031B000E8AE02D0E73402D0E750005C1DE28A821C
:1031C00000008150010B026E036ADF5002C000F064
:1031D00003C001F005E0D89000360136E804FBE1B9
:1031E000D950010FE96EDACFEAFF0050EE1201501C
:1031F000ED128A92DF2AD7D793908A90010EDBCF07
:1032000000F0020EDBCF01F000C0F3FF01C0F4FFBD
:1032100000D0030EE15C02E2E16AE552E16EE552A4
:10322000E7CFD9FF1200D9CFE6FFE1CFD9FFE652B1
:103230008A90DF6A040EDF5C04E28A828A92DF2AC7
:10324000F9D7DF6A180EDF5C2FE2010E006E016A0B
:10325000026A036AD950FB0FE96EFF0EDA20EA6EAC
:10326000EE500016EE500116EE500216EE50031608
:10327000005001100210031002E08A8001D08A90F1
:10328000D950FB0FE96EFF0EDA20EA6ED890030EDC
:10329000EB32020EEB32010EEB32EF3200008A828B
:1032A00000008A92DF2ACED7E552E552E7CFD9FF58
:1032B0001200E66A040EE66E5CDEE552E552E55267
:1032C000E5521200D9CFE6FFE1CFD9FFFD0EDBCFEB
:1032D000E6FFFE0EDBCFE6FF95DDE552E552FB0E85
:1032E000DBCFE6FFFC0EDBCFE6FF1200FA0EDBCFF2
:1032F00004F0FB0EDBCF05F0FC0EDBCF06F0FD0E7D
:10330000DBCF07F01200016A026A036A0E0E011297
:103310001200E552E5528A90E552E7CFD9FF12003C
:10332000E66E6E0EE66E59EF19F001C0E6FF59EF3A
:0233300019F092
:0E333200070E8B12F80E9416938C8150400BF0
:1033400001E0010E0001866F929092929396939AFB
:103350009390939293949296899689889288898A79
:10336000928A8A868A9A8A908A92F18E02D8C5EFCA
:1033700019F0C00EF2129D809E909F80D10ECF6EEC
:103380001F0ECE6E010ECD6E1200E00EF212F29400
:10339000440ED66EC30ED56E12006BDAFE0EDB50F5
:1033A000010BE81CE8B08B80E8A08B90FE0EDB5090
:1033B000020BE8407F0BE81CE8B08B82E8A08B9200
:1033C000FE0EDB50040BE840E8403F0BE81CE8B081
:1033D0008B84E8A08B9452D24CDA080EE126060EBC
:1033E0000001805D03E36D50020B02E0BAD935D1D4
:1033F000400EE66E000EE66E010EE66EDCEC1FF08F
:10340000E552E552E552E66ED950020FE96EDACF89
:10341000EAFFE552E750EE6EED6A020EDBCF00F0F8
:10342000030EDBCF01F0013401E307D100500008A7
:10343000000E015401E301D101010051A00A01E194
:10344000A7D0300A01E18DD0100A01E17ED0F00A48
:103450006EE0100A5CE0300A4DE0100A3EE0700AAF
:103460002FE0100A09E0300A01E0E7D0050E23DA68
:1034700035DA22EC04F06ED0060E1DDA00017A5126
:10348000020A10E0010A07E0060A17E1ECD9E66A31
:10349000E66AE6680DD0E7D9FE0EE66EE6683F0EF6
:1034A000E66E06D0E0D9060EE66E200EE66EE66AFF
:1034B000E66A14DA9DEC0DF0E5D90001020E64D045
:1034C000050EB2D902E0C8D9FEE1B7D902E0BDD9F4
:1034D000FEE1EBD997EC06F036D0060EA5D902E056
:1034E000BBD9FEE1AAD902E0B0D9FEE1F1D99DEC49
:1034F0000DF019D0050E98D902E0AED9FEE19DD9A4
:1035000002E0A3D9FEE1D1D90CEC0AF01CD0060EE2
:103510008BD902E0A1D9FEE190D902E096D9FEE173
:10352000D7D95AEC0FF0AED901C17CF02ED0050EE0
:103530007BD902E091D9FEE180D902E086D9FEE193
:10354000B4D9CDEC0BF09ED907D0010EE66E010E7A
:10355000E66E8AD8E552E5520101266F0001010EA0
:1035600013D07C0E006E430E016E026A00C0E6FFAF
:10357000E66E02C0E6FFB7D997EC21F0036E050EA8
:10358000E15E03500001120E7C6F040E94D955D0F9
:10359000070E91D901010151030A39E0010A0FE038
:1035A000030A05E0010A49E1010EE66E01D0E66A70
:1035B000050EE66E290EE66E49EC15F020D002C12C
:1035C00000F0016A026A036A38D902E03ED9FEE1DE
:1035D0005ED9100E1F0B07E0D890083609360A3660
:1035E0000B36E806F9E16BD900C0E6FF01C0E6FF43
:1035F00002C0E6FF03C0E6FF13EC19F0E552E55206
:10360000E552E5520101010E266F000115D09FEC35
:1036100018F0020EF3CFDBFF030EF4CFDBFF020E38
:10362000DBCF26F1030EDBCF01F001C000F0016A11
:1036300000C027F10001020E7C6F00017C510DE0FB
:1036400004010CBF08D07CC0E6FF4DD9ACEC1FF0E4
:10365000E552E552E55200017C6B080EE15C02E2A6
:10366000E16AE552E16E0AD104D9FD0EDBCFE9FF34
:10367000FE0EDBCFEAFFEFCF7BF000017B512A0A81
:103680006CE0030A68E00E0A64E00C0A62E0030AD8
:1036900060E0350A5CE0030A5AE0010A58E03F0A9C
:1036A00056E0010A54E0030A52E0010A50E0070A1A
:1036B0004EE0010A4CE0030A4AE0260A48E0010A0B
:1036C00046E0030A42E0010A40E0070A3EE0010A40
:1036D0003CE0030A3AE0280A38E0290A36E00F0AFB
:1036E00034E0010A32E0030A30E0010A2EE0070A62
:1036F0002CE0010A2AE01D0A28E0020A26E0010A5D
:1037000024E0070A22E0010A20E0030A1EE0010A81
:103710001CE00F0A1AE0010A18E0030A16E0010A89
:1037200014E0340A12E0330A10E0300A0CE0010A17
:103730000AE0230A08E0010A06E01E0A04E07B6BA7
:10374000030E7A6F0DD07A6B0AD0020E07D0030EEB
:1037500005D0040E03D0050E01D0060E7A6F010EBF
:103760008DD000017D517E1104E1100E7D6F270E7A
:103770007E6F7D07000E7E5B6DA207D07D517E11AE
:1037800020E18B808B828B7412000001805102E15A
:10379000010E10D0800508E0020E805D02E1040EEB
:1037A00009D0030E805D02E1020E04D0050E805D9B
:1037B00003E1040E5BEF1CF0060E805D02E10001E8
:1037C0007F6B12008150400B01E0010E0001865D0D
:1037D00007E08150400B01E0010E866F81AC010CC7
:1037E000000C55D86CD8040E00C0DBFF050E01C0DC
:1037F000DBFF060E02C0DBFF070E03C0DBFF05C1C7
:10380000E6FF01C1E6FF1200E66ED950040FE96E33
:10381000DACFEAFFEECFE6FFEECFE6FFEECFE6FF30
:10382000EFCFE6FF6EEF1CF046D802C100F0016A50
:10383000026A036A100E1F0B120003C104F0056A2E
:10384000066A076A080E1F0B1200D8900436053668
:1038500006360736E8061200D890003601360236E2
:103860000336E8061200030EE66E020EE66E73EFF4
:103870001CF0D9CFE6FFE1CFD9FF1200E552E7CF28
:10388000D9FF1200006E0A0EE15E005012000450D3
:10389000001205500112065002120750031204C113
:1038A00008F0096A0A6A0B6A12009BDF060EE66ED0
:1038B000010E04EF1CF0E66E70DDE55212000850B8
:1038C0000012095001120A5002120B50031212008A
:1038D00088DF260EE66E010E04EF1CF07BC0E6FFCB
:1038E0007AC0E6FF1200260EE66E010EE66E1200AA
:1038F00004011851600BE842E842E842E842E8421D
:10390000000901E012001951070A40E00B0A3EE0ED
:10391000070A33E0010A23E00B0A1FE0020A1DE058
:10392000030A19E0080A10E0010A0CE00F0A08E097
:10393000030A01E0120010D90001040E806F12008A
:10394000C7EF1CF0FEEF1CF007D90001820E6C6F70
:10395000000E6D6F0CD019EF1DF049EF1DF000D96E
:1039600000016C6F6D6B830E6C27000E6D230001E0
:1039700081930001010E706F1200F2D8EA6A830F82
:10398000E96E000EEA221AC4EFFF12001200800E48
:103990000401185D32E11B51030A1FE0010A0AE02D
:1039A000030A29E1D9D80001FE0E6C6F400E6D6F3D
:1039B000120E1ED0ABD8A20EF626410EB9D8020EBA
:1039C0000001F76A6C25F66E6D51F7220900F5CFFC
:1039D00070F00A00F5CF71F00ED098D8A60EF6263A
:1039E000410EA6D86CC0F6FF6DC0F7FF0800F55079
:1039F0000001706F716B000181831200ADD80F0E52
:103A0000E66E710EE66E0F0E9BD8010EE66E830E0B
:103A1000E66E000E95D81AC482F004011A5104E132
:103A20000001050E806F12000001060E806F97EFF7
:103A30001FF00401206B216B040118511F0B020AB7
:103A40000DE0030A09E0010A16E186D8000181A110
:103A500012D0040120830FD07FD80DD04BD801E0C5
:103A6000010E5DD86EC0E9FFEA6EEF50040B03E073
:103A70000401010E206F00016B050AE10001200E18
:103A80006C6F040E6D6F000181930001020E706F68
:103A9000120004011A050EE118511F0B00090AE17A
:103AA0005BD8030E0401195D03E10001818102D09E
:103AB0000001819104011A511CE118511F0B0208E9
:103AC00018E11C510F0B000914E014D801E0010E9D
:103AD00026D8030E0401195D04E1840E38D8EF6E78
:103AE00012001CAF03D033D8EF6A1200880E2FD813
:103AF000EF6E120035D80F0B080DF350016A000F5E
:103B0000006E040E01221C51800B120025D8040106
:103B10001A51F66EF76AD890F636F7361200040D91
:103B2000F350000100246E6F000E01206F6F120031
:103B3000F7220900F5CF6CF00A00F5CF6DF0120006
:103B4000E66E82EC1FF0E552E552E55212006EC0BF
:103B5000E9FF6FC0EAFF12000001010E6B6F120057
:083B6000FBDF04011C511200FF
:083B68006C5002E0000E01D0D8
:103B7000010E00090BE0040100513C0BE842E84251
:103B80000D0802E1CFEF1DF0DEEF1DF06C5002E0FA
:103B9000000E01D0010E040901E01FD81200D9CF98
:103BA000E6FFE1CFD9FFE65200016A6B6B6B706BE9
:103BB000716B78EC1CF099D8E552F6D0020E00013A
:103BC0006A5D09E168D8040100BD02D0C80E01D0C9
:103BD000880E006F1200AEEF1EF0040E0001805D33
:103BE00009E11AC46EFF6E50000802E2050E01D012
:103BF000030E806F00016A0509E10AD8040104BDC3
:103C000002D0C80E01D0880E046F1200AEEF1EF075
:103C1000C4D80001080E705D000E715905E270C035
:103C2000DEFF71C0DDFF03D0080EDE6EDD6A040129
:103C300004930491010EDB500413DFCF05F4000E52
:103C4000DB500001705F010EDB50715B200E6E6F68
:103C5000040E6F6F000181A30CD098D815E06CC0E2
:103C6000F6FF6DC0F7FF0800F55080D8F6E2DB06DE
:103C7000F4D78CD809E06CC0E9FF6DC0EAFFEF50C3
:103C800075D8F7E2DB06F5D7020EE15C02E2E16AE5
:103C9000E552E16E89D081D8030E04010015E76E6C
:103CA000010EE7CFDBFF01C4DFFFDE50000170270C
:103CB000DD507123200E6C6F040E6D6F67D80EE01F
:103CC0006CC0E9FF6DC0EAFFEF506EC0E9FF6FC046
:103CD000EAFFEF6E6DD8F2E2DB06F0D7020EE15C90
:103CE00002E2E16AE552E16E5FD000016B5105E14D
:103CF00045D8840E006F04011DD0040118AF1CD0FC
:103D00000001705104011E5D0001715104011F5931
:103D100004E21EC470F01FC471F07ADF0001010ECE
:103D20006A6F2CD8800E006F0401200E066F040EFF
:103D3000076FC80E046F10D00001020E6A6F0401F5
:103D4000056BC80E046F0401080E016F200E026F90
:103D5000040E036FC80E006F6D98120000016A6BAD
:103D60000DD8880E006F0401046B12006EC0E9FFCD
:103D70006FC0EAFFEF6E0001D8EF1EF00401080EDD
:103D8000016F180E026F040E036F1200D9CFE9FF06
:103D9000DACFEAFFEE50ED101200D9CFE6FFE1CF07
:103DA000D9FF020EE1261200E552E7CFD9FF12003B
:103DB0006E2B000E6F236C2B6D23DF06010E12009D
:103DC0006DA60CD80001800508E16DBA06D0686ABE
:103DD000696A69806988020E806F12006D6A696A7B
:103DE0006D860001010E806F12006D6A696A000124
:103DF000806B1200F5EF1EF00001805101E112000E
:103E00006850040B04E06950040B01E038D86DB22F
:103E100012006850010B04E06950010B01E050D81A
:103E20006850100B04E06950100B01E024D8685072
:103E3000400B04E06950400B01E037D86850200B7C
:103E400004E06950200B01E032D86850020B04E016
:103E50006950020B01E032D8030E0001805D01E2DF
:103E600012006850080B06E06950080B03E0B4EC40
:103E70001DF068961200698468986D8212006D9238
:103E8000699468941200000181A10ED0F8DF6D845E
:103E90000001080E846F070E856F8407000E855B96
:103EA00084518511FAE16D941200689C120070A093
:103EB00003D0AEEC1EF07090689A12006892120067
:103EC0006A6A686A9F0E6B6E7B0E696E6E6A0F0E71
:103ED000E66E710EE66E0F0EE66E14D8E552E552F0
:103EE000E552160E706E68A602D06896FCD76D98E3
:103EF000AEEC1EF0000181910001826B0001030E07
:103F0000806F1200D9CFE6FFE1CFD9FFFD0EDBCFE6
:103F1000E9FFFE0EDBCFEAFFFC0EDB5004E0EE6AA9
:0E3F2000FC0EDB06F9D7E552E7CFD9FF120001
:023F2E00000190
:103F3000886B1E0E716E0401260E096F280E0A6F23
:103F4000040E0B6F880E086F04014E0E0E6F040EE8
:103F50000F6F400E0C6F1200D9CFE6FFE1CFD9FFF3
:103F6000E652FC0EDB50260805E2260EF36EFC0E30
:103F7000F3CFDBFFDF6AFC0EDB50DF5C0FE2DF50CC
:103F800051D8EF50E66EDF50EA6A4E0FE96E040E2C
:103F9000EA22E552E750EF6EDF2AEDD7FC0EDBCFC9
:103FA0000DF4400E04010C170C7D880E0C13E55225
:103FB000E552E7CFD9FF1200D9CFE6FFE1CFD9FF15
:103FC0000001886B040108BF27D0FC0EDBCF00F096
:103FD0000951D880005403E2FC0E09C4DBFF000144
:103FE000886BFC0EDB50885D0FE28851EA6A280F6F
:103FF000E96E040EEA22EF50E66E885113D8E552BE
:10400000E750EF6E882BEDD70401260E096F400EA6
:104010000817087D880E081300018851E552E7CF84
:10402000D9FF1200E76EFD0EDBCFE9FFFE0EDBCFFE
:0C403000EAFFE750E926000EEA22120029
:04403C00DACFE4FFF4
:10404000E6529EA00BD00001722B000E7323742346
:104050007523D10ECF6E1F0ECE6E9E90F2A40AD0A5
:1040600089708950010B02E0899201D08982440E47
:10407000D66EF294E552E5CFDAFF1100D8CFE4FF17
:10408000E0CFE4FFE46EDACFE4FFE652E552E5CF9D
:10409000DAFFE550E5CFE0FFE5CFD8FF1000D9CF3C
:1040A000E6FFE1CFD9FF72C076F073C077F074C03D
:1040B00078F075C079F0760EE96E000EEA6EEE507B
:1040C0000001725D006EEE507359016EEE5074592E
:1040D000026EEE507559036ED950FB0FE96EFF0E5C
:1040E000DA20EA6EEE50005CEE500158EE500258B5
:0E40F000EE500358E0E3E552E7CFD9FF12008F
:0240FE001201AD
:10410000000200000008D8040E00000001020001B7
:1041100009022000010100803209040000020000B1
:104120000000070501032600200705810326002063
:10413000040309042A03750073006200700069001B
:104140006300700072006F0067002E006F00720045
:1041500067002000200020002000200020004403F1
:1041600075007300620070006900630070007200E7
:104170006F0067002E006F007200670020002000B3
:10418000200020002000200020002000200020002F
:10419000200020002000200020002000200020001F
:0C41A000200010411041304134415E41CC
:0441AC002A0EF66E73
:1041B000080EF76E000EF86E00010900F550656FED
:1041C0000900F550666F03E1656701D03DD0090035
:1041D000F550606F0900F550616F0900F550626F8E
:1041E00009000900F550E96E0900F550EA6E090072
:1041F00009000900F550636F0900F550646F09006C
:104200000900F6CF67F0F7CF68F0F8CF69F060C02B
:10421000F6FF61C0F7FF62C0F8FF0001635302E1DF
:10422000645307E00900F550EE6E6307F8E2640797
:10423000F9D767C0F6FF68C0F7FF69C0F8FF000153
:0A4240006507000E665BBFD7120091
:06424A007F6A7E6A7D6AB6
:104250007C6A7B6A7A6A796A786A776A766A756A4A
:10426000746A736A726A716A706A6F6A6E6A6D6A7A
:104270006B6A6A6A696A686A120004D80FD8ECEC43
:1042800019F0FCD70F0EC112140E6F6E0001806B77
:104290000001816B0001826B99EF19F0E0EC1EF0D8
:0A42A0006FBE02D0FCEC1EF012000D
:0642AA001D6A1C6A1B6A7C
:1042B0001A6A200EE76ED8901E361F362036213639
:1042C0001A361B361C361D3623501A5C24501B58D8
:1042D00025501C5826501D5809E323501A5E2450BF
:1042E0001B5A25501C5A26501D5A1E2AE72EE4D769
:0242F0001200BA
:0E42F20020C02AF020502502F4CF1FF0F3CF99
:104300001EF021502602F4CF21F0F3CF20F0250239
:10431000F3501F26F4502022E86A21222A50260258
:0E432000F3501F26F4502022E86A2122000CE0
:02432E00FB0E84
:10433000E3CFF6FFFC0EE3CFF7FFFD0EE3CFF8FF70
:10434000FE0EE3CFE9FFFF0EE3CFEAFFE9CFF3FF75
:10435000EACFF4FF0900F5CFEFFFEE66FBD71200BE
:1043600013EE00F023EE00F0F86A199CD6EC20F072
:0C437000CDEC21F03DEC21F0FBD7120059
:04437C007573627083
:0B438000696370726F672037343400EF
:04438C0000EE00F04F
:0A4390000F0EEE6AEA62FDD712007C
:02439A0012000F
:04439C00030000001A
:0243A00000FF1C
:0843A200000000000000000013
:020000040030CA
:0100000021DE
:010001000EF0
:0100020038C5
:010003001EDE
:01000500807A
:010006008079
:01000900C036
:01000B00E014
:00000001FF
