:020000040000FA
:060000006FEF36F0120064
:0600080065EF34F0120068
:0600180092EF34F012002B
:060800006FEF36F012005C
:0608080065EF34F0120060
:0608180092EF34F0120023
:06082A000200226D000037
:1008300080010000020000001E6D00003702000071
:0408400004000000B0
:0C08440017EC0BF0F60EDBA002D0E7EC86
:100850000BF002010851091130E0F60EDBCFE6FF84
:10086000F70EDBCFE6FFF80EDBCFE6FFF90EDBCFAE
:10087000E6FFD950FA0FE96EFF0EDA20EA6EEECFEE
:10088000E6FFEECFE6FFEECFE6FFEFCFE6FF05D0C7
:1008900009C2FAFF02010851F96EFADF006E080E74
:1008A000E15C02E2E16AE552E16E0050F60EDBA285
:1008B00008D07CEC0DF0010E05D07CEC0DF0030EA1
:1008C00001D0020EA4EF0BF051EC0BF09EEC10F0F7
:1008D00055EC0BF0070ED89001320032E804FBE132
:1008E0000E0E0016000E0116A00E001018EC0AF0F5
:1008F000A2EC09F0E8AE02D0E73402D0E750005C89
:1009000017E2020EDBCF00F0016A00BE016838EC8E
:100910000AF00BE1DF6A040EDF5C03E220EC0BF06F
:10092000FAD729EC0AF008E2D1D7020EDB2AE0D789
:10093000A4EC10F09AEC09F05AEF09F051EC0BF02E
:100940009EEC10F08FEC0AF0000EEE5C000EEE58FC
:10095000010EEE58000EEE5802E3080E01D0000E14
:10096000A00941EC0BF0006A0168AAEC0BF0080E3C
:10097000D8900332023201320032E806F9E1005029
:1009800018EC0AF0A2EC09F0E8AE02D0E73402D08D
:10099000E750005C17E2020EDBCF00F0016A00BEF8
:1009A000016838EC0AF00BE1DF6A040EDF5C03E259
:1009B00020EC0BF0FAD729EC0AF009E2C1D7020EBD
:1009C000DB2AE0D7A4EC10F01E0E86EC0AF05AEFFA
:1009D00009F0C1EC0BF0DAEC0BF0D4EC0BF0BDEC51
:1009E0000AF01A0EE66EE66A240E76EC0BF00A0E9A
:1009F000CCEC0AF0020EDB6AA2EC09F0E8AE02D001
:100A0000E73402D0E750005C01E3B5D0006A57EC50
:100A10000AF008AE03D009680A680B68A9EC09F06F
:100A2000046A056A076A0C0ED8900732063205324E
:100A30000432E806F9E1D2EC0AF0FEEC09F0900E7F
:100A4000E66E010EE66E880E76EC0BF0070E006E79
:100A500057EC0AF008AE03D009680A680B68A9ECE5
:100A600009F0066A076A040E1F0B03E06FEC0AF038
:100A7000FDE1D2EC0AF0FEEC09F0DE6ADD6A89ECF9
:100A80000BF06AE2006A016A200E026E036A4AEC09
:100A90000AF00ABE0B6867EC0AF00A501E24086EC2
:100AA0000B501F20096EF80EDB500824A0EC0BF051
:100AB0000920EA6EEFCF04F0056A066A076A040EA1
:100AC0001F0B03E06FEC0AF0FDE1D2EC0AF0031219
:100AD000020EDBCF12F0136A12BE136867EC0AF045
:100AE00012501E24106E13501F20116E010E10267E
:100AF000000E1122F80EDB501024A0EC0BF0112098
:100B0000EA6EEFCF0CF00D6A0E6A0F6A0C0E1F0B27
:100B100007E0D8900C360D360E360F36E806F9E1B0
:100B20000C5000120D5001120E5002120F50031201
:100B3000DECF14F0DDCF15F0166A176A14500012DC
:100B400015500112165002121750FEEC09F0DF2A60
:100B5000010E95E3DB2A93D7E66A030EE66EEB0EF1
:100B600076EC0BF069EC0BF05CEC0BF05CEC0BF052
:100B70000C0EC6DB41D7580EE66E050EE66E200E53
:100B800076EC0BF0380ECCEC0AF0A90EE66E0A0EED
:100B9000E66E200E76EC0BF0390ECCEC0AF0610E0E
:100BA000E66EE70EE66EA80E76EC0AF04FEC0AF061
:100BB000DAEC0BF0610EE66EE70EE66EA90E76EC4F
:100BC0000AF0BDEC0AF076D3DAEC0AF00AE16EEC3A
:100BD0000BF08C0E5CDB880E5ADB8E0E58DB9C0E05
:100BE00028DBDF6A0AEC0AF0E8AE02D0E73402D074
:100BF000E750005C09E231DB08BE096834DB02BE65
:100C00000368A3EC0AF0EED7200E57DB200E001885
:100C100005E1015003E1025001E1035004E0F60E4A
:100C2000DB50020B09E019DB08BE09681CDB02BEC1
:100C3000036873EC0BF007D010DB08BE096813DB08
:100C400002BE036800DB36D3DAEC0AF002E1E6EC20
:100C50000AF0DF6ADFDBE8AE02D0E73402D0E7500B
:100C6000005C09E2FADA08BE0968FDDA02BE036830
:100C7000A3EC0AF0EFD7200E20DB200E001805E1D0
:100C8000015003E1025001E1035004E0F60EDB5095
:100C9000020B09E0E2DA08BE0968E5DA02BE036881
:100CA00073EC0BF007D0D9DA08BE0968DCDA02BEB3
:100CB0000368C9DAFFD2E8DA600EC5EC0BF002E196
:100CC000E6EC0AF0DF6AA6DBE8AE02D0E73402D039
:100CD000E750005C09E2C1DA08BE0968C4DA02BE66
:100CE0000368A3EC0AF0EFD7600EE7DA600E001895
:100CF00005E1015003E1025001E1035004E0F60E6A
:100D0000DB50020B09E0A9DA08BE0968ACDA02BEC2
:100D1000036873EC0BF007D0A0DA08BE0968A3DA09
:100D200002BE036890DAC6D2AFDA6EEC0BF09C0E0E
:100D300080DADF6A6FDBE8AE02D0E73402D0E7503A
:100D4000005C09E28ADA08BE09688DDA02BE03682F
:100D5000A3EC0AF0EFD781DA08BE096884DA02BE94
:100D6000036873EC0BF0A6D28FDA6EEC0BF008EC94
:100D70000BF0DF6A4FDBE8AE02D0E73402D0E75079
:100D8000005C08E26ADA08BE09686DDA02BE036830
:100D9000DADBF0D762DA08BE096865DA02BE0368FA
:100DA00073EC0BF087D2AFEC0BF0CCDAE8AE02D0EC
:100DB000E73402D0E750005C1DE2DE6ADD6ACEDB7C
:100DC0000E0E4DEC0BF008E2EEDA0CBE0D68A2DA66
:100DD00004BE056876DAF3D70F0E00DB08BE09689B
:100DE00003DB02BE036885DB0E0E95EC0BF0100EE4
:100DF00087DADBD75FD2AFEC0BF0A4DAE8AE02D033
:100E0000E73402D0E750005C17E2DE6ADD6A89EC65
:100E10000BF008E2C8DA0CBE0D687CDA04BE056887
:100E200050DAF5D7070EDADA08BE0968DDDA02BE55
:100E30000368C8EC0BF0E1D73DD278DB9C0EF9D902
:100E4000020EDB6A7FDAE8AE02D0E73402D0E75068
:100E5000005C17E2DE6ADD6A89EC0BF008E2A3DAD7
:100E60000CBE0D6857DA04BE05682BDAF5D7070EFD
:100E7000B5DA08BE0968B8DA02BE0368C8EC0BF040
:100E8000E1D718D253DB8C0E8CEC0BF0060EE66E1D
:100E9000E66A3C0EE66EE66ACAEC0DF090EC0BF0EA
:100EA000000EE66EE66A0C0EE66E2ADB6EEC0BF0C8
:100EB0009C0EBFD9020EDB6A45DAE8AE02D0E734F9
:100EC00002D0E750005C17E2DE6ADD6A89EC0BF0C5
:100ED00008E269DA0CBE0D681DDA04BE0568F1D9B6
:100EE000F5D7070E7BDA08BE09687EDA02BE036812
:100EF000C8EC0BF0E1D7DED15DDB04E1A60EE66EB7
:100F0000840E97D9DF6A86DAE8AE02D0E73402D0E1
:100F1000E750005C08E2A1D908BE0968A4D902BE66
:100F2000036811DBF0D7200EC5EC0BF009E095D972
:100F300008BE096898D902BE0368CBEC0BF023D039
:100F40008CD908BE09688FD902BE03687CD9E552E6
:100F5000E552F60EDBA21CD0DF6ADFCF00F01E0EDA
:100F6000E76E0018E8AE02D0E73402D0E750005C2C
:100F700008E2E668E6680D0EE66EC2DA020EDF26CB
:100F8000ECD7E668E668B5DBD5D9BBDBE552E552C0
:100F9000C4D27AD9F60EDBB0C8D9DF6A74DAE8AE0B
:100FA00002D0E73402D0E750005C0EE2DF28066E84
:100FB000076A06BE076808DA02BE03689ED9080EF3
:100FC00094D96DDAB8DBEAD7A8D25ED9F60EDBB0D9
:100FD000ACD9DF6A58DAE8AE02D0E73402D0E75085
:100FE000005C0BE2DF28066E076A06BE0768ECD9D4
:100FF00002BE036882D99FDBEDD78FD245D9F60EAA
:10100000DB50010B0CE08BDAD880000EEE54000EA2
:10101000EE54000EEE54000EEE5401E286D9DF6A63
:1010200032DAE8AE02D0E73402D0E750005C0FE2DB
:10103000DF28066E076A06BE0768C6D902BE0368C7
:101040005CD9180E92DA0A0E90DA20DBE9D765D265
:10105000BADA78D9E8AE02D0E73402D0E750005CC3
:101060001DE2DE6ADD6A7ADA040E17DB0DE212DABF
:101070000ABE0B6810D904BE0568FAD8020E0DDB53
:1010800001E237D975DAEFD7080E2FD9020E3EDA12
:101090000E0E2BD92ED9040E33D9DBD70BD193DA10
:1010A00051D9E8AE02D0E73402D0E750005C14E238
:1010B000DE6ADD6ACAD90BE2EDD90ABE0B68EBD84D
:1010C00004BE0568E7DA01E214D952DAF3D7180E44
:1010D0004CDA0A0E73DAE4D7EDD075DA33D9E8AE1C
:1010E00002D0E73402D0E750005C14E2DE6ADD6A29
:1010F000ACD90BE2CFD90ABE0B68CDD804BE0568C7
:10110000C9DA01E2F6D834DAF3D7180E2EDA0E0E69
:1011100055DAE4D7CFD057DA15D9E8AE02D0E734A4
:1011200002D0E750005C15E2DE6ADD6A8ED90BE280
:10113000B1D90ABE0B68AFD804BE0568ABDA01E2CC
:10114000D8D816DAF3D7080E10DAD3D8080ED8D8C4
:10115000E3D7B0D038DAF6D8E8AE02D0E73402D020
:10116000E750005C16E2DE6ADD6A6FD90BE292D9C5
:101170000ABE0B6890D804BE05688CDA01E2B9D8C3
:10118000F7D9F3D7180EB1D8020EC0D9170E16DA58
:10119000E2D790D018DAD6D8E8AE02D0E73402D041
:1011A000E750005C1BE2DE6ADD6AD8D9100E75DA02
:1011B0000DE270D90ABE0B686ED804BE056858D817
:1011C0000E0E6BDA01E295D8D3D9EFD7080E8DD881
:1011D000100E9CD98ED8100E93D8DDD76BD054D872
:1011E000F60EDBA002D085D8A0D8DF6A4CD9E8AED5
:1011F00002D0E73402D0E750005C14E2DF28066E2C
:10120000076A06BE0768E0D802BE036876D8010EFA
:101210007DD9080E6AD843D90E0E67D8010E76D94B
:1012200035DAE4D77AD185D964DA020E6FD981EF45
:101230000BF072DA74D914DACAEC0DF094D1E66AC4
:101240004DEC10F090D1A7DA0D0EE66E040EE66EAE
:10125000BEEC0EF0E552E5521200010EC0D9DFCF10
:1012600008F0096A1200C7D9DFCF02F0036A120042
:10127000DE500424026EDD500520036E3AD9CDD92C
:1012800073DA4EDAAEEF0AF0D2D9E652120044DA3F
:10129000A60EE66E1200DE500A24086EDD500B200A
:1012A000096E010E0826000E0922F80EDB500824F4
:1012B00047DA66D1E552E55230D1006E016AAAEFF5
:1012C0000BF0F80EDB500424026EF90EDB50052003
:1012D000036EDE500224E96EDD500320EA6E9DD9D4
:1012E0000D0EE66E0DD9B8EF0AF0E66E060E02EFAF
:1012F0000BF0060EE66E02EF0BF04DDA35DA33D165
:10130000006E020EDBCFE7FF0050E726020EE7CFAC
:10131000DBFF12000A500C24086E0B500D20096EE2
:10132000DE500824E96EDD502BD1F9D899D99EEC16
:101330000DF019D10A0E86EF0AF09BD99AD9E55221
:10134000E5521200DBCF00F0F70EDB50E76E00181D
:101350001200E5D80850EE24046E0950EE20056E08
:101360000A50EE20066E0B50EE20076ED890043621
:10137000053606360736030E236E246A256A266A6A
:1013800004C01EF005C01FF006C020F007C021F009
:101390001DEC36F01EC004F01FC005F020C006F0A2
:1013A00021C007F01200010EE76EF80EDBCF0AF045
:1013B000F90EDBCF0BF0E7500A26000E0B22020ECF
:1013C000DBCF0CF00D6A1200F80EDB500624B8D902
:1013D0000720D0D9DFCF02F0036A120000D9020E35
:1013E000DBCF08F0096A120006D9020EDBCF02F04B
:1013F000036A120091D97F0EE66E1200031200C03C
:10140000E6FF01C0E6FF02C0E6FF03C0E6FF4DECC9
:1014100010F0A9D0DFCF00F0F70EDB50FE0FE76E23
:10142000001812004EEC1BF0E5527D0E86EF0AF01C
:1014300028D93BD9FC0EDBCF02F0FD0EDBCF03F049
:1014400000501FD9020EDB6A120088D8080E4DEF3B
:101450000BF0A4EC10F01E0E59D8020EF36E010E24
:10146000DBCFF4FFF350F45C1200060E4DEF0BF0EF
:10147000F80EDB50002464D90120EA6EEF5001D948
:10148000DF6EDF041200DFCF00F0F70EDB50E76EF7
:1014900000181200020EDBCF0AF00B6A1200030ED6
:1014A00086EF0AF0E652E652020EDB6A1200016A8B
:1014B000200E026E036A020EDBCF08F0096A0A6A88
:1014C0000B6A120000500110021003101200206E6F
:1014D000216ADECF25F0DDCF26F041EF36F0D8903F
:1014E0000436053606360736E8061200FFD8DAEF6E
:1014F0000BF0F80EDB50022423D90320EA6E120011
:10150000040EE66EBEEC0EF090EF0BF0E66EE66AAF
:10151000BAEC34F0E552E5521200E55215D1D9503B
:10152000FA0FE96EFF0EDA20EA6E12002AD96EEF8A
:101530000BF0EF5000010410006E05C001F0E66EE4
:1015400005C0E6FF12007FDEE552E552020EDF26FF
:101550001200060EEAD8080E80EF09F0DECF00F088
:10156000DDCF01F0120090EF0BF0BFDE9AEF09F033
:10157000020EDE26000EDD22120016D969EF0BF0F6
:101580000920EA6EEFCF06F006C007F0066A020EE9
:10159000DBCF04F0056A1200E66E3B0EE66E880EA5
:1015A00076EF0BF0045000120550011206500212A3
:1015B0000750120069DE200EC5EF0BF096DE99DEB3
:1015C000080E80EF09F060DE52EF0AF07F0EE66E43
:1015D0008E0E10DF9C0E0EDF840E19EF09F0E76E01
:1015E000F80EDBCF06F0F90EDBCF07F0E75006264A
:1015F000000E0722120006500824E96E0750092049
:10160000BAEF0BF0E66EECEC0DF0E552E55212008D
:101610009C0E3DDE840E19EF09F0EF50000106101C
:10162000006E07C001F0E66E07C0E6FF1200D9CFDA
:10163000E6FFDACFE6FFE1CFD9FFE2CFDAFF120013
:10164000070EE66EEFDEE66AEDDEDF2A1200EE50F0
:101650000016EE500116EE500216EE500316120060
:10166000EECFE6FFEECFE6FFEECFE6FFEFCFE6FFF1
:101670001200E552E552090EE66E040EE66E4CEFDE
:101680000FF0E66EA9EC10F0E552120032DE020E09
:10169000DF261200EDDD35EF0AF0005C000E015888
:1016A00012006FD8010EDB6A1200FA0EDBCF00F0D9
:1016B000FB0EDBCF01F01200B60EE66E0B0E6ED8FD
:1016C000DB0E6CD8EB0E6AD81B0EE66EBB0E76EF07
:1016D0000AF0E66AE66AE66A1FEF09F0A60EE66E11
:1016E0008E0E47EF09F005DF13EF09F0E66E1FEFEE
:1016F00009F00F0EE66E04DFE66A030E83DF8A82CE
:1017000012008A92010E02DF000EE66EE66A32EFE8
:101710000EF024DF35EF0AF0E66EE66A80EF0AF09D
:10172000E552E552E552E5521200E926000EEA22A2
:101730007ADD9DEF09F0080E18DFFCDD46EF0BF0B7
:10174000E96EF90EDB501200E552E5CFDAFFE7CF84
:10175000D9FF1200026A036AE2DE27EF0BF0E6DE31
:1017600057DF020EDB6A1200020EE66E060EE66E10
:10177000C5EF0EF0EA6EEFCF04F004C005F0046A86
:10178000120082DDE652E652120097DD62EF0AF0A7
:10179000B0DEA9EF0AF0ADDE99EF0AF0E66EBB0EFF
:1017A000A5DEB60EE66E1200E66A010EE66E040EC7
:0A17B00076EF0BF08EDF69EF0BF00F
:0617BA00F9EC10F0FB0E3B
:1017C000DB5002E199D901D002D80FEF11F00201EC
:1017D0000051011108E005D001C2FAFF02010051D9
:1017E000F96EFADF1200F5EF0BF002010EAF02D036
:1017F000929A9298939293908A908A920000000015
:101800008A94640EE66EE66ABAEC34F0E552E5526C
:101810008A96640EE66EE66ABAEC34F0E552E5525A
:10182000120002010EAF02D0929A92989392939076
:101830008A908A92000000008A96640EE66EE66A3C
:10184000BAEC34F0E552E5528A94640EE66EE66A2C
:10185000BAEC34F0E552E5521200D9CFE6FFDACF08
:10186000E6FFE1CFD9FFE2CFDAFFE652E65202010E
:101870000EAF02D0929A9298939293908A908A9205
:1018800000000000640EE66EE66ABAEC34F0E55241
:10189000E5528A94000000008A961A0EE66EE66A07
:1018A000BAEC34F0E552E552E66AE66AE66AE66AC0
:1018B0004DEC10F0E552E552E552E552E66AE66A73
:1018C000E66AE66A4DEC10F0E552E552E552E55263
:1018D000E66AE66AE66AE66AE0DBE552E552E55268
:1018E000E552E66AE66AE66AE66AD7DBE552E55261
:1018F000E552E5528A868A8A8A9ADE6ADD6ADECFF6
:1019000000F0DDCF01F0010E005C000E015806E290
:1019100000D0DF2A010E01E3DB2AF1D78A96640E9C
:10192000E66EE66ABAEC34F0E552E552E552E5526D
:10193000E552E5CFDAFFE7CFD9FF120087EC11F0CF
:1019400002010EAF02D0929A92987DEC11F060ECF9
:1019500011F002E678EC11F005E2DF2A010EF7E360
:10196000DB2AF5D789968A8A040E08EC11F0060E58
:1019700008EC11F01BEC11F075EC11F0020E08EC04
:1019800011F08A9A89869EEF11F087EC11F002011E
:101990000EAF02D0929A92987DEC11F060EC11F0AB
:1019A00002E678EC11F005E2DF2A010EF7E3DB2A0C
:1019B000F5D71BEC11F075EC11F09EEF11F0020160
:1019C0000EAF02D0929A92989392939089968A94AD
:1019D0000A0EE66EE66ABAEC34F0E552E552898604
:1019E0000000000089968A8A00000000B20EE66EB0
:1019F000C20EE66E37D9E552E552120EE66E8A0E39
:101A0000E66E30D9E552E552010EE66EE66ABAECB2
:101A100034F0E552E5528A9A8986190EE66EE66A36
:101A2000BAEC34F0E552E552E66A050EE66ED4D81B
:101A3000E552E552E66AE66AE66AE66A2EDBE552B8
:101A4000E552E552E552E66A020EE66E040EE66ED7
:101A5000E66A23DBE552E552E552E552E66AE66ABC
:101A6000E66AE66A1ADBE552E552E552E5521200F3
:101A700087EC11F002010EAF02D0929A92987DECA1
:101A800011F060EC11F002E678EC11F005E2DF2ACB
:101A9000010EF7E3DB2AF5D7CEDB8A0E8BEC11F0D3
:101AA000010EB6DB190EB4DBE66A050EE66EA3EC9A
:101AB00011F0C8DBC7DBE66A020EE66E040EE66EC6
:101AC000E66AEBDA99EC11F0BDDBE552E552A7D3FB
:101AD00002010EAF02D0929A9298939293908A80CC
:101AE0008A82000000008A94640EE66EE66ABAEC10
:101AF00034F0E552E55212008A8689968A8A280EC9
:101B000087DB8A9A8A84928A928893829380140EC1
:101B100008EF11F06EDBFD0EDB500BE0020A09E06E
:101B2000010A04E00B0A02E0010A07E1A0DB32D857
:101B300002D09DDB03D899EC11F071D3E8DBE652BB
:101B4000E652DE6ADE6ADE6ADD6ADD52DD529EDB67
:101B5000D9CFE9FFDACFEAFF0050EE5C0150EE5832
:101B60000250EE580350EE580EE2060EE66EE66E98
:101B7000EADBD9CFE9FFDACFEAFFEE2A000EEE2248
:101B8000EE22EE22E4D7040EE15C02E2E16AE552C5
:101B9000E16E45D32EDB87DB06C000F0000197DB4A
:101BA00006C0E6FFD4DBF80EBBDB7DDB05C000F032
:101BB00006C001F007C002F00001036A88DB05C01F
:101BC000E6FFC5DBF70EACDB61DB81DB00C0E6FFC7
:101BD000BEDBF60EA5DB23D3D9CFE6FFDACFE6FFD7
:101BE000E1CFD9FFE2CFDAFFE6528A928A90DF6A2C
:101BF000DFCF00F0FD0EDB50E76E0018E8AE02D03C
:101C0000E73402D0E750005C16E2FC0EDBA002D005
:101C10008A8001D08A908A82FC0EDBCFF3FFF3909A
:101C2000F342FC0EF3CFDBFF000000008A920000BD
:101C30000000DF2ADDD7DF6ADFCF00F00A0EE76E93
:101C40000018E8AE02D0E73402D0E750005C03E2AF
:101C500000D0DF2AF1D7E552E552E5CFDAFFE7CF32
:101C6000D9FF1200D9CFE6FFDACFE6FFE1CFD9FFE7
:101C7000E2CFDAFFE652DF6ADFCF00F0100EE76E48
:101C80000018E8AE02D0E73402D0E750005C1EE254
:101C9000FC0EDB50010B02E08A8001D08A908A8220
:101CA000D950FC0FE96EFF0EDA20EA6E010E0F0B21
:101CB00006E0EC52D890ED32EF32E806FAE100008F
:101CC00000008A9200000000DF2AD6D70000000042
:101CD000E552E552E5CFDAFFE7CFD9FF1200D9CFC1
:101CE000E6FFDACFE6FFE1CFD9FFE2CFDAFFE65237
:101CF0008A90000000008A82000000008A920000A2
:101D00000000DF6ADFCF00F00E0EE76E0018E8AECD
:101D100002D0E73402D0E750005C1EE2FC0EDB503C
:101D2000010B02E08A8001D08A908A82D950FC0F90
:101D3000E96EFF0EDA20EA6E010E0F0B06E0EC52A0
:101D4000D890ED32EF32E806FAE1000000008A9206
:101D500000000000DF2AD6D78A90000000008A82A7
:101D6000000000008A920000000000000000E55220
:101D7000E552E5CFDAFFE7CFD9FF12003ADA69DAA8
:101D800071DFE552E5528A904AD233DA62DAA7DF90
:101D9000E552E5528A9043D2D9CFE6FFDACFE6FF8B
:101DA000E1CFD9FFE2CFDAFFE652E652E652FC0E6F
:101DB000DBCFE6FFFD0EDBCFE6FF0EDFE552E5529F
:101DC00093809288DF6ADFCF00F00A0EE76E00187A
:101DD000E8AE02D0E73402D0E750005C03E200D066
:101DE000DF2AF1D7010EDB6A020EDB6A8A8200006D
:101DF00000008A9200000000DF6ADFCF00F00E0EC4
:101E0000E76E0018E8AE02D0E73402D0E750005C7D
:101E100023E28A82000000008150010B026E036AF7
:101E2000DF5002C000F003C001F005E0D89000369A
:101E30000136E804FBE1D950010FE96E000EDA200B
:101E4000EA6E0050EE120150ED12000000008A927E
:101E500000000000DF2AD1D78A82000000008A92A9
:101E60000000000002010EBF929893900000000055
:101E7000010EDBCF00F0020EDBCF01F000C0F3FF5C
:101E800001C0F4FF00D0E552E552E552E552E5CF3E
:101E9000DAFFE7CFD9FF1200D9CFE6FFDACFE6FFAE
:101EA000E1CFD9FFE2CFDAFFE652E652FC0EDBCFFC
:101EB000E6FFFD0EDBCFE6FF8FDEE552E552DF6A7F
:101EC000DFCF00F0080EE76E0018E8AE02D0E7346E
:101ED00002D0E750005C0BE28A90000000008A828A
:101EE000000000008A9200000000DF2AE9D79380FA
:101EF0009288DF6ADFCF00F00A0EE76E0018E8AEC6
:101F000002D0E73402D0E750005C03E200D0DF2AC1
:101F1000F1D7010EDB6ADF6ADFCF00F0080EE76E53
:101F20000018E8AE02D0E73402D0E750005C1DE2B2
:101F30008A82000000008150010BDF5206E0DFCFF3
:101F4000F3FFE846FE0BF306FCE1006E010EDBCF6B
:101F5000E7FF0050E712010EE7CFDBFF00000000B3
:101F60008A9200000000DF2AD7D702010EBF9298A4
:101F7000939000000000010EDB5000D0E552E552C6
:101F8000E552E5CFDAFFE7CFD9FF1200D9CFE6FF60
:101F9000DACFE6FFE1CFD9FFE2CFDAFFE652E65231
:101FA000E6528A908A808A828A928A90DF6ADFCF9C
:101FB00000F0030EE76E0018E8AE02D0E73402D05E
:101FC000E750005C08E28A82000000008A9200006C
:101FD0000000DF2AECD7010EDB6A020EDB6ADF6A43
:101FE000DFCF00F0080EE76E0018E8AE02D0E7344D
:101FF00002D0E750005C08E28A82000000008A926A
:1020000000000000DF2AECD79380928800000000D7
:10201000DF6ADFCF00F0100EE76E0018E8AE02D0E6
:10202000E73402D0E750005C1FE28A820000000023
:102030008150010B026E036ADF5002C000F003C042
:1020400001F005E0D89000360136E804FBE1D950F4
:10205000010FE96E000EDA20EA6E0050EE12015018
:10206000ED128A92DF2AD5D702010EBF9298939083
:102070008A90010EDBCF00F0020EDBCF01F000C032
:10208000F3FF01C0F4FF00D0E552E552E552E552FE
:10209000E5CFDAFFE7CFD9FF1200D9CFE6FFDACFDD
:1020A000E6FFE1CFD9FFE2CFDAFFE6528A90DF6A9E
:1020B000040EDF5C06E28A82000000008A92DF2ABA
:1020C000F7D7DF6A180EDF5C31E2010E006E016A9D
:1020D000026A036AD950FA0FE96EFF0EDA20EA6E3F
:1020E000EE500016EE500116EE500216EE5003169A
:1020F000005001100210031002E08A8001D08A9083
:10210000D950FA0FE96EFF0EDA20EA6ED890030E6E
:10211000EB32020EEB32010EEB32EF320000000028
:102120008A82000000008A92DF2ACCD78A90E5528A
:10213000E552E5CFDAFFE7CFD9FF12008A80F5D864
:102140008A9060D8ABEF11F08A90EFD88A8002EFC6
:1021500011F0DDD8FD0EDB50E76E010EE7CFDBFF9F
:10216000DF6A080EDF5C0DE2010EDB50800B800899
:1021700002E18A8001D08A90B0D8D7D8ECD8DF2A83
:10218000F0D7938092888A823DD88150010BDF6E10
:10219000E2D802010EBF92989390DF50E552E552CB
:1021A0003ED0B5D89380928892988988010EDB6AD8
:1021B000DF6A080EDF5C08E28A8224D88ED881B0FC
:1021C000DB80C9D8DF2AF5D79288899802010EBF33
:1021D0009298939017D8FD0EDB0402E18A8001D01B
:1021E0008A908A820FD8B7D8010EDB50E552E552AB
:1021F00016D0D9CFE6FFDACFE6FFE1CFD9FFE2CFA5
:10220000DAFF1200020EE66E7DEC36F0E5521200A7
:10221000E66EE66ABAEC34F0E552E5521200E55299
:10222000E5CFDAFFE7CFD9FF1200E66A040EE66ECB
:10223000A5DD99EF11F0B20EE66EC20E6CD8120E4B
:10224000E66E1200E66AE66AE66AE66A26DF99EF5B
:1022500011F0FC0EDBCFE6FFFD0EDBCFE6FF73D8FF
:10226000FA0EDBCFE6FFFB0EDBCFE6FF1200D95004
:10227000F90FE96EFF0EDA20EA6EEECFE6FFEECF41
:10228000E6FFEECFE6FFEFCFE6FF1200FA0EDBCF60
:1022900000F0FB0EDBCF01F0FC0EDBCF02F0FD0EF9
:1022A000DBCF03F01200FA0EDBCF04F0FB0EDBCF26
:1022B00005F0FC0EDBCF06F0FD0EDBCF07F01200C1
:1022C000DECF00F0DDCF01F0D89001501200016A9E
:1022D000026A036A0E0E01121200010EDBCFF3FF39
:1022E000F39EF346F3CFDBFF12000A0E8BEF11F0E3
:1022F0002C0E005C010E0158120093929390899667
:102300008A940A0E85DF8986DE6ADD6A120071DF33
:10231000E652E6521200E66EA5DCE552E5521200E6
:10232000E66E6E0EE66E15EF11F06CDF8A8202EF3C
:1023300011F0E552E552E552E5521200010E68DF58
:10234000E552E5526CD748DCE552E552120001C077
:0C235000E6FF15EF11F08A9202EF11F089
:04235C00D0DBF60ECE
:10236000DBA002D0E7EC0BF002010C510D1130E0C4
:10237000F60EDBCFE6FFF70EDBCFE6FFF80EDBCF86
:10238000E6FFF90EDBCFE6FFD950FA0FE96EFF0E3C
:10239000DA20EA6EEECFE6FFEECFE6FFEECFE6FF05
:1023A000EFCFE6FF05D00DC2FAFF02010C51F96E26
:1023B000FADF006E080EE15C02E2E16AE552E16ECE
:1023C0000050F60EDBA208D07CEC0DF0010E05D01B
:1023D0007CEC0DF0030E01D0020EC1D390DBE6526F
:1023E000E652F60EDBA00CD064EC16F08BEC16F087
:1023F000F6EC15F0070EE66EE66A200EE66E5CDB84
:102400000201106BCBDB1019E8AE02D0E73402D02A
:10241000E750105D01E37CD08A0EE66EE66A240E7A
:102420001CEC16F00A0E67EC16F0800EE66E0F0E2E
:1024300081EC16F0900EE66E010EE66E880E1CEC36
:1024400016F002011029066E076A06BE076839DB1E
:1024500010C202F0036A02BE036858EC16F0DE6E8A
:1024600005C0DDFF060E006E016A200E026E036AD3
:10247000DECF04F0DDCF05F0066A076A066A076A58
:10248000040E1F0B07E0D8900436053606360736D3
:10249000E806F9E10450001205500112065002123C
:1024A00007500312CCDB4DEC10F0C1DB9FDB860E36
:1024B000E66E1B0EE66EBB0EBFDB88EC16F0580E08
:1024C000E66E050E81EC16F0380E67EC16F0A90EDC
:1024D000E66E0A0E81EC16F0390E67EC16F0610E0E
:1024E000E66EE70EE66EA80EA7DB88EC16F0020E8D
:1024F000D0DB88EC16F0610EE66EE70EE66EA90EF4
:102500009BDB64EC16F072DB020E020110277AD717
:10251000E552E55224D37BDB0201116B3FDB11193D
:10252000E8AE02D0E73402D0E750115D27E211C2D5
:1025300000F0016A00BE0168D2DA11C206F0076A33
:1025400006BE0768BEDA11C202F0036A02BE036863
:10255000DCDB11C204F0056A04BE05688CDA11C226
:102560000AF00B6A0ABE0B68D7DA11C204F0056ADA
:1025700004BE0568B8DB02011127D0D7F0D247DBD3
:10258000E66AEF0EB8DAE66AF80EB5DA0201126B07
:1025900005DB1219E8AE02D0E73402D0E750125D35
:1025A00027E212C200F0016A00BE016898DA12C286
:1025B00006F0076A06BE076884DA12C202F0036AF0
:1025C00002BE0368A2DB12C204F0056A04BE0568FD
:1025D00052DA12C20AF00B6A0ABE0B689DDA12C206
:1025E00004F0056A04BE05687EDB02011227D0D71D
:1025F000B6D20DDBA60EE66E840E7DDA0201136BF9
:10260000CDDA1319E8AE02D0E73402D0E750135DFB
:102610002DE213C200F0016A00BE016860DA13C245
:1026200006F0076A06BE07684CDA13C202F0036AB6
:1026300002BE0368C6DAE66E05C0E6FF96DA13C28C
:1026400004F0056A04BE056816DA13C20AF00B6AC4
:102650000ABE0B6861DA13C204F0056A04BE05689D
:10266000B5DA83DA020E02011327CAD778D247DA25
:102670007F0EE66E8E0E3FDA7F0EE66E8C0E3BDA34
:102680000201146B8BDA1419E8AE02D0E73402D0E1
:10269000E750145D27E214C200F0016A00BE016831
:1026A0001EDA14C206F0076A06BE07680ADA14C208
:1026B00002F0036A02BE036828DB14C204F0056A54
:1026C00004BE0568D8D914C20AF00B6A0ABE0B68AA
:1026D00023DA14C204F0056A04BE056804DB0201B3
:1026E0001427D0D73CD20BDAF60EDBCFE6FFF70E7D
:1026F000DBCFE6FFF80EDBCFE6FFF90EDBCFE6FF20
:10270000AEDAEECFE6FFEECFE6FFEECFE6FFEFCF9D
:10271000E6FF7CEC07F0006E080EE15C02E2E16A85
:10272000E552E16E00501BD293DADBA00BD010DA39
:1027300027DAE8AE02D0E73402D0E750005C02E2CC
:10274000A5DAF6D70201156B29DA1519E8AE02D021
:10275000E73402D0E750155D24E219DA154108DAB2
:10276000E8AE02D0E73402D0E750005C08E30FDAAD
:1027700015411DDA04E00BDA15411EDA0EE11529C8
:10278000066E076A06BE07689CD915C202F0036A86
:1027900002BE036870DA0A0EAADA75DA020115279A
:1027A000D3D759D255DADBA00BD0D2D9E9D9E8AECC
:1027B00002D0E73402D0E750005C02E267DAF6D7D5
:1027C0000201166BEBD91619E8AE02D0E73402D03D
:1027D000E750165D24E2DBD91641CAD9E8AE02D033
:1027E000E73402D0E750005C08E3D1D91641DFD9C5
:1027F00004E0CDD91641E0D90EE11629066E076A2C
:1028000006BE07685ED916C202F0036A02BE0368FC
:1028100032DA170E6CDA37DA02011627D3D71BD259
:1028200017DADBA00BD094D9ABD9E8AE02D0E734ED
:1028300002D0E750005C02E229DAF6D70201176BFA
:10284000ADD91719E8AE02D0E73402D0E750175DD2
:1028500023E29DD917418CD9E8AE02D0E73402D0EB
:10286000E750005C08E393D91741A1D904E08FD960
:102870001741A2D90DE11729066E076A06BE07683F
:1028800020D917C202F0036A02BE0368F4D983D9C3
:10289000FAD902011727D4D7DED1DAD9DBA00BD0C1
:1028A00057D96ED9E8AE02D0E73402D0E750005CC9
:1028B00002E2ECD9F6D70201186B70D91819E8AE0C
:1028C00002D0E73402D0E750185D1FE260D918410A
:1028D0004FD9E8AE02D0E73402D0E750005C04E301
:1028E00056D9184164D90DE11829066E076A06BE4B
:1028F0000768E7D818C202F0036A02BE0368BFD9AE
:102900004AD9C1D902011827D8D7A5D1A1D9DBA0AE
:102910000BD01ED935D9E8AE02D0E73402D0E7504B
:10292000005C02E2B3D9F6D70201196B37D9191945
:10293000E8AE02D0E73402D0E750195D1EE227D995
:10294000194116D9E8AE02D0E73402D0E750005C56
:1029500004E31DD919412BD90CE11929066E076A28
:1029600006BE0768AED819C202F0036A02BE036849
:1029700086D989D902011927D9D76DD169D9DBA0A8
:102980000BD0E6D8FDD8E8AE02D0E73402D0E7504D
:10299000005C02E27BD9F6D702011A6BFFD81A1944
:1029A000E8AE02D0E73402D0E7501A5D22E2EFD859
:1029B0001A41DED8E8AE02D0E73402D0E750005C1E
:1029C00008E3E5D81A41F3D804E0E1D81A41F4D875
:1029D0000CE11A29066E076A06BE076872D81AC289
:1029E00002F0036A02BE03684AD94DD902011A27D0
:1029F000D5D731D184D8E652E65202011B6BCED82E
:102A00001B19E8AE02D0E73402D0E7501B5D1DE28F
:102A10001B29066E076A06BE076853D81BC202F060
:102A2000036A02BE0368CDD8DE6E05C0DDFFDECFCF
:102A3000E6FFDDCFE6FF020EE66E4FD9080E68D83E
:102A4000AAD821D902011B27DAD7E552E55287D04F
:102A500027D9020ED0D0B5D8010E00C0DBFF020E80
:102A600005C0DBFF010EDBCFE6FF020EDBCFE6FF8A
:102A7000E66E6DEF16F0066A076AF1D8EE50042490
:102A8000006EEE500520016EEE500620026EEE50F4
:102A90000720036E002A000E012202222CD9010E0B
:102AA000E76EF80EDBCF08F0F90EDBCF09F0E75048
:102AB0000826000E09221200E66A4DEC10F017EF0E
:102AC00016F0F80EDB500624E96EF90EDB500720F5
:102AD000EA6EEFCF04F004C005F0046A1200026A47
:102AE000036ABDD8EE500026EE500122EE500222BD
:102AF000EE507BEF16F0E66EE66A91EF16F0D9CF56
:102B0000E6FFDACFE6FFE1CFD9FFE2CFDAFF12002E
:102B1000EED80A0E49EF16F008500A24E96E095063
:102B20000B20EA6EEFCF06F006C007F0066A010E32
:102B3000E76EF80EDBCF02F0F90EDBCF03F0E750C3
:102B40000226000E03221200060EE66E11EF16F0AA
:102B5000000EE66EE66AE66AC0D8DF6A1200E55249
:102B6000E5CFDAFFE7CFD9FF12009AD8060E43D09F
:102B70007F0BE552E724006E040EE76E001812008A
:102B8000DFCF00F0FA0EDB50E76E00181200FA0EED
:102B9000DBCFE6FF12000E0E77EF16F0F70EDB50DC
:102BA000E76E1200E652E652E652F60E12007F0B76
:102BB000E552E724070812007F0BE552E7240808D6
:102BC000120076D8006E05C001F0120002500424F5
:102BD000E96E03500520EA6EEF5000010610006E0A
:102BE00007C001F0E66E07C0E6FF1200E66AE66A7B
:102BF000E66A5CEF15F04DD88A92010E4AD8000EB5
:102C0000E66EE66A32EC0EF0E552E552120077DF2E
:102C1000A60EE66E8E0E6FDFA60EE66E8C0E7BEFB6
:102C200015F0E66EECEC0DF0E552E5521200E552BF
:102C3000E552E552E5521200E66E5CEF15F000C079
:102C4000E6FF01C0E6FF02C0E6FF03C0E6FF120098
:102C500056DFD2EF15F0E552E552E55280D7D95054
:102C6000FA0FE96EFF0EDA20EA6E1200E66E05C07A
:102C7000E6FF28EF15F0EFDE180E88EF15F0EBDE1B
:102C8000080E88EF15F060DF020E12005DDFDF2A0C
:102C90001200E66EE66ABAEC34F0E552E552120034
:102CA0000F0EE66E3ED8E66A030EBBDF8A82120084
:102CB000F80EDB500224E96EF90EDB500320EA6EB9
:102CC000EF5000010410120023D88BEF16F0E66ECF
:102CD0003B0EE66E880E1CEF16F0060EE66EC5EC97
:102CE0000EF017EF16F072DFB3DE020E1200E66E82
:102CF000060E11EF16F00322A2DFCAEC0DF017EF5B
:102D000016F0E66E200E1CEF16F05BDF36EF16F0C5
:102D10006DDFF6EF15F0E66A010EE66E040E1CEFAD
:0E2D200016F0040EE66EBEEC0EF017EF16F085
:022D2E0096EC21
:102D30001AF0610EE66EE70EE66EA80EA1DBA4ECBB
:102D40001AF0A4EC1AF0DF6ADF50006E016AD89026
:102D5000015004E6C80E005C000E01582CE293DB23
:102D6000020EE66E3B0EE66E800EBCEC1AF0220EF2
:102D7000E66E3C0EE66E880EEFEC1AF079DB01E0B1
:102D8000010E1FDBE1DB020EDB50800B14E00A0EAC
:102D9000DF5C02E2010E01D00A0E006E016A00BE85
:102DA000016800C0E6FF01C0E6FFBAEC34F0E5526E
:102DB000E552DF2AC9D7E9EC1AF0000EC1D3BADA1E
:102DC00062DBFC0EDBCF00F0FD0EDBCF01F0040E6A
:102DD00045DBFEE1026A23DB02BE0368EFDBABDB0F
:102DE0006DDBA9DBE66A080EE1DBCBD2A3DA640E69
:102DF0008DD3A0DA4F0E8AD399DB45DBF40EDBCFFF
:102E000000F0F50EDBCF01F0040E28DBFEE1026AD4
:102E100001BE026804DB02BE0368D0DB020EDB6A7F
:102E2000F70EDB50F36E020EDBCFF4FFF350F45CD1
:102E300001E3BFD0006A87DA046A056A076A0C0EEC
:102E4000DADAFEE1BEDB070E006E7DDAEEDA02E0D2
:102E5000C3DAFEE16CDADE6ADD6ADECF00F0DDCFD8
:102E600001F0060E005C000E01585BE2006A42DBD6
:102E7000020EDB500A6E0B6AC5DA0A501E24086E79
:102E80000B501F20096EF80EDB500824AFDB092021
:102E9000EA6EEFCF04F0056AC8DA02E09DDAFEE1DF
:102EA0003CDB020EDB50126E136AACDA12501E24A9
:102EB000106E13501F20116E010E1026000E1122ED
:102EC000F80EDB50102492DB1120EA6EEFCF0CF0ED
:102ED0000D6A0E6A0F6A0C0E1F0B07E0D8900C36B5
:102EE0000D360E360F36E806F9E10C5000120D5083
:102EF00001120E5002120F500312DECF14F0DDCF7C
:102F000015F0166A176A1450001215500112165067
:102F1000021217500312BADADF2A010E9EE3DB2AEF
:102F20009CD7E66A030EE66EEB0E59DB12DB11DB73
:102F30000C0E006E020EDBCFE7FF0050E726020EFC
:102F4000E7CFDBFFF30EDBCF09F00A6A0B6A0C6AEE
:102F5000020EDBCF05F0066A076A086A44DA052626
:102F6000EE500622EE500722EE50082205C01EF059
:102F700006C01FF007C020F008C021F009C023F0F0
:102F80000AC024F00BC025F00CC026F01DEC36F072
:102F90001AC001F01BC002F01CC003F01DC004F0F9
:102FA0001A501B101C101D1002E1C1DE39D7000E93
:102FB00037D7F30EDBCF08F0096A0A6A0B6A020EF4
:102FC000DBCF04F0056A066A076A0DDA0426EE50C4
:102FD0000522EE500622EE500722D1DA08C023F077
:102FE00009C024F00AC025F00BC026F01DEC36F015
:102FF0001AC000F01BC001F01CC002F01DC003F09D
:103000001A501B101C101D1005E0F60EDB50020BB1
:1030100001E08DDE95D28ED9600EFDD960DA02E234
:10302000E16AE552E16E0050ACD184D9C00E24DAD9
:1030300056DA02E2E16AE552E16E0050A2D17AD995
:10304000E652E65220DA070E006E54DA046805688C
:10305000066A076AC8D9F3D9040E1F0B02E0BCD96F
:10306000FEE165D9F50EDBCF00F0F60EDBCF01F007
:10307000040EF4D9FEE1026AD2D902BE03689EDAD8
:10308000006A38DA046A056A0668076AACD9D7D9D3
:103090000C0EB1D9FEE195DA0101826BF70EDB501F
:1030A000E76E8219E8AE02D0E73402D0E750825DC5
:1030B00039E28229066E076A06BE0768F80EDB5001
:1030C000062494DA0720EA6EEFCF04F004C005F07E
:1030D000046A82C102F0036A02BE0368F80EDB5084
:1030E000022484DA0320EA6EEF5000010410006E1F
:1030F00005C001F0DE6E05C0DDFF060E006EFAD9D8
:10310000DECF04F0DDCF05F090D902E065D9FEE115
:103110000ED91ADA860EE66E1B0E48DA020E01018F
:103120008227BCD7E552E5522CD143DA02E2E16AAC
:10313000E552E16E005025D1FDD8030EE66ECAD9E6
:1031400002E2E16AE552E16E00501BD1F3D8E66A73
:10315000C1D902E2E16AE552E16E005012D129DAEA
:1031600002E2E16AE552E16E00500BD1DFD9DF6A7D
:10317000F60EDBA428D0FA0EDBCF1EF0FB0EDBCF61
:103180001FF0FC0EDBCF20F0FD0EDBCF21F0030E95
:103190001BDAE5EC35F01AC01EF01BC01FF01CC096
:1031A00020F01DC021F0020E0FDA1DEC36F0FA0EF1
:1031B0001EC0DBFFFB0E1FC0DBFFFC0E20C0DBFFD1
:1031C000FD0E21C0DBFFF60EDBA01ED05CD9006A2D
:1031D000E9D820C006F0046A056A076A0C0E0BD90C
:1031E000FEE1EFD9060E006EDDD81EC004F01FC050
:1031F00005F01BD902E0F0D8FEE199D8470EE66E43
:10320000780EE66E200EEBD9F60EDBB44CD0DF6AFA
:103210001ED9E8AE02D0E73402D0E750005C60E28D
:10322000960EE66E0B0EE66EA3D901E0010EC9D82C
:10323000DFCF00F0016A00BE0168A9D8DF28006E68
:10324000016A00BE01682BD90ED9BA0E19D9D60E63
:10325000E66ED30EE66E8CD901E0010EB2D8020EF6
:10326000DF24006E016A00BE016891D8030EDF24DE
:10327000006E016A00BE016812D9DCD879D901E07C
:10328000010E9FD8040EDF24006E016A00BE0168A3
:103290007ED8050EDF24006E016A00BE0168FFD8EB
:1032A000060EDF26B5D7DF6AD2D8E8AE02D0E73403
:1032B00002D0E750005C14E2BDD85AD901E0010EFB
:1032C00080D8DFCF00F0016A00BE016860D8DF2837
:1032D000006E016A00BE0168E2D8020EDF26E4D764
:1032E00078D92ED127D8F60EDB500409E66E0CD81B
:1032F0003DDF006E080EE15C02E2E16AE552E16E3C
:1033000000503FD0E66A4BD1F70EDBCFE6FFF80E58
:10331000DBCFE6FFF90EDBCFE6FFF1D8EECFE6FF1D
:10332000EECFE6FFEECFE6FFEFCFE6FF1200F5D8D7
:1033300046EF1AF0D9CFE6FFDACFE6FFE1CFD9FFAB
:10334000E2CFDAFF1200D6D8020EDBCF08F0096A0E
:103350000A6A0B6AD4D80850EE24046E0950EE2095
:10336000056E0A50EE20066E0B50EE20076E9CD8BC
:103370001EC004F01FC005F020C006F021C007F0F9
:103380001200E552E5CFDAFFE7CFD9FF120000D9EE
:10339000010EDBCFEFFF020EDBCF03F003C002F024
:1033A000036A1200A7D8FA0EDBCF04F0FB0EDBCFC6
:1033B00005F0FC0EDBCF06F0FD0EDBCF07F054EF7F
:1033C0001AF0E66EC6EC0FF0E552DE52F3CFDEFFE8
:1033D000F4CFDDFFDD521200D890043605360636F4
:1033E0000736E80612008BD8EE50120028DE006E79
:1033F000090EE15C1200D890073206320532043221
:10340000E8061200020E206E216ADECF25F0DDCF25
:1034100026F041EF36F0E66E040EE66E12000A0E5C
:103420000012240E0212036A1200066A076A040ED2
:103430001F0B1200B60EE66E0B0EE66E120004169F
:10344000EE500516EE500616EE5007161200DFCFAE
:1034500000F0F70EDB50E76E00181200D89000362F
:103460000136E8041200B60EE66EDB0EE66E1200C0
:1034700002010E51800B1200E66E010EE66E120084
:10348000AED8A4EF1AF060D8E9EF1AF000C0E6FF5A
:1034900001C0E6FF02C0E6FF03C0E6FF80D078D897
:1034A00002C0EFFFA4EF1AF0D890043605360636B6
:1034B0000736030E89D863D81DEF36F0900EDCDF97
:1034C000880EBCEF1AF00A0EE66E3B0EE66E880E12
:1034D000BCEF1AF0400EE66E17DFF6EF19F0400E63
:1034E000E66EF60EDBCFE6FF0FDF86DC006E0B0E1E
:1034F000E15C1200016A200E026E036A1200D950CC
:10350000FA0FE96EFF0EDA20EA6E1200E66E400E48
:10351000E66E55DCE552E55234D7045000120550F2
:1035200001120650021207500312120003DFE65286
:10353000E652E6521200E66AE66A200EBCEF1AF086
:10354000E552E552E5521DD7E66AE66AE66A82EF81
:1035500019F070DFBB0E94DF86DFBB0E91DFB60E75
:10356000E66EEB0E3FD8B60EE66E1B0EF2EF1AF0CB
:10357000BA0E86DF38EF1AF0E66E82EF19F004C05B
:103580001EF005C01FF006C020F007C021F0120099
:10359000F80EDB5000242AD80120EA6E12004DEC10
:1035A00010F0E552E552E552E55212001BD897EFB4
:1035B00016F0C0DE040EE66E6AEF1AF067DF63EF06
:1035C0001AF0B5DE5EEF1AF0236E246A256A266AC9
:1035D0001200E66A020E1FDF95DEA4EF1AF0CCDFC0
:1035E000A4EF1AF0E66EBB0E40EF1AF0E96EF90E8A
:0435F000DB5012009A
:0C35F400090EC26EA60EC06E0F0EC16E56
:103600009284120099DBE652DF6A0C0EC16EC28210
:10361000C2B2FED7C4DBC3CFEFFF010EE76EBFDB44
:10362000E750E926000EEA22C4CFEFFFC168E55259
:10363000A2D3070E8B12F80E9416938CDBDF815009
:10364000400B01E0010E02013D6F92909292939621
:10365000939A93909392939492968996899892884C
:10366000899A928A8A868A9A8A908A92F18E02D858
:1036700046EF1BF0C00EF2129D809E909F80D10EEF
:10368000CF6E1F0ECE6E010ECD6E1200E00EF21246
:10369000F294440ED66EC30ED56E12004DDBFD0EB5
:1036A000DB50010BE81CE8B08B80E8A08B90FD0E8E
:1036B000DB50020BE8407F0BE81CE8B08B82E8A0EF
:1036C0008B92FD0EDB50040BE840E8403F0BE81CFA
:1036D000E8B08B84E8A08B944ED32EDB0A0EE12455
:1036E00002E3E168E652E16E060E0201335D03E398
:1036F0006D50020B02E073DA2BD2400EE66E000E24
:10370000E66E010EE66E1BEC34F0E552E552E55232
:10371000E66ED950020FE96E000EDA20EA6EE5522D
:10372000E750EE6EED6A020EDBCF00F0030EDBCF4A
:1037300001F0013401E3FCD100500008000E0154F7
:1037400001E3F6D101010051C00A01E196D1700AEE
:1037500001E15CD1100A01E103D1300A01E1E5D0B9
:10376000100A01E1D9D0F00A01E1C3D0100A01E149
:10377000ABD0300A01E199D0810A01E17BD0910AF6
:1037800075E0920A72E0E20A61E0100A2BE0300A6A
:1037900022E0C30A07E0030A01E0C5D1010E406F31
:1037A000020117D0010EE66E42EC33F0E552020141
:1037B000376B0A0E375D08E2070EE66EE6DAE66A58
:1037C000E4DA0201372BF5D70101030E406F020145
:1037D000010E376FADD1050EFDDA01C1E6FF11EC28
:1037E0001FF09DD0060EF6DA01018051020A1CE09E
:1037F000010A10E00B0A0EE0010A0CE00D0A02E0DB
:10380000010A21E1B2DAE66AE66AE668E66AB9DA4E
:1038100018E215D0AADAFE0EE66EE6683F0EE66EF6
:10382000E66AAFDA0EE20BD07CEC0DF09EDA060E03
:10383000E66E200EE66EE66AE66AA3DA02E2E16A66
:10384000E552E16E00500201020E86D0050E5CDAF0
:1038500002E07BDAFEE161DA02E067DAFEE1B4DA87
:1038600022EC04F0DADA55E252D00585015108085D
:1038700001E30585060E48DA02E067DAFEE14DDA7B
:1038800002E053DAFEE1C3DA7CDA02E2E16AE552F1
:10389000E16E0050E76E010EE7CFDBFFDB5003085F
:1038A00025E10101030E406F21D0050E2DDA02E063
:1038B0004CDAFEE132DA02E038DAFEE185DAE0ECF9
:1038C00022F0ABDA26E223D0060E1EDA02E03DDA61
:1038D000FEE123DA02E029DAFEE199DA0CEC2AF0C3
:1038E0009CDA02E2E16AE552E16E005001C137F272
:1038F00034D0050E09DA02E028DAFEE10EDA02E041
:1039000014DAFEE161DAAEEC11F087DA02E2E16A84
:10391000E552E16E005004D001C1E6FF20D9E55226
:103920000101406F0201010E17D0B00E006E5D0E56
:10393000016E026A00C0E6FFE66E02C0E6FF62DAD0
:1039400026EC35F0036E050EE15C02E2E16AE55219
:10395000E16E03500201120E376F040E3BDAE8D01D
:10396000070E38DA01010151030A39E0010A0FE0BC
:10397000030A0AE0010A01E0DBD0290EE66EEFD867
:10398000E552E7EC0BF026D07CEC0DF023D002C121
:1039900000F0016A026A036AC0D902E0C6D9FEE1FA
:1039A00005DA100E1F0B07E0D890083609360A36E4
:1039B0000B36E806F9E11DDA00C0E6FF01C0E6FFBC
:1039C00002C0E6FF03C0E6FF4DEC10F0E552E55201
:1039D000E552E5520101010E406F0201A8D0010E2F
:1039E000E66EC6EC0FF0E552020EF3CFDBFF030EDE
:1039F000F4CFDBFF020EDBCF40F1030EDBCF01F093
:103A000001C000F0016A00C041F134D00151050A43
:103A10002DE0010A16E0070A10E0010A08E0030A97
:103A200001E07FD08AA27BD092AA05D07AD08AA06A
:103A300076D092B876D0020E77D08AA472D0050ED6
:103A400073D00201010E376F8AB603D00101040E54
:103A50000BD08AAA02D0010107D089A603D00101A8
:103A6000030E02D00101050E406F62D0CBD9CADD32
:103A7000E552E5520201020E5AD00151040A3AE021
:103A8000070A2FE0010A15E0030A4BE10251030A7D
:103A90000BE0010A05E0030A44E193928A9206D002
:103AA00093928A82929A03D093928A82928A899A76
:103AB00036D00251060A12E0050A0BE0010A05E0C1
:103AC000030A2FE193908A9006D093908A8092986F
:103AD00003D093908A809288899821D0928893808D
:103AE0001ED00251050A04E0060A1BE18A9417D091
:103AF0008A8415D00251050A0FE0010A0BE0070A7B
:103B000005E0020A0EE18A868A8A08D08A868A9AA5
:103B1000898605D08A9601D08A868A9A8996010E6E
:103B200003D0030E01D0030E406F0201010E376F68
:103B3000020137510DE004010CBF08D037C2E6FF87
:103B400061D9F1EC33F0E552E552E5520201376BF1
:103B50000A0EE15C02E2E16AE552E16E0CD1ECD8BA
:103B6000E652FD0EDBCF81F1DF6A420EDF5C0CE234
:103B7000F3D8E8BC8009006EFD0EDB50005C02E16A
:103B800081D802D0DF2AF1D7420EDF5C0FE20201BA
:103B90000F511F0BE8B8E0090A0808E00F511F0B8E
:103BA000E8B8E0090101806F010E17D00101816BB7
:103BB000DF6A420EDF5C09E2CFD8E8BC8009815D94
:103BC00002E160D802D0DF2AF4D702010F511F0BA7
:103BD000E8B8E0090101806F030EE552CCD0020184
:103BE0003851391104E1100E386F270E396F38073C
:103BF000000E395B6DA207D03851391120E18B805E
:103C00008B828B7412000201335102E1010E10D03D
:103C1000330508E0020E335D02E1040E09D0030E05
:103C2000335D02E1020E04D0050E335D03E1040EA4
:103C3000EAEF1EF0060E335D02E102013A6B12005C
:103C40008150400B01E0010E02013D5D07E0815013
:103C5000400B01E0010E3D6F81AC010C000CA6D8B9
:103C6000C8D8040E00C0DBFF050E01C0DBFF060E46
:103C700002C0DBFF070E03C0DBFF05C1E6FF01C189
:103C8000E6FF1200ABD80900F5CF00F20900F5CF2E
:103C900001F20900F5CF02F20900F5CF03F20900A5
:103CA000F5CF04F20900F5CF05F20900F5CF06F2D1
:103CB0000900F5CF07F20900F5CF08F20900F5CFAA
:103CC00009F20900F5CF0AF20900F5CF0BF209005D
:103CD000F5CF0CF20900F5CF0DF20900F5CF0EF289
:103CE0000800F5CF0FF21200E66ED950040FE96E0E
:103CF000000EDA20EA6EEECFE6FFEECFE6FFEECF63
:103D0000E6FFEFCFE6FF120065D802C100F0016ABE
:103D1000026A036A100E1F0B120003C104F0056A49
:103D2000066A076A080E1F0B1200D8900436053683
:103D300006360736E8061200D9CFE6FFDACFE6FFEF
:103D4000E1CFD9FFE2CFDAFF1200D890003601367A
:103D500002360336E806120041D80E0EF626000E93
:103D6000F7220800F5507F0B1200070EE66E020ED8
:103D7000E66E02EF1FF0E552E5CFDAFFE7CFD9FF9D
:103D800012007CEC26F00DEF1FF088DCE552C80E27
:103D9000E66EE66ABAEC34F0E552E5521200FC0E2B
:103DA000DBCFE9FFFD0EDBCFEAFF1200045000126B
:103DB00005500112065002120750031204C108F008
:103DC000096A0A6A0B6A12004ADF060EE66E010EE5
:103DD00074EF1EF0E66E62DCE5521200DF50100D4B
:103DE000F3CFF6FFF4CFF7FF900EF626590EF72229
:103DF000120008500012095001120A5002120B5012
:103E000003121200400EE66E010EE66E120027DF6E
:103E1000400EE66E010E74EF1EF0006E080EE15CBF
:023E200012008E
:0E3E220061DAE7EC0BF00201025103110CE033
:103E3000FD0EDBCFE6FF05D003C2FAFF02010251FF
:103E4000F96EFADFE55205D08A907CEC0DF0030E96
:103E500003D07CEC0DF0010E51D22EDB4FD218DBDB
:103E6000E66AE66AE66A3DDBE66A010EE66E040E85
:103E7000E66E37DB8A0EE66EE66A77DB800EE66E6C
:103E80000F0EE4DA900EE66E010EE66E880E8EDB03
:103E9000670EE66EE66A200E89DBE66A030EE66EC2
:103EA000EB0EE66E1EDBDE6ADD6ADFDA020E005C18
:103EB000000E015818E2860EE66E1B0EE66EBB0E73
:103EC00075DB580EE66E050EC1DAA90EE66E0A0E17
:103ED000BDDA380E8BDA2FDBC90E4CDBDF2A010E80
:103EE000E4E3DB2AE2D7FA0EE66E070EE66E3DDB70
:103EF000580EE66E050EAADA380E78DAA90EE66ECE
:103F00000A0EA4DA18DB030E35DBE552E552F6D1D2
:103F1000EAD90EDB830ED5DA880ED3DA890ED1DA30
:103F20008A0ECFDA060EC9D9A60EE66E8E0E6EDAAE
:103F3000A60EE66E9C0E6ADAE66AE66A200EE66E69
:103F4000E66ACAEC0DF026DBA60EE66E840E5EDA9B
:103F5000A60EE66E880E5ADA550ED4DAAA0ED2DA1A
:103F6000A60EE66E820E52DAECDA1DDBA60EE66EC7
:103F7000940E4CDAC3D16EDAE668E66810DBD8DA64
:103F8000870E17DB900E78D265DA3F0EB0DA0BDBC6
:103F9000B5D160DA0F0EABDA100E97D9AFD1A3D935
:103FA000C7DA800E8EDAAAD19ED9E652C1DA020EA5
:103FB00006DABEDA040E03DABBDA050E00DA010E09
:103FC000DF6EDF5015E0B4DA040EA4DADFCF02F0C2
:103FD00002C003F0026ADF5000010210006E03C04D
:103FE00001F0E66E03C0E6FF71DADF9EDF46E9D737
:103FF000E55284D12FDA010EFFD9800EDADAF40E01
:104000003BD228DA0F0E73DA070E5FD977D10BDABD
:1040100048D269D946D23CDAE652E652070EE66E3D
:10402000020EE66E49DAB5D97CEC26F0006E080E79
:10403000E15C02E2E16AE552E16E0050CCD9010E8A
:10404000DB50310B006E310E005C06E3300EDF14E6
:10405000016E300E015C17E217DA020EDB6A030E06
:10406000DB6A020EDBCF00F0030EDBCF01F0D8904D
:10407000015001E69CD90DE24CD9020EDB2A030E59
:10408000F0E3DB2AEED7BDD9C5D967D9030EE66EBA
:1040900030D9C0D9040EE15C02E2E16AE552E16E7A
:1040A0002DD1F6D9F1D9DE6ADD6ADFD9D890015079
:1040B00001E67DD906E22DD9DF2A010EF6E3DB2ADF
:1040C000F4D74FDA18DA4DDA8DD985D9DDD9090E52
:1040D00012DA81D996D90B0EFFD8080EBFD9E55256
:1040E000E5520CD1A0D930DA09D1D2D908DADE6A8A
:1040F000DD6ABBD9080E005C000E015806E209D942
:10410000DF2A010EF6E3DB2AF4D71EDAE552E55288
:10411000F5D089D91F0EA6D9F1D0E5D8080EE12433
:1041200002E3E168E652E16E040EDB6A050EDB6A2B
:1041300037D9FF0E005C030E015807E2EAD8040EDF
:10414000DB2A050EF5E3DB2AF3D71EDAD8D9040EF5
:10415000DB6A050EDB6A24D92AD907E2DAD8040E15
:10416000DB2A050EF8E3DB2AF6D767D9F3CF00F098
:10417000F4CF01F0000E0016300E0116020E00C042
:10418000DBFF030E01C0DBFFBAD9090E6BD90B0EA2
:1041900069D97CEC0DF007DAFD0EDB50AA0827E0A8
:1041A00064D97AD9060EBCD9C3D8E668030EE66E88
:1041B000CCD802E2E16AE552E16E0050060EDB68FF
:1041C000020E030EDBCF01F001C000F0016A0F0EFA
:1041D0000012000E0112ACD8DCD8AEEC11F0006E6B
:1041E000080EE15C02E2E16AE552E16E0050080E61
:1041F000E15C02E2E16AE552E16E80D0C0D97ED096
:1042000072D8FFD8090E77D97AD9FBD8080E64D8AE
:10421000090EE8D80B0E6FD98A9070D0B0D90B0E6A
:10422000E1D88A906BD05FD874D8090EDBD866D0FD
:104230005AD8A7D803E1E66A010EF8D88BD910E066
:10424000B2D9040EE66E010E6FD866D88AD8E66A37
:104250007CD802E2E16AE552E16E00500A0E35D8E0
:10426000040EE15C02E2E16AE552E16E47D03BD820
:1042700088D803E1E66A020ED9D86CD912E0040EA0
:10428000E66E020E51D88FD947D8070E6AD8010EB4
:10429000E66E5BD802E2E16AE552E16E00500A0E7A
:1042A00014D8040EE15C02E2E16AE552E16E26D028
:1042B000040EE66EBEEC0EF0DDD0E66EE66A3C0E55
:1042C000E66EE66ACAEC0DF0D5D0E66EE66ABAECA8
:1042D00034F0E552E5521200E66E060EE7D0E66ACB
:1042E0004DEC10F0C7D0E8D8E1CFD9FFE2CFDAFF2C
:1042F0001200060EE66EC5EC0EF0BCD0E552E5CF1E
:10430000DAFFE7CFD9FF1200000EE66EE66AE66A32
:104310001200060EE66ECAD0A8D8BED8020E00D98A
:10432000030E00C0DBFF120081D82ED97CEF0DF008
:10433000070E00C0DBFFE66E020EE66ED950060FD8
:10434000E66E000EDA20E66E1200E66AE66A22ECFD
:1043500004F0006E080EE15C1200E6683F0EE66EA7
:104360001200E66E020EE66ED950020FE66E000EE7
:10437000DA20E66EE6681200610EE66EE70EE66E83
:104380001200E652E652E652E652FD0EDB50AA0853
:104390001200070EE66E200EE66EE66AE66A12006E
:1043A000040EDBCF00F0050EDBCF01F01200070E8C
:1043B000005C000E01581200F2D8A1EF22F0AAD83A
:1043C000000EE66EE66A66EF22F0F0D8E66AE66A6C
:1043D000E66A71EF22F07CEC0DF0E5D8E7EC0BF02B
:1043E000D3EF22F079DF140E65EF21F0E66E3B0E7D
:1043F000E66E880ED6EF22F0E66EE66ED0D898EF25
:1044000022F0ABDF020EE66E79EF21F0E66EE66A8F
:1044100058EF21F0A6D860DF080E5EDF080E55DFEA
:10442000A0D86CEF21F05FDF7FEF22F0E66EE66A46
:10443000E66A9EEC0DF0CAEF22F0040EE66E060E60
:10444000E66ECCEC0EF0E552E5521200E66E200E60
:10445000D6EF22F048DF050E5DEF21F03DDF060EBE
:1044600065EF21F039DFD3EF22F0DECF00F0DDCFB2
:1044700001F01200CAEF22F0E66E010EE66EBAEC11
:1044800034F0E552E5523AD768DFE66A79EF21F079
:104490002ADFE652E6521200FF0E0016000E011649
:1044A0001200090E19DF1E0E10DF28D7E66EECECA5
:1044B0000DF0E552E5521200D9CFE6FFDACFE6FF64
:1044C0001200E66EE66A78DFD3EF22F068D8060EB7
:1044D000F4DE800EE66EE66E62D86FD8060E65EFEB
:1044E00021F0FDDEE66AE66AE66A6FEF21F084DF1E
:1044F0008F0ED9EF22F0F0DE080EF2EF21F004DF8C
:1045000079EF21F0E66E0E0E81DFA70EE66E6E0EDD
:1045100006EF22F0E66EE66E42D8050E5DEF21F062
:1045200000C0DBFFA2DF01C000F0016A4CEF22F007
:10453000040E5DEF21F0390E59DF1EDFA80EE5EF06
:1045400021F03BD8DDEF22F0090E88DF44DF0B0EAF
:104550002EEF22F0DEDE090E85DFFD0EDB50AA080D
:104560001200010EB9DE070E1200240E1FD80A0E2B
:10457000F6EF21F0AADE00DFA90EE5EF21F053DF10
:1045800040DF090EF2EF21F058DFF3CFDEFFF4CF6A
:10459000DDFF1200E552E552E552E55212000C0E25
:1045A000E66E58EF21F00A0E65EF21F0E66E6FEF30
:1045B00021F0E66EE66EDCEF21F0A6DE58EF21F08A
:1045C00044DBF60EDBA002D0E7EC0BF002010A514F
:1045D0000B1130E0F60EDBCFE6FFF70EDBCFE6FF88
:1045E000F80EDBCFE6FFF90EDBCFE6FFD950FA0F6E
:1045F000E96EFF0EDA20EA6EEECFE6FFEECFE6FFC1
:10460000EECFE6FFEFCFE6FF05D00BC2FAFF0201C7
:104610000A51F96EFADF006E080EE15C02E2E16A0F
:10462000E552E16E0050F60EDBA208D07CEC0DF0F6
:10463000010E05D07CEC0DF0030E01D0020E0ED35E
:10464000FAD9E652A8DA52DBE0DAE66A010EE66E43
:10465000040E25DB5A0EE66EE66A240ED6DA0A0E42
:1046600026DBDF6A22DAE8AE02D0E73402D0E75078
:10467000005C01E3B3D0F00EE66E070E2BDB900E6C
:10468000E66E010EE66E880EC0DA070E006E016A55
:104690002F0E026E036ADFCF08F0096A0A6A0B6AFE
:1046A00008AE03D009680A680B68DEDA0850EE2409
:1046B000046E0950EE20056E0A50EE20066E0B5077
:1046C000EE20076E0F0E0516066A076A040E1F0B12
:1046D00002E00ADAFEE1F0D99BDA006A016A200EF4
:1046E000026E036ADFCF08F0096A08BE0968ADD917
:1046F00002E0FAD9FEE1E0D9DF280E6E0F6A0EBEA5
:104700000F68B3D902E002DAFEE18BD9010E09DAB3
:10471000020EDF24086E096A08BE096896D902E015
:10472000E3D9FEE1C9D9030EDF240E6E0F6A0EBE77
:104730000F689BD902E0EAD9FEE173D9020EF1D9E4
:10474000040EDF24086E096A08BE09687ED902E0FB
:10475000CBD9FEE1B1D9050EDF240E6E0F6A0EBE75
:104760000F6883D902E0D2D9FEE15BD9030ED9D913
:10477000060EDF24086E096A08BE096866D902E0E1
:10478000B3D9FEE199D9070EDF240E6E0F6A0EBE73
:104790000F686BD902E0BAD9FEE143D9E66A030E8D
:1047A000E66EEB0E7CDA010EDB6ADBCF00F0040E66
:1047B000E76E0018E8AE02D0E73402D0E750005CA4
:1047C0000AE2B60EE66E1B0EE66EBB0E68DAE3D9A1
:1047D000010EDB2AEAD7080EDF2644D7580EE66E14
:1047E000050E78DA380E63DAA90EE66E0A0E72DA72
:1047F000390E5DDA610EE66EE70EE66EA80E4FDA50
:10480000CAD9020E10DAC7D9C6D9610EE66EE70E14
:10481000E66EA90E44DA6ADA42DAE55214D1C0D95A
:1048200044D9E8AE02D0E73402D0E750005C18E289
:1048300074D904BE056841DA04BE056842DA02BED6
:10484000036889D9550EFBD9AA0EF9D9A60EF2D95B
:10485000A60E99D903E102013251FAE1CFD9E0D78E
:10486000E552F1D09DD921D9E8AE02D0E73402D08B
:10487000E750005C19E251D904BE05681EDA04BE97
:1048800005681FDA02BE036866D9A60EE66E820EC0
:1048900003DA1BDA1ADA2FD9A60E75D903E1020161
:1048A0003251FAE1ABD9DFD7E552CDD079D9FDD875
:1048B000E8AE02D0E73402D0E750005C14E22DD914
:1048C00004BE0568FAD904BE0568FBD902BE0368B8
:1048D00042D9A60EAFD9A60E56D903E10201325134
:1048E000FAE18CD9E4D7E552AED0A5D8E6527F0ED6
:1048F000E66E9E0ED1D97F0EE66E9C0ECDD9DF6A94
:10490000D4D8E8AE02D0E73402D0E750005C23E20E
:1049100004D904BE056827D9620E65D904BE0568AE
:1049200006D9630E5BD902BE0368A5D9610ED6D93C
:104930007F0EE66E840EB0D97F0E7CD97F0E23D910
:1049400003E102013251FAE1DED87F0EE66E940EE9
:10495000A3D9DF2AD5D7E55276D06DD8DF6AA5D89E
:10496000E8AE02D0E73402D0E750005C0AE2DFCFC5
:1049700000F0016A00BE01684ED80A0E37D9ABD8E4
:10498000EED761D058D8DF6A90D8E8AE02D0E734CD
:1049900002D0E750005C0AE2DFCF00F0016A00BEFF
:1049A000016839D8170E22D996D8EED74CD043D803
:1049B000DF6A7BD8E8AE02D0E73402D0E750005C73
:1049C00008E2DFCF00F0016A00BE016824D883D876
:1049D000F0D739D030D8DF6A68D8E8AE02D0E734F3
:1049E00002D0E750005C0CE2DFCF00F0016A00BEAD
:1049F0000168E2D8080EFAD8080E15D96CD8ECD7A1
:104A000022D0E66A040EE66EBEEC0EF04BD1E66AEA
:104A10004DEC10F047D1D0D8180EE8D8080E13EF9F
:104A200026F00A5000120B5001120C5002120D50C9
:104A3000031208EF26F009D9E6521200066A076A47
:104A400013D9EE501200E55209D1F80EDB500824BC
:104A5000E96EF90EDB500920EA6EEFCF04F0056A2B
:104A6000066A076A040E1F0B1200F80EDB500E24B4
:104A7000E96EF90EDB500F20EA6EEFCF0AF00B6AF9
:104A80000C6A0D6A0C0E1F0B1200020EE66E040E6D
:104A9000E66E4CEC0FF0E552E552E76E010EE7CF03
:104AA000DBFFDB50020B02081200DFCF00F0F70E35
:104AB000DB50E76E0018120004500012055001127E
:104AC00006500212075003121200016A026A036ABA
:104AD0000E0E01121200060EE66EE66EECEC0DF004
:104AE000E552E552DF2A1200D89004360536063624
:104AF0000736E8061200050EE66EE66A9FEC34F013
:104B0000E552E5521200010E13EF26F0D8900A3656
:104B10000B360C360D36E8061200DFCF04F0056ABE
:104B20001200006E016A200E026E036A120086DF18
:104B30000426EE500522EE500622EE50072205C054
:104B400000F006C001F007C002F00001036ABDDFFB
:104B500005C0E6FFC7D08FD8A80EC0D8A60EE66E57
:104B6000840E4CEF26F06ADF0424006EEE50052020
:104B7000016EEE500620026EEE500720036EA5DF98
:104B800000C0E6FFAFD0E66E500E86D8F50EA6D870
:104B90009CD845EF25F0E66AE66AE66A07EF25F05D
:104BA0004ADFE652A60EE66E9E0E76D8A60EE66E9A
:104BB0009C0E72D8DF6A1200F80EDB500024E96EFA
:104BC000F90EDB500120EA6EEF50E66EE66A030E46
:104BD000E66E060EE66EC5EC0EF064D07FD8DFCF31
:104BE00002F0036A12007AD88DEF25F0E66E060E09
:104BF000E66EECEC0DF0E552E552120084DFA60EF5
:104C0000E66E940E49D8DF2A1200E66E07EF25F013
:104C100000C0E6FF01C0E6FF02C0E6FF03C0E6FFFA
:104C20004DEC10F03FD0E66EE66ABAEC34F0E55297
:104C3000E5521200E66E820E2FD87BEF25F0E66E6D
:104C40000E0E2AD8A70E6EEF26F0D9CFE6FFDACFE8
:104C5000E6FFE1CFD9FFE2CFDAFF1200E552E5CF60
:104C6000DAFFE7CFD9FF1200D950FA0FE96EFF0E35
:104C7000DA20EA6E1200F80EDB500224E96EF90E1B
:104C8000DB500320EA6EEF50006E016AE8500E0E12
:104C9000011200C0E6FF26D0E66E01EF25F0B5DF79
:104CA000CBEF25F0E552E552E552E5521200E66EF3
:104CB0003B0EE66E880E05EF26F055DFA90EF3EFEA
:104CC00025F035DFAA0EEEEF25F0000EE66EE66A5F
:104CD00001EF25F0E66E200E05EF26F0E66E6E0E73
:104CE0004CEF26F001C0E6FF01EF25F054DFE66A45
:084CF000010EE66E040E120035
:084CF80037DADF6AF60EDBA0DB
:104D000002D0E7EC0BF00201045105112AE0F60E87
:104D1000DBCFE6FFF70EDBCFE6FFF80EDBCFE6FFDB
:104D2000F90EDBCFE6FFD950FA0FE96EFF0EDA205D
:104D3000EA6EEECFE6FFEECFE6FFEECFE6FFEFCF77
:104D4000E6FF05D005C2FAFF02010451F96EFADF51
:104D5000006E080EE15C02E2E16AE552E16E00508D
:104D600012D0DF6A24DBE8AE02D0E73402D0E7508D
:104D7000005C09E2DFCF00F0016A00BE0168EBD9F8
:104D8000EF6ADF2AEFD7F60EDBA202D07CEC0DF043
:104D9000E55227D2E9D9DF6A9EEC10F094DAD89078
:104DA00001320032E804FBE10E0E0016000E01167F
:104DB000A00E00101CDA87DAD89001320032E80425
:104DC000FBE10E0E0016000E0116A10E0010C5DA52
:104DD000DF6AEDDAE8AE02D0E73402D0E750005CDB
:104DE00006E2E66A43DA00BE0168E5DAF2D7A4EC2F
:104DF00010F0E552F6D1B8D9DF6A9EEC10F00BDA6C
:104E000059DA02E3080E01D0000EA009A6DA006A02
:104E10000168026A036AFFD9EE500016EE500116CF
:104E2000EE500216EE500316080ED89003320232EE
:104E300001320032E806F9E10050D9D9ECD93ADA6A
:104E400002E3080E01D0000EA10987DADF6ADFCF86
:104E500000F0F70EDB04E76E0018E8AE02D0E7348E
:104E600002D0E750005C06E2E66A00DA00BE0168A4
:104E7000A2DAEDD7010EE66EF9D900BE01686BD952
:104E8000E552E750EF6EA4EC10F0E552AAD196DAA5
:104E9000DBA452D0DBA01ED09DDA41DA006A016AA1
:104EA000200E026E036A046A056A0668076AB3D9AF
:104EB000EE500416EE500516EE500616EE5007168C
:104EC0000C0E04DAFEE13ADAE66A41DA800EE66EAA
:104ED0003EDA80DA020EDB6A74DAE8AE02D0E7343A
:104EE00002D0E750005C01E38ED0B60EE66E0B0EEA
:104EF0000FDA200EE66E3C0EE66E880EE66E26D9C0
:104F000031DA01E0010ECFD9DBCF00F0016A00BE3B
:104F1000016879DADBCF02F0040EDBCF03F0000E7C
:104F20000216FF0E0316B2D900BE016814D902C0E2
:104F3000EFFFF5D992D9D0D74DDAF1D9006A28D947
:104F400020C006F0046A056A076A0C0EBFD9FEE1AC
:104F5000F5D9060E006E1CD91EC004F01FC005F066
:104F6000066A076A040E1F0B07E0D8900436053660
:104F700006360736E806F9E101D9800EE66EE7D974
:104F80002EDA1B0EC5D92BDA0B0EC2D9DE6ADD6A0A
:104F90001CDA060E005C000E015834E216DA026AD2
:104FA000036A008A3C0E0112880E0212BBD9DAD9BC
:104FB00001E0010E78D9DBCF02F0036A02BE03687C
:104FC00031D921DADBCF04F0040EDBCF05F0000E7F
:104FD0000416FF0E051605C004F0056A020EDBCFAD
:104FE00002F0036A02BE03681DD9010E0026000EFE
:104FF0000122B1D804C0EFFFEDD9DF2A010EC8E3CA
:10500000DB2AC6D703DA050EE15C02E2E16AE5526B
:10501000E16EE7D0A9D8DF6AFED8EECFE6FFEECF8B
:10502000E6FFEECFE6FFEFCFE6FFCAEC0DF0E6D9E4
:10503000DF6ABDD9E8AE02D0E73402D0E750005CA9
:105040000EE2090E5DD94CEC0FF0E552E552E66E2A
:10505000DFCF00F0016A00BE0168ADD9EAD7E552A2
:10506000C0D0ACD9DBA01CD0DBA40FD0000EE66E04
:10507000E66AE66A060EE66EC5EC0EF0BFD9CBD83E
:10508000EE52EE6AEE6AEE6A01D071D9DE6ADD6A2E
:10509000D8D806E2B8D8DF2A010EFAE3DB2AF8D71F
:1050A000020EDB6A8ED9E8AE02D0E73402D0E750B8
:1050B000005C09E269D900BE01684DD80ED900BE76
:1050C00001685ED9EFD7050EE15C02E2E16AE552C4
:1050D000E16E87D073D9DBA412D07ED8DBCF01F08C
:1050E00001C000F0016A010EE76EFED8E750E92624
:1050F000000EEA2200C0EFFFF7D806D920D0DBA0CF
:105100000BD081D8DE6ADD6A9CD806E27CD8DF2A23
:10511000010EFAE3DB2AF8D7020EDB6A52D9E8AEB9
:1051200002D0E73402D0E750005C09E22DD900BE7E
:10513000016811D8D2D800BE016822D9EFD7050E78
:10514000E15C02E2E16AE552E16E4BD0E66A4DECC9
:1051500010F0FEEF29F0F80EDB500024E96EF90E96
:10516000DB500120EA6E1200D9CFE6FFDACFE6FF6E
:10517000E1CFD9FFE2CFDAFFE6521200045000126D
:1051800005500112065002120750031292EF29F047
:10519000016A200E026E036AFA0EDBCF04F0FB0EEA
:1051A000DBCF05F0FC0EDBCF06F0FD0EDBCF07F00A
:1051B000D8900436053606360736030E236E246A69
:1051C000256A266A04C01EF005C01FF006C020F044
:1051D00007C021F01DEF36F0CAD8DBD8030E040E4D
:1051E0001200E552E5CFDAFFE7CFD9FF1200B5D8BC
:1051F000D7D8FC0EDBCF02F0FD0EDBCF03F0005062
:10520000ACD89EEF10F0060EE66EE66EECEC0DF0FC
:10521000E552E5521200D950FA0FE96EFF0EDA207E
:10522000EA6E1200206E216ADECF25F0DDCF26F077
:1052300041EC36F002501E24006E03501F20016E18
:105240001200C3D8FA0EDBCF02F0FB0EDBCF03F067
:105250000250005C035001581200020EDBCFE7FF42
:10526000E850E726020EE7CFDBFF1200D1EC10F08A
:10527000E552E66EDFCF00F0016A1200E652E65218
:10528000E652E652020EDB6AF60E120003C002F08E
:10529000036A020EDB28006E016A1200F70EDB5073
:1052A000E76E00181200E66EC6EC0FF0E55271D8FA
:1052B000020E1200000EEE5C000EEE58010EEE58CB
:1052C000000EEE5812006CD8070E1200D89007326C
:1052D000063205320432E806120002C0EFFF020E69
:1052E000DBCF00F0016A1200F80EDBCFE9FFF90E08
:1052F000DBCFEAFF1200E552E750EF6EDF2A120023
:10530000E66E040EE66E1200030EDBCFEFFF120016
:10531000E66EBA0EE66E1ADF5DD8EAEF29F05AD8CB
:1053200006EF2AF000C0E6FF01C0E6FF02C0E6FF7C
:1053300003C0E6FF4DEC10F0FEEF29F01FDF900EEA
:10534000E66E010EE66E880EE66EA6EF28F0030EFE
:10535000E66EEB0EE66EA6EF28F0E66EA9EC10F016
:10536000E552120037D802010E51800B1200040ED4
:10537000E66E060EE66ECCEC0EF0E552E55212003B
:1053800042D841DF2DEF29F027DFDBCF03F046EFD6
:1053900029F0030EF3CFDBFF040EF4CFDBFF120086
:1053A000FA0EDBCF00F0FB0EDBCF01F01200DFCFF7
:1053B00000F04EEF29F0CFDE7BEF29F0D5DE3EEF97
:1053C00029F0DBCF00F04EEF29F0DECF00F0DDCF8B
:1053D00001F01200E66AE66AE66AA6EF28F0960E89
:1053E000E66E1B0E95DFB60EE66EDB0E91DFD60E77
:1053F000E66EDB0E8DDFB60EE66E1200E552E5526C
:10540000E552E5521200A7DE84EF29F0E66A010EAC
:0854100077DF9CDEEAEF29F0D2
:0854180006DADF6AF60EDBA0E4
:1054200002D0E7EC0BF00201065107112AE0F60E5C
:10543000DBCFE6FFF70EDBCFE6FFF80EDBCFE6FFB4
:10544000F90EDBCFE6FFD950FA0FE96EFF0EDA2036
:10545000EA6EEECFE6FFEECFE6FFEECFE6FFEFCF50
:10546000E6FF05D007C2FAFF02010651F96EFADF26
:10547000006E080EE15C02E2E16AE552E16E005066
:1054800014D0DF6ADFCF00F0F4D9E8AE02D0E73401
:1054900002D0E750005C09E2DFCF00F0016A00BEF5
:1054A0000168B8D9EF6ADF2AEDD7F60EDBA202D089
:1054B0007CEC0DF0000EE552C5D1B5D9E652E652AE
:1054C000E652E652040EDB6AF9D996D9EBD9F00E12
:1054D000E66E070EE66E200E08DA900EE66E010EFE
:1054E000E66E880E02DA060E006E016A2F0E026E5C
:1054F000036A04680F0E056EA0D90416EE50051657
:10550000EE500616EE500716040E1F0B07E0D8905B
:105510000436053606360736E806F9E1045000126F
:10552000055001120650021207500312CCD9B3D90C
:10553000040EDB6ADBCF00F09CD9E8AE02D0E73482
:1055400002D0E750005C01E38BD0800EE66E030EC4
:10555000E66EEB0EE66EE66A4FD9DE6ADD6A83D947
:105560000DE2B60EE66E1B0EE66EBA0EBED9A6D9D9
:1055700043D9DF2A010EF3E3DB2AF1D7DE6ADD6AC5
:1055800072D962E2ADD9026A036A008A3C0E011246
:10559000880E021298D930D902010E51800B01E019
:1055A000010EE66EC6EC0FF0E552020EF3CFDBFF04
:1055B000030EF4CFDBFF040EDBCF02F0036A02BE62
:1055C0000368020E206E216ADECF25F0DDCF26F0C3
:1055D00041EC36F002501E24006E03501F20016E75
:1055E00019D9020EDBCFEFFFDBCF06F0030EDBCFC6
:1055F00007F0000E0616FF0E071607C006F0076A32
:10560000040EDBCF02F0036A02BE0368DECF04F0B3
:10561000DDCF05F0010ED89004360536E806FBE133
:10562000010E0426000E052202500424006E0350D1
:105630000520016EEFD806C0EFFF40D92CD9DF2A34
:10564000010E9EE3DB2A9CD72DD9080E006E040EB6
:10565000DBCFE7FF0050E726040EE7CFDBFF6AD77A
:10566000050EE15C02E2E16AE552E16EEBD0DBD8C7
:10567000DF6AA60EE66E9E0E3CD9A60EE66E9C0E66
:1056800038D9DF6ADFCF00F0F4D8E8AE02D0E734D3
:1056900002D0E750005C5DE2DFCF04F0056A04BE93
:1056A0000568CBD80424006EEE500520016EEE5044
:1056B0000620026EEE500720036E016A026A036A3A
:1056C0000E0E0112E3D89CD8A90EF4D8DFCF04F057
:1056D000056A04BE0568B1D80426EE500522EE50D6
:1056E0000622EE50072205C000F006C001F007C0F8
:1056F00002F00001036A016A026A036A0E0E0112D7
:1057000005C0E6FF01C0E6FF7BD8AA0ED3D8A60EDF
:10571000E66E800EEED8A80EE66E500EEAD8F50EB4
:10572000C9D8000EE66EE66A6BD8020EE66E040E6D
:10573000E66E4CEC0FF0E552E552E66EDFCF00F07E
:10574000016A00BE016866D8E552E750EF6EDF2AB5
:1057500099D7E55277D067D8E652E652020EDB6A57
:10576000F60EDB50010B29E0B4D8D880000EEE54C1
:10577000000EEE54000EEE54000EEE541EE268D8F9
:10578000F80EDBCFE9FFF90EDBCFEAFFE552E75079
:10579000EF6EDE6ADD6AA4D8FA0EDBCF02F0FB0EF4
:1057A000DBCF03F00250005C0350015806E266D8DC
:1057B000DF2A010EF0E3DB2AEED7020EDB6ADBCF35
:1057C00000F057D8E8AE02D0E73402D0E750005CD2
:1057D0000FE23ED8020EDBCF00F0016A00BE016886
:1057E00019D8E552E750EF6E49D8020EDB2AE7D709
:1057F000E552E552E55226D04ED860D84BEF2CF05A
:10580000E66A040EE66EBEEC0EF0E552E552E55295
:10581000E5521200F80EDB500024E96EF90EDB5061
:105820000120EA6E1200D9CFE6FFDACFE6FFE1CF22
:10583000D9FFE2CFDAFFE6521200066A076A49D8BA
:10584000EE501200E552E5CFDAFFE7CFD9FF1200A4
:10585000050EE66E060EE66ECCEC0EF0E552E55255
:10586000F350E66E12003CD8040E005C000E0158A6
:105870001200F70EDB50E76E00181200060EE66EFF
:10588000E66EECEC0DF0E552E552120000C0E6FFCA
:1058900001C0E6FF12004DEC10F0E552E552E55272
:1058A000E5521200E66A010EE66E040EE66EE66A46
:1058B000FCEF2BF0E66E6E0E79EF2CF0E66AE66AEE
:1058C000E66AE66A1200E2DF02C0E6FF03C0E6FF16
:1058D0001200D950FA0FE96EFF0EDA20EA6E1200BC
:1058E000DECF00F0DDCF01F01200E66EE66A4BEF8E
:0858F0002CF0E66E00EF2CF035
:0858F800376031602B60256070
:105900001F6017600F600B600460FD5FF45FEC5F69
:10591000E35FDA5FD25FCA5FC25FBA5FB25FAB5F5D
:10592000A35F9B5F945F8D5F865F7F5F775F705F34
:10593000685F605F585F505F485F405F395F315F0D
:10594000295F225F1A5F115F085FFF5EF65EEC5E03
:10595000E25ED85ECF5EC65EBC5EAE5EA25E9B5E61
:10596000945E8F5E875E7F5E775E6F5E665E5D5E75
:10597000545E4B5E435E375E2D5E225E195E105EA6
:10598000065EFC5DF25DE75DDD5DD25DC85DC15D1B
:105990005A185E3E8E4EBA54D2094046DC23290581
:1059A0005A185E3E8E4EBA54D2094046DC23C005DA
:1059B000D01A5A3E944D0000C8080000000032077B
:1059C000D01A5A3EF64D00003C0900000000330793
:1059D000EA173042D4500000DE110000F4292C00F8
:1059E000EA176E42D4500000DE110000F4292D00A9
:1059F000EA176E42D4500000DE110000F429340092
:105A0000EA17FC4162505657FC0FD44928272E0252
:105A100022181A4162505657CA0F5A490C290502DA
:105A200022181C42625056571611D4490C290602FE
:105A3000EA170000625056570000D44900001802CF
:105A4000EA170000625056570000D44900001A02BD
:105A5000EA170000625056570000D44900001902AE
:105A6000EA170000625056570000D44900001502A2
:105A7000EA170000625056570000D4490000170290
:105A8000EA170000625056570000D4490000140283
:105A9000EA170000625056570000D4490000160271
:105AA000EA17E44062505657CA0FD4497C2939029C
:105AB000EA172642D4500000DE110000F4290E003F
:105AC000EA172642D4500000DE110000F4290F002E
:105AD000EA172642D4500000DE110000F42911001C
:105AE00022181C4262505657CA0FD4490C2903028F
:105AF0002218A24062505657CA0FD4490C290402FA
:105B0000EA170E4062505657DA10D44920282F0267
:105B1000EA171240625056575010D4499A280C0286
:105B2000EA17E440625056579E105A49282710023F
:105B3000EA171240625056575010D4499A280A0268
:105B4000EA171240625056575010D4499A28090259
:105B5000EA17124162505657541184490C29080221
:105B6000EA17004262505657CA0FAE490C29070285
:105B7000221812416250565754118449A4270D022D
:105B8000EA171241625056579411D4490C29020267
:105B9000EA17164062505657CA0FD4490C290B0217
:105BA000EA17E440625056579E10D4497C291302EC
:105BB000EA17EA406250565754115A490C2912020A
:105BC000EA170000625056570000D44900001C023A
:105BD000EA170000625056570000D44900001B022B
:105BE000EA17024014506E56F60DAC48F2253C03FD
:105BF000EA17024014506E56A60DAC48F2253E033B
:105C0000EA17000014506E560000AC480000240350
:105C1000EA17883F14506E56280DAC48162500032D
:105C20003C19F43F14500000F80EAC48E626A208D8
:105C3000EA17923F14506E56680D6448F2253603F9
:105C40008A19000000000000B60CEA4800003B0979
:105C5000EA179E3F14506E56840EAC4816251E035C
:105C60003C19F43F14500000F80EAC48E626A10899
:105C70008A19A83F00000000480CEA4800003A09D1
:105C8000EA17000014506E560000AC4800002003D4
:105C9000EA17763F14506E56C80BAC4816253803E9
:105CA0003C19F43F14500000F80EAC48E626A30857
:105CB000EA179E3F14506E563A0E1E4816253103C1
:105CC000EA17000014506E560000AC48000025038F
:105CD000EA179E3F14506E56840E1E487E2501031F
:105CE000EA179E3F14506E56840E1E480000300383
:105CF000EA17103F14506E56840EAC4816251D034B
:105D0000EA17000014506E560000AC4800001F0354
:105D1000EA17000014506E560000AC48000026033D
:105D2000EA17024014506E56F60DAC48F225BD033A
:105D3000EA17024014506E56A60DAC48F225BF0378
:105D4000EA17923F14506E56680D6448F225B70367
:105D5000BE19F22D6C3100002A3000003831A70442
:105D6000BE19F22D6C3100002A3000003831A80431
:105D7000BE19EC2D6C31E43216305E312A31B50497
:105D8000BE19F22D6C3100002A3000003831C104F8
:105D9000BE19F22D6C3100002A3000004C31AA06E9
:105DA000BE19F22D6C3100002A3000004C31AB04DA
:105DB00075736270696370726F6720302E342E398C
:015DC00000E2
:0F5DC100503234464A47006473503330465F4CCB
:105DD00056005031384C4631344B32320050313855
:105DE0004631344B3232005031384C4631334B322D
:105DF00032005031384631334B3232005031384660
:105E000036374B5858005031384636584B585800A2
:105E100050313646313858580050313846383732CC
:105E200058005031384C4634584B323200503138DB
:105E30004634584B3232005032344658584B415851
:105E400058580050313246353038004932435F45AA
:105E5000455F32004932435F45455F31005031387C
:105E6000465832323000503138465858333100509D
:105E700031364637313600503132463631580050CF
:105E800031304632303200503130463230300050FE
:105E900032344800647350333346006473503330F7
:105EA0004600503234464A58585847413100503223
:105EB00034464A58585847413058580050313846AF
:105EC00058584B3230005031384658583233005011
:105ED00031384631583330005031384639374A3638
:105EE00030005031384634354A3130005031384670
:105EF00036584A58580050313846383431300050FE
:105F000031384658583830005031384636583258B3
:105F100000503138465858333900503137433758DC
:105F200058005031374358580050313643343332DB
:105F30000050313643353058005031343030300065
:105F400050313643363458005031364337585800B4
:105F500050313643353558005031364336585800A5
:105F600050313646383858005031364639315800AD
:105F700050313646353900503136463738350050C5
:105F800031364635370050313646353400503136DB
:105F900046383700503136463732005031364638B1
:105FA000375800503136463758370050313646376B
:105FB0005800503136463831580050313646383462
:105FC0004100503132463658580050313246363250
:105FD0003900503136463632580050313646363266
:105FE0005841005031364638375841005031384614
:105FF00058583200503138463258585800504943AA
:1060000031384B0050494331384A0049324300642B
:106010007350494333330064735049433330005065
:1060200049433234005049433138005049433136F6
:1060300000504943313200504943313000626F6FA4
:08604000746C6F61646572006D
:0860480004011051600BE84255
:10605000E842E842E842E842000901E0120011513A
:10606000070A40E00B0A3EE0070A33E0010A23E09A
:106070000B0A1FE0020A1DE0030A19E0080A10E0FB
:10608000010A0CE00F0A08E0030A01E0120010D92F
:106090000201040E336F120073EF30F0AAEF30F0FC
:1060A00007D90201350E286F020E296F0CD0C5EFFB
:1060B00030F0F5EF30F000D90201286F296B360E71
:1060C0002827020E2923020134930201010E2C6FAE
:1060D0001200F2D8EA6A360FE96E020EEA2212C402
:1060E000EFFF12001200800E0401105D32E1135127
:1060F000030A1FE0010A0AE0030A29E1D9D80201D4
:106100007E0E286F6A0E296F120E1ED0ABD8220E9B
:10611000F6266B0EB9D8020E0201F76A2825F66E34
:106120002951F7220900F5CF2CF20A00F5CF2DF204
:106130000ED098D8260EF6266B0EA6D828C2F6FFEB
:1061400029C2F7FF0800F55002012C6F2D6B0201E8
:1061500034831200ADD80F0EE66E710EE66E0F0E90
:106160009BD8010EE66E360EE66E020E95D812C46E
:1061700035F20401125104E10201050E336F1200E1
:106180000201060E336FDCEF33F00401186B196B5C
:10619000040110511F0B020A0DE0030A09E0010A75
:1061A00016E186D8020134A112D0040118830FD061
:1061B0007FD80DD04BD801E0010E5DD82AC2E9FF8F
:1061C000EA6EEF50040B03E00401010E186F0201A8
:1061D00027050AE10201180E286F040E296F02013B
:1061E00034930201020E2C6F1200040112050EE11D
:1061F00010511F0B00090AE15BD8030E0401115D69
:1062000003E10201348102D00201349104011251F0
:106210001CE110511F0B020818E114510F0B00096B
:1062200014E014D801E0010E26D8030E0401115D1C
:1062300004E1840E38D8EF6E120014AF03D033D8C7
:10624000EF6A1200880E2FD8EF6E120035D80F0BB0
:10625000080DF350016A000F006E040E0122145164
:10626000800B120025D804011251F66EF76AD890FF
:10627000F636F7361200040DF350020100242A6F9F
:10628000000E01202B6F1200F7220900F5CF28F233
:106290000A00F5CF29F21200E66E27EC33F0E55242
