:020000040000FA
:0600000009EF15F01200EB
:06000800BEEF13F0120030
:06001800D9EF13F0120005
:0608000009EF15F01200E3
:06080800BEEF13F0120028
:06081800D9EF13F01200FD
:06082A0002005B2A000041
:100830007B00000008000000522A00006A0000004F
:0408400009000000AB
:0C08440056EC0AF0020EE126CEEC0AF0A1
:10085000FD0EDB50040A01E192D0070A01E181D0CC
:10086000060A44E0030A40E0040A32E0030A17E003
:10087000010A04E08A90E0EC0AF036D0050EC7ECDD
:100880000AF03F0EE66EE66E0C0EE66E7AEC09F0AC
:10089000040EC7EC0AF08F0EE66EE66E06D0040E6C
:1008A000C7EC0AF0800EE66EE66A0C0EE66E7AEC95
:1008B00009F0D6EC09F07AEC09F032EC0AF0D6EC4B
:1008C00009F0040EE66ED5EC0EF0E552E55208D0C4
:1008D000AEEC0AF01F0EE66E060EE66E5DEC0EF054
:1008E000E552E5520A0E3AD0030E4CD0DE6ADD6ABC
:1008F00012EC0AF0FF0E005C030E015805E23CEC1E
:100900000BF0F6E3DB2AF4D70DEC0BF0F3CF83F01A
:10091000F4CF84F0AEEC0AF0DE6ADD6A12EC0AF085
:10092000070E005C000E015805E23CEC0BF0F6E30C
:10093000DB2AF4D70DEC0BF0F3CF85F0F4CF86F083
:10094000000E00018517300E8617AEEC0AF0090E76
:1009500048EC0BF00B0EA7EC0AF0080E7FEC09F048
:100960000ED0AEEC0AF0E6683F0EE66ED2EC0AF06E
:10097000090E48EC0BF00B0E48EC0BF08A90E0EC03
:100980000AF0010E006E020EE15C02E2E16AE5523D
:100990003BEF0AF005EC0BF0F50EDBA002D0CEEC3D
:1009A0000AF0FD0EDB50030A01E132D1070A01E132
:1009B0002FD1010A01E1A3D0070A3DE0020A04E0B9
:1009C000E0EC0AF0030E4AD1A60EE66E8E0E38EC6D
:1009D0000BF0B1EC0AF0DBCF00F0F60EDB50FE0FAF
:1009E000E76E0018E8AE02D0E73402D0E750005CB2
:1009F00011E2F6EC09F008BE09681CEC0AF002BE30
:100A0000036891EC09F00D0EE66E7AEC09F0C9EC82
:100A100009F0E1D7F6EC09F008BE09681CEC0AF011
:100A200002BE036891EC09F064EC0BF032EC0AF0C2
:100A30004CEC0BF00BD1020EDB6AD2EC09F0E8AE05
:100A400002D0E73402D0E750005C01E3FFD0DE6A59
:100A5000DD6A12EC0AF0100E005C000E015837E25D
:100A6000020EDBCF0AF00B6A0ABE0B68DE500A24C6
:100A7000086EDD500B20096E010E0826000E0922BB
:100A80006EEC0AF0EFCF06F006C007F0066A020E21
:100A9000DBCF04F0056A04BE0568DE500424026E54
:100AA000DD500520036E70EC0BF05BEC0AF0D2EC2D
:100AB0000AF012EC0AF00E0E005C000E015802E281
:100AC000A3EC0AF0020EDE26000EDD22C2D7080ECD
:100AD000A7EC0AF0010E7FEC09F0170EE66E050E8A
:100AE00086EC09F0A3EC0AF0100E006E020EDBCFCC
:100AF000E7FF0050E726020EE7CFDBFF9ED7020E8E
:100B0000DB6AD2EC09F0E8AE02D0E73402D0E7505D
:100B1000005C2CE217EC0AF0026A036A00AE03D014
:100B2000016802680368C2EC09F007EC0AF015E2FC
:100B3000020EDB28066E076A06BE07689EEC09F007
:100B4000DBEC0AF002BE036891EC09F015EC0BF047
:100B5000A7EC0AF0060EE66E04D07CEC0BF0E66E15
:100B6000060E86EC09F0C9EC09F0CBD7F50EDB5088
:100B7000020B4EE0F60EDBCF00F0016A026A036A58
:100B800000AE03D0016802680368C2EC09F007EC0C
:100B90000AF03EE2DE6ADD6A12EC0AF0026A036ADB
:100BA0000868030E096E0A6A0B6AF60EDBCF0CF0BA
:100BB0000D6A0E6A0F6A0CAE03D00D680E680F68DE
:100BC000C2EC09F0EE500C26EE500D22EE500E2233
:100BD000EE500F220C50085C046E0D500958056E43
:100BE0000E500A58066E0F500B58076E0450005CEA
:100BF00005500158065002580750035805E23CECD6
:100C00000BF0CAE3DB2AC8D77CEC0BF0A7EC0AF0A8
:100C1000020EDB6AC7DBE8AE02D0E73402D0E75051
:100C2000005C14E2020EDB28066E076A06BE076847
:100C300085DBDBEC0AF002BE036873DBD2EC0AF062
:100C400010EC0BF0A3EC0AF0A4DBE4D7F50EDBA26A
:100C500004D0E0EC0AF0010E01D0020E006E030E8B
:100C6000E15C02E2E16AE5523BEF0AF056EC0AF081
:100C7000020EE126F70EDBA002D0CEEC0AF0FD0E4C
:100C8000DB50050A01E17ED0070A01E17BD0010AB1
:100C900001E178D0070A01E175D0040A04E0E0EC34
:100CA0000AF0030E92D0A60EE66E9E0E38EC0BF004
:100CB000DF6A7CEC0AF0E8AE02D0E73402D0E750FD
:100CC000005C01E37AD0DFCF02F0036A02BE036862
:100CD0001CEC0BF0DFCF02F0036A02BE03682AECC3
:100CE0000BF0DFCF02F0036A02BE0368F90EDB509F
:100CF0000224E96EFA0EDB500320EA6EEF50006E1C
:100D0000016AE85054EC0BF0A80EE66E6E0E78EC1B
:100D10000BF0840E78EC0BF0820E98EC0AF0A2DB5C
:100D2000A60E3FEC0BF0E76E010EE7CFDBFFDB50CA
:100D3000020B02081EE17F0EE96E000EEA6EEE5015
:100D400000017B5D006EEE507C59016EEE507D59C6
:100D5000026EEE507E59036ED890E850000A08E605
:100D6000050E005C000E0158000E0258000E0358DC
:100D7000D7E3010EC4DAA60EE66E940E98EC0AF0E4
:100D8000DF2A97D7DF6AB8DBE8AE02D0E73402D0BB
:100D9000E750005C12E2DFCF00F0016A00BE01689C
:100DA0000ADBEF50E66EE66A030EE66EB5DA080E71
:100DB00048EC0BF085EC0BF0E6D7F70EDBA204D085
:100DC000E0EC0AF0010E01D0020E006E020EE15CB2
:100DD00002E2E16AE5524FD305EC0BF0F50EDBA021
:100DE00002D0CEEC0AF0FD0EDB50030A01E121D166
:100DF000070A01E11ED1010A01E1C2D0070A01E19F
:100E000084D0020A03E0DCDB030E51D1A60EE66EAD
:100E10008E0E78EC0BF08C0E8BDB0001876B67DBA2
:100E2000E8AE02D0E73402D0E750875D01E338D165
:100E300087C000F0016A00BE0168026A036AA2DA94
:100E4000D0DB02DB046E050EE15E045087C006F0C5
:100E5000076A06BE0768AADB02BE036862DA7BDBAC
:100E600087C004F0056A04BE0568066A076A8ADA64
:100E7000EE500424006EEE500520016EEE50062068
:100E8000026EEE500720036E002A000E012202229D
:100E9000DBDA086E050EE15E0850010EE76EF70E14
:100EA000DBCF08F0F80EDBCF09F0E7500826000E84
:100EB000092287C00AF00B6A0ABE0B6808500A2490
:100EC000E96E09500B20EA6EEFCF06F006C007F07E
:100ED000066A010EE76EF70EDBCF02F0F80EDBCFED
:100EE00003F0E7500226000E032287C004F0056AD3
:100EF00004BE056802500424E96E03500520DBDAC5
:100F00002ADB020E000187278AD7F50EDBA00DD061
:100F100025DBDF6ADBDAE8AE02D0E73402D0E75047
:100F2000005C03E285EC0BF0F5D70001876BDFDA9C
:100F3000E8AE02D0E73402D0E750875D01E3B0D0DD
:100F4000ADDAE8AE02D0E73402D0E750005C02E34D
:100F5000E5DA0BE18729066E076A06BE076826DB1D
:100F600002BE0368DED9E66AD7D9F90EDB5000016C
:100F70008725040802E0D2DA01E152DBACDBD7D7E7
:100F8000F50EDBA00CD0EADADF6AA0DAE8AE02D018
:100F9000E73402D0E750005C02E2B7DBF6D700018D
:100FA000876BA5DAE8AE02D0E73402D0E750875D60
:100FB00001E376D073DAE8AE02D0E73402D0E7502E
:100FC000005C0BE28729066E076A06BE0768EEDA48
:100FD00002BE0368A6D9E66A95DBF90EDB50000174
:100FE0008725070824E18729066E076A06BE076879
:100FF000A5D987C008F0096A08BE09686FDAEF5002
:101000000410026E05C003F0FF0E02160F0E031649
:1010100085510210006E86510310016E010E00C052
:10102000DBFF020E01C0DBFF6BDAE66A6BDB53DB32
:10103000B8D7F50EDBA00CD091DADF6A47DAE8AE5C
:1010400002D0E73402D0E750005C02E25EDBF6D764
:101050000001876B4CDAE8AE02D0E73402D0E750EB
:10106000875D1EE21BDAE8AE02D0E73402D0E7501B
:10107000005C02E353DA12E18729066E076A06BEB6
:10108000076894DA02BE036879DA010E00C0DBFF5C
:10109000020E05C0DBFF34DAE66E34DB1CDBDAD788
:1010A000F50EDBA203D08CDA010E01D0020E006E29
:1010B000030EE15C02E2E16AE552DDD1F7D9050EEB
:1010C000E126020EDB6AF50EDBB068DAFD0EDB50BE
:1010D000050A1EE0070A1CE0010A1AE0070A18E0E8
:1010E000040A66E13EDA5ED9E8AE02D0E73402D007
:1010F000E750005C6FE2090EC9D9E66E98D900BED0
:10110000016825D9E552E750EF6E020EDB2AEBD7D6
:1011100039D9000EEE5C200EEE58000EEE58000E8F
:10112000EE5825E31BDAF50EDBA00ED0DE6ADD6A91
:1011300079D9EDD9000E025E200E035AF4D904E2EB
:101140009BDAF6E3DB2AF4D7020EDB6A2BD9E8AE92
:1011500002D0E73402D0E750005C3CE25EDA34D9DA
:1011600000BE016846DA00BE0168A7DAEFD7F50EC7
:10117000DBA00BD052DADE6ADD6A54D9C8D9D3D9E4
:1011800004E27ADAFAE3DB2AF8D7020EDB6A0AD93C
:10119000E8AE02D0E73402D0E750005C1BE23DDA53
:1011A00013D900BE016825DA00BE016886DAEFD7E0
:1011B000020EDB6AF7D8E8AE02D0E73402D0E7507F
:1011C000005C08E234D900BE0168C1D8EF6A020EA3
:1011D000DB2AF0D7F50EDBA202D0E66AA7D8050E0F
:1011E000E15C02E2E16AE552E16E13D20EDA020E30
:1011F000DB6AF70EDBB0D2D9FD0EDB50050A2FE01B
:10120000070A2DE0010A2BE0070A29E0040A54E14D
:10121000A60EE66E9E0E2CDA020EDB6A5BD9E8AEF5
:1012200002D0E73402D0E750005C58E2C4D902BED5
:10123000036802DAC0D902BE03680CDAA60EE66EB5
:10124000800E76D9A80E1BDAE66EF1D800BE0168D2
:10125000B2D8E552E750EF6E020EDB2ADFD7F70E69
:10126000DBA011D0050E7CD8DE6ADD6ADBD8FB0E70
:10127000DBCF02F0FC0EDBCF03F055D904E2FCD942
:10128000F5E3DB2AF3D7020EDB6A24D9E8AE02D0FD
:10129000E73402D0E750005C21E2050E61D8F3503C
:1012A000E66EC5D800BE016886D8E552E750EF6EFD
:1012B0004AD9020EDB2AE9D7020EDB6A0BD9E8AE67
:1012C00002D0E73402D0E750005C08E2B0D800BE9C
:1012D000016871D8EF6A020EDB2AF0D7F70EDBA2A5
:1012E00002D0E66A23D8030EE15C02E2E16AE5522D
:1012F000E16E8FD1040EE66ED5EC0EF064D1E66E91
:10130000E66AE66AE66AEAEC13F05DD1E66E5DEC49
:101310000EF0E552E5521200060EE66EDBEC0EF022
:1013200052D12CD9E66E05C0E6FF1200FE0EDBCFCF
:10133000E6FFD4EC0DF0E552E5521200F70EDB505B
:101340000624E96EF80EDB500720FEEF0AF0F70ED8
:10135000DB500024E96EF80EDB500120EA6E12002B
:10136000E66E060EE66EE1EC0EF0E552E552120076
:10137000FE0EDBCFE6FF14EC0EF0006E050EE15E14
:1013800000501200D950F90FE96EFF0EDA20EA6E14
:101390001200020EDBCFE7FFE850E726020EE7CF90
:1013A000DBFF1200DBCF00F0F60E12D1000EE66E6E
:1013B000E66AE66A1200F90EDB500024E96EFA0EC6
:1013C000DB500120EA6E1200030EF3CFDBFF040EA8
:1013D000F4CFDBFF030E040EDBCF03F003C002F0FB
:1013E000036A020EDB28006E016A1200010EE76E2E
:1013F000F70EDBCF06F0F80EDBCF07F0E75006263E
:10140000000E0722020EDBCF08F0096A1200E9D8AD
:101410000322FF0E005C030E0158000E0258000E5E
:1014200003581200DECF00F0DDCF01F01200020EF3
:10143000DBCF00F0016A120006500824E96E075065
:101440000920DCD8DBEF0AF0032200C0E6FF01C070
:10145000E6FF02C0E6FF03C0E6FFFE0EDBCFE6FFBD
:1014600014EF0EF07BC07FF07CC080F07DC081F077
:101470007EC082F01200E16E0050CBD0000EE66E0E
:10148000E66A91EC0EF0E552E5521200E66E040EAB
:10149000E66E39EC0FF0E552E5521200F90EDB5022
:1014A0008725006E040EE76E00181200D9CFE6FF04
:1014B000E1CFD9FF1200EA6EEF5000010610006E76
:1014C00007C001F0E66E07C0E6FF1200DFCF00F0B4
:1014D000F90E7ED0DBCF00F0F80E7AD0F70EDB509D
:1014E0000824E96EF80EDB500920EA6E1200F60EB1
:1014F000DB50E76E87191200DFCF00F0F80E68D0DE
:10150000010EDBCFE6FF020EDBCFE6FF1200F90E85
:10151000DBCF02F0FA0EDBCF03F01200F90EDB5046
:101520008725070812000250005C03500158120082
:10153000E66EE66A7AEF09F0FF0E0016000E01165D
:10154000005054EF0BF0060EE66E86EF09F0E66EE3
:10155000060E86EF09F0B8D84CEF0BF027DF8CEFC2
:1015600009F010DFEECFE6FFEECFE6FFEECFE6FFAD
:10157000EFCFE6FFFDDE020EDB6A1200B1D8EA6EA5
:10158000EF5000010410006E05C001F01200E66E7D
:10159000E66A3C0EE66EE66AB8EF09F0010EE66E0A
:1015A00096EF09F0020EE66E8CEF09F0C7DE87C0F9
:1015B00002F0036A1200020EDBCF02F0036A12008F
:1015C000E66A96EF09F0E552E552E552E55212005F
:1015D000DB50E76E00181200E9DE8CDE020E46EFEB
:1015E0000AF0EE500026EE500122EE500222EE509C
:1015F0001200ADDE02C0EFFF17EF0AF0EA6EEFCF88
:1016000004F004C005F0046A120050DF030EE12666
:101610001200E552E7CFD9FF1200040EB0EF09F037
:10162000080E95DF0A0E7FEF09F0BCDF180E8FDF82
:10163000020E65DE0A0E1200FB0EDB500224006E65
:10164000FC0EDB500320016E77DFA90EE66E6E0EF6
:1016500098EF0AF0FB0EDB500224FC0EDB50032057
:10166000006E016A69DFAA0EE66E6E0E98EF0AF050
:101670003FD89C0E98EF0AF048D8010E1200E66E93
:10168000500E56DFF50EE66E6E0E52DFECEF0AF0EE
:101690005EDF080E7FEF09F08A82020E30DE8A924A
:1016A000010E2DDE3EEF0AF00E0E011200C0E6FF25
:1016B00001C0E6FFE66A7AEF09F049DE030EDBCFF0
:1016C000EFFF41DFC9EF09F00F0EE66E13DEE66AA9
:1016D000030E86EF09F037DF020E000187271200A4
:1016E000F70EDB500224E96EF80EDB5003201200E7
:1016F0001FDFA60EE66E120083C0E6FF84C0E6FF81
:1017000015EF0BF009DE10EF0BF01DDFDF2A1200E2
:10171000070E8B12F80E9416938C8150400B01E04B
:10172000010E00018E6F929092929396939A9390ED
:10173000939293948A868A9A8A908A92F18EA1EFE4
:101740000BF0C00EF26E9D809E909F80D80ECF6EE3
:10175000EF0ECE6E010ECD6E12000DDAFE0EDB50D6
:10176000010BE81CE8B08B80E8A08B90FE0EDB50EC
:10177000020BE8407F0BE81CE8B08B82E8A08B925C
:10178000FE0EDB50040BE840E8403F0BE81CE8B0DD
:101790008B84E8A08B94F4D1EED90A0EE126060ED4
:1017A0000001885D03E36D50020B02E01AD9E0D01E
:1017B000400EE66E000EE66E010EE66E7CEC13F057
:1017C000E552E552E552E66ED950020FE96EDACFE6
:1017D000EAFFE552E750EE6EED6A020EDBCF00F055
:1017E000030EDBCF01F0013401E3B2D0005000085A
:1017F000000E015401E3ACD0100E0101005D0EE1BA
:10180000010EE66EAADFE552BFD922EC04F0E552E4
:10181000E5520101266F0001010E6F6F200E0101DC
:10182000005D17E1030E00016D5D07E197D9FE0E23
:10183000E66EE6683F0EE66E06D090D9060EE66EBE
:10184000200EE66EE66AE66A9FD98ED90001020E86
:101850006F6F300E0101005D0EE151D902E070D9C9
:10186000FEE155D902E073D9FEE193D9CAEC04F048
:10187000006E0A0E54D9400E0101005D10E13FD9FF
:1018800002E05ED9FEE143D902E061D9FEE1EDD884
:10189000260EE66E010E0FD967D901C16FF0500E0A
:1018A0000101005D0AE117D9060EE66E010E3FD96F
:1018B00036EC06F0006E080E32D9600E0101005DB4
:1018C0000DE109D9260EE66E010E31D9F6EC08F0CD
:1018D000006E080EE15E005001C16FF0700E010154
:1018E000005D0EE10CD902E02BD9FEE110D902E037
:1018F0002ED9FEE14ED9ECEC06F0006E0A0E0FD99F
:10190000800E0101005D0CE1010EE66E010EE66E37
:1019100036D8E552E5520101010E266F00016F6FC6
:10192000900E0101005D14E12E0E006E2A0E016E74
:10193000026A00C0E6FFE66E02C0E6FF30D9F0ECB6
:1019400014F0036E050EE15E03500001120E6F6F7E
:1019500000016F510DE004010CBF08D06FC0E6FF1D
:101960001ED94CEC13F0E552E552E55200016F6BC5
:101970000A0EE15C02E2E16AE552E16E01D1FBD8B8
:10198000FD0EDBCFE9FFFE0EDBCFEAFFEF50060ACC
:101990001EE0030A19E0010A14E0070A0FE0010A39
:1019A00009E0030A03E0010A17E116D00001010E65
:1019B0006E6F14D00001020E6E6F11D00001030E85
:1019C00008D00001040E05D00001050E02D0000170
:1019D000060E6E6F020E03D000016E6B030E6D6F6C
:1019E000CFD000017051711104E1100E706F270EFD
:1019F000716F7007000E715B6DA207D0705171118D
:101A000024E18B708B828B8412000001885102E1EB
:101A1000010E12D0880502E1020E0ED0020E885D82
:101A200002E1030E09D0030E885D02E1040E04D02A
:101A3000050E885D05E1050EE66E8FDEE5521200AB
:101A4000060E885D02E10001726B12008150400BAE
:101A500001E0010E00018E5D07E08150400B01E0C6
:101A6000010E8E6F81AC010C000C04500012055069
:101A70000112065002120750031204C108F0096A4D
:101A80000A6A0B6A08500012095001120A50021229
:101A90000B500312040E00C0DBFF050E01C0DBFF7C
:101AA000060E02C0DBFF070E03C0DBFF05C1E6FF29
:101AB00001C1E6FF1200E66ED950040FE96EDACFDD
:101AC000EAFFEECFE6FFEECFE6FFEECFE6FFEFCF89
:101AD000E6FFC4EF0DF003C103F0026A04510001F8
:101AE0000210006E03C101F0080E00C0DBFF090EFA
:101AF00003C1DBFF05C1E6FF01C1E6FF120002C121
:101B000000F0016A026A036A100E1F0B120003C183
:101B100004F0056A066A076A080E1F0B1200E15EF0
:101B200000500101266F0001010E6F6F1200E66E7A
:101B3000080EDBCFE6FF090EDBCFE6FFC4EF0DF0AA
:101B4000D8900036013602360336E8061200D890E7
:101B50000436053606360736E8061200030EE66E32
:101B6000020EE66ECFEF0DF05EEC08F0006E0A0E8E
:101B7000E15E00501200D9CFE6FFE1CFD9FF12009D
:101B8000E552E7CFD9FF12006EC0E6FF6DC0E6FF59
:101B900012006BDF060EE66E010E5BEF0DF0260EF7
:081BA000E66E010EE66E120074
:081BA800F4D9020EE126FD0E46
:101BB000DB041FE1FE0EDB50030802E18A9401D032
:101BC0008A96D5D9010E0ADAABD901E6D9D9FCE358
:101BD000FE0EDB50030802E18A9601D08A94020EC1
:101BE000FDD9C5D99DD901E6CBD9FCE3030EE66E3C
:101BF00011D08A86040EF2D9BAD992D901E6C0D999
:101C0000FCE3050EEBD98A84B2D98AD901E6B8D9AA
:101C1000FCE3E66AADEC0BF0E552020EE15C02E299
:101C2000E16AE552E16EBAD1B4D9FE0EDB50020A88
:101C30002EE0010A3DE1B6D906C000F00001C8D986
:101C400006C0E6FFEBD9F80EE66E6E0EE66E7DD9A5
:101C5000A9D905C000F00001036ABAD905C0E6FFA2
:101C6000DDD9F70EE66E6E0EE66E6FD9FA0EDBCF9B
:101C700000F0FB0EFC0EFD0EABD900C0E6FFCED986
:101C8000F60EE66E6E0EE66EE66A040E10D0FA0EE2
:101C9000DBCF00F0FB0EDBCF01F0D8900036013631
:101CA00000C0E6FF01C0E6FF020EE66E060EABD9ED
:101CB00075D100000000000012006BD9E65293902D
:101CC00093928A928A90DF6ADFCF00F0FE0EDB509B
:101CD000E76E0018E8AE02D0E73402D0E750005CAF
:101CE0000FE2A0D9FD0EDBA002D08A8001D08A903D
:101CF000DBCFF3FFF390F342F3CFDBFF96D9E4D7CA
:101D0000DF6ADFCF00F0280EE76E0018E8AE02D0E1
:101D1000E73402D0E750005C02E2DF2AF2D7E55256
:101D20003DD137D9E652DF6ADFCF00F0100EE76E03
:101D30000018E8AE02D0E73402D0E750005C0FE2B2
:101D400052D902E08A8001D08A9039D906E0EC525B
:101D5000D890ED32EF32E806FAE167D9E5D7A9DF8E
:101D6000E5521CD116D9E6524AD9DF6ADFCF00F01E
:101D70000E0EE76E0018E8AE02D0E73402D0E7504E
:101D8000005C0FE230D902E08A8001D08A9017D936
:101D900006E0EC52D890ED32EF32E806FAE145D990
:101DA000E5D72DD986DFE552F9D034D9BADFE5522F
:101DB000E5528A90F3D02ED9D5DFE552E5528A90CC
:101DC000EDD0E7D8030EE126C8D89380DF6ADFCFD5
:101DD00000F00A0EE76E0018E8AE02D0E73402D039
:101DE000E750005C02E2DF2AF2D7010EDB6A020E46
:101DF000DB6A8A82AED8DF6ADFCF00F00E0EE76EB4
:101E00000018E8AE02D0E73402D0E750005C1BE2D5
:101E100009D98150010B026E036ADF5002C000F045
:101E200003C001F005E0D89000360136E804FBE17C
:101E3000D950010FE96EDACFEAFF0050EE120150DF
:101E4000ED12F3D8D9D78A8284D893908A9031DF63
:101E5000010EDBCF00F0020EDBCF01F000C0F3FF7C
:101E600001C0F4FF030EE15C02E2E16AE552E16EBB
:101E700095D08FD8020EE12670D8DF6ADFCF00F050
:101E8000080EE76E0018E8AE02D0E73402D0E75043
:101E9000005C03E2B4D8DF2AF1D79380DF6ADFCF9A
:101EA00000F00A0EE76E0018E8AE02D0E73402D068
:101EB000E750005C02E2DF2AF2D7010EDB6ADF6A3C
:101EC000DFCF00F0080EE76E0018E8AE02D0E7346E
:101ED00002D0E750005C16E2A5D88150010BDF521A
:101EE00006E0DFCFF3FFE846FE0BF306FCE1006EF1
:101EF000010EDBCFE7FF0050E712010EE7CFDBFF5B
:101F000094D8DED793908A90D4DE010EDB50006E19
:101F1000020EE15C02E2E16AE552E16E00503ED061
:101F20007F0EE96E000EEA6EEE5000017B5D006EE2
:101F3000EE507C59016EEE507D59026EEE507E5986
:101F4000036ED890E850000A1200E66A040E03EF10
:101F500010F0AFDE8A9259EF0EF0FD0EDBCFE6FFF8
:101F6000FE0EDBCFE6FFA9DEE552E55212007BC094
:101F70007FF07CC080F07DC081F07EC082F01200D6
:101F8000140E005C000E0158000E0258000E03589B
:101F90001200D9CFE6FFE1CFD9FF1200E552E7CF1B
:101FA000D9FF1200FA0EDBCF04F0FB0EDBCF05F0F9
:101FB000FC0EDBCF06F0FD0EDBCF07F01200D95090
:101FC000FD0FE96EFF0EDA20EA6E010E0F0B120014
:101FD000016A026A036A0E0E01121200E66EADEC8F
:101FE0000BF0E55212001ED8FD0EDB50010B120063
:101FF000FB0EDBCFE6FFFC0EDBCFE6FF120012D8B4
:102000008A90A9EF0FF0E66ED0DEE552E552E55278
:10201000E5521200BEDFA1DFF8EF0FF001C0E6FFCE
:10202000A5EF0FF08A8259EF0EF093DFDF2A12003E
:1020300004011851600BE842E842E842E842E842F5
:10204000000901E012001951070A40E00B0A3EE0C6
:10205000070A33E0010A23E00B0A1FE0020A1DE031
:10206000030A19E0080A10E0010A0CE00F0A08E070
:10207000030A01E0120010D90001040E886F12005B
:1020800067EF10F09EEF10F007D900018A0E756F10
:10209000000E766F0CD0B9EF10F0E9EF10F000D918
:1020A0000001756F766B8B0E7527000E762300018D
:1020B00089930001010E796F1200F2D8EA6A8B0F42
:1020C000E96E000EEA221AC4EFFF12001200800E21
:1020D0000401185D32E11B51030A1FE0010A0AE006
:1020E000030A29E1D9D80001340E756F280E766FE6
:1020F000120E1ED0ABD8D80EF626280EB9D8020E76
:102100000001F76A7525F66E7651F7220900F5CFC2
:1021100079F00A00F5CF7AF00ED098D8DC0EF626CA
:10212000280EA6D875C0F6FF76C0F7FF0800F55058
:102130000001796F7A6B000189831200ADD80F0E10
:10214000E66E710EE66E0F0E9BD8010EE66E8B0EDC
:10215000E66E000E95D81AC48AF004011A5104E103
:102160000001050E886F12000001060E886F37EF20
:1021700013F00401206B216B040118511F0B020A9C
:102180000DE0030A09E0010A16E186D8000189A1E1
:1021900012D0040120830FD07FD80DD04BD801E09E
:1021A000010E5DD877C0E9FFEA6EEF50040B03E043
:1021B0000401010E206F000174050AE10001200EE8
:1021C000756F040E766F000189930001020E796F1E
:1021D000120004011A050EE118511F0B00090AE153
:1021E0005BD8030E0401195D03E10001898102D06F
:1021F0000001899104011A511CE118511F0B0208BA
:1022000018E11C510F0B000914E014D801E0010E75
:1022100026D8030E0401195D04E1840E38D8EF6E50
:1022200012001CAF03D033D8EF6A1200880E2FD8EB
:10223000EF6E120035D80F0B080DF350016A000F36
:10224000006E040E01221C51800B120025D80401DF
:102250001A51F66EF76AD890F636F7361200040D6A
:10226000F35000010024776F000E0120786F1200F8
:10227000F7220900F5CF75F00A00F5CF76F01200CD
:10228000E66E22EC13F0E552E552E552120077C0FB
:10229000E9FF78C0EAFF12000001010E746F12001E
:0822A000FBDF04011C511200D8
:0822A8006C5002E0000E01D0B1
:1022B000010E00090BE0040100513C0BE842E8422A
:1022C0000D0802E16FEF11F07EEF11F06C5002E0AB
:1022D000000E01D0010E040901E01FD81200D9CF71
:1022E000E6FFE1CFD9FFE6520001736B746B796BA7
:1022F0007A6B18EC10F099D8E552F6D0020E000176
:10230000735D09E168D8040100BD02D0C80E01D098
:10231000880E006F12004EEF12F0040E0001885D6F
:1023200009E11AC46EFF6E50000802E2050E01D0EA
:10233000030E886F0001730509E10AD8040104BD8A
:1023400002D0C80E01D0880E046F12004EEF12F0BA
:10235000C4D80001080E795D000E7A5905E279C0F3
:10236000DEFF7AC0DDFF03D0080EDE6EDD6A0401F9
:1023700004930491010EDB500413DFCF05F4000E2B
:10238000DB500001795F010EDB507A5B200E776F26
:10239000040E786F000189A30CD098D815E075C0A1
:1023A000F6FF76C0F7FF0800F55080D8F6E2DB06AE
:1023B000F4D78CD809E075C0E9FF76C0EAFFEF508A
:1023C00075D8F7E2DB06F5D7020EE15C02E2E16ABE
:1023D000E552E16E89D081D8030E04010015E76E45
:1023E000010EE7CFDBFF01C4DFFFDE5000017927DC
:1023F000DD507A23200E756F040E766F67D80EE0DD
:1024000075C0E9FF76C0EAFFEF5077C0E9FF78C0FA
:10241000EAFFEF6E6DD8F2E2DB06F0D7020EE15C68
:1024200002E2E16AE552E16E5FD00001745105E11C
:1024300045D8840E006F04011DD0040118AF1CD0D4
:102440000001795104011E5D00017A5104011F59F8
:1024500004E21EC479F01FC47AF07ADF0001010E95
:10246000736F2CD8800E006F0401200E066F040ECF
:10247000076FC80E046F10D00001020E736F0401C5
:10248000056BC80E046F0401080E016F200E026F69
:10249000040E036FC80E006F6D9812000001736B7D
:1024A0000DD8880E006F0401046B120077C0E9FF9D
:1024B00078C0EAFFEF6E000178EF12F00401080E19
:1024C000016F180E026F040E036F1200D9CFE9FFDF
:1024D000DACFEAFFEE50ED101200D9CFE6FFE1CFE0
:1024E000D9FF020EE1261200E552E7CFD9FF120014
:1024F000772B000E7823752B7623DF06010E120052
:102500006DA60CD80001880508E16DBA06D0686A8E
:10251000696A69806988020E886F12006D6A696A4B
:102520006D860001010E886F12006D6A696A0001F4
:10253000886B120095EF12F00001885101E1120042
:102540006850040B04E06950040B01E038D86DB208
:1025500012006850010B04E06950010B01E050D8F3
:102560006850100B04E06950100B01E024D868504B
:10257000400B04E06950400B01E037D86850200B55
:1025800004E06950200B01E032D86850020B04E0EF
:102590006950020B01E032D8030E0001885D01E2B0
:1025A00012006850080B06E06950080B03E054EC79
:1025B00011F068961200698468986D8212006D921D
:1025C000699468941200000189A10ED0F8DF6D842F
:1025D0000001080E8C6F070E8D6F8C07000E8D5B4F
:1025E0008C518D11FAE16D941200689C120070A05C
:1025F00003D04EEC12F07090689A120068921200AC
:102600006A6A686A9F0E6B6E7B0E696E6E6A0F0E49
:10261000E66E710EE66E0F0EE66E14D8E552E552C8
:10262000E552160E706E68A602D06896FCD76D98BB
:102630004EEC12F00001899100018A6B0001030E3B
:10264000886F1200D9CFE6FFE1CFD9FFFD0EDBCFB7
:10265000E9FFFE0EDBCFEAFFFC0EDB5004E0EE6A82
:0E266000FC0EDB06F9D7E552E7CFD9FF1200DA
:02266E00000169
:10267000906B1E0E716E0401260E096F280E0A6FF4
:10268000040E0B6F880E086F04014E0E0E6F040EC1
:102690000F6F400E0C6F1200D9CFE6FFE1CFD9FFCC
:1026A000E652FC0EDB50260805E2260EF36EFC0E09
:1026B000F3CFDBFFDF6AFC0EDB50DF5C0FE2DF50A5
:1026C00051D8EF50E66EDF50EA6A4E0FE96E040E05
:1026D000EA22E552E750EF6EDF2AEDD7FC0EDBCFA2
:1026E0000DF4400E04010C170C7D880E0C13E552FE
:1026F000E552E7CFD9FF1200D9CFE6FFE1CFD9FFEE
:102700000001906B040108BF27D0FC0EDBCF00F066
:102710000951D880005403E2FC0E09C4DBFF00011C
:10272000906BFC0EDB50905D0FE29051EA6A280F2F
:10273000E96E040EEA22EF50E66E905113D8E5528E
:10274000E750EF6E902BEDD70401260E096F400E77
:102750000817087D880E081300019051E552E7CF55
:10276000D9FF1200E76EFD0EDBCFE9FFFE0EDBCFD7
:0C277000EAFFE750E926000EEA22120002
:04277C00DACFE4FFCD
:10278000E6529EA012D000017B2B000E7C237D23FD
:102790007E2389708950010B02E0899201D08982E1
:1027A000D80ECF6EEF0ECE6E9E90E552E5CFDAFFDB
:1027B0001100D8CFE4FFE0CFE4FFE46EDACFE4FF0E
:1027C000E652E552E5CFDAFFE550E5CFE0FFE5CF91
:1027D000D8FF1000D9CFE6FFE1CFD9FF7BC07FF053
:1027E0007CC080F07DC081F07EC082F07F0EE96EFB
:1027F000000EEA6EEE5000017B5D006EEE507C59DB
:10280000016EEE507D59026EEE507E59036ED95026
:10281000FB0FE96EFF0EDA20EA6EEE50005CEE5020
:102820000158EE500258EE500358E0E3E552E7CF6E
:04283000D9FF1200BA
:0C2834001201000200000008D8040E0091
:10284000000001020001090220000101008032099C
:102850000400000200000000070501032600200715
:10286000058103260020040309042A037500730070
:102870006200700069006300700072006F00670002
:102880002E00730066002E006E00650074002000AC
:10289000200020004403500049004300440045004C
:1028A0004D00200046005300200055005300420018
:1028B0002000440065006D006F00200042006F00A2
:1028C00061007200640020002800430029002000FD
:1028D00032003000300034004628462866286A2836
:0228E00094283A
:0E28E2002A0EF66E080EF76E000EF86E00015C
:1028F0000900F550656F0900F550666F03E16567E3
:1029000001D03DD00900F550606F0900F550616FAE
:102910000900F550626F09000900F550E96E0900E1
:10292000F550EA6E090009000900F550636F0900CF
:10293000F550646F09000900F6CF67F0F7CF68F033
:10294000F8CF69F060C0F6FF61C0F7FF62C0F8FF22
:102950000001635302E1645307E00900F550EE6E95
:102960006307F8E26407F9D767C0F6FF68C0F7FFAE
:1029700069C0F8FF00016507000E665BBFD7120053
:102980007F6A7E6A7D6A7C6A7B6A7A6A796A786A1B
:10299000776A766A756A746A736A726A716A706A4B
:1029A0006F6A6E6A6D6A6B6A6A6A696A686A12003F
:1029B00004D80FD8CCEC0BF0FCD70F0EC112140EBC
:1029C0006F6E0001886B0001896B00018A6B88EFD4
:1029D0000BF080EC12F06FBE02D09CEC12F01200F3
:1029E000FB0EE3CFF6FFFC0EE3CFF7FFFD0EE3CFC8
:1029F000F8FFFE0EE3CFE9FFFF0EE3CFEAFFE9CFDA
:102A0000F3FFEACFF4FF0900F5CFEFFFEE66FBD747
:022A10001200B2
:0E2A120013EE00F023EE00F0F86A119C71EC58
:0E2A200014F028EC15F0D8EC14F0FBD71200DF
:022A2E005573DE
:102A30006250696350726F6720302E31001B5B3229
:022A40004A004A
:0E2A420000EE00F00F0EEE6AEA62FDD7120001
:022A5000120072
:092A52000000000300000000FF79
:052A5B00000000000076
:032A600000000073
:020000040030CA
:0100000021DE
:010001000EF0
:0100020038C5
:010003001EDE
:01000500807A
:010006008079
:01000900C036
:01000B00E014
:0200000400F00A
:100000000102030405060708090A0B0C0D0E0F1068
:0100100011DE
:00000001FF
