:020000040000FA
:060000008CEF38F0120045
:0600080082EF36F0120049
:06001800AFEF36F012000C
:060800008CEF38F012003D
:0608080082EF36F0120041
:06081800AFEF36F0120004
:06082A000200467100000F
:100830008001000002000000427100003702000049
:0408400004000000B0
:0C08440048EC0BF0F40EDBA004D0010E19
:10085000E66E44EC0AF002010851091131E0F40E91
:10086000DBCFE6FFF50EDBCFE6FFF60EDBCFE6FFD4
:10087000F70EDBCFE6FFD950F80FE96EFF0EDA2056
:10088000EA6EEECFE6FFEECFE6FFEECFE6FFEFCF6C
:10089000E6FF05D009C2FAFF02010851F96EFADF3E
:1008A000006E080EE15C02E2E16AE552E16E005082
:1008B000F40EDBA20CD0E66A44EC0AF0010E08D07C
:1008C000FC0EDB50E66A44EC0AF0030E01D0020E87
:1008D000CFEF0BF08EEC0BF002E1000E01D0010E19
:1008E00004C0E7FFE75204E0E8427F0BE706FCE1C3
:1008F000A009D5EC0BF0B9EC09F0E8AE02D0E73472
:1009000002D0E750005C11E2020EDBCF00F0016A7A
:1009100000BE016833EC0AF005E1ED5003E1DEECC6
:1009200010F007D0020EDB2AE6D7DEEC10F0B1ECB7
:1009300009F064EF09F08EEC0BF002E1000E01D03B
:10094000010E04C0E7FFE75204E0E8427F0BE70630
:10095000FCE1A00939EC0BF0006A0168CDEC0AF06B
:10096000080ED8900332023201320032E806F9E173
:100970000050D5EC0BF0B9EC09F0E8AE02D0E7344A
:1009800002D0E750005C11E2020EDBCF00F0016AFA
:1009900000BE016833EC0AF005E1ED5003E1DEEC46
:1009A00010F007D0020EDB2AE6D7DEEC10F0B1EC37
:1009B00009F064EF09F0F5EC0BF0F2EC0BF0ECEC65
:1009C0000BF0E6EC0AF01A0EE66EE66A240E98ECDE
:1009D0000BF00A0EF5EC0AF0020EDB6AB9EC09F036
:1009E000E8AE02D0E73402D0E750005C01E3B5D0B6
:1009F000006A6BEC0AF008AE03D009680A680B685D
:100A0000C0EC09F0046A056A076A0C0ED890073238
:100A1000063205320432E806F9E1FBEC0AF016EC86
:100A20000AF0900EE66E010EE66E880E98EC0BF062
:100A3000070E006E6BEC0AF008AE03D009680A6876
:100A40000B68C0EC09F0066A076A040E1F0B03E08E
:100A500087EC0AF0FDE1FBEC0AF016EC0AF0DE6A26
:100A6000DD6AB7EC0BF06AE2006A016A200E026EE2
:100A7000036A5EEC0AF00ABE0B6876EC0AF00A50D4
:100A80001E24086E0B501F20096EF80EDB50082440
:100A9000CBEC0BF00920EA6EEFCF04F0056A066A92
:100AA000076A040E1F0B03E087EC0AF0FDE1FBEC84
:100AB0000AF00312020EDBCF12F0136A12BE1368A3
:100AC00076EC0AF012501E24106E13501F20116E87
:100AD000010E1026000E1122F80EDB501024CBEC74
:100AE0000BF01120EA6EEFCF0CF00D6A0E6A0F6A60
:100AF0000C0E1F0B07E0D8900C360D360E360F3655
:100B0000E806F9E10C5000120D5001120E500212CD
:100B10000F500312DECF14F0DDCF15F0166A176AFE
:100B2000145000121550011216500212175016ECF4
:100B30000AF0DF2A010E95E3DB2A93D7E66A030E5B
:100B4000E66EEB0E98EC0BF07DEC0BF070EC0BF01E
:100B500070EC0BF00C0EE2DB41D7580EE66E050E82
:100B6000E66E200E98EC0BF0380EF5EC0AF0A90EAC
:100B7000E66E0A0EE66E200E98EC0BF0390EF5ECE0
:100B80000AF0610EE66EE70EE66EA80E8EEC0AF035
:100B900063EC0AF0F2EC0BF0610EE66EE70EE66E27
:100BA000A90E8EEC0AF0E6EC0AF08ED359EC0BF0AD
:100BB0000FE189EC0BF08C0E74DB880E72DB8E0E6D
:100BC00070DB9C0E46DB02E2E16AE552E16E00500A
:100BD000DF6A2BEC0AF0E8AE02D0E73402D0E7502F
:100BE000005C09E245DB08BE096848DB02BE036819
:100BF000BEEC0AF0EED7D9EC0AF004E1F60EDB50B9
:100C0000020B09E035DB08BE096838DB02BE036869
:100C100095EC0BF007D02CDB08BE09682FDB02BE79
:100C200003681CDB51D359EC0BF007E10BEC0BF024
:100C300002E2E16AE552E16E0050DF6A2BEC0AF055
:100C4000E8AE02D0E73402D0E750005C09E210DBE6
:100C500008BE096813DB02BE0368BEEC0AF0EED7DB
:100C6000D9EC0AF004E1F60EDB50020B09E000DBE0
:100C700008BE096803DB02BE036895EC0BF007D0E1
:100C8000F7DA08BE0968FADA02BE0368E7DA1CD3AD
:100C900005DB400E30DB07E10BEC0BF002E2E16A12
:100CA000E552E16E0050DF6AD6DBE8AE02D0E734F1
:100CB00002D0E750005C09E2DBDA08BE0968DEDA40
:100CC00002BE0368BEEC0AF0EFD7D9EC0AF004E1EB
:100CD000F60EDB50020B09E0CBDA08BE0968CEDA6B
:100CE00002BE036895EC0BF007D0C2DA08BE0968B3
:100CF000C5DA02BE0368B2DAE7D2D0DA89EC0BF0CB
:100D00009C0EA7DA02E2E16AE552E16E0050DF6A6A
:100D1000A2DBE8AE02D0E73402D0E750005C09E283
:100D2000A7DA08BE0968AADA02BE0368BEEC0AF0B8
:100D3000EFD79EDA08BE0968A1DA02BE036895EC17
:100D40000BF0C2D2ABDA89EC0BF034EC0BF002E220
:100D5000E16AE552E16E0050DF6A7DDBE8AE02D069
:100D6000E73402D0E750005C09E282DA08BE096885
:100D700085DA02BE0368BEEC0AF0EFD779DA08BE66
:100D800009687CDA02BE036895EC0BF09DD2B1ECE9
:100D90000AF034EC0BF002E2E16AE552AFDBE9DA8B
:100DA000E8AE02D0E73402D0E750005C1CE2DE6A15
:100DB000DD6AC8EC0AF00E0E69EC0BF008E20ADB03
:100DC0000CBE0D68C3DA04BE056881DAF2D713DB06
:100DD00008BE096821DB02BE0368AEDBABEC0BF09A
:100DE000100E9CDADCD770D2BCDB34EC0BF002E2E4
:100DF000E16AE55283DBBDDAE8AE02D0E73402D027
:100E0000E750005C16E2DE6ADD6AB7EC0BF008E240
:100E1000E1DA0CBE0D689ADA04BE056858DAF5D737
:100E2000EADA08BE0968F8DA02BE0368E0EC0BF003
:100E3000E2D74AD296DB9C0E0CDA02E2E16AE55276
:100E40005DDB97DAE8AE02D0E73402D0E750005C11
:100E500016E2DE6ADD6AB7EC0BF008E2BBDA0CBE24
:100E60000D6874DA04BE056832DAF5D7C4DA08BE54
:100E70000968D2DA02BE0368E0EC0BF0E2D724D2B4
:100E800070DB8C0EBAEC0BF0060EE66EE66A3C0EDA
:100E9000E66EE66ABEEC0BF002E2E16AE552E16E54
:100EA0000050000EE66EE66A0C0EE66E4CDB89EC36
:100EB0000BF09C0ECED902E2E16AE5521FDB59DA53
:100EC000E8AE02D0E73402D0E750005C16E2DE6AFA
:100ED000DD6AB7EC0BF008E27DDA0CBE0D6836DA9D
:100EE00004BE0568F4D9F5D786DA08BE096894DA35
:100EF00002BE0368E0EC0BF0E2D7E6D1DADB09E1F1
:100F0000A60EE66E840EA5D902E2E16AE552E16E14
:100F10000050DF6AA0DAE8AE02D0E73402D0E75032
:100F2000005C08E2A5D908BE0968A8D902BE03681A
:100F300025DBF0D7200EDFD909E09AD908BE096871
:100F40009DD902BE0368E3EC0BF023D091D908BE13
:100F5000096894D902BE036881D9E552E552F60EBC
:100F6000DBA21CD0DF6ADFCF00F01E0EE76E001898
:100F7000E8AE02D0E73402D0E750005C08E2E66851
:100F8000E6680D0EE66EDFDA020EDF26ECD7E668C5
:100F9000E668D1DBE6D9D7DBE552E552E0D28DDB5E
:100FA00008E04EDA06E2BDDA02E2E16AE552E16EFD
:100FB0000050DF6A7CDAE8AE02D0E73402D0E750B6
:100FC000005C0EE2DF28066E076A06BE07681ADAC2
:100FD00002BE0368A0D9080E96D975DAD7DBEAD726
:100FE000BED26BDB08E02CDA06E29BDA02E2E16AB1
:100FF000E552E16E0050DF6A5ADAE8AE02D0E7341B
:1010000002D0E750005C0BE2DF28066E076A06BEDE
:101010000768F8D902BE03687ED9B8DBEDD79FD246
:101020004CDB08E00DDA06E27CDA02E2E16AE55226
:10103000E16E0050DF6A3BDAE8AE02D0E73402D05E
:10104000E750005C0FE2DF28066E076A06BE0768FD
:10105000D9D902BE03685FD9180EB0DA0A0EAEDA2B
:1010600031DBE9D77CD2D4DA84D9E8AE02D0E734D8
:1010700002D0E750005C1DE2DE6ADD6A89DA040E08
:1010800028DB0DE21BDA0ABE0B680FD904BE056827
:10109000FAD8020E1EDB01E23AD993DAEFD7080E36
:1010A00032D9020E55DA0E0E2ED931D9040E36D9A8
:1010B000DBD70AD1ADDA5DD9E8AE02D0E73402D091
:1010C000E750005C14E2DE6ADD6AEAD90BE2F6D989
:1010D0000ABE0B68EAD804BE0568F8DA01E217D93F
:1010E00070DAF3D7180E6ADA0A0E8DDAE4D7ECD08C
:1010F0008FDA3FD9E8AE02D0E73402D0E750005C87
:1011000014E2DE6ADD6ACCD90BE2D8D90ABE0B68DC
:10111000CCD804BE0568DADA01E2F9D852DAF3D79E
:10112000180E4CDA0E0E6FDAE4D7CED071DA21D970
:10113000E8AE02D0E73402D0E750005C15E2DE6A88
:10114000DD6AAED90BE2BAD90ABE0B68AED804BECE
:101150000568BCDA01E2DBD834DAF3D7080E2EDA00
:10116000D6D8080EDBD8E3D7AFD052DA02D9E8AE32
:1011700002D0E73402D0E750005C16E2DE6ADD6A96
:101180008FD90BE29BD90ABE0B688FD804BE0568C5
:101190009DDA01E2BCD815DAF3D7180EB4D8020EE6
:1011A000D7D9170E30DAE2D78FD032DAE2D8E8AEEC
:1011B00002D0E73402D0E750005C1BE2DE6ADD6A51
:1011C000E7D9100E86DA0DE279D90ABE0B686DD820
:1011D00004BE056858D80E0E7CDA01E298D8F1D921
:1011E000EFD7080E90D8100EB3D991D8100E96D81C
:1011F000DDD76AD053D8F60EDBA007D088D891D9B6
:1012000002E2E16AE552E16E0050DF6A50D9E8AED1
:1012100002D0E73402D0E750005C14E2DF28066E0B
:10122000076A06BE0768EED802BE036874D8010ECE
:101230008FD9080E68D847D90E0E65D8010E88D907
:1012400041DAE4D78CD190D976DA020E81D9A3EFB6
:101250000BF090DA91EF0AF0E66A3FD2B4DA0D0EA5
:10126000E66E040EE66EF7EC0EF0E552E552120063
:10127000010EDAD9DFCF08F0096A1200E1D9DFCF19
:1012800002F0036A1200DE500424026EDD500520D5
:10129000036E52D9F3D9E1D9C8EF0AF0F9D9E65271
:1012A000120068DAA60EE66E1200DE500A24086EFE
:1012B000DD500B20096E010E0826000E0922F80EE3
:1012C000DB50082468DA85D1E552E55248D1F80EA2
:1012D000DB500424026EF90EDB500520036EDE5055
:1012E0000224E96EDD500320EA6EC8D90D0EE66EC9
:1012F0002AD9E1EF0AF0006E016A4FD900500110BF
:10130000021003101200E66E060E27EF0BF0060E19
:10131000E66E27EF0BF057DA2DEF0BF0006E020EA2
:10132000DBCFE7FF0050E726020EE7CFDBFF12001E
:10133000FA0EDBCF00F0FB0EDBCF01F0FC0EDBCFB3
:1013400002F0FD0EDBCF03F0005012000A500C2417
:10135000086E0B500D20096EDE500824E96EDD503A
:1013600038D10A0EA8EF0AF09CD99BD9E552E55274
:101370001200DBCF00F0F70EDB50E76E0018120012
:10138000C1D90850EE24046E0950EE20056E0A50B3
:10139000EE20066E0B50EE20076ED8900436053610
:1013A00006360736030E236E246A256A266A04C0B1
:1013B0001EF005C01FF006C020F007C021F03AEC77
:1013C00038F01EC004F01FC005F020C006F021C098
:1013D00007F01200010EE76EF80EDBCF0AF0F90EEF
:1013E000DBCF0BF0E7500A26000E0B22020EDBCFFC
:1013F0000CF00D6A1200070E17D9020EDBCF08F0B1
:10140000096A1200F80EDB500624C5D90720D1D98D
:10141000DFCF02F0036A120013D9020EDBCF02F015
:10142000036A1200A7D97F0EE66E1200031200C0F5
:10143000E6FF01C0E6FF02C0E6FF03C0E6FF4DD1B4
:1014400061D9D880000EEE54000EEE54000EEE541A
:10145000000EEE541200DFCF00F0F70EDB50FE0F4F
:10146000E76E00181200F80EDB50002494D901201A
:10147000EA6EEF50FED8DE6EDD6AD9CFE9FFDACF33
:10148000EAFF010EEE181200FD0EDBCFE6FFFC0EA8
:10149000DBCFE6FF0EEC0CF0E552E552E552120010
:1014A00077D8080E69EF0BF0060E69EF0BF0DFCF6F
:1014B00000F0F70EDB50E76E00181200020EDBCFD3
:1014C0000AF00B6A1200030EA8EF0AF0E652E65289
:1014D000020EDB6A1200016A200E026E036A020E1F
:1014E000DBCF08F0096A0A6A0B6A1200206E216AD3
:1014F000DECF25F0DDCF26F05EEF38F0E16E005054
:10150000020EDB6A1200B5D8020EDB6A1200D89018
:101510000436053606360736E806120009D9F2EF1A
:101520000BF0F0D8EECFE6FFEECFE6FFEECFE6FF12
:10153000EFCFE6FFBEEF0BF0F80EDB5002242BD905
:101540000320EA6E1200040EE66EF7EC0EF00AD1EC
:10155000E66EE66AD7EC36F0E552E5521200E55247
:101560001ED143D989EF0BF0EF5000010410006E3B
:1015700005C001F0E66E05C0E6FF12006FDEE55221
:10158000E552020EDF261200E6D8080E8EEF09F0B3
:10159000DECF00F0DDCF01F01200026A036AB2D89C
:1015A000EE500016EE500116EE500216EE500316E5
:1015B0001200BEDE0110021003101200A4DEB1EF13
:1015C00009F0020EDE26000EDD22120005D97DEFA5
:1015D0000BF00920EA6EEFCF06F006C007F0066AAE
:1015E000020EDBCF04F0056A1200E66E3B0EE66EDB
:1015F000880E98EF0BF004500012055001120650AF
:101600000212075012007FDE82DE080E8EEF09F014
:1016100045DE66EF0AF07F0EE66E8E0E03DF9C0E4F
:1016200001DF840E29EF09F0E76EF80EDBCF06F03C
:10163000F90EDBCF07F0E7500626000E0722120056
:1016400006500824E96E07500920D9EF0BF0E66E2A
:1016500025EC0EF0E552E5521200020EE66E060E83
:10166000E66EFEEC0EF07ED09C0E1BDE840E29EFA3
:1016700009F0E66EE4EC10F0E5521200EF500001C4
:101680000610006E07C001F0E66E07C0E6FF12000C
:10169000D9CFE6FFDACFE6FFE1CFD9FFE2CFDAFF1D
:1016A0001200E552E552090EE66E040EE66E85EF75
:1016B0000FF0F4DD200E7BEF09F0F0DDF60EDB50CD
:1016C000010B120024DE020EDF261200DCDD54EFD7
:1016D0000AF0005C000E0158120086EC10F042D0B7
:1016E000B60EE66E0B0E72D8DB0E70D8EB0E6ED80F
:1016F0001B0EE66EBB0E8EEF0AF0E66AE66AE66A3D
:101700002CEF09F0D950FA0FE96EFF0EDA20EA6EDD
:101710001200A60EE66E8E0E51EF09F066D8D7ECD9
:1017200010F00D0E046ED9EF0AF006DF23EF09F07A
:10173000E66E2CEF09F00F0EE66E05DFE66A030E8B
:1017400086DF8A8212008A92010E02DF000EE66EA8
:10175000E66A6BEF0EF0060EE926000EEA2273DD54
:10176000B4EF09F0E552E552E552E552120010DF00
:1017700054EF0AF0E66EE66AA3EF0AF080C1E6FFD6
:10178000C1EC0DF0006E050EE15C1200080E16DFD4
:10179000E8DD62EF0BF0E96EF90EDB501200E55266
:1017A000E5CFDAFFE7CFD9FF120063DFC1DD83EFBA
:1017B0000AF0EA6EEFCF04F004C005F0046A1200EC
:1017C000BBDEC4EF0AF0B8DEB4EF0AF0E66EBB0E83
:1017D000A5DEB60EE66E1200E66A010EE66E040E97
:1017E00098EF0BF08ADF7DEF0BF058DDE652E65202
:0217F0001200E5
:0E17F20038EC11F0E652DF6ADFCF00F00A0E8D
:10180000E76E0018E8AE02D0E73402D0E750005C83
:1018100002E2DF2AF2D7E55241EF11F038EC11F085
:10182000FB0EDB5002E19FD90DD0020100510111E6
:1018300008E005D001C2FAFF02010051F96EFADF9B
:1018400001D002D841EF11F002010EAF02D0929AFE
:101850009298939293908A908A92000000008A94C2
:10186000640EE66EE66AD7EC36F0E552E5528A96EB
:10187000640EE66EE66AD7EC36F0E552E5521200E9
:1018800002010EAF02D0929A9298939293908A900E
:101890008A92000000008A96640EE66EE66AD7EC33
:1018A00036F0E552E5528A94640EE66EE66AD7ECAD
:1018B00036F0E552E5521200D9CFE6FFDACFE6FF67
:1018C000E1CFD9FFE2CFDAFFE652E65202010EAFD6
:1018D00002D0929A9298939293908A908A92000062
:1018E0000000640EE66EE66AD7EC36F0E552E5528B
:1018F0008A94000000008A961A0EE66EE66AD7EC1B
:1019000036F0E552E552E66AE66AE66AE66A86EC91
:1019100010F0E552E552E552E552E66AE66AE66AFB
:10192000E66A86EC10F0E552E552E552E552E66AC9
:10193000E66AE66AE66A86EC10F0E552E552E552A0
:10194000E552E66AE66AE66AE66AE0DBE552E552F7
:10195000E552E5528A868A8A8A9ADE6ADD6ADECF95
:1019600000F0DDCF01F0010E005C000E015806E230
:1019700000D0DF2A010E01E3DB2AF1D78A96640E3C
:10198000E66EE66AD7EC36F0E552E552E552E552EE
:10199000E552E5CFDAFFE7CFD9FF1200C5EC11F031
:1019A00002010EAF02D0929A9298BBEC11F099EC22
:1019B00011F002E6B6EC11F005E2DF2A010EF7E3C2
:1019C000DB2AF5D789968A8A040E47EC11F0060EB9
:1019D00047EC11F054EC11F0B3EC11F0020E47ECAF
:1019E00011F0C9EF11F0C5EC11F002010EAF02D0F9
:1019F000929A9298BBEC11F099EC11F002E6B6ECD9
:101A000011F005E2DF2A010EF7E3DB2AF5D754ECEB
:101A100011F0B3EC11F0C9EF11F002010EAF02D0DA
:101A2000929A92989392939089968A940A0EE66E6F
:101A3000E66AD7EC36F0E552E552898600000000F0
:101A400089968A8A00000000B20EE66EC20EE66E2B
:101A500042D9E552E552120EE66E8A0EE66E3BD989
:101A6000E552E552010EE66EE66AD7EC36F0E55235
:101A7000E5528A9A8986190EE66EE66AD7EC36F048
:101A8000E552E552E66A050EE66EDFD8E552E5520C
:101A9000E66AE66AE66AE66A39DBE552E552E5524D
:101AA000E552E66A020EE66E040EE66EE66A2EDB8C
:101AB000E552E552E552E552E66AE66AE66AE66A0A
:101AC00025DBE552E552E552E5521200C5EC11F076
:101AD00002010EAF02D0929A9298BBEC11F099ECF1
:101AE00011F002E6B6EC11F005E2DF2A010EF7E391
:101AF000DB2AF5D7D9DB8A0ED0EC11F08A9A8986D9
:101B0000010EC5DB190EC3DBE66A050EE66EDFECDF
:101B100011F0D1DBD0DBE66A020EE66E040EE66E53
:101B2000E66AF4DADAEC11F0C6DBE552E552A9D345
:101B300002010EAF02D0929A9298939293908A806B
:101B40008A82000000008A94640EE66EE66AD7EC92
:101B500036F0E552E552640EE66EE66AD7EC36F0F2
:101B6000E552E55212008A8689968A8A280E8FDB12
:101B70008A9A8A84928A928893829380140E47EF7D
:101B800011F076DBFD0EDB500BE0020A09E0010AE2
:101B900004E00B0A02E0010A07E1A2DB34D802D01C
:101BA0009FDB03D8DAEC11F06CD3C5EC11F0E652F0
:101BB000E652DE6ADE6ADE6ADD6ADD52DD529FDBF6
:101BC000D9CFE9FFDACFEAFF0050EE5C0150EE58C2
:101BD0000250EE580350EE580FE2060EE66EE66E27
:101BE000DFEC11F0D9CFE9FFDACFEAFFEE2A000EE1
:101BF000EE22EE22EE22E3D7040EE15C02E2E16A7D
:101C0000E552E16E3ED334DB87DB06C000F0000115
:101C100097DB06C0E6FFD7DBF80EC7DB7DDB05C030
:101C200000F006C001F007C002F00001036A88DB83
:101C300005C0E6FFC8DBF70EB8DB61DB81DB00C067
:101C4000E6FFC1DBF60EB1DB1CD3D9CFE6FFDACF5E
:101C5000E6FFE1CFD9FFE2CFDAFFE6528A928A901F
:101C6000DF6ADFCF00F0FD0EDB50E76E0018E8AE54
:101C700002D0E73402D0E750005C16E2FC0EDBA095
:101C800002D08A8001D08A908A82FC0EDBCFF3FFDB
:101C9000F390F342FC0EF3CFDBFF000000008A92CA
:101CA00000000000DF2ADDD7DF6ADFCF00F00A0E78
:101CB000E76E0018E8AE02D0E73402D0E750005CCF
:101CC00003E200D0DF2AF1D7E552E552E5CFDAFF93
:101CD000E7CFD9FF1200D9CFE6FFDACFE6FFE1CF99
:101CE000D9FFE2CFDAFFE652DF6ADFCF00F0100E55
:101CF000E76E0018E8AE02D0E73402D0E750005C8F
:101D00001EE2FC0EDB50010B02E08A8001D08A90BB
:101D10008A82D950FC0FE96EFF0EDA20EA6E010EBE
:101D20000F0B06E0EC52D890ED32EF32E806FAE104
:101D3000000000008A9200000000DF2AD6D70000D1
:101D40000000E552E552E5CFDAFFE7CFD9FF1200F8
:101D5000D9CFE6FFDACFE6FFE1CFD9FFE2CFDAFF56
:101D6000E6528A90000000008A82000000008A92F9
:101D700000000000DF6ADFCF00F00E0EE76E0018F3
:101D8000E8AE02D0E73402D0E750005C1EE2FC0E61
:101D9000DB50010B02E08A8001D08A908A82D95000
:101DA000FC0FE96EFF0EDA20EA6E010E0F0B06E063
:101DB000EC52D890ED32EF32E806FAE10000000074
:101DC0008A9200000000DF2AD6D78A900000000027
:101DD0008A82000000008A920000000000000000DB
:101DE000E552E552E5CFDAFFE7CFD9FF120040DA3E
:101DF00069DA71DFE552E5528A9043D239DA62DA64
:101E0000A7DFE552E5528A903CD2D9CFE6FFDACF80
:101E1000E6FFE1CFD9FFE2CFDAFFE652E652E65223
:101E2000FC0EDBCFE6FFFD0EDBCFE6FF0EDFE5525B
:101E3000E55293809288DF6ADFCF00F00A0EE76EEA
:101E40000018E8AE02D0E73402D0E750005C03E2AD
:101E500000D0DF2AF1D7010EDB6A020EDB6A8A822C
:101E6000000000008A9200000000DF6ADFCF00F06F
:101E70000E0EE76E0018E8AE02D0E73402D0E7504D
:101E8000005C23E28A82000000008150010B026E98
:101E9000036ADF5002C000F003C001F005E0D890F3
:101EA00000360136E804FBE1D950010FE96E000E5F
:101EB000DA20EA6E0050EE120150ED120000000030
:101EC0008A9200000000DF2AD1D78A820000000039
:101ED0008A920000000002010EBF929893900000C9
:101EE0000000010EDBCF00F0020EDBCF01F000C0DE
:101EF000F3FF01C0F4FF00D0E552E552E552E55290
:101F0000E5CFDAFFE7CFD9FF1200D9CFE6FFDACF6E
:101F1000E6FFE1CFD9FFE2CFDAFFE652E652FC0E50
:101F2000DBCFE6FFFD0EDBCFE6FF8FDEE552E552AD
:101F3000DF6ADFCF00F0080EE76E0018E8AE02D0CF
:101F4000E73402D0E750005C0BE28A90000000000A
:101F50008A82000000008A9200000000DF2AE9D790
:101F600093809288DF6ADFCF00F00A0EE76E0018D8
:101F7000E8AE02D0E73402D0E750005C03E200D0C4
:101F8000DF2AF1D7010EDB6ADF6ADFCF00F0080E2F
:101F9000E76E0018E8AE02D0E73402D0E750005CEC
:101FA0001DE28A82000000008150010BDF5206E032
:101FB000DFCFF3FFE846FE0BF306FCE1006E010EF7
:101FC000DBCFE7FF0050E712010EE7CFDBFF000099
:101FD00000008A9200000000DF2AD7D702010EBF5E
:101FE0009298939000000000010EDB5000D0E55263
:101FF000E552E552E5CFDAFFE7CFD9FF1200D9CF9E
:10200000E6FFDACFE6FFE1CFD9FFE2CFDAFFE65213
:10201000E652E6528A908A808A828A928A90DF6AA1
:10202000DFCF00F0030EE76E0018E8AE02D0E73411
:1020300002D0E750005C08E28A82000000008A9229
:1020400000000000DF2AECD7010EDB6A020EDB6A1B
:10205000DF6ADFCF00F0080EE76E0018E8AE02D0AE
:10206000E73402D0E750005C08E28A8200000000FA
:102070008A9200000000DF2AECD79380928800004B
:102080000000DF6ADFCF00F0100EE76E0018E8AE48
:1020900002D0E73402D0E750005C1FE28A820000E1
:1020A00000008150010B026E036ADF5002C000F095
:1020B00003C001F005E0D89000360136E804FBE1EA
:1020C000D950010FE96E000EDA20EA6E0050EE12D0
:1020D0000150ED128A92DF2AD5D702010EBF9298E5
:1020E00093908A90010EDBCF00F0020EDBCF01F05F
:1020F00000C0F3FF01C0F4FF00D0E552E552E55205
:10210000E552E5CFDAFFE7CFD9FF1200D9CFE6FFDE
:10211000DACFE6FFE1CFD9FFE2CFDAFFE6528A90CD
:10212000DF6A040EDF5C06E28A82000000008A9209
:10213000DF2AF7D7DF6A180EDF5C31E2010E006E8E
:10214000016A026A036AD950FA0FE96EFF0EDA20BB
:10215000EA6EEE500016EE500116EE500216EE50EA
:102160000316005001100210031002E08A8001D013
:102170008A90D950FA0FE96EFF0EDA20EA6ED890F5
:10218000030EEB32020EEB32010EEB32EF320000A7
:1021900000008A82000000008A92DF2ACCD78A9051
:1021A000E552E552E5CFDAFFE7CFD9FF12008A808A
:1021B0008A82F9EC0BF08A90A6EF11F08A82F9EC92
:1021C0000BF08A80F9EF0BF0E0D8FD0EDB50E76EE4
:1021D000010EE7CFDBFFDF6A080EDF5C0FE2010EC6
:1021E000DB50800B800802E18A8001D08A90B3D84E
:1021F000F9EC0BF08A82AAD8DF2AEED79380928876
:102200008A82F9EC0BF08150010BDF6E8A92F9ECB7
:102210000BF002010EBF92989390DF50E552E55209
:1022200030D0B3D893809288010EDB6ADF6A080E43
:10223000DF5C0BE28A82F9EC0BF08DD881B0DB8099
:102240008A92F9EC0BF0DF2AF2D702010EBF9298C6
:102250009390F9EC0BF0FD0EDB0402E18A8001D0D3
:102260008A908A8273D8010EDB50E552E55209D07C
:10227000D9CFE6FFDACFE6FFE1CFD9FFE2CFDAFF31
:102280001200E552E5CFDAFFE7CFD9FF1200E66E84
:10229000E66AD7EC36F0E552E5521200E66A040E23
:1022A000E66EA5DDDAEF11F0B20EE66EC20E78D85A
:1022B000120EE66E1200E66AE66AE66AE66A26DF53
:1022C000DAEF11F0FC0EDBCFE6FFFD0EDBCFE6FF11
:1022D00076D8FA0EDBCFE6FFFB0EDBCFE6FF12006F
:1022E000D950F90FE96EFF0EDA20EA6EEECFE6FF65
:1022F000EECFE6FFEECFE6FFEFCFE6FF1200FA0EDD
:10230000DBCF00F0FB0EDBCF01F0FC0EDBCF02F0E9
:10231000FD0EDBCF03F01200FA0EDBCF04F0FB0E54
:10232000DBCF05F0FC0EDBCF06F0FD0EDBCF07F0B8
:102330001200DECF00F0DDCF01F0D8900150120086
:10234000016A026A036A0E0E01121200F9EC0BF028
:102350008A92F9EF0BF0010EDBCFF3FFF39EF34609
:10236000F3CFDBFF12000A0ED0EF11F02C0E005C51
:10237000010E015812009392939089968A940A0E46
:1023800086DF8986DE6ADD6A120072DFE652E65277
:1023900012008A9A8986010E7ADFE552E55271D7DA
:1023A000E66E99DCE552E5521200E66E6E0EE66EC0
:1023B0004EEF11F0E552E552E552E552120045DCD0
:0E23C000E552E552120001C0E6FF4EEF11F0AB
:0223CE00EAEC37
:1023D00015F0F40EDBA004D0010EE66E3DEC16F015
:1023E00002010C510D1131E0F40EDBCFE6FFF50ECA
:1023F000DBCFE6FFF60EDBCFE6FFF70EDBCFE6FF27
:10240000D950F80FE96EFF0EDA20EA6EEECFE6FF44
:10241000EECFE6FFEECFE6FFEFCFE6FF05D00DC231
:10242000FAFF02010C51F96EFADF006E080EE15C52
:1024300002E2E16AE552E16E0050F40EDBA20CD03C
:10244000E66A3DEC16F0010E08D0FC0EDB50E66AA1
:102450003DEC16F0030E01D0020E16EF16F0BADBBB
:10246000E652E652F60EDBA00CD0E2EC16F013ECCE
:1024700017F078EC16F0070EE66EE66A200EE66EB0
:1024800068DB0201106B50EC16F01019E8AE02D0B8
:10249000E73402D0E750105D01E380D08A0EE66E8B
:1024A000E66A240E9FEC16F00A0EE5EC16F0800E9C
:1024B000E66E0F0E04EC17F0900EE66E010EE66E5F
:1024C000880E9FEC16F002011029066E076A06BE00
:1024D000076842DB10C202F0036A02BE0368D6EC52
:1024E00016F0DE6E05C0DDFF060E006E016A200EDE
:1024F000026E036ADECF04F0DDCF05F0066A076ADC
:10250000066A076A040E1F0B07E0D89004360536EA
:1025100006360736E806F9E10450001205500112AC
:102520000650021207500312A2EC16F0C9EC16F086
:1025300078EC16F0860EE66E1B0EE66EBB0E9FEC78
:1025400016F010EC17F0580EE66E050E04EC17F0BE
:10255000380EE5EC16F0A90EE66E0A0E04EC17F044
:10256000390EE5EC16F0610EE66EE70EE66EA80E8B
:102570009FEC16F010EC17F0020ECFEC16F010ECFA
:1025800017F0610EE66EE70EE66EA90ED8DBE2EC00
:1025900016F0AEDB020E0201102775D7E552E552A8
:1025A00045D3BBDB0201116B7BDB1119E8AE02D016
:1025B000E73402D0E750115D32E211C200F0016A47
:1025C00000BE0168EFDA02E2E16AE552E16E045012
:1025D00011C206F0076A06BE0768BEDA11C202F031
:1025E000036A02BE036808EC17F011C204F0056A22
:1025F00004BE0568BFDA02E2E16AE55220DB11C2DF
:102600000AF00B6A0ABE0B68EEDA11C204F0056A22
:1026100004BE0568F0EC16F002011127C5D706D3F9
:102620007CDBE66AEF0ECDDAE66AF80ECADA020162
:10263000126B36DB1219E8AE02D0E73402D0E75055
:10264000125D30E212C200F0016A00BE0168AADA2F
:1026500002E2E16AE552E16E045012C206F0076A36
:1026600006BE076879DA12C202F0036A02BE036886
:10267000CFDB12C204F0056A04BE05687BDA02E211
:10268000E16AE552DCDA12C20AF00B6A0ABE0B6894
:10269000AADA12C204F0056A04BE0568A1DB0201D1
:1026A0001227C7D7C3D239DBA60EE66E840E89DAAD
:1026B0000201136BF5DA1319E8AE02D0E73402D049
:1026C000E750135D36E213C200F0016A00BE0168F4
:1026D00069DA02E2E16AE552E16E045013C206F0E3
:1026E000076A06BE076838DA13C202F0036A02BE40
:1026F0000368E9DAE66E05C0E6FF9EDA13C204F06D
:10270000056A04BE056836DA02E2E16AE55297DA44
:1027100013C20AF00B6A0ABE0B6865DA13C204F032
:10272000056A04BE0568D4DA87DA020E02011327AF
:10273000C1D77CD24FDA7F0EE66E8E0E42DA7F0E64
:10274000E66E8C0E3EDA0201146BAADA1419E8AEBA
:1027500002D0E73402D0E750145D30E214C200F03A
:10276000016A00BE01681EDA02E2E16AE552E16E2A
:10277000045014C206F0076A06BE0768EDD914C2F9
:1027800002F0036A02BE036843DB14C204F0056A68
:1027900004BE0568EFD902E2E16AE55250DA14C2DC
:1027A0000AF00B6A0ABE0B681EDA14C204F0056A4E
:1027B00004BE056815DB02011427C7D737D20ADA31
:1027C000F60EDBCFE6FFF70EDBCFE6FFF80EDBCF32
:1027D000E6FFF90EDBCFE6FFCADAEECFE6FFEECF7B
:1027E000E6FFEECFE6FFEFCFE6FF7EEC07F0006EF0
:1027F000080EE15C02E2E16AE552E16E005016D299
:10280000AFDADBA00BD00BDA31DAE8AE02D0E73476
:1028100002D0E750005C02E2B9DAF6D70201156B8C
:102820003FDA1519E8AE02D0E73402D0E750155D63
:1028300025E22FDA154112DAE8AE02D0E73402D0F1
:10284000E750005C08E325DA154133DA04E021DAC9
:10285000154134DA0FE11529066E076A06BE0768CE
:102860007BD915C202F0036A02BE0368BDDAADD996
:102870000A0E43DA88DA02011527D2D774D270DA49
:10288000DBA00BD0CCD9F2D9E8AE02D0E73402D02D
:10289000E750005C02E27ADAF6D70201166B00DA42
:1028A0001619E8AE02D0E73402D0E750165D25E2F3
:1028B000F0D91641D3D9E8AE02D0E73402D0E750C0
:1028C000005C08E3E6D91641F4D904E0E2D91641E8
:1028D000F5D90FE11629066E076A06BE07683CD9CE
:1028E00016C202F0036A02BE03687EDA6ED9170EC2
:1028F00004DA49DA02011627D2D735D231DADBA061
:102900000BD08DD9B3D9E8AE02D0E73402D0E7506E
:10291000005C02E23BDAF6D70201176BC1D9171946
:10292000E8AE02D0E73402D0E750175D23E2B1D918
:10293000174194D9E8AE02D0E73402D0E750005CEA
:1029400008E3A7D91741B5D904E0A3D91741B6D9EF
:102950000DE11729066E076A06BE0768FDD817C283
:1029600002F0036A02BE03683FDA16DA0CDA0201EB
:102970001727D4D7F8D1F4D9DBA00BD050D976D90A
:10298000E8AE02D0E73402D0E750005C02E2FED9A4
:10299000F6D70201186B84D91819E8AE02D0E734D3
:1029A00002D0E750185D1FE274D9184157D9E8AE3C
:1029B00002D0E73402D0E750005C04E36AD9184142
:1029C00078D90DE11829066E076A06BE0768C4D8D3
:1029D00018C202F0036A02BE0368ABD8DDD9D3D9AE
:1029E00002011827D8D7BFD1BBD9DBA00BD017D98C
:1029F0003DD9E8AE02D0E73402D0E750005C02E2F5
:102A0000C5D9F6D70201196B4BD91919E8AE02D016
:102A1000E73402D0E750195D1FE23BD919411ED9B6
:102A2000E8AE02D0E73402D0E750005C04E331D9CD
:102A300019413FD90DE11929066E076A06BE0768DC
:102A40008BD819C202F0036A02BE036872D8BDD8DF
:102A50009AD902011927D8D786D182D9DBA00BD009
:102A6000DED804D9E8AE02D0E73402D0E750005CEB
:102A700002E28CD9F6D702011A6B12D91A19E8AE04
:102A800002D0E73402D0E7501A5D23E202D91A419E
:102A9000E5D8E8AE02D0E73402D0E750005C08E3A6
:102AA000F8D81A4106D904E0F4D81A4107D90DE143
:102AB0001A29066E076A06BE07684ED81AC202F0C7
:102AC000036A02BE036835D880D85DD902011A278F
:102AD000D4D749D17FD8E652E65202011B6BE0D829
:102AE0001B19E8AE02D0E73402D0E7501B5D1BE2B1
:102AF0001B29066E076A06BE07682ED81BC202F0A5
:102B0000036A02BE0368DFD8DE6E05C0DDFFDECFDC
:102B1000E6FFDDCFE6FF020EE66E1DD93DD933D9C3
:102B200002011B27DCD7E552E55280D000D9020E06
:102B3000E8D0C9D8010E00C0DBFF020E05C0DBFFE4
:102B4000010EDBCFE6FF020EDBCFE6FFE66EABEF5A
:102B500016F0E66AC9EF16F0F80EDB500624E96EAF
:102B6000F90EDB500720EA6EEFCF04F004C005F049
:102B7000046A1200066A076AFAD8EE500424006E4E
:102B8000EE500520016EEE500620026EEE5007203A
:102B9000036E002A000E0122022230D9086E050EB3
:102BA000E15C1200026A036AE2D8EE500026EE50A1
:102BB0000122EE500222EE5021D9046E050EE15C96
:102BC0001200E66EE66AEBEF16F0080E96D80A0ED3
:102BD000CFEF16F0D9CFE6FFDACFE6FFE1CFD9FF8E
:102BE000E2CFDAFF120008500A24E96E09500B20E8
:102BF000EA6EEFCF06F006C007F0066A010EE76E38
:102C0000F80EDBCF02F0F90EDBCF03F0E75002261F
:102C1000000E03221200060EE66EF8EF16F0000E0C
:102C2000E66EE66AE66A97D8DF6A1200E552E5CFFB
:102C3000DAFFE7CFD9FF12007AD8060E62D0E16E34
:102C40000850010EE76EF80EDBCF08F0F90EDBCF6F
:102C500009F0E7500826000E092212007F0BE5520A
:102C6000E724006E040EE76E00181200DFCF00F0BC
:102C7000FA0EDB50E76E00181200FD0EDBCFE6FF08
:102C8000FC0EDBCFE6FF0EEC0CF0E552E552E55210
:102C90001200FA0EDBCFE6FF12000E0E7DEF16F0EB
:102CA000F70EDB50E76E1200E652E652E652F60EE1
:102CB00012007F0BE552E724070812007F0BE55254
:102CC000E7240808120072D8006E05C001F0120057
:102CD00002500424E96E03500520EA6EEF50000113
:102CE0000610006E07C001F0E66E07C0E6FF120096
:102CF000E66AE66AE66AA9EF15F0E66E060EF8EFF8
:102D000016F04DD88A92010E4AD8000EE66EE66A99
:102D10006BEC0EF0E552E55212005CDFA60EE66E9B
:102D20008E0E4FDFA60EE66E8C0EE1EF15F00F0E45
:102D3000E66E51D8E66A030E5BD88A821200E66E10
:102D4000A9EF15F000C0E6FF01C0E6FF02C0E6FFF4
:102D500003C0E6FF1200060EE66EFEEC0EF05BD03E
:102D600039DF54EF16F0E552E552E5525FD7D950FE
:102D7000FA0FE96EFF0EDA20EA6E1200E66E05C069
:102D8000E6FF96EF15F047DF020E120044DFDF2A60
:102D9000120086EC10F03FD018DF4DEF16F0E66E13
:102DA000E66AD7EC36F0E552E5521200F80EDB5039
:102DB0000224E96EF90EDB500320EA6EEF500001A9
:102DC000041012002DD813EF17F0E66E3B0EE66EDE
:102DD000880E9FEF16F0040EE66EF7EC0EF01BD097
:102DE00077DFA4DE020E1200A4DE180E7DEF16F0CF
:102DF000E66E25EC0EF0E552E55212000322A2DF4A
:102E000080C1E6FFC1EF0DF0E66E200E9FEF16F0D9
:102E10005ADFBEEF16F0E552E552E552E5521200D8
:102E200067DF78EF16F0E66A010EE66E040E9FEF9C
:022E300016F09A
:0E2E320047DB010EE66E7BDB0201025103114D
:102E40000CE0FB0EDBCFE6FF05D003C2FAFF020168
:102E50000251F96EFADFE55207D0FC0EDB508A9082
:102E6000E66A66DB030E03D0E66A62DB010E35D349
:102E70007EEC1BF032D357EC1BF0E66AE66AE66A9A
:102E800087EC1BF0E66A010EE66E040EE66E87EC38
:102E90001BF08A0EE66EE66AD7EC1BF0800EE66E3B
:102EA0000F0EDDDB900EE66E010EE66E880EF3EC83
:102EB0001BF0670EE66EE66A200EF3EC1BF0E66A86
:102EC000030EE66EEB0EE66E87EC1BF0DE6ADD6A43
:102ED000D3DB020E005C000E01581BE2860EE66E8C
:102EE0001B0EE66EBB0EF3EC1BF0580EE66E050EE5
:102EF000B6DBA90EE66E0A0EB2DB380E88DBBDEC3F
:102F00001BF0C90EDCEC1BF0DF2A010EE1E3DB2A2B
:102F1000DFD7FA0EE66E070EE66ED7EC1BF0580E02
:102F2000E66E050E9CDB380E72DBA90EE66E0A0E0D
:102F300096DBBDEC1BF0030EDCEC1BF0E552E5521A
:102F4000CCD2AFDB02E2E16AE552E16E0050830EC3
:102F5000E66ED9DB880EE66ED6DB890EE66ED3DB35
:102F60008A0EE66ED0DB060E97DA02E2E16AE552DF
:102F7000E16E0050A60EE66E8E0E58DBA60EE66ED3
:102F80009C0E54DBE66AE66A200EE66E5FDB02E228
:102F9000E16AE552E16E0050A60EE66E840E46DB55
:102FA000A60EE66E880E42DB550ED7DBAA0ED5DBE9
:102FB000A60EE66E820E3ADBC2DBC1DBF6EC1BF03E
:102FC000A60EE66E940E32DB88D24DDB02E2E16A99
:102FD000E552E16E0050E668E6689FDB040E5CDABD
:102FE00002E2E16AE552E16E0050870EE66EE66E9F
:102FF000F2DA900E4ED337DB02E2E16AE552E16E7F
:1030000000503F0E0ADB02E2E16AE5528ADBEEDBAA
:1030100064D229DB02E2E16AE552E16E00500F0E54
:10302000FCDA02E2E16AE5527CDB100E3BDA55D2B3
:1030300038DB02E2E16AE55265DA65DB4ED231DB6C
:1030400002E2E16AE552E16E0050020E1EDB02E28E
:10305000E16AE5526DDB02E2E16AE552BADA02E2C8
:10306000E16AE552BCDA02E2E16AE55261DB02E2C2
:10307000E16AE552AEDA02E2E16AE552E16E005041
:10308000050E03DB02E2E16AE55252DB02E2E16A8D
:10309000E5529FDA02E2E16AE552A1DA02E2E16A70
:1030A000E552E16E0050010E4DDB02E2E16AE552AD
:1030B00090DA02E2E16AE55292DA02E2E16AE5526E
:1030C000E16E0050020E3EDB02E2E16AE55281DA77
:1030D00002E2E16AE55283DA02E2E16AE55223DACA
:1030E000E66E81DA02E2E16AE55273DA02E2E16A4F
:1030F000E55275DA02E2E16AE552E16E0050080E2F
:1031000021DB02E2E16AE55264DA02E2E16AE552B9
:1031100066DA02E2E16AE552E16E0050100E12DB5F
:1031200002E2E16AE55255DA02E2E16AE55257DA73
:1031300002E2E16AE552E16E0050200E03DB02E29A
:10314000E16AE55246DA02E2E16AE55248DA02E271
:10315000E16AE552E16E0050400EF4DA02E2E16A03
:10316000E55237DA02E2E16AE55239DA02E2E16A6F
:10317000E552C8D9E66E37DA02E2E16AE5522CDBA5
:10318000ACD171DA02E2E16AE552E16E0050010E63
:1031900044DA02E2E16AE552B5D9E66E1CDAF40ED1
:1031A00078D261DA02E2E16AE552E16E00500F0E78
:1031B00034DA02E2E16AE552B4DA060E73D98DD14F
:1031C00042DA7ED27ED97CD272DAE652E652070E1D
:1031D000E66E020EE66E92DAD2D9AFEC24F0006E03
:1031E0000A0EE15C02E2E16AE552E16E0050FFD9AD
:1031F000010EDB50310B006E310E005C06E3300E29
:10320000DF14016E300E015C17E24DDA020EDB6A4C
:10321000030EDB6A020EDBCF00F0030EDBCF01F002
:10322000D890015001E6D0D90DE269D9020EDB2A0F
:10323000030EF0E3DB2AEED7F4D9FCD99CD9030EB8
:10324000E66E45D9F7D9040EE15C02E2E16AE55287
:10325000E16E43D12CDA27DADE6ADD6A0DDAD89026
:10326000015001E6B1D906E24AD9DF2A010EF6E3A0
:10327000DB2AF4D798DA6ADA96DAC5D9B8D913DA3C
:10328000090E64DAB4D9CDD90B0E13D9080EEDD9D5
:10329000E552E55222D1D7D976DA1FD108DA5ADAC7
:1032A000DE6ADD6AE9D9080E005C000E015806E20C
:1032B00026D9DF2A010EF6E3DB2AF4D764DAE552D9
:1032C000E5520BD1C0D91F0ED4D907D1FAD8080EB8
:1032D000E12402E3E168E652E16E040EDB6A050ECA
:1032E000DB6A6BD9FF0E005C030E015807E207D9B9
:1032F000040EDB2A050EF5E3DB2AF3D7040EE66E97
:1033000027D928DA040EDB6A050EDB6A56D95CD9A8
:1033100007E2F5D8040EDB2A050EF8E3DB2AF6D720
:10332000040EE66ED7D9F3CF00F0F4CF01F0000E13
:103330000016300E0116020E00C0DBFF030E01C0A6
:10334000DBFF08DA090E95D90B0E93D9E66A28DA65
:10335000FD0EDB50AA0827E08FD9ADD9060E05DA9D
:10336000FDD8E668030EE66EECD802E2E16AE552AB
:10337000E16E0050060EDB68020E030EDBCF01F09B
:1033800001C000F0016A0F0E0012000E0112E6D813
:10339000F6D8E7EC11F0006E0A0EE15C02E2E16A99
:1033A000E552E16E0050080EE15C02E2E16AE5528E
:1033B000E16E93D006DA91D084D833D9090EC6D9FC
:1033C000C9D92FD9080E75D8090E1DD90B0EBED933
:1033D0008A9083D0F6D90B0E16D98A907ED071D8F8
:1033E0008ED8090E10D979D06CD8DFD808E1E66AFA
:1033F000010E8DD802E2E16AE552E16E0050C9D9B2
:1034000014E0F4D9040EE66E010E81D802E2E16AFE
:10341000E5525BD980D8B9D8E66A93D802E2E16A6E
:10342000E552E16E00500A0E3DD8040EE15C02E266
:10343000E16AE552E16E51D044D8B7D808E1E66AB6
:10344000020E65D802E2E16AE552E16E0050A1D9B0
:1034500016E0040EE66E020E5AD802E2E16AE55268
:1034600034D9C4D958D8070E90D8010EE66E69D861
:1034700002E2E16AE552E16E00500A0E13D8040E32
:10348000E15C02E2E16AE552E16E27D0040EE66EED
:10349000F7EC0EF0E552F5D0E66EE66A3C0EE66E0D
:1034A00026EF1BF0E66EE66AD7EC36F0E552E55201
:1034B0001200E66E060E15D1E66A86EC10F0E552B3
:1034C000E0D01CD9E1CFD9FFE2CFDAFF1200060E1F
:1034D000E66EFEEC0EF0E552D4D0E552E5CFDAFF11
:1034E000E7CFD9FF120080C1E6FF81C1E6FF0EECF5
:1034F0000CF0C7D0000EE66EE66AE66A1200060E11
:10350000E66EEFD0E16E0050800EE66E1200E66EC1
:10351000E66A26EF1BF0B0D8CED8020E26D9030EED
:1035200000C0DBFF1200E16E0050040EE66E1200D8
:10353000FD0EDBCFE6FFFC0EDBCFE6FF0EEC0CF062
:10354000A0D0D5D822EC04F0006E0A0EE15C120087
:10355000C1D8F3CFDEFFF4CFDDFF1200070E00C0AD
:10356000DBFFE66E020EE66ED950060FE66E000E29
:10357000DA20E66E1200E6683F0EE66E1200070ED5
:10358000E66E200EE66E77EF1BF0E66E020EE66E3C
:10359000D950020FE66E000EDA20E66EE6681200E1
:1035A000610EE66EE70EE66E1200E652E652E65255
:1035B000E652FD0EDB50AA081200040EDBCF00F02D
:1035C000050EDBCF01F01200070E005C000E015863
:1035D000120002D9FBD0A1D8B2D89FEF1BF0A3DF15
:1035E000E66E9BD8F6D099D8060E4CEF1AF0E66A34
:1035F000D7D8010EE66ED0EF1BF0F5D8E66AE66A82
:10360000E66A87EF1BF055DF140E52EF1AF0E66EF4
:103610003B0EE66E880EF3EF1BF0E66EE66E7DD88D
:10362000D5D0A9DF020EE66E67EF1AF0E66EE66A05
:1036300046EF1AF0B8D83DDF080E3BDF080E32DF48
:10364000B2D859EF1AF03DDFAAEF1BF0E66A80C14D
:10365000E6FFC1EC0DF0006E050EE15C1200E66EB7
:10366000200EF3EF1BF02DDFB4D023DF060E52EF58
:103670001AF01FDFF6EF1BF0DECF00F0DDCF01F018
:103680001200E552E552E5521200E66EE66E45D8AC
:10369000A0D0E66E010EE66ED7EC36F0E552E552AC
:1036A0001CD70FDF93D067DFE66A67EF1AF009DFF8
:1036B000E652E6521200FF0E0016000E011612002E
:1036C000090EF7DE1E0EEEDE08D72DDF41DFE66ABB
:1036D00073EF1AF0060EE66E05EC0FF0E552E552B8
:1036E0001200E66E25EC0EF0E552E5521200E66A95
:1036F000E66A81C1E6FF80C1E6FF1200D9CFE6FF8E
:10370000DACFE6FF1200E66A66DFF6EF1BF0D4DEE2
:10371000E66AE66AE66A5CEF1AF00C0EE66E46EFC1
:103720001AF0E16E00508F0EE66EE66EEBEF1AF0C7
:10373000E16E0050000EE66EE66AF3EF1AF0DADE94
:1037400046EF1AF0E66EE66EF3EF1AF0B2DE080E00
:1037500003EF1BF0CFDE67EF1AF0E66E0E0E66DFAA
:10376000A70EE66E6E0E16EF1BF000C0DBFF84DFC7
:1037700001C000F0016A5BEF1BF0390E48DF10DF7B
:10378000A80EFDEF1AF0090E70DF31DF0B0E35EFDA
:103790001BF0B5DE090E6DDFFD0EDB50AA0812002E
:1037A000A2DEF6EF1BF0010E84DE070E1200240EDF
:1037B0001AD80A0E07EF1BF075DEF2DEA90EFDEF38
:1037C0001AF041DF2EDF090E03EF1BF0040E4CEF61
:1037D0001AF0050E4CEF1AF095DEE66E9EDFAFDFB5
:1037E000060E52EF1AF0E66E5CEF1AF00A0E52EF78
:0237F0001AF0CD
:0E37F200F8EC1FF0610EE66EE70EE66EA80E14
:10380000A1DB06EC20F006EC20F0DF6ADF50006E52
:10381000016AD890015004E6C80E005C000E015801
:103820002CE293DB020EE66E3B0EE66E800E1EEC83
:1038300020F0220EE66E3C0EE66E880E51EC20F073
:1038400079DB01E0010E1FDBE1DB020EDB50800BB8
:1038500014E00A0EDF5C02E2010E01D00A0E006ED7
:10386000016A00BE016800C0E6FF01C0E6FFD7ECB8
:1038700036F0E552E552DF2AC9D74BEC20F0000EB6
:10388000C1D3BADA62DBFC0EDBCF00F0FD0EDBCF7A
:1038900001F0040E45DBFEE1026A23DB02BE036891
:1038A000EFDBABDB6DDBA9DBE66A080EE1DBCBD23D
:1038B000A3DA640E8DD3A0DA4F0E8AD399DB45DBF1
:1038C000F40EDBCF00F0F50EDBCF01F0040E28DBA9
:1038D000FEE1026A01BE026804DB02BE0368D0DBBF
:1038E000020EDB6AF70EDB50F36E020EDBCFF4FF45
:1038F000F350F45C01E3BFD0006A87DA046A056A1A
:10390000076A0C0EDADAFEE1BEDB070E006E7DDA26
:10391000EEDA02E0C3DAFEE16CDADE6ADD6ADECFFF
:1039200000F0DDCF01F0060E005C000E01585BE2F6
:10393000006A42DB020EDB500A6E0B6AC5DA0A50DF
:103940001E24086E0B501F20096EF80EDB50082451
:10395000AFDB0920EA6EEFCF04F0056AC8DA02E0B7
:103960009DDAFEE13CDB020EDB50126E136AACDA2C
:1039700012501E24106E13501F20116E010E1026BF
:10398000000E1122F80EDB50102492DB1120EA6E9B
:10399000EFCF0CF00D6A0E6A0F6A0C0E1F0B07E0DA
:1039A000D8900C360D360E360F36E806F9E10C507D
:1039B00000120D5001120E5002120F500312DECFF2
:1039C00014F0DDCF15F0166A176A14500012155066
:1039D00001121650021217500312BADADF2A010E32
:1039E0009EE3DB2A9CD7E66A030EE66EEB0E59DBFC
:1039F00012DB11DB0C0E006E020EDBCFE7FF005076
:103A0000E726020EE7CFDBFFF30EDBCF09F00A6AF1
:103A10000B6A0C6A020EDBCF05F0066A076A086AB9
:103A200044DA0526EE500622EE500722EE50082218
:103A300005C01EF006C01FF007C020F008C021F02E
:103A400009C023F00AC024F00BC025F00CC026F0FA
:103A50003AEC38F01AC001F01BC002F01CC003F0B1
:103A60001DC004F01A501B101C101D1002E1C1DE15
:103A700039D7000E37D7F30EDBCF08F0096A0A6A90
:103A80000B6A020EDBCF04F0056A066A076A0DDADC
:103A90000426EE500522EE500622EE500722D1DA1F
:103AA00008C023F009C024F00AC025F00BC026F09E
:103AB0003AEC38F01AC000F01BC001F01CC002F054
:103AC0001DC003F01A501B101C101D1005E0F60E4F
:103AD000DB50020B01E08DDE95D28ED9600EFDD950
:103AE00060DA02E2E16AE552E16E0050ACD184D9BD
:103AF000C00E24DA56DA02E2E16AE552E16E0050C5
:103B0000A2D17AD9E652E65220DA070E006E54DAD4
:103B100004680568066A076AC8D9F3D9040E1F0B42
:103B200002E0BCD9FEE165D9F50EDBCF00F0F60E60
:103B3000DBCF01F0040EF4D9FEE1026AD2D902BE55
:103B400003689EDA006A38DA046A056A0668076A5A
:103B5000ACD9D7D90C0EB1D9FEE195DA0101826B4F
:103B6000F70EDB50E76E8219E8AE02D0E73402D0E0
:103B7000E750825D39E28229066E076A06BE076851
:103B8000F80EDB50062494DA0720EA6EEFCF04F03B
:103B900004C005F0046A82C102F0036A02BE036831
:103BA000F80EDB50022484DA0320EA6EEF500001A5
:103BB0000410006E05C001F0DE6E05C0DDFF060ECC
:103BC000006EFAD9DECF04F0DDCF05F090D902E027
:103BD00065D9FEE10ED91ADA860EE66E1B0E48DABA
:103BE000020E01018227BCD7E552E5522CD143DAFF
:103BF00002E2E16AE552E16E005025D1FDD8030EE4
:103C0000E66ECAD902E2E16AE552E16E00501BD1CC
:103C1000F3D8E66AC1D902E2E16AE552E16E0050EA
:103C200012D129DA02E2E16AE552E16E00500BD1CD
:103C3000DFD9DF6AF60EDBA428D0FA0EDBCF1EF048
:103C4000FB0EDBCF1FF0FC0EDBCF20F0FD0EDBCF39
:103C500021F0030E1BDA02EC38F01AC01EF01BC074
:103C60001FF01CC020F01DC021F0020E0FDA3AEC4C
:103C700038F0FA0E1EC0DBFFFB0E1FC0DBFFFC0E90
:103C800020C0DBFFFD0E21C0DBFFF60EDBA01ED047
:103C90005CD9006AE9D820C006F0046A056A076AA0
:103CA0000C0E0BD9FEE1EFD9060E006EDDD81EC05A
:103CB00004F01FC005F01BD902E0F0D8FEE199D84E
:103CC000470EE66E780EE66E200EEBD9F60EDBB4EC
:103CD0004CD0DF6A1ED9E8AE02D0E73402D0E750FC
:103CE000005C60E2960EE66E0B0EE66EA3D901E074
:103CF000010EC9D8DFCF00F0016A00BE0168A9D863
:103D0000DF28006E016A00BE01682BD90ED9BA0EF9
:103D100019D9D60EE66ED30EE66E8CD901E0010EEF
:103D2000B2D8020EDF24006E016A00BE016891D88D
:103D3000030EDF24006E016A00BE016812D9DCD8D0
:103D400079D901E0010E9FD8040EDF24006E016ACC
:103D500000BE01687ED8050EDF24006E016A00BE39
:103D60000168FFD8060EDF26B5D7DF6AD2D8E8AEE5
:103D700002D0E73402D0E750005C14E2BDD85AD933
:103D800001E0010E80D8DFCF00F0016A00BE0168BB
:103D900060D8DF28006E016A00BE0168E2D8020E1A
:103DA000DF26E4D778D92ED127D8F60EDB500409C8
:103DB000E66E0CD83DDF006E080EE15C02E2E16ABF
:103DC000E552E16E00503FD0E66A4BD1F70EDBCFF3
:103DD000E6FFF80EDBCFE6FFF90EDBCFE6FFF1D80A
:103DE000EECFE6FFEECFE6FFEECFE6FFEFCFE6FF4A
:103DF0001200F5D8A8EF1FF0D9CFE6FFDACFE6FF23
:103E0000E1CFD9FFE2CFDAFF1200D6D8020EDBCF26
:103E100008F0096A0A6A0B6AD4D80850EE24046EC6
:103E20000950EE20056E0A50EE20066E0B50EE2073
:103E3000076E9CD81EC004F01FC005F020C006F01D
:103E400021C007F01200E552E5CFDAFFE7CFD9FF36
:103E5000120000D9010EDBCFEFFF020EDBCF03F023
:103E600003C002F0036A1200A7D8FA0EDBCF04F0F9
:103E7000FB0EDBCF05F0FC0EDBCF06F0FD0EDBCF3B
:103E800007F0B6EF1FF0E66EFFEC0FF0E552DE52E2
:103E9000F3CFDEFFF4CFDDFFDD521200D890043601
:103EA000053606360736E80612008BD8EE501200AB
:103EB00028DE006E090EE15C1200D890073206324F
:103EC00005320432E8061200020E206E216ADECFAF
:103ED00025F0DDCF26F05EEF38F0E66E040EE66EDC
:103EE00012000A0E0012240E0212036A1200066A61
:103EF000076A040E1F0B1200B60EE66E0B0EE66E7E
:103F000012000416EE500516EE500616EE50071677
:103F10001200DFCF00F0F70EDB50E76E0018120042
:103F2000D89000360136E8041200B60EE66EDB0EBD
:103F3000E66E120002010E51800B1200E66E010EB9
:103F4000E66E1200AED806EF20F060D84BEF20F0FE
:103F500000C0E6FF01C0E6FF02C0E6FF03C0E6FFC7
:103F600080D078D802C0EFFF06EF20F0D89004365A
:103F7000053606360736030E89D863D83AEF38F08F
:103F8000900EDCDF880E1EEF20F00A0EE66E3B0E70
:103F9000E66E880E1EEF20F0400EE66E17DF58EF3B
:103FA0001FF0400EE66EF60EDBCFE6FF0FDF86DC7D
:103FB000006E0B0EE15C1200016A200E026E036AB5
:103FC0001200D950FA0FE96EFF0EDA20EA6E1200E5
:103FD000E66E400EE66E55DCE552E55234D70450ED
:103FE000001205500112065002120750031212006F
:103FF00003DFE652E652E6521200E66AE66A200E57
:104000001EEF20F0E552E552E5521DD7E66AE66A5A
:10401000E66AE4EF1EF070DFBB0E94DF86DFBB0EB6
:1040200091DFB60EE66EEB0E3FD8B60EE66E1B0EB7
:1040300054EF20F0BA0E86DF9AEF1FF0E66EE4EF41
:104040001EF004C01EF005C01FF006C020F007C01F
:1040500021F01200F80EDB5000242AD80120EA6E6D
:10406000120086EC10F0E552E552E552E5521200DE
:104070001BD8F9EF1BF0C0DE040EE66ECCEF1FF08C
:1040800067DFC5EF1FF0B5DEC0EF1FF0236E246AB7
:10409000256A266A1200E66A020E1FDF95DE06EF29
:1040A00020F0CCDF06EF20F0E66EBB0EA2EF1FF093
:0840B000E96EF90EDB5012006D
:0840B800090EC26EA60EC06ED7
:1040C0000F0EC16E92841200D0DBE652DF6A0C0E36
:1040D000C16EC282C2B2FED76EEC24F0C3CFEFFF36
:1040E000010EE76E6EEC24F0E750E926000EEA229E
:1040F000C4CFEFFFC168E55263EF24F0070E8B12C7
:10410000F80E9416938CD8DF8150400B01E0010E1D
:1041100002013D6F929092929396939A939093920C
:1041200093949296899689989288899A928A8A8697
:104130008A9A8A908A92F18E02D8ABEF20F0C00E54
:10414000F2129D809E909F80D10ECF6E1F0ECE6E7C
:10415000010ECD6E1200E00EF212F294440ED66EF5
:10416000C30ED56E120081DBFD0EDB50010BE81C87
:10417000E8B08B80E8A08B90FD0EDB50020BE8408E
:104180007F0BE81CE8B08B82E8A08B92FD0EDB5021
:10419000040BE840E8403F0BE81CE8B08B84E8A043
:1041A0008B9491D362DB0A0EE12402E3E168E652CC
:1041B000E16E060E0201335D03E36D50020B02E077
:1041C0008EDA86D2400EE66E000EE66E010EE66EC8
:1041D00038EC36F0E552E552E552E66ED950020F62
:1041E000E96E000EDA20EA6EE552E750EE6EED6AF7
:1041F000020EDBCF00F0030EDBCF01F0013401E350
:1042000057D200500008000E015401E351D20101C1
:104210000051C00A01E1F1D1700A01E1B7D1100AE1
:1042200001E15DD1300A01E13FD1100A01E1E5D0A1
:10423000F00A01E1CDD0100A01E1B5D0300A01E168
:10424000A3D0810A01E183D0910A01E17CD0920AD6
:1042500001E178D0E20A67E0100A2FE0300A22E09C
:10426000C30A07E0030A01E01ED2010E406F0201FB
:1042700017D0010EE66E5AEC35F0E5520201376BAD
:104280000A0E375D08E2070EE66E13DBE66A11DB05
:104290000201372BF5D70101030E406F0201010E19
:1042A000376F06D2050E3ADB01C1E6FF44DB19EC9D
:1042B00017F0E552E552E5529DD0060E2FDB0101C5
:1042C0008051020A1AE0010A0FE00B0A0DE0010A10
:1042D0000BE00D0A02E0010A23E1D0DAE66AE66AA1
:1042E000E668AEDA1BE218D0C9DAFE0EE66EE668C2
:1042F0003F0EE66EA5DA12E20FD0E66A1CDB0EEC8A
:104300000CF0E552E552E552B9DA060EE66E200EE3
:10431000E66EE66A95DA02E2E16AE552E16E005085
:104320000201020ED8D0050E73DA02E08FDAFEE148
:1043300078DA02E07EDAFEE1EBDA22EC04F00BDB65
:1043400057E254D005850151080801E30585060EA2
:104350005FDA02E07BDAFEE164DA02E06ADAFEE1CB
:10436000F4DAAFEC24F0F7DA02E2E16AE552E16E4A
:104370000050E76E010EE7CFDBFFDB50030825E1BD
:104380000101030E406F21D0050E42DA02E05EDA31
:10439000FEE147DA02E04DDAFEE1BADA5FEC28F03E
:1043A000DADA26E223D0060E33DA02E04FDAFEE153
:1043B00038DA02E03EDAFEE1C8DA0EEC2CF0CBDAB5
:1043C00002E2E16AE552E16E005001C137F284D0A9
:1043D000050E1EDA02E03ADAFEE123DA02E029DA1B
:1043E000FEE196DAE7EC11F0B6DA02E2E16AE552B4
:1043F000E16E00500101406F54D001C181F1080EFF
:10440000DB6A090EDB6A40DA01E66FDA14E225DACC
:1044100060DAFEE142DAE8BC80090101815D05E174
:104420001CDA57DAFEE1BFD906D0080EDB2A090EE6
:10443000EAE3DB2AE8D728DA01E657DA0AE20201E2
:104440000F511F0BE8B8E0090A0803E00101010E53
:1044500020D00101816B080EDB6A090EDB6A14DAD9
:1044600001E643DA14E2F9D934DAFEE116DAE8BCFF
:1044700080090101815D05E1F0D92BDAFEE193D9D4
:1044800006D0080EDB2A090EEAE3DB2AE8D7010191
:10449000030E406F02010F511F0BE8B8E009010144
:1044A000806F0201010E17D0DE0E006E610E016EEC
:1044B000026A00C0E6FFE66E02C0E6FF41DA43ECA6
:1044C00037F0036E050EE15C02E2E16AE552E16E4F
:1044D00003500201120E376F040E20DAE9D0070EE6
:1044E0001DDA01010151030A3AE0010A10E0030A52
:1044F00006E0010A01E0DCD0010EE66E01D0E66ABA
:10450000050EE66E290EE66E0EEC0CF020D002C110
:1045100000F0016A026A036A84D902E08AD9FEE1E6
:10452000E9D9100E1F0B07E0D890083609360A3675
:104530000B36E806F9E1F6D900C0E6FF01C0E6FF58
:1045400002C0E6FF03C0E6FF86EC10F0E552E5523C
:10455000E552E5520101010E406F0201A8D0010EA3
:10456000E66EFFEC0FF0E552020EF3CFDBFF030E19
:10457000F4CFDBFF020EDBCF40F1030EDBCF01F007
:1045800001C000F0016A00C041F134D00151050AB8
:104590002DE0010A16E0070A10E0010A08E0030A0C
:1045A00001E07FD08AA27BD092AA05D07AD08AA0DF
:1045B00076D092B876D0020E77D08AA472D0050E4B
:1045C00073D00201010E376F8AB603D00101040EC9
:1045D0000BD08AAA02D0010107D089A603D001011D
:1045E000030E02D00101050E406F62D0A9D96CDD27
:1045F000E552E5520201020E5AD00151040A3AE096
:10460000070A2FE0010A15E0030A4BE10251030AF1
:104610000BE0010A05E0030A44E193928A9206D076
:1046200093928A82929A03D093928A82928A899AEA
:1046300036D00251060A12E0050A0BE0010A05E035
:10464000030A2FE193908A9006D093908A809298E3
:1046500003D093908A809288899821D09288938001
:104660001ED00251050A04E0060A1BE18A9417D005
:104670008A8415D00251050A0FE0010A0BE0070AEF
:1046800005E0020A0EE18A868A8A08D08A868A9A1A
:10469000898605D08A9601D08A868A9A8996010EE3
:1046A00003D0030E01D0030E406F0201010E376FDD
:1046B000020137510DE004010CBF08D037C2E6FFFC
:1046C0003FD90EEC36F0E552E552E5520201376B68
:1046D0000A0EE15C02E2E16AE552E16EF4D0020109
:1046E0003851391104E1100E386F270E396F380731
:1046F000000E395B6DA207D03851391120E18B8053
:104700008B828B7412000201335102E1010E10D032
:10471000330508E0020E335D02E1040E09D0030EFA
:10472000335D02E1020E04D0050E335D03E1040E99
:104730008EEF24F0060E335D02E102013A6B1200A7
:104740008150400B01E0010E02013D5D07E0815008
:10475000400B01E0010E3D6F81AC010C000CCAD88A
:10476000E1D8040E00C0DBFF050E01C0DBFF060E22
:1047700002C0DBFF070E03C0DBFF05C1E6FF01C17E
:10478000E6FF1200E66ED950040FE96E000EDA2043
:10479000EA6EEECFE6FFEECFE6FFEECFE6FFEFCF1D
:1047A000E6FF9BEF24F0BE0EF6265D0EF722090011
:1047B000F5CF00F20900F5CF01F20900F5CF02F2C2
:1047C0000900F5CF03F20900F5CF04F20900F5CF97
:1047D00005F20900F5CF06F20900F5CF07F209004E
:1047E000F5CF08F20900F5CF09F20900F5CF0AF27A
:1047F0000900F5CF0BF20900F5CF0CF20900F5CF57
:104800000DF20900F5CF0EF20800F5CF0FF21200FD
:1048100085D802C100F0016A026A036A100E1F0BFC
:10482000120003C104F0056A066A076A080E1F0B2E
:104830001200D8900436053606360736E806120010
:10484000E66A79D8AFEC24F0ABEF24F0D8900036CC
:10485000013602360336E8061200080EDBCFF6FFFB
:10486000090EDBCFF7FF040E1200D9CFE6FFDACF37
:10487000E6FFE1CFD9FFE2CFDAFF1200070EE66EC6
:10488000020EE66EA0EF24F0080EDBCF00F0090E5A
:10489000DBCF01F0D89001501200BE0EF6265D0E5F
:1048A000F7220E0EF626000EF7220800F5507F0BB9
:1048B000120059DCE552C80EE66EE66AD7EC36F017
:1048C000E552E5521200E552E5CFDAFFE7CFD9FF16
:1048D0001200D890F636F736E8061200FC0EDBCF51
:1048E000E9FFFD0EDBCFEAFF1200420E005C000E76
:1048F0000158120004500012055001120650021215
:104900000750031204C108F0096A0A6A0B6A120010
:1049100026DF060EE66E010EC2EF23F0E66E23DC04
:10492000E552120008500012095001120A500212FA
:104930000B500312120081C1E6FF80C1E6FF120096
:10494000400EE66E010EE66E120009DF400EE66EC6
:0E495000010EC2EF23F0006E0A0EE15C1200B1
:02495E005CDA21
:10496000DF6AF40EDBA003D0010EE66EE5DA020189
:10497000045105112AE0F40EDBCFE6FFF50EDBCF84
:10498000E6FFF60EDBCFE6FFF70EDBCFE6FFD950F2
:10499000F80FE96EFF0EDA20EA6EEECFE6FFEECFFB
:1049A000E6FFEECFE6FFEFCFE6FF05D005C2FAFF48
:1049B00002010451F96EFADF006E080EE15C02E2BA
:1049C000E16AE552E16E005020D0FC0EDB50DF6A58
:1049D000DFCF00F0F50EDB50E76E0018E8AE02D036
:1049E000E73402D0E750005C10E2DFCF00F0016A4C
:1049F00000BE0168F60EDB500024E96EF70EDB50B6
:104A00000120EA6EEF6ADF2AE3D7F40EDBA202D0C0
:104A1000E66A92DAE5523DD2FFD9DF6AD5DA02E1E1
:104A2000000E01D0010E04C0E7FFE75204E0E842A7
:104A30007F0BE706FCE1A0092DDB02E1000E01D0AF
:104A4000010E04C0E7FFE75204E0E8427F0BE706EF
:104A5000FCE1A10957DADF6AF6DAE8AE02D0E73402
:104A600002D0E750005C05E27ADA00BE0168EFDAB6
:104A7000F3D7DEEC10F0E5520CD2CED9DF6AA4DA1F
:104A800002E1000E01D0010E04C0E7FFE75204E08E
:104A9000E8427F0BE706FCE1A00934DA006A01680E
:104AA000026A036A28DAEE500016EE500116EE5044
:104AB0000216EE500316080ED8900332023201326D
:104AC0000032E806F9E10050E5DA02E1000E01D01B
:104AD000010E04C0E7FFE75204E0E8427F0BE7065F
:104AE000FCE1A1090FDADF6AAEDAE8AE02D0E73402
:104AF00002D0E750005C05E232DA00BE0168A7DAB6
:104B0000F3D7DEEC10F0E552C4D1A4DADBA452D026
:104B1000DBA01ED0ABDA55DA006A016A200E026E05
:104B2000036A046A056A0668076AE5D9EE50041646
:104B3000EE500516EE500616EE5007160C0E18DA5B
:104B4000FEE154DAE66A5BDA800EE66E58DA8EDA57
:104B5000020EDB6A82DAE8AE02D0E73402D0E75018
:104B6000005C01E38ED0B60EE66E0B0E23DA200E4B
:104B7000E66E3C0EE66E880EE66E35D946DA01E04A
:104B8000010EE6D9DBCF00F0016A00BE01688EDAC3
:104B9000DBCF02F0040EDBCF03F0000E0216FF0E97
:104BA0000316BDD900BE016820D902C0EFFF09DAA3
:104BB00099D9D0D75BDA05DA006A42D920C006F06D
:104BC000046A056A076A0C0ED3D9FEE10FDA060EF5
:104BD000006E36D91EC004F01FC005F0066A076AD1
:104BE000040E1F0B07E0D89004360536063607364C
:104BF000E806F9E11BD9800EE66E01DA3CDA1B0EFD
:104C0000D9D939DA0B0ED6D9DE6ADD6A2ADA060E70
:104C1000005C000E015834E224DA026A036A008A5A
:104C20003C0E0112880E0212D8D9EFD901E0010E14
:104C30008FD9DBCF02F0036A02BE036838D936DAB7
:104C4000DBCF04F0040EDBCF05F0000E0416FF0EE0
:104C5000051605C004F0056A020EDBCF02F0036AF8
:104C600002BE036824D9010E0026000E0122BDD821
:104C700004C0EFFFFBD9DF2A010EC8E3DB2AC6D749
:104C800018DA050EE15C02E2E16AE552E16E01D15B
:104C9000C3D8DF6A30D9EECFE6FFEECFE6FFEECF26
:104CA000E6FFEFCFE6FF80C1E6FFC1EC0DF0006E3E
:104CB000050EE15C02E2E16AE552E16E0050DF6A56
:104CC000C2D9E8AE02D0E73402D0E750005C0EE271
:104CD000090E68D985EC0FF0E552E552E66EDFCF9C
:104CE00000F0016A00BE0168B2D9EAD7E552D1D01E
:104CF000B1D9DBA40CD0000EE66EE66AE66A060EB9
:104D0000E66EFEEC0EF0E552E552E552E552F60E87
:104D1000DBA013D0DBA406D0EED8EE52EE6AEE6A2A
:104D2000EE6A01D077D9DE6ADD6AD0D806E2B7D85C
:104D3000DF2A010EFAE3DB2AF8D7020EDB6A8DD9EF
:104D4000E8AE02D0E73402D0E750005C09E26FD948
:104D500000BE01684AD813D900BE016864D9EFD7F4
:104D6000050EE15C02E2E16AE552E16E92D072D991
:104D7000DBA412D089D8DBCF01F001C000F0016ABA
:104D8000010EE76E03D9E750E926000EEA2200C0C3
:104D9000EFFFFCD80BD920D0DBA00BD080D8DE6A87
:104DA000DD6A94D806E27BD8DF2A010EFAE3DB2A1B
:104DB000F8D7020EDB6A51D9E8AE02D0E73402D050
:104DC000E750005C09E233D900BE01680ED8D7D89D
:104DD00000BE016828D9EFD7050EE15C02E2E16A66
:104DE000E552E16E56D0E66A5AD1F80EDB50002447
:104DF000E96EF90EDB500120EA6E1200FA0EDBCFED
:104E000000F0FB0EDBCF01F0FC0EDBCF02F0FD0E5D
:104E1000DBCF03F000501200D9CFE6FFDACFE6FF78
:104E2000E1CFD9FFE2CFDAFFE652120004500012C0
:104E3000055001120650021207500312EDEF27F041
:104E4000016A200E026E036AFA0EDBCF04F0FB0E3D
:104E5000DBCF05F0FC0EDBCF06F0FD0EDBCF07F05D
:104E6000D8900436053606360736030E236E246ABC
:104E7000256A266A04C01EF005C01FF006C020F097
:104E800007C021F03AEF38F0C5D8D6D8030E040E8B
:104E90001200E552E5CFDAFFE7CFD9FF1200060E88
:104EA000E66EE66E25EC0EF0E552E5521200206E3D
:104EB000216ADECF25F0DDCF26F05EEC38F002501F
:104EC0001E24006E03501F20016E1200CAD8FA0E75
:104ED000DBCF02F0FB0EDBCF03F00250005C03508F
:104EE00001581200020EDBCFE7FFE850E726020E62
:104EF000E7CFDBFF1200D950FA0FE96EFF0EDA2080
:104F0000EA6E1200E66EE4EC10F0E5521200E65292
:104F1000E652E652E652020EDB6AF60E120003C0BB
:104F200002F0036A020EDB28006E016A1200F70E1F
:104F3000DB50E76E00181200FD0EDBCFE6FFFC0E23
:104F4000DBCFE6FF0EEC0CF0E552E552E552120025
:104F5000E66EFFEC0FF0E5526FD8020E1200E66A23
:104F600011EC11F0E552E66EDFCF00F0016A12009D
:104F7000D8900732063205320432E806120002C029
:104F8000EFFF020EDBCF00F0016A1200F80EDBCF5C
:104F9000E9FFF90EDBCFEAFF1200E552E750EF6EB2
:104FA000DF2A1200E66E040EE66E1200030EDBCF5F
:104FB000EFFF1200E66EBA0EE66E15DF57D836EF39
:104FC00028F054D859EF28F0D7EC10F00D0E046EED
:104FD00015DF011002100310120000C0E6FF01C02F
:104FE000E6FF02C0E6FF03C0E6FF59D01FDF900EC8
:104FF000E66E010EE66E880EE66EF3EF26F0030E07
:10500000E66EEB0EE66EF3EF26F030D802010E519D
:10501000800B1200040EE66E060EE66E05EC0FF035
:10502000E552E552120042D83ADF72EF27F02CDF4A
:10503000DBCF03F08FEF27F0030EF3CFDBFF040E7F
:10504000F4CFDBFF1200DFCF00F097EF27F0CDDECB
:10505000CDEF27F0E1DE87EF27F0DBCF00F097EF11
:1050600027F0DECF00F0DDCF01F01200E66AE66A3D
:10507000E66AF3EF26F0960EE66E1B0E9BDFB60E89
:10508000E66EDB0E97DFD60EE66EDB0E93DFB60E16
:10509000E66E120037DFB2DE35DFE4EF27F086EC94
:1050A00010F0E552E552E552E55212009EDED6EFD1
:0E50B00027F0E66A010E76DF96DE36EF28F076
:0250BE0057DBBE
:1050C000F40EDBA003D0010EE66E8BDA02010A516A
:1050D0000B1130E0F40EDBCFE6FFF50EDBCFE6FF81
:1050E000F60EDBCFE6FFF70EDBCFE6FFD950F80F69
:1050F000E96EFF0EDA20EA6EEECFE6FFEECFE6FFB6
:10510000EECFE6FFEFCFE6FF05D00BC2FAFF0201BC
:105110000A51F96EFADF006E080EE15C02E2E16A04
:10512000E552E16E0050F40EDBA20ED0E66A59DAC9
:10513000010E0BD0FC0EDB502C0A04E0010A02E049
:10514000E66A4FDA030E01D0020E1AD3FAD9E652FC
:10515000B4DA5EDBECDAE66A010EE66E040E31DBF1
:105160005A0EE66EE66A240EE2DA0A0E32DBDF6AD7
:1051700022DAE8AE02D0E73402D0E750005C01E367
:10518000B3D0F00EE66E070E37DB900EE66E010E22
:10519000E66E880ECCDA070E006E016A2F0E026EE4
:1051A000036ADFCF08F0096A0A6A0B6A08AE03D007
:1051B00009680A680B68EADA0850EE24046E0950A0
:1051C000EE20056E0A50EE20066E0B50EE20076EA4
:1051D0000F0E0516066A076A040E1F0B02E016DAA8
:1051E000FEE1F0D9A7DA006A016A200E026E036AB6
:1051F000DFCF08F0096A08BE0968ADD902E006DA17
:10520000FEE1E0D9DF280E6E0F6A0EBE0F68B3D93B
:1052100002E00EDAFEE18BD9010E15DA020EDF2470
:10522000086E096A08BE096896D902E0EFD9FEE166
:10523000C9D9030EDF240E6E0F6A0EBE0F689BD90C
:1052400002E0F6D9FEE173D9020EFDD9040EDF2487
:10525000086E096A08BE09687ED902E0D7D9FEE166
:10526000B1D9050EDF240E6E0F6A0EBE0F6883D90A
:1052700002E0DED9FEE15BD9030EE5D9060EDF249C
:10528000086E096A08BE096866D902E0BFD9FEE166
:1052900099D9070EDF240E6E0F6A0EBE0F686BD908
:1052A00002E0C6D9FEE143D9E66A030EE66EEB0ED4
:1052B00088DA010EDB6ADBCF00F0040EE76E00181F
:1052C000E8AE02D0E73402D0E750005C0AE2B60E46
:1052D000E66E1B0EE66EBB0E74DAEFD9010EDB2A0A
:1052E000EAD7080EDF2644D7580EE66E050E84DA9C
:1052F000380E6FDAA90EE66E0A0E7EDA390E69DA1A
:10530000610EE66EE70EE66EA80E5BDAD6D9020EE7
:105310001CDAD3D9D2D9610EE66EE70EE66EA90E7D
:1053200050DA76DA4EDAE55214D1CCD944D9E8AE67
:1053300002D0E73402D0E750005C18E280D904BE06
:1053400005684DDA04BE05684EDA02BE036895D9D9
:10535000550E07DAAA0E05DAA60EFED9A60EA5D9B5
:1053600003E102013251FAE1DBD9E0D7E552F1D095
:10537000A9D921D9E8AE02D0E73402D0E750005CC9
:1053800019E25DD904BE05682ADA04BE05682BDA85
:1053900002BE036872D9A60EE66E820E0FDA27DA15
:1053A00026DA3BD9A60E81D903E102013251FAE196
:1053B000B7D9DFD7E552CDD085D9FDD8E8AE02D038
:1053C000E73402D0E750005C14E239D904BE056826
:1053D00006DA04BE056807DA02BE03684ED9A60ED7
:1053E000BBD9A60E62D903E102013251FAE198D984
:1053F000E4D7E552AED0A5D8E6527F0EE66E9E0EFB
:10540000DDD97F0EE66E9C0ED9D9DF6AD4D8E8AE1E
:1054100002D0E73402D0E750005C23E210D904BE8A
:10542000056833D9620E71D904BE056812D9630EBE
:1054300067D902BE0368B1D9610EE2D97F0EE66E6C
:10544000840EBCD97F0E88D97F0E2FD903E10201CB
:105450003251FAE1EAD87F0EE66E940EAFD9DF2A18
:10546000D5D7E55276D06DD8DF6AA5D8E8AE02D0A0
:10547000E73402D0E750005C0AE2DFCF00F0016AB7
:1054800000BE01684ED80A0E43D9B7D8EED761D016
:1054900058D8DF6A90D8E8AE02D0E73402D0E7509F
:1054A000005C0AE2DFCF00F0016A00BE016839D873
:1054B000170E2ED9A2D8EED74CD043D8DF6A7BD8AE
:1054C000E8AE02D0E73402D0E750005C08E2DFCF5C
:1054D00000F0016A00BE016824D88FD8F0D739D017
:1054E00030D8DF6A68D8E8AE02D0E73402D0E7509F
:1054F000005C0CE2DFCF00F0016A00BE0168EED86C
:10550000080E06D9080E21D978D8ECD722D0E66A41
:10551000040EE66EF7EC0EF057D1E66A86EC10F05A
:1055200053D1DCD8180EF4D8080EA5EF2BF00A5092
:1055300000120B5001120C5002120D5003129AEF80
:105540002BF015D9E6521200066A076A1FD9EE50F1
:105550001200E55215D1F80EDB500824E96EF90E61
:10556000DB500920EA6EEFCF04F0056A066A076A8D
:10557000040E1F0B1200F80EDB500E24E96EF90E1C
:10558000DB500F20EA6EEFCF0AF00B6A0C6A0D6A4F
:105590000C0E1F0B1200020EE66E040EE66E85EC7A
:1055A0000FF0E552E552E76E010EE7CFDBFFDB506F
:1055B000020B02081200DFCF00F0F70EDB50E76E9F
:1055C0000018120004500012055001120650021279
:1055D000075003121200016A026A036A0E0E0112DA
:1055E0001200FD0EDBCFE6FFFC0EDBCFE6FF0EEC7C
:1055F0000CF0E552E552E5521200060EE66EE66E3C
:1056000025EC0EF0E552E552DF2A1200D890043660
:10561000053606360736E8061200050EE66EE66A1F
:10562000BCEC36F0E552E5521200010EA5EF2BF06E
:10563000D8900A360B360C360D36E8061200DFCF4E
:1056400004F0056A1200006E016A200E026E036A01
:1056500012007ADF0426EE500522EE500622EE50AC
:10566000072205C000F006C001F007C002F00001EB
:10567000036AB1DF05C0E6FFC7D08FD8A80EC0D837
:10568000A60EE66E840EDEEF2BF05EDF0424006EC5
:10569000EE500520016EEE500620026EEE500720FF
:1056A000036E99DF00C0E6FFAFD0E66E500E86D8DD
:1056B000F50EA6D89CD8CBEF2AF0E66AE66AE66A31
:1056C0008DEF2AF03EDFE652A60EE66E9E0E76D8ED
:1056D000A60EE66E9C0E72D8DF6A1200F80EDB5042
:1056E0000024E96EF90EDB500120EA6EEF50E66E01
:1056F000E66A030EE66E060EE66EFEEC0EF064D071
:105700007FD8DFCF02F0036A12007AD81FEF2BF0A8
:10571000E66E060EE66E25EC0EF0E552E55212003E
:1057200084DFA60EE66E940E49D8DF2A1200E66EDC
:105730008DEF2AF000C0E6FF01C0E6FF02C0E6FFE1
:1057400003C0E6FF86EC10F03FD0E66EE66AD7ECC9
:1057500036F0E552E5521200E66E820E2FD80DEFBC
:105760002BF0E66E0E0E2AD8A70E00EF2CF0D9CF44
:10577000E6FFDACFE6FFE1CFD9FFE2CFDAFF120092
:10578000E552E5CFDAFFE7CFD9FF1200D950FA0F83
:10579000E96EFF0EDA20EA6E1200F80EDB500224EA
:1057A000E96EF90EDB500320EA6EEF50006E016ADD
:1057B000E8500E0E011200C0E6FF26D0E66E87EF1D
:1057C0002AF0B5DF5DEF2BF0E552E552E552E552E8
:1057D0001200E66E3B0EE66E880E97EF2BF055DF5B
:1057E000A90E85EF2BF035DFAA0E80EF2BF0000E0F
:1057F000E66EE66A87EF2AF0E66E200E97EF2BF052
:10580000E66E6E0EDEEF2BF001C0E6FF87EF2AF0AA
:0C58100054DFE66A010EE66E040E120082
:04581C0006DADF6A5F
:10582000F40EDBA003D0010EE66E1DDA0201065174
:1058300007112AE0F40EDBCFE6FFF50EDBCFE6FF23
:10584000F60EDBCFE6FFF70EDBCFE6FFD950F80F01
:10585000E96EFF0EDA20EA6EEECFE6FFEECFE6FF4E
:10586000EECFE6FFEFCFE6FF05D007C2FAFF020159
:105870000651F96EFADF006E080EE15C02E2E16AA1
:10588000E552E16E005020D0FC0EDB50DF6ADFCF26
:1058900000F0F50EDB50E76E0018E8AE02D0E734FA
:1058A00002D0E750005C10E2DFCF00F0016A00BEDA
:1058B0000168F60EDB500024E96EF70EDB50012084
:1058C000EA6EEF6ADF2AE3D7F40EDBA202D0E66AC3
:1058D000CAD9000EE552C1D1A8D9E652E652E65225
:1058E000E652040EDB6AFDD995D9EFD9F00EE66ECB
:1058F000070EE66E200E0CDA900EE66E010EE66ED6
:10590000880E06DA060E006E016A2F0E026E036A1A
:1059100004680F0E056E9CD90416EE500516EE5065
:105920000616EE500716040E1F0B07E0D89004363B
:10593000053606360736E806F9E104500012055030
:1059400001120650021207500312D0D9BAD9040E20
:10595000DB6AABD9E8AE02D0E73402D0E750005C96
:1059600001E38BD0800EE66E030EE66EEB0EE66E64
:10597000E66A50D9DE6ADD6A8AD90DE2B60EE66EB5
:105980001B0EE66EBA0EC4D9ACD944D9DF2A010E7B
:10599000F3E3DB2AF1D7DE6ADD6A79D962E2B3D9B3
:1059A000026A036A008A3C0E0112880E02129ED916
:1059B00031D902010E51800B01E0010EE66EFFECC1
:1059C0000FF0E552020EF3CFDBFF030EF4CFDBFF47
:1059D000040EDBCF02F0036A02BE0368020E206EE3
:1059E000216ADECF25F0DDCF26F05EEC38F00250E4
:1059F0001E24006E03501F20016E21D9020EDBCF42
:105A0000EFFFDBCF06F0030EDBCF07F0000E06162C
:105A1000FF0E071607C006F0076A040EDBCF02F080
:105A2000036A02BE0368DECF04F0DDCF05F0010E8D
:105A3000D89004360536E806FBE1010E0426000E78
:105A4000052202500424006E03500520016EF7D891
:105A500006C0EFFF46D935D9DF2A010E9EE3DB2AC7
:105A60009CD733D9080E006E040EDBCFE7FF005041
:105A7000E726040EE7CFDBFF6CD7050EE15C02E200
:105A8000E16AE552E16EE9D0D0D8DF6AA60EE66E93
:105A90009E0E46D9A60EE66E9C0E42D9DF6ADFCF77
:105AA00000F0F70EDB50E76E0018E8AE02D0E734E6
:105AB00002D0E750005C5DE2DFCF04F0056A04BE6F
:105AC0000568C6D80424006EEE500520016EEE5025
:105AD0000620026EEE500720036E016A026A036A16
:105AE0000E0E0112E9D89AD8A90EF7D8DFCF04F02C
:105AF000056A04BE0568ACD80426EE500522EE50B7
:105B00000622EE50072205C000F006C001F007C0D3
:105B100002F00001036A016A026A036A0E0E0112B2
:105B200005C0E6FF01C0E6FF79D8AA0ED6D8A60EBA
:105B3000E66E800EF5D8A80EE66E500EF1D8F50E82
:105B4000CCD8000EE66EE66A69D8020EE66E040E48
:105B5000E66E85EC0FF0E552E552E66EDFCF00F021
:105B6000016A00BE01686BD8E552E750EF6EDF2A8C
:105B700096D7E55272D059D8E652E652020EDB6A49
:105B8000F60EDB50010B29E0B7D8D880000EEE549A
:105B9000000EEE54000EEE54000EEE541EE26CD8D1
:105BA000F80EDBCFE9FFF90EDBCFEAFFE552E75055
:105BB000EF6EDE6ADD6AA7D8FA0EDBCF02F0FB0ECD
:105BC000DBCF03F00250005C0350015806E265D8B9
:105BD000DF2A010EF0E3DB2AEED7020EDB6A65D87E
:105BE000E8AE02D0E73402D0E750005C0FE244D8C0
:105BF000020EDBCF00F0016A00BE016820D8E5523A
:105C0000E750EF6E4AD8020EDB2AE9D7E552E5529B
:105C1000E55223D056D865D861EF2EF0E66A040E1F
:105C2000E66EF7EC0EF0E55277D0D9CFE6FFDACF8B
:105C3000E6FFE1CFD9FFE2CFDAFFE6521200F80E1D
:105C4000DB500024E96EF90EDB500120EA6E1200F1
:105C5000066A076A51D8EE501200E552E5CFDAFF26
:105C6000E7CFD9FF1200FD0EDBCFE6FFFC0EDBCF46
:105C7000E6FF0EEC0CF050D0050EE66E060EE66E5A
:105C800005EC0FF0E552E552F350E66E12003BD8FA
:105C9000040E005C000E01581200060EE66EE66E61
:105CA00025EC0EF0E552E5521200DBCF00F0F70EC6
:105CB000DB50E76E0018120000C0E6FF01C0E6FFEF
:105CC000120086EC10F0E55227D0E66A010EE66E6F
:105CD000040EE66EE66A0AEF2EF0E66E6E0E90EFA8
:105CE0002EF0E66AE66AE66AE66A1200E5DF02C0BE
:105CF000E6FF03C0E6FF1200D950FA0FE96EFF0E6F
:105D0000DA20EA6E1200DECF00F0DDCF01F01200E3
:105D1000E66EE66A61EF2EF0E552E552E5521200BA
:065D2000E66E0EEF2EF00E
:0A5D2600666460645A6454644E64BD
:105D300046643E643A6433642C6423641B641264D6
:105D400009640164F963F163E963E163DA63D263CF
:105D5000CA63C363BC63B563AE63A6639F639763A3
:105D60008F6387637F6377636F6368636063586380
:105D700051634963406337632E6325631B6311637B
:105D80000763FE62F562EB62DD62D162CA62C362E2
:105D9000BE62B662AE62A6629E6295628C628362E9
:105DA0007A62726266625C62516248623F62356228
:105DB0002B62216216620C620162F761F061481881
:105DC000F62F904C885AFA0CB853A22500034818B5
:105DD0003030904C885A800E2A53202601034818F0
:105DE000C432F04C765BAA11E054E8290202801814
:105DF000D433F04C765BE20FE054E82903028018BC
:105E00005432F04C765BE20FE054E829040280182B
:105E1000CC32F04C765BE20F6654E829050280181C
:105E2000D433F04C765B2C11E054E8290602481874
:105E3000B833F04C765BE20FBA54E82907024818F1
:105E4000C432F04C765B6A119054E8290802481875
:105E5000C431F04C765B6610E0547629090248188C
:105E6000C431F04C765B6610E05476290A0248187B
:105E7000C831F04C765BE20FE054E8290B02481879
:105E8000C431F04C765B6610E05476290C02801821
:105E9000C432F04C765B6A1190547E280D0248188B
:105EA000DE336E4D0000F4110000D42A0E004818B5
:105EB000DE336E4D0000F4110000D42A0F004818A4
:105EC0009632F04C765BB4106654002810024818E5
:105ED000DE336E4D0000F4110000D42A1100481882
:105EE0009C32F04C765B6A116654E829120248181D
:105EF0009632F04C765BB410E0545A2A13024818DC
:105F00000000F04C765B0000E054000014024818DA
:105F10000000F04C765B0000E054000015024818C9
:105F20000000F04C765B0000E054000016024818B8
:105F30000000F04C765B0000E054000017024818A7
:105F40000000F04C765B0000E05400001802481896
:105F50000000F04C765B0000E05400001902481885
:105F60000000F04C765B0000E05400001A02481874
:105F70000000F04C765B0000E05400001B02481863
:105F80000000F04C765B0000E05400001C02481852
:105F9000422F904C885A800EB853A2251D034818F2
:105FA0003030904C885A800EB853A2251E034818F2
:105FB0000000904C885A0000B85300001F03481896
:105FC0000000904C885A0000B853000020039C1930
:105FD0008231904C0000FC0EB853BE27A1089C19DA
:105FE0008231904C0000FC0EB853BE27A2089C19C9
:105FF0008231904C0000FC0EB853BE27A30848180D
:106000000000904C885A0000B85300002403481840
:106010000000904C885A0000B8530000250348182F
:106020000000904C885A0000B85300002603B818AE
:10603000762E0A4BD858B6094C515E2429054818CB
:10604000E8336E4D0000F4110000D42A2C004818EB
:1060500038346E4D0000F4110000D42A2D00481889
:10606000B433F04C765B2010E05400282E02481820
:10607000C031F04C765BF010E054FC282F02481839
:106080003030904C885A800E2A5300003003481854
:106090003030904C885A340E2A53A2253103301BDD
:1060A000702E184A0000D408000000003207301B90
:1060B000702E7A4A000036090000000033074818A5
:1060C00038346E4D0000F4110000D42A3400481812
:1060D0001230904C885A440D7053A6263603481847
:1060E0001230904C885A440D7053A626B7034818B6
:1060F000CA2F904C885AAC0BB853A22538034818C5
:106100009632F04C765B9E0FE0545A2A3902E6191B
:106110003E3000000000260CF65300003A09E61954
:10612000000000000000900CF65300003B094818E6
:10613000A231904C885AE80DB85300003C0348182F
:10614000A231904C885AE80DB8530000BD0348189E
:10615000A231904C885A8E0DB85300003E03481867
:10616000A231904C885A8E0DB8530000BF03B81866
:1061700000000A4BD85800004C510000C0051A1A04
:10618000B638303C0000EE3A0000FC3BA7041A1A77
:10619000B638303C0000EE3A0000FC3BA8041A1A66
:1061A000B038303CA83DDA3A223CEE3BB5041A1A2E
:1061B000B638303C0000EE3A0000FC3BC1041A1A2D
:1061C000B638303C0000EE3A0000103CAA061A1A1D
:1061D000B638303C0000EE3A0000103CAB0475735A
:1061E0006270696370726F67203132303132300013
:1061F000503234464A47006473503330465F4C5641
:10620000005031384C4631344B3232005031384630
:1062100031344B3232005031384C4631334B32320C
:10622000005031384631334B323200503138463627
:10623000374B5858005031384636584B5858005054
:106240003136463138585800503138463837325890
:10625000005031384C4634584B32320050313846B9
:1062600034584B3232005032344658584B4158580B
:10627000580050313246353038004932435F454589
:106280005F32004932435F45455F31005031384647
:10629000583232300050313846585833310050317E
