:020000040000FA
:06000000F7EF15F01200FD
:06000800ACEF14F0120041
:06001800C7EF14F0120016
:06080000F7EF15F01200F5
:06080800ACEF14F0120039
:06081800C7EF14F012000E
:06082A000200362C000064
:100830007A000000080000002E2C0000720000006A
:0408400008000000AC
:0C084400C0EC0AF0020EE1263BEC0BF0C9
:10085000FD0EDB50040A01E18DD0020A01E17CD0DB
:10086000050A01E179D0060A3DE0070A2FE0030AF4
:1008700016E0010A05E08A905CEC0BF0030E7DD0D7
:10088000050E04EC0AF03F0EE66EE66E84EC0BF00B
:10089000040E04EC0AF08F0EE66EE66E06D0040E2F
:1008A00004EC0AF0800EE66EE66A84EC0BF06BEC6A
:1008B0000AF0C8EC09F075EC0AF06BEC0AF0040ED3
:1008C000E66E60EC0DF0E552E55208D034EC0BF02A
:1008D0001F0EE66E060EE66EA9EC0CF0E552E55230
:1008E0000A0E37D0DE6ADD6A70EC0AF0FF0E005C9B
:1008F000030E015805E2B8EC0BF0F6E3DB2AF4D75F
:1009000090EC0BF0F3CF82F0F4CF83F034EC0BF0EB
:10091000DE6ADD6A70EC0AF0070EDBEC0AF005E235
:10092000B8EC0BF0F7E3DB2AF5D790EC0BF0F3CF44
:1009300084F0F4CF85F0000E00018417300E851787
:1009400034EC0BF0090EC5EC0BF00B0E13EC0BF0B6
:10095000080ECDEC09F00ED034EC0BF0E6683F0E3B
:10096000E66E37EC0BF0090EC5EC0BF00B0EC5EC88
:100970000BF08A905CEC0BF0010E006E020EE15C55
:1009800002E2E16AE552A3EF0AF088EC0BF0F50E03
:10099000DBA002D03BEC0BF0FD0EDB50030A01E1C3
:1009A000B3D1070A01E1B0D1020A01E17FD1030A04
:1009B00001E1ECD0070A01E1B7D0030A3BE0010AEC
:1009C00004E05CEC0BF0030EC5D112EC0CF0DBCFB5
:1009D00000F0F60EDB50FE0FE76E0018E8AE02D016
:1009E000E73402D0E750005C12E2010E20EC0AF07E
:1009F00008BE096830EC0AF002BE0368DFEC09F0BB
:100A00000D0EE66EC8EC09F05AEC0AF0E0D7010EC4
:100A100020EC0AF008BE096830EC0AF002BE036858
:100A2000DFEC09F0D5EC0BF0000EE66EE66AEAECBE
:100A30000CF039D19FEC0BF08C0E04EC0BF0060E91
:100A400004EC0AF0000EE66EE66A84EC0BF012ECA1
:100A50000CF00BEC0AF0E8AE02D0E73402D0E7501D
:100A6000005C01E36FD1DE6ADD6A70EC0AF0060E0D
:100A7000DBEC0AF036E2010EE76EF70EDBCF0AF090
:100A8000F80EDBCF0BF0E7500A26000E0B22020E09
:100A9000DBCF0CF00D6A0CBE0D680A500C24086EFA
:100AA0000B500D20096EDE500824E96EDD503FEC3E
:100AB0000BF004BE0568F70EDB500424026EF80E3E
:100AC000DB500520036EDE500224E96EDD5003206A
:100AD0004FEC0AF00D0EE66EC8EC09F0F5EC0AF0EA
:100AE000C4D7070E20EC0AF008BE096830EC0AF003
:100AF00002BE036817EC0BF0EA6E060EE926000E44
:100B0000EA2246EC0BF0E66E05C0E6FFD5EC0BF0F2
:100B1000B0EC0AF0090E63EC0AF0090E63EC0AF07F
:100B2000080E99EC0AF095D7020EDB6A0BEC0AF07E
:100B3000E8AE02D0E73402D0E750005C01E302D116
:100B4000DE6ADD6A70EC0AF0100EDBEC0AF015E2EA
:100B5000020EDBCF0AF00B6A0ABE0B6838EC0AF013
:100B600004BE0568ADEC0BF00E0EDBEC0AF002E201
:100B700008EC0BF0F5EC0AF0E5D7080EC5EC0BF02D
:100B800008EC0BF0100E99EC0AF0D0D7020EDB6ADD
:100B90000BEC0AF0E8AE02D0E73402D0E750005C7C
:100BA0002DE2020EDB407F0B006E016A026A036ACF
:100BB00000AE03D001680268036845EC0AF0D2EC8D
:100BC0000AF015E2020EDB28066E076A06BE076809
:100BD000EEEC09F04DEC0BF002BE0368DFEC09F01F
:100BE000A6EC0BF013EC0BF0060EE66E02D00AEC4E
:100BF0000CF0D4EC09F05AEC0AF0CAD7F50EDB5031
:100C0000020B01E19FD0F60EDBCF00F0016A026A11
:100C1000036A00AE03D001680268036845EC0AF07D
:100C2000D2EC0AF001E38ED0DE6ADD6A70EC0AF0E5
:100C3000026A036A0868030E096E0A6A0B6AF60EF6
:100C4000DBCF0CF00D6A0E6A0F6A0CAE03D00D6894
:100C50000E680F682DEC0BF0EE500C26EE500D22B6
:100C6000EE500E22EE500F220C50085C046E0D5018
:100C70000958056E0E500A58066E0F500B58076E35
:100C80000450005C055001580650025807500358A4
:100C900005E2B8EC0BF0CAE3DB2AC8D70AEC0CF08B
:100CA000E66EA9EC0CF0E552E5524CD0020EDB6A80
:100CB000B2DBE8AE02D0E73402D0E750005C42E29B
:100CC000DE6ADD6A70EC0AF0080EDBEC0AF014E272
:100CD000020EDBCF0AF00B6A0ABE0B68C9DB04BE4A
:100CE0000568ADEC0BF0060EDBEC0AF002E208EC56
:100CF0000BF0F5EC0AF0E6D796EC0BF008EC0BF0F5
:100D0000080E99EC0AF0D4D7020EDB6A84DBE8AE59
:100D100002D0E73402D0E750005C14E2020EDB2878
:100D2000066E076A06BE076859DB4DEC0BF002BE83
:100D3000036845DB37EC0BF096EC0BF008EC0BF09E
:100D4000B9DBE4D7F50EDBA204D05CEC0BF0010EAE
:100D500001D0020E006E030EE15C02E2E16AE55290
:100D6000A3EF0AF0C0EC0AF0020EE126F70EDBA0BA
:100D700002D03BEC0BF0FE0EDB50020A01E17AD010
:100D8000010A04E05CEC0BF0030E97D0BCEC0BF016
:100D9000DF6ADFEC0AF0E8AE02D0E73402D0E750B9
:100DA000005C01E382D0DFCF02F0036A02BE036879
:100DB000EBEC0BF0DFCF02F0036A02BE0368F7EC46
:100DC0000BF0DFCF02F0036A02BE0368F90EDB50BE
:100DD0000224E96EFA0EDB500320EA6EEF50006E3B
:100DE000016AE850CFEC0BF0A80E9BEC0BF0A60EBE
:100DF000E66E840E04EC0BF0FD0EDB0406E1550EEE
:100E000017EC0CF0AA0E17EC0CF0A60EE66E820E94
:100E100004EC0BF06ADBA60E03EC0CF0E76E010E9F
:100E2000E7CFDBFFDB50020B02081CE17E0EE96E10
:100E3000000EEA6EEE5000017A5D006EEE507B59B6
:100E4000016EEE507C59026EEE507D59036ED890C3
:100E5000E850000A06E6050EAEDB000E0258000E52
:100E60000358D9E3010E99DAA60EE66E940ECCDB98
:100E7000DF2A8FD7DF6AA3DBE8AE02D0E73402D0E7
:100E8000E750005C12E2DFCF00F0016A00BE0168AB
:100E900035DBEF50E66EE66A030EE66E8BDA080E7F
:100EA000C5EC0BF0B5DBDF2AE6D7F70EDBA204D0EA
:100EB0005CEC0BF0010E01D0020E006E020EE15C44
:100EC00002E2E16AE5523FD388EC0BF0F50EDBB0AD
:100ED000D2DBFD0EDB50020A01E101D1040A01E17F
:100EE000FED0050A01E1FBD0070A01E1F8D0010AB2
:100EF00001E192D0040A05E0010A03E0DDDB030E04
:100F000033D19FEC0BF08C0E7FDBFD0EDB0406E192
:100F1000E66AEF0E79DBE66AF80E76DB0001866B97
:100F200069DBE8AE02D0E73402D0E750865D01E32A
:100F300014D186C000F0016A00BE0168026A036A2B
:100F4000A4DA04DB26DB046E050EE15E045086C0E5
:100F500006F0076A06BE0768B2DB02BE03682FDA36
:100F6000D9EC0BF0FD0EDB0404E1F60EE66E2A0E62
:100F70004BDB86C004F0056A04BE0568066A076A92
:100F80006CDBEE500424006EEE500520016EEE5036
:100F90000620026EEE500720036E002A000E01228A
:100FA00002220322D3DAF5DA086E050EE15E08505C
:100FB000010EE76EF70EDBCF08F0F80EDBCF09F07D
:100FC000E7500826000E092286C00AF00B6A0ABE06
:100FD0000B6808500A24E96E09500B20DDEC0BF079
:100FE000010EE76EF70EDBCF02F0F80EDBCF03F059
:100FF000E7500226000E032286C004F0056A04BEF4
:10100000056802500424E96E0350052048DAD1DB5C
:10101000020E0001862784D7F50EDBA00DD024DB5D
:10102000DF6AD1DAE8AE02D0E73402D0E750005CE4
:1010300003E2EEDADF2AF5D70001866BDBDAE8AEF1
:1010400002D0E73402D0E750865D01E386D04ADB68
:10105000E8AE02D0E73402D0E750005C0BE286290C
:10106000066E076A06BE07682ADB02BE0368A7D9B8
:10107000E66AE3DBF90EDBCFE6FF000186417F0B7A
:10108000E552E724070826E18629066E076A06BEB0
:101090000768A4D986C008F0096A08BE096894DB0D
:1010A0000920EA6EEF500410026E05C003F0FF0E37
:1010B00002160F0E031684510210006E85510310A4
:1010C000016E010E00C0DBFF020E01C0DBFF7FDA04
:1010D000E66AB3DB9DDA020E00018627AFD7F50E74
:1010E000DBA00DD0C1DADF6A6EDAE8AE02D0E734F9
:1010F00002D0E750005C03E28BDADF2AF5D700016B
:10110000866B78DAE8AE02D0E73402D0E750865D2D
:1011100024E2E8DAE8AE02D0E73402D0E750005C1F
:1011200003E326DA070814E18629066E076A06BE7D
:101130000768C5DA02BE03687ADAEA6EA7DA010E3A
:1011400000C0DBFF020E05C0DBFF41DAE66E75DB97
:101150005FDA020E00018627D4D7F50EDBA203D09A
:10116000ABDA010E01D0020E006E030EE15C02E26A
:10117000E16AE552E8D104DA050EE126020EDB6AE7
:10118000F50EDBB078DAFE0EDB50020A18E0010A39
:1011900066E12DD940D9E8AE02D0E73402D0E7505D
:1011A000005C6FE2090E8FD9E66ED5D900BE0168EA
:1011B00036D9E552E750EF6E020EDB2AEBD74DDA57
:1011C000000EEE5C200EEE58000EEE58000EEE58AB
:1011D00025E34ADAF50EDBA00ED0DE6ADD6A80D99F
:1011E000FDD9000E025E200E035A09DA04E2C0DACD
:1011F000F6E3DB2AF4D7020EDB6A0DD9E8AE02D0A3
:10120000E73402D0E750005C3CE28ADA80D900BEC5
:1012100001686EDA00BE0168BBDAEFD7F50EDBA01D
:101220000BD07EDADE6ADD6A5BD9D8D9E8D904E270
:101230009FDAFAE3DB2AF8D7020EDB6AECD8E8AED5
:1012400002D0E73402D0E750005C1BE269DA5FD9D4
:1012500000BE01684DDA00BE01689ADAEFD7020ECF
:10126000DB6AD9D8E8AE02D0E73402D0E750005CA0
:1012700008E271D900BE0168D2D8EF6A020EDB2AFB
:10128000F0D7F50EDBA202D0E66AA0D8050EE15C2D
:1012900002E2E16AE552E16E3FD23ADA020EDB6A1F
:1012A000F70EDBB0E8D9FE0EDB50020A26E0010A99
:1012B00051E162DA020EDB6A68D9E8AE02D0E734A7
:1012C00002D0E750005C58E2E8D902BE036883DA36
:1012D000E4D902BE03688BDAA60EE66E800E94D9BE
:1012E000A80E91DAE66E37D900BE016807D9E5523B
:1012F000E750EF6E020EDB2ADFD7F70EDBA011D02E
:10130000050E96D8DE6ADD6AEBD8FB0EDBCF02F065
:10131000FC0EDBCF03F073D904E22ADAF5E3DB2A13
:10132000F3D7020EDB6A31D9E8AE02D0E73402D03F
:10133000E750005C21E2050E7BD8F350E66E0BD936
:1013400000BE0168DBD8E552E750EF6E61D9020EAE
:10135000DB2AE9D7020EDB6A18D9E8AE02D0E734FF
:1013600002D0E750005C08E2F6D800BE0168C6D89B
:10137000EF6A020EDB2AF0D7F70EDBA202D0E66A94
:1013800025D8030EE15C02E2E16AE552E16EC4D1C8
:10139000040EE66E60EC0DF097D1E66EE66AE66A42
:1013A000E66AD8EC14F090D1E66EA9EC0CF0E552A8
:1013B000E5521200060EE66E66EC0DF085D137D9C7
:1013C000EA6E64D9E66E05C0E6FF1200FE0EDBCFC2
:1013D000E6FF20EC0CF0E552E5521200F70EDB5070
:1013E0000624E96EF80EDB5007207DEF0BF035D9AF
:1013F000EECFE6FFEECFE6FFEECFE6FFEFCFE6FF64
:1014000051D9020EDB6A1200E66EE66A3C0EE66E09
:10141000E66A52EF0BF0DBCF00F0F60E5AD1F70E72
:10142000DB500024E96EF80EDB500120EA6E12005A
:10143000E66E060EE66E6CEC0DF0E552E55212001B
:10144000E76EF70EDBCF06F0F80EDBCF07F0E750C4
:101450000626000E0722020EDBCF08F0096A1200F2
:1014600006500824E96E0750092047D94DEF0BF0CC
:10147000DE500A24086EDD500B20096E010E08268E
:10148000000E0922A1D93FEF0BF0E7D8EE5000265D
:10149000EE500122EE500222EE5003221200EA6EBC
:1014A000EF5000010610006E07C001F0E66E07C0A5
:1014B000E6FF1200020EDBCFE7FFE850E726020E40
:1014C000E7CFDBFF1200E66E040EE66EDCEC0DF0FB
:1014D000E552E5521200000EE66EE66AE66A120078
:1014E000DECF00F0DDCF01F012007AC07EF07BC0CD
:1014F0007FF07CC080F07DC081F01200F90EDB50DF
:101500000024E96EFA0EDB500120EA6E1200030E91
:10151000F3CFDBFF040EF4CFDBFF030E040EDBCFB3
:1015200003F003C002F0036A020EDB28006E016ABA
:101530001200006E020EDBCFE7FF0050E726020E1E
:10154000E7CFDBFF1200E16E0050E6D000C0E6FFFF
:1015500001C0E6FF1200020EDBCF00F0016A1200AC
:10156000000EE66EE66AEAEC0CF0E552E552120077
:10157000F90EDBCFE6FF86417F0BE552E724120030
:10158000D9CFE6FFE1CFD9FF1200DBCF00F0F80E94
:10159000A0D002C0E6FF03C0E6FFFE0EDBCFE6FFF1
:1015A00064EF0CF0FF0E005C030E0158000E0258B1
:1015B000000E03581200005C000E01581200DFCF2D
:1015C00000F0F80E86D0DFCF00F0F90E82D0010EC9
:1015D000DBCFE6FF020EDBCFE6FF1200F90EDBCF1A
:1015E00002F0FA0EDBCF03F01200020EDE26000E30
:1015F000DD221200F60EDB50E76E86191200025053
:10160000005C035001581200E66EE66AC8EF09F06C
:10161000060EE66ED4EF09F0FF0E0016000E01165E
:101620000050CFEF0BF0E66E060ED4EF09F0F70E88
:10163000DB500224E96EF80EDB50032012008A8290
:10164000020EABDE8A92010ECDEF09F00F0EE66EB0
:101650009FDEE66A030ED4EF09F0D950F90FE96E68
:10166000FF0EDA20EA6E120036DFDAEF09F0020E22
:10167000E66EDAEF09F0010EE66EE6EF09F00920FA
:101680009CD8020EDBCF04F0056A1200EF50000177
:101690000410006E05C001F01200020EDBCF02F054
:1016A000036A1200FE0EDBCFE6FF64EC0CF0006E66
:1016B000050EE15E00501200E66AE6EF09F08EDEEC
:1016C00086C002F0036A1200E552E552E552E55287
:1016D0001200DB50E76E00181200FDDE59DE020E2C
:1016E00063EF0AF045DF006E040EE76E001812008B
:1016F00096DE02C0EFFFABEF0AF0EA6EEFCF04F028
:1017000004C005F0046A12000C0EE66EC8EF09F082
:1017100037DF030EE1261200E552E7CFD9FF1200B2
:10172000040E18EF0AF0080ECDEF09F0080E7BDF6B
:101730000A0ECDEF09F0E66E6E0E04EF0BF0A60E6A
:10174000E66E8E0E61DFA60EE66E120090DF180EBA
:101750006ADF020E22DE0A0E1200DE500424026E40
:10176000DD500520036E63DF9ADE81DF70EF0AF043
:101770004FDFDF2A010E1200A60EE66E9E0E44DF3A
:10178000A60EE66E9C0E04EF0BF04DDF93EF0BF010
:1017900046DE030EDBCFEFFF3BDF5AEF0AF00E0E03
:1017A0000112D4DEE66AC8EF09F050DF9EDE1FEFBB
:1017B0000BF04CDF44DFB0EF0AF0EA6EEFCF06F03B
:1017C00006C007F0066A1200F70EDB500824E96E27
:1017D000F80EDB501200FB0EDB500224006EFC0EF4
:1017E000DB500320016E18DFA90E9BEF0BF0FB0E00
:1017F000DB500224FC0EDB500320006E016A0CDF7C
:10180000AA0E9BEF0BF0E66E500EFEDEF50E93DF98
:101810006DEF0BF082C0E6FF83C0E6FF97DFE66E58
:10182000060E12008CDF9C0EEFDEF7EF09F0E66E7D
:101830000E0EEADEA70E9BEF0BF0BCDD96EF0BF071
:1018400089DA020EE126FD0EDB0421E1FE0EDB50FB
:10185000030802E18A9401D08A9648DA010E6ADA16
:101860001BDA02E6640E4BDAFBE3FE0EDB500308E4
:1018700002E18A9601D08A94020E5CDA37DA0CDA39
:1018800002E6640E3CDAFBE3030EE66E13D08A86B2
:10189000040E50DA2BDA00DA02E6140E30DAFBE33B
:1018A000050E48DA8A8422DAF7D902E6140E27DA1E
:1018B000FBE3E66AD8EC0EF0E552020EE15C02E2D0
:1018C000E16AE552E16E3BD245DAFE0EDB50020AD8
:1018D0002EE0010A3DE11BDA06C000F0000124DA27
:1018E00006C0E6FF3CDAF80EE66E6E0EE66EE9D94B
:1018F0000EDA05C000F00001036A16DA05C0E6FF43
:101900002EDAF70EE66E6E0EE66EDBD9FA0EDBCF40
:1019100000F0FB0EFC0EFD0E07DA00C0E6FF1FDA3A
:10192000F60EE66E6E0EE66EE66A040E10D0FA0E45
:10193000DBCF00F0FB0EDBCF01F0D8900036013694
:1019400000C0E6FF01C0E6FF020EE66E060EFBD900
:10195000F6D1D9CFE6FFE1CFD9FFE652939093922B
:101960008A928A90DF6ADFCF00F0FE0EDB50E76ECE
:101970000018E8AE02D0E73402D0E750005C15E270
:101980008A820000FD0EDBA002D08A8001D08A90FE
:10199000FD0EDBCFF3FFF390F342FD0EF3CFDBFF41
:1019A00000008A920000DF2ADED7DF6ADFCF00F076
:1019B0000A0EE76E0018E8AE02D0E73402D0E75016
:1019C000005C03E200D0DF2AF1D7E552E552E7CF11
:1019D000D9FF1200D9CFE6FFE1CFD9FFE652DF6A87
:1019E000DFCF00F0100EE76E0018E8AE02D0E7344B
:1019F00002D0E750005C1DE28A820000FD0EDB5041
:101A0000010B02E08A8001D08A90D950FD0FE96E67
:101A1000FF0EDA20EA6E010E0F0B06E0EC52D890B2
:101A2000ED32EF32E806FAE100008A920000DF2A88
:101A3000D7D70000E552E552E7CFD9FF1200D9CF42
:101A4000E6FFE1CFD9FFE6528A8200008A900000CB
:101A50008A920000DF6ADFCF00F00E0EE76E0018FA
:101A6000E8AE02D0E73402D0E750005C1DE28A8283
:101A70000000FD0EDB50010B02E08A8001D08A904D
:101A8000D950FD0FE96EFF0EDA20EA6E010E0F0B42
:101A900006E0EC52D890ED32EF32E806FAE10000B1
:101AA0008A920000DF2AD7D78A8200008A9000003D
:101AB0008A9200000000E552E552E7CFD9FF1200FC
:101AC00004D988DFE552E5528A9039D1FED8B7DFD4
:101AD000E552E5528A9033D1D9CFE6FFE1CFD9FF65
:101AE000030EE126FD0EDBCFE6FFFE0EDBCFE6FFA9
:101AF00030DFE552E5529380DF6ADFCF00F00A0E57
:101B0000E76E0018E8AE02D0E73402D0E750005C80
:101B100003E200D0DF2AF1D7010EDB6A020EDB6A96
:101B20008A8200008A920000DF6ADFCF00F00E0E8A
:101B3000E76E0018E8AE02D0E73402D0E750005C50
:101B40001FE28A8200008150010B026E036ADF509F
:101B500002C000F003C001F005E0D8900036013665
:101B6000E804FBE1D950010FE96EDACFEAFF00503B
:101B7000EE120150ED1200008A920000DF2AD5D744
:101B80008A8200008A92000093908A900000010EE1
:101B9000DBCF00F0020EDBCF01F000C0F3FF01C08D
:101BA000F4FF00D0030EE15C02E2E16AE552E16E6F
:101BB000E552E7CFD9FF1200D9CFE6FFE1CFD9FF39
:101BC000020EE126FD0EDBCFE6FFFE0EDBCFE6FFC9
:101BD000C0DEE552E552DF6ADFCF00F0080EE76EA7
:101BE0000018E8AE02D0E73402D0E750005C08E20B
:101BF0008A8200008A9000008A920000DF2AECD7D7
:101C00009380DF6ADFCF00F00A0EE76E0018E8AEBF
:101C100002D0E73402D0E750005C03E200D0DF2AB4
:101C2000F1D7010EDB6ADF6ADFCF00F0080EE76E46
:101C30000018E8AE02D0E73402D0E750005C1AE2A8
:101C40008A8200008150010BDF5206E0DFCFF3FFF4
:101C5000E846FE0BF306FCE1006E010EDBCFE7FF6A
:101C60000050E712010EE7CFDBFF00008A92000070
:101C7000DF2ADAD793908A900000010EDB5000D063
:101C8000006E020EE15C02E2E16AE552E16E005094
:101C9000E552E7CFD9FF12007E0EE96E000EEA6E24
:101CA000EE5000017A5D006EEE507B59016EEE50F1
:101CB0007C59026EEE507D59036ED890E850000AB0
:101CC0001200E66A040EA3EF0EF044D8FD0EDBCF3F
:101CD000E6FFFE0EDBCFE6FF3CDEE552E552FB0EF3
:101CE000DBCFE6FFFC0EDBCFE6FF12007AC07EF012
:101CF0007BC07FF07CC080F07DC081F01200005C72
:101D0000000E0158000E0258000E03581200FA0E81
:101D1000DBCF04F0FB0EDBCF05F0FC0EDBCF06F0D3
:101D2000FD0EDBCF07F01200016A026A036A0E0E95
:101D300001121200E66ED8EC0EF0E5521200E552E8
:101D4000E7CFD9FF1200E66EBBDEE552E552E55261
:101D5000E5521200D9CFE6FFE1CFD9FF120001C052
:061D6000E6FF61EF0EF04A
:0A1D6600070E8B12F80E9416938CF2
:101D70008150400B01E0010E00018D6F9290929214
:101D80009396939A9390939293948A868A9A8A9040
:101D90008A92F18ECCEF0EF0C00EF26E9D809E9076
:101DA0009F80D80ECF6EEF0ECE6E010ECD6E12005C
:101DB00006DAFE0EDB50010BE81CE8B08B80E8A0D1
:101DC0008B90FE0EDB50020BE8407F0BE81CE8B066
:101DD0008B82E8A08B92FE0EDB50040BE840E840BB
:101DE0003F0BE81CE8B08B84E8A08B94EDD1E7D9D9
:101DF0000A0EE126060E0001875D03E36D50020B1B
:101E000002E017D9D8D0400EE66E000EE66E010E45
:101E1000E66E6AEC14F0E552E552E552E66ED950F2
:101E2000020FE96EDACFEAFFE552E750EE6EED6A97
:101E3000020EDBCF00F0030EDBCF01F0013401E333
:101E4000AAD000500008000E015401E3A4D0100EE7
:101E50000101005D08E1010EBBD9BED922EC04F0FE
:101E6000E552E5525ED9200E0101005D1CE1030E32
:101E70000001745D07E19DD9FE0EE66EE6683F0E37
:101E8000E66E06D096D9060EE66E200EE66EE66A7F
:101E9000E66AA2D9BBEC08F0006E0A0EE15E0050C3
:101EA0000001020EAFD9300E0101005D0CE153D9E3
:101EB00002E06AD9FEE157D902E06DD9FEE191D97D
:101EC000C5EC04F094D9400E0101005D12E143D944
:101ED00002E05AD9FEE147D902E05DD9FEE1EBD834
:101EE000260EE66E010E0DD9BBEC08F0006E0A0E50
:101EF00059D9500E0101005D0CE119D9060EE66EAC
:101F0000010E39D9B2EC06F0006E080EE15E005009
:101F100008D9600E0101005D0AE109D9260EE66EBE
:101F2000010E29D94DEC09F0006E080E3BD9700E58
:101F30000101005D0CE10FD902E026D9FEE113D9C1
:101F400002E029D9FEE14DD964EC07F050D9800EAA
:101F50000101005D08E1010EE66E010EE66E32D869
:101F6000E552E552DED8900E0101005D14E10A0E43
:101F7000006E2C0E016E026A00C0E6FFE66E02C023
:101F8000E6FF3BD9DEEC15F0036E050EE15E035073
:101F90000001120E37D9000176510DE004010CBF8B
:101FA00008D076C0E6FF29D93AEC14F0E552E552A4
:101FB000E5520001766B0A0EE15C02E2E16AE5524D
:101FC000E16E02D1FCD8FD0EDBCFE9FFFE0EDBCFC8
:101FD000EAFFEF50060A26E0030A21E0010A1CE0AE
:101FE000070A17E0010A11E0030A0AE0010A05E006
:101FF0000001756B030E746F1BD00001756B03D06D
:102000000001010E756F030E11D00001020E756FF5
:102010000DD00001030E08D00001040E05D0000110
:10202000050E02D00001060E756F020E746F010ED0
:10203000CBD000017751781104E1100E776F270E95
:10204000786F7707000E785B6DA207D07751781113
:1020500022E18B708B828B8412000001875102E198
:10206000010E12D0870502E1020E0ED0020E875D2E
:1020700002E1030E09D0030E875D02E1040E04D0D5
:10208000050E875D03E1050EE8EF10F0060E875D93
:1020900002E10001796B12008150400B01E0010E5A
:1020A00000018D5D07E08150400B01E0010E8D6F56
:1020B00081AC010C000C04500012055001120650B6
:1020C00002120750031204C108F0096A0A6A0B6A77
:1020D00008500012095001120A5002120B5003124C
:1020E000040E00C0DBFF050E01C0DBFF060E02C0C0
:1020F000DBFF070E03C0DBFF05C1E6FF01C1E6FF02
:102100001200E66ED950040FE96EDACFEAFFEECF87
:10211000E6FFEECFE6FFEECFE6FFEFCFE6FFECEF18
:1021200010F00101266F0001010E02EF11F003C152
:1021300003F0026A045100010210006E03C101F0B5
:10214000080E00C0DBFF090E03C1DBFF05C1E6FF7F
:1021500001C1E6FF120002C100F0016A026A036ACF
:10216000100E1F0B120003C104F0056A066A076A0D
:10217000080E1F0B1200E66E080EDBCFE6FF090EFD
:10218000DBCFE6FFECEF10F0D890003601360236D8
:102190000336E8061200D8900436053606360736B0
:1021A000E8061200E15E005001C176F0050EE8EF8E
:1021B00010F0030EE66E020EE66EFDEF10F0D9CFC2
:1021C000E6FFE1CFD9FF1200E552E7CFD9FF1200B9
:1021D000E66EEEDDE552120075C0E6FF74C0E6FF64
:1021E000120069DF060EE66E010E81EF10F0006E40
:1021F0000A0EE15E005091EF10F0260EE66E010E21
:0C220000E66E1200766F050EE8EF10F09D
:04220C000401185160
:10221000600BE842E842E842E842E842000901E097
:1022200012001951070A40E00B0A3EE0070A33E0AA
:10223000010A23E00B0A1FE0020A1DE0030A19E06D
:10224000080A10E0010A0CE00F0A08E0030A01E0A6
:10225000120010D90001040E876F120055EF11F023
:102260008CEF11F007D90001890E6C6F000E6D6FB5
:102270000CD0A7EF11F0D7EF11F000D900016C6F6F
:102280006D6B8A0E6C27000E6D2300018893000190
:10229000010E706F1200F2D8EA6A8A0FE96E000E22
:1022A000EA221AC4EFFF12001200800E0401185D2A
:1022B00032E11B51030A1FE0010A0AE0030A29E187
:1022C000D9D80001100E6C6F2A0E6D6F120E1ED041
:1022D000ABD8B40EF6262A0EB9D8020E0001F76A62
:1022E0006C25F66E6D51F7220900F5CF70F00A00EB
:1022F000F5CF71F00ED098D8B80EF6262A0EA6D8D3
:102300006CC0F6FF6DC0F7FF0800F5500001706F5C
:10231000716B000188831200ADD80F0EE66E710E4E
:10232000E66E0F0E9BD8010EE66E8A0EE66E000E6C
:1023300095D81AC489F004011A5104E10001050E70
:10234000876F12000001060E876F25EF14F004015D
:10235000206B216B040118511F0B020A0DE0030AC8
:1023600009E0010A16E186D8000188A112D0040113
:1023700020830FD07FD80DD04BD801E0010E5DD85F
:102380006EC0E9FFEA6EEF50040B03E00401010E9A
:10239000206F00016B050AE10001200E6C6F040E36
:1023A0006D6F000188930001020E706F120004012E
:1023B0001A050EE118511F0B00090AE15BD8030E44
:1023C0000401195D03E10001888102D000018891B8
:1023D00004011A511CE118511F0B020818E11C518D
:1023E0000F0B000914E014D801E0010E26D8030EEB
:1023F0000401195D04E1840E38D8EF6E12001CAFA1
:1024000003D033D8EF6A1200880E2FD8EF6E120077
:1024100035D80F0B080DF350016A000F006E040E43
:1024200001221C51800B120025D804011A51F66EAE
:10243000F76AD890F636F7361200040DF350000113
:1024400000246E6F000E01206F6F1200F72209004A
:10245000F5CF6CF00A00F5CF6DF01200E66E10ECCF
:1024600014F0E552E552E55212006EC0E9FF6FC06C
:10247000EAFF12000001010E6B6F1200FBDF040186
:042480001C511200D9
:0C2484006C5002E0000E01D0010E0009B7
:102490000BE0040100513C0BE842E8420D0802E168
:1024A0005DEF12F06CEF12F06C5002E0000E01D004
:1024B000010E040901E01FD81200D9CFE6FFE1CFD9
:1024C000D9FFE65200016A6B6B6B706B716B06ECA7
:1024D00011F099D8E552F6D0020E00016A5D09E1CB
:1024E00068D8040100BD02D0C80E01D0880E006F6C
:1024F00012003CEF13F0040E0001875D09E11AC4DD
:102500006EFF6E50000802E2050E01D0030E876FC9
:1025100000016A0509E10AD8040104BD02D0C80E11
:1025200001D0880E046F12003CEF13F0C4D80001F4
:10253000080E705D000E715905E270C0DEFF71C0BB
:10254000DDFF03D0080EDE6EDD6A04010493049102
:10255000010EDB500413DFCF05F4000EDB50000149
:10256000705F010EDB50715B200E6E6F040E6F6F9B
:10257000000188A30CD098D815E06CC0F6FF6DC0A0
:10258000F7FF0800F55080D8F6E2DB06F4D78CD8C8
:1025900009E06CC0E9FF6DC0EAFFEF5075D8F7E2C3
:1025A000DB06F5D7020EE15C02E2E16AE552E16E7C
:1025B00089D081D8030E04010015E76E010EE7CF24
:1025C000DBFF01C4DFFFDE5000017027DD50712307
:1025D000200E6C6F040E6D6F67D80EE06CC0E9FFC3
:1025E0006DC0EAFFEF506EC0E9FF6FC0EAFFEF6E0B
:1025F0006DD8F2E2DB06F0D7020EE15C02E2E16A9E
:10260000E552E16E5FD000016B5105E145D8840EC3
:10261000006F04011DD0040118AF1CD000017051DF
:1026200004011E5D0001715104011F5904E21EC422
:1026300070F01FC471F07ADF0001010E6A6F2CD8B0
:10264000800E006F0401200E066F040E076FC80E87
:10265000046F10D00001020E6A6F0401056BC80EF2
:10266000046F0401080E016F200E026F040E036F49
:10267000C80E006F6D98120000016A6B0DD8880EAD
:10268000006F0401046B12006EC0E9FF6FC0EAFF27
:10269000EF6E000166EF13F00401080E016F180ED3
:1026A000026F040E036F1200D9CFE9FFDACFEAFF01
:1026B000EE50ED101200D9CFE6FFE1CFD9FF020EA8
:1026C000E1261200E552E7CFD9FF12006E2B000E73
:0C26D0006F236C2B6D23DF06010E12003F
:0426DC006DA60CD803
:1026E0000001870508E16DBA06D0686A696A6980E9
:1026F0006988020E876F12006D6A696A6D86000133
:10270000010E876F12006D6A696A0001876B120003
:1027100083EF13F00001875101E112006850040BB0
:1027200004E06950040B01E038D86DB21200685023
:10273000010B04E06950010B01E050D86850100B08
:1027400004E06950100B01E024D86850400B04E00D
:102750006950400B01E037D86850200B04E0695005
:10276000200B01E032D86850020B04E06950020BE4
:1027700001E032D8030E0001875D01E212006850CB
:10278000080B06E06950080B03E042EC12F0689673
:102790001200698468986D8212006D926994689441
:1027A0001200000188A10ED0F8DF6D840001080E30
:1027B0008B6F070E8C6F8B07000E8C5B8B518C110F
:1027C000FAE16D941200689C120070A003D03CECFA
:1027D00013F07090689A1200689212006A6A686A30
:1027E0009F0E6B6E7B0E696E6E6A0F0EE66E710E3B
:1027F000E66E0F0EE66E14D8E552E552E552160E5F
:10280000706E68A602D06896FCD76D983CEC13F009
:10281000000188910001896B0001030E876F12008F
:10282000D9CFE6FFE1CFD9FFFD0EDBCFE9FFFE0EEA
:10283000DBCFEAFFFC0EDB5004E0EE6AFC0EDB06A9
:0A284000F9D7E552E7CFD9FF1200E7
:06284A0000018F6B1E0E61
:10285000716E0401260E096F280E0A6F040E0B6FAD
:10286000880E086F04014E0E0E6F040E0F6F400E9F
:102870000C6F1200D9CFE6FFE1CFD9FFE652FC0E74
:10288000DB50260805E2260EF36EFC0EF3CFDBFFCD
:10289000DF6AFC0EDB50DF5C0FE2DF5051D8EF50F7
:1028A000E66EDF50EA6A4E0FE96E040EEA22E55248
:1028B000E750EF6EDF2AEDD7FC0EDBCF0DF4400EB4
:1028C00004010C170C7D880E0C13E552E552E7CF7E
:1028D000D9FF1200D9CFE6FFE1CFD9FF00018F6BFE
:1028E000040108BF27D0FC0EDBCF00F00951D880CF
:1028F000005403E2FC0E09C4DBFF00018F6BFC0EE9
:10290000DB508F5D0FE28F51EA6A280FE96E040EEB
:10291000EA22EF50E66E8F5113D8E552E750EF6E82
:102920008F2BEDD70401260E096F400E0817087D86
:10293000880E081300018F51E552E7CFD9FF12002E
:10294000E76EFD0EDBCFE9FFFE0EDBCFEAFFE750BF
:08295000E926000EEA22120044
:08295800DACFE4FFE6529EA075
:1029600012D000017A2B000E7B237C237D238970FB
:102970008950010B02E0899201D08982D80ECF6E76
:10298000EF0ECE6E9E90E552E5CFDAFF1100D8CF64
:10299000E4FFE0CFE4FFE46EDACFE4FFE652E55275
:1029A000E5CFDAFFE550E5CFE0FFE5CFD8FF100037
:1029B000D9CFE6FFE1CFD9FF7AC07EF07BC07FF0B0
:1029C0007CC080F07DC081F07E0EE96E000EEA6E64
:1029D000EE5000017A5D006EEE507B59016EEE50B4
:1029E0007C59026EEE507D59036ED950FB0FE96E93
:1029F000FF0EDA20EA6EEE50005CEE500158EE5009
:102A00000258EE500358E0E3E552E7CFD9FF120039
:102A10001201000200000008D8040E0000000102AC
:102A200000010902200001010080320904000002B7
:102A3000000000000705010326002007058103268A
:102A40000020040309042A0375007300620070006B
:102A500069006300700072006F0067002E00730051
:102A600066002E006E00650074002000200020002B
:102A70004403500049004300440045004D0020003D
:102A8000460053002000550053004200200044003F
:102A900065006D006F00200042006F006100720051
:102AA000640020002800430029002000320030008C
:0E2AB00030003400222A222A422A462A702AA6
:022ABE002A0EDE
:102AC000F66E080EF76E000EF86E00010900F55064
:102AD000656F0900F550666F03E1656701D03DD071
:102AE0000900F550606F0900F550616F0900F5505D
:102AF000626F09000900F550E96E0900F550EA6EB1
:102B0000090009000900F550636F0900F550646F72
:102B100009000900F6CF67F0F7CF68F0F8CF69F049
:102B200060C0F6FF61C0F7FF62C0F8FF00016353A9
:102B300002E1645307E00900F550EE6E6307F8E226
:102B40006407F9D767C0F6FF68C0F7FF69C0F8FFF0
:0C2B500000016507000E665BBFD7120095
:042B5C007F6A7E6AA4
:102B60007D6A7C6A7B6A7A6A796A786A776A766A49
:102B7000756A746A736A726A716A706A6F6A6E6A79
:102B80006D6A6B6A6A6A696A686A120004D80FD84B
:102B9000F7EC0EF0FCD70F0EC112140E6F6E000191
:102BA000876B0001886B0001896BB3EF0EF06EEC50
:0C2BB00013F06FBE02D08AEC13F012008C
:042BBC00FB0EE3CF5A
:102BC000F6FFFC0EE3CFF7FFFD0EE3CFF8FFFE0E9E
:102BD000E3CFE9FFFF0EE3CFEAFFE9CFF3FFEACF50
:0E2BE000F4FF0900F5CFEFFFEE66FBD7120001
:022BEE0013EEE4
:102BF00000F023EE00F0F86A119C5FEC15F016EC83
:0A2C000016F0C6EC15F0FBD7120029
:062C0A007573627069633E
:0E2C100070726F6720333630001B5B324A0053
:022C1E0000EEC6
:0C2C200000F00F0EEE6AEA62FDD7120011
:022C2C00120094
:022C2E000000A4
:062C30000300000000FF9C
:082C3600000000000000000096
:020000040030CA
:0100000021DE
:010001000EF0
:0100020038C5
:010003001EDE
:01000500807A
:010006008079
:01000900C036
:01000B00E014
:0200000400F00A
:100000000102030405060708090A0B0C0D0E0F1068
:0100100011DE
:00000001FF
