:020000040000FA
:0600000092EF11F0120066
:0600080047EF10F01200AA
:0600180062EF10F012007F
:0608000092EF11F012005E
:0608080047EF10F01200A2
:0608180062EF10F0120077
:06082A0002007123000032
:10083000090100000800000068230000000100001A
:0408400009000000AB
:0C084400E1DB040A41E0070A30E0010A91
:1008500024E0030A13E0010A02E0030E4DD07DDB21
:10086000050EAADB3F0EE66EE66E0C0EE66E8FDA24
:10087000040EA2DB8F0EE66EE66E06D06EDB040E73
:100880009BDB800EE66EE66A0C0EE66E80DA90DB8D
:10089000D4DA8EDB0A0E9DDB07D05FDB1F0EE66E1F
:1008A000060EE66E06EC0BF0E552E55222D055DB63
:1008B000DE6ADD6A21DB05E295DB010EFBE3DB2A64
:1008C000F9D781DB090EBBDB0B0E11D046DBDE6AEC
:1008D000DD6A12DB05E286DB010EFBE3DB2AF9D7DA
:1008E00072DB090E84DBABDB6EDB0B0E80DB3DDBEA
:1008F0008A90E66A55DA010E006E020EE15C02E2B1
:10090000E16AE552E16E0050BDD27EDB030A3AE0B7
:10091000030A02E0030E71D0F50EDBB01EDBA60E5B
:10092000E66E8E0E7ADB37DBDBCF00F0F60EDB50A7
:10093000FE0FE76E0018E8AE02D0E73402D0E750B1
:10094000005C0FE200DB04BE05683CDA0ABE0B68FF
:10095000C0DA06BE076867DA0D0EE66E18DAA2DAAC
:10096000E3D7F1DA04BE05682DDA0ABE0B68B1DA06
:1009700006BE076858DA69DB60DA59DBF50EDBA2E0
:1009800036D033D0F50EDBA202D0E66A09DA010ECA
:10099000DB6A93DAE8AE02D0E73402D0E750005CBD
:1009A00021E2D1DA04BE0568E6DADB28086E096ABE
:1009B00008BE0968F70EDB500824E96EF80EDB501C
:1009C0000920EA6EEFCF06F0076A06BE07682BDA49
:1009D000020E13DA080E0BDBEBD9060EE66EECD92D
:1009E00061DAD7D7F50EDBA202D0E66AD9D9F50EC7
:1009F000DBA202D0020E01D0010E006E020EE15CFD
:100A000002E2E16AE552E16E00503CD2FDDA030AEF
:100A100071E0030A02E0030E95D0F70EDBB09DDA19
:100A2000A60EE66E9E0EF9DADF6ADFCF00F07FDAFF
:100A3000E8AE02D0E73402D0E750005C57E2DFCFE7
:100A400002F0036A02BE036814DBDFCF02F0036A20
:100A500002BE0368FB0EDB500224FC0EDB500320B9
:100A60000DDBDFCF02F0036A02BE03680FDA00BEBF
:100A70000168F2DAA80ED7DAA60EE66E840E68DAFE
:100A8000A60EE66E820E64DAD8D9A60EEADAB4DAD9
:100A9000E76E010EE7CFDBFFDB50020B02081EE121
:100AA0000D0EE96E010EEA6EEE500101095D006E59
:100AB000EE500A59016EEE500B59026EEE500C5971
:100AC000036ED890E850000A08E6050E005C000EA0
:100AD0000158000E0258000E0358D7E3010E68D9E2
:100AE000A60EE66E940E34DADF2A9FD7F70EDBA24D
:100AF00023D020D0F70EDBB030DADF6ADFCF00F092
:100B000016DAE8AE02D0E73402D0E750005C0FE21C
:100B1000DFCF02F0036A02BE0368B8D900BE0168E5
:100B200076D9030E6AD9080E20DA5CDAE7D7F70E19
:100B3000DBA202D0E66A34D9F70EDBA202D0020EA5
:100B400001D0010E006E020EE15C02E2E16AE552A4
:100B5000E16E005097D1D9CFE6FFE1CFD9FFE65241
:100B6000FD0EDB5002E0030E81D0F50EDBB0F5D9AF
:100B7000A60EE66E8E0E51DAF90EDB6AFA0EDB6A0D
:100B8000300EF36EFB0EF3CFDBFFFC0EDB6A0101D0
:100B9000186BF60EDB50E76E1819E8AE02D0E7349A
:100BA00002D0E750185D52E218C100F0016A00BEA1
:100BB0000168026A036A53D9EE500026EE50012202
:100BC000EE500222EE50032222D98DD9046E050E7A
:100BD000E15E0450B1D9EFCF00F0016A00BE0168B8
:100BE00073D9BFD918C104F0056A04BE0568066A46
:100BF000076A35D9EE500424006EEE500520016ED0
:100C0000EE500620026EEE500720036E002A000E02
:100C1000012202220322FBD866D9086E050EE15E8E
:100C20000850010EE76E88D9E750E926000EEA2247
:100C3000EFCF00F0016A00C001F0006A0016FF0E5D
:100C400001168FD9020E01011827A3D7F50EDBA2DA
:100C500002D0E66AA5D8040EE66E6CEC08F0E55208
:100C6000F50EDBA202D0020E01D0010EE5520AD130
:100C7000D3D8010EDB6AF50EDBB06FD9FD0EDB5069
:100C800014E189D91AD9E8AE02D0E73402D0E7508E
:100C9000005C1DE2090EEAD800BE016836D9E552B3
:100CA000E750EF6E010EDB2AEDD7010EDB6A05D9A6
:100CB000E8AE02D0E73402D0E750005C08E2A8D9E1
:100CC00000BE016822D9EF6A010EDB2AF0D7F50ECB
:100CD000DBA202D0E66A64D8020EE15C02E2E16ABD
:100CE000E552E16ECFD098D8010EDB6AE66E58D897
:100CF000FD0EDB502FE1A60EE66E9E0E8ED9010E84
:100D0000DB6ADBCF00F013D9E8AE02D0E73402D0C3
:100D1000E750005C33E2010EDBCF02F0036A02BE53
:100D20000368A7D9010EDBCF02F0036A02BE036895
:100D30008DD8A4D9A60EE66E800E0AD9A80E91D938
:100D400095D800BE0168EAD8E552E750EF6E010E73
:100D5000DB2AD7D7010EDB6ADBCF00F0E8D8E8AE9C
:100D600002D0E73402D0E750005C08E251D900BE5F
:100D70000168D4D8EF6A010EDB2AEED7E66A10D8F4
:100D8000020EE15C02E2E16AE552E16E7BD0040E04
:100D9000E66EBDEC0BF0E552E552E552E55212006D
:100DA000FE0EDBCFE6FF81EC0AF0E552E5521200C1
:100DB00010D9E552E5521200E66E06EC0BF0E55252
:100DC000E5521200D8D8E76EF70EDBCF08F0F80E28
:100DD000DBCF09F0E7500826000E0922010EDBCF19
:100DE0000AF00B6A1200FE0EDBCFE6FFC1EC0AF040
:100DF000006E050EE15E00501200E66E060EE66E15
:100E0000C3EC0BF0E552E552E552E552120000C08A
:100E1000E6FF01C0E6FF1200D9CFE6FFE1CFD9FF20
:100E2000020EE126120002500610006E0350071059
:100E3000016E00C0E6FFE66E120009C10DF10AC1A5
:100E40000EF10BC10FF10CC110F11200FB0EDB50C3
:100E50000224006EFC0EDB500320016E1200D950FC
:100E6000F90FE96EFF0EDA20EA6E1200C5D8E66EC1
:100E700008EF08F0000EE66EE66A47EC0BF0E5526C
:100E8000E5521200E552E7CFD9FF1200F90EDB5010
:100E90000224E96EFA0EDB500320EA6EEFCF00F079
:100EA000016A1200020E006E010EDBCFE7FF005058
:100EB000E726010EE7CFDBFF1200DBCF00F0F60ED6
:100EC000DB50E76E00181200FF0E0016000E011630
:100ED000120008500A24E96E09500B20EA6EEFCF89
:100EE00006F0076A120002C0E6FF03C0E6FFFE0E2E
:100EF000DBCFE6FFC1EF0AF0DECF00F0DDCF01F07F
:100F0000000E005C200E01581200F70EDB5000248A
:100F1000E96EF80EDB500120EA6E1200F90EDB508C
:100F20000024E96EFA0EDB500120EA6E1200F80E82
:100F3000DB50E76E00181200F70EDBCFE9FFF80E6A
:100F4000DBCFEAFF1200010EDBCF04F0056A1200CE
:100F5000E66E9AD0B9DF2CEF08F0010EE66ED0EF06
:100F600006F055DF72D817EF08F0E66E060E24DFA4
:100F7000060ED8EF06F0F70EDB500424E96EF80EEB
:100F8000DB500520EA6EEFCF02F0036A02C003F0E7
:100F9000026A010E120063DFEECFE6FFEECFE6FF3E
:100FA000EECFE6FFEFCFE6FF1EDF010EDB6A120099
:100FB000000EE66EE66A68D0E66EE66A3C0EE66E05
:100FC000E66AF3EF06F0E6683F0EE66E020EFDEF0E
:100FD00006F0E66EE66AE66AE66A73EC10F0E55241
:100FE000E5521200060EE66EE7DEDF2A1200E66E1C
:100FF000060EE2DE080E1200E66E040EE66EC9EC86
:101000000BF0E552E552120007DFFD0EDB50120037
:10101000010EDBCF00F0016A12009ADFA60EE66E29
:101020009C0EA8EF07F0E66E6E0EA8EF07F08A821E
:10103000020EBEDE8A92010EBBDE3AEF07F095DFAC
:101040008A90E66AADDEADEF07F00F0EE66E9FDE2A
:10105000E66A030EDCEF06F000500E0E0112D7DE3A
:1010600013D0E66E500E74DFF50EDDDFA1DF020E49
:101070001200ECDE6FDFA90E13EF08F0006E016ABC
:0E10800069DFAA0E13EF08F0E66AC7EF06F06C
:02108E00070E4B
:101090008B12F80E9416938C8150400B01E0010ED8
:1010A0000001606F929092929396939A939093928C
:1010B00093948A868A9A8A908A92F18E60EF08F0D9
:1010C000C00EF26E9D809E909F80D80ECF6EEF0E68
:1010D000CE6E010ECD6E1200FBD9FE0EDB50010B61
:1010E000E81CE8B08B80E8A08B90FE0EDB50020B72
:1010F000E8407F0BE81CE8B08B82E8A08B92FE0EE4
:10110000DB50040BE840E8403F0BE81CE8B08B8460
:10111000E8A08B94E2D1DCD90A0EE1260CD9060EA8
:101120000101115D01E2D4D06D50020B01E0D0D07D
:10113000400EE66E620EE66E000EE66E05EC10F0F6
:10114000E552E552E552E66ED950020FE96EDACF6C
:10115000EAFFE552E750EE6EED6A020EDBCF00F0DB
:10116000030EDBCF01F0013401E3A2D000500008F0
:10117000000E015401E39CD0100E0001625D0AE1F3
:10118000B0D922EC04F0E552E5520001A86F01014C
:10119000010E056F200E0001625D10E1030EE66E88
:1011A000020EE66EA9D9FE0EE66EE6683F0EE66E0A
:1011B000E66A97D97FD90101020E056F300E000152
:1011C000625D0EE148D902E067D9FEE14CD902E048
:1011D0006AD9FEE18BD985EC04F0006E0A0E4BD97A
:1011E000400E0001625D10E136D902E055D9FEE102
:1011F0003AD902E058D9FEE1E2D8A80EE66E000E18
:1012000004D958D963C005F1500E0001625D0AE1AE
:101210000CD9670EE66E000E36D906EC05F0006EAE
:10122000080E29D9600E0001625D0DE1FED8A80EFE
:10123000E66E000E28D973EC06F0006E080EE15E33
:10124000005063C005F1700E0001625D0EE103D92C
:1012500002E022D9FEE107D902E025D9FEE146D914
:10126000ABEC05F0006E0A0E06D9800E0001625D3F
:1012700007E1630EE66E000EE66E31D8E552E552E8
:10128000900E0001625D14E1400E006E230E016EAF
:10129000026A00C0E6FFE66E02C0E6FF2DD979ECD7
:1012A00011F0036E050EE15E03500101120E056F91
:1012B000010105510DE004010CBF08D005C1E6FF96
:1012C0001BD9D5EC0FF0E552E552E5520101056B53
:1012D0000A0EE15C02E2E16AE552E16EFED0F8D866
:1012E000F0D8EF50010A05E0010A03E10101020E06
:1012F00002D00101030E036F010EE76EE2D8E75042
:10130000E926000EEA22EF50040A10E0070A0CE07A
:10131000010A08E0030A04E0010A0BE1046B0AD0A9
:10132000010E05D0020E03D0030E01D0040E046F8F
:1013300001D0046BD2D001010651071104E1100E57
:10134000066F270E076F0607000E075B6DA207D01A
:101350000651071124E18B708B828B8412000101EE
:10136000115102E1010E12D0110502E1020E0ED060
:10137000020E115D02E1030E09D0030E115D02E1C0
:10138000040E04D0050E115D05E1050EE66EA4DE27
:10139000E5521200060E115D02E10101086B120018
:1013A0008150400B01E0010E0001605D07E08150BB
:1013B000400B01E0010E606F81AC010C000C045089
:1013C000001205500112065002120750031266C0A7
:1013D00008F0096A0A6A0B6A0850001209500112E3
:1013E0000A5002120B500312040E00C0DBFF050E60
:1013F00001C0DBFF060E02C0DBFF070E03C0DBFFF0
:1014000067C0E6FF63C0E6FF1200E66ED950040F26
:10141000E96EDACFEAFFEECFE6FFEECFE6FFEECFE2
:10142000E6FFEFCFE6FF71EF0AF064C002F064C0A0
:1014300003F0026A655100010210006E64C001F001
:10144000080E00C0DBFF090E64C0DBFF66C0E6FFCC
:1014500063C0E6FF120064C000F0016A026A036A1A
:10146000100E1F0B120065C004F0056A066A076AB9
:10147000080E1F0B1200E15E00500001A86F010171
:10148000010E056F1200E66E080EDBCFE6FF090EB7
:10149000DBCFE6FF71EF0AF0D89000360136023656
:1014A0000336E8061200D8900436053606360736AD
:1014B000E806120038EC06F0006E0A0EE15E0050FD
:1014C0001200FD0EDBCFE9FFFE0EDBCFEAFF1200BC
:1014D000D9CFE6FFE1CFD9FF1200E552E7CFD9FF20
:1014E000120004C1E6FF03C1E6FF120068DF680EC8
:1014F000E66E000E05EF0AF0A80EE66E000EE66E30
:021500001200D7
:0E15020016DA020EE126FD0EDB041FE1FE0EDE
:10151000DB50030802E18A9401D08A96D4D9010EE7
:10152000F7D9A7D901E6D8D9FCE3FE0EDB500308B2
:1015300002E18A9601D08A94020EEAD9C4D999D9D7
:1015400001E6CAD9FCE3030EE66E11D08A86040ECA
:10155000DFD9B9D98ED901E6BFD9FCE3050ED8D9B8
:101560008A84B1D986D901E6B7D9FCE3E66A6CEC86
:1015700008F0E552020EE15C02E2E16AE552E16E3A
:10158000CCD1D6D9FE0EDB50020A2EE0010A3DE195
:10159000ACD906C000F00001B5D906C0E6FFCDD930
:1015A000F80EE66E6E0EE66E79D99FD905C000F092
:1015B0000001036AA7D905C0E6FFBFD9F70EE66EA2
:1015C0006E0EE66E6BD9FA0EDBCF00F0FB0EFC0E52
:1015D000FD0E98D900C0E6FFB0D9F60EE66E6E0E8D
:1015E000E66EE66A040E10D0FA0EDBCF00F0FB0EBA
:1015F000DBCF01F0D8900036013600C0E6FF01C015
:10160000E6FF020EE66E060E8CD987D1D9CFE6FF33
:10161000E1CFD9FFE652939093928A928A90DF6A43
:10162000DFCF00F0FE0EDB50E76E0018E8AE02D010
:10163000E73402D0E750005C15E28A820000FD0E1C
:10164000DBA002D08A8001D08A90FD0EDBCFF3FFB1
:10165000F390F342FD0EF3CFDBFF00008A9200000F
:10166000DF2ADED7DF6ADFCF00F0280EE76E001832
:10167000E8AE02D0E73402D0E750005C03E200D0CD
:10168000DF2AF1D7E552E552E7CFD9FF1200D9CFD3
:10169000E6FFE1CFD9FFE652DF6ADFCF00F0100EA0
:1016A000E76E0018E8AE02D0E73402D0E750005CE5
:1016B0001DE28A820000FD0EDB50010B02E08A80F1
:1016C00001D08A90D950FD0FE96EFF0EDA20EA6E44
:1016D000010E0F0B06E0EC52D890ED32EF32E80627
:1016E000FAE100008A920000DF2AD7D70000E55215
:1016F000E552E7CFD9FF1200D9CFE6FFE1CFD9FFFE
:10170000E6528A8200008A9000008A920000DF6A16
:10171000DFCF00F00E0EE76E0018E8AE02D0E7341F
:1017200002D0E750005C1DE28A820000FD0EDB5013
:10173000010B02E08A8001D08A90D950FD0FE96E3A
:10174000FF0EDA20EA6E010E0F0B06E0EC52D89085
:10175000ED32EF32E806FAE100008A920000DF2A5B
:10176000D7D78A8200008A9000008A920000000089
:10177000E552E552E7CFD9FF120094D888DFE55251
:10178000E5528A90CAD08ED8B7DFE552E5528A90EA
:10179000C4D0D9CFE6FFE1CFD9FF020EE126FD0E7E
:1017A000DBCFE6FFFE0EDBCFE6FF30DFE552E55292
:1017B000DF6ADFCF00F0080EE76E0018E8AE02D057
:1017C000E73402D0E750005C08E28A8200008A9089
:1017D00000008A920000DF2AECD79380DF6ADFCF17
:1017E00000F00A0EE76E0018E8AE02D0E73402D02F
:1017F000E750005C03E200D0DF2AF1D7010EDB6A7C
:10180000DF6ADFCF00F0080EE76E0018E8AE02D006
:10181000E73402D0E750005C1AE28A82000081506F
:10182000010BDF5206E0DFCFF3FFE846FE0BF306C5
:10183000FCE1006E010EDBCFE7FF0050E712010E66
:10184000E7CFDBFF00008A920000DF2ADAD793900F
:101850008A900000010EDB5000D0006E020EE15CA9
:1018600002E2E16AE552E16E0050E552E7CFD9FFAE
:1018700012000D0EE96E010EEA6EEE500101095DD7
:10188000006EEE500A59016EEE500B59026EEE508A
:101890000C59036ED890E850000A1200E66A040E54
:1018A00091EF0CF045D8FD0EDBCFE6FFFE0EDBCF4F
:1018B000E6FFACDEE552E552FB0EDBCFE6FFFC0EA9
:1018C000DBCFE6FF120009C10DF10AC10EF10BC119
:1018D0000FF10CC110F11200140E005C000E015843
:1018E000000E0258000E03581200FA0EDBCF04F06F
:1018F000FB0EDBCF05F0FC0EDBCF06F0FD0EDBCFE1
:1019000007F01200016A026A036A0E0E0112120049
:10191000E66E6CEC08F0E5521200E552E7CFD9FF15
:101920001200E66E2ADFE552E552E552E55212005A
:10193000D9CFE6FFE1CFD9FF120001C0E6FF4EEF9D
:021940000CF0A9
:0E19420004011851600BE842E842E842E84216
:10195000E842000901E012001951070A40E00B0AB1
:101960003EE0070A33E0010A23E00B0A1FE0020A07
:101970001DE0030A19E0080A10E0010A0CE00F0A52
:1019800008E0030A01E0120010D90101040E116FF2
:101990001200F0EF0CF027EF0DF007D90001130E45
:1019A000FA6F010EFB6F0CD042EF0DF072EF0DF0ED
:1019B00000D90001FA6FFB6B140EFA27010EFB230E
:1019C000010112930001010EFE6F1200F2D8EA6AC3
:1019D000140FE96E010EEA221AC4EFFF1200120082
:1019E000800E0401185D32E11B51030A1FE0010A59
:1019F0000AE0030A29E1D9D80001460EFA6F210E48
:101A0000FB6F120E1ED0ABD8EA0EF626210EB9D807
:101A1000020E0001F76AFA25F66EFB51F722090063
:101A2000F5CFFEF00A00F5CFFFF00ED098D8EE0EFD
:101A3000F626210EA6D8FAC0F6FFFBC0F7FF080075
:101A4000F5500001FE6FFF6B010112831200ADD84B
:101A50000F0EE66E710EE66E0F0E9BD8010EE66E4F
:101A6000140EE66E010E95D81AC413F104011A5132
:101A700004E10101050E116F12000101060E116F44
:101A8000C0EF0FF00401206B216B040118511F0BF4
:101A9000020A0DE0030A09E0010A16E186D80101F5
:101AA00012A112D0040120830FD07FD80DD04BD8C3
:101AB00001E0010E5DD8FCC0E9FFEA6EEF50040BB7
:101AC00003E00401010E206F0001F9050AE10001A5
:101AD000200EFA6F040EFB6F010112930001020E3B
:101AE000FE6F120004011A050EE118511F0B0009C8
:101AF0000AE15BD8030E0401195D03E101011281C3
:101B000002D00101129104011A511CE118511F0B5E
:101B1000020818E11C510F0B000914E014D801E071
:101B2000010E26D8030E0401195D04E1840E38D895
:101B3000EF6E12001CAF03D033D8EF6A1200880E8C
:101B40002FD8EF6E120035D80F0B080DF350016A35
:101B5000000F006E040E01221C51800B120025D8CC
:101B600004011A51F66EF76AD890F636F73612006D
:101B7000040DF35000010024FC6F000E0120FD6FE6
:101B80001200F7220900F5CFFAF00A00F5CFFBF0BA
:101B90001200E66EABEC0FF0E552E552E552120092
:101BA000FCC0E9FFFDC0EAFF12000001010EF96F61
:0A1BB0001200FBDF04011C511200BB
:061BBA006C5002E0000E79
:101BC00001D0010E00090BE0040100513C0BE8427A
:101BD000E8420D0802E1F8EF0DF007EF0EF06C504F
:101BE00002E0000E01D0010E040901E01FD812002E
:101BF000D9CFE6FFE1CFD9FFE6520001F86BF96BD0
:101C0000FE6BFF6BA1EC0CF099D8E552F6D0020EFA
:101C10000001F85D09E168D8040100BD02D0C80EDA
:101C200001D0880E006F1200D7EF0EF0040E0101F4
:101C3000115D09E11AC46EFF6E50000802E2050E44
:101C400001D0030E116F0001F80509E10AD8040163
:101C500004BD02D0C80E01D0880E046F1200D7EF69
:101C60000EF0C4D80001080EFE5D000EFF5905E21B
:101C7000FEC0DEFFFFC0DDFF03D0080EDE6EDD6AB2
:101C8000040104930491010EDB500413DFCF05F42B
:101C9000000EDB500001FE5F010EDB50FF5B200EEB
:101CA000FC6F040EFD6F010112A30CD098D815E053
:101CB000FAC0F6FFFBC0F7FF0800F55080D8F6E247
:101CC000DB06F4D78CD809E0FAC0E9FFFBC0EAFFD5
:101CD000EF5075D8F7E2DB06F5D7020EE15C02E2C1
:101CE000E16AE552E16E89D081D8030E0401001546
:101CF000E76E010EE7CFDBFF01C4DFFFDE5000011E
:101D0000FE27DD50FF23200EFA6F040EFB6F67D80D
:101D10000EE0FAC0E9FFFBC0EAFFEF50FCC0E9FFAC
:101D2000FDC0EAFFEF6E6DD8F2E2DB06F0D7020EDF
:101D3000E15C02E2E16AE552E16E5FD00001F95137
:101D400005E145D8840E006F04011DD0040118AFD1
:101D50001CD00001FE5104011E5D0001FF51040171
:101D60001F5904E21EC4FEF01FC4FFF07ADF000119
:101D7000010EF86F2CD8800E006F0401200E066F44
:101D8000040E076FC80E046F10D00001020EF86F2A
:101D90000401056BC80E046F0401080E016F200ECC
:101DA000026F040E036FC80E006F6D9812000001E1
:101DB000F86B0DD8880E006F0401046B1200FCC094
:101DC000E9FFFDC0EAFFEF6E000101EF0FF0040133
:101DD000080E016F180E026F040E036F1200D9CFA8
:101DE000E9FFDACFEAFFEE50ED101200D9CFE6FF9F
:101DF000E1CFD9FF020EE1261200E552E7CFD9FF6D
:101E00001200FC2B000EFD23FA2BFB23DF06010E34
:021E10001200BE
:0E1E12006DA60CD80101110508E16DBA06D0CD
:101E2000686A696A69806988020E116F12006D6ABA
:101E3000696A6D860101010E116F12006D6A696A8F
:101E40000101116B12001EEF0FF00101115101E1B0
:101E500012006850040B04E06950040B01E038D80C
:101E60006DB212006850010B04E06950010B01E0F3
:101E700050D86850100B04E06950100B01E024D8D2
:101E80006850400B04E06950400B01E037D86850BF
:101E9000200B04E06950200B01E032D86850020B9F
:101EA00004E06950020B01E032D8030E0101115D1C
:101EB00001E212006850080B06E06950080B03E0CD
:101EC000DDEC0DF068961200698468986D8212004E
:101ED0006D92699468941200010112A10ED0F8DF8E
:101EE0006D840101080E156F070E166F1507000EA1
:101EF000165B15511611FAE16D941200689C1200E0
:101F000070A003D0D7EC0EF07090689A120068921F
:101F100012006A6A686A9F0E6B6E7B0E696E6E6A4B
:101F20000F0EE66E710EE66E0F0EE66E14D8E552D9
:101F3000E552E552160E706E68A602D06896FCD780
:101F40006D98D7EC0EF0010112910101136B0101A4
:101F5000030E116F1200D9CFE6FFE1CFD9FFFD0EBE
:101F6000DBCFE9FFFE0EDBCFEAFFFC0EDB5004E027
:101F7000EE6AFC0EDB06F9D7E552E7CFD9FF120077
:101F80000101176B1E0E716E0401460E096F280EBB
:101F90000A6F040E0B6F880E086F04016E0E0E6F31
:101FA000040E0F6F400E0C6F1200D9CFE6FFE1CF89
:101FB000D9FFE652FC0EDB50460805E2460EF36EF2
:101FC000FC0EF3CFDBFFDF6AFC0EDB50DF5C0FE2C1
:101FD000DF5051D8EF50E66EDF50EA6A6E0FE96EBF
:101FE000040EEA22E552E750EF6EDF2AEDD7FC0E31
:101FF000DBCF0DF4400E04010C170C7D880E0C1382
:10200000E552E552E7CFD9FF1200D9CFE6FFE1CF85
:10201000D9FF0101176B040108BF27D0FC0EDBCFED
:1020200000F00951D880005403E2FC0E09C4DBFF24
:102030000101176BFC0EDB50175D0FE21751EA6AC6
:10204000280FE96E040EEA22EF50E66E175113D8FE
:10205000E552E750EF6E172BEDD70401460E096FDE
:10206000400E0817087D880E081301011751E5522C
:10207000E7CFD9FF1200E76EFD0EDBCFE9FFFE0EC2
:0E208000DBCFEAFFE750E926000EEA2212004D
:02208E00DACFA7
:10209000E4FFE6529EA012D00101092B000E0A2394
:1020A0000B230C2389708950010B02E0899201D027
:1020B0008982D80ECF6EEF0ECE6E9E90E552E5CFA0
:1020C000DAFF1100D8CFE4FFE0CFE4FFE46EDACF0F
:1020D000E4FFE652E552E5CFDAFFE550E5CFE0FF59
:1020E000E5CFD8FF1000D9CFE6FFE1CFD9FF09C176
:1020F0000DF10AC10EF10BC10FF10CC110F10D0E63
:10210000E96E010EEA6EEE500101095D006EEE50BF
:102110000A59016EEE500B59026EEE500C59036EC7
:10212000D950FB0FE96EFF0EDA20EA6EEE50005C2C
:10213000EE500158EE500258EE500358E0E3E552DD
:06214000E7CFD9FF1200F9
:0A2146001201000200000008D80496
:102150000E000000010200010902200001010080C0
:1021600032090400000200000000070501034600D8
:102170002007058103460020040309042A03750093
:1021800073006200700069006300700072006F00ED
:1021900067002E00730066002E006E00650074005C
:1021A0002000200020004403500049004300440068
:1021B00045004D002000460053002000550053000C
:1021C00042002000440065006D006F0020004200C6
:1021D0006F006100720064002000280043002900A5
:1021E000200032003000300034005821582178217E
:0421F0007C21A62187
:0C21F4002A0EF66E080EF76E000EF86E54
:1022000000010900F550F36F0900F550F46F03E188
:10221000F36701D03DD00900F550EE6F0900F5508D
:10222000EF6F0900F550F06F09000900F550E96EF5
:102230000900F550EA6E090009000900F550F16F38
:102240000900F550F26F09000900F6CFF5F0F7CF5D
:10225000F6F0F8CFF7F0EEC0F6FFEFC0F7FFF0C0F2
:10226000F8FF0001F15302E1F25307E00900F550D5
:10227000EE6EF107F8E2F207F9D7F5C0F6FFF6C007
:10228000F7FFF7C0F8FF0001F307000EF45BBFD7BC
:0222900012003A
:0E2292007F6A7E6A7D6A7C6A7B6A7A6A796AF4
:1022A000786A776A766A756A746A736A726A716A3A
:1022B000706A6F6A6E6A6D6A6B6A6A6A696A686A6E
:1022C000120004D80FD88BEC08F0FCD70F0EC11207
:1022D000140E6F6E0101116B0101126B0101136B82
:1022E00047EF08F009EC0FF06FBE02D025EC0FF0BD
:0222F0001200DA
:0E22F200FB0EE3CFF6FFFC0EE3CFF7FFFD0E71
:10230000E3CFF8FFFE0EE3CFE9FFFF0EE3CFEAFFD6
:10231000E9CFF3FFEACFF4FF0900F5CFEFFFEE6658
:04232000FBD71200D5
:0C23240013EE00F023EE00F0F86A0D9CB0
:10233000FAEC10F0B3EC11F061EC11F0FBD71200E5
:1023400055736250696350726F672076302E310D7D
:072350000A001B5B324A008A
:0823580000EE00F00F0EEE6A2A
:06236000EA62FDD7120045
:02236600120063
:0823680000000003000000006A
:01237000FF6D
:08237100000000000000000064
:020000040030CA
:0100000021DE
:010001000EF0
:0100020038C5
:010003001EDE
:01000500807A
:010006008079
:01000900C036
:01000B00E014
:00000001FF
