:020000040000FA
:0600000092EF16F0120061
:0600080047EF15F01200A5
:0600180062EF15F012007A
:0608000092EF16F0120059
:0608080047EF15F012009D
:0608180062EF15F0120072
:06082A0002006C2D00002D
:100830007A00000008000000642D00007200000033
:0408400008000000AC
:0C08440026EC0BF0020EE126E1EC0BF0BC
:10085000FD0EDB50040A01E197D0030A72E0010AA1
:1008600070E0050A6EE0060A30E0070A2AE0030A93
:1008700016E0010A05E08A900EEC0CF0030E87D01A
:10088000050E7DEC0AF03F0EE66EE66E3FEC0CF0D6
:10089000040E7DEC0AF08F0EE66EE66E06D0040EB6
:1008A0007DEC0AF0800EE66EE66A3FEC0CF005EC9B
:1008B0000CF0DAEC0AF07CEC0CF0E66A1AEC0CF0C6
:1008C0003BD058EC0AF01F0E32D0DE6ADD6AA9EC8C
:1008D0000BF0FF0E005C030E015805E2E5EC0BF097
:1008E000F6E3DB2AF4D780EC0CF0F3CF82F0F4CF00
:1008F00083F058EC0AF0DE6ADD6AA9EC0BF0070E13
:1009000057EC0BF005E2E5EC0BF0F7E3DB2AF5D74B
:1009100080EC0CF0F3CF84F0F4CF85F0000E0001F2
:100920008417300E851758EC0AF021EC0CF0E66EB7
:10093000060EE66E44EC0DF0E552E552C4EC0CF008
:1009400023D0FD0EDB50070806E111EC0BF001ECA3
:100950000BF087EC0CF058EC0AF011EC0BF0FD0EEC
:10096000DB50070803E1080E7BEC0BF021EC0CF0E8
:100970007BEC0BF0FD0EDB50070803E1080E7BEC6F
:100980000BF0C4EC0CF08A900EEC0CF0010E006E33
:10099000020EE15C02E2E16AE55204EF0BF026ECA4
:1009A0000BF0050EE126F50EDBA002D0E1EC0BF01A
:1009B000FD0EDB50070A01E1DDD1040A01E1DAD1C5
:1009C000070A01E1D7D1020A01E1A6D1030A01E138
:1009D000F1D0070A01E1B9D0030A3DE0010A04E0C1
:1009E0000EEC0CF0030E08D24BEC0CF06DEC0CF09E
:1009F000DBCF00F0F60EDB50FE0FE76E0018E8AE1E
:100A000002D0E73402D0E750005C13E2010EADECF7
:100A10000AF008BE0968BDEC0AF002BE036845ECA6
:100A20000AF00D0EE66E2FEC0AF0020E90EC0AF0C2
:100A3000DFD7010EADEC0AF008BE0968BDEC0AF084
:100A400002BE036845EC0AF08BEC0CF07CEC0CF079
:100A500085EC0DF05ED14BEC0CF08C0E79EC0BF0CC
:100A6000060E7DEC0AF07CEC0CF03FEC0CF04BEC4D
:100A70000CF06DEC0CF09AEC0AF0E8AE02D0E73422
:100A800002D0E750005C01E3AFD1DE6ADD6AA9EC79
:100A90000BF0060E57EC0BF037E2010EE76EF70E87
:100AA000DBCF0AF0F80EDBCF0BF0E7500A26000E82
:100AB0000B22040EDBCF0CF00D6A0CBE0D680A5041
:100AC0000C24086E0B500D20096EDE500824E96ED0
:100AD000DD50E9EC0BF004BE0568F70EDB50042492
:100AE000026EF80EDB500520036EDE500224E96E24
:100AF000DD500320EA6EC0EC0BF00D0EE66E2FEC1D
:100B00000AF06AEC0BF0C3D7070EADEC0AF008BE92
:100B10000968BDEC0AF002BE036885EC0BF0060E16
:100B2000E926000EEA22EF500001B8EC0BF08BEC46
:100B30000CF018EC0BF0090ED2EC0AF0090ED2EC16
:100B40000AF0080E90EC0AF096D7040EDB6A9AECD5
:100B50000AF0E8AE02D0E73402D0E750005C01E3CF
:100B600043D1DE6ADD6AA9EC0BF0100E57EC0BF0F6
:100B700015E2040EDBCF0AF00B6A0ABE0B68D5EC57
:100B80000BF004BE056883EC0AF00E0E57EC0BF078
:100B900002E23BEC0AF06AEC0BF0E5D7080E7BECC6
:100BA0000BF0080E33EC0AF03BEC0AF0100E90EC60
:100BB0000AF0CDD7040EDB6A9AEC0AF0E8AE02D058
:100BC000E73402D0E750005C52E2040EDB407F0BBA
:100BD000006E016A026A036A00AE03D0016802680F
:100BE0000368C8EC0AF040EC0BF039E252EC0BF071
:100BF00006BE0768CFEC0BF002BE036845EC0AF0B6
:100C0000020E25EC0CF0F0EC0BF008BE09684AEC83
:100C10000AF004BE05686EEC0AF002E10350011808
:100C200018E052EC0BF006BE0768CFEC0BF002BEEA
:100C3000036873EC0CF008BE09684AEC0AF004BEC5
:100C400005686EEC0AF001E0C9D00350011801E01C
:100C5000C5D0060EE66EE66E44EC0DF002D0AEECAA
:100C60000BF0E552E552020E90EC0AF0A5D7F50E16
:100C7000DB50020B01E1B8D0F60EDBCF00F0016AC9
:100C8000026A036A00AE03D0016802680368C8EC18
:100C90000AF040EC0BF001E3A7D0DE6ADD6AA9ECB4
:100CA0000BF0026A036A0868030E096E0A6A0B6A8F
:100CB000F60EDBCF0CF00D6A0E6A0F6A0CAE03D095
:100CC0000D680E680F68A2EC0BF0EE500C26EE508B
:100CD0000D22EE500E22EE500F220C50085C046ED6
:100CE0000D500958056E0E500A58066E0F500B58DD
:100CF000076E0450005C055001580650025807501A
:100D0000035805E2E5EC0BF0CAE3DB2AC8D7AEECEA
:100D10000BF0E552E55268D0040EDB6A9AEC0AF05B
:100D2000E8AE02D0E73402D0E750005C5DE2DE6A54
:100D3000DD6AA9EC0BF0080E57EC0BF014E2040E80
:100D4000DBCF0AF00B6A0ABE0B68D5EC0BF004BED1
:100D5000056883EC0AF0060E57EC0BF001E28BDB22
:100D60006AEC0BF0E6D787EC0CF085DB080E90EC14
:100D70000AF0D4D7040EDB6A9AEC0AF0E8AE02D08F
:100D8000E73402D0E750005C2FE252EC0BF006BED5
:100D90000768CFEC0BF002BE036877DB8CEC0BF03E
:100DA00008BE096877DB04BE056898DB02E10350E2
:100DB000011816E052EC0BF006BE0768CFEC0BF002
:100DC00002BE036873EC0CF008BE096863DB04BE66
:100DD000056884DB02E10350011802E0040E0CD028
:100DE0004ADB020E9DDBC8D7F50EDBA204D00EEC69
:100DF0000CF0010E01D0020E006E050EE15C02E265
:100E0000E16AE55204EF0BF026EC0BF0020EE1264E
:100E1000F70EDBA002D0E1EC0BF0FE0EDB50020A75
:100E200001E17BD0010A04E00EEC0CF0030E95D03A
:100E300052EC0CF0DF6A5BEC0BF0E8AE02D0E7346A
:100E400002D0E750005C01E380D0DFCF02F0036AFC
:100E500002BE03689AEC0CF0DFCF02F0036A02BE18
:100E60000368A6EC0CF0DFCF02F0036A02BE036851
:100E7000F90EDB500224E96EFA0EDB500320EA6E15
:100E8000EF50006E016AE85078EC0CF0A80E47ECC9
:100E90000CF0A60EE66E840E79EC0BF0FD0EDB0472
:100EA00006E1550EBBEC0CF0AA0EBBEC0CF0A60E46
:100EB000E66E820E79EC0BF07DDBA60EB2EC0CF048
:100EC000E76E010EE7CFDBFFDB50020B02081CE1EF
:100ED0007E0EE96E000EEA6EEE5000017A5D006E45
:100EE000EE507B59016EEE507C59026EEE507D59EA
:100EF000036ED890E850000A06E6050ED8DB000E17
:100F00000258000E0358D9E3010EADDAA60EE66EC4
:100F1000940E79EC0BF0DF2A8ED7DF6ACCDBE8AEDB
:100F200002D0E73402D0E750005C0FE2DFCF00F0E0
:100F3000016A00BE016847DBEF50E66EE66A030E09
:100F400025EC0CF098DADF2AE9D7F70EDBA204D003
:100F50000EEC0CF0010E01D0020E006E020EE15CF0
:100F600002E2E16AE55250D371DB030EE126F50E91
:100F7000DBA002D0E1EC0BF0FD0EDB50070A01E133
:100F800009D1050A01E106D1040A01E103D1050AEC
:100F900001E100D1070A01E1FDD0010A01E196D08B
:100FA000040A06E0010A04E00EEC0CF0030E3BD14B
:100FB0004BEC0CF08C0E9DDBFD0EDB0406E1E66ACB
:100FC000EF0E97DBE66AF80E94DB0001866B87DB99
:100FD000E8AE02D0E73402D0E750865D01E31CD1D1
:100FE00086C000F0016A00BE0168026A036AD0DAB6
:100FF0000EDB3DDB046E050EE15E045086C006F09C
:10100000076A06BE076811EC0CF002BE03683DDA01
:101010008FEC0CF0FD0EDB0404E1F60EE66E2A0EFA
:1010200068DB86C004F0056A04BE0568066A076AC4
:1010300089DBEE500424006EEE500520016EEE5068
:101040000620026EEE500720036E002A000E0122D9
:1010500002220322DCDA0BDB086E050EE15E08508B
:10106000010EE76EF70EDBCF08F0F80EDBCF09F0CC
:10107000E7500826000E092286C00AF00B6A0ABE55
:101080000B6808500A24E96E09500B2093EC0CF011
:10109000010EE76EF70EDBCF02F0F80EDBCF03F0A8
:1010A000E7500226000E032286C004F0056A04BE43
:1010B000056802500424E96E03500520EA6E60DBE7
:1010C0008FEC0CF0020E0001862781D7F50EDBA015
:1010D0000DD0EED9DF6AF3DAE8AE02D0E73402D001
:1010E000E750005C03E2C7D9DF2AF5D70001866B21
:1010F000F6DAE8AE02D0E73402D0E750865D01E3CD
:101100008BD0A8DBE8AE02D0E73402D0E750005C19
:101110000AE28629066E076A06BE076882DB02BEFF
:101120000368B3D99DDBF90EDBCFE6FF00018641F2
:101130007F0BE552E724070828E18629066E076A37
:1011400006BE07689BD986C008F0096A08BE096810
:10115000F70EDB500824D7DB0920EA6EEF500410AD
:10116000026E05C003F0FF0E02160F0E0316845127
:101170000210006E85510310016E010E00C0DBFFEE
:10118000020E01C0DBFF9FDA6BDB75D9020E000196
:101190008627AED7F50EDBA00DD08AD9DF6A8FDAAD
:1011A000E8AE02D0E73402D0E750005C03E263D936
:1011B000DF2AF5D70001866B92DAE8AE02D0E73479
:1011C00002D0E750865D28E245DBE8AE02D0E73486
:1011D00002D0E750005C03E331DA070818E1862902
:1011E000066E076A06BE07681CDB02BE03688DDA5E
:1011F000EF5000010410006E05C001F0010E00C0A8
:10120000DBFF020E05C0DBFF5EDAE66E63DB33D97F
:10121000020E00018627D0D7F50EDBA203D0FEDA3E
:10122000010E01D0020E006E030EE15C02E2E16AE3
:10123000E552EAD10BDA050EE126020EDB6AF50E65
:10124000DBB0BFDAFE0EDB50020A1AE0010A66E1EB
:101250003BD9020EDB6A6ED9E8AE02D0E73402D089
:10126000E750005C6DE2090E9DD9E66ED5D900BE4F
:10127000016864D9E552E750EF6E020EDB2AEBD726
:1012800061DA000EEE5C200EEE58000EEE58000EF5
:10129000EE5824E30DD9F50EDBA00DD0DE6ADD6A31
:1012A000DAD9000E025E200E035A1EDA04E28DDA4D
:1012B000F7E3DB2AF5D7020EDB6A3CD9E8AE02D0B1
:1012C000E73402D0E750005C3BE21ADB85D900BE70
:1012D0000168C9DA00BE01689ADAEFD7F50EDBA023
:1012E0000AD00EDBDE6ADD6AB6D9FED904E26DDA19
:1012F000FBE3DB2AF9D7020EDB6A1CD9E8AE02D089
:10130000E73402D0E750005C1BE2FADA65D900BE90
:101310000168A9DA00BE01687ADAEFD7020EDB6A4B
:1013200009D9E8AE02D0E73402D0E750005C08E209
:1013300073D900BE016802D9EF6A020EDB2AF0D72A
:10134000F50EDBA202D0E66AABD8050EE15C02E244
:10135000E16AE552E16E97D279D9030EE126020ED9
:10136000DB6AF70EDBB02DDAFE0EDB50020A2CE052
:10137000010A57E197DA020EDB6A75D9E8AE02D0AE
:10138000E73402D0E750005C5EE2020EDBCF02F0F1
:10139000036A02BE0368CEDA020EDBCF02F0036AF4
:1013A00002BE0368D3DAA60EE66E800EA2D9A80E9E
:1013B000D9DAE66E31D900BE016805D9E552E750A9
:1013C000EF6E020EDB2AD9D7F70EDBA011D0050E87
:1013D00073D8DE6ADD6ABDD9FB0EDBCF02F0FC0EEE
:1013E000DBCF03F081D904E2F0D9F5E3DB2AF3D7B0
:1013F000020EDB6A38D9E8AE02D0E73402D0E750FB
:10140000005C21E2050E58D8F350E66E05D900BE07
:101410000168D9D8E552E750EF6E2DD8020EDB2ACD
:10142000E9D7020EDB6A1FD9E8AE02D0E73402D05A
:10143000E750005C08E2F0D800BE0168C4D8EF6A4B
:10144000020EDB2AF0D7F70EDBA202D0E66A28D81C
:10145000030EE15C02E2E16AE552E16E14D2EAD9E0
:10146000E552E55212002DDAE552E552120061D93B
:10147000080E7BEF0BF0060EE66E1DD2F70EDB506A
:10148000062441DA072038EF0CF03FD9EF50000175
:10149000B8EF0BF0F70EDB50082435DAE9EF0BF06C
:1014A000FE0EDBCFE6FFC7EC0CF0E552E552120072
:1014B00023DAE66A99EF0BF0E66E060EE66E07ECAD
:1014C0000EF0E552E55212003DD9EECFE6FFEECF29
:1014D000E6FFEECFE6FFEFCFE6FF8DD1F70EDB5054
:1014E000042411DA0520EA6EEF5000010610026EA6
:1014F00007C003F0E85000181200E66EE66A3C0EE2
:10150000E66EE66A78D1DE500424026EDD500520D6
:10151000036EFBD835D9020EE66E0BD9A9EF0BF09E
:10152000006E040EDBCFE7FF0050E726040EE7CF86
:10153000DBFF1200DBCF00F0F60E78D1F70EDB50A8
:101540000024E1D90120EA6E1200020EF3CFDBFF86
:10155000030EF4CFDBFFF0EF0BF0E76EF70EDBCFFF
:1015600006F0F80EDBCF07F0E7500626000E072244
:10157000040EDBCF08F0096A120006500824E96E59
:101580000750092075D9040EDBCF02F0036A120060
:10159000D9D8EE500026EE500122EE500222EE5035
:1015A00003221200E66E040EE66E77EC0EF0E552B2
:1015B000E55212007AC07EF07BC07FF07CC080F0E4
:1015C0007DC081F01200F90EDB500024E96EFA0EA6
:1015D000DB500120EA6E1200030EF3CFDBFF040E96
:1015E000F4CFDBFF030E040EDBCF03F003C002F0E9
:1015F000036A020EDB28006E016A1200E66A030E1F
:101600005AD1090E7BEF0BF0E16E00503CD100C0C7
:10161000E6FF01C0E6FF1200020EDBCF00F0016A18
:101620001200E6683F0EE66E020EE66E99EF0BF0D2
:1016300063D985EC0DF0E552E5521200F90EDBCFCF
:10164000E6FF86417F0BE552E7241200D9CFE6FF83
:10165000E1CFD9FF12007DD8F90EDBCF02F0FA0EF0
:10166000DBCF03F01200DBCF00F0F80EDFD002C0BA
:10167000E6FF03C0E6FFFE0EDBCFE6FFFFEF0CF058
:10168000FF0E005C030E0158000E0258000E0358B6
:101690001200020EDBCFE7FFE850E726020EE7CF8D
:1016A000DBFF1200040EDB28066E076A1200005CE6
:1016B000000E01581200DFCF00F0F80EB7D0DFCFD8
:1016C00000F0F90EB3D0010EDBCFE6FF020EDBCF48
:1016D000E6FF1200020EDE26000EDD221200F60EDC
:1016E000DB50E76E861912000250005C035001586F
:1016F0001200E66E46D1E66E060EDDD0FF0E001635
:10170000000E0116005078EF0CF0F70EDB500224AB
:10171000FAD80320EA6E1200020EE66EDBD8F0D88B
:10172000A5EF0AF08A82020E9EDE8A92010E33EF46
:101730000AF0060EE66E01EC0EF0E552E552E552B7
:10174000E5521200D950F90FE96EFF0EDA20EA6E69
:101750001200DECF00F0DDCF01F0120082C0E6FF04
:1017600083C0E6FF020EE66E82DE080E61EF0CF02B
:101770000410006E05C001F0E66E05C0E6FF120021
:10178000EF5000010610006E07C001F0E66E07C0C2
:10179000E6FF12000F0EE66E62DEFEEF0AF06EDE6E
:1017A000040EDBCF02F0036A1200DE500A24086E3A
:1017B000DD500B20096E010E0826000E09224AEFAB
:1017C0000AF0010EE66E50EF0AF055DEDF2A010E38
:1017D00012000920A8D8040EDBCF04F0056A12001D
:1017E000020EDBCF00F0030EDBCF01F0040EDB288E
:1017F000086E096A1200FE0EDBCFE6FFFFEC0CF06C
:10180000006E050EE15E0050120076D8BAD096DE6A
:10181000030EDBCFEFFF2FDE49EF0BF0E66A50EF50
:101820000AF02CDE86C002F0036A1200DB50E76E7D
:1018300000181200040EE66EFBEC0DF0E552E552C6
:101840001200DFDEA1D80B0E1200E66E10DE080ECD
:1018500033EF0AF0F3DE006E040EE76E001812009C
:10186000E66A6AEF0CF06ADE02C0EFFF0CEF0BF0E5
:10187000EA6EEFCF04F004C005F0046A12000C0E0B
:10188000E66E2FEF0AF0E552E7CFD9FF1200E66EC1
:101890006E0E79EF0BF0A60EE66E8E0E2ADFA60E08
:1018A000E66E1200A60EE66E9E0E23DFA60EE66E14
:1018B0009C0E79EF0BF0E66E44EC0DF0E552E5522C
:1018C0001200E66EE66AE66AE66A73EC15F0E55227
:1018D000E5521200CCDDC4EF0CF09C0E0ADFF4DD03
:1018E000040EDB6A120011DFEF5042DF8CEF0BF0C9
:1018F0000E0E01128CDE45D0000EE66EE66A120076
:10190000040E5CEF0AF0E96EF80EDB501200080ED0
:10191000F2DEC4EF0CF03EDF4DDE92EF0BF03ADF6B
:1019200001DF18EF0BF0EA6EEFCF06F006C007F00C
:10193000066A1200FB0EDB500224006EFC0EDB5028
:101940000320016EDBDEA90E47EF0CF0FB0EDB502F
:101950000224FC0EDB500320006E016ACFDEAA0ECB
:1019600047EF0CF0E66E500EC4DEF50E90DF4DDF53
:10197000020ED2EF0AF0E66E0E0EBBDEA70E47EFA8
:0E1980000CF0E66A2FEF0AF00A0E33EF0AF0C1
:02198E007DDA00
:10199000020EE126FD0EDB0415E18A9442DA010E07
:1019A00064DA15DA02E6640E45DAFBE38A96020E83
:1019B0005CDA37DA0CDA02E6640E3CDAFBE3030E9B
:1019C000E66E13D08A86040E50DA2BDA00DA02E6CD
:1019D000140E30DAFBE3050E48DA8A8422DAF7D9EE
:1019E00002E6140E27DAFBE3E66A73EC0FF0E55229
:1019F000020EE15C02E2E16AE552E16E3BD245DAB9
:101A0000FE0EDB50020A2EE0010A3DE11BDA06C0A1
:101A100000F0000124DA06C0E6FF3CDAF80EE66EBC
:101A20006E0EE66EE9D90EDA05C000F00001036A19
:101A300016DA05C0E6FF2EDAF70EE66E6E0EE66EDB
:101A4000DBD9FA0EDBCF00F0FB0EFC0EFD0E07DA41
:101A500000C0E6FF1FDAF60EE66E6E0EE66EE66A70
:101A6000040E10D0FA0EDBCF00F0FB0EDBCF01F03E
:101A7000D8900036013600C0E6FF01C0E6FF020E36
:101A8000E66E060EFBD9F6D1D9CFE6FFE1CFD9FF3E
:101A9000E652939093928A928A90DF6ADFCF00F0A9
:101AA000FE0EDB50E76E0018E8AE02D0E73402D03D
:101AB000E750005C15E28A820000FD0EDBA002D038
:101AC0008A8001D08A90FD0EDBCFF3FFF390F342C2
:101AD000FD0EF3CFDBFF00008A920000DF2ADED785
:101AE000DF6ADFCF00F00A0EE76E0018E8AE02D022
:101AF000E73402D0E750005C03E200D0DF2AF1D7E0
:101B0000E552E552E7CFD9FF1200D9CFE6FFE1CF8A
:101B1000D9FFE652DF6ADFCF00F0100EE76E001843
:101B2000E8AE02D0E73402D0E750005C1DE28A82C2
:101B30000000FD0EDB50010B02E08A8001D08A908C
:101B4000D950FD0FE96EFF0EDA20EA6E010E0F0B81
:101B500006E0EC52D890ED32EF32E806FAE10000F0
:101B60008A920000DF2AD7D70000E552E552E7CF7E
:101B7000D9FF1200D9CFE6FFE1CFD9FFE6528A8222
:101B800000008A9000008A920000DF6ADFCF00F038
:101B90000E0EE76E0018E8AE02D0E73402D0E75030
:101BA000005C1DE28A820000FD0EDB50010B02E0AA
:101BB0008A8001D08A90D950FD0FE96EFF0EDA209D
:101BC000EA6E010E0F0B06E0EC52D890ED32EF32C8
:101BD000E806FAE100008A920000DF2AD7D78A825D
:101BE00000008A9000008A9200000000E552E55251
:101BF000E7CFD9FF120004D988DFE552E5528A9079
:101C000039D1FED8B7DFE552E5528A9033D1D9CF2A
:101C1000E6FFE1CFD9FF030EE126FD0EDBCFE6FFA5
:101C2000FE0EDBCFE6FF30DFE552E5529380DF6A40
:101C3000DFCF00F00A0EE76E0018E8AE02D0E734FE
:101C400002D0E750005C03E200D0DF2AF1D7010E9A
:101C5000DB6A020EDB6A8A8200008A920000DF6A79
:101C6000DFCF00F00E0EE76E0018E8AE02D0E734CA
:101C700002D0E750005C1FE28A8200008150010B15
:101C8000026E036ADF5002C000F003C001F005E0FD
:101C9000D89000360136E804FBE1D950010FE96E17
:101CA000DACFEAFF0050EE120150ED1200008A92E6
:101CB0000000DF2AD5D78A8200008A920000939024
:101CC0008A900000010EDBCF00F0020EDBCF01F0A6
:101CD00000C0F3FF01C0F4FF00D0030EE15C02E29C
:101CE000E16AE552E16EE552E7CFD9FF1200D9CFA4
:101CF000E6FFE1CFD9FF020EE126FD0EDBCFE6FFC6
:101D0000FE0EDBCFE6FFC0DEE552E552DF6ADFCF35
:101D100000F0080EE76E0018E8AE02D0E73402D0FB
:101D2000E750005C08E28A8200008A9000008A92F4
:101D30000000DF2AECD79380DF6ADFCF00F00A0EC5
:101D4000E76E0018E8AE02D0E73402D0E750005C3E
:101D500003E200D0DF2AF1D7010EDB6ADF6ADFCFB2
:101D600000F0080EE76E0018E8AE02D0E73402D0AB
:101D7000E750005C1AE28A8200008150010BDF52BA
:101D800006E0DFCFF3FFE846FE0BF306FCE1006E52
:101D9000010EDBCFE7FF0050E712010EE7CFDBFFBC
:101DA00000008A920000DF2ADAD793908A90000020
:101DB000010EDB5000D0006E020EE15C02E2E16A2F
:101DC000E552E16E0050E552E7CFD9FF12007E0EDA
:101DD000E96E000EEA6EEE5000017A5D006EEE5084
:101DE0007B59016EEE507C59026EEE507D59036EA8
:101DF000D890E850000A1200E66A040E3EEF0FF099
:101E000044D8FD0EDBCFE6FFFE0EDBCFE6FF3CDE67
:101E1000E552E552FB0EDBCFE6FFFC0EDBCFE6FF23
:101E200012007AC07EF07BC07FF07CC080F07DC065
:101E300081F01200005C000E0158000E0258000EE6
:101E400003581200FA0EDBCF04F0FB0EDBCF05F0D7
:101E5000FC0EDBCF06F0FD0EDBCF07F01200016AAF
:101E6000026A036A0E0E01121200E66E73EC0FF0A6
:101E7000E5521200E552E7CFD9FF1200E66EBBDE55
:101E8000E552E552E552E5521200D9CFE6FFE1CF27
:0C1E9000D9FF120001C0E6FFFCEF0EF0CD
:041E9C00070E8B1290
:101EA000F80E9416938C8150400B01E0010E000156
:101EB0008D6F929092929396939A9390939293941B
:101EC0008A868A9A8A908A92F18E67EF0FF0C00E06
:101ED000F26E9D809E909F80D80ECF6EEF0ECE6EDC
:101EE000010ECD6E120006DAFE0EDB50010BE81C6F
:101EF000E8B08B80E8A08B90FE0EDB50020BE84030
:101F00007F0BE81CE8B08B82E8A08B92FE0EDB50C2
:101F1000040BE840E8403F0BE81CE8B08B84E8A0E5
:101F20008B94EDD1E7D90A0EE126060E0001875DFC
:101F300003E36D50020B02E017D9D8D0400EE66ED5
:101F4000000EE66E010EE66E05EC15F0E552E55268
:101F5000E552E66ED950020FE96EDACFEAFFE5529C
:101F6000E750EE6EED6A020EDBCF00F0030EDBCF22
:101F700001F0013401E3AAD000500008000E015422
:101F800001E3A4D0100E0101005D08E1010EBBD9F0
:101F9000BED922EC04F0E552E5525ED9200E0101D3
:101FA000005D1CE1030E0001745D07E19DD9FE0E8A
:101FB000E66EE6683F0EE66E06D096D9060EE66E31
:101FC000200EE66EE66AE66AA2D91AEC09F0006E07
:101FD0000A0EE15E00500001020EAFD9300E010181
:101FE000005D0CE153D902E06AD9FEE157D902E065
:101FF0006DD9FEE191D9CFEC04F094D9400E0101E6
:10200000005D12E143D902E05AD9FEE147D902E06E
:102010005DD9FEE1EBD8260EE66E010E0DD91AEC65
:1020200009F0006E0A0E59D9500E0101005D0CE155
:1020300019D9060EE66E010E39D904EC07F0006ED0
:10204000080EE15E005008D9600E0101005D0AE152
:1020500009D9260EE66E010E29D9ACEC09F0006E06
:10206000080E3BD9700E0101005D0CE10FD902E0B2
:1020700026D9FEE113D902E029D9FEE14DD9B4EC0D
:1020800007F050D9800E0101005D08E1010EE66EF7
:10209000010EE66E32D8E552E552DED8900E01010F
:1020A000005D14E1400E006E2D0E016E026A00C04C
:1020B000E6FFE66E02C0E6FF3BD979EC16F0036E50
:1020C000050EE15E03500001120E37D90001765172
:1020D0000DE004010CBF08D076C0E6FF29D9D5EC8D
:1020E00014F0E552E552E5520001766B0A0EE15C10
:1020F00002E2E16AE552E16E02D1FCD8FD0EDBCFCF
:10210000E9FFFE0EDBCFEAFFEF50060A26E0030AE6
:1021100021E0010A1CE0070A17E0010A11E0030AA6
:102120000AE0010A05E00001756B030E746F1BD015
:102130000001756B03D00001010E756F030E11D005
:102140000001020E756F0DD00001030E08D00001D2
:10215000040E05D00001050E02D00001060E756FB9
:10216000020E746F010ECBD000017751781104E19B
:10217000100E776F270E786F7707000E785B6DA2D1
:1021800007D07751781122E18B708B828B841200FB
:102190000001875102E1010E12D0870502E1020E13
:1021A0000ED0020E875D02E1030E09D0030E875D9B
:1021B00002E1040E04D0050E875D03E1050E83EFF6
:1021C00011F0060E875D02E10001796B120081506B
:1021D000400B01E0010E00018D5D07E08150400BD6
:1021E00001E0010E8D6F81AC010C000C0450001257
:1021F00005500112065002120750031204C108F0E4
:10220000096A0A6A0B6A08500012095001120A5042
:1022100002120B500312040E00C0DBFF050E01C0BA
:10222000DBFF060E02C0DBFF070E03C0DBFF05C1AC
:10223000E6FF01C1E6FF1200E66ED950040FE96E19
:10224000DACFEAFFEECFE6FFEECFE6FFEECFE6FF16
:10225000EFCFE6FF87EF11F00101266F0001010EBD
:102260009DEF11F003C103F0026A04510001021056
:10227000006E03C101F0080E00C0DBFF090E03C1B0
:10228000DBFF05C1E6FF01C1E6FF120002C100F05D
:10229000016A026A036A100E1F0B120003C104F0E8
:1022A000056A066A076A080E1F0B1200E66E080E22
:1022B000DBCFE6FF090EDBCFE6FF87EF11F0D8900A
:1022C0000036013602360336E8061200D89004368E
:1022D000053606360736E8061200E15E005001C1F9
:1022E00076F0050E83EF11F0030EE66E020EE66E39
:1022F00098EF11F0D9CFE6FFE1CFD9FF1200E552F8
:10230000E7CFD9FF1200E66EEEDDE552120075C090
:10231000E6FF74C0E6FF120069DF060EE66E010EEE
:102320001CEF11F0006E0A0EE15E00502CEF11F070
:10233000260EE66E010EE66E1200766F050E83EF36
:0223400011F09A
:0E23420004011851600BE842E842E842E8420C
:10235000E842000901E012001951070A40E00B0AA7
:102360003EE0070A33E0010A23E00B0A1FE0020AFD
:102370001DE0030A19E0080A10E0010A0CE00F0A48
:1023800008E0030A01E0120010D90001040E876F73
:102390001200F0EF11F027EF12F007D90001890EBB
:1023A0006C6F000E6D6F0CD042EF12F072EF12F0F6
:1023B00000D900016C6F6D6B8A0E6C27000E6D23C7
:1023C000000188930001010E706F1200F2D8EA6AD2
:1023D0008A0FE96E000EEA221AC4EFFF1200120003
:1023E000800E0401185D32E11B51030A1FE0010A4F
:1023F0000AE0030A29E1D9D80001460E6C6F2B0EC2
:102400006D6F120E1ED0ABD8EA0EF6262B0EB9D881
:10241000020E0001F76A6C25F66E6D51F722090075
:10242000F5CF70F00A00F5CF71F00ED098D8EE0E0F
:10243000F6262B0EA6D86CC0F6FF6DC0F7FF08007D
:10244000F5500001706F716B000188831200ADD8E8
:102450000F0EE66E710EE66E0F0E9BD8010EE66E45
:102460008A0EE66E000E95D81AC489F004011A513E
:1024700004E10001050E876F12000001060E876F50
:10248000C0EF14F00401206B216B040118511F0BE5
:10249000020A0DE0030A09E0010A16E186D80001EC
:1024A00088A112D0040120830FD07FD80DD04BD843
:1024B00001E0010E5DD86EC0E9FFEA6EEF50040B3B
:1024C00003E00401010E206F00016B050AE1000129
:1024D000200E6C6F040E6D6F000188930001020ED8
:1024E000706F120004011A050EE118511F0B00094C
:1024F0000AE15BD8030E0401195D03E10001888144
:1025000002D00001889104011A511CE118511F0BDF
:10251000020818E11C510F0B000914E014D801E067
:10252000010E26D8030E0401195D04E1840E38D88B
:10253000EF6E12001CAF03D033D8EF6A1200880E82
:102540002FD8EF6E120035D80F0B080DF350016A2B
:10255000000F006E040E01221C51800B120025D8C2
:1025600004011A51F66EF76AD890F636F736120063
:10257000040DF350000100246E6F000E01206F6FF8
:102580001200F7220900F5CF6CF00A00F5CF6DF0CC
:102590001200E66EABEC14F0E552E552E552120083
:1025A0006EC0E9FF6FC0EAFF12000001010E6B6F01
:0A25B0001200FBDF04011C511200B1
:0625BA006C5002E0000E6F
:1025C00001D0010E00090BE0040100513C0BE84270
:1025D000E8420D0802E1F8EF12F007EF13F06C503B
:1025E00002E0000E01D0010E040901E01FD8120024
:1025F000D9CFE6FFE1CFD9FFE65200016A6B6B6BE2
:10260000706B716BA1EC11F099D8E552F6D0020E07
:1026100000016A5D09E168D8040100BD02D0C80E5E
:1026200001D0880E006F1200D7EF13F0040E0001E6
:10263000875D09E11AC46EFF6E50000802E2050EC4
:1026400001D0030E876F00016A0509E10AD8040171
:1026500004BD02D0C80E01D0880E046F1200D7EF5F
:1026600013F0C4D80001080E705D000E715905E228
:1026700070C0DEFF71C0DDFF03D0080EDE6EDD6AC4
:10268000040104930491010EDB500413DFCF05F421
:10269000000EDB500001705F010EDB50715B200EFD
:1026A0006E6F040E6F6F000188A30CD098D815E0F0
:1026B0006CC0F6FF6DC0F7FF0800F55080D8F6E259
:1026C000DB06F4D78CD809E06CC0E9FF6DC0EAFFE7
:1026D000EF5075D8F7E2DB06F5D7020EE15C02E2B7
:1026E000E16AE552E16E89D081D8030E040100153C
:1026F000E76E010EE7CFDBFF01C4DFFFDE50000114
:102700007027DD507123200E6C6F040E6D6F67D83B
:102710000EE06CC0E9FF6DC0EAFFEF506EC0E9FF4C
:102720006FC0EAFFEF6E6DD8F2E2DB06F0D7020E63
:10273000E15C02E2E16AE552E16E5FD000016B51BB
:1027400005E145D8840E006F04011DD0040118AFC7
:102750001CD00001705104011E5D00017151040183
:102760001F5904E21EC470F01FC471F07ADF00012B
:10277000010E6A6F2CD8800E006F0401200E066FC8
:10278000040E076FC80E046F10D00001020E6A6FAE
:102790000401056BC80E046F0401080E016F200EC2
:1027A000026F040E036FC80E006F6D9812000001D7
:1027B0006A6B0DD8880E006F0401046B12006EC0A6
:1027C000E9FF6FC0EAFFEF6E000101EF14F00401B2
:1027D000080E016F180E026F040E036F1200D9CF9E
:1027E000E9FFDACFEAFFEE50ED101200D9CFE6FF95
:1027F000E1CFD9FF020EE1261200E552E7CFD9FF63
:1028000012006E2B000E6F236C2B6D23DF06010E62
:022810001200B4
:0E2812006DA60CD80001870508E16DBA06D04E
:10282000686A696A69806988020E876F12006D6A3A
:10283000696A6D860001010E876F12006D6A696A10
:102840000001876B12001EEF14F00001875101E1B7
:1028500012006850040B04E06950040B01E038D802
:102860006DB212006850010B04E06950010B01E0E9
:1028700050D86850100B04E06950100B01E024D8C8
:102880006850400B04E06950400B01E037D86850B5
:10289000200B04E06950200B01E032D86850020B95
:1028A00004E06950020B01E032D8030E0001875D9D
:1028B00001E212006850080B06E06950080B03E0C3
:1028C000DDEC12F068961200698468986D8212003F
:1028D0006D92699468941200000188A10ED0F8DF0F
:1028E0006D840001080E8B6F070E8C6F8B07000E36
:1028F0008C5B8B518C11FAE16D941200689C120074
:1029000070A003D0D7EC13F07090689A1200689210
:1029100012006A6A686A9F0E6B6E7B0E696E6E6A41
:102920000F0EE66E710EE66E0F0EE66E14D8E552CF
:10293000E552E552160E706E68A602D06896FCD776
:102940006D98D7EC13F0000188910001896B0001AC
:10295000030E876F1200D9CFE6FFE1CFD9FFFD0E3E
:10296000DBCFE9FFFE0EDBCFEAFFFC0EDB5004E01D
:10297000EE6AFC0EDB06F9D7E552E7CFD9FF12006D
:1029800000018F6B1E0E716E0401260E096F280E5A
:102990000A6F040E0B6F880E086F04014E0E0E6F47
:1029A000040E0F6F400E0C6F1200D9CFE6FFE1CF7F
:1029B000D9FFE652FC0EDB50260805E2260EF36E28
:1029C000FC0EF3CFDBFFDF6AFC0EDB50DF5C0FE2B7
:1029D000DF5051D8EF50E66EDF50EA6A4E0FE96ED5
:1029E000040EEA22E552E750EF6EDF2AEDD7FC0E27
:1029F000DBCF0DF4400E04010C170C7D880E0C1378
:102A0000E552E552E7CFD9FF1200D9CFE6FFE1CF7B
:102A1000D9FF00018F6B040108BF27D0FC0EDBCF6C
:102A200000F00951D880005403E2FC0E09C4DBFF1A
:102A300000018F6BFC0EDB508F5D0FE28F51EA6A55
:102A4000280FE96E040EEA22EF50E66E8F5113D87C
:102A5000E552E750EF6E8F2BEDD70401260E096F7C
:102A6000400E0817087D880E081300018F51E552AB
:102A7000E7CFD9FF1200E76EFD0EDBCFE9FFFE0EB8
:0E2A8000DBCFEAFFE750E926000EEA22120043
:022A8E00DACF9D
:102A9000E4FFE6529EA012D000017A2B000E7B23A9
:102AA0007C237D2389708950010B02E0899201D03B
:102AB0008982D80ECF6EEF0ECE6E9E90E552E5CF96
:102AC000DAFF1100D8CFE4FFE0CFE4FFE46EDACF05
:102AD000E4FFE652E552E5CFDAFFE550E5CFE0FF4F
:102AE000E5CFD8FF1000D9CFE6FFE1CFD9FF7AC0FC
:102AF0007EF07BC07FF07CC080F07DC081F07E0ED8
:102B0000E96E000EEA6EEE5000017A5D006EEE5046
:102B10007B59016EEE507C59026EEE507D59036E6A
:102B2000D950FB0FE96EFF0EDA20EA6EEE50005C22
:102B3000EE500158EE500258EE500358E0E3E552D3
:062B4000E7CFD9FF1200EF
:0A2B46001201000200000008D8048C
:102B50000E000000010200010902200001010080B6
:102B600032090400000200000000070501032600EE
:102B70002007058103260020040309042A037500A9
:102B800073006200700069006300700072006F00E3
:102B900067002E00730066002E006E006500740052
:102BA000200020002000440350004900430044005E
:102BB00045004D0020004600530020005500530002
:102BC00042002000440065006D006F0020004200BC
:102BD0006F0061007200640020002800430029009B
:102BE00020003200300030003400582B582B782B56
:042BF0007C2BA62B69
:0C2BF4002A0EF66E080EF76E000EF86E4A
:102C000000010900F550656F0900F550666F03E19A
:102C1000656701D03DD00900F550606F0900F5509F
:102C2000616F0900F550626F09000900F550E96E07
:102C30000900F550EA6E090009000900F550636FBC
:102C40000900F550646F09000900F6CF67F0F7CF6F
:102C500068F0F8CF69F060C0F6FF61C0F7FF62C0AE
:102C6000F8FF0001635302E1645307E00900F550E7
:102C7000EE6E6307F8E26407F9D767C0F6FF68C035
:102C8000F7FF69C0F8FF00016507000E665BBFD75C
:022C9000120030
:0E2C92007F6A7E6A7D6A7C6A7B6A7A6A796AEA
:102CA000786A776A766A756A746A736A726A716A30
:102CB000706A6F6A6E6A6D6A6B6A6A6A696A686A64
:102CC000120004D80FD892EC0FF0FCD70F0EC112EF
:102CD000140E6F6E0001876B0001886B0001896B19
:102CE0004EEF0FF009EC14F06FBE02D025EC14F09B
:022CF0001200D0
:0E2CF200FB0EE3CFF6FFFC0EE3CFF7FFFD0E67
:102D0000E3CFF8FFFE0EE3CFE9FFFF0EE3CFEAFFCC
:102D1000E9CFF3FFEACFF4FF0900F5CFEFFFEE664E
:042D2000FBD71200CB
:0C2D240013EE00F023EE00F0F86A119CA2
:102D3000FAEC15F0B1EC16F061EC16F0FBD71200CE
:102D400075736270696370726F6720333635001B6C
:042D50005B324A00A8
:0C2D540000EE00F00F0EEE6AEA62FDD700
:022D600012005F
:022D620012005D
:082D640000000300000000FF65
:042D6C000000000063
:042D7000000000005F
:020000040030CA
:0100000021DE
:010001000EF0
:0100020038C5
:010003001EDE
:01000500807A
:010006008079
:01000900C036
:01000B00E014
:0200000400F00A
:100000000102030405060708090A0B0C0D0E0F1068
:0100100011DE
:00000001FF
