:020000040000FA
:0600000067EF24F012007E
:06000800C5EF22F012001A
:06001800E5EF22F01200EA
:0608000067EF24F0120076
:06080800C5EF22F0120012
:06081800E5EF22F01200E2
:06082A000200024900007B
:100830009201000008000000FC4800009A0100003E
:0408400006000000AE
:0C084400CFEC12F0080EE126CAEC13F015
:10085000FD0EDB502D0A01E140D2190A01E133D22D
:10086000250A01E130D21E0A01E12DD2010A01E17F
:100870002AD2220A01E1F6D1280A01E15FD22A0A2E
:1008800001E1C4D1290A01E1C1D1010A01E1BED1CE
:10089000050A01E1BBD1060A01E143D1080A01E1E1
:1008A00037D1050A01E134D10A0A01E131D1120A36
:1008B00001E10ED1030A01E10BD1010A01E108D1E6
:1008C000190A01E1D1D0070A01E1CAD0050A01E104
:1008D000C7D0030A01E1C4D0250A01E1BFD01E0A36
:1008E00001E1ADD0010A01E1AAD02E0A01E1A7D0B1
:1008F0001F0A01E1A4D0010A01E192D01D0A56E0CD
:10090000340A07E01B0A01E119D2010A01E116D2FB
:1009100010D21BEC16F087EC13F047EC16F0670EC4
:10092000F1EC14F0E66AAAEC13F05BEC12F0DFECE9
:1009300011F0020E60EC12F01FE2860E31EC15F0A1
:10094000BB0E41EC16F0580EE66E050EA1EC13F04E
:10095000A90EE66E0A0EA1EC13F0380E92EC13F01D
:100960004EEC16F0C90E52EC11F0BEEC15F0BBECDB
:1009700012F0DDE3DB2ADBD7FA0EE66E070EE66E39
:10098000240E41EC16F00A0E92EC13F03DEC15F03B
:10099000030E52EC11F07FEC12F0A90E41EC16F0B0
:1009A000E66AE66AE66A97EC14F092D1040EB9ECB6
:1009B00013F0830E9AEC13F0880E9AEC13F0890E64
:1009C0009AEC13F08A0E9AEC13F0060EB9EC13F0C1
:1009D00054EC16F0E66AE66A200EE66EE66AA6ECCD
:1009E00011F0A60EE66E840E8EEC13F0A60EE66EE7
:1009F000880E8EEC13F062EC16F0A60EE66E820EF8
:100A00008EEC13F0ABEC15F054EC11F044EC16F056
:100A1000A60EE66E940EE66EE66A1BEC15F058D153
:100A2000050EB9EC13F03F0EE66EE66EF9EC15F02C
:100A3000040EB9EC13F08F0EE66EE66E06D0040ECF
:100A4000B9EC13F0800EE66EE66AF9EC15F0ABEC4B
:100A500015F01BEC15F0E552E5525FD01BEC14F0DD
:100A600072EC16F01E0E32D164EC12F047EC0EF070
:100A700071EC13F0C5EC15F0070EDB50310B006E76
:100A8000310E005C07E3060EDB50300B016E300EBA
:100A9000015C12E280EC13F0E66A6CEC11F05BECA6
:100AA00012F0DFEC11F0070E60EC12F00FE263ECD5
:100AB00015F0F7E3DB2AF5D760EC14F093EC15F0B2
:100AC00080EC13F0030EE66E6CEC11F093EC15F075
:100AD0001BEC14F0FD0EDB50120A0DE15BEC12F082
:100AE000DFEC11F0080E60EC12F005E263EC15F09B
:100AF000F7E3DB2AF5D772EC16F0060E52EC11F094
:100B0000C5EC15F00B0E8AEC13F0060E52EC11F04A
:100B10001BEC14F01F0EB6EC14F0E552E5520A0E71
:100B2000D5D05BEC12F0DFEC11F0FF0E005C030E91
:100B3000015805E263EC15F0F6E3DB2AF4D77EEC0E
:100B400011F076EC13F01BEC14F05BEC12F0DFEC20
:100B500011F0070E60EC12F005E263EC15F0F7E31C
:100B6000DB2AF5D77EEC11F0F3CF00F0F4CF01F0E3
:100B7000000E0016300E0116020E00C0DBFF030E41
:100B800001C0DBFF1BEC14F0090E73EC15F00B0E2B
:100B900073EC15F026EC14F044EC16F0FC0EDB5070
:100BA000AA0801E1CBD02EEC12F0FF0E0016000EC9
:100BB0000116060E00C0DBFF2EEC12F001C000F0A3
:100BC000016AFF0E0016000E0116070E00C0DBFFC3
:100BD0004DEC14F0E668030E85EC14F0BAD871EC15
:100BE00013F0060EDB68F1EC13F001C000F0016AAF
:100BF0000F0E0012000E0112070E00C0DBFF64ECA6
:100C000012F047EC0CF071EC13F098D0FD0EDB50B5
:100C1000070807E160EC14F072EC16F0080E73ECB4
:100C200015F01BEC14F060EC14F0FD0EDB5007081F
:100C300003E1080E8AEC13F072EC16F00A0E1FECBA
:100C400015F02E0801E17AD00B0E8AEC13F0FD0EA0
:100C5000DB50070803E1080E8AEC13F044EC16F0B1
:100C60008A906CD05BEC12F0DFEC11F0FF0E60ECC0
:100C700012F005E263EC15F0F7E3DB2AF5D7F6ECAA
:100C800014F0C9EC14F005E263EC15F0FAE3DB2A8A
:100C9000F8D71EEC16F0DFEC11F0FF0E60EC12F04E
:100CA00005E263EC15F0F7E3DB2AF5D728EC16F044
:100CB000C9EC14F005E263EC15F0FAE3DB2AF8D78F
:100CC00033EC16F003D072EC16F0140EDAEC13F0DD
:100CD000E552E552E552E55231D05BEC12F0FAEC08
:100CE00014F005E263EC15F0FAE3DB2AF8D7F6EC32
:100CF00014F0C9EC14F005E263EC15F0FAE3DB2A1A
:100D0000F8D71EEC16F0FAEC14F005E263EC15F0DF
:100D1000FAE3DB2AF8D728EC16F0C9EC14F005E268
:100D200063EC15F0FAE3DB2AF8D733EC16F052EC5B
:100D300011F08A9026EC14F0030E03D026EC14F088
:100D4000010E006E080EE15C02E2E16AE55284EFFA
:100D500012F023EC15F0F50EDBA002D0CAEC13F074
:100D6000FD0EDB50340A01E159D33A0A01E156D3B2
:100D7000010A01E153D31E0A01E150D33D0A01E10A
:100D80004DD3010A01E14AD33E0A01E115D3110A0C
:100D900001E112D3120A01E1C1D23F0A01E1BED240
:100DA000220A01E1BBD21F0A01E1B8D21A0A01E10D
:100DB000B5D20E0A01E1B2D20A0A01E17AD2050ADD
:100DC00001E177D2030A01E174D2010A01E1F0D115
:100DD0000C0A01E1EDD1040A01E1EAD1070A01E1BF
:100DE000E7D1010A01E1E4D12B0A01E1E1D11F0AB7
:100DF00001E163D1010A01E160D12D0A01E15DD178
:100E0000030A01E15AD11F0A01E157D1010A01E1A8
:100E100011D1290A51E01B0A06E0010A04E026EC80
:100E200014F0030E63D312EC14F002E1000E01D0B3
:100E3000010E04C0E7FFE75204E0E8427F0BE7063B
:100E4000FCE100EC15F008E19EEC14F04EEC13F020
:100E5000FDE10050A6EC12F0E6EC11F0A6EC12F069
:100E6000040EDB6A8CEC11F0E8AE02D0E73402D05D
:100E7000E750005C1BE275EC12F000BE016871ECFB
:100E800011F0EF50A6EC12F0DE6EDD6AD9CFE9FF6B
:100E9000DACFEAFF010EEE1806E1ED5004E1B4EC02
:100EA0001AF0020E23D3040EDB2ADCD7B4EC1AF0BE
:100EB0000A0EDAEC13F0BBD01BEC16F06CEC16F05B
:100EC0001A0E66EC15F0040EDB6A8CEC11F0E8AE3D
:100ED00002D0E73402D0E750005C01E398D0006A0A
:100EE0007AEC12F0040E10EC13F008AE03D009688F
:100EF0000A680B6858EC14F055EC13F0DFEC12F0B4
:100F0000FDE10FEC16F0070E006E7AEC12F0040E05
:100F100010EC13F008AE03D009680A680B6858ECAF
:100F200014F001EC13F003E020EC12F0FDE11EECF4
:100F300014F0DE6ADD6A2EEC12F035EC15F05CE29E
:100F4000006A7AEC12F022EC13F00ABE0B689DECFA
:100F500012F00A501E24086E0B501F20096ECBECB5
:100F600011F003E020EC12F0FDE19DEC11F0040E15
:100F7000DBCF12F0136A12BE13689DEC12F0125010
:100F80001E24106E13501F20116E010E1026000E2D
:100F90001122F70EDB50102481EC14F01120EA6EC0
:100FA000EFCF0CF00D6A0E6A0F6A0C0E1F0B07E0F4
:100FB000D8900C360D360E360F36E806F9E10C5097
:100FC00000120D5001120E5002120F500312DECF0C
:100FD00014F0DDCF15F0166A176A14500012155080
:100FE0000112165002121750031268EC11F0DF2A9A
:100FF000010EA1E3DB2A9FD7E66AAAEC13F07CEC92
:1010000015F07CEC15F00C0E93EC11F05ED73DEC76
:1010100015F0030E52EC11F01BEC16F0BEEC15F0BF
:10102000E66A010EE66E040EE66E97EC14F0E552E9
:10103000E55240D054EC16F081EC11F031EC13F095
:10104000EECFE6FFEFCFE6FFA6EC11F0040EDB6A71
:10105000DBCF00F0F60EDB50FE0FE76E0018E8AEB7
:1010600002D0E73402D0E750005C12E2010E33EC0C
:1010700012F008BE096843EC12F002BE036812ECDD
:1010800016F00D0EE66E54EC11F0D1EC14F0E0D732
:10109000010E33EC12F008BE096843EC12F002BEF8
:1010A000036888EC11F0E0EC13F0000EE66EE66ADF
:1010B00093EC18F0E552E55211D2FD0EDB503108E9
:1010C0000AE0CAEC15F0060EB9EC13F0000EE66E5D
:1010D000E66AF9EC15F054EC16F0E9EC13F0040EA6
:1010E000DB6A8CEC11F0E8AE02D0E73402D0E750B6
:1010F000005C01E3F3D1DE6ADD6A2EEC12F035EC20
:1011000015F038E2010EE76EF70EDBCF0AF0F80EAD
:10111000DBCF0BF0E7500A26000E0B22040EDBCFCC
:101120000CF00D6A0CBE0D680A500C24086E0B50B2
:101130000D20096EDE500824E96EDD5049EC14F0F4
:1011400004BE0568F70EDB500424026EF80EDB5077
:101150000520036EDE500224E96EDD500320EA6EA6
:10116000EF5052EC12F00D0EE66E54EC11F036EC2E
:1011700013F0C3D7070E33EC12F008BE096843EC36
:1011800012F002BE036801EC16F0060EE926000E0E
:10119000EA22EF50E0EC13F0BFEC12F0090E6DEC18
:1011A00012F0090E6DEC12F0080E93EC11F099D7C5
:1011B000F50EDB50010B07E081EC11F0F7EC12F0BB
:1011C00002E2E9EC13F0040EDB6A8CEC11F0E8AEFD
:1011D00002D0E73402D0E750005C01E37FD13BEC62
:1011E00013F006BE0768FDEC15F002BE036837EC8D
:1011F00014F0FD0EDB502E0A06E1180E73EC15F00C
:101200005CEC13F002D0B1EC15F0E552E552020EA1
:101210006BEC14F008BE096878EC11F004BE0568A8
:10122000FBEC11F002E10350011840E0D6EC15F0A0
:1012300044EC16F0040EDB407F0B006E016A026A7C
:10124000036A00AE03D001680268036829EC14F059
:101250003BEC13F006BE0768FDEC15F002BE036818
:1012600037EC14F0FD0EDB502E0A06E1180E73EC7D
:1012700015F05CEC13F002D0B1EC15F0E552E5523C
:101280007EEC11F0F4EC11F008BE096878EC11F076
:1012900004BE0568FBEC11F002E10350011806E002
:1012A0005FEC13F003E1ED5001E10ED16FEC16F0AD
:1012B0008CD7040EDB6A8CEC11F0E8AE02D0E73478
:1012C00002D0E750005C01E309D1DE6ADD6ABBECC5
:1012D00014F012E222EC13F00ABE0B68CEEC13F00D
:1012E00004BE0568ADEC13F035EC15F002E296ECA7
:1012F00013F036EC13F0EBD75CEC16F0010E7EEC3D
:1013000014F08AEC13F096EC13F0040EDBCFE7FF39
:10131000E850E726040EE7CFDBFFCDD7040EDB6AEB
:101320008CEC11F0E8AE02D0E73402D0E750005C5C
:1013300001E3D4D0DE6ADD6A2EEC12F0080E60EC18
:1013400012F012E222EC13F00ABE0B68CEEC13F09E
:1013500004BE0568ADEC13F035EC15F002E296EC36
:1013600013F036EC13F0E8D7FD0EDB50060A10E060
:10137000290A07E03F0A0FE1180E73EC15F00A0E78
:1013800011D0180E8AEC13F00A0E7EEC14F00AD07D
:10139000B1EC15F009D0180E8AEC13F0020E52ECE5
:1013A00011F0170EB6EC14F0E552E55296EC13F07E
:1013B000080E93EC11F0B4D7040EDB6A8CEC11F03C
:1013C000E8AE02D0E73402D0E750005C01E386D0FB
:1013D000DE6ADD6A2EEC12F0100E60EC12F013E201
:1013E00022EC13F00ABE0B68CEEC13F004BE0568C5
:1013F000ADEC13F00E0E60EC12F002E296EC13F07E
:1014000036EC13F0E7D75CEC16F0080E52EC11F056
:1014100096EC13F0100E93EC11F0D0D7F50EDBA084
:1014200002D096EC13F0040EDB6A8CEC11F0E8AEFF
:1014300002D0E73402D0E750005C50E23BEC13F0FE
:1014400006BE0768FDEC15F002BE036837EC14F029
:1014500049EC15F06BEC14F008BE096878EC11F05B
:1014600004BE0568FBEC11F002E10350011833E003
:10147000DE6ADD6A2EEC12F00A0E60EC12F02BE24E
:101480003BEC13F006BE0768FDEC15F002BE0368E6
:1014900088EC11F0D4EC14F0020EC2EC15F049EC1B
:1014A00015F06BEC14F008BE096878EC11F004BE7E
:1014B0000568FBEC11F002E1035001180CE05FEC51
:1014C00013F004E1ED5002E1040E10D0DF2A010E0A
:1014D000D1E3DB2ACFD76FEC16F0A7D7F50EDBA24E
:1014E00004D026EC14F0010E01D0020E006E050EA1
:1014F000E15C02E2E16AE55284EF12F023EC15F0C0
:10150000F50EDBA002D0CAEC13F0FD0EDB502C0868
:1015100011E0FD0EDB502D080DE0FE0EDB50020A3F
:1015200001E166D1010A01E1E2D0060A05E0E66ABE
:101530005CEC11F0030EA3D11BEC16F06CEC16F072
:101540005A0E66EC15F0020EDB6A8CEC11F0E8AE78
:1015500002D0E73402D0E750005C01E3BCD0F00ECB
:10156000E66E070EF6EC15F0070E006E016A2F0E00
:10157000026E036A020E10EC13F008AE03D0096885
:101580000A680B6881EC11F0ABEC12F00B50EE2006
:101590000F0E0516CCEC14F003E020EC12F0FDE188
:1015A0001EEC14F0006A7AEC12F0020EDBCF08F0A9
:1015B000096A08BE0968CBEC11F003E020EC12F0D8
:1015C000FDE19DEC11F0020EDB280E6E0F6A0EBEDF
:1015D0000F680FEC12F003E0B4EC12F0FDE1C0EC88
:1015E00013F0010EBFEC14F0020F086E096A08BE7A
:1015F0000968CBEC11F003E020EC12F0FDE127ECE0
:1016000015F0030F0E6E0F6A0EBE0F680FEC12F08E
:1016100003E0B4EC12F0FDE1C0EC13F0020EBFECFD
:1016200014F0040F086E096A08BE0968CBEC11F0CB
:1016300003E020EC12F0FDE127EC15F0050F0E6E33
:101640000F6A0EBE0F680FEC12F003E0B4EC12F05C
:10165000FDE1C0EC13F0030EBFEC14F0060F086EB2
:10166000096A08BE0968CBEC11F003E020EC12F027
:10167000FDE127EC15F0070F0E6E0F6A0EBE0F6826
:101680000FEC12F003E0B4EC12F0FDE1C0EC13F04B
:10169000E66AAAEC13F0030EDB6ADBCF00F0040E5F
:1016A000E76E0018E8AE02D0E73402D0E750005CE5
:1016B00007E2E6EC12F05FEC16F0030EDB2AEDD742
:1016C000080E006E020EDBCFE7FF0050E726020E89
:1016D000E7CFDBFF3AD73DEC15F0020E52EC11F0EC
:1016E0001BEC16F0BEEC15F087EC13F0C0D0A60E84
:1016F000E66E9E0E76EC15F0020EDB6A8CEC11F0B5
:10170000E8AE02D0E73402D0E750005C01E3AFD08E
:10171000020EDBCF04F0056A04BE056886EC15F006
:10172000020EDBCF04F0056A04BE05684FEC15F02D
:10173000020EDBCF02F0036A02BE036888EC11F0F0
:10174000006E016AE8500E0E011200C0E6FF3BEC8D
:1017500014F0A80E3DEC16F0A60EE66E840E8EEC8C
:1017600013F0FD0EDB0408E0FD0EDB50300804E052
:10177000FD0EDB50310802E162EC16F0A60EE66EBB
:10178000820E8EEC13F0D6EC11F0A60EB7EC15F02D
:10179000E76E040EE7CFDBFFDB50020B02081DE112
:1017A000960EE96E010EEA6EEE500101925D006E3A
:1017B000EE509359016EEE509459026EEE509559C9
:1017C000036ED890E850000A07E6050E60EC12F0B0
:1017D000000E0258000E0358D8E3010E52EC11F02F
:1017E000A60EE66E940E8EEC13F0020EDB2A86D760
:1017F000020EDB6A8CEC11F0E8AE02D0E73402D0C6
:10180000E750005C34E2020EDBCF00F0016A00BE5C
:10181000016871EC11F0EF50E66EE66A030EC2EC5F
:1018200015F0FD0EDB50100A08E0150A06E0080A64
:1018300004E0050A02E01A0A02E1180E01D0080EBF
:101840008AEC13F0080E1FEC15F0100A08E0150AD8
:1018500006E0170A04E01A0A05E1170E01D00A0E85
:101860008AEC13F096EC13F0020EDB2AC3D7F50EC8
:10187000DBA204D026EC14F0010E01D0020E006EA3
:10188000050EE15C02E2E16AE55284EF12F0CFEC72
:1018900012F0030EE126F50EDBA002D0CAEC13F025
:1018A000FD0EDB50340A01E1C8D13A0A01E1C5D18D
:1018B000010A01E1C2D11E0A01E1BFD13D0A01E1E5
:1018C000BCD1010A01E1B9D1280A01E12AD1150AE6
:1018D00001E127D11D0A01E124D11E0A01E121D134
:1018E0003C0A01E11ED1230A01E11BD1050A01E1F5
:1018F00018D1030A01E115D1010A01E112D1190A37
:1019000001E10FD11A0A01E10CD10F0A01E109D15D
:10191000050A01E106D1040A01E103D1050A01E14A
:1019200000D1070A01E1FDD02A0A01E1FAD01F0A1D
:1019300063E02C0A61E0030A5FE01F0A5DE0010A30
:101940005BE0290A04E026EC14F0030E98D1F50EB2
:10195000DB50010B010807E11BEC16F06CEC16F0F4
:10196000070EF1EC14F00101A96B7BEC13F0E8AE6B
:1019700002D0E73402D0E750A95D01E378D147EC0B
:1019800016F00101A929066E076A06BE0768C4ECB5
:1019900014F002BE036888EC11F000010410006E20
:1019A00066EC13F0060E006E7AEC12F0010EDBCF3F
:1019B00004F0020EDBCF05F0066A076ACCEC14F0E7
:1019C00003E020EC12F0FDE11EEC14F038EC15F011
:1019D000860E31EC15F05FEC16F03DEC15F0020EC2
:1019E00052EC11F01BEC16F0BEEC15F087EC13F086
:1019F000020E0101A927B9D7CAEC15F0FD0EDB04D0
:101A000008E0FD0EDB50300804E0FD0EDB5030082E
:101A100008E1E66AEF0E8EEC13F0E66AF80E8EEC43
:101A200013F00101A96B7BEC13F0E8AE02D0E734B0
:101A300002D0E750A95D01E31AD1A9C100F0016A03
:101A400000BE0168026A036A29EC14F0A9C106F01D
:101A5000076A06BE0768C4EC14F002BE036812EC05
:101A600016F0E5EC13F0FD0EDB0404E0FD0EDB5098
:101A7000300805E1F60EE66E2A0E8EEC13F0A9C1D1
:101A800004F0056A04BE056845EC14F016EC13F08A
:101A9000016EEE500620026EEE500720036E002A03
:101AA000000E012202224BEC12F0086E050EE15EE0
:101AB0000850010EE76EF70EDBCF08F0F80EDBCF13
:101AC00009F0E7500826000E0922A9C10AF00B6AA6
:101AD0000ABE0B6808500A24E96E09500B2008EC76
:101AE00016F0010EE76EF70EDBCF02F0F80EDBCF3B
:101AF00003F0E7500226000E0322A9C104F0056A94
:101B000004BE056802500424E96E03500520EA6E05
:101B1000EF5052EC12F0E5EC13F0020E0101A92790
:101B200082D7F50EDBA014D01BEC14F0DF6ADFCFF8
:101B300000F0F90EDB50E76E0018E8AE02D0E73493
:101B400002D0E750005C04E296EC13F0DF2AEFD7F6
:101B50000101A96B7BEC13F0E8AE02D0E73402D0B0
:101B6000E750A95D01E383D0C7EC12F0006E040ECC
:101B7000E76E0018E8AE02D0E73402D0E750005C10
:101B800022E3C7EC12F007081EE0C7EC12F00808C9
:101B90004EE1FD0EDB50130802E0000E01D0010EF5
:101BA000026EFD0EDB500A0802E0000E01D0010EAD
:101BB000016EFD0EDB500D0802E0000E01D0010E9B
:101BC0000110021034E0A929066E076A06BE0768F4
:101BD000C4EC14F002BE03689BDB00010410006E2D
:101BE00005C001F066EC13F08FEC14F0FD0EDB5035
:101BF000100A04E03F0A02E0010A03E1180E8AEC31
:101C000013F05CEC16F00A0E1FEC15F0100A0CE055
:101C10003E0A0AE0010A06E0230A04E0050A02E09F
:101C2000030A05E10E0E01D00A0E8AEC13F096ECC1
:101C300013F0020E0101A9278DD7A5EC14F0EFCF08
:101C400002F002C003F0026A8AEC12F0EF500001C9
:101C50000210006E03C001F0010E00C0DBFF020E97
:101C600003C0DBFF8FEC14F049EC15F01BDBF50E25
:101C7000DBA204D026EC14F0010E01D0020E006E9F
:101C8000030EE15C02E2E16AE55284EF12F0CFEC70
:101C900012F0070EE126DE6ADD6A040EDB6AF50E3D
:101CA000DBA002D0CAEC13F0FE0EDB5001E178D1CC
:101CB000020A01E120D1010A01E107D1060A48E048
:101CC000020A01E0C7D112EC14F002E1000E01D0CB
:101CD000010E04C0E7FFE75204E0E8427F0BE7068D
:101CE000FCE100EC15F008E19EEC14F04EEC13F072
:101CF000FDE10050A6EC12F069DBA6EC12F012EC4C
:101D000014F002E1000E01D0010E04C0E7FFE7521B
:101D100004E0E8427F0BE706FCE1A109A6EC12F023
:101D2000040EDB6AF9DAE8AE02D0E73402D0E750FD
:101D3000005C0BE2E66AE9EC1AF0E552E66ED5DBF0
:101D400000BE01682BEC15F0EDD7B4EC1AF094D17D
:101D5000D8DA000EEE5C000EEE58F80EEE58000ECB
:101D6000EE5853E3F50EDBA01AD01BEC16F087EC0F
:101D700013F0006ABFDB046A056A0668076AC1DA05
:101D800007EC13F00C0EDFEC12F0FDE10FEC16F097
:101D9000E66AE9EC15F0800EE66EAAEC13F0040E8C
:101DA000DB6ABADAE8AE02D0E73402D0E750005C72
:101DB00001E362D127EC13F059EC16F0200EE66E29
:101DC0003C0EEDEC15F038EC15F0F3EC19F06FEC7F
:101DD00014F08BDB00BE01687BEC14F0DBCF02F06B
:101DE000060EDBCF03F0000E0216FF0E0316E1EC29
:101DF00014F000BE016875DA02C0EFFF38EC15F090
:101E000087EC13F0D1EC14F0CCD71BEC16F087EC78
:101E100013F0006AF8EC13F055EC13F0D0DBFEE1A0
:101E20000FEC16F0060E006EF8EC13F001EC13F058
:101E300002E006DBFEE11EEC14F0800EE66EE9EC3B
:101E400015F09AEC15F0C2DB59EC16F09AEC15F08F
:101E500027EC13F059EC16F040EC13F0F1EC13F012
:101E600035EC15F02FE2F1EC13F007EC14F0050E51
:101E7000F3CFDBFF060E6DEC13F002BE036851DBFF
:101E80007BEC14F0DBCF04F0060EDBCF05F0000E88
:101E90000416FF0E051605C004F0056A21EC14F0C7
:101EA00002BE03683EDB010E0026000E012219DA95
:101EB00004C0EFFF38EC15F0020EDB2A030ECEE370
:101EC000DB2ACCD787EC13F0D7D0E9EC13F0040E63
:101ED000DB6A22DAE8AE02D0E73402D0E750005CD9
:101EE00001E3CAD0090EF9DAE66EFFDA00BE016836
:101EF0002BEC15F0EED705DA000EEE5C200EEE5856
:101F0000000EEE58000EEE5828E31BEC14F0F50E10
:101F1000DBA00DD0B5DBDEDA000E025E200E035A28
:101F2000B4DB05E2F1EC15F0F6E3DB2AF4D7040E9E
:101F3000DB6AF2D9E8AE02D0E73402D0E750005CA9
:101F400001E39AD02EEC15F000BE016876EC14F097
:101F500000BE0168D3EC15F0ECD7F50EDBA00AD07B
:101F6000CDD98EDBB7DA91DB05E2F1EC15F0FAE3BF
:101F7000DB2AF8D7040EDB6ACFD9E8AE02D0E7340B
:101F800002D0E750005C01E377D02EEC15F000BEE4
:101F9000016876EC14F000BE0168D3EC15F0ECD7C4
:101FA000FD0EDB500F0A0EE01E0A0CE03C0A07E0B3
:101FB000230A05E0220A09E1DE68010E05D0DE6889
:101FC000030E02D0DE680F0EDD6E48DA026A036A85
:101FD00098D9EE5000181BE1EE50011818E1EE50B0
:101FE000021815E1EE50031812E111E187D96FECE8
:101FF00014F0050E060EDBCF01F001C000F0016AFF
:10200000A5EC14F000C0EFFF85DA44DB23D0F50E19
:10201000DBA00BD08BDB72D933DB5CDA36DB05E27D
:10202000F1EC15F0FAE3DB2AF8D7040EDB6A74D979
:10203000E8AE02D0E73402D0E750005C0BE22EECB1
:1020400015F000BE016876EC14F000BE0168D3EC18
:1020500015F0EDD7040EDB6A5FD9E8AE02D0E734A5
:1020600002D0E750005C08E240DA00BE016839D9CE
:10207000EF6A040EDB2AF0D7F50EDBA202D0E66A87
:102080001BD9070EE15C02E2E16AE552E16EE5521E
:10209000E7CFD9FF120023EC15F0040EDB6AF50E32
:1020A000DBB078DBFE0EDB50020A01E1A9D0010AA9
:1020B00001E17DD0060A01E0D2D01BEC16F027DB4F
:1020C000F00EE66E070EF6EC15F0060E006E016AD5
:1020D0002F0E026E036A04680F0E056ED6DB97DAC8
:1020E000040E1F0B02E0ACD9FEE1A8DB040EDB6A94
:1020F00013D9E8AE02D0E73402D0E750005C01E328
:10210000C0D0800EE66E26DBDE6ADD6ABBEC14F022
:1021100008E25CDA59EC16F0DF2A010EF7E3DB2A5D
:10212000F5D7DE6ADD6ABBEC14F03DE297D96FDBD0
:10213000020EF3CFDBFF030ED0DA02BE0368FDD937
:1021400006EC15F0CED8020EDBCFEFFFDBCF06F0AA
:10215000030EDBCF07F0000E0616FF0E071607C0B2
:1021600006F0076A6EDB02BE0368DECF04F0DDCF47
:1021700005F0010ED89004360536E806FBE1010EA5
:102180000426000E052202500424006E0350052090
:10219000016EA7D806C0EFFF38EC15F0DF2A010E5C
:1021A000C2E3DB2AC0D7B3DA080EBDD8A1D7A60E8A
:1021B000E66E9E0E76EC15F0040EDB6AADD8E8AE46
:1021C00002D0E73402D0E750005C5BE216EC16F078
:1021D00004BE056886EC15F016EC16F004BE056822
:1021E0004FEC15F0A60EE66E800E98DAA80EB7EC4E
:1021F00015F0E66E7AD900BE01682BEC15F0DED73B
:10220000F50EDB50010B15E07CD8F1D912E2D2D9E2
:1022100081D9E552E750EF6EDE6ADD6A1FD90DEC19
:1022200015F033DA06E282DADF2A010EF7E3DB2A61
:10223000F5D7040EDB6A70D8E8AE02D0E73402D0DE
:10224000E750005C1EE2B6D950D900BE016849D8FB
:10225000E552E750EF6E6ADA040EDB2AECD7040E83
:10226000DB6A5AD8E8AE02D0E73402D0E750005C0F
:1022700008E23BD900BE016834D8EF6A040EDB2ABD
:10228000F0D7F50EDBA202D0E66A16D8000E006E7B
:10229000050EE15C02E2E16AE55236D1E66A67ECDE
:1022A0001AF0EED287DAECD2C6DBEAD2E66E53EC55
:1022B00018F0E552E5521200FE0EDBCFE6FFFD0EF0
:1022C000DBCFE6FF8AEC16F0E552E552E55212004C
:1022D00044DB67EC1AF0D4D2060EE66E0DEC19F072
:1022E000CFD2F70EDB5000240CDB0120EA6E120087
:1022F000F70EDB50082405DB49EF14F0040EE9EF7C
:1023000014F0D950F90FE96EFF0EDA20EA6E1200D0
:1023100001EC16F0EF501200DBCF00F0F60EDB50B0
:10232000E76E00181200006E040EDBCFE7FF0050CE
:10233000E726040EE7CFDBFF120004500012055021
:10234000011206500212075003121200FE0EDBCFDC
:10235000E6FFEFEC17F0006E050EE15E0050120094
:10236000F70EDB500624CDDA072014EF15F0D890D5
:102370000436053606360736030E236E246A256AB0
:10238000266A04C01EF005C01FF006C020F007C07A
:1023900021F0FCEF23F0F70EDB500824B2DA09201D
:1023A000EA6EEFCF04F0056ACCEF14F092C196F11B
:1023B00093C197F194C198F195C199F11200040E5F
:1023C000DBCF00F0050EDBCF01F01200F90EDBCF02
:1023D00000F0FA0EDBCF01F0FB0EDBCF02F0FC0EBB
:1023E000DBCF03F0005012006FDAFBD9040EDB28BC
:1023F000086E096A1200F70EDB50042482DA052009
:10240000EA6EEF5000010610026E07C003F0E850BC
:1024100000181200000EE66EE66AE66A1200F70E79
:10242000DB500E246EDA0F20EA6EEFCF0AF00B6A53
:102430000C6A0D6A0C0E1F0B12000001D4EF14F091
:10244000D8900436053606360736E806120047DA15
:10245000050E060EDBCF03F0E1EF14F0DECF00F047
:10246000DDCF01F01200E76EF70EDBCF06F0F80EBD
:10247000DBCF07F0E7500626000E0722040EDBCF65
:1024800008F0096A120006500824E96E0750092076
:10249000CBDA21EF14F0032260DAFE0EDBCFE6FF89
:1024A000EFEF17F000010610006E07C001F0E66EB6
:1024B00007C0E6FF1200040EDB6A050EDB6A12009D
:1024C000005C000E01581200E8D9070EE66E200EDF
:1024D00085EF14F086D90DEF15F0E66E040EE66E6A
:1024E00083EC19F0E552E5521200040EDBCF00F048
:1024F000016A1200016A200E026E036A1200610E68
:10250000E66EE70EE66E1200E16E0050E552E7CF90
:10251000D9FF1200F70EDBCFE9FFF80EDBCFEAFFA1
:102520001200020E206E216ADBCF25F0030EDBCFF6
:1025300026F020EC24F006EF15F0020E206E216A42
:10254000DECF25F0DDCF26F020EF24F0E66EBAECEA
:102550001AF0E55212000850EE24046E0950EE20E5
:10256000056E0A50EE201200D8900A360B360C3653
:102570000D36E8061200040EDB2A050E1200000ECE
:10258000E66EE66A93EC18F0E552E5521200F90E99
:10259000DBCFE6FFA9417F0BE552E7241200D9CF3C
:1025A000E6FFE1CFD9FF1200016A026A036A0E0E4C
:1025B00001121200050E0DDAF350E66E1200D890EB
:1025C0000732063205320432E8061200B60E31EF49
:1025D00015F0E66EEB0EE66E1200EE500016EE50B1
:1025E0000116EE500216EE500316080E1200D880A7
:1025F000000EEE54000EEE54000EEE54000EEE549B
:1026000012001EC004F01FC005F0CCEF14F0EE5015
:102610000416EE500516EE500616EE500716120080
:10262000DBCF08F0096A0A6A0B6A1200EE50042434
:10263000006EEE5005201200E552E750EF6E040EDA
:10264000DB2A1200040EDBCF0AF00B6A1200B60E72
:10265000E66E0B0EE66E1200B60EE66EDB0EE66E52
:102660001200EECFE6FFEECFE6FF1200020EDE26EE
:10267000000EDD221200040EDB28066E076A12002F
:10268000020EDB6A030EDB6A12000250005C03508C
:1026900001581200050EDBCFEFFF1200D890033275
:1026A000023201320032E806120020C006F0046A4D
:1026B000056A076A0C0E12000A0EB6EF14F0D9CFA5
:1026C000E9FFDACFEAFF090EEE181200010E00C092
:1026D000DBFF020E05C0DBFF1200F4CFDBFF21EFB2
:1026E00014F0006E0A0EE15E00501200F3CFDEFF20
:1026F000F4CFDDFF1200F60EDB50E76EA9191200D1
:10270000E6683F0EE66E1200BCDA1BEF16F01DDA2B
:1027100038EF15F0E66E060E56EF11F0E66EE66A3B
:1027200054EF11F0E66E3B0EEDEF15F0060EE66E7F
:1027300056EF11F0E66EE66A5CDA0DDAB5DD44EFCD
:1027400016F0E66E200E41EF16F0900EE66E010ECA
:10275000EDEF15F03EDA38EF15F0DE500424026E8E
:10276000DD500520036ED4DD9DDE020E0BDA2EEF68
:1027700012F0E66EE66A3C0EE66EE66AA6EF11F02F
:102780000A5000120B5001120C5002120D5003128D
:1027900068EF11F0010EE66E5CEF11F0DE500A24D6
:1027A000086EDD500B20096E010E0826000E09226E
:1027B00078EF11F0E66EE66AE66AE66AF6EF22F076
:1027C0003CDEF7D9F3DDE1EF15F0F3D9FAD9BFEF2D
:1027D00012F097DDEECFE6FF44DFEFCFE6FFA6EF86
:1027E00011F0020EDBCF00F0030EDBCF01F0120080
:1027F00081DEF90EDBCF04F0FA0EDBCF05F0FB0E25
:10280000DBCF06F0FC0EDBCF07F0B7EF11F0026A6A
:10281000036A008A3C0E0112880E021259DD28D983
:10282000F3EF19F0ADEC1AF00D0E046ECFDD0110D0
:10283000021003101200EEDD6CEF11F07EDD68EF88
:1028400011F0040EDBCF02F0036A1200E66A5CEFBF
:1028500011F057DDEE500026EE500122EE5002221C
:10286000EE5019DE046E050EE15E04501200DAD956
:10287000020EC2EF15F001C0E6FFE66A54EF11F058
:10288000E552E552E552E5521200066A076A81EF09
:1028900011F00920BDD916EF16F0030EE66E020EF8
:1028A000E66ED950060FE66E000EDA20E66E1200D4
:1028B00028DD51DE066E0B50EE20076EB7EF11F0EB
:1028C0001FDF020EC2EF15F0020EF3CFDBFF030E87
:1028D000F4CFDBFF1200E6DC11DDF4EF11F0050EA2
:1028E000F3CFDBFF060EF4CFDBFF1200FADC02C0F1
:1028F000EFFF75EF12F0F5DC4AEF13F0D3DC0E0EAC
:102900001200E96EF80EDB501200E66EE66AE66A27
:10291000FD0EDBCFE6FFFE0EDBCFE6FF1200010E61
:10292000DBCFE6FF020EDBCFE6FFC2EF15F0B6DC31
:10293000E66AE66AE66AE66A67EF1AF0006A016824
:10294000026A036ADEDCEDEF12F0010EE76EE2DDF3
:10295000E750E926000EEA22120000C0E6FF01C09F
:10296000E6FF02C0E6FF03C0E6FF1200E66E060EB9
:10297000E66E53EF18F072DD040E60EF12F0006E99
:10298000B9DD020EDB501200EBDCA9C102F0036AD4
:10299000120015DD60EF12F0066A076A040E1F0BC5
:1029A0001200020E93EF11F00410006E05C001F04A
:1029B000E66E05C0E6FF12002DDD76DC020E6DEF3F
:1029C00012F003C002F0036A040EDB28006E016AF5
:1029D0001200E66E060EE66E13EC19F0E552E552B3
:1029E0001200E66EE66A200E41EF16F087DC7EDE0E
:1029F0005BEF12F0E4DCFF0E005C010E01581200E8
:102A0000A009A4DDFD0EDB503308120002501E2485
:102A1000006E03501F20016E1200F90EDBCF02F092
:102A2000FA0EDBCF03F01200EA6EEFCF04F004C021
:102A300005F0046A1200040EE66E07EF19F032DCAE
:102A4000FD0EDB501200ABDD050EE126120075DC39
:102A5000020EDB50120045DC1CEF13F04FDC27EFB9
:102A600012F0E66E1B0EE66E1200060E60EF12F01C
:102A7000E66AE66AE66A4EEF11F0580EE66E050E5B
:102A800060DE380E4FDEA90EE66E0A0E5ADE4EEFFD
:102A900016F012D9020E32DF3DDE010E1200F5DE15
:102AA000EE500426EE500522EE500622EE5007228C
:102AB00005C000F00001036A77DD05C0E6FFDBDE3C
:102AC000AA0E3DEF16F032DEBBEF12F0E66EE66ABC
:102AD000240ED7D80A0E92EF13F0E66E0E0E1EDE0D
:102AE000A70E3DEF16F016DE44EF16F017DEA60E29
:102AF000E66E9C0E8EEF13F0AADDE1D8ADDDDFD8D7
:102B0000B60E67DDDCD862DD5FEF16F0BEDE8EDD6F
:102B1000EE500620EE50072047DD00C0E6FFABDE9A
:102B2000A90E3DEF16F0D3D8C7D8080E52EC11F01D
:102B300067EF16F0960E95DFBCD88EDDBAD8D60EAC
:102B4000E66EDB0EE66E59EF16F0E66A010EE66EF3
:102B5000040E41EF16F05EDC54EC11F027DC0AEFB6
:102B600012F0AAD80A0E26DEE552E5521200E66EF1
:102B7000500ED4DDF50E81D8DCEF14F0C0DCA90EC8
:102B800084EF13F0E66E6CEF11F060DE7DD802DEAC
:102B900044EF16F0A60EE66E8E0EC0DDA60EE66EB3
:102BA0008C0E8EEF13F0A7DE6FEF16F04FDECAEF3C
:102BB00013F00F0EE66E54EC11F0E66A030E56EFBA
:102BC00011F08A82020E52EC11F08A92010E52EF3D
:102BD00011F0030EFEDC4EEF11F0E66E880E41EFB1
:102BE00016F0A4DD020EDB2A030E1200AADDA5EF0B
:102BF00013F00C0EE66E54EF11F0B0EC11F021EF73
:102C000014F0F70EDB5002247CDE0320EA6E120083
:102C1000EA6EEFCF06F006C007F0066A12000EDE7D
:102C2000A5EF13F088EC11F01DEF12F0040EDBCFCE
:102C300004F0056A12001CDF38EF15F07EEC11F08D
:102C400043DEB4DF73DD090E4EDFB0DF5BEF12F061
:102C5000DECFE6FFDDCFE6FF040E94DF1ADF52EC95
:102C600011F05BEF12F0020EDBCFE6FF030EDBCFBD
:102C7000E6FF040E87DF49EF15F0E66E6E0E8EEF6D
:102C800013F0E66E4EEF11F00A0E52EF11F08A0EBD
:102C90001DDF800EE66E0F0EF6EF15F0390E42DDE9
:102CA0002EDCA80E84EF13F0A60EE66E8E0E76EFE5
:102CB00015F0BA0E84EF13F0080E8AEF13F0BB0E76
:102CC00084EF13F0550E09DFAA0E6DEF15F0010E1B
:102CD00021DD070E8AEF13F038DF87EF13F026DDD2
:0A2CE000D1EF14F0090E8AEF13F093
:062CEA0059EC1BF0E6525C
:102CF000DF6ADFCF00F00A0EE76E0018E8AE02D000
:102D0000E73402D0E750005C02E2DF2AF2D7E55256
:102D100039EF1BF0D9CFE6FFE1CFD9FF020EE12654
:102D2000FC0EDB0401E0F5D093909392FE0EDB5095
:102D3000320804E0FE0EDB50330803E18A808A8209
:102D400002D08A908A920000FE0EDB50050A0CE049
:102D5000030A0AE02F0A07E01B0A03E0010A01E068
:102D600005D08A9405D004D08A9602D08A9400D0E7
:102D700092C196F193C197F194C198F195C199F1DF
:102D8000960EE96E010EEA6EEE500101925D006E44
:102D9000EE5001019359016EEE5001019459026EFB
:102DA000EE5001019559036ED8900350000A08E6D1
:102DB000640E005C000E0158000E0258000E03580D
:102DC00002E2DED7DDD7FE0EDB50290A0CE02C0A2A
:102DD00008E0030A06E0340A03E0010A01E06BD0D0
:102DE0006CD08A946AD08A9400008A9692C196F137
:102DF00093C197F194C198F195C199F1960EE96E3E
:102E0000010EEA6EEE500101925D006EEE5001017E
:102E10009359016EEE5001019459026EEE5001017A
:102E20009559036ED8900350000A08E61A0E005C0C
:102E3000000E0158000E0258000E035802E2DED7C1
:102E4000DDD7E66AE66AE66AE66A41DBE552E55204
:102E5000E552E552E66AE66AE66AE66A38DBE5527A
:102E6000E552E552E552E66AE66AE66AE66A2FDB73
:102E7000E552E552E552E552E66AE66AE66AE66A36
:102E800026DBE552E552E552E5528A868A8A8A9A1D
:102E9000DE6ADD6ADECF00F0DDCF01F0010E005CFE
:102EA000000E015806E200D0DF2A010E01E3DB2A02
:102EB000F1D78A9602D08A9600D092C196F193C13A
:102EC00097F194C198F195C199F1960EE96E010EB2
:102ED000EA6EEE500101925D006EEE5001019359D1
:102EE000016EEE5001019459026EEE5001019559A8
:102EF000036ED8900350000A08E6640E005C000ED2
:102F00000158000E0258000E035802E2DED7DDD74A
:102F10005CD08A868A8A92C196F193C197F194C156
:102F200098F195C199F1960EE96E010EEA6EEE5098
:102F30000101925D006EEE5001019359016EEE5059
:102F400001019459026EEE5001019559036ED8901B
:102F50000350000A08E6280E005C000E0158000E1F
:102F60000258000E035802E2DED7DDD78A9A8A841F
:102F70009380938292C196F193C197F194C198F195
:102F800095C199F1960EE96E010EEA6EEE500101BF
:102F9000925D006EEE5001019359016EEE500101F9
:102FA0009459026EEE5001019559036ED89003506A
:102FB000000A08E6140E005C000E0158000E0258CC
:102FC000000E035802E2DED7DDD7020EE15C02E21A
:102FD000E16AE552E16EE552E7CFD9FF120069DB05
:102FE000040EE126FE0EDB5028E0020A26E0010A6C
:102FF00053E132DB06C000F00001026A036A3DDBE8
:1030000006C0E6FF5BDBF80E4FDB26DB05C000F0F9
:103010000001036A32DB05C0E6FF50DBF70E44DB3C
:10302000FA0EDBCF00F0FB0EFC0EFD0E26DB00C01F
:10303000E6FF44DBF60E38DB2FD0DE6ADE6ADE6A9E
:10304000DD6ADD52DD52FA0EDBCF00F0FB0EDBCF86
:1030500001F0FC0EDBCF02F0FD0EDBCF03F0D9CF89
:10306000E9FFDACFEAFF0050EE5C0150EE58025063
:10307000EE580350EE5810E2060EE66EE66E13D8D8
:10308000E552E552D9CFE9FFDACFEAFFEE2A000E8A
:10309000EE22EE22EE22D7D7040EE15C02E2E16AD4
:1030A000E552E16EE6D2D9CFE6FFE1CFD9FFE65295
:1030B000939093928A928A90DF6ADFCF00F0FE0E9F
:1030C000DB50E76E0018E8AE02D0E73402D0E750DC
:1030D000005C14E2FD0EDBA002D08A8001D08A9051
:1030E0008A82FD0EDBCFF3FFF390F342FD0EF3CFA8
:1030F000DBFF00008A920000DF2ADFD7DF6ADFCF24
:1031000000F00A0EE76E0018E8AE02D0E73402D0F5
:10311000E750005C03E200D0DF2AF1D7E552E55228
:10312000E7CFD9FF1200D9CFE6FFE1CFD9FFE652B2
:10313000DF6ADFCF00F0100EE76E0018E8AE02D0B5
:10314000E73402D0E750005C1CE2FD0EDB50010BBF
:1031500002E08A8001D08A908A82D950FD0FE96E00
:10316000FF0EDA20EA6E010E0F0B06E0EC52D8904B
:10317000ED32EF32E806FAE100008A920000DF2A21
:10318000D8D70000E552E552E7CFD9FF1200D9CFDA
:10319000E6FFE1CFD9FFE6528A9000008A82000064
:1031A0008A920000DF6ADFCF00F00E0EE76E001893
:1031B000E8AE02D0E73402D0E750005C1CE2FD0E1E
:1031C000DB50010B02E08A8001D08A908A82D950BC
:1031D000FD0FE96EFF0EDA20EA6E010E0F0B06E01E
:1031E000EC52D890ED32EF32E806FAE100008A9214
:1031F0000000DF2AD8D78A9000008A8200008A92D5
:1032000000000000E552E552E7CFD9FF120013DAC3
:103210008ADFE552E5528A902CD20DDAB8DFE5520A
:10322000E5528A9026D2D9CFE6FFE1CFD9FF030E2F
:10323000E126FD0EDBCFE6FFFE0EDBCFE6FF33DF40
:10324000E552E5529380DF6ADFCF00F00A0EE76EA9
:103250000018E8AE02D0E73402D0E750005C03E289
:1032600000D0DF2AF1D7010EDB6A020EDB6A8A8208
:1032700000008A920000DF6ADFCF00F00E0EE76EDA
:103280000018E8AE02D0E73402D0E750005C1FE23D
:103290008A8200008150010B026E036ADF5002C077
:1032A00000F003C001F005E0D89000360136E804D4
:1032B000FBE1D950010FE96EDACFEAFF0050EE12C0
:1032C0000150ED1200008A920000DF2AD5D78A82D1
:1032D00000008A92000093908A900000010EDBCFDC
:1032E00000F0020EDBCF01F000C0F3FF01C0F4FFDD
:1032F00000D0030EE15C02E2E16AE552E16EE552C4
:10330000E7CFD9FF1200D9CFE6FFE1CFD9FF020EF8
:10331000E126FD0EDBCFE6FFFE0EDBCFE6FFC3DED0
:10332000E552E552DF6ADFCF00F0080EE76E0018C5
:10333000E8AE02D0E73402D0E750005C08E28A90A1
:1033400000008A8200008A920000DF2AECD7938076
:10335000DF6ADFCF00F00A0EE76E0018E8AE02D099
:10336000E73402D0E750005C03E200D0DF2AF1D757
:10337000010EDB6ADF6ADFCF00F0080EE76E00188F
:10338000E8AE02D0E73402D0E750005C1AE28A824D
:1033900000008150010BDF5206E0DFCFF3FFE8466B
:1033A000FE0BF306FCE1006E010EDBCFE7FF0050E1
:1033B000E712010EE7CFDBFF00008A920000DF2A50
:1033C000DAD793908A900000010EDB5000D0006E97
:1033D000020EE15C02E2E16AE552E16E0050E55264
:1033E000E7CFD9FF1200D9CFE6FFE1CFD9FF030E17
:1033F000E1268A908A808A828A928A90DF6ADFCF69
:1034000000F0030EE76E0018E8AE02D0E73402D0F9
:10341000E750005C04E28A828A92DF2AF0D7010E2C
:10342000DB6A020EDB6ADF6ADFCF00F0080EE76EB0
:103430000018E8AE02D0E73402D0E750005C04E2A6
:103440008A828A92DF2AF0D793800000DF6ADFCF7A
:1034500000F0100EE76E0018E8AE02D0E73402D09C
:10346000E750005C1DE28A8200008150010B026E71
:10347000036ADF5002C000F003C001F005E0D890FD
:1034800000360136E804FBE1D950010FE96EDACFCE
:10349000EAFF0050EE120150ED128A92DF2AD7D7D0
:1034A00093908A90010EDBCF00F0020EDBCF01F08B
:1034B00000C0F3FF01C0F4FF00D0030EE15C02E2A4
:1034C000E16AE552E16EE552E7CFD9FF1200D9CFAC
:1034D000E6FFE1CFD9FFE6528A90DF6A040EDF5C97
:1034E00004E28A828A92DF2AF9D7DF6A180EDF5C4B
:1034F0002FE2010E006E016A026A036AD950FB0FC7
:10350000E96EFF0EDA20EA6EEE500016EE5001165C
:10351000EE500216EE500316005001100210031078
:1035200002E08A8001D08A90D950FB0FE96EFF0E2D
:10353000DA20EA6ED890030EEB32020EEB32010E67
:10354000EB32EF3200008A8200008A92DF2ACED767
:10355000E552E552E7CFD9FF12008A808A8275ECE6
:1035600016F08A9043EF1BF08A8275EC16F08A8081
:1035700075EF16F095D8FE0EDB50E76E010EE7CF23
:10358000DBFFDF6A080EDF5C0FE2010EDB50800B11
:10359000800802E18A8001D08A907AD875EC16F012
:1035A0008A8271D8DF2AEED793808A8275EC16F072
:1035B0008150010BDF6E8A9275EC16F09390DF500C
:1035C000006E020EE15C02E2E16AE552E16E00503B
:1035D00050D066D89380010EDB6ADF6A080EDF5C8C
:1035E0000BE28A8275EC16F053D881B0DB808A92A8
:1035F00075EC16F0DF2AF2D7939075EC16F0FE0EFC
:10360000DB0402E18A8001D08A908A823CD8010ED4
:10361000DB50006E020EE15C02E2E16AE552E16E0F
:10362000005027D0E66A040EE66EF1DDE552E55261
:10363000E552E55212003DD8FD0EDBCFE6FFFE0E4F
:10364000DBCFE6FF30DDE552E552FB0EDBCFE6FFD8
:10365000FC0EDBCFE6FF1200FA0EDBCF04F0FB0E10
:10366000DBCF05F0FC0EDBCF06F0FD0EDBCF07F065
:103670001200E552E7CFD9FF1200016A026A036A1D
:103680000E0E0112120075EC16F08A9275EF16F00C
:10369000010EDBCFF3FFF39EF346F3CFDBFF120007
:1036A00008D8020EE1261200E66E6E0EE66E12EFEC
:1036B0001BF0D9CFE6FFE1CFD9FF120001C0E6FF32
:0436C00012EF1BF0FA
:0C36C400090EC26EA60EC06E0F0EC16E85
:1036D0009284120076DBE652DF6A0C0EC16EC28263
:1036E000C2B2FED767DBC3CFEFFF010EE76E62DB2E
:1036F000E750E926000EEA22C4CFEFFFC168E55289
:1037000065D3070E8B12F80E9416938CDBDF815075
:10371000400B01E0010E0101A66F929092929396E8
:10372000939A93909392939492968996898892888B
:10373000898A928A8A868A9A8A908A92F18E02D897
:10374000AEEF1BF0C00EF2129D809E909F80D10EB6
:10375000CF6E1F0ECE6E010ECD6E1200E00EF21275
:10376000F294440ED66EC30ED56E12002ADBFE0E06
:10377000DB50010BE81CE8B08B80E8A08B90FE0EBC
:10378000DB50020BE8407F0BE81CE8B08B82E8A01E
:103790008B92FE0EDB50040BE840E8403F0BE81C28
:1037A000E8B08B84E8A08B9411D30BDB080EE126E4
:1037B000060E0101A05D03E36D50020B02E072DA18
:1037C000EAD1400EE66E000EE66E010EE66E84EC67
:1037D00022F0E552E552E552E66ED950020FE96E4D
:1037E000DACFEAFFE552E750EE6EED6A020EDBCF6C
:1037F00000F0030EDBCF01F0013401E3BCD1005037
:103800000008000E015401E3B6D101010051C00AC5
:1038100001E156D1700A01E109D1100A01E1B2D0EB
:10382000300A01E198D0100A01E189D0F00A01E1E3
:1038300078D0100A66E0300A57E0100A48E0700AB3
:1038400039E0100A0CE0300A01E095D1050EDBDA10
:1038500001C1E6FFE5DA22EC04F0E55275D0060E70
:10386000D2DA01019A51020A10E0010A07E0060AC1
:103870001EE19ADAE66AE66AE66814D095DAFE0E88
:10388000E66EE6683F0EE66E0DD0E66AC9DA8AECAF
:1038900016F0E552E552E55287DA060EE66E200E86
:1038A000E66EE66AE66ABCDA47EC0EF093DA0101EE
:1038B000020E64D0050E59DA02E06FDAFEE15EDA3C
:1038C00002E064DAFEE199DAA9EC06F036D0060EE1
:1038D0004CDA02E062DAFEE151DA02E057DAFEE1A8
:1038E000A9DA47EC0EF019D0050E3FDA02E055DAFE
:1038F000FEE144DA02E04ADAFEE17FDA7EEC0AF029
:103900001CD0060E32DA02E048DAFEE137DA02E0D5
:103910003DDAFEE18FDA4BEC10F05CDA01C19CF18C
:103920002ED0050E22DA02E038DAFEE127DA02E0D4
:103930002DDAFEE162DA47EC0CF04CDA07D0010E2A
:10394000E66E010EE66E2ED9E552E5520101406F9A
:103950000101010E13D0EA0E006E480E016E026ADC
:1039600000C0E6FFE66E02C0E6FF5FDA3EEC24F040
:10397000036E050EE15E03500101120E9C6F040EF2
:1039800042DAF9D0070E3FDA01010151030A3AE0A9
:10399000010A10E0030A06E0010A01E0ECD0010E82
:1039A000E66E01D0E66A050EE66E290EE66E8AEC3A
:1039B00016F020D002C100F0016A026A036ADED963
:1039C00002E0E4D9FEE10BDA100E1F0B07E0D890FD
:1039D000083609360A360B36E806F9E118DA00C06F
:1039E000E6FF01C0E6FF02C0E6FF03C0E6FF67ECAA
:1039F0001AF0E552E552E552E5520101010E406F21
:103A00000101B8D0F3EC19F0020EF3CFDBFF030E87
:103A1000F4CFDBFF020EDBCF40F1030EDBCF01F072
:103A200001C000F0016A00C041F147D00151050A10
:103A300040E0010A29E0070A23E0010A0FE0030A37
:103A400001E092D09250200B06E18950200B03E157
:103A50008AB211D087D08AA285D086D093A003D015
:103A600081B082D07FD09250100B07E18950100BAB
:103A700004E18AA077D0020E7AD08AA073D074D0E5
:103A80008AA472D0050E73D00101010E9C6F8AB614
:103A900003D00101040E0BD08AAA02D0010107D085
:103AA00089A603D00101030E02D00101050E406F6B
:103AB00062D0BBD90FDEE552E5520101020E5AD0A9
:103AC0000151040A3AE0070A2FE0010A15E0030A4F
:103AD0004DE10251030A0BE0010A05E0030A44E14B
:103AE00093928A9206D093928A82929A03D093926A
:103AF0008A82928A899A36D00251060A12E0050A11
:103B00000BE0010A05E0030A2FE193908A9006D0AA
:103B100093908A80929803D093908A809288899813
:103B200021D0928893801ED00251050A04E0060A33
:103B30001BE18A9417D08A8415D00251050A0FE040
:103B4000010A0BE0070A05E0020A0EE18A868A8A6A
:103B500008D08A868A9A898605D08A9601D08A8674
:103B60008A9A8996010E03D0030E01D0030E406F8E
:103B70000101010E9C6F01019C510DE004010CBF7D
:103B800008D09CC1E6FF51D954EC22F0E552E55231
:103B9000E55201019C6B080EE15C02E2E16AE5522C
:103BA000E16E14D10ED906D9EFCF9BF101019B51E3
:103BB000320A74E0010A72E0190A6EE0030A6AE050
:103BC0000E0A66E00C0A64E0030A62E0350A5EE071
:103BD000030A5CE0010A5AE03F0A58E0010A56E095
:103BE000030A54E0010A52E0070A50E0010A4EE0DD
:103BF000030A4CE0260A4AE0010A48E0030A44E0CE
:103C0000010A42E0070A40E0010A3EE0030A3CE004
:103C1000280A3AE0290A38E00F0A36E0010A34E0BF
:103C2000030A32E0010A30E0070A2EE0010A2CE024
:103C30001D0A2AE0020A28E0010A26E0070A24E019
:103C4000010A22E0030A20E0010A1EE00F0A1CE03C
:103C5000010A1AE0030A18E0010A16E0340A14E027
:103C6000330A12E0280A0EE0180A0CE0010A0AE002
:103C7000230A08E0010A06E01E0A04E09B6B030E1B
:103C80009A6F0FD09A6B0CD0020E09D0030E07D09A
:103C9000040E05D0050E03D0060E01D0070E9A6F54
:103CA000010E94D001019D519E1104E1100E9D6FF3
:103CB000270E9E6F9D07000E9E5B6DA207D09D5143
:103CC0009E1120E18B808B828B7412000101A05128
:103CD00002E1010E10D0A00508E0020EA05D02E195
:103CE000040E09D0030EA05D02E1020E04D0050E01
:103CF000A05D03E1040E03EF1FF0060EA05D02E1DC
:103D000001019F6B12008150400B01E0010E010187
:103D1000A65D07E08150400B01E0010EA66F81AC6B
:103D2000010C000C5CD873D8040E00C0DBFF050E3C
:103D300001C0DBFF060E02C0DBFF070E03C0DBFF86
:103D400005C1E6FF01C1E6FF1200E66ED950040F7F
:103D5000E96EDACFEAFFEECFE6FFEECFE6FFEECF79
:103D6000E6FFEFCFE6FF10EF1FF04DD802C100F0E5
:103D7000016A026A036A100E1F0B120003C104F0ED
:103D8000056A066A076A080E1F0B1200D8900436EF
:103D9000053606360736E8061200D890003601369A
:103DA00002360336E8061200030EE66E020EE66ED9
:103DB00015EF1FF0FD0EDBCFE9FFFE0EDBCFEAFFB4
:103DC0001200D9CFE6FFE1CFD9FF1200E552E7CFCD
:103DD000D9FF1200006E0A0EE15E0050120004507E
:103DE000001205500112065002120750031204C1BE
:103DF00008F0096A0A6A0B6A120094DF060EE66E82
:103E0000010EA5EF1EF0E66EB1DCE552120008507F
:103E10000012095001120A5002120B500312120034
:103E20009BC1E6FF9AC1E6FF1200400EE66E010E4E
:103E3000E66E120077DF400EE66E010EA5EF1EF073
:103E400004011051600BE842E842E842E842E842CF
:103E5000000901E012001151070A40E00B0A3EE0A0
:103E6000070A33E0010A23E00B0A1FE0020A1DE003
:103E7000030A19E0080A10E0010A0CE00F0A08E042
:103E8000030A01E0120010D90101040EA06F120014
:103E90006FEF1FF0A6EF1FF007D90101A20E8C6F84
:103EA000010E8D6F0CD0C1EF1FF0F1EF1FF000D9A4
:103EB00001018C6F8D6BA30E8C27010E8D230101E8
:103EC000A1930101010E906F1200F2D8EA6AA30FCC
:103ED000E96E010EEA2212C4EFFF12001200800EFA
:103EE0000401105D32E11351030A1FE0010A0AE0E8
:103EF000030A29E1D9D801014C0E8C6F460E8D6F53
:103F0000120E1ED0ABD8F00EF626460EB9D8020E11
:103F10000101F76A8C25F66E8D51F7220900F5CF65
:103F200090F10A00F5CF91F10ED098D8F40EF62654
:103F3000460EA6D88CC1F6FF8DC1F7FF0800F550DC
:103F40000101906F916B0101A1831200ADD80F0E9A
:103F5000E66E710EE66E0F0E9BD8010EE66EA30E96
:103F6000E66E010E95D812C4A2F10401125104E1CB
:103F70000101050EA06F12000101060EA06F3FEFB8
:103F800022F00401186B196B040110511F0B020A77
:103F90000DE0030A09E0010A16E186D80101A1A19A
:103FA00012D0040118830FD07FD80DD04BD801E078
:103FB000010E5DD88EC1E9FFEA6EEF50040B03E0FD
:103FC0000401010E186F01018B050AE10101180EB1
:103FD0008C6F040E8D6F0101A1930101020E906F91
:103FE0001200040112050EE110511F0B00090AE135
:103FF0005BD8030E0401115D03E10101A18102D030
:104000000101A191040112511CE110511F0B020882
:1040100018E114510F0B000914E014D801E0010E4F
:1040200026D8030E0401115D04E1840E38D8EF6E2A
:10403000120014AF03D033D8EF6A1200880E2FD8C5
:10404000EF6E120035D80F0B080DF350016A000F08
:10405000006E040E01221451800B120025D80401B9
:104060001251F66EF76AD890F636F7361200040D44
:10407000F350010100248E6F000E01208F6F12009B
:10408000F7220900F5CF8CF10A00F5CF8DF112006F
:10409000E66E2AEC22F0E552E552E55212008EC19E
:1040A000E9FF8FC1EAFF12000101010E8B6F1200C0
:0840B000FBDF040114511200B2
:0840B8006C5002E0000E01D083
:1040C000010E00090BE0040100513C0BE842E842FC
:1040D0000D0802E177EF20F086EF20F06C5002E04F
:1040E000000E01D0010E040901E01FD81200D9CF43
:1040F000E6FFE1CFD9FFE65201018A6B8B6B906B33
:10410000916B20EC1FF099D8E552F6D0020E010118
:104110008A5D09E168D8040100BD02D0C80E01D053
:10412000880E006F120056EF21F0040E0101A05D11
:1041300009E112C46EFF6E50000802E2050E01D0C4
:10414000030EA06F01018A0509E10AD8040104BD2C
:1041500002D0C80E01D0880E046F120056EF21F075
:10416000C4D80101080E905D000E915905E290C17E
:10417000DEFF91C1DDFF03D0080EDE6EDD6A0401B3
:1041800004930491010EDB500413DFCF05F4000EFD
:10419000DB500101905F010EDB50915B180E8E6FBA
:1041A000040E8F6F0101A1A30CD098D815E08CC12B
:1041B000F6FF8DC1F7FF0800F55080D8F6E2DB0668
:1041C000F4D78CD809E08CC1E9FF8DC1EAFFEF502C
:1041D00075D8F7E2DB06F5D7020EE15C02E2E16A90
:1041E000E552E16E89D081D8030E04010015E76E17
:1041F000010EE7CFDBFF01C4DFFFDE500101902796
:10420000DD509123180E8C6F040E8D6F67D80EE071
:104210008CC1E9FF8DC1EAFFEF508EC1E9FF8FC16C
:10422000EAFFEF6E6DD8F2E2DB06F0D7020EE15C3A
:1042300002E2E16AE552E16E5FD001018B5105E1D6
:1042400045D8840E006F04011DD0040110AF1CD0AE
:10425000010190510401165D0101915104011759AA
:1042600004E216C490F117C491F17ADF0101010E46
:104270008A6F2CD8800E006F0401180E066F040E92
:10428000076FC80E046F10D00101020E8A6F04017F
:10429000056BC80E046F0401080E016F180E026F43
:1042A000040E036FC80E006F6D98120001018A6B37
:1042B0000DD8880E006F0401046B12008EC1E9FF57
:1042C0008FC1EAFFEF6E010180EF21F00401080EBB
:1042D000016F100E026F040E036F1200D9CFE9FFB9
:1042E000DACFEAFFEE50ED101200D9CFE6FFE1CFB2
:1042F000D9FF020EE1261200E552E7CFD9FF1200E6
:104300008E2B000E8F238C2B8D23DF06010E1200C7
:104310006DA60CD80101A00508E16DBA06D0686A47
:10432000696A69806988020EA06F12006D6A696A05
:104330006D860101010EA06F12006D6A696A0101AC
:10434000A06B12009DEF21F00101A05101E11200CC
:104350006850040B04E06950040B01E038D86DB2DA
:1043600012006850010B04E06950010B01E050D8C5
:104370006850100B04E06950100B01E024D868501D
:10438000400B04E06950400B01E037D86850200B27
:1043900004E06950200B01E032D86850020B04E0C1
:1043A0006950020B01E032D8030E0101A05D01E269
:1043B00012006850080B06E06950080B03E05CEC43
:1043C00020F068961200698468986D8212006D92E0
:1043D0006994689412000101A1A10ED0F8DF6D84E8
:1043E0000101080EA46F070EA56FA407000EA55BC0
:1043F000A451A511FAE16D941200689C120070A0FE
:1044000003D056EC21F07090689A12006892120066
:104410006A6A686A9F0E6B6E7B0E696E6E6A0F0E1B
:10442000E66E710EE66E0F0EE66E14D8E552E5529A
:10443000E552160E706E68A602D06896FCD76D988D
:1044400056EC21F00101A1910101A26B0101030EC3
:10445000A06F1200D9CFE6FFE1CFD9FFFD0EDBCF71
:10446000E9FFFE0EDBCFEAFFFC0EDB5004E0EE6A54
:0E447000FC0EDB06F9D7E552E7CFD9FF1200AC
:02447E0001013A
:10448000A86B1E0E716E0401400E096F200E0A6F9C
:10449000040E0B6F880E086F0401600E0E6F040E81
:1044A0000F6F400E0C6F1200D9CFE6FFE1CFD9FF9E
:1044B000E652FC0EDB50400805E2400EF36EFC0EA7
:1044C000F3CFDBFFDF6AFC0EDB50DF5C0FE2DF5077
:1044D00050D8EF50E66EDF50EA6A600FE96E040EC6
:1044E000EA22E552E750EF6EDF2AEDD7FC0EDBCF74
:1044F0000DF4400E04010C170C7D880E0C13E552D0
:10450000E552E7CFD9FF1200D9CFE6FFE1CFD9FFBF
:104510000101A86B040108BF26D0FC0EDBCF00F020
:104520000951D880005403E2FC0E09C4DBFF0101ED
:10453000A86BFC0EDB50A85D0FE2A851EA6A200FC1
:10454000E96E040EEA22EF50E66EA85112D8E55249
:10455000E750EF6EA82BEDD70401400E096F081746
:10456000087D880E08130101A851E552E7CFD9FF55
:104570001200E76EFD0EDBCFE9FFFE0EDBCFEAFF98
:0A458000E750E926000EEA221200BF
:06458A00DACFE4FFE65267
:104590009EA00BD00101922B000E93239423952310
:1045A000D10ECF6E1F0ECE6E9E90F2A40AD08970EF
:1045B0008950010B02E0899201D08982440ED66EA7
:1045C000F294E552E5CFDAFF1100D8CFE4FFE0CF57
:1045D000E4FFE46EDACFE4FFE652E552E5CFDAFF1E
:1045E000E550E5CFE0FFE5CFD8FF1000D9CFE6FFDB
:1045F000E1CFD9FF92C196F193C197F194C198F19F
:1046000095C199F1960EE96E010EEA6EEE50010128
:10461000925D006EEE509359016EEE509459026E09
:10462000EE509559036ED950FB0FE96EFF0EDA205C
:10463000EA6EEE50005CEE500158EE500258EE501B
:0C4640000358E0E3E552E7CFD9FF120079
:04464C001201000255
:1046500000000008D8040E00000001020001090259
:104660002000010100803209040000020000000067
:1046700007050103400020070581034000200403D3
:1046800009042A037500730062007000690063006A
:10469000700072006F0067002E006F0072006700EC
:1046A000200020002000200020002000440375008E
:1046B00073006200700069006300700072006F0098
:1046C00067002E006F0072006700200020002000AD
:1046D00020002000200020002000200020002000DA
:1046E00020002000200020002000200020002000CA
:0A46F0005E465E467E468246AC46FA
:0646FA002A0EF66E080E08
:10470000F76E000EF86E01010900F550856F090083
:10471000F550866F03E1856701D03DD00900F55063
:10472000806F0900F550816F0900F550826F090014
:104730000900F550E96E0900F550EA6E090009001C
:104740000900F550836F0900F550846F09000900D6
:10475000F6CF87F1F7CF88F1F8CF89F180C1F6FF66
:1047600081C1F7FF82C1F8FF0101835302E1845345
:1047700007E00900F550EE6E8307F8E28407F9D7E9
:1047800087C1F6FF88C1F7FF89C1F8FF01018507DE
:08479000000E865BBFD712008A
:084798007F6A7E6A7D6A7C6A7B
:1047A0007B6A7A6A796A786A776A766A756A746AFD
:1047B000736A726A716A706A6F6A6E6A6D6A6B6A2E
:1047C0006A6A696A686A120004D80FD8D5EC1BF0CF
:1047D000FCD70F0EC112140E6F6E0101A06B010108
:1047E000A16B0101A26B81EF1BF088EC21F06FBE81
:0847F00002D0A4EC21F012003C
:0847F8001D6A1C6A1B6A1A6AA3
:10480000200EE76ED8901E361F36203621361A3617
:104810001B361C361D3623501A5C24501B5825505D
:104820001C5826501D5809E323501A5E24501B5A69
:1048300025501C5A26501D5A1E2AE72EE4D7120076
:1048400020C02AF020502502F4CF1FF0F3CF1EF035
:1048500021502602F4CF21F0F3CF20F02502F350AF
:104860001F26F4502022E86A21222A502602F35003
:0C4870001F26F4502022E86A2122000CD0
:04487C00FB0EE3CF7D
:10488000F6FFFC0EE3CFF7FFFD0EE3CFF8FFFE0EC1
:10489000E3CFE9FFFF0EE3CFEAFFE9CFF3FFEACF73
:0E48A000F4FF0900F5CFEFFFEE66FBD7120024
:0248AE00000EFA
:1048B000F36E00EE00F0040E01D81200EA6002D0A0
:0E48C000EE6AFCD7F350E9601200EE6AFCD7F6
:0248CE0013EEE7
:1048D00000F023EE00F0F86A199C7DEC23F07DECEB
:0A48E00024F0E4EC23F0FBD71200F3
:0648EA0075736270696342
:0948F00070726F6720383232004B
:0248FA001200AA
:0448FC0003000000B5
:0249000000FFB6
:084902000000000000000000AD
:020000040030CA
:0100000021DE
:010001000EF0
:0100020038C5
:010003001EDE
:01000500807A
:010006008079
:01000900C036
:01000B00E014
:00000001FF
