:020000040000FA
:06000000A0EF03F0120066
:0600080004EF04F01200F9
:060018000CEF04F01200E1
:02002A000000D4
:04002C000001746BF0
:100030001E0E716E0401400E096F200E0A6F040E31
:100040000B6F880E086F0401200E0E6F040E0F6FE9
:10005000400E0C6F1200550EA76EAA0EA76EA68258
:1000600012000401226B010E236F12000001726B5B
:10007000FED80AE209D90800F5CF73F00001F0D8E4
:1000800073C0EFFF722BF4D7F86A1200F00E040170
:100090002217840EA66E0001726BE9D80AE2ECD832
:1000A0000F0E000172150F0801E1D5DF0001722B60
:1000B000F4D71200940EA66E0001726BD8D811E22C
:1000C0007251006E016A060ED89000360136E804BF
:1000D000FBE1026A01BE0268B4D8BDDF0001722BE9
:1000E000EDD7F86A1200A66A0001726BC0D80BE265
:1000F0000401225100017225A96EA680B1D8A8CFB3
:10010000EFFF722BF3D712000001726BB0D810E230
:100110000401225100017225A96EA2D8EF50A86EE9
:10012000040EA66E98DFA6B2FED70001722BEED7A2
:100130001200C40EA66E0001726B99D805E29CD81D
:100140008ADF0001722BF9D7F86A1200060E00014F
:10015000775D03E36D50020B01E072D0000174057E
:1001600011E104010CBF0DD00401400E096F400ED7
:10017000040108170401087D880E0401081300011A
:10018000746B5ED0040108BF5BD00001726B040188
:100190002051FF0A35E0F80A2EE0020A27E0010AA2
:1001A00020E0070A19E0010A12E0030A0BE0070A3F
:1001B00009E0060A01E033D054DF82940001040E06
:1001C000726F2ED053DF050E0001722729D05EDF3B
:1001D0000001010E726F24D06DDF0001010E726FFD
:1001E0001FD081DF050E000172271AD08DDF0001BC
:1001F000010E726F15D09DDF0001010E726F10D0DD
:100200006D960001756B766B00017507000E765BCD
:1002100000017551761101E0F7D7FF0001D000D041
:100220000001010E746F000172510AE072C00DF4FA
:10023000400E04010C1704010C7D880E04010C1300
:100240001200040122510024F36E23510120F46EA8
:1002500024510220F86EF4CFF7FFF3CFF6FF12001F
:100260007251EA6A250FE96E040EEA2212000401B7
:1002700021510001725D1200F3DFEFCF03F004D8CB
:1002800003C0F5FF0C00120072C000F0016A026AA0
:0402900021EF01F069
:0C0294006C5002E0000E01D0010E0009C9
:1002A0000BE0040100513C0BE842E8420D0802E17A
:1002B00065EF01F06FEF01F06C5002E0000E01D02D
:1002C000010E040901E01AD81200D5D800016A6BAA
:1002D0006B6B706B716B46EC02F084D8D2D0020E5F
:1002E00000016A5D09E15CD8040100BD02D0C80EBE
:1002F00001D0880E006F12002BEF02F0040E0001F7
:10030000775D09E112C46EFF6E50000802E2050E2F
:1003100001D0030E776F00016A0509E10AD80401D4
:1003200004BD02D0C80E01D0880E046F12002BEF5E
:1003300002F0A1D80001080E705D000E715903E2B1
:1003400070C0DFFF02D0080EDF6EDFCF05F4DF5094
:10035000016AE850705F0150715B180E6E6F040EF9
:100360006F6FDF501CE0000178A307D06CC0F6FF70
:100370006DC0F7FF0800F55005D06CC0E9FF6DC0F7
:10038000EAFFEF506EC0E9FF6FC0EAFFEF6E0001B9
:100390006C2B000E6D236E2B6F23DF06E2D771D01E
:1003A0006AD801C4DFFFDF5000017025706F000EB6
:1003B0007121716F180E6C6F040E6D6FDF5011E0BC
:1003C0006CC0E9FF6DC0EAFFEF506EC0E9FF6FC07F
:1003D000EAFFEF6E6E2B000E6F236C2B6D23DF0692
:1003E000EDD74FD000016B5105E13DD8840E006F71
:1003F00004011DD0040110AF1CD000017051040194
:10040000165D000171510401175904E216C470F021
:1004100017C471F08EDF0001010E6A6F24D8800EC0
:10042000006F0401180E066F040E076FC80E046FEC
:1004300010D00001020E6A6F0401056BC80E046F34
:100440000401080E016F180E026F040E036FC80E30
:10045000006F6D98120000016A6B05D8880E006F5E
:100460000401046B12000401080E016F100E026FEC
:10047000040E036F1200D9CFE6FFE1CFD9FFE65299
:0C0480001200E552E552E7CFD9FF120050
:04048C000401105106
:10049000600BE842E842E842E842E842000901E035
:1004A00012001151080A39E0010A35E00F0A0AE08A
:1004B000030A01E012000001010E6B6F0001040E3F
:1004C000776F12000001010E6B6F0401130507E145
:1004D00000010A0E6C6F070E6D6F120E13D0020E24
:1004E000135D07E100011C0E6C6F070E6D6F200E8F
:1004F00009D0030E135D0AE100013C0E6C6F070E7C
:100500006D6F040E0001706F716B02D000016B6B98
:100510000001788312009BEF02F00001010E6B6F67
:100520000001790E6C6F000E6D6F00017893000171
:10053000010E706F12000001010E6B6F12C479F092
:100540000401125104E10001050E776F1200000151
:08055000060E776F16EF00F0B4
:08055800080E6D6E6DBAFED7AE
:10056000686A110E696E0001020E776F1200685002
:10057000040B06E06950040B03E06D9269946894E3
:100580006850010B04E06950010B01E027D8685066
:10059000100B09E06950100B06E0698468986D82C1
:1005A000A08A0300A19A6850200B09E06950200B33
:1005B00006E070A003D02BEC02F07090689A030E56
:1005C0000001775D01E209D06850080B06E0695030
:1005D000080B03E04AEC01F068961200686A7B0E93
:1005E000696E6E6A160E706E68A602D06896FCD7A9
:1005F0006D982BEC02F00001796B0001030E776F10
:020600001200E6
:0E0602002A0EF66E000EF76E000EF86E000166
:100610000900F550656F0900F550666F03E16567E5
:1006200001D03DD00900F550606F0900F550616FB1
:100630000900F550626F09000900F550E96E0900E4
:10064000F550EA6E090009000900F550636F0900D2
:10065000F550646F09000900F6CF67F0F7CF68F036
:10066000F8CF69F060C0F6FF61C0F7FF62C0F8FF25
:100670000001635302E1645307E00900F550EE6E98
:100680006307F8E26407F9D767C0F6FF68C0F7FFB1
:1006900069C0F8FF00016507000E665BBFD7120056
:1006A00092689368F80E946E806A040E816E826A76
:1006B000D56ACD6ACA6AB16A070EB46EBD6ABA6AF3
:1006C000F16A81BC02D000EF04F0140E6F6EACEC46
:1006D00002F0828082828284829000017B6BB7EC80
:1006E00002F0A6EC00F000017B510001775D0BE009
:1006F000060E00017B5D07E077C07BF0060E00016F
:0A070000775D01E18292EBD7120051
:06070A00120100020000D4
:100710000008D8040B0000000000000109022000BE
:1007200001010080320904000002000000000705FA
:100730000102400000070581024000000403090493
:1007400013EE00F023EE00F0F86A059C01EC03F0D4
:0807500050EC03F0FDD712008C
:020000040030CA
:0100000021DE
:010001000EF0
:0100020038C5
:010003001EDE
:01000500807A
:010006008079
:010009008076
:01000B00A054
:00000001FF
