:020000040000FA
:0600000088EF24F012005D
:06000800E6EF22F01200F9
:0600180006EF23F01200C8
:0608000088EF24F0120055
:06080800E6EF22F01200F1
:0608180006EF23F01200C0
:06082A0002004649000037
:100830009201000008000000404900009A010000F9
:0408400006000000AE
:0C084400C6EC12F0080EE126EBEC13F0FD
:10085000FD0EDB502C0A01E11BD2010A01E118D286
:10086000190A01E10FD2250A01E10CD21E0A01E1A9
:1008700009D2010A01E106D20A0A01E11BD22A0AC1
:1008800001E1D5D1290A01E1D2D1010A01E1CFD19B
:10089000050A01E1CCD1060A01E153D1080A01E1C0
:1008A0004CD1050A01E149D10A0A01E146D1120AF7
:1008B00001E124D1030A01E121D1010A01E11ED1A4
:1008C000190A01E1E2D0070A01E1DBD0050A01E1E2
:1008D000D8D0030A01E1D5D0250A01E1D0D00D0A14
:1008E00001E1BCD0130A01E1ACD0010A01E1A9D0B9
:1008F0002E0A01E1A6D01F0A01E1A3D0010A01E1FD
:1009000093D01D0A5AE0340A0BE01B0A01E1D2D150
:10091000010A01E1CFD18A9041EC14F0030ECDD150
:1009200003EC16F080EC13F010EC16F0670ED0EC30
:1009300014F0E66AAAEC13F0EDEC12F06DEC12F094
:10094000020E74EC12F01FE2860E02EC15F0BB0EE4
:100950000AEC16F0580EE66E050EA0EC13F0A90E88
:10096000E66E0A0EA0EC13F0380E8BEC13F017ECC9
:1009700016F0C90E44EC11F092EC15F06DEC13F08A
:10098000DDE3DB2ADBD7FA0EE66E070EE66E240EF9
:100990000AEC16F00A0E8BEC13F00EEC15F0030EB9
:1009A00044EC11F062EC12F0A90E0AEC16F0E66AC3
:1009B000E66AE66A9BEC14F079D1040EA3EC13F01E
:1009C000830E94EC13F0880E94EC13F0890E94ECE3
:1009D00013F08A0E94EC13F0060EA3EC13F01DEC4A
:1009E00016F0E66AE66A200EE66EE66A74EC11F02E
:1009F000ACEC15F0A60EE66E880E83EC13F02BEC33
:100A000016F0A60EE66E820E83EC13F030EC16F0B4
:100A10000DEC16F0A60EE66E940EE66EE66A040E77
:100A2000E66E05EC19F042D1050EA3EC13F03F0E73
:100A300078EC14F0040EA3EC13F08F0EE66EE66E65
:100A400006D0040EA3EC13F0800EE66EE66ABCEC52
:100A500015F058EC15F0D4EC14F01FD1050EA3ECF2
:100A600013F0010E78EC14F0040EA3EC13F0800EDA
:100A700078EC14F030EC16F09CEC12F013D10DEC85
:100A800014F039EC16F01E0E0BD13BEC12F027ECF3
:100A90000EF05EEC13F096EC15F0070EDB50310B08
:100AA000006E310E005C07E3060EDB50300B016E6A
:100AB000300E015C12E271EC13F0E66A5AEC11F0B0
:100AC000EDEC12F06DEC12F0070E74EC12F011E286
:100AD000C0EC15F0F7E3DB2AF5D7E6EC15F07CEC7B
:100AE00015F087EC13F071EC13F0030EE66E5AEC80
:100AF00011F07CEC15F050EC14F0DAD00DEC14F0A1
:100B0000FD0EDB50120A0DE1EDEC12F06DEC12F06F
:100B1000080E74EC12F005E2C0EC15F0F7E3DB2AE6
:100B2000F5D739EC16F0060E44EC11F096EC15F002
:100B30000B0E87EC13F0060EB3D00DEC14F01F0E65
:100B4000AAD0EDEC12F06DEC12F0FF0E005C030E7B
:100B5000015805E2C0EC15F0F6E3DB2AF4D7CCEC43
:100B600015F0F3CFDEFFF4CFDDFF0DEC14F0EDEC6C
:100B700012F06DEC12F0070E74EC12F005E2C0EC0E
:100B800015F0F7E3DB2AF5D7CCEC15F0F3CF00F046
:100B9000F4CF01F0000E0016300E0116020E00C058
:100BA000DBFF030E01C0DBFF0DEC14F0090E3BEC84
:100BB00015F00B0E3BEC15F041EC14F00DEC16F0BB
:100BC000FC0EDB50AA0876E02FEC12F0FF0E0016A8
:100BD000000E0116060E00C0DBFF2FEC12F001C064
:100BE00000F0016AFF0E0016000E0116070E00C08D
:100BF000DBFF5EEC14F0E668030E84EC14F065D8BD
:100C00005EEC13F0060EDB6828EC12F001C000F079
:100C1000016A0F0E0012000E0112070E00C0DBFF6A
:100C20003BEC12F01CEC0CF05EEC13F043D0FD0E2C
:100C3000DB50070807E1E6EC15F039EC16F0080E7A
:100C40003BEC15F00DEC14F0E6EC15F0FD0EDB506E
:100C5000070803E1080E87EC13F039EC16F00A0ED2
:100C6000F6EC14F02E0826E00B0E87EC13F0FD0EC8
:100C7000DB50070803E1080E87EC13F00DEC16F0CB
:100C80008A9018D090EC13F039EC16F0140E08D0BE
:100C900090EC13F0090E50EC14F0E552E5520A0EF8
:100CA000E66EE66AE66AE66A17EC23F0E552E5527C
:100CB000E552E55241EC14F0010E006E080EE15CC5
:100CC00002E2E16AE55249EF12F0FAEC14F0F50E97
:100CD000DBA002D0EBEC13F0FD0EDB50340A01E197
:100CE000A6D33A0A01E1A3D3010A01E1A0D31E0A67
:100CF00001E19DD33D0A01E19AD3010A01E197D3B5
:100D00002F0A01E161D3120A01E111D33F0A01E187
:100D10000ED3220A01E10BD31F0A01E108D31A0AFC
:100D200001E105D30E0A01E102D3150A01E1FFD268
:100D30001F0A01E1C7D2050A01E1C4D2030A01E199
:100D4000C1D2010A01E13FD20C0A01E13CD2040AFE
:100D500001E139D2070A01E136D2010A01E133D2B9
:100D60002B0A01E130D20C0A01E1CBD1130A01E1D7
:100D700051D1010A01E14ED12D0A01E14BD1030A03
:100D800001E148D11F0A01E145D1010A01E10FD17A
:100D9000290A51E01B0A06E0010A04E041EC14F0C4
:100DA000030E78D326EC14F002E1000E01D0010E00
:100DB00004C0E7FFE75204E0E8427F0BE706FCE1EE
:100DC000DBEC14F008E18EEC14F04DEC13F0FDE1D7
:100DD0000050A1EC12F0F3EC11F0A1EC12F0040EB3
:100DE000DB6A88EC11F0E8AE02D0E73402D0E750BD
:100DF000005C1BE24FEC12F000BE016865EC11F0E4
:100E0000EF50A1EC12F0DE6EDD6AD9CFE9FFDACF48
:100E1000EAFF010EEE1806E1ED5004E1C6EC1AF00F
:100E2000020E38D3040EDB2ADCD7C6EC1AF00A0E09
:100E3000D2EC15F0B9D003EC16F033EC16F01A0E24
:100E40002EEC15F0040EDB6A88EC11F0E8AE02D04F
:100E5000E73402D0E750005C01E396D0006A54EC1E
:100E600012F0040E17EC13F008AE03D009680A68FC
:100E70000B6869EC14F054EC13F0D1EC12F0FDE1C6
:100E8000E9EC15F0070E006E54EC12F0040E17ECAE
:100E900013F008AE03D009680A680B6869EC14F017
:100EA00008EC13F003E00FEC12F0FDE110EC14F08D
:100EB000DE6ADD6A55EC14F05CE2006A54EC12F074
:100EC00023EC13F00ABE0B6893EC12F00A501E24B8
:100ED000086E0B501F20096EDBEC11F003E00FECE5
:100EE00012F0FDE18FEC11F0040EDBCF12F0136A6B
:100EF00012BE136893EC12F012501E24106E1350A1
:100F00001F20116E010E1026000E1122F70EDB506D
:100F10001024A8EC15F01120EA6EEFCF0CF00D6A4A
:100F20000E6A0F6A0C0E1F0B07E0D8900C360D36B8
:100F30000E360F36E806F9E10C5000120D50011282
:100F40000E5002120F500312DECF14F0DDCF15F059
:100F5000166A176A14500012155001121650021228
:100F60001750031258EC11F0DF2A010EA3E3DB2A1D
:100F7000A1D7E66AAAEC13F04EEC15F04EEC15F092
:100F80000C0E7EEC11F060D70EEC15F0030E44EC65
:100F900011F003EC16F092EC15F0E66A010EE66E25
:100FA000040EE66E9BEC14F0E552E55209D11DECFF
:100FB00016F06DEC11F0F5EC12F0EECFE6FFEFCF8E
:100FC000E6FF74EC11F0040EDB6A41EC13F0E8AEBE
:100FD00002D0E73402D0E750005C0DE206EC15F0D9
:100FE00008BE0968B0EC11F002BE036861EC11F0B4
:100FF00039EC14F0EAD706EC15F008BE0968B0EC3D
:1010000011F002BE036861EC11F0ECEC15F08A827D
:10101000020ECCD0FD0EDB5031080AE09BEC15F03F
:10102000060EA3EC13F0000EE66EE66ABCEC15F0BB
:101030001DEC16F0ADEC13F0040EDB6A88EC11F039
:10104000E8AE02D0E73402D0E750005C01E31AD2E8
:10105000DE6ADD6A55EC14F034E2010EE76EF70E3D
:10106000DBCF0AF0F80EDBCF0BF0E7500A26000EBC
:101070000B22040EDBCF0CF00D6A0CBE0D680A507B
:101080000C24086E0B500D20096EDE500824E96E0A
:10109000DD5044EC14F004BE0568F70EDB50042468
:1010A000026EF80EDB500520036EDE500224E96E5E
:1010B000DD50032016EC12F0EFEC15F032EC13F0DB
:1010C000C9D7070EA0EC11F008BE0968B0EC11F00A
:1010D00002BE03689AEC13F0EA6E060EE926000ED3
:1010E000EA2296EC14F0ECEC15F0E5EC13F0090EA6
:1010F00041EC12F0090E41EC12F0080E7EEC11F0FA
:101100009DD771EC14F004E1ACEC15F0ADEC13F0EC
:10111000040EDB6A41EC13F0E8AE02D0E73402D0F3
:10112000E750005C0DE206EC15F008BE0968B0EC73
:1011300011F002BE036861EC11F039EC14F0EAD74B
:1011400071EC14F00BE006EC15F008BE0968B0EC89
:1011500011F002BE036861EC11F024D006EC15F02A
:1011600008BE0968B0EC11F002BE036861EC11F032
:10117000EFEC15F0F50EDBA285D1040EDB6ADBCFB8
:1011800000F01E0EE76E0018E8AE02D0E73402D081
:10119000E750005C05E2E668E66839EC14F0EFD74A
:1011A000E668E668ECEC15F08A820A0E44EC11F071
:1011B0008A92CFEC15F0000EE66EE66A85EC18F028
:1011C000E552E5525FD1F50EDB50010B07E06DEC07
:1011D00011F0FEEC12F002E2ADEC13F0040EDB6A4B
:1011E00088EC11F0E8AE02D0E73402D0E750005CA2
:1011F00001E348D168EC13F006BE0768F3EC15F084
:1012000002BE0368C5EC15F006E1180E3BEC15F0C4
:101210005BEC13F002D0A4EC15F0E552E55200ECC3
:1012200016F048EC14F008BE0968B8EC11F004BEE2
:10123000056878EC12F002E10350011840E041EC3F
:1012400014F0EBEC13F00DEC16F0040EDB407F0B0A
:1012500063EC13F000AE03D001680268036818EC79
:1012600014F068EC13F006BE0768F3EC15F002BE4C
:101270000368C5EC15F006E1180E3BEC15F05BECCD
:1012800013F002D0A4EC15F0E552E55248EC14F04E
:1012900008BE0968B8EC11F004BE056878EC12F0DD
:1012A00002E1035001180BE0D9CFE9FFDACFEAFFE2
:1012B000090EEE1804E1ED5002E1040EEBD088ECCB
:1012C00015F08ED7040EDB6A88EC11F0E8AE02D080
:1012D000E73402D0E750005C01E3D4D0DE6ADD6A77
:1012E000ABEC14F012E223EC13F00ABE0B68C9EC6D
:1012F00013F004BE05683EEC15F055EC14F002E264
:1013000090EC13F032EC13F0EBD725EC16F0CFECA9
:1013100015F00E0E87EC13F090EC13F0040EDBCFFB
:10132000E7FFE850E726040EE7CFDBFFCDD7040E3A
:10133000DB6A88EC11F0E8AE02D0E73402D0E75067
:10134000005C01E39FD0DE6ADD6A2FEC12F0080E2C
:1013500074EC12F012E223EC13F00ABE0B68C9EC35
:1013600013F004BE05683EEC15F055EC14F002E2F3
:1013700090EC13F032EC13F0E8D7FD0EDB50060AC8
:1013800010E0290A09E03C0A02E0030A0DE1180E08
:101390003BEC15F00A0E0ED0180E3BEC15F00E0EBD
:1013A00009D0A4EC15F008D0180E87EC13F000EC6F
:1013B00016F0170E50EC14F0E552E55290EC13F0D5
:1013C000080E7EEC11F0B5D7040EDB6A88EC11F044
:1013D000E8AE02D0E73402D0E750005C53E2DE6AA8
:1013E000DD6A2FEC12F0100E74EC12F015E223EC13
:1013F00013F00ABE0B68C9EC13F004BE05683EEC9E
:1014000015F02FEC12F00E0E74EC12F002E290ECDC
:1014100013F032EC13F0E5D725EC16F0080E44EC8F
:1014200011F090EC13F0100E7EEC11F0CFD7F50E0A
:10143000DBA002D090EC13F0040EDB6A88EC11F014
:10144000E8AE02D0E73402D0E750005C1BE268EC63
:1014500013F006BE0768F3EC15F002BE036861ECFA
:1014600011F0EFEC13F0CFEC15F025EC16F0030EB5
:1014700044EC11F00E0E87EC13F0CFEC15F088EC75
:1014800015F0DCD7F50EDBA204D041EC14F0010E10
:1014900001D0020E006E050EE15C02E2E16AE55247
:1014A00049EF12F0FAEC14F0F50EDBA002D0EBECF1
:1014B00013F0FD0EDB502C0811E0FD0EDB502D0863
:1014C0000DE0FE0EDB50020A01E163D1010A01E1E9
:1014D000E1D0060A05E0E66A4EEC11F0030EA4D155
:1014E00003EC16F033EC16F05A0E2EEC15F0020E4B
:1014F000DB6A88EC11F0E8AE02D0E73402D0E750A6
:10150000005C01E3BCD0F00EE66E070EB9EC15F0FE
:10151000070E006E016A2F0E026E036A020E17ECB0
:1015200013F008AE03D009680A680B686DEC11F07F
:10153000A6EC12F00B50EE200F0E0516B7EC14F0CF
:1015400003E00FEC12F0FDE110EC14F0006A54EC33
:1015500012F0020EDBCF08F0096A08BE0968DBEC66
:1015600011F003E00FEC12F0FDE18FEC11F0020E30
:10157000DB280E6E0F6A0EBE0F6801EC12F003E05E
:10158000AFEC12F0FDE1B5EC13F0010EAFEC14F08E
:10159000020F086E096A08BE0968DBEC11F003E06F
:1015A0000FEC12F0FDE1FEEC14F0030F0E6E0F6A6B
:1015B0000EBE0F6801EC12F003E0AFEC12F0FDE19B
:1015C000B5EC13F0020EAFEC14F0040F086E096ACC
:1015D00008BE0968DBEC11F003E00FEC12F0FDE14E
:1015E000FEEC14F0050F0E6E0F6A0EBE0F6801ECD4
:1015F00012F003E0AFEC12F0FDE1B5EC13F0030ED6
:10160000AFEC14F0060F086E096A08BE0968DBEC3F
:1016100011F003E00FEC12F0FDE1FEEC14F0070F07
:101620000E6E0F6A0EBE0F6801EC12F003E0AFEC15
:1016300012F0FDE1B5EC13F0E66AAAEC13F0030E2C
:10164000DB6ADBCF00F0040EE76E0018E8AE02D0D4
:10165000E73402D0E750005C07E2F2EC12F028EC2D
:1016600016F0030EDB2AEDD7080E006E020EDBCF5C
:10167000E7FF0050E726020EE7CFDBFF3AD70EEC7C
:1016800015F000EC16F003EC16F092EC15F080EC7F
:1016900013F0C2D0A60EE66E9E0E48EC15F0020EB8
:1016A000DB6A88EC11F0E8AE02D0E73402D0E750F4
:1016B000005C01E3B1D0020EDBCF04F0056A04BE8A
:1016C00005685EEC15F0020EDBCF04F0056A04BE7F
:1016D00005681AEC15F0020EDBCF02F0036A02BEB9
:1016E00003689AEC13F0EA6EEF50006E016AE8505E
:1016F0000E0E011200C0E6FF34EC14F0A80E06EC4A
:1017000016F0ACEC15F0FD0EDB0408E0FD0EDB502E
:10171000300804E0FD0EDB50310802E12BEC16F03E
:10172000A60EE66E820E83EC13F0BEEC11F0A60E50
:101730008BEC15F0E76E040EE7CFDBFFDB50020BFE
:1017400002081DE1960EE96E010EEA6EEE500101EF
:10175000925D006EEE509359016EEE509459026EF8
:10176000EE509559036ED890E850000A07E6050E32
:1017700074EC12F0000E0258000E0358D8E3CFECC0
:1017800015F0A60EE66E940E83EC13F0020EDB2A23
:1017900088D7020EDB6A88EC11F0E8AE02D0E7349D
:1017A00002D0E750005C38E2020EDBCF00F0016AA5
:1017B00000BE016865EC11F0EF50E66EE66A030EBC
:1017C000E66E5AEC11F0FD0EDB50100A0AE0150A25
:1017D00008E0020A06E00A0A04E0050A02E01A0A22
:1017E00002E1180E01D0080E87EC13F0080EF6EC9B
:1017F00014F0100A0AE0150A08E0170A06E01F0AAA
:1018000002E0050A05E1170E01D00A0E87EC13F07D
:101810003CEC16F0DB2ABFD7F50EDBA204D041EC7E
:1018200014F0010E01D0020E006E050EE15C02E222
:10183000E16AE55249EF12F0C6EC12F0030EE12620
:10184000F50EDBA002D0EBEC13F0FD0EDB50340AFA
:1018500001E1CAD13A0A01E1C7D1010A01E1C4D1CB
:101860001E0A01E1C1D13D0A01E1BED1010A01E137
:10187000BBD1280A01E12DD1150A01E12AD11D0AA7
:1018800001E127D11E0A01E124D13C0A01E121D165
:10189000230A01E11ED1050A01E11BD1030A01E17E
:1018A00018D1010A01E115D1190A01E112D11A0A70
:1018B00001E10FD10F0A01E10CD1050A01E109D1C3
:1018C000040A01E106D1050A01E103D1070A01E199
:1018D00000D12A0A01E1FDD01F0A64E02C0A62E06F
:1018E000030A60E01F0A5EE0010A5CE0290A04E0E6
:1018F00041EC14F0030EA3D1F50EDB50010B0108EF
:1019000007E103EC16F033EC16F0070ED0EC14F000
:101910000101A96B37EC13F0E8AE02D0E73402D036
:10192000E750A95D01E383D110EC16F00101A9296C
:10193000066E076A06BE076859EC14F002BE03681B
:101940009AEC13F0EA6EEF5000010410006EDFEC29
:1019500012F0060E006E54EC12F0010EDBCF04F014
:10196000020EDBCF05F0066A076AB7EC14F003E05D
:101970000FEC12F0FDE110EC14F009EC15F0860EFE
:1019800002EC15F028EC16F00EEC15F000EC16F059
:1019900003EC16F092EC15F080EC13F0020E01014E
:1019A000A927B8D79BEC15F0FD0EDB0408E0FD0E6F
:1019B000DB50300804E0FD0EDB50300808E1E66A39
:1019C000EF0E83EC13F0E66AF80E83EC13F00101DE
:1019D000A96B37EC13F0E8AE02D0E73402D0E75041
:1019E000A95D01E324D1A9C100F0016A00BE01682C
:1019F000026A036A18EC14F0A9C106F0076A06BE71
:101A0000076859EC14F002BE036861EC11F0BFECFA
:101A100013F0E5EC13F0FD0EDB0404E0FD0EDB50EB
:101A2000300805E1F60EE66E2A0E83EC13F0A9C12C
:101A300004F0056A04BE05683DEC14F01DEC13F0DB
:101A4000016EEE500620026EEE500720036E002A53
:101A5000000E0122022234EC12F0086E050EE15E47
:101A60000850010EE76EF70EDBCF08F0F80EDBCF63
:101A700009F0E7500826000E0922A9C10AF00B6AF6
:101A80000ABE0B6808500A24E96E09500B20D8ECF6
:101A900015F0010EE76EF70EDBCF02F0F80EDBCF8C
:101AA00003F0E7500226000E0322A9C104F0056AE4
:101AB00004BE056802500424E96E0350052016ECAC
:101AC00012F0BFEC13F0E5EC13F0020E0101A927B0
:101AD00080D7F50EDBA014D00DEC14F0DF6ADFCF59
:101AE00000F0F90EDB50E76E0018E8AE02D0E734E4
:101AF00002D0E750005C04E290EC13F0DF2AEFD74D
:101B00000101A96B37EC13F0E8AE02D0E73402D044
:101B1000E750A95D01E38BD0BEEC12F0006E040E1D
:101B2000E76E0018E8AE02D0E73402D0E750005C60
:101B300022E3BEEC12F007081EE0BEEC12F008082B
:101B40004EE1FD0EDB50130802E0000E01D0010E45
:101B5000026EFD0EDB500A0802E0000E01D0010EFD
:101B6000016EFD0EDB500D0802E0000E01D0010EEB
:101B70000110021034E0A929066E076A06BE076844
:101B800059EC14F002BE03689AEC13F0D9EC13F090
:101B9000FD0EDB500D0A06E01D0A04E03F0A02E0DC
:101BA000010A03E1180E87EC13F025EC16F00A0E7B
:101BB000F6EC14F00D0A10E01D0A0CE03E0A0AE0F3
:101BC000010A06E0230A04E0050A02E0030A07E12D
:101BD0000E0E03D00A0E01D0170E87EC13F03CEC6A
:101BE00016F00101A9278ED70101A96B37EC13F07C
:101BF000E8AE02D0E73402D0E750A95D18E2A92987
:101C0000066E076A06BE076859EC14F002BE036848
:101C10009AEC13F0D9EC13F0080E3BEC15F00E0E15
:101C200087EC13F03CEC16F00101A927DFD7F50E85
:101C3000DBA204D041EC14F0010E01D0020E006EC4
:101C4000030EE15C02E2E16AE55249EF12F0C6ECF4
:101C500012F0070EE126DE6ADD6A040EDB6AF50E7D
:101C6000DBA002D0EBEC13F0FE0EDB5001E189D1DA
:101C7000020A01E12BD10A0A01E10BD10B0A01E1B1
:101C800008D1060A4AE0020A01E0DAD126EC14F093
:101C900002E1000E01D0010E04C0E7FFE75204E0AC
:101CA000E8427F0BE706FCE1DBEC14F008E18EEC88
:101CB00014F04DEC13F0FDE10050A1EC12F093DBB9
:101CC000A1EC12F026EC14F002E1000E01D0010E9E
:101CD00004C0E7FFE75204E0E8427F0BE706FCE1BF
:101CE000A109A1EC12F0040EDB6A12DBE8AE02D00F
:101CF000E73402D0E750005C0DE2E66AFBEC1AF034
:101D0000E552E66ECCDB00BE0168BCEC14F0040EBC
:101D1000DB2AEBD7C6EC1AF0A5D1DFDA000EEE5CB9
:101D2000000EEE58F80EEE58000EEE5855E3F50E84
:101D3000DBA01AD003EC16F080EC13F0006AB4DBE1
:101D4000046A056A0668076AC8DA0EEC13F00C0E1E
:101D5000D1EC12F0FDE1E9EC15F0E66AB1EC15F01A
:101D6000800EE66EAAEC13F0040EDB6AD1DAE8AE60
:101D700002D0E73402D0E750005C01E373D128ECD5
:101D800013F022EC16F0200EE66E3C0EE66E880E86
:101D90000AEC16F009EC15F001EC1AF02DEC14F039
:101DA0007EDB00BE016881EC14F0DBCF02F0060E92
:101DB000DBCF03F0000E0216FF0E0316C4EC14F086
:101DC00000BE016882DA02C0EFFF09EC15F080EC7A
:101DD00013F0020E93DACAD703EC16F080EC13F07E
:101DE000006AF3EC13F054EC13F0DBDBFEE1E9ECFA
:101DF00015F0060E006EF3EC13F008EC13F002E0A1
:101E00000EDBFEE110EC14F0800EE66EB1EC15F086
:101E10006BEC15F0F2EC12F022EC16F06BEC15F016
:101E200028EC13F022EC16F03CEC13F011DB060E5C
:101E30005BDB2CE20DDB02EC14F02DEC14F013EC68
:101E400014F002BE036863DB81EC14F0DBCF04F016
:101E5000060EDBCF05F0000E0416FF0E051605C0BA
:101E600004F0056A13EC14F002BE036850DB010EA7
:101E70000026000E012229DA04C0EFFF09EC15F05C
:101E8000020EDB2A030ED2E3DB2AD0D780EC13F05C
:101E9000E9D0ADEC13F0040EDB6A3ADAE8AE02D01A
:101EA000E73402D0E750005C01E3DCD0090EE9DA48
:101EB000E66EF5DA00BE0168BCEC14F0FE0EDB50F5
:101EC000080801E19298040EDB2AE7D706DA000E33
:101ED000EE5C200EEE58000EEE58000EEE582DE38C
:101EE0000DEC14F0F50EDBA012D0C6DBB1DAE1EC9C
:101EF00014F0000E025E200E035A0250005C0350E4
:101F0000015805E2B5EC15F0F1E3DB2AEFD7040E3A
:101F1000DB6AFED9E8AE02D0E73402D0E750005CBD
:101F200001E3A0D0B4EC14F000BE01687CEC14F026
:101F300000BE016836EC16F0ECD7F50EDBA00BD036
:101F4000CCEC15F099DB84DAC2DA05E2B5EC15F0D9
:101F5000FAE3DB2AF8D7040EDB6ADAD9E8AE02D05E
:101F6000E73402D0E750005C01E37CD0B4EC14F01D
:101F700000BE01687CEC14F000BE016836EC16F07F
:101F8000ECD7FD0EDB500F0A0EE01E0A0CE03C0AF7
:101F900007E0230A05E0220A09E1DE68010E05D008
:101FA000DE68030E02D0DE680F0EDD6E58DA026ABC
:101FB000036A93D9EE50001821E1EE5001181EE19A
:101FC000EE5002181BE1EE50031818E117E1CCECBB
:101FD00015F02DEC14F0050E060EDBCF01F001C05C
:101FE00000F0016A010EE76EF1DAE750E926000E13
:101FF000EA2200C0EFFFEADA4CDB34D0F50EDBA0BA
:102000000AD08EDB39DB24DA62DA05E2B5EC15F0B2
:10201000FAE3DB2AF8D7040EDB6A7AD9E8AE02D0FD
:10202000E73402D0E750005C1DE2B4EC14F000BECF
:1020300001687CEC14F000BE016836EC16F0EDD7B8
:10204000040EDB6A65D9E8AE02D0E73402D0E7506F
:10205000005C08E224DA00BE016837D9EF6A040E9A
:10206000DB2AF0D7F50EDBA202D0E66A17D9006EA4
:10207000070EE15C02E2E16AE5520BD2FAEC14F0E1
:10208000040EDB6AF50EDBB0A6DBFE0EDB50020AA7
:1020900001E1A7D0010A01E17AD0060A01E0CFD020
:1020A00003EC16F02DDBF00EE66E070EB9EC15F022
:1020B000060E006E016A2F0E026E036A04680F0E90
:1020C000056EDBDBABDA040E1F0B02E0A8D9FEE1E4
:1020D000A7DB040EDB6A1CD9E8AE02D0E73402D0DD
:1020E000E750005C01E3BDD0800EE66E33DBDE6AB4
:1020F000DD6AABEC14F008E275DA22EC16F0DF2AA8
:10210000010EF7E3DB2AF5D7DE6ADD6AABEC14F0EB
:102110003AE2A5D977DB4CDA86DB02BE036803DA44
:10212000E8EC14F0D2D8020EDBCFEFFFDBCF06F0E5
:10213000030EDBCF07F0000E0616FF0E071607C0D2
:1021400006F0076A70DB02BE0368DECF04F0DDCF65
:1021500005F0010ED89004360536E806FBE1010EC5
:102160000426000E052202500424006E03500520B0
:10217000016EABD806C0EFFF09EC15F0DF2A010EA7
:10218000C5E3DB2AC3D7BCDA080EB8D8A4D7A60E9D
:10219000E66E9E0E48EC15F0040EDB6AB9D8E8AE88
:1021A00002D0E73402D0E750005C5BE2F7EC15F0B8
:1021B00004BE05685EEC15F0F7EC15F004BE05688A
:1021C0001AEC15F0A60EE66E800E9DDAA80E8BECCA
:1021D00015F0E66E64D900BE0168CEDB040EDB2A82
:1021E000DDD7F50EDB50010B14E077D807DA11E2EA
:1021F000050EECD8F350E66EE9D97BDADE6ADD6ACB
:102200002ED965D906E28CDADF2A010EF9E3DB2A42
:10221000F7D7040EDB6A7CD8E8AE02D0E73402D0F0
:10222000E750005C1EE2050ED1D8F350E66E37D9B8
:1022300000BE0168A1DB74DA040EDB2AECD7040EC1
:10224000DB6A66D8E8AE02D0E73402D0E750005C23
:1022500008E225D900BE016838D8EF6A040EDB2AEF
:10226000F0D7F50EDBA202D0E66A18D8000E006E99
:10227000050EE15C02E2E16AE5520BD1E66A8CD31D
:1022800093DBE552E552120090DAE552E552120076
:10229000E66E43EC18F0E552E5521200FE0EDBCF7D
:1022A000E6FFFD0EDBCFE6FF54EC16F0FCEF15F079
:1022B00049DB72D3060EE66E0BEC19F0E552FCEF2B
:1022C00015F038DAEA6E96EF14F0F70EDB500024C2
:1022D000A8EC15F00120EA6E1200D950F90FE96E52
:1022E000FF0EDA20EA6E1200FE0EDBCFE6FFDDEC19
:1022F00017F0006E050EE15E00501200006E040E35
:10230000DBCFE7FF0050E726040EE7CFDBFF12002C
:10231000DBCF00F0F60EDB50E76E00181200045021
:10232000001205500112065002120750031212004B
:10233000F70EDB500624A8EC15F00720EFEF14F0A1
:10234000E76EF70EDBCF06F0F80EDBCF07F0E750B5
:102350000626000E0722040EDBCF08F0096A1200E1
:1023600006500824E96E0750092039DB13EF14F0FA
:10237000F70EDB500824ECDB44EF14F092C196F129
:1023800093C197F194C198F195C199F11200D89039
:102390000436053606360736030E236E246A256A90
:1023A000266A04C01EF005C01FF006C020F007C05A
:1023B00021F01DEF24F0F70EDB500824C9DB0920C3
:1023C000EA6EEFCF04F0056AB7EF14F0E66E060E82
:1023D000E66E11EC19F0E552E5521200000EE66EC1
:1023E000E66AE66A1200F90EDBCF00F0FA0EDBCFE8
:1023F00001F0FB0EDBCF02F0FC0EDBCF03F0005050
:102400001200F70EDB500E24A3DB0F20EA6EEFCF95
:102410000AF00B6A0C6A0D6A0C0E1F0B1200D890A2
:102420000436053606360736E8061200EA6EEF5027
:1024300000010610006E07C001F0E66E07C0E6FF5F
:1024400012000BDA050E060EDBCF03F0C4EF14F01A
:10245000020EDBCF00F0030EDBCF01F01200DECF67
:1024600000F0DDCF01F0120003226CDAFE0EDBCFAC
:10247000E6FFDDEF17F022DA070EE66E200E84EF9E
:1024800014F0E66E040EE66E89EC19F0E552E552A2
:102490001200E16E0050E552E7CFD9FF1200040EA2
:1024A000DBCF00F0016A1200016A200E026E036A9F
:1024B0001200EE500016EE500116EE500216EE50CD
:1024C00003161200610EE66EE70EE66E120079DA70
:1024D0000250005C035001581200040EDBCF00F0E4
:1024E000050EDBCF01F01200005C000E0158120057
:1024F000F70EDB5004242CDB0520EA6EEF500001C0
:102500000610026E07C003F0E85000181200020E19
:10251000206E216ADBCF25F0030EDBCF26F041ECE5
:1025200024F0E8EF14F0020E206E216ADECF25F0D1
:10253000DDCF26F041EF24F0900EE66E010EE66E40
:102540001200E66ECCEC1AF0E55212000850EE24B0
:10255000046E0950EE20056E0A50EE201200D8904D
:102560000A360B360C360D36E8061200000EE66E03
:10257000E66A85EC18F0E552E5521200F90EDBCF61
:10258000E6FFA9417F0BE552E7241200D9CFE6FF11
:10259000E1CFD9FF1200016A026A036A0E0E01122E
:1025A0001200D8900732063205320432E8061200D3
:1025B000020EF3CFDBFF030EF4CFDBFF1200010EA0
:1025C00000C0DBFF020E05C0DBFF1200F70EDBCF01
:1025D000E9FFF80EDBCFEAFF1200040EDB6A050EFE
:1025E000DB6A1200B60E02EF15F0EECFE6FFEECF7B
:1025F000E6FF1200E66EEB0EE66E1200D880000ECB
:10260000EE54000EEE54000EEE54000EEE54120086
:102610001EC004F01FC005F0B7EF14F0EE50041612
:10262000EE500516EE500616EE5007161200DBCFE0
:1026300008F0096A0A6A0B6A1200EE500424006E60
:10264000EE5005201200040EDBCF0AF00B6A1200D8
:10265000B60EE66E0B0EE66E1200B60EE66EDB0EE2
:10266000E66E1200020EDE26000EDD221200F60ECD
:10267000DB50E76EA9191200020EDB6A030EDB6A5B
:102680001200DBCF00F0F60EDB50FE0FE76E0018F5
:102690001200050EDBCFEFFF1200D890033202329A
:1026A00001320032E806120020C006F0046A056A12
:1026B000076A0C0E12000A0E50EF14F0006E0A0E9C
:1026C000E15E00501200006E016A026A036A1200A5
:1026D000040EDB28066E076A1200040EDB2A050EC4
:1026E0001200E6683F0EE66E1200011002100310A1
:1026F0001200E552E750EF6E12008CDA03EF16F08D
:10270000F5D909EF15F0E66EE66A40EF11F0E66ED6
:10271000060E48EF11F0E66E3B0EE66E880E33D2E1
:10272000060EE66E48EF11F0E66EE66A25DA98DAF4
:102730000DEF16F0F70EDB5002240ADA0320120028
:10274000E66E200E20D2E66EE66A3C0EE66EE66A83
:1027500074EF11F006DA09EF15F0BFDDEECFE6FFFA
:1027600044DFEFCFE6FF74EF11F00A5000120B5078
:1027700001120C5002120D50031258EF11F00F0EFF
:10278000E66E7EDDE66A030E48EF11F0D5DE880EB8
:10279000FAD1DE500A24086EDD500B20096E010EBE
:1027A0000826000E0922B8EF11F0FCD9E552E552D7
:1027B0001200EA6E04DA03DF010EDBCFE6FF020E41
:1027C000DBCFE6FFE66E5AEF11F08A8219DA8A92C1
:1027D000E6D9B6EF12F0010EE66E4EEF11F0020EE2
:1027E000E66E5AEF11F060DEF90EDBCF04F0FA0E60
:1027F000DBCF05F0FB0EDBCF06F0FC0EDBCF07F0E6
:10280000C7EF11F0026A036A008A3C0E0112880EBB
:1028100002124EDDFED801EF1AF0E0DD5AEF11F0A2
:102820007EDD58EF11F0040EDBCF02F0036A1200D8
:1028300054DDEE500026EE500122EE500222EE5002
:1028400013DE046E050EE15E04501200BFEC1AF0B8
:102850000D0E046EC8DD75EF13F0050EF3CFDBFF30
:10286000060EF4CFDBFF120001C0E6FFE66A40EF80
:1028700011F0B5D9020E7EEF11F0066A076A6DEF0E
:1028800011F0E66A4EEF11F0092092D9F7EF15F03A
:1028900083D98EDEDDDD040EDB28086E096A1200A6
:1028A000E66E060EE66E43EF18F0D9DD060E74EF05
:1028B00012F03EDDA9C102F0036A1200030EE66EBB
:1028C000020EE66ED950060FE66E000EDA20E66EB6
:1028D000120003DD3BDE066E0B50EE20076EC7EFE5
:1028E00011F0200EF0DEF9DCE4DD005075EF13F09E
:1028F000E66EE66EBCEF15F0E8DC02C0EFFF4FEFCE
:1029000012F0E3DC49EF13F0E66EE66AE66AFD0ECC
:10291000DBCFE6FFFE0EDBCFE6FF1200006A0168A8
:10292000026A036ADADCC5DD080E120048D9E66ED9
:1029300005C0E6FF1200A2DCE66AE66AE66AE66A1D
:1029400077EF1AF000C0E6FF01C0E6FF02C0E6FF25
:1029500003C0E6FF120083DD040E74EF12F0006E78
:10296000A3DD020EDB50120017D921EF12F0066A28
:10297000076A040E1F0B1200A8DC79EF13F02EDD9E
:102980007FDC020E41EF12F003C002F0036A040E76
:10299000DB28006E016A120077EC1AF0E5522CD1A8
:1029A000E66EE66A200EEFD0040EE66E05EC19F036
:1029B000E552E5521200A009C4DDFD0EDB503308DC
:1029C0001200F90EDBCF02F0FA0EDBCF03F012009B
:1029D00002501E24006E03501F20016E1200EA6E8A
:1029E000EFCF04F004C005F0046A12004DDCFD0EC8
:1029F000DB501200CBDD050EE126120090DC020E4A
:102A0000DB501200E66E1B0EE66E1200010EA0EF08
:102A100011F0E66AE66AE66A3EEF11F0580EE66EDD
:102A2000050E8EDE380E77DEA90EE66E0A0E88DE03
:102A300017EF16F022DFEE500426EE500522EE507E
:102A40000622EE50072205C000F00001036AA3DD54
:102A500005C0E6FF09DFAA0E06EF16F0E66EE66A8D
:102A6000240ED8D80A0E8BEF13F0E66E0E0E4BDE56
:102A7000A70E06EF16F04BDE0DEF16F0DE50042425
:102A8000026EDD500520036E55DED0DCEFEF13F053
:102A90003ADEA60EE66E9C0E83EF13F0D9DDD8D891
:102AA000DCDDD6D8B60EA6DDD3D89CDD28EF16F037
:102AB00095DC40EC11F062DCEEEF11F0DEDEBDDD06
:102AC000EE500620EE50072066DD00C0E6FFCCDEAB
:102AD000A90E06EF16F0960E95DFB4D8BEDDB2D87B
:102AE000D60EE66EDB0EE66E22EF16F0E66A010EFB
:102AF000E66E040E0AEF16F0010E09DE070E07DE81
:102B0000A4D8080E44EC11F0010E01DE070E1200ED
:102B1000B3D87EEF11F0E66E500EF5DDF50E76D8E7
:102B2000BFEF14F0CFDCA90E7DEF13F0AADE75D84D
:102B300052DE0DEF16F0A60EE66E8E0EE4DDA60E4A
:102B4000E66E8C0E83EF13F080D80A0ED5EF13F0EB
:102B5000E96EF80EDB501200A60EE66E840E83EFCF
:102B600013F0030E47DD3EEF11F086D8DB2A030E8B
:102B70001200E6DDC6EF13F00C0EE66E40EF11F02A
:102B8000CFDD6DEF13F00AEF16F061EC11F027DEE8
:102B9000FD0EDB502E0A1200040EE6EF11F0010EBE
:102BA00044EF11F0E66EE66AE66AE66A17EF23F094
:102BB000EA6EEFCF06F006C007F0066A1200EF508B
:102BC00000010410006E05C001F012008ADDEFEF75
:102BD00013F026DEC6EF13F0D2DDBEEF11F00D0EBE
:102BE000E66E40EF11F098EC11F013EF14F0040EC4
:102BF000DBCF04F0056A1200E552E552E5521200FF
:102C0000020E44EF11F005DF09EF15F0E66E6E0ECF
:102C100083EF13F0E66E3EEF11F00A0E44EF11F071
:102C20008A0E1CDF800EE66E0F0EB9EF15F0390E1E
:102C300072DD48DCA80E7DEF13F0A60EE66E8E0E58
:102C400048EF15F0BA0E7DEF13F0080E87EF13F082
:102C5000BB0E7DEF13F0550E08DFAA0E35EF15F011
:102C600027DF40EF11F042DF80EF13F04ADE88EFFC
:0E2C700015F0090E87EF13F053DD020E12006F
:022C7E006BECFD
:102C80001BF0E652DF6ADFCF00F00A0EE76E001895
:102C9000E8AE02D0E73402D0E750005C02E2DF2A5F
:102CA000F2D7E5524BEF1BF0D9CFE6FFE1CFD9FFCA
:102CB000020EE126FC0EDB0401E016D19390939204
:102CC000FD0EDB5008081BE192988998929A899A28
:102CD0008A94000000008986899600000000B20EE8
:102CE000E66EC20EE66E11DAE552E552120EE66E9F
:102CF0000A0EE66E0ADAE552E552898654D1FE0ED6
:102D0000DB50320804E0FE0EDB50330803E18A801A
:102D10008A8202D08A908A9200000000FE0EDB5068
:102D2000050A0CE0030A0AE02F0A07E01B0A03E089
:102D3000010A01E005D08A9405D004D08A9602D019
:102D40008A9400D092C196F193C197F194C198F101
:102D500095C199F1960EE96E010EEA6EEE500101F1
:102D6000925D006EEE5001019359016EEE5001012B
:102D70009459026EEE5001019559036ED89003509C
:102D8000000A08E6640E005C000E0158000E0258AE
:102D9000000E035802E2DED7DDD7FE0EDB50290A13
:102DA0000CE02C0A08E0030A06E0340A03E0010AFA
:102DB00001E06CD06DD08A946BD08A940000000042
:102DC0008A9692C196F193C197F194C198F195C1F9
:102DD00099F1960EE96E010EEA6EEE500101925DD8
:102DE000006EEE5001019359016EEE5001019459AD
:102DF000026EEE5001019559036ED8900350000AFF
:102E000008E61A0E005C000E0158000E0258000E73
:102E1000035802E2DED7DDD7E66AE66AE66AE66ACA
:102E200066DBE552E552E552E552E66AE66AE66A95
:102E3000E66A5DDBE552E552E552E552E66AE66A8E
:102E4000E66AE66A54DBE552E552E552E552E66A87
:102E5000E66AE66AE66A4BDBE552E552E552E55280
:102E60008A868A8A8A9ADE6ADD6ADECF00F0DDCF42
:102E700001F0010E005C000E015806E200D0DF2ACE
:102E8000010E01E3DB2AF1D78A9602D08A9600D0A0
:102E900092C196F193C197F194C198F195C199F1BE
:102EA000960EE96E010EEA6EEE500101925D006E23
:102EB000EE5001019359016EEE5001019459026EDA
:102EC000EE5001019559036ED8900350000A08E6B0
:102ED000640E005C000E0158000E0258000E0358EC
:102EE00002E2DED7DDD75FD08A8689968A8A92C1D0
:102EF00096F193C197F194C198F195C199F1960E0D
:102F0000E96E010EEA6EEE500101925D006EEE5028
:102F100001019359016EEE5001019459026EEE5079
:102F200001019559036ED8900350000A08E6280E57
:102F3000005C000E0158000E0258000E035802E219
:102F4000DED7DDD78A9A8A849288928A9380938288
:102F500092C196F193C197F194C198F195C199F1FD
:102F6000960EE96E010EEA6EEE500101925D006E62
:102F7000EE5001019359016EEE5001019459026E19
:102F8000EE5001019559036ED8900350000A08E6EF
:102F9000140E005C000E0158000E0258000E03587B
:102FA00002E2DED7DDD7020EE15C02E2E16AE55221
:102FB000E16EE552E7CFD9FF12008DDB040EE1266A
:102FC000FE0EDB502AE0020A28E0010A02E00B0AAA
:102FD00053E154DB06C000F00001026A036A5FDBC4
:102FE00006C0E6FF7DDBF80E71DB48DB05C000F0B4
:102FF0000001036A54DB05C0E6FF72DBF70E66DBF7
:10300000FA0EDBCF00F0FB0EFC0EFD0E48DB00C01D
:10301000E6FF66DBF60E5ADB2FD0DE6ADE6ADE6A7A
:10302000DD6ADD52DD52FA0EDBCF00F0FB0EDBCFA6
:1030300001F0FC0EDBCF02F0FD0EDBCF03F0D9CFA9
:10304000E9FFDACFEAFF0050EE5C0150EE58025083
:10305000EE580350EE5810E2060EE66EE66E13D8F8
:10306000E552E552D9CFE9FFDACFEAFFEE2A000EAA
:10307000EE22EE22EE22D7D7040EE15C02E2E16AF4
:10308000E552E16E08D3D9CFE6FFE1CFD9FFE65292
:10309000939093928A928A90DF6ADFCF00F0FE0EBF
:1030A000DB50E76E0018E8AE02D0E73402D0E750FC
:1030B000005C16E2FD0EDBA002D08A8001D08A906F
:1030C0008A82FD0EDBCFF3FFF390F342FD0EF3CFC8
:1030D000DBFF000000008A9200000000DF2ADDD73D
:1030E000DF6ADFCF00F00A0EE76E0018E8AE02D00C
:1030F000E73402D0E750005C03E200D0DF2AF1D7CA
:10310000E552E552E7CFD9FF1200D9CFE6FFE1CF74
:10311000D9FFE652DF6ADFCF00F0100EE76E00182D
:10312000E8AE02D0E73402D0E750005C1EE2FD0EAC
:10313000DB50010B02E08A8001D08A908A82D9504C
:10314000FD0FE96EFF0EDA20EA6E010E0F0B06E0AE
:10315000EC52D890ED32EF32E806FAE100000000C0
:103160008A9200000000DF2AD6D700000000E55256
:10317000E552E7CFD9FF1200D9CFE6FFE1CFD9FF63
:10318000E6528A90000000008A82000000008A92C5
:1031900000000000DF6ADFCF00F00E0EE76E0018BF
:1031A000E8AE02D0E73402D0E750005C1EE2FD0E2C
:1031B000DB50010B02E08A8001D08A908A82D950CC
:1031C000FD0FE96EFF0EDA20EA6E010E0F0B06E02E
:1031D000EC52D890ED32EF32E806FAE10000000040
:1031E0008A9200000000DF2AD6D78A9000000000F3
:1031F0008A82000000008A920000000000000000A7
:10320000E552E552E7CFD9FF120027DA7EDFE5521B
:10321000E5528A9040D221DAAFDFE552E5528A903A
:103220003AD2D9CFE6FFE1CFD9FF030EE126FD0E5A
:10323000DBCFE6FFFE0EDBCFE6FF25DFE552E552F2
:103240009380DF6ADFCF00F00A0EE76E0018E8AE69
:1032500002D0E73402D0E750005C03E200D0DF2A5E
:10326000F1D7010EDB6A020EDB6A8A8200000000E1
:103270008A9200000000DF6ADFCF00F00E0EE76EDA
:103280000018E8AE02D0E73402D0E750005C22E23A
:103290008A82000000008150010B026E036ADF5039
:1032A00002C000F003C001F005E0D89000360136FE
:1032B000E804FBE1D950010FE96EDACFEAFF0050D4
:1032C000EE120150ED12000000008A920000000092
:1032D000DF2AD2D78A82000000008A920000000014
:1032E00093908A9000000000010EDBCF00F0020EE8
:1032F000DBCF01F000C0F3FF01C0F4FF00D0030EEC
:10330000E15C02E2E16AE552E16EE552E7CFD9FF06
:103310001200D9CFE6FFE1CFD9FF020EE126FD0E64
:10332000DBCFE6FFFE0EDBCFE6FFADDEE552E5527A
:10333000DF6ADFCF00F0080EE76E0018E8AE02D0BB
:10334000E73402D0E750005C0BE28A9000000000F6
:103350008A82000000008A9200000000DF2AE9D77C
:1033600093809288DF6ADFCF00F00A0EE76E0018C4
:10337000E8AE02D0E73402D0E750005C03E200D0B0
:10338000DF2AF1D7010EDB6ADF6ADFCF00F0080E1B
:10339000E76E0018E8AE02D0E73402D0E750005CD8
:1033A0001DE28A82000000008150010BDF5206E01E
:1033B000DFCFF3FFE846FE0BF306FCE1006E010EE3
:1033C000DBCFE7FF0050E712010EE7CFDBFF000085
:1033D00000008A9200000000DF2AD7D793908A90DD
:1033E00000000000010EDB5000D0006E020EE15C18
:1033F00002E2E16AE552E16E0050E552E7CFD9FF03
:103400001200D9CFE6FFE1CFD9FF030EE1268A9063
:103410008A808A828A928A90DF6ADFCF00F0030E68
:10342000E76E0018E8AE02D0E73402D0E750005C47
:1034300004E28A828A92DF2AF0D7010EDB6A020E4A
:10344000DB6ADF6ADFCF00F0080EE76E0018E8AE37
:1034500002D0E73402D0E750005C04E28A828A920C
:10346000DF2AF0D7938000000000DF6ADFCF00F092
:10347000100EE76E0018E8AE02D0E73402D0E75035
:10348000005C1EE28A82000000008150010B026E87
:10349000036ADF5002C000F003C001F005E0D890DD
:1034A00000360136E804FBE1D950010FE96EDACFAE
:1034B000EAFF0050EE120150ED128A92DF2AD6D7B1
:1034C00093908A90010EDBCF00F0020EDBCF01F06B
:1034D00000C0F3FF01C0F4FF00D0030EE15C02E284
:1034E000E16AE552E16EE552E7CFD9FF1200D9CF8C
:1034F000E6FFE1CFD9FFE6528A90DF6A040EDF5C77
:1035000004E28A828A92DF2AF9D7DF6A180EDF5C2A
:1035100031E2010E006E016A026A036AD950FB0FA4
:10352000E96EFF0EDA20EA6EEE500016EE5001163C
:10353000EE500216EE500316005001100210031058
:1035400002E08A8001D08A90D950FB0FE96EFF0E0D
:10355000DA20EA6ED890030EEB32020EEB32010E47
:10356000EB32EF32000000008A82000000008A92F5
:10357000DF2ACCD7E552E552E7CFD9FF12008A8087
:103580008A823FEC16F08A9055EF1BF08A823FEC5E
:1035900016F08A803FEF16F095D8FE0EDB50E76EEE
:1035A000010EE7CFDBFFDF6A080EDF5C0FE2010EE2
:1035B000DB50800B800802E18A8001D08A907AD8A3
:1035C0003FEC16F08A8271D8DF2AEED793808A8288
:1035D0003FEC16F08150010BDF6E8A923FEC16F043
:1035E0009390DF50006E020EE15C02E2E16AE55268
:1035F000E16E005050D066D89380010EDB6ADF6A1E
:10360000080EDF5C0BE28A823FEC16F053D881B0E3
:10361000DB808A923FEC16F0DF2AF2D793903FECE2
:1036200016F0FE0EDB0402E18A8001D08A908A82C5
:103630003CD8010EDB50006E020EE15C02E2E16A52
:10364000E552E16E005027D0E66A040EE66EDDDD3D
:10365000E552E552E552E55212003DD8FD0EDBCFB2
:10366000E6FFFE0EDBCFE6FF0EDDE552E552FB0E78
:10367000DBCFE6FFFC0EDBCFE6FF1200FA0EDBCF5E
:1036800004F0FB0EDBCF05F0FC0EDBCF06F0FD0EE9
:10369000DBCF07F01200E552E7CFD9FF1200016A35
:1036A000026A036A0E0E011212003FEC16F08A92B3
:1036B0003FEF16F0010EDBCFF3FFF39EF346F3CF9F
:1036C000DBFF120008D8020EE1261200E66E6E0E35
:1036D000E66E24EF1BF0D9CFE6FFE1CFD9FF120051
:0836E00001C0E6FF24EF1BF01E
:0836E800090EC26EA60EC06EB1
:1036F0000F0EC16E9284120085DBE652DF6A0C0E5B
:10370000C16EC282C2B2FED776DBC3CFEFFF010E1D
:10371000E76E71DBE750E926000EEA22C4CFEFFF27
:10372000C168E55274D3070E8B12F80E9416938C71
:10373000DBDF8150400B01E0010E0101A66F92908A
:1037400092929396939A9390939293949296899649
:1037500089889288898A928A8A868A9A8A908A92A5
:10376000F18E02D8C0EF1BF0C00EF2129D809E9029
:103770009F80D10ECF6E1F0ECE6E010ECD6E120049
:10378000E00EF212F294440ED66EC30ED56E120005
:1037900039DBFE0EDB50010BE81CE8B08B80E8A0A3
:1037A0008B90FE0EDB50020BE8407F0BE81CE8B06C
:1037B0008B82E8A08B92FE0EDB50040BE840E840C1
:1037C0003F0BE81CE8B08B84E8A08B9420D31ADB75
:1037D000080EE126060E0101A05D03E36D50020B09
:1037E00002E081DAF7D1400EE66E000EE66E010EC1
:1037F000E66EA5EC22F0E552E552E552E66ED950B0
:10380000020FE96EDACFEAFFE552E750EE6EED6A9D
:10381000020EDBCF00F0030EDBCF01F0013401E339
:10382000C9D100500008000E015401E3C3D10101C9
:103830000051C00A01E163D1700A01E116D1100AFA
:1038400001E1BFD0300A01E1A5D0100A01E196D014
:10385000F00A01E185D0100A73E0300A64E0100A32
:103860004AE0700A3BE0100A0CE0300A01E0A2D105
:10387000050EEADA01C1E6FFF4DA22EC04F0E552C3
:1038800082D0060EE1DA01019A51020A12E0010A21
:1038900009E00B0A07E00D0A1EE1A7DAE66AE66A0C
:1038A000E66814D0A2DAFE0EE66EE6683F0EE66E1B
:1038B0000DD0E66AD6DA54EC16F0E552E552E55240
:1038C00094DA060EE66E200EE66EE66AE66AC9DA5D
:1038D00027EC0EF0A0DA0101020E6FD0050E66DAB9
:1038E00002E07CDAFEE16BDA02E071DAFEE1A6DAF0
:1038F00065EC06F041D0060E59DA02E06FDAFEE11F
:103900005EDA02E064DAFEE1B6DA27EC0EF083DA82
:10391000E76E010EE7CFDBFFDB5003081EE101017C
:10392000030E406F1AD0050E41DA02E057DAFEE1CD
:1039300046DA02E04CDAFEE181DA52EC0AF01CD001
:10394000060E34DA02E04ADAFEE139DA02E03FDA62
:10395000FEE191DA3EEC10F05EDA01C19CF12ED06E
:10396000050E24DA02E03ADAFEE129DA02E02FDA83
:10397000FEE164DA1CEC0CF04EDA07D0010EE66EC4
:10398000010EE66E2ED9E552E5520101406F0101AC
:10399000010E13D02C0E006E490E016E026A00C09B
:1039A000E6FFE66E02C0E6FF61DA5FEC24F0036E2C
:1039B000050EE15E03500101120E9C6F040E44DA05
:1039C000F9D0070E41DA01010151030A3AE0010A78
:1039D00010E0030A06E0010A01E0ECD0010EE66EF9
:1039E00001D0E66A050EE66E290EE66E54EC16F07E
:1039F00020D002C100F0016A026A036AE0D902E045
:103A0000E6D9FEE10DDA100E1F0B07E0D89008365C
:103A100009360A360B36E806F9E11ADA00C0E6FF85
:103A200001C0E6FF02C0E6FF03C0E6FF77EC1AF034
:103A3000E552E552E552E5520101010E406F0101E8
:103A4000B8D001EC1AF0020EF3CFDBFF030EF4CF77
:103A5000DBFF020EDBCF40F1030EDBCF01F001C034
:103A600000F0016A00C041F147D00151050A40E071
:103A7000010A29E0070A23E0010A0FE0030A01E036
:103A800092D09250200B06E18950200B03E18AB2BC
:103A900011D087D08AA285D086D093A003D081B0E0
:103AA00082D07FD09250100B07E18950100B04E1B7
:103AB0008AA077D0020E7AD08AA073D074D08AA45C
:103AC00072D0050E73D00101010E9C6F8AB603D02F
:103AD0000101040E0BD08AAA02D0010107D089A6E9
:103AE00003D00101030E02D00101050E406F62D028
:103AF000BDD902DEE552E5520101020E5AD0015154
:103B0000040A3AE0070A2FE0010A15E0030A4DE132
:103B10000251030A0BE0010A05E0030A44E1939213
:103B20008A9206D093928A82929A03D093928A8242
:103B3000928A899A36D00251060A12E0050A0BE0F1
:103B4000010A05E0030A2FE193908A9006D0939032
:103B50008A80929803D093908A809288899821D005
:103B6000928893801ED00251050A04E0060A1BE1E8
:103B70008A9417D08A8415D00251050A0FE0010AF1
:103B80000BE0070A05E0020A0EE18A868A8A08D05D
:103B90008A868A9A898605D08A9601D08A868A9AE8
:103BA0008996010E03D0030E01D0030E406F010170
:103BB000010E9C6F01019C510DE004010CBF08D067
:103BC0009CC1E6FF53D975EC22F0E552E552E5526F
:103BD00001019C6B080EE15C02E2E16AE552E16ED4
:103BE00016D110D908D9EFCF9BF101019B51320AB0
:103BF00076E0010A74E0190A70E0030A6CE00E0A2C
:103C000068E00C0A66E0030A64E00B0A60E0020A5E
:103C10005EE0030A5CE03F0A58E0030A56E0010A4E
:103C200054E03F0A52E0040A50E0010A4EE0030A61
:103C30004CE0260A4AE0010A48E0030A44E0010A8F
:103C400042E0070A40E0010A3EE0030A3CE0280A9D
:103C50003AE0290A38E00F0A36E0010A34E0030AA4
:103C600032E0010A30E0070A2EE0010A2CE01D0ACA
:103C70002AE0020A28E0010A26E0070A24E0010AF5
:103C800022E0030A20E0010A1EE00F0A1CE0010AFC
:103C90001AE0030A18E0010A16E0340A14E0330AB5
:103CA00012E0280A0EE0180A0CE0010A0AE0230AD2
:103CB00008E0010A06E01E0A04E09B6B030E9A6FFF
:103CC00011D09A6B0ED0020E0BD0030E09D0080E45
:103CD00007D0040E05D0050E03D0060E01D0070E46
:103CE0009A6F010E94D001019D519E1104E1100EB6
:103CF0009D6F270E9E6F9D07000E9E5B6DA207D0E5
:103D00009D519E1120E18B808B828B7412000101EA
:103D1000A05102E1010E10D0A00508E0020EA05D46
:103D200002E1040E09D0030EA05D02E1020E04D0F0
:103D3000050EA05D03E1040E24EF1FF0060EA05D4A
:103D400002E101019F6B12008150400B01E0010E66
:103D50000101A65D07E08150400B01E0010EA66F56
:103D600081AC010C000C5CD873D8040E00C0DBFFE2
:103D7000050E01C0DBFF060E02C0DBFF070E03C00D
:103D8000DBFF05C1E6FF01C1E6FF1200E66ED95078
:103D9000040FE96EDACFEAFFEECFE6FFEECFE6FFE3
:103DA000EECFE6FFEFCFE6FF31EF1FF04DD802C1B7
:103DB00000F0016A026A036A100E1F0B120003C1B1
:103DC00004F0056A066A076A080E1F0B1200D890F5
:103DD0000436053606360736E8061200D890003657
:103DE000013602360336E8061200030EE66E020EB6
:103DF000E66E36EF1FF0FD0EDBCFE9FFFE0EDBCFE8
:103E0000EAFF1200D9CFE6FFE1CFD9FF1200E55259
:103E1000E7CFD9FF1200006E0A0EE15E00501200DB
:103E200004500012055001120650021207500312EE
:103E300004C108F0096A0A6A0B6A120094DF060ED0
:103E4000E66E010EC6EF1EF0E66EA2DCE552120031
:103E500008500012095001120A5002120B500312AE
:103E600012009BC1E6FF9AC1E6FF1200400EE66E0B
:103E7000010EE66E120077DF400EE66E010EC6EF11
:023E80001EF032
:0E3E820004011051600BE842E842E842E842B9
:103E9000E842000901E012001151070A40E00B0A54
:103EA0003EE0070A33E0010A23E00B0A1FE0020AA2
:103EB0001DE0030A19E0080A10E0010A0CE00F0AED
:103EC00008E0030A01E0120010D90101040EA06FFE
:103ED000120090EF1FF0C7EF1FF007D90101A20EEB
:103EE0008C6F010E8D6F0CD0E2EF1FF012EF20F0FF
:103EF00000D901018C6F8D6BA30E8C27010E8D23D1
:103F00000101A1930101010E906F1200F2D8EA6A3B
:103F1000A30FE96E010EEA2212C4EFFF1200120095
:103F2000800E0401105D32E11351030A1FE0010A03
:103F30000AE0030A29E1D9D801018E0E8C6F460EE2
:103F40008D6F120E1ED0ABD8320EF626470EB9D8A2
:103F5000020E0101F76A8C25F66E8D51F7220900D9
:103F6000F5CF90F10A00F5CF91F10ED098D8360E2A
:103F7000F626470EA6D88CC1F6FF8DC1F7FF0800C4
:103F8000F5500101906F916B0101A1831200ADD832
:103F90000F0EE66E710EE66E0F0E9BD8010EE66EEA
:103FA000A30EE66E010E95D812C4A2F104011251BF
:103FB00004E10101050EA06F12000101060EA06FC1
:103FC00060EF22F00401186B196B040110511F0BF4
:103FD000020A0DE0030A09E0010A16E186D8010190
:103FE000A1A112D0040118830FD07FD80DD04BD8D7
:103FF00001E0010E5DD88EC1E9FFEA6EEF50040BBF
:1040000003E00401010E186F01018B050AE10101B3
:10401000180E8C6F040E8D6F0101A1930101020E29
:10402000906F1200040112050EE110511F0B0009E0
:104030000AE15BD8030E0401115D03E10101A181D6
:1040400002D00101A191040112511CE110511F0B7A
:10405000020818E114510F0B000914E014D801E014
:10406000010E26D8030E0401115D04E1840E38D838
:10407000EF6E120014AF03D033D8EF6A1200880E2F
:104080002FD8EF6E120035D80F0B080DF350016AD0
:10409000000F006E040E01221451800B120025D86F
:1040A00004011251F66EF76AD890F636F736120010
:1040B000040DF350010100248E6F000E01208F6F5C
:1040C0001200F7220900F5CF8CF10A00F5CF8DF12F
:1040D0001200E66E4BEC22F0E552E552E55212007A
:1040E0008EC1E9FF8FC1EAFF12000101010E8B6F43
:0A40F0001200FBDF0401145112005E
:0640FA006C5002E0000E14
:1041000001D0010E00090BE0040100513C0BE84214
:10411000E8420D0802E198EF20F0A7EF20F06C5084
:1041200002E0000E01D0010E040901E01FD81200C8
:10413000D9CFE6FFE1CFD9FFE65201018A6B8B6B45
:10414000906B916B41EC1FF099D8E552F6D0020EBE
:1041500001018A5D09E168D8040100BD02D0C80EE2
:1041600001D0880E006F120077EF21F0040E0101DC
:10417000A05D09E112C46EFF6E50000802E2050E58
:1041800001D0030EA06F01018A0509E10AD80401DC
:1041900004BD02D0C80E01D0880E046F120077EF64
:1041A00021F0C4D80101080E905D000E915905E27E
:1041B00090C1DEFF91C1DDFF03D0080EDE6EDD6A27
:1041C000040104930491010EDB500413DFCF05F4C6
:1041D000000EDB500101905F010EDB50915B180E69
:1041E0008E6F040E8F6F0101A1A30CD098D815E03B
:1041F0008CC1F6FF8DC1F7FF0800F55080D8F6E2BC
:10420000DB06F4D78CD809E08CC1E9FF8DC1EAFF49
:10421000EF5075D8F7E2DB06F5D7020EE15C02E25B
:10422000E16AE552E16E89D081D8030E04010015E0
:10423000E76E010EE7CFDBFF01C4DFFFDE500101B7
:104240009027DD509123180E8C6F040E8D6F67D868
:104250000EE08CC1E9FF8DC1EAFFEF508EC1E9FF8E
:104260008FC1EAFFEF6E6DD8F2E2DB06F0D7020EE7
:10427000E15C02E2E16AE552E16E5FD001018B513F
:1042800005E145D8840E006F04011DD0040110AF74
:104290001CD0010190510401165D010191510401EE
:1042A000175904E216C490F117C491F17ADF0101A5
:1042B000010E8A6F2CD8800E006F0401180E066F55
:1042C000040E076FC80E046F10D00101020E8A6F32
:1042D0000401056BC80E046F0401080E016F180E6F
:1042E000026F040E036FC80E006F6D98120001017B
:1042F0008A6B0DD8880E006F0401046B12008EC10A
:10430000E9FF8FC1EAFFEF6E0101A1EF21F0040187
:10431000080E016F100E026F040E036F1200D9CF4A
:10432000E9FFDACFEAFFEE50ED101200D9CFE6FF39
:10433000E1CFD9FF020EE1261200E552E7CFD9FF07
:1043400012008E2B000E8F238C2B8D23DF06010E87
:02435000120059
:0E4352006DA60CD80101A00508E16DBA06D0D9
:10436000686A696A69806988020EA06F12006D6AC6
:10437000696A6D860101010EA06F12006D6A696A9B
:104380000101A06B1200BEEF21F00101A05101E17B
:1043900012006850040B04E06950040B01E038D8A7
:1043A0006DB212006850010B04E06950010B01E08E
:1043B00050D86850100B04E06950100B01E024D86D
:1043C0006850400B04E06950400B01E037D868505A
:1043D000200B04E06950200B01E032D86850020B3A
:1043E00004E06950020B01E032D8030E0101A05D28
:1043F00001E212006850080B06E06950080B03E068
:104400007DEC20F068961200698468986D82120035
:104410006D926994689412000101A1A10ED0F8DF99
:104420006D840101080EA46F070EA56FA407000E8E
:10443000A55BA451A511FAE16D941200689C1200CD
:1044400070A003D077EC21F07090689A1200689207
:1044500012006A6A686A9F0E6B6E7B0E696E6E6AE6
:104460000F0EE66E710EE66E0F0EE66E14D8E55274
:10447000E552E552160E706E68A602D06896FCD71B
:104480006D9877EC21F00101A1910101A26B01016E
:10449000030EA06F1200D9CFE6FFE1CFD9FFFD0ECA
:1044A000DBCFE9FFFE0EDBCFEAFFFC0EDB5004E0C2
:1044B000EE6AFC0EDB06F9D7E552E7CFD9FF120012
:1044C0000101A86B1E0E716E0401400E096F200ED3
:1044D0000A6F040E0B6F880E086F0401600E0E6FDA
:1044E000040E0F6F400E0C6F1200D9CFE6FFE1CF24
:1044F000D9FFE652FC0EDB50400805E2400EF36E99
:10450000FC0EF3CFDBFFDF6AFC0EDB50DF5C0FE25B
:10451000DF5050D8EF50E66EDF50EA6A600FE96E68
:10452000040EEA22E552E750EF6EDF2AEDD7FC0ECB
:10453000DBCF0DF4400E04010C170C7D880E0C131C
:10454000E552E552E7CFD9FF1200D9CFE6FFE1CF20
:10455000D9FF0101A86B040108BF26D0FC0EDBCFF8
:1045600000F00951D880005403E2FC0E09C4DBFFBF
:104570000101A86BFC0EDB50A85D0FE2A851EA6AAE
:10458000200FE96E040EEA22EF50E66EA85112D811
:10459000E552E750EF6EA82BEDD70401400E096FEE
:1045A0000817087D880E08130101A851E552E7CFCE
:1045B000D9FF1200E76EFD0EDBCFE9FFFE0EDBCF69
:0C45C000EAFFE750E926000EEA22120094
:0445CC00DACFE4FF5F
:1045D000E6529EA00BD00101922B000E9323942350
:1045E0009523D10ECF6E1F0ECE6E9E90F2A40AD0F0
:1045F00089708950010B02E0899201D08982440EB2
:10460000D66EF294E552E5CFDAFF1100D8CFE4FF81
:10461000E0CFE4FFE46EDACFE4FFE652E552E5CF07
:10462000DAFFE550E5CFE0FFE5CFD8FF1000D9CFA6
:10463000E6FFE1CFD9FF92C196F193C197F194C102
:1046400098F195C199F1960EE96E010EEA6EEE5061
:104650000101925D006EEE509359016EEE50945937
:10466000026EEE509559036ED950FB0FE96EFF0EA6
:10467000DA20EA6EEE50005CEE500158EE5002581F
:0E468000EE500358E0E3E552E7CFD9FF1200F9
:02468E00120117
:10469000000200000008D8040E0000000102000122
:1046A000090220000101008032090400000200001C
:1046B000000007050103400020070581034000209A
:1046C000040309042A037500730062007000690086
:1046D0006300700072006F0067002E006F007200B0
:1046E000670020002000200020002000200044035C
:1046F0007500730062007000690063007000720052
:104700006F0067002E006F0072006700200020001D
:104710002000200020002000200020002000200099
:104720002000200020002000200020002000200089
:0C4730002000A046A046C046C446EE464D
:04473C002A0EF66EDD
:10474000080EF76E000EF86E01010900F550856F36
:104750000900F550866F03E1856701D03DD009005F
:10476000F550806F0900F550816F0900F550826F98
:1047700009000900F550E96E0900F550EA6E0900DC
:1047800009000900F550836F0900F550846F090096
:104790000900F6CF87F1F7CF88F1F8CF89F180C112
:1047A000F6FF81C1F7FF82C1F8FF0101835302E1E7
:1047B000845307E00900F550EE6E8307F8E28407A2
:1047C000F9D787C1F6FF88C1F7FF89C1F8FF01015A
:0A47D0008507000E865BBFD71200BC
:0647DA007F6A7E6A7D6A21
:1047E0007C6A7B6A7A6A796A786A776A766A756AB5
:1047F000746A736A726A716A706A6F6A6E6A6D6AE5
:104800006B6A6A6A696A686A120004D80FD8E7ECB2
:104810001BF0FCD70F0EC112140E6F6E0101A06BBE
:104820000101A16B0101A26B93EF1BF0A9EC21F038
:0A4830006FBE02D0C5EC21F01200AB
:06483A001D6A1C6A1B6AE6
:104840001A6A200EE76ED8901E361F3620362136A3
:104850001A361B361C361D3623501A5C24501B5842
:1048600025501C5826501D5809E323501A5E245029
:104870001B5A25501C5A26501D5A1E2AE72EE4D7D3
:02488000120024
:0E48820020C02AF020502502F4CF1FF0F3CF03
:104890001EF021502602F4CF21F0F3CF20F02502A4
:1048A000F3501F26F4502022E86A21222A502602C3
:0E48B000F3501F26F4502022E86A2122000C4B
:0248BE00FB0EEF
:1048C000E3CFF6FFFC0EE3CFF7FFFD0EE3CFF8FFDB
:1048D000FE0EE3CFE9FFFF0EE3CFEAFFE9CFF3FFE0
:1048E000EACFF4FF0900F5CFEFFFEE66FBD7120029
:1048F000000EF36E00EE00F0040E01D81200EA6024
:1049000002D0EE6AFCD7F350E9601200EE6AFCD7E1
:1049100013EE00F023EE00F0F86A199C9EEC23F0F1
:0C4920009FEC24F005EC24F0FBD7120003
:04492C0075736270CD
:0D493000696370726F6720302E342E3100E5
:02493E00120065
:064940000300000000FF6F
:08494600000000000000000069
:020000040030CA
:0100000021DE
:010001000EF0
:0100020038C5
:010003001EDE
:01000500807A
:010006008079
:01000900C036
:01000B00E014
:00000001FF
